:10000000E00700202D18000011180000000000007B
:10001000111800001118000011180000111800003C
:10002000111800001118000011180000111800002C
:1000300011180000111800001118000069150000C7
:10004000111800001118000011180000111800000C
:1000500011180000111800001118000011180000FC
:1000600011180000111800001118000011180000EC
:1000700011180000111800001118000011180000DC
:100080001118000045170000111800001118000099
:1000900011180000111800001118000011180000BC
:1000A00011180000111800001118000011180000AC
:1000B000111800001118000011180000111800009C
:1000C000111800001118000011180000111800008C
:1000D000111800001118000011180000111800007C
:1000E000111800001118000011180000111800006C
:1000F0000B88032B02D0052B06D101E0044B00E056
:10010000044B036002207047034B036003207047D9
:1001100055030000B104000035010000034B044802
:100120001A6850431860000A704700BF00000020A2
:10013000CD0D010038B50B880446062B0D4612D0B4
:10014000162B14D10B79042B03D8103350F823301D
:100150001BB90948A92101F0F3FA2B7900201033CB
:1001600044F8230038BD054B0360022038BD044B22
:100170000360032038BD00BF602900006502000055
:100180004124000038B50446FFF7C8FFC0B22F284D
:1001900006D894F87F305BB1013B84F87F3007E0EC
:1001A000D02805D994F8803013B1013B84F8803011
:1001B000FFF7B4FFC0B22F2817D894F87F3094F817
:1001C0008020C3F11001891A94F88120914227DD23
:1001D00094F87D205A2A04D994F87E105A1C914232
:1001E0001EDD013384F87F301AE0D02818D994F846
:1001F0007F1094F88030C1F1100194F88120C91A61
:1002000091420DDD94F87D205A2A06D994F87E108B
:10021000C3F110020131914202DA013384F88030D7
:100220000F4DBF22691D281D02F0AAFA94F8801014
:1002300094F87F304FF0FF32C1F1100112FA01F152
:1002400012FA03F361EA030385F8633005F1C40091
:100250001B0A291DC13285F8C33002F0F7F838BDFA
:100260000000002008B50B88012B0DD10021C02211
:10027000074802F0DFFA06486021102201F0FAF97F
:1002800001F0C1FE002008BD024B0360032008BD41
:10029000C40000204124000038B50B880446013B0F
:1002A0000A2B3CD8DFE803F0061B3B3B3B3B3B3BC8
:1002B0003B2737000F234385214618300F220025A6
:1002C00001F064FE04F12C0021469622E58701F03E
:1002D0005DFE84F87C5015200021134A18E0183088
:1002E00001F074FE04F12C0001F070FE002001F01A
:1002F000D4F9002038BD90F87C300B4A0B4C83F0C9
:100300000103002180F87C308B4218BF2246152063
:1003100001F0B9F9EDE7064B0360022038BD054B4B
:100320000360032038BD00BFE62F0000F02F00005F
:10033000B10400003501000070B50E46044600F11E
:100340001405206C10B1314601F09EFF0434AC421C
:10035000F7D170BD0B8810B5022B04460ED00B2BC5
:1003600013D0012B15D101F09BF90023E38704F191
:100370002C0021465A2201F009FE04E02C3001F045
:1003800025FE01F08BF9002010BD044B0360022014
:1003900010BD034B0360032010BD00BF210400000B
:1003A000F10000000928F8B504460D46164604D9A8
:1003B000194840F2CB2101F0C3F9174800EBC40300
:1003C0001A7CC5F160039A42C8BFDAB2134B5D19BB
:1003D00000231CE0002E4FEAC40106DB4118C96867
:1003E000CF5CF1B217FA01F106E04118C968CF5CA1
:1003F0007142C9B257FA01F12F7801330F4305F862
:10040000017B95F85FC04CEA112185F85F10D9B2E5
:100410009142DFD3F8BD00BF60290000C400002076
:1004200038B50B880446022B24D00B2B31D0012B7E
:1004300033D1FFF773FE00210546C022194802F0B0
:10044000F9F92923B5FBF3F103FB1151002005F065
:100450000702C9B2FFF7A6FF60211022114801F080
:1004600009F90023E38704F12C0021460A2201F058
:100470008DFD0CE02C3001F0A9FD0021C0220948BF
:1004800002F0D8F907486021102201F0F3F80020AB
:1004900038BD054B0360022038BD044B03600320C8
:1004A00038BD00BFC400002055030000F10000006B
:1004B00038B50B880446013B0A2B52D8DFE803F01D
:1004C000062B513D4D51515151333B0000250D2319
:1004D00080F8813080F87D5080F87E5080F87F5021
:1004E00080F880502946C022204802F0A3F90F234B
:1004F000638504F1180021460F2201F047FD04F145
:100500002C00E58721464FF4167201F03FFD84F878
:100510007C50284638BD183001F058FD04F12C00FD
:1005200001F054FD05E090F87C3083F0010380F881
:100530007C30002038BD0E4B10E0FFF723FE94F80E
:100540007C3023B1002014210422FFF72BFF09483F
:100550006021102201F08EF8EBE7074B03600220C8
:1005600038BD064B0360032038BD00BF04000020E7
:10057000F1000000C40000208105000035010000EA
:100580002DE9F0430B8885B0013B04460D46172B3F
:1005900000F21881DFE813F01800260016012E0083
:1005A00016011601D80016011601160116011601D2
:1005B0001601160181008100C40016011601C40055
:1005C000160116011601CB000D2380F881300021A1
:1005D000C0227F4802F02EF97E4B7F49186801F057
:1005E000D1FA05E004A9172221F8082DFFF7A4FE8F
:1005F0000020EAE060211022784801F03BF8204614
:10060000FFF7C0FDFFF78AFD94F87D3013B1013B81
:1006100084F87D3094F87D30552B7EDC00F0FF00AF
:1006200007287AD8234600261A6C22B101360433F3
:10063000052EF9D171E0FFF771FD94F8801010F0EC
:10064000010F0CBF04EB860206F11A0287B294F880
:100650007F000CBF526D54F82220C1F10C0106F14D
:100660001003091A44F82320831CB7FBF1F001FBA7
:10067000107160225B1810361521ADF8001084F857
:100680007D2084F87E3054F8260069468DF80420D9
:100690008DF8053001F0F8FD3FE0AE7995F8058062
:1006A000092E2F795FFA88F904D94D4840F2E521E7
:1006B00001F046F84A4A02EBC603197CC7F1600311
:1006C0009942C8BFD9B2474B9646FA18002311E0A9
:1006D0000EEBC600C06812F85FCCC05C00FA09F0EF
:1006E00010EA0C0F0AD1013292F800C001331CEA63
:1006F000102C03D1D8B28842EAD308E02B883A49BB
:100700000F2B0CBF334B394B186801F03BFA3046C6
:1007100039464FFA88F2FFF745FE2046294665E73D
:10072000A879297995F90520FFF73CFE60E7A888AC
:1007300000F0B3FFAA884FF4FA63B2FBF3F3C3F1FE
:100740000D0384F8813053E7AD88284600F0A5FFFB
:100750000021C022214802F06DF8204860211022BB
:1007600000F088FF12200121214A00F08CFF0023B5
:100770008DF80C300A33B5FBF3F203FB125592B23D
:10078000B2FBF3F103FB112289B230328DF80A205B
:10079000B1FBF3F203FB121130318DF80910B2FBFB
:1007A000F3F101FB132304AA303302F8083D36208D
:1007B000303501218DF80B5000F065FF0D4B022004
:1007C000236002E00C4B0360032005B0BDE8F0831A
:1007D000040000205C2A0000BC290000C4000020A6
:1007E0006029000063000020C0290000582A000092
:1007F000FA2F0000990200003501000070B5044690
:10080000054600F11406686D002101F0F3FCA86EA6
:100810000021043501F0EEFCB542F4D1094B40F261
:10082000D2421A602046042101F0EEF9204605214B
:1008300001F0EAF92046062101F0E6F9024B022018
:10084000236070BD00000020B104000070B5134C9F
:10085000134B04F5CE700A21C4F8843101F082FBF9
:1008600004F5D8700B2101F07DFB04F5EA76002534
:10087000284600F05FF946F8040F284600F04AFACF
:100880000135EDB20023052D706146F8143CEFD11F
:1008900084F8013284F8023270BD00BF00000020ED
:1008A000FD0700002DE9F843092805460C461646C9
:1008B00098469DF820709DF8249001D8092B04D902
:1008C0002D4840F2033100F03BFFBC422A4B24D8B4
:1008D00003EBC802127CA218BA4247DD3C1BD71BAF
:1008E00003EBC502117CFFB2E4B28F4228BF0F4672
:1008F00000220EE003EBC501C968885C03EBC80168
:10090000C968B0408918095D013201FA09F108424D
:1009100029D1D1B2B942EDD328E003EBC502127C54
:10092000B918A14222DDE01B141B03EBC802117CA5
:100930003F19FFB2C0B28F4228BF0F4600220EE01F
:1009400003EBC801C9688C5C03EBC501C96804FAF4
:1009500009F48918095C0132B1400C4209D1D1B2C5
:10096000B942EDD302E00120BDE8F8830020BDE8E4
:10097000F8830120BDE8F88360290000044B1A7851
:100980000AB901321A70034B03600220704700BF9E
:1009900008020020990900000B88152B07D10B795C
:1009A00003714B794371044B036002207047034B82
:1009B00003600320704700BF810A0000412400004B
:1009C0000B8810B5022B044602D0172B13D10EE072
:1009D0001621062001F07EF9094B0146E41A094B65
:1009E000E4100471186801F0CDF8002010BD064B2A
:1009F0000360022010BD054B0360032010BD00BF43
:100A00000C020020C42900009909000041240000C4
:100A10000B8810B5012B044602D0042B25D102E02F
:100A20000020A07110BD0379DBB182790E2A18D89D
:100A30000132013B827103711421082001F04AF94F
:100A400023790146013303716379023B4371A37932
:100A50009B0806338371074B186801F093F8002058
:100A600010BD054B0220236010BD044B0360032022
:100A700010BD00BFC429000099090000C109000091
:100A80000B8837B50F2B0446084618D0102B28D0FA
:100A9000042B3AD1237913B3013B23711121082090
:100AA00001F018F923790146037163794371032337
:100AB0008371184B186801F065F8002028E005796B
:100AC0008379009540792179019062790320FFF7BD
:100AD000E9FEE8B1104B1149186801F053F8104BCA
:100AE00010E0057983790095407921790190627948
:100AF0000320FFF7D7FE58B10A4B0B49186801F0E5
:100B000041F80A4B2360022002E0094B03202360D6
:100B10003EBD00BFC42900005C2A0000302A00004E
:100B200099090000582A0000362A0000110A000026
:100B3000C1090000042810B5044603D9054838212E
:100B400000F0FEFD0448E400044A031904305A6032
:100B5000001910BD3C2A0000080200207D09000099
:100B6000044B1A780AB901321A70034B0360022051
:100B7000704700BF340200207D0B00000B88152B4E
:100B800007D10B7903714B794371044B0360022049
:100B90007047034B03600320704700BF650C0000E3
:100BA000412400000B8810B5022B044602D0172BFD
:100BB00013D10EE01621062001F08CF8094B0146F6
:100BC000E41A094BE4100471186800F0DBFF002000
:100BD00010BD064B0360022010BD054B03600320CF
:100BE00010BD00BF38020020C42900007D0B0000AA
:100BF000412400000B8810B5012B044602D0042BC1
:100C000025D102E00020A07110BD0379DBB182790B
:100C10000E2A18D80132013B827103711421082079
:100C200001F058F823790146013303716379023BDF
:100C30004371A3799B0806338371074B186800F052
:100C4000A1FF002010BD054B0220236010BD044B06
:100C50000360032010BD00BFC42900007D0B00000D
:100C6000A50B000037B50D8804460F2D084617D098
:100C7000102D27D0042D39D123790BB3013B2371DB
:100C80001121082001F026F82379014603716379C8
:100C900085714371174B186800F074FF002028E03D
:100CA0000579837900954079217901906279042052
:100CB000FFF7F8FDE8B1104B1049186800F062FF2B
:100CC0000F4B10E0057983790095407921790190E7
:100CD00062790520FFF7E6FD58B10A4B0A4918680A
:100CE00000F050FF094B2360022002E0084B032074
:100CF00023603EBDC42900005C2A0000442A000095
:100D00007D0B0000582A00004A2A0000F50B000065
:100D1000A50B0000042810B5044603D90548382166
:100D200000F00EFD0448E400044A031904305A6040
:100D3000001910BD502A000034020020610B000091
:100D400030B5054685B00C4600F0DCF800F0C2F97D
:100D5000FFF77CFD28461E4D214600F00FFC01F0F8
:100D600051F928462821042200F0E0FF082205F16D
:100D70002800902100F0DAFF05F1B800082101F009
:100D800003F8144B00241868012105F1F80202232E
:100D900000940194029401F069F90F4B0221186844
:100DA00005F58072032300940194029401F05EF92A
:100DB0000A4B0321186805F586720A2300940194F2
:100DC000029401F053F901F020F9204605B030BD3E
:100DD00060020020582A00005C2A0000C42900009C
:100DE0000B88122B07D10B7903764B794376044B92
:100DF000036002207047034B03600320704700BF6D
:100E0000210E00004124000010B50421044600F02A
:100E1000FBFE024B0220236010BD00BFE10D00006D
:100E20000B8810B50D2B04461BD0132B1DD0042BA3
:100E300022D1037E5D2B12DC0233037610210820C1
:100E400000F048FF237E01460371637E4371022355
:100E500083710B4B186800F095FE002010BD094B04
:100E600000E0094B0360022010BD084B186800F039
:100E700089FE044B2360F6E7054B0360032010BD99
:100E8000C4290000E10D0000950E00005C2A00005E
:100E9000412400000B8810B5012B044602D0042B1E
:100EA00025D102E00020A07610BD037EDBB1827E5A
:100EB0000E2A18D80132013B8276037614210820CD
:100EC00000F008FF237E014603330371637E043B79
:100ED0004371A37E9B0806338371074B186800F0AB
:100EE00051FE002010BD054B0220236010BD044BB5
:100EF0000360032010BD00BFC4290000E10D000005
:100F000041240000014A024B1A607047090E00009C
:100F1000940300200B88032B02D0092B0AD103E095
:100F2000064B0360022070470B7903764B794376BA
:100F300000207047024B036003207047450F0000FC
:100F4000412400000B880C2B03D1044B03600220CA
:100F50007047034B03600320704700BF850F0000FC
:100F6000150F000010B50421044600F04DFE204688
:100F7000052100F049FE024B0220236010BD00BF96
:100F8000150F00000B8870B5013B0446122B57D893
:100F9000DFE803F00A5656153D5656565656565635
:100FA0005252565656564D00002383831821062070
:100FB00000F090FEA48B01468480244B32E00F2188
:100FC000082000F087FE237E01460371637E437193
:100FD000012383711D4B1E68304600F0D3FDA38BA7
:100FE0000A2201339BB2B3FBF2F502FB1535ADB219
:100FF000A383002D28D11821062000F06BFEA48BBE
:1010000001468480304600F0BDFD284670BD1221A7
:10101000062000F05FFE237E01460371637E0233EB
:1010200043710B4B186800F0ADFD002070BD8A883D
:10103000838BD3188383F8E7064B0360022070BDCF
:10104000054B0360032070BD002070BDC429000063
:10105000582A00005D100000150F000038B50B88FD
:101060000446012B02D0042B2AD102E00020A076F6
:1010700038BD837E144D0E2B14D801338376142192
:10108000082000F027FEA37E01469B0806338371EB
:10109000237E0371637E013B4371286800F072FD7B
:1010A000002038BD0721062000F014FEA38B014666
:1010B0008380286800F066FD044B0220236038BD61
:1010C000034B0360032038BDC4290000450F000016
:1010D000150F0000034B044A1A600A221A76023ADE
:1010E0005A767047B0030020650F0000034B7A2248
:1010F0001A60773A98605A60704700BF000002405B
:101100000138FDD17047704738B50546054C636915
:10111000002BFBD0044B1868FFF7F2FF0123A560FA
:10112000636038BD00000240D003002070B5064661
:10113000094C6369002BFBD0084B1D682846FFF75C
:10114000DFFF0523A6606360034B5B69002BFBD0C8
:101150002846BDE87040D3E700000240D0030020DD
:1011600070B504460D460DE0084E7369002BFBD0A8
:10117000074B013D1868FFF7C3FF14F8013BB3604C
:1011800001237360002DEFD170BD00BF000002404D
:10119000D003002070B58020FFF7A8FF134B062175
:1011A0001C79134B5F25981F002C08BF1846FFF7CA
:1011B000D7FF0020FFF7A8FF013DFAD12846FFF72F
:1011C000B5FF8020FFF792FF0A4B0621981F002CE5
:1011D00008BF1846FFF7C4FF5F240020FFF794FF05
:1011E000013CFAD12046BDE870409FE7D0030020C3
:1011F000662A0000722A000070B516460546802057
:101200000C46FFF773FF002E14BFB120B020FFF78C
:101210007BFF8020FFF778FF234B5E79361906F0BD
:101220000F00FFF771FF36098020FFF76DFF06F012
:101230000F0040F01000FFF767FF4020FFF764FF4A
:101240002CE05A2C194A4FEA830112D8CB18A3F18B
:10125000A00005211018FFF783FF5A2C02D07378E5
:1012600001350BB9002016E00020FFF74DFF0634D2
:1012700014E0CB18A3F1A000C4F15F0410182146BC
:10128000A2F11806FFF76CFF2B78203B03EB8303DA
:10129000F6183419207EBDE8704047E72B782E46BB
:1012A000002BCED170BD00BFD0030020782A0000F3
:1012B0002DE9F84398461A4B04465F791546CF1935
:1012C0004FEA171909F00F09089E49F0100923E0A9
:1012D0008020FFF70BFF002D14BFB120B020FFF7D7
:1012E00013FF8020FFF710FF07F00F00FFF70CFF40
:1012F0008020FFF709FF4846FFF706FF4020FFF771
:1013000003FF204608F1FF314444FFF729FF14F89A
:10131000010CFFF70BFF0135013ED9D2BDE8F88380
:10132000D0030020524B2DE9F041D3F80421514C59
:1013300042F48052C3F80421D3F80821064642F053
:101340000202C3F808215D68C5F300352571002D40
:101350000CBF24220422627112D0D3F8082101208C
:1013600042F00802C3F80821FFF7CAFE424BD3F847
:10137000002442F08002C3F800248022C3F8002237
:101380003E4B3F49D3F8002422F00C02C3F800245E
:10139000D3F8202442F00C02C3F82024D3F800250F
:1013A00042F00C02C3F80025D3F8182522F00C02F5
:1013B000C3F81825D3F80C2542F00C02C3F80C250D
:1013C000D3F8102542F00C02C3F81025D3F81C25E1
:1013D00042F00C02C3F81C25D3F8282522F00C0299
:1013E000C3F82825274B1A6A42F010021A62264ACF
:1013F000002E0CBF0E46164614225643234A12688E
:10140000013A9219B2FBF6F6013EDE60DB68442237
:10141000013353432360002420E01D4EA6F14D0309
:10142000002D08BF3346771EA6F14E08185D002D2B
:101430000CBF3E464646FFF759FE315DA01C3018F2
:101440000239002D18BF4746FFF78AFE3B5D3F1962
:10145000F85CFFF76BFE335D0133E418002D0CBF21
:1014600071234D239C42D8D3BDE8F04192E600BFE2
:1014700000E00F40D003002000700040005000400A
:10148000A086010000000240801A0600E803002048
:10149000A12C00002DE9F041002421E0154EA6F119
:1014A0004D03002D08BF3346771EA6F14E08185D88
:1014B000002D0CBF3E464646FFF718FE315DA01CCE
:1014C00030180239002D14BF45463D46FFF748FE4F
:1014D0002B5D2D19E85CFFF729FE335D0133E4181D
:1014E000054B1D79002D0CBF71234D239C42D5D394
:1014F000BDE8F081A12C0000D003002010B58020B1
:10150000FFF7F4FDAE20FFF7FFFD8020FFF7FCFDA5
:10151000AD20FFF7F9FD8020FFF7F6FD8A20BDE83A
:10152000104003E600BF70474209012300F01F008E
:1015300013FA00F0014B43F82200704700E100E08D
:1015400000284FEA411105DA054B00F00F00C318DF
:1015500019767047034BC31883F80013704700BF18
:10156000FCEC00E000E100E010B500F061FC024896
:10157000BDE8104000F00EBC122D000010B500F0C8
:10158000CBF9374BD3F8002142F48032C3F8002165
:10159000D3F8042142F44032C3F80421D3F80821DF
:1015A00042F00502C3F80821FFF7BCFFFFF7BAFFBE
:1015B000FFF7B8FF2B4B02215A6922F4704242F424
:1015C000A0425A611A6A22F470421A62D3F8A0202B
:1015D00022F06F0242F06002C3F8A020D3F8A420EA
:1015E00022F00F0242F00602C3F8A4201A6842F06B
:1015F00008021A601C4BDA6822F00112DA6000223D
:101600001A605960194908687821B0FBF1F19962B4
:10161000D968012041F00201D960D96841F0200168
:10162000D960134BD3F8001441F02001C3F8001423
:10163000D3F81C1541F02001C3F81C15C3F8802015
:10164000D3F8002422F01002C3F80024D3F81C259C
:1016500042F01002C3F81C25BDE81040FFF762BE3F
:1016600000E00F400080034000100340E80300202A
:101670000060004007B50B46D208002100920A46E0
:10168000FFF716FE0EBD10B50B4604462146104668
:101690001A46BDE81040FFF7AFBD7047FFF7FABE2E
:1016A000FFF72CBF1B4B10B51A681E23B2FBF3F3D8
:1016B000B3F1807F0DD2184C23F07F43013B636070
:1016C0004FF0FF300721FFF73BFF0023A3600733F4
:1016D00023604FF0FF300221FFF732FF112001217C
:1016E000FFF72EFF00200146FFF72AFF1120FFF72A
:1016F0001BFF0020FFF718FF084B0822DA609A68EA
:1017000042F008029A60064BDA6842F00112DA6091
:1017100010BD00BFE803002010E000E0008003409F
:10172000001003407047054B2022C3F88020203A68
:10173000C3F8802030BF62B6704700BF0060004031
:1017400072B6FEE738B52B4C0823E360D4F8AC3012
:1017500013F4807F03D028485C21FFF7F1FFD4F811
:10176000A830264C043322686FF00D059B1A02EB5B
:10177000E3035D43236005F560556368AD0A9D4250
:101780000CD00921062000F0A5FA0A2303711C4B96
:1017900001464571186800F0F5F96560194B227A29
:1017A0001B6C032A24D8DFE802F002090F18E26854
:1017B00093421DD0114B01221A7238BDE1680F4AC5
:1017C0008B4207D0022306E0E1680C4A8B4201D02D
:1017D000032300E00023137238BDE268934205D072
:1017E000064AD36013B9084800F0D4FA00232372E4
:1017F00038BD00BF00800340162D0000D803002034
:101800005C2A0000006000401C2D000098E700BF2B
:10181000684620F007018D4601B540F207110248E5
:10182000FFF7F4FFFEE700BF01300000684620F03C
:1018300007018D4601B50F4A0F4B03E052F8041B18
:1018400043F8041B0D498B42F8D30D4B02E00022F4
:1018500043F8042B0B4A9342F9D300F06DFFFFF7D6
:101860006FFA09484FF48171FFF7D0FFBDE80140DE
:10187000854670471830000000000020000000205E
:10188000000000208805002001300000704700BFE4
:10189000EFF30980704780F309887047EFF3088001
:1018A000704780F308887047EFF31280704780F329
:1018B00011887047EFF31080704780F310887047ED
:1018C000EFF31380704780F31388704700BA7047B6
:1018D00040BA7047C0BA704790FAA0F07047D0E89D
:1018E0004F0FC0B27047D0E85F0F80B2704750E82A
:1018F000000F7047C1E8400F7047C1E8500F7047B4
:1019000041E800007047EFF31480704780F31488BB
:101910007047000000BF7047874B884A73B51A674D
:10192000874A1A66874A1A66874A1A67002303E0BD
:10193000FFF7F0FF019B01330193019BB3F57A7F21
:10194000F6D37D4B814A1A667F4A1A67002303E06B
:10195000FFF7E0FF019B01330193019BB3F57A7F11
:10196000F6D37B4A744B1A6601E0FFF7D3FF724B44
:101970001A6D12F0400FF8D0764A1A66724A1A674A
:10198000002303E0FFF7C6FF019B01330193019B96
:10199000B3F57A7FF6D3684B196E1A6F1846002A92
:1019A000B4BF02F0700301F03003202B3AD004D80A
:1019B0006BB1102B40F0BE8010E0602B5DD0702B1F
:1019C00058D0302B40F0B68047F2305363E001F43A
:1019D000F860614B800953F820305CE0564B186882
:1019E00010F0E04F4CD01C685C4804EA0000B0F1F5
:1019F000805F45D01C68594804EA0000584CA0425A
:101A000003D11B689BB2022B3CD04B48534B04685C
:101A100004EA0303534CA34236D10368524C9BB2F1
:101A2000524822E00068444B10F0E04F2ED01C6872
:101A30004A4804EA0000B0F1805F27D01C6847489C
:101A400004EA0000464CA04203D11B689BB2022B63
:101A50001ED03948414B046804EA0303414CA342B9
:101A600018D10368424C43489BB2002B0CBF23465D
:101A7000034610E04FF400430DE04FF480030AE00A
:101A80003D4B08E0384B06E0384B04E03B4B02E0AE
:101A9000374B00E0374B002A02DA12F4006F01E006
:101AA00011F4006F27D1244D686E2C6814F0E04FBC
:101AB00043F6E07400EA040406D02E68274D06EAD7
:101AC0000505B5F1805F06D16409023400F01F05F9
:101AD0006343023505E06409634300F01F050135E7
:101AE0006D00B3FBF5F310F4804F18BF5B0810F4E2
:101AF000004F18BF9B0811F4800F19D0002A11DA8B
:101B000012F0804F07D012F4006F04D102F0FE52A1
:101B10005B00920D02E002F0FC52D20D0132B3FBE9
:101B2000F2F305E001F0F061C90D0131B3FBF1F30F
:101B3000134A13607CBD00BF00E00F4010288007EF
:101B4000D13A8E07C22A8E0410288000C20A8E0461
:101B5000C20ACE04C202CE04202D00000000FF7095
:101B60000000011000000310001BB7000024F40067
:101B7000C0C62D0000093D00C0E1E4007038390006
:101B8000E803002038B504460D4672B68B7813B1D1
:101B9000CB780133CB70636893B9227D1649174B1C
:101BA000885C174965600C181D7864788A5C45EA82
:101BB00004041C701B18587840EA02025A7018E09E
:101BC000E37B1BB90F484921FFF7BAFDA368627B8D
:101BD00043F82250637B0BB9237B6373637B227CC6
:101BE000013B6373E37B013BDBB29A42E37388BF43
:101BF000237462B638BD00BF332E00007C05002080
:101C0000B12D00007C2D000070B5114B047D03291F
:101C10000D461E5D0BD90F4B1B888B4207D934B183
:101C20003F2C04D80C4B53F82430834203D00B488C
:101C30003021FFF785FD72B6094B1B6803EBC50524
:101C4000084BAA5D1B5D42EA0303AB5562B670BD4B
:101C5000332E000070050020EC030020842D0000CE
:101C60006C050020B12D0000004870478B2D00004E
:101C700070B5047D0646631EDBB23E2B064D02D8CE
:101C800055F824301BB105484021FFF759FD72B6C5
:101C900045F8246062B670BDEC030020922D000070
:101CA00038B5047D094D631EDBB23E2B03D855F8D1
:101CB0002430834203D006485421FFF741FD72B619
:101CC000002345F8243062B638BD00BFEC03002085
:101CD000922D000070B504460E46002509E0104B19
:101CE00001351B78EDB2AB4203D80E483021FFF727
:101CF00027FD0D4B142000FB05308389A342EED352
:101D000000F0C6F8044618B906483A21FFF718FD56
:101D1000013500232680A570E370204670BD00BF0A
:101D2000F0040020992D0000F4040020F8B5134CB5
:101D3000074623780E46052B154603D910482E2159
:101D4000FFF7FEFC23785BB10C4A013B142101FB39
:101D500003231B8AAB4203D309481D31FFF7F0FC74
:101D60002278084B142000FB023039462B463246BD
:101D700000F0B8F8237801332370F8BDF004002098
:101D8000A02D0000F4040020014B186099807047DA
:101D90006C050020204B02881B882DE9F0479A42F1
:101DA000044603D31D483121FFF7CAFC72B6A3785D
:101DB00013B1E3780133E37062B60825184B013D97
:101DC00022881B68EDB203EBC2034FEAC5095E5DD2
:101DD0005FFA89F916E0134B134F13F80680134B83
:101DE00013F80830C8445FFA88F81E4057F82830C6
:101DF0001BB90A485921FFF7A3FC57F828002146D0
:101E0000FFF7C0FE002EE6D1002DD7D12046BDE859
:101E1000F04700F0ABB900BF70050020A82D00000E
:101E20006C050020B42E0000EC030020F22D000011
:101E300038B572B6144D2C6822E0238A013B9BB260
:101E40002382BBB9638A0BB123820DE02B689C42CD
:101E5000A36802D10C4A136004E00BB162685A60B7
:101E6000626893600023636062B6E0682146FFF712
:101E700089FE03E062B6054B00221A7072B6A468B0
:101E8000002CDAD162B638BD780500207405002038
:101E9000034672B6006848B10268598A1A601A8A05
:101EA000013A92B291421A8288BF5A8262B6704752
:101EB00010B5044618B1084B1B78834203D207487B
:101EC0004521FFF73DFC72B662B6054B013C14227A
:101ED00002FB0434608A10BDF0040020742E000060
:101EE000F40400202DE9F8430446154699460F46B0
:101EF00029B1032A03D904339BB24B4503D81848B0
:101F00003621FFF71DFC04232760A3814FF0010851
:101F100003E00436A68108F10108A6894E45F8D3EE
:101F2000B54203D20E484421FFF70AFC0123E381A6
:101F3000AD1B23684FEA880807E003EB08021A602C
:101F4000E389AD1B0133E3811346B542F5D200228C
:101F50001A60E289676022826282A360BDE8F8832A
:101F60007C2E0000032938B504460D4603D80648E8
:101F70002921FFF7E5FB00236360A360E360238270
:101F800063822580A37038BD852E000070B504469D
:101F90000D4616462AB10388032B02D9436803B9BC
:101FA00019B908483021FFF7CBFB26826460E56051
:101FB00072B6054A1368A36003B15C60146062B630
:101FC00070BD00BF8E2E00007805002072B64268FA
:101FD00072B109490B689842836801D10B6003E034
:101FE00003B15A604268936000234360012000E01F
:101FF000104662B6704700BF780500200048704761
:10200000962E00007047FFF78DBB38B5FFF74AFBEF
:1020100072B6134B1A78FAB11A7862B11A7811496C
:102020008A5C013AD2B29B185B78CB5C03EBC203AB
:1020300003F0FF0300E013460B4A52F8235062B648
:10204000284600F039F804462146284600F01CF9DD
:10205000204600F08BF8DBE7FFF765FBD8E700BF11
:102060007C050020B42E0000EC0300202DE9F04197
:1020700017464A1ED2B23E2A984604460D46069B93
:10208000089E00D81BB10A486721FFF759FB394663
:10209000201D5FFA88F200F05FF820462575FFF7F3
:1020A000E7FD20463146BDE8F04100F0A3B800BF8F
:1020B0009D2E0000FFF7F4BD70B5044672B643686C
:1020C0001BB916483021FFF73BFBE37B227B60689E
:1020D00093420CD0A17BA56855F82150656001B9E9
:1020E000A273A27B0133013AA273E37314E00023CD
:1020F0006360257D0A4B0B4C595D0B4B655D5A188F
:10210000567806EA0505557052782AB961181D7887
:102110004A7805EA02021A7062B670BDA62E000067
:10212000332E0000F22D00007C0500203F2838B53A
:102130000446074D02D855F820301BB905485C21EC
:10214000FFF7FEFA72B662B655F82430187C38BD37
:10215000EC030020A62E0000002303604160027201
:1021600043728372C27202737047000070B5857843
:102170000446002D1BD072B6C378012B03D9013B56
:10218000C37062B670BD013DEDB262B6084B1B78FC
:10219000AB4203D807484621FFF7D2FA064B14207A
:1021A00000FB05302146BDE8704000F007B870BD67
:1021B000F0040020AE2E0000F404002038B543687F
:1021C00004468B420D4606D88368994203D8028A9A
:1021D000C3899A4203D906482D21FFF7B1FA72B696
:1021E00023682B60238A25600133238262B638BDC1
:1021F000B42F0000F0B5036887B004469847022862
:1022000003D01C482D21FFF79BFA1B4E236806AF15
:1022100047F8183D204619499847002506E0013542
:1022200047F8043F20461549EDB298472368B3426A
:10223000F5D1009E6BB2052B266003DD0D484421CD
:10224000FFF77EFA6FB2013700AB03EB8707013D62
:1022500057F8043D20460A49EDB2984715F0800F23
:10226000F5D020460749B0470228CFD0266007B0F6
:10227000F0BD00BFBC2F000041240000D62F00009D
:10228000DA2F0000E22F00002DE9F043056887B047
:1022900004460E46276820463146B8470328F9D041
:1022A000022840F0BF80D4F800900195CDF800904E
:1022B00007E020465D49A84710B920465C49A84779
:1022C0002568BD42F5D14D4509D120465749A8475B
:1022D00000256EB2013600A800EB86066CE02046B1
:1022E0005349C847D4F800804545F1D020465049AD
:1022F000A84726684645E8D04E4504D120464B49BC
:10230000A847FF25E5E7CDF8048020464849C047A7
:10231000012518E005F1010823685FFA88F84FFAF3
:1023200088F206A800EB8201BB4241F8183C06D1B6
:10233000052ACEDD3F487A21FFF702FAC9E7204699
:102340003B49984745460328E4D06BB2052B03DD93
:1023500038488521FFF7F4F920463449B8476FB271
:1023600000AB013703EB87073A462B4652F8041DB2
:10237000013B8E4212D0DBB213F0800FF6D0204624
:102380002A49B04710B920462949B04726683A463D
:102390002B4652F8041D013B8E4201D1DDB298E775
:1023A000DBB213F0800FF4D0E9E756F8043D204685
:1023B00021499847013DEDB215F0800FF5D0009D01
:1023C00025602AE0236806AF47F8183D20461849E3
:1023D0009847002606E0013647F8043F2046144996
:1023E000F6B298472368AB42F5D1009D73B2052B36
:1023F000256003DD0F48D921FFF7A2F977B2013735
:1024000000A800EB8707013E57F8043D20460A4923
:10241000F6B2984716F0800FF5D020460749A84736
:102420000228CFD0256007B0BDE8F083DE2F000082
:10243000D62F0000C52F0000DA2F0000E22F000089
:102440000120704700487047CE2F00002DE9114051
:1024500087B090F800F091F800F091F820F0042A8D
:10246000C0F05781C1F1000313F0030311D05FEAFC
:10247000C37CA2EB030244BF11F8013B00F8013B0F
:1024800021BF11F8014B11F801CB00F8014B00F806
:1024900001CB80EA010C1CF0030F50D18DE8E00F56
:1024A000C0F1000313F01C0316D0934288BF02F062
:1024B0001C035FEA037C24BFF0C9F0C044BFB1E84D
:1024C0000003A0E8000313F0040F1CBF51F804AB95
:1024D00040F804ABA2EB0302203A0DD321F01F0C0D
:1024E0000CF1400CB1E8F00F9CF840F0203AA0E865
:1024F000F00FF7D202F1200212F01F0F1AD05FEA9C
:10250000027C24BFF0C9F0C044BFB1E80003A0E8DA
:1025100000035FEA827C24BF51F8043B40F8043B8F
:1025200044BF31F8024B20F8024B12F0010F1CBFE0
:102530000B780370BDE8E00FBDE811407047042A36
:10254000C0F0E7808DE8E00FC0F1000505F003055D
:102550004FEAC50CCCF1200E51F8043BA2F1040265
:10256000ED0744BF00F8013B1B0A21BF00F8013B07
:102570001B0A00F8013B1B0A042AC0F0BC8010F0C3
:102580001C0F0FD051F8045BA2F1040205FA0EF4FF
:1025900043EA040425FA0CF340F8044B042AEED273
:1025A000C0F0A980203AC0F09280BCF1180F60D032
:1025B000BCF1080F2ED051F804CB6446B1E8E00F0F
:1025C00091F840F0203A28BF51F804CB43EA044385
:1025D0004FEA144444EA05444FEA154545EA0645E6
:1025E0004FEA164646EA07464FEA174747EA0847C2
:1025F0004FEA184848EA09484FEA194949EA0A499E
:102600004FEA1A4A4AEA0B4AA0E8F8074FEA1B4386
:10261000D3D25CE051F804CB6446B1E8E00F91F806
:1026200040F0203A28BF51F804CB43EA04634FEA54
:10263000142444EA05644FEA152545EA06654FEA85
:10264000162646EA07664FEA172747EA08674FEA61
:10265000182848EA09684FEA192949EA0A694FEA3D
:102660001A2A4AEA0B6AA0E8F8074FEA1B23D3D2DA
:102670002DE051F804CB6446B1E8E00F91F840F04A
:10268000203A28BF51F804CB43EA04234FEA1464EC
:1026900044EA05244FEA156545EA06254FEA166621
:1026A00046EA07264FEA176747EA08274FEA1868FD
:1026B00048EA09284FEA196949EA0A294FEA1A6AD9
:1026C0004AEA0B2AA0E8F8074FEA1B63D3D2CEF1FF
:1026D000200C02F12002042A0DD351F8045BA2F170
:1026E000040205FA0EF443EA040425FA0CF340F858
:1026F000044B042AF1D25FEA0E7544BF00F8013B97
:102700001B0A22BF00F8013B1B0A00F8013B9DE8B1
:10271000E00FD20744BF11F8012B00F8012B21BFB5
:1027200011F8013B91F800C000F8013B80F800C0AF
:1027300007B0BDE81140704770B500240C4D0D4E38
:10274000761BB61003E055F8043B01349847B442B9
:10275000F9D1094DFFF79AF8084E0024761BB61000
:1027600003E055F8043B01349847B442F9D170BDF9
:102770001830000018300000183000001830000039
:1027800088420346F0B40C460ED98D18A8420BD2ED
:1027900042B1831829469A1A11F8014D03F8014DE8
:1027A0009342F9D1F0BC70470F2A38D941EA0005AD
:1027B00015F0030F35D1A2F1100601F110050B46FB
:1027C0000246370905EB07151C6814605C68546005
:1027D0009C689460DC681033D46010329D42F3D161
:1027E0007C1C06F00F022401032A00EB04032144A1
:1027F00014D9043A0C461D464FEA920C01EB8C07A3
:10280000043754F8046BBC4245F8046BF9D10CF161
:10281000010402F00302A4001B1909190C46002A46
:10282000C0D02146A21811F8014B914203F8014B88
:10283000F9D1B7E7032AC9B2F0B408D82AB10346E0
:10284000121803F8011B9342FBD1F0BC70478218A9
:10285000044601E004F8011B14F0030FFAD1151B24
:102860004FF00136072D06FB01F603DD0AE044F8C0
:10287000046B151B032DFADC01E004F8011BA242D6
:10288000FBD8E2E714F0070F02D044F8046BF9E735
:102890004FF0013303FB01F3171B254680347F2FD4
:1028A00040DD44F8803C44F87C3C44F8783C44F8F3
:1028B000743C44F8703C44F86C3C44F8683C44F880
:1028C000643C44F8603C44F85C3C44F8583C44F8B0
:1028D000543C44F8503C44F84C3C44F8483C44F8E0
:1028E000443C44F8403C44F83C3C44F8383C44F810
:1028F000343C44F8303C44F82C3C44F8283C44F840
:10290000243C44F8203C44F81C3C44F8183C44F86F
:10291000143C44F8103C44F80C3C44F8083C44F89F
:10292000043CB9E7571B2C4620351F2F10DD45F816
:10293000203C45F81C3C45F8183C45F8143C45F84B
:10294000103C45F80C3C45F8083C45F8043CE9E7E8
:10295000151B072D8EDD236063600834F8E700BF88
:1029600074756E6E656C2E6300000000C82900004F
:1029700037000000FF29000005000000042A0000C5
:1029800003000000072A0000030000000A2A0000DC
:10299000040000000E2A000004000000122A0000BB
:1029A00007000000192A000007000000202A00008C
:1029B00007000000272A0000070000000C000000AC
:1029C0000D000000840100207F090906007C080436
:1029D0000400385454580048545424004854542493
:1029E000000000007F494936003C40407C00043F25
:1029F0004400043F440038444438007C0404780711
:102A00000606040401010102070209060609000680
:102A1000060000000814080000000014081400005C
:102A200000221408142200492A146B142A490000B9
:102A30000E00000001001300000019006D696E65B2
:102A4000312E63000E0000000200130000002D0074
:102A50006D696E65322E630094030020B003002080
:102A6000B08004801040B08004801240B1800480A7
:102A70001040B18004801240000000000000004FB0
:102A800000000007000700147F147F14242A7F2A07
:102A900012231308646236495522500005030000D2
:102AA000001C2241000041221C0014083E081408AA
:102AB000083E0808005030000008080808080060B8
:102AC00060000020100804023E5149453E00427F4C
:102AD000400042615149462141454B311814127F53
:102AE0001027454545393C4A4949300171090503DC
:102AF0003649494936064949291E00363600000044
:102B00005636000008142241001414141414004115
:102B10002214080201510906324979413E7E111101
:102B2000117E7F494949363E414141227F41412240
:102B30001C7F494949417F090909013E4149497AB8
:102B40007F0808087F00417F41002040413F017F0E
:102B5000081422417F404040407F020C027F7F04E6
:102B600008107F3E4141413E7F090909063E41511F
:102B7000215E7F09192946464949493101017F01F2
:102B8000013F4040403F1F2040201F3F4038403F12
:102B9000631408146307087008076151494543002E
:102BA0007F41410002040810200041417F000402DF
:102BB00001020440404040400001020400205454FF
:102BC00054787F4844443838444444203844444886
:102BD0007F3854545418087E0901020C5252523E58
:102BE0007F0804047800447D40002040443D007F7D
:102BF0001028440000417F40007C041804787C08C1
:102C000004047838444444387C1414140808141418
:102C1000187C7C080404084854545420043F444061
:102C2000203C4040207C1C2040201C3C4030403C4C
:102C300044281028440C5050503C4464544C4400E8
:102C40000836410000007F00000041360800020104
:102C50000204020480AE80E30680AD808A80E30631
:102C600080A8801F80E30480C880E30480A080E304
:102C70000480D880E304800580E304804080E3067C
:102C80008081805D80E30680D9801180E30680D555
:102C9000800180E30680D3800080E30480AF80E37E
:102CA0000480AE80E304800480E304801280E306A5
:102CB0008081802B80E30480A180E304804080E356
:102CC0000680D3800080E30680A8800F80E3048024
:102CD000A480E30480A680E30480B080E30480C87D
:102CE00080E30680D5807280E30680D8800080E390
:102CF0000680D9802280E30680DA801280E3068095
:102D0000DB800F80E30680AD808B80E30480AF80A2
:102D1000E300040000006273702E630005000000F1
:102D200040420F0000201C0080841E00008025000F
:102D3000999E36000040380000093D0000803E00AA
:102D400000004B00404B4C0000204E00808D5B008B
:102D500000C05D000080700000127A0000007D005D
:102D600080969800001BB7000080BB00C0E8CE0032
:102D7000647ADA000024F4000000FA0071615F66F2
:102D800069666F0071615F73756200342E322E3098
:102D9000340071665F6163740071665F6E65770011
:102DA00071665F706F6F6C0071665F7073707562D3
:102DB00000000102040810204080010204081020D5
:102DC0004080010204081020408001020408102005
:102DD00040800102040810204080010204081020F5
:102DE00040800102040810204080010204081020E5
:102DF0004080FFFEFDFBF7EFDFBF7FFEFDFBF7EF3F
:102E0000DFBF7FFEFDFBF7EFDFBF7FFEFDFBF7EFD0
:102E1000DFBF7FFEFDFBF7EFDFBF7FFEFDFBF7EFC0
:102E2000DFBF7FFEFDFBF7EFDFBF7FFEFDFBF7EFB0
:102E3000DFBF7F0000000000000000000101010171
:102E40000101010102020202020202020303030362
:102E50000303030304040404040404040505050532
:102E60000505050506060606060606060707070702
:102E700007070707716D705F67657400716D705F9C
:102E8000696E6974007174655F63746F7200717448
:102E9000655F61726D00342E312E303500717661C0
:102EA0006E696C6C610071615F6765745F0071666B
:102EB0005F676300000102020303030304040404C8
:102EC00004040404050505050505050505050505B6
:102ED0000505050506060606060606060606060696
:102EE0000606060606060606060606060606060682
:102EF0000606060607070707070707070707070766
:102F00000707070707070707070707070707070751
:102F10000707070707070707070707070707070741
:102F20000707070707070707070707070707070731
:102F30000707070708080808080808080808080815
:102F40000808080808080808080808080808080801
:102F500008080808080808080808080808080808F1
:102F600008080808080808080808080808080808E1
:102F700008080808080808080808080808080808D1
:102F800008080808080808080808080808080808C1
:102F900008080808080808080808080808080808B1
:102FA00008080808080808080808080808080808A1
:102FB00008080808716D705F707574007168736D32
:102FC0005F696E69007168736D5F64697300342EA8
:102FD000322E30340000000000000100000002002A
:102FE00000000300000047616D65204F76657200A8
:102FF0002020202020202020200053636F72653A7B
:1030000000737461727475705F73746D33326631FE
:0830100030785F636C000000E2
:040000030000182DB4
:00000001FF
