:10000000E0070020191D0000FD1C0000000000009A
:10001000FD1C0000FD1C0000FD1C0000FD1C00007C
:10002000FD1C0000FD1C0000FD1C0000FD1C00006C
:10003000FD1C0000FD1C0000FD1C0000FD1900005F
:10004000FD1C0000FD1C0000FD1C0000FD1C00004C
:10005000FD1C0000FD1C0000FD1C0000FD1C00003C
:10006000FD1C0000FD1C0000FD1C0000FD1C00002C
:10007000FD1C0000FD1C0000FD1C0000FD1C00001C
:10008000FD1C0000091C0000FD1C0000FD1C000000
:10009000FD1C0000FD1C0000FD1C0000FD1C0000FC
:1000A000FD1C0000FD1C0000FD1C0000FD1C0000EC
:1000B000FD1C0000FD1C0000FD1C0000FD1C0000DC
:1000C000FD1C0000FD1C0000FD1C0000FD1C0000CC
:1000D000FD1C0000FD1C0000FD1C0000FD1C0000BC
:1000E000FD1C0000FD1C0000FD1C0000FD1C0000AC
:1000F0000B88032B02D0052B0AD104E0074B0360C9
:100100004FF002007047064B03604FF0020070474B
:10011000044B03604FF00300704700BFA1090000CB
:100120003D040000C9010000044B1A68044800FBAC
:1001300002F018604FEA1020704700BF0000002056
:10014000CD0D01002DE9F0410D4616461C4609294A
:1001500004D91B4840F2CB2101F054FD2A46184B2C
:1001600003EBC5052D7CC6F160039D42C8BFDDB21F
:100170001DB3144B9E194FF00003114F07EBC2073C
:10018000C4F100085FFA88F85FFA84FC002CFA6872
:10019000D15CACBF01FA0CF141FA08F132780A43A4
:1001A00006F8012B96F85F0040EA112186F85F10EF
:1001B00003F10103DAB29542E8D8BDE8F08100BF4F
:1001C000643000000400002038B505460C460B885A
:1001D000062B16D0162B19D10B79042B04D803F15A
:1001E000100350F8233023B90B484FF0A90101F058
:1001F00009FD237903F110034FF0000045F82300B7
:1002000038BD064B03604FF0020038BD044B03605D
:100210004FF0030038BD00BF64300000350500001A
:10022000412B0000F8B5074600F1500400F16405C9
:100230004FF0000654F8040F314602F00DFB6069E0
:10024000314602F009FBAC42F4D140F2D2420B4BF2
:100250001A6038464FF0040101F09CFF38464FF019
:10026000050101F097FF38464FF0060101F092FFBB
:10027000034B3B604FF00200F8BD00BF00000020C0
:100280003D04000070B504460B88022B33D00B2BC5
:1002900047D0012B4AD1FFF747FF0546264E30468F
:1002A0004FF000014FF0C00202F046FE234BA3FBCB
:1002B00005234FEA531303EB830203EBC202AA1A8E
:1002C00020464FF00001D2B205F00703FFF73AFFD6
:1002D00030464FF060014FF0100201F017FC4FF074
:1002E0000005E58704F12C0021464FF00A0202F0D8
:1002F00063F9284670BD00F12C0002F07FF90E4C26
:1003000020464FF000014FF0C00202F015FE2046DB
:100310004FF060014FF0100201F0F8FB4FF00000C9
:1003200070BD074B03604FF0020070BD054B0360CA
:100330004FF0030070BD00BF040000207D0CCEC74D
:10034000A1090000F100000070B50446FFF7ECFEC3
:10035000C0B22F2806D894F87F301BB103F1FF33C9
:1003600084F87F30D02806D994F880301BB103F18F
:10037000FF3384F88030FFF7D7FEC0B22F2818D89B
:1003800094F87F30C3F1100194F88020891A94F812
:10039000812091420DDD94F87D205A2A05D994F8E8
:1003A0007E1003F10102914203DD03F1010384F8A1
:1003B0007F30D0281AD994F8803094F87F10C1F19A
:1003C0001001C91A94F8812091420FDD94F87D2024
:1003D0005A2A07D994F87E1001F10101C3F11002E5
:1003E000914203DA03F1010384F88030124D05F1E4
:1003F000C406304605F1C5014FF0BF0202F042FDD0
:1004000094F88010C1F110014FF0FF3202FA01F1AF
:1004100094F87F3002FA03F361EA030385F823318D
:100420004FEA132385F8833105F1040031464FF07C
:10043000C00202F08DFB70BD0000002038B50446FC
:100440000B8803F1FF330A2B65D8DFE803F0062E93
:1004500064475F646464643942004FF0000580F8CB
:100460007D5080F87E5080F87F5080F880504FF0AB
:100470000D0380F881302A4829464FF0C00202F06F
:100480005BFD4FF00F02628504F11800214602F077
:1004900093F8E58704F12C0021464FF4167202F020
:1004A0008BF884F87C50284638BD00F1180002F023
:1004B000A5F804F12C0002F0A1F84FF0000038BDBF
:1004C00090F87C3083F0010380F87C304FF000001E
:1004D00038BD144B03604FF0020038BDFFF734FF06
:1004E00094F87C3043B120464FF000014FF01402E5
:1004F0004FF00403FFF726FE0B484FF060014FF06A
:10050000100201F003FB4FF0000038BD074B036001
:100510004FF0020038BD064B03604FF0030038BDBA
:10052000C4000020F1000000040000205906000073
:10053000C901000010B50B88012B13D10C4C2046CB
:100540004FF000014FF0C00202F0F6FC20464FF0E1
:1005500060014FF0100201F0D9FA02F073F84FF089
:10056000000010BD034B03604FF0030010BD00BF3F
:1005700004000020412B000070B504460B8803F1F5
:10058000FF330A2B4BD8DFE803F006224A4A4A4AD7
:100590004A4A4A3145004FF00F02428500F11800E7
:1005A000214602F009F84FF00005E58704F12C0020
:1005B00021464FF0960201F0FFFF84F87C504FF087
:1005C00015002946184A01F0AFFA284670BD00F11F
:1005D000180002F013F804F12C0002F00FF84FF0AD
:1005E000000001F0ABFA4FF0000070BD90F87C30D5
:1005F00083F0010380F87C304FF015004FF00001CC
:10060000094A0A4C8B4218BF224601F08DFA4FF07E
:10061000000070BD064B03604FF0020070BD054B3B
:1006200003604FF0030070BD2C3700003837000026
:100630003D040000C901000070B50E4600F13C0405
:1006400000F1500554F8040F10B1314602F05EF984
:10065000AC42F7D170BD00BF2DE9F04182B0054634
:100660000C460B8803F1FF33172B00F27781DFE88C
:1006700013F018002B007501370075017501160184
:100680007501750175017501750175017501A00090
:10069000A000FC0075017501FC0075017501750174
:1006A00006014FF00D0385F88130B0484FF000018E
:1006B0004FF0C00202F040FCAD4B1868AD4901F0AC
:1006C00023FD4FF000004DE102A94FF0170221F881
:1006D000082D28466946FFF7AFFF4FF0000041E1C3
:1006E000A5484FF060014FF0100201F00FFA2846C4
:1006F000FFF72AFEFFF718FD95F87D3043B103F1AF
:10070000FF33DBB285F87D3003F10A035F2B49DC50
:1007100000F0FF00072845D82B6C63B105F14003BA
:100720004FF0010653F8042F3AB106F10106F6B274
:10073000052EF7D136E04FF00006FFF7F5FC81B249
:1007400010F0010F06F1100307BF05EB8602526D92
:1007500006F11A0255F8222045F823204FF06002D6
:1007600085F87D2095F87F3003F1020095F88070C0
:10077000C7F10C07FB1AB1FBF3F703FB1713C31800
:10078000DBB285F87E304FF01500ADF800008DF833
:1007900004208DF8053006F1100655F8260069464C
:1007A00002F0B4F828462146FFF746FF4FF000005C
:1007B000D8E00E7991F805808F79092F04D96F4818
:1007C00040F2E52101F01EFA6C4B03EBC7031A7CE3
:1007D000C6F160039A42C8BFDAB2002A37D0674B2D
:1007E00003EBC703D9685FFA88FE0B7803FA0EF3B0
:1007F0006348801990F8C40003421FD160488019F3
:1008000090F8240110EA132018D15848831902F1F6
:10081000FF32D2B203EB020C0DE011F8012F02FA05
:100820000EF2587803F10103104207D193F86000EB
:1008300010EA122002D16345EFD108E023880F2B84
:100840000CBF4B4B4F4B18684F4901F05DFC2846DD
:10085000394632464FFA88F3FFF774FC28462146A2
:10086000FFF7EAFE4FF000007CE028468979227904
:1008700094F90530FFF766FC4FF0000072E08888BD
:1008800001F05CF9A288414BA3FB02134FEAD3139A
:10089000C3F10D0385F881304FF0000062E08C88D1
:1008A000204601F04BF9344E30464FF000014FF036
:1008B000C00202F041FB30464FF060014FF01002E1
:1008C00001F024F94FF012004FF00101304A01F01D
:1008D0002BF94FF000038DF804302E4BA3FB0402DC
:1008E0004FEAD20202EB8201A4EB410404F130048E
:1008F0008DF8034091B2A3FB01024FEAD20202EB52
:100900008200A1EB400101F130018DF8021091B29B
:10091000A3FB01024FEAD20202EB8200A1EB4001ED
:1009200001F130018DF8011092B2A3FB02134FEADE
:10093000D30303EB8303A2EB430202F1300302AAC9
:1009400002F8083D4FF036004FF001016A4601F011
:10095000EBF8114B2B604FF0020003E00F4B2B60C4
:100960004FF0030002B0BDE8F08100BFC4000020DA
:1009700070310000C030000004000020643000002E
:10098000000000206C310000C4300000D34D621024
:1009900044370000CDCCCCCC79050000C901000063
:1009A00038B504460B88022B11D00B2B18D0012B25
:1009B0001BD101F0C9F84FF00005E58704F12C00C8
:1009C00021464FF05A0201F0F7FD284638BD00F1EC
:1009D0002C0001F013FE01F0B3F84FF0000038BD19
:1009E000044B03604FF0020038BD034B03604FF02F
:1009F000030038BD85020000F100000070B5164DFF
:100A0000164BC5F8843105F5CE704FF00A0101F0A0
:100A1000BDFD05F5D8704FF00B0101F0B7FD05F5F0
:100A2000EA754FF000042646204600F0D9F945F853
:100A3000040F204600F0FAFA686145F8146C04F1DE
:100A40000104E4B2052CEFD1034B4FF0000283F810
:100A5000012283F8022270BD000000202502000060
:100A60002DE9F84306460D4690461F469DF8204066
:100A70009DF82490092801D8092B04D9514840F247
:100A8000033101F0BFF8A5423DD84E4B03EBC7033D
:100A90001B7CEA18A24275DD101BC0B2494B03EB68
:100AA000C6031A7C904228BF104600286ED0454BE2
:100AB00003EBC707F968641BE4B24F4603EBC606B5
:100AC000F26846460B5D03FA09F9137803FA08F851
:100AD00019EA080F5ED10C194FF000030AE065789F
:100AE00004F1010412F8011F05FA07F501FA06F1F5
:100AF0000D4253D103F10103DBB28342EFD14FF03A
:100B00000000BDE8F8832F4B03EBC6031B7CE21803
:100B1000AA4247DD581B2018C0B22A4B03EBC7037B
:100B20001A7C904228BF104600283FD0254B03EB8B
:100B3000C606F1682C1BE4B2464603EBC707FA6809
:100B40004F460B5D03FA08F8137803FA09F918EA1F
:100B5000090F2FD10C194FF000030AE0617804F15E
:100B6000010412F8015F05FA07F501FA06F10D42DA
:100B700024D103F10103DBB28342EFD14FF0000037
:100B8000BDE8F8834FF00000BDE8F8834FF00000A7
:100B9000BDE8F8834FF00100BDE8F8834FF0010095
:100BA000BDE8F8834FF00000BDE8F8834FF0000087
:100BB000BDE8F8834FF00100BDE8F8834FF0010075
:100BC000BDE8F88364300000054B1B781BB94FF07B
:100BD0000102034B1A70034B03604FF00200704791
:100BE00008020020E90B00000B88152B08D10B79B7
:100BF00003714B794371054B03604FF0020070475E
:100C0000034B03604FF00300704700BFF90C000076
:100C1000412B000010B504460B88022B02D0172B85
:100C200018D112E04FF006004FF0160101F022FB40
:100C300001460B4BE41A4FEAE4040471094B1868AF
:100C400001F062FA4FF0000010BD074B03604FF057
:100C5000020010BD054B03604FF0030010BD00BF44
:100C60000C020020C8300000E90B0000412B0000FE
:100C700010B504460B88012B02D0042B30D103E0C1
:100C80004FF00000A07110BD037923B382790E2AC2
:100C900021D802F10102827103F1FF3303714FF099
:100CA00008004FF0140101F0E5FA0146237903F141
:100CB000010303716379A3F102034371A3794FEA3E
:100CC000930303F106038371084B186801F01CFAC3
:100CD0004FF0000010BD064B23604FF0020010BD26
:100CE000044B03604FF0030010BD00BFC83000008C
:100CF000E90B0000150C000030B583B004460B88EA
:100D00000F2B22D0102B37D0042B4CD10379BBB141
:100D100003F1FF3303714FF008004FF0110101F0B0
:100D2000A9FA014623790371637943714FF00303F4
:100D30008371234B186801F0E7F94FF000003CE0A5
:100D4000204B03604FF0020037E0057942798B7940
:100D500008790090497901914FF003002946FFF787
:100D60007FFE28B3184B1868184901F0CDF9154BD0
:100D700023604FF0020020E0057942798B790879F1
:100D80000090497901914FF003002946FFF768FE72
:100D900088B10F4B18680F4901F0B6F90E4B23606C
:100DA0004FF0020009E00D4B03604FF0030004E038
:100DB0004FF0000001E04FF0000003B030BD00BF75
:100DC000C8300000E90B0000703100003C31000029
:100DD0006C31000044310000710C0000150C000063
:100DE00010B50446042804D907484FF0380100F034
:100DF00009FF06484FEAC4040319054A5A6000F186
:100E00000400001910BD00BF4C3100000802002092
:100E1000C90B0000054B1B781BB94FF00102034BB7
:100E20001A70034B03604FF0020070473402002039
:100E3000350E00000B88152B08D10B7903714B7907
:100E40004371054B03604FF002007047034B036092
:100E50004FF00300704700BF450F0000412B00001A
:100E600010B504460B88022B02D0172B18D112E0C4
:100E70004FF006004FF0160101F0FCF901460B4B54
:100E8000E41A4FEAE4040471094B186801F03CF9D4
:100E90004FF0000010BD074B03604FF0020010BD83
:100EA000054B03604FF0030010BD00BF3802002067
:100EB000C8300000350E0000412B000010B504467C
:100EC0000B88012B02D0042B30D103E04FF000003F
:100ED000A07110BD037923B382790E2A21D802F1C3
:100EE0000102827103F1FF3303714FF008004FF0EC
:100EF000140101F0BFF90146237903F101030371E5
:100F00006379A3F102034371A3794FEA930303F1D9
:100F100006038371084B186801F0F6F84FF00000E3
:100F200010BD064B23604FF0020010BD044B036060
:100F30004FF0030010BD00BFC8300000350E0000A8
:100F4000610E000030B583B004460B880F2B22D011
:100F5000102B37D0042B4CD10379BBB103F1FF33F5
:100F600003714FF008004FF0110101F083F90146C1
:100F700023790371637943714FF004038371234B29
:100F8000186801F0C1F84FF000003CE0204B03600E
:100F90004FF0020037E0057942798B7908790090AB
:100FA000497901914FF004002946FFF759FD28B314
:100FB000184B1868184901F0A7F8154B23604FF03B
:100FC000020020E0057942798B790879009049790F
:100FD00001914FF005002946FFF742FD88B10F4B04
:100FE00018680F4901F090F80E4B23604FF0020093
:100FF00009E00D4B03604FF0030004E04FF00000E8
:1010000001E04FF0000003B030BD00BFC830000069
:10101000350E000070310000543100006C310000CA
:101020005C310000BD0E0000610E000010B50446EA
:10103000042804D907484FF0380100F0E3FD0648C2
:101040004FEAC4040319054A5A6000F1040000196C
:1010500010BD00BF6431000034020020150E0000F6
:1010600030B585B005460C4600F004F900F01EFAD4
:10107000FFF7C4FC2846214600F0CAFC01F0E0FA64
:10108000214D28464FF028014FF0040201F02EF9BF
:1010900005F128004FF090014FF0080201F026F909
:1010A00005F1B8004FF0080101F056F9174B186828
:1010B0004FF000040094019402944FF0010105F1F7
:1010C000F8024FF0020301F0F7FA114B1868009490
:1010D000019402944FF0020105F580724FF0030372
:1010E00001F0EAFA0B4B18680094019402944FF057
:1010F000030105F586724FF00A0301F0DDFA01F0F5
:10110000A5FA204605B030BD600200206C31000019
:1011100070310000C83000000B88122B08D10B7909
:1011200003764B794376054B03604FF0020070471E
:10113000034B03604FF00300704700BF61110000D4
:10114000412B000010B504464FF0040101F022F8D5
:10115000024B23604FF0020010BD00BF19110000C8
:1011600010B504460B880D2B23D0132B26D0042B4F
:101170002DD1037E03F102025F2A15DC02764FF0C7
:1011800008004FF0100101F075F80146237E03714D
:10119000637E43714FF0020383710F4B186800F0B8
:1011A000B3FF4FF0000010BD0C4B03604FF0020086
:1011B00010BD0B4B03604FF0020010BD094B1868C7
:1011C00000F0A2FF054B23604FF0020010BD064B5C
:1011D00003604FF0030010BDC8300000191100007B
:1011E000ED11000070310000412B000010B50446E5
:1011F0000B88012B02D0042B30D103E04FF000000C
:10120000A07610BD037E23B3827E0E2A21D802F180
:101210000102827603F1FF3303764FF008004FF0AE
:10122000140101F027F80146237E03F10303037143
:10123000637EA3F104034371A37E4FEA930303F19A
:1012400006038371084B186800F05EFF4FF0000042
:1012500010BD064B23604FF0020010BD044B03602D
:101260004FF0030010BD00BFC8300000191100008E
:10127000412B0000014A024B1A60704745110000E3
:10128000940300200B88032B02D0092B0CD104E01F
:10129000084B03604FF0020070470B7903764B79DF
:1012A00043764FF000007047034B03604FF003009C
:1012B000704700BFBD120000412B00000B880C2BB3
:1012C00004D1054B03604FF002007047034B0360ED
:1012D0004FF00300704700BF0513000085120000A7
:1012E00010B504464FF0040100F054FF20464FF0C3
:1012F000050100F04FFF024B23604FF0020010BDCC
:101300008512000038B504460B8803F1FF33122B19
:1013100070D8DFE803F00A6F6F1C4F6F6F6F6F6F4D
:101320006F6F6A6A6F6F6F6F63004FF000058583A0
:101330004FF006004FF0180100F09CFF0146A48B0F
:101340008480304B186800F0DFFE284638BD4FF02F
:1013500008004FF00F0100F08DFF0146237E03715E
:10136000637E43714FF001038371264B1D6828464D
:1013700000F0CAFEA38B03F101039BB2A383224AB0
:10138000A2FB03124FEAD20202EB8202A3EB42035A
:101390009BB2002B33D14FF006004FF0180100F044
:1013A00069FF0146A48B8480284600F0ADFE4FF013
:1013B000000038BD4FF006004FF0120100F05AFF58
:1013C0000146237E0371637E03F1020343710F4BD9
:1013D000186800F099FE4FF0000038BD8A88838BB2
:1013E000D31883834FF0000038BD094B03604FF0E2
:1013F000020038BD074B03604FF0030038BD4FF0CB
:10140000000038BDC8300000CDCCCCCC6C31000021
:10141000191400008512000010B504460B88012B3A
:1014200002D0042B36D103E04FF00000A07610BDAF
:10143000837E0E2B1CD803F1010383764FF0080046
:101440004FF0140100F016FF0146A37E4FEA93030C
:1014500003F106038371237E0371637E03F1FF337F
:1014600043710F4B186800F04FFE4FF0000010BDA5
:101470004FF006004FF0070100F0FCFE0146A38B81
:101480008380074B186800F03FFE064B23604FF047
:10149000020010BD044B03604FF0030010BD00BFFD
:1014A000C8300000BD12000085120000044B054A40
:1014B0001A604FF00A021A764FF008025A76704707
:1014C000B0030020E1120000044B4FF07A021A60D2
:1014D00098604FF003025A60704700BF000002405E
:1014E0000138FDD17047704710B50446064A53696C
:1014F000002BFCD0054B1868FFF7F2FF024B9C60F5
:101500004FF001025A6010BD00000240D0030020DD
:1015100038B505460A4A5369002BFCD0094B1C68B4
:101520002046FFF7DDFF064B9D604FF005025A6035
:101530001A465369002BFCD02046FFF7D1FF38BD77
:1015400000000240D00300202DE9F04191B1054692
:101550004618094C094F4FF001086369002BFCD075
:101560003868FFF7BDFF15F8013BA360C4F804809D
:10157000B542F2D1BDE8F08100000240D003002066
:1015800070B54FF08000FFF79FFF1B4B1E79002EB8
:101590001A4B03F1080018BF18464FF00601FFF779
:1015A000D3FF4FF05F044FF000052846FFF79CFF84
:1015B000013CFAD14FF00000FFF7AAFF4FF0800086
:1015C000FFF782FF002E0E4B03F1080018BF1846EC
:1015D0004FF00601FFF7B8FF4FF0000425462846FC
:1015E000FFF782FF04F101045F2CF8D14FF00000F7
:1015F000FFF78EFF70BD00BFD003002074310000E4
:10160000843100002DE9F84306460C4615464FF09C
:101610008000FFF759FF002D14BFB120B020FFF765
:1016200063FF4FF08000FFF75FFF2F4B5D792819B4
:1016300000F00F00FFF758FF4FF08000FFF754FF56
:101640006519C5F3031040F01000FFF74DFF4FF090
:101650004000FFF749FF3378002B3AD1BDE8F8830B
:1016600004F106045A2C1CD803EB8303A3F1A00059
:1016700038184146FFF768FF5A2C03D02E4615F85C
:10168000013B2BB94FF00000FFF742FFBDE8F883A4
:101690004846FFF729FF15F8013C002BE0D1BDE8D3
:1016A000F883C4F15F05114C03EB8303E018A0F14C
:1016B00080002946FFF748FF3378A3F1200303EBAE
:1016C0008303E418651995F82000FFF721FFBDE8B2
:1016D000F8835A2CE5D806F10105054F4FF00508AF
:1016E0004FF00009C0E700BFD003002074310000B4
:1016F000943100002DE9F84F054614461F460A9B19
:101700001C4A92F805A08A448BB3CAF3031848F028
:10171000100803EB04094FF080060AF00F0A07F1E6
:10172000FF3B3046FFF7D0FE002C14BFB120B020A5
:10173000FFF7DAFE3046FFF7D7FE5046FFF7D4FE3C
:101740003046FFF7D1FE4046FFF7CEFE4FF0400097
:10175000FFF7CAFE28465946FFF7F6FEED1915F8C1
:10176000010CFFF7D5FE04F101044C45D9D1BDE8C9
:10177000F88F00BFD00300202DE9F8430446664BE4
:10178000D3F8042142F48052C3F80421D3F808218D
:1017900042F00202C3F808215B68C3F30033DEB2F3
:1017A0005E4A1371002E00F09C804FF004025B4BE8
:1017B0005A71594BD3F8082142F00802C3F80821A6
:1017C0004FF00100FFF78CFE554BD3F8002442F098
:1017D0008002C3F800244FF08002C3F80022514B6E
:1017E000D3F8002422F00C02C3F80024D3F82024FC
:1017F00042F00C02C3F82024D3F8002542F00C027A
:10180000C3F80025D3F8182522F00C02C3F81825D8
:10181000D3F80C2542F00C02C3F80C25D3F81025A0
:1018200042F00C02C3F81025D3F81C2542F00C023C
:10183000C3F81C25D3F8282522F00C02C3F828256C
:1018400003F5D8331A6A42F010021A62364B374A4F
:10185000002C0CBF14461C4604EB84044FEA84049D
:10186000334B1B6803F1FF331B19B3FBF4F404F192
:10187000FF34304BDC60DB6803F1010303EB03133F
:101880004FEA8303254A13604FF00004DFF8A88075
:1018900008F51377B9461AE046B308F5FE756319E3
:1018A0005878FFF711FE04F10200615D2818A1F1DC
:1018B0000201FFF749FE635D08EB0402D31893F8B9
:1018C000FC01FFF725FE2B5D03F10103E418002E58
:1018D0000CBF71234D239C42DED3FFF751FEBDE8C0
:1018E000F8834FF024020D4B5A7178E7E3195878CA
:1018F000FFF7EAFD04F10200E15D3818A1F10201F1
:10190000FFF722FEE35D08EB0402D31893F84C02C4
:10191000FFF7FEFD4D46D6E700E00F40D003002064
:101920000070004000500040801A0600A0860100B0
:10193000E803002000000240743100002DE9F0416E
:101940004FF000041E4F07F51376B04619E013B3AD
:1019500007F5FE7563195878FFF7B6FD04F102002C
:10196000615D2818A1F10201FFF7EEFD635D3A19F0
:10197000D31893F8FC01FFF7CBFD2B5D03F10103B6
:10198000E418104B1B79002B0CBF71224D2294429E
:10199000DDD3BDE8F081A3195878FFF795FD04F178
:1019A0000200A15D3018A1F10201FFF7CDFDA35D9A
:1019B0003A19D31893F84C02FFF7AAFD4546DCE725
:1019C00074310000D003002008B54FF08000FFF70D
:1019D0007BFD4FF0AE00FFF787FD4FF08000FFF773
:1019E00083FD4FF0AD00FFF77FFD4FF08000FFF764
:1019F0007BFD4FF08A00FFF78BFD08BD08B500F0B6
:101A000007FD024800F0AEFC08BD00BF3434000002
:101A100010B500F00DFA384BD3F8002142F48032B3
:101A2000C3F80021D3F8042142F44032C3F8042162
:101A3000D3F8082142F00502C3F8082100BF00BF17
:101A400000BF2E4B5A6922F4704242F4A0425A6100
:101A50001A6A22F470421A62D3F8A02022F06F02B0
:101A600042F06002C3F8A020D3F8A42022F00F02B5
:101A700042F00602C3F8A4201A6842F008021A6075
:101A8000A3F5E043DA6822F00112DA604FF00002B9
:101A90001A604FF002015960194908681949A1FB01
:101AA00000414FEA91119962D96841F00201D96071
:101AB000D96841F02001D960134BD3F8001441F0EC
:101AC0002001C3F80014D3F81C1541F02001C3F81D
:101AD0001C15C3F88020D3F8002422F01002C3F8AC
:101AE0000024D3F81C2542F01002C3F81C254FF047
:101AF0000100FFF741FE10BD00E00F4000800340F1
:101B0000E8030020898888880060004000B583B021
:101B10000B464FEAD20200924FF000010A46FFF74F
:101B2000E9FD03B000BD00BF10B504460B461046EA
:101B300021461A46FFF766FD10BD00BF704700BF83
:101B400008B5FFF7FBFE08BD08B5FFF73DFF08BD70
:101B50001F4B1A681F4BA3FB02134FEA1313B3F179
:101B6000807F10D223F07F4303F1FF331A4A536082
:101B70004FF0E001194B83F823104FF000039360FE
:101B80004FF0070313604FF04002144B83F82320FB
:101B9000A3F540634FF0200283F811234FF00002B9
:101BA00083F800234FF400321A604FF001021A60EC
:101BB0000B4B4FF00802DA609A6842F008029A6014
:101BC000A3F5E043DA6842F00112DA60704700BF23
:101BD000E80300208988888810E000E000ED00E03C
:101BE00000800340704700BF054B4FF02002C3F850
:101BF00080204FF00002C3F8802062B6704700BF1B
:101C00000060004072B6FEE710B5344B4FF008029A
:101C1000DA60D3F8AC3013F4807F04D030484FF052
:101C20005C01FFF7EFFF2D4BD3F8A8402D4B1A684E
:101C300004F10404A41A02EBE4041C60A4EBC40441
:101C40004FEA440404F560544FEA94245B689C42D4
:101C500010D04FF006004FF0090100F00BFB0146D9
:101C60004FF00A03037144711F4B186800F04CFADF
:101C70001C4B5C601D4B1A6C1A4B1B7A032B2CD827
:101C8000DFE803F0020B141D164BDB689A4224D0E8
:101C90004FF00102134B1A7210BD124BDB689A42CF
:101CA00014BF022200220F4B1A7210BD0D4BDB68CD
:101CB0009A4214BF032200220A4B1A7210BD094B2C
:101CC000DB689A4205D0074BDA6012B9084800F089
:101CD00049FB4FF00002034B1A7210BD0080034015
:101CE00038340000D803002070310000006000404C
:101CF0004034000008B5FFF785FF08BD684620F0B6
:101D000007018D4601B5034840F20711FFF7F2FFC6
:101D1000FEE700BF4C370000684620F007018D4603
:101D200001B5134B134A9A4208D2134A114B10487B
:101D300052F8041B43F8041B8342F9D30F4B104A9B
:101D40009A4207D213464FF000010C4A43F8041B95
:101D50009342FBD301F072F8FFF782F909484FF480
:101D60008171FFF7C7FFBDE801408546704700BF9E
:101D700000000020000000206437000088050020DB
:101D8000000000204C370000704700BFEFF30980CF
:101D9000704700BF80F30988704700BFEFF30880E9
:101DA000704700BF80F30888704700BFEFF31280D0
:101DB000704700BF80F31188704700BFEFF31080B9
:101DC000704700BF80F31088704700BFEFF31380A7
:101DD000704700BF80F31388704700BF00BA704798
:101DE00040BA7047C0BA704790FAA0F0704700BF81
:101DF000D0E84F0FC0B27047D0E85F0F80B2704795
:101E000050E8000F704700BFC1E8400F704700BFA7
:101E1000C1E8500F704700BF41E80000704700BFA5
:101E2000EFF31480704700BF80F31488704700BF41
:101E300030B482B09A4B9B4A1A6702F5602202F5D1
:101E4000965202F101021A6602F17D42A2F5805219
:101E5000A2F10F021A66944A1A674FF00003019329
:101E6000019BB3F57A7F09D240F2E73200BF019BB4
:101E700003F101030193019B9342F7D9884B8B4AED
:101E80001A66894A1A674FF000030193019BB3F564
:101E90007A7F09D240F2E73200BF019B03F10103D0
:101EA0000193019B9342F7D97D4B814A1A661B6DC2
:101EB00013F0400F05D17A4A00BF136D13F0400FA5
:101EC000FAD0774B7B4A1A66774A1A674FF00003BD
:101ED0000193019BB3F57A7F09D240F2E73200BF4C
:101EE000019B03F101030193019B9342F7D96C4BD2
:101EF000196E1A6F002AB4BF02F0700301F03003AC
:101F0000202B40D004D86BB1102B40F0F8800FE0AC
:101F1000602B66D0702B61D0302B40F0F08047F200
:101F2000305370E0C1F38410634B53F820306AE003
:101F30005B4B1B6813F0E04F56D0594B18685F4B52
:101F400000EA0303B3F1805F50D0554B18685B4B38
:101F500000EA03035A48834204D1514B1B689BB2E9
:101F6000022B45D04E4B1868544B00EA03035548EA
:101F700083423FD14A4B1C68A4B25348534B002CB8
:101F800018BF03463FE0464B1B6813F0E04F33D0C9
:101F9000434B1868494B00EA0303B3F1805F2DD02F
:101FA0003F4B1868454B00EA03034548834204D180
:101FB0003B4B1B689BB2022B22D0394B18683F4B1E
:101FC00000EA03033F4883421CD1354B1C68A4B28E
:101FD0003F48404B002C18BF034614E04FF4004329
:101FE00011E04FF480030EE03B4B0CE03A4B0AE06B
:101FF000364B08E0344B06E0384B04E0374B02E048
:10200000344B00E0324B002A03DA12F4006F03D0A5
:1020100031E011F4006F2ED1214C606E246814F071
:10202000E04F07D01E4C2568244C05EA0404B4F1A7
:10203000805F0CD1C0F3481404F1020404FB03F3E5
:1020400000F01F0404F10204B3FBF4F30BE0C0F34F
:10205000481404FB03F300F01F0404F101044FEAE9
:102060004404B3FBF4F310F4804F18BF5B0810F482
:10207000004F18BF9B0811F4800F3ED0002A36DABB
:1020800012F0804F2CD012F4006F29D14FEA430395
:10209000C2F3865202F10102B3FBF2F32DE000BF5E
:1020A00000E00F401028800710288000C20A8E042C
:1020B000C20ACE04C202CE04443400000000FF7005
:1020C00000000110000003100024F400001BB70002
:1020D00000093D00C0C62D00C0E1E40070383900A1
:1020E000C2F3C55202F10102B3FBF2F305E0C1F302
:1020F000C35101F10101B3FBF1F3024A136002B0D5
:1021000030BC7047E803002038B504460D4672B66F
:102110008B781BB1CB7803F10103CB70636893B963
:102120006560184B1D78227D1749885C17490C188B
:10213000647845EA04041C701B1858788A5C40EAED
:1021400002025A701BE0E37B23B911484FF04901AA
:10215000FFF758FD627BA36843F82250637B0BB9FD
:10216000237B6373637B03F1FF336373E37B03F1CF
:10217000FF33DBB2E373227C9A4288BF237462B6DA
:1021800038BD00BF7C05002064350000DC34000051
:10219000A034000070B50C46057D114B5E5D03292F
:1021A0000BD9104B1B888B4207D935B13F2D04D872
:1021B0000D4B53F82530834204D00C484FF03001CA
:1021C000FFF720FD72B60A4B1B6803EBC404A25D47
:1021D000084B5B5D42EA0303A35562B670BD00BFC6
:1021E0006435000070050020EC030020A8340000D6
:1021F0006C050020DC34000000487047B03400005B
:1022000038B50546047D04F1FF33DBB23E2B03D81D
:10221000074B53F8243023B106484FF04001FFF735
:10222000F1FC72B6024B43F8245062B638BD00BFD1
:10223000EC030020B834000010B5047D04F1FF3336
:10224000DBB23E2B04D8094B53F82430834204D030
:1022500007484FF05401FFF7D5FC72B64FF000026B
:10226000024B43F8242062B610BD00BFEC030020EF
:10227000B83400002DE9F843054689464FF00004C4
:10228000174E184FDFF860800AE004F10104E4B251
:102290003B78A34204D840464FF03001FFF7B2FC30
:1022A00004EB840306EB83039B89AB42EDD304EB81
:1022B00084000B4B03EB800000F0DEF8054620B9EC
:1022C00009484FF03A01FFF79DFCA5F8009004F192
:1022D0000104AC704FF00003EB702846BDE8F883B2
:1022E000F4040020F0040020C0340000F8B50646D5
:1022F0000F461546164B1B78052B04D915484FF091
:102300002E01FFF77FFC124B1B7873B103F1FF33F3
:1023100003EB83030E4A02EB83031B8AAB4204D315
:102320000C484FF03101FFF76DFC094C04F1040239
:10233000237803EB830302EB830031463A462B46B6
:1023400000F0CAF8237803F101032370F8BD00BF41
:10235000F0040020C8340000014B186099807047D9
:102360006C0500202DE9F84F07460288224B1B8898
:102370009A4204D321484FF03101FFF743FC72B673
:10238000BB781BB1FB7803F10103FB7062B64FF021
:10239000080BDFF87490DFF874A0194E0BF1FF3BC7
:1023A0005FFA8BFB3A8817490B6803EBC20313F8FB
:1023B0000B40CCB14FEACB085FFA88F819F804500B
:1023C0001AF805301C404544EDB256F8253023B9C3
:1023D0000A484FF05901FFF715FC56F82500394619
:1023E000FFF792FE002CE9D1BBF1000FD6D13846A1
:1023F00000F0EAF9BDE8F88F70050020D034000045
:10240000EC0300206C050020F435000020350000AE
:10241000F8B572B6164B1C68002C27D01E464FF03C
:102420000005144F238A03F1FF339BB22382BBB90B
:10243000638A0BB123820DE033689C4202D1A3680A
:10244000336006E0A3680BB162685A606368A268F3
:102450009A60656062B6E0682146FFF755FE01E0CC
:1024600062B63D7072B6A468002CDBD162B6F8BDCE
:102470007805002074050020034672B6006850B14C
:1024800002681A601A8A02F1FF3292B21A82598ADD
:10249000914288BF5A8262B6704700BF10B50446A9
:1024A00018B10A4B1B78834204D209484FF045010A
:1024B000FFF7A8FB72B662B604F1FF3404EB8404A4
:1024C000044B03EB8404608A10BD00BFF0040020BD
:1024D000A8350000F40400202DE9F0410446174619
:1024E0001E46884631B1032A04D903F104039BB286
:1024F0009E4204D324484FF03601FFF783FBC4F813
:1025000000804FF00403A381042E0CD94FF0040384
:102510004FF0010503F104039BB205F101059E4252
:10252000F8D8A38103E04FF004034FF001051E46E5
:102530009F4204D214484FF04401FFF763FBBF1BD6
:102540004FF00103E3812268BE4210D84FEA8505AF
:10255000C6F10001BF1B00E01A4653191360E2895F
:1025600002F10102E2817F18F742F5D300E0134641
:102570004FF000021A60E28922826282C4F804806D
:10258000A360BDE8F08100BFB035000038B5044657
:102590000D46032904D807484FF02901FFF732FB05
:1025A0004FF000036360A360E360238263822580B1
:1025B000A37038BDBC35000070B504460D46164604
:1025C0002AB10388032B02D9436803B921B909480A
:1025D0004FF03001FFF716FB26826460E56072B6AB
:1025E000054B1B68A36003B15C60034B1C6062B6C3
:1025F00070BD00BFC83500007805002072B6436882
:102600009BB10C4A1268904203D18268094B1A6050
:1026100005E0826802B15360436882689A604FF0B7
:10262000000343604FF0010001E04FF0000062B68C
:10263000704700BF7805002000487047D035000083
:10264000704700BF08B5FFF7CDFA08BD2DE9F0418E
:10265000FFF77EFA154C164FDFF8588072B62378D4
:102660000BB3237873B1237818F8033003F1FF33E9
:10267000DBB2E218527818F8022002EBC30303F031
:10268000FF0301E04FF0000357F8235062B62846DD
:1026900000F038F806462846314600F037F9304653
:1026A00000F092F8DAE7FFF79FFAD7E77C05002001
:1026B000EC030020F4350000F8B504460D4616463C
:1026C0001F4601F1FF33DBB23E2B01D8069B23B13D
:1026D00009484FF06701FFF795FA04F1040031460D
:1026E000FAB200F067F825752046FFF789FD20460D
:1026F000089900F0B1F8F8BDD835000008B5FFF72B
:102700009BFD08BD38B5044672B6436823B9194825
:102710004FF03001FFF776FA6068E37B227B93424B
:102720000ED0A17BA56855F82150656001B9A27350
:10273000A27B02F1FF32A27303F10103E37316E0FF
:102740004FF000036360227D0B4B995C0B4B5B18D1
:102750005C780B4DAA5C04EA02025A705B7833B9CC
:10276000064B1C7869184A7804EA02021A7062B6AD
:1027700038BD00BFE4350000643500007C05002052
:102780002035000010B504463F2803D8074B53F806
:10279000203023B906484FF05C01FFF733FA72B6D8
:1027A00062B6024B53F82430187C10BDEC030020B5
:1027B000E43500004FF00003036041600272437291
:1027C0008372C2720273704738B504468578EDB1E2
:1027D00072B6C378012B04D903F1FF33C37062B61C
:1027E00038BD05F1FF35EDB262B6094B1B78AB423F
:1027F00004D808484FF04601FFF704FA05EB8505B9
:10280000054B03EB8500214600F008F838BD00BFFA
:10281000F0040020EC350000F404002038B5044634
:102820000D4643688B4206D88368994203D8028AD2
:10283000C3899A4204D907484FF02D01FFF7E2F906
:1028400072B623682B602560238A03F1010323827B
:1028500062B638BDF43600002DE9F04186B0054679
:1028600003689847022804D024484FF02D01FFF751
:10287000C9F9234E234F07F104082C680094284619
:102880003946A0472B68B34232D04FF0000404F120
:102890000104E4B262B206A901EB820242F8183CDC
:1028A0002846394698472B68B342F0D1009E2E60E7
:1028B00063B2052B04DD11484FF04401FFF7A2F984
:1028C00063B206AA02EB830353F8183C284641463C
:1028D000984704F1FF34E4B214F0800FF0D028469A
:1028E0000949B0470228C8D02E6006B0BDE8F08183
:1028F0002C6026464FF00004E2E700BFFC360000E3
:10290000412B00001C370000283700002DE9F0475C
:1029100086B005460C4606682F6828462146B8470B
:102920000328F9D0022840F0F480D5F80090CDF8C3
:1029300000900196BE420CD07C4CA4F108082846B9
:102940002146B04710B928464146B0472E68B742E5
:10295000F5D14F4508D128467449B847DDE014F059
:10296000800F00F0878095E028467149C8472C68A1
:10297000A74200F0D28028466D49B847D5F80080BC
:10298000A04503D128466949B847C6E0C14503D1EF
:1029900028466649B8477DE0019428466449A04727
:1029A000032829D14FF00104DFF8849100E0344678
:1029B00004F10106F6B22B6872B206A901EB82029D
:1029C00042F8183C9F4208D176B2052EC7DD59481F
:1029D0004FF07A01FFF716F9C1E7284649469847B4
:1029E0000328E4D0344676B2052E07DD51484FF077
:1029F0008501FFF707F901E04FF0010428464B4934
:102A0000B84723465AB206A901EB820252F8182CA5
:102A1000904503D103F1FF33DCB2A0E703F1FF33AC
:102A2000DBB213F0800FEDD04FF0010A3F4EA6F15C
:102A30000809274628463146C04710B92846494666
:102A4000C047D5F800803B465AB206A901EB820286
:102A500052F8182C424503D103F1FF33DCB27EE774
:102A600003F1FF33DBB213F0800FEDD0BAF1000FAA
:102A7000E0D174E7304E63B206AA02EB830353F849
:102A8000183C28463146984704F1FF34E4B214F06C
:102A9000800FF0D0009E2E60DFF8A090A9F108080A
:102AA00032E02C68009428462149A0472B68B342A5
:102AB00036D04FF000041E4F04F10104E4B262B2BC
:102AC00006A901EB820242F8183C2846394698478D
:102AD0002B68B342F0D1009E2E6063B2052B04DD5B
:102AE00014484FF0D901FFF78DF863B206AA02EB44
:102AF000830353F8183C28464146984704F1FF34B5
:102B0000E4B214F0800FF0D028464946B0470228BE
:102B1000C7D02E6006B0BDE8F0874FF00004A9E7EB
:102B20002C6026464FF00004DFE700BF243700008A
:102B30001C3700000837000020370000283700004D
:102B40004FF00100704700BF004870471437000085
:102B50002DE9114087B090F800F091F800F091F85D
:102B600020F0042AC0F05781C1F1000313F00303E1
:102B700011D05FEAC37CA2EB030244BF11F8013B12
:102B800000F8013B21BF11F8014B11F801CB00F80F
:102B9000014B00F801CB80EA010C1CF0030F50D16F
:102BA0008DE8E00FC0F1000313F01C0316D0934230
:102BB00088BF02F01C035FEA037C24BFF0C9F0C0A9
:102BC00044BFB1E80003A0E8000313F0040F1CBFEA
:102BD00051F804AB40F804ABA2EB0302203A0DD34A
:102BE00021F01F0C0CF1400CB1E8F00F9CF840F004
:102BF000203AA0E8F00FF7D202F1200212F01F0FE6
:102C00001AD05FEA027C24BFF0C9F0C044BFB1E82B
:102C10000003A0E800035FEA827C24BF51F8043B74
:102C200040F8043B44BF31F8024B20F8024B12F04D
:102C3000010F1CBF0B780370BDE8E00FBDE8114029
:102C40007047042AC0F0E7808DE8E00FC0F100056E
:102C500005F003054FEAC50CCCF1200E51F8043BFA
:102C6000A2F10402ED0744BF00F8013B1B0A21BF9B
:102C700000F8013B1B0A00F8013B1B0A042AC0F0C4
:102C8000BC8010F01C0F0FD051F8045BA2F10402BD
:102C900005FA0EF443EA040425FA0CF340F8044B59
:102CA000042AEED2C0F0A980203AC0F09280BCF194
:102CB000180F60D0BCF1080F2ED051F804CB644639
:102CC000B1E8E00F91F840F0203A28BF51F804CB6A
:102CD00043EA04434FEA144444EA05444FEA1545E5
:102CE00045EA06454FEA164646EA07464FEA1747C1
:102CF00047EA08474FEA184848EA09484FEA19499D
:102D000049EA0A494FEA1A4A4AEA0B4AA0E8F80790
:102D10004FEA1B43D3D25CE051F804CB6446B1E8E0
:102D2000E00F91F840F0203A28BF51F804CB43EA75
:102D300004634FEA142444EA05644FEA152545EA82
:102D400006654FEA162646EA07664FEA172747EA5E
:102D500008674FEA182848EA09684FEA192949EA3A
:102D60000A694FEA1A2A4AEA0B6AA0E8F8074FEA0A
:102D70001B23D3D22DE051F804CB6446B1E8E00F19
:102D800091F840F0203A28BF51F804CB43EA0423DD
:102D90004FEA146444EA05244FEA156545EA06251E
:102DA0004FEA166646EA07264FEA176747EA0827FA
:102DB0004FEA186848EA09284FEA196949EA0A29D6
:102DC0004FEA1A6A4AEA0B2AA0E8F8074FEA1B639F
:102DD000D3D2CEF1200C02F12002042A0DD351F8F7
:102DE000045BA2F1040205FA0EF443EA040425FA96
:102DF0000CF340F8044B042AF1D25FEA0E7544BF8D
:102E000000F8013B1B0A22BF00F8013B1B0A00F837
:102E1000013B9DE8E00FD20744BF11F8012B00F8F9
:102E2000012B21BF11F8013B91F800C000F8013BD4
:102E300080F800C007B0BDE81140704770B50024AD
:102E40000C4D0D4E761BB61003E055F8043B0134D3
:102E50009847B442F9D1094DFEF796FF084E002479
:102E6000761BB61003E055F8043B01349847B44292
:102E7000F9D170BD6437000064370000643700008A
:102E80006437000088420346F0B40C460ED98D1812
:102E9000A8420BD242B1831829469A1A11F8014D63
:102EA00003F8014D9342F9D1F0BC70470F2A38D98D
:102EB00041EA000515F0030F35D1A2F1100601F12A
:102EC00010050B460246370905EB07151C68146010
:102ED0005C6854609C689460DC681033D460103285
:102EE0009D42F3D17C1C06F00F022401032A00EB63
:102EF0000403214414D9043A0C461D464FEA920CAF
:102F000001EB8C07043754F8046BBC4245F8046BA2
:102F1000F9D10CF1010402F00302A4001B190919F4
:102F20000C46002AC0D02146A21811F8014B91424C
:102F300003F8014BF9D1B7E7032AC9B2F0B408D8B6
:102F40002AB10346121803F8011B9342FBD1F0BCCF
:102F500070478218044601E004F8011B14F0030FC7
:102F6000FAD1151B4FF00136072D06FB01F603DDE4
:102F70000AE044F8046B151B032DFADC01E004F8A9
:102F8000011BA242FBD8E2E714F0070F02D044F87D
:102F9000046BF9E74FF0013303FB01F3171B2546E0
:102FA00080347F2F40DD44F8803C44F87C3C44F87A
:102FB000783C44F8743C44F8703C44F86C3C44F869
:102FC000683C44F8643C44F8603C44F85C3C44F899
:102FD000583C44F8543C44F8503C44F84C3C44F8C9
:102FE000483C44F8443C44F8403C44F83C3C44F8F9
:102FF000383C44F8343C44F8303C44F82C3C44F829
:10300000283C44F8243C44F8203C44F81C3C44F858
:10301000183C44F8143C44F8103C44F80C3C44F888
:10302000083C44F8043CB9E7571B2C4620351F2FB9
:1030300010DD45F8203C45F81C3C45F8183C45F8A7
:10304000143C45F8103C45F80C3C45F8083C45F864
:10305000043CE9E7151B072D8EDD2360636008340F
:10306000F8E700BF74756E6E656C2E63000000009B
:10307000CC300000370000000431000005000000E3
:103080000C310000030000001031000003000000BC
:10309000143100000400000018310000040000009A
:1030A0001C31000007000000243100000700000070
:1030B0002C31000007000000343100000700000040
:1030C0000C0000000D000000840100207F090906AB
:1030D000007C080404003854545800485454240018
:1030E00048545424000000007F494936003C4040C9
:1030F0007C00043F4400043F440038444438007CD2
:103100000404780007060604040000000101010021
:10311000020702000906060900060600000008145E
:103120000800000000001408140000000022140829
:1031300014220000492A146B142A49000E000000D2
:103140000100000013000000190000006D696E65A9
:10315000312E63000E00000002000000130000008A
:103160002D0000006D696E65322E6300940300200F
:10317000B0030020B080048010400000B0800480C4
:1031800012400000B180048010400000B180048033
:1031900012400000000000000000004F0000000787
:1031A000000700147F147F14242A7F2A1223130897
:1031B000646236495522500005030000001C22417C
:1031C000000041221C0014083E081408083E0808AC
:1031D0000050300000080808080800606000002067
:1031E000100804023E5149453E00427F40004261C2
:1031F0005149462141454B311814127F102745454E
:1032000045393C4A49493001710905033649494964
:1032100036064949291E00363600000056360000A1
:10322000081422410014141414140041221408023A
:1032300001510906324979413E7E1111117E7F49C3
:103240004949363E414141227F4141221C7F494943
:1032500049417F090909013E4149497A7F08080827
:103260007F00417F41002040413F017F08142241FF
:103270007F404040407F020C027F7F0408107F3E69
:103280004141413E7F090909063E4151215E7F09C6
:10329000192946464949493101017F01013F404012
:1032A000403F1F2040201F3F4038403F6314081418
:1032B0006307087008076151494543007F41410099
:1032C00002040810200041417F0004020102044072
:1032D00040404040000102040020545454787F488C
:1032E0004444383844444420384444487F38545493
:1032F0005418087E0901020C5252523E7F08040401
:103300007800447D40002040443D007F1028440068
:1033100000417F40007C041804787C08040478385D
:10332000444444387C14141408081414187C7C0891
:103330000404084854545420043F4440203C404076
:10334000207C1C2040201C3C4030403C442810285D
:10335000440C5050503C4464544C440008364100E6
:1033600000007F0000004136080002010204020054
:103370000480AE80E30680AD808A80E30680A8806A
:103380001F80E30480C880E30480A080E30480D829
:1033900080E304800580E304804080E30680818030
:1033A0005D80E30680D9801180E30680D5800180AE
:1033B000E30680D3800080E30480AF80E300000058
:1033C0000480AE80E304800480E304801280E3067E
:1033D0008081802B80E30480A180E304804080E32F
:1033E0000680D3800080E30680A8800F80E30480FD
:1033F000A480E30480A680E30480B080E30480C856
:1034000080E30680D5807280E30680D8800080E368
:103410000680D9802280E30680DA801280E306806D
:10342000DB800F80E30680AD808B80E30480AF807B
:10343000E3000000040000006273702E63000000CF
:103440000500000040420F0000201C0080841E0088
:1034500000802500999E36000040380000093D009C
:1034600000803E0000004B00404B4C0000204E000E
:10347000808D5B0000C05D000080700000127A004B
:1034800000007D0080969800001BB7000080BB0004
:10349000C0E8CE00647ADA000024F4000000FA00EC
:1034A00071615F6669666F0071615F7375620000CC
:1034B000342E322E3034000071665F616374000078
:1034C00071665F6E6577000071665F706F6F6C008C
:1034D00071665F7073707562000000000001020485
:1034E00008102040800102040810204080010204DE
:1034F00008102040800102040810204080010204CE
:1035000008102040800102040810204080010204BD
:1035100008102040800102040810204080000000B4
:10352000FFFEFDFBF7EFDFBF7FFEFDFBF7EFDFBF29
:103530007FFEFDFBF7EFDFBF7FFEFDFBF7EFDFBF99
:103540007FFEFDFBF7EFDFBF7FFEFDFBF7EFDFBF89
:103550007FFEFDFBF7EFDFBF7FFEFDFBF7EFDFBF79
:103560007F000000000000000000000000010101D9
:10357000010101010102020202020202020303032D
:1035800003030303030404040404040404050505FD
:1035900005050505050606060606060606070707CD
:1035A0000707070707000000716D705F676574000B
:1035B000716D705F696E6974000000007174655F01
:1035C00063746F72000000007174655F61726D005A
:1035D000342E312E303500007176616E696C6C616D
:1035E0000000000071615F6765745F0071665F676E
:1035F0006300000000010202030303030404040447
:10360000040404040505050505050505050505056E
:10361000050505050606060606060606060606064E
:10362000060606060606060606060606060606063A
:10363000060606060707070707070707070707071E
:10364000070707070707070707070707070707070A
:1036500007070707070707070707070707070707FA
:1036600007070707070707070707070707070707EA
:1036700007070707080808080808080808080808CE
:1036800008080808080808080808080808080808BA
:1036900008080808080808080808080808080808AA
:1036A000080808080808080808080808080808089A
:1036B000080808080808080808080808080808088A
:1036C000080808080808080808080808080808087A
:1036D000080808080808080808080808080808086A
:1036E000080808080808080808080808080808085A
:1036F00008080808716D705F707574007168736DEB
:103700005F696E69000000007168736D5F646973C2
:1037100000000000342E322E303400000000000083
:1037200001000000020000000300000047616D6519
:10373000204F7665720000002020202020202020CD
:103740002000000053636F72653A00007374617269
:103750007475705F73746D3332663130785F636C8B
:043760000000000065
:0400000300001D19C3
:00000001FF
