:10000000F80D00206D1800005118000000000000DD
:10001000511800005118000051180000511800003C
:10002000511800005118000051180000394200001A
:100030005118000051180000054200001916000078
:10004000511500005118000051180000511800000F
:1000500051180000511800005118000051180000FC
:1000600051180000511800005118000051180000EC
:1000700051180000511800005118000051180000DC
:1000800051180000511800005118000051180000CC
:1000900051180000511800005118000051180000BC
:1000A00051180000511800005118000051180000AC
:1000B000511800005118000051180000511800009C
:1000C000511800005118000051180000511800008C
:1000D000511800005118000051180000511800007C
:1000E000511800005118000051180000511800006C
:1000F0002DE9F04184B005460C4601F027F800F0E8
:10010000C9FA2846214601F021FB01F0ABFD6B4BFB
:10011000DB7913F0200F00F0958072B64FF03D00B0
:1001200002F0CAFF664803F029FD664803F0E2FECC
:1001300003F06AF862B601F0D7FA604BDB7913F08E
:10014000200F7FD072B64FF03D0002F0B5FF5E4841
:1001500003F014FD5D4803F0CDFE03F055F862B6E0
:1001600001F0C2FA554BDB7913F0200F6AD072B65A
:100170004FF03D0002F0A0FF554803F0FFFC55484A
:1001800003F0B8FE03F040F862B601F0ADFA4B4B55
:10019000DB7913F0200F55D072B64FF03D0002F01E
:1001A0008BFF474800F1640400F1780003F0E6FC9F
:1001B000494803F09FFE03F027F862B601F094FA75
:1001C0003E4BDB7913F0200F3CD072B64FF03D0070
:1001D00002F072FF04F1280003F0D0FC3F4803F066
:1001E00089FE03F011F862B601F07EFA334BDB7939
:1001F00013F0200F26D072B64FF03D0002F05CFFE6
:1002000004F13C0003F0BAFC354803F073FE02F041
:10021000FBFF62B601F068FA284BDB7913F0200F80
:1002200010D072B64FF03D0002F046FF04F15000CE
:1002300003F0A4FC2B4803F05DFE02F0E5FF62B67C
:1002400001F052FA1E4D05F1C8004FF0070102F00F
:100250001FF928464FF050014FF0080202F0E2F873
:10026000214F05F164054FF0000426464FF00508C4
:1002700004F10104E4B257F8040F009601960296C7
:1002800021462A46434601F005FD05F11405052CDB
:10029000EED1164B18684FF00004009401940294BC
:1002A0004FF00601084A4FF0050301F0F3FC01F09E
:1002B000E1FC204604B0BDE8F08100BFC809002081
:1002C000040000203C420000540000204C4200008A
:1002D000680000205C420000704200008442000080
:1002E00098420000AC420000F0460000304300009D
:1002F00010B50446644BDB7913F0200F0FD072B6B3
:100300004FF03D0002F0D8FE604803F037FC604833
:1003100003F0F0FD02F078FF62B601F0E5F95A4B08
:10032000DB7913F0400F39D072B64FF03E0002F087
:10033000C3FE584803F022FC574803F0DBFD02F0EF
:1003400063FF62B601F0D0F94F4BDB7913F0400F39
:1003500024D072B64FF03E0002F0AEFE4F4803F0DC
:100360000DFC4F4803F0C6FD02F04EFF62B601F0EF
:10037000BBF9454BDB7913F0400F0FD072B64FF04D
:100380003E0002F099FE474803F0F8FB464803F0B0
:10039000B1FD02F039FF62B601F0A6F93A4BDB7904
:1003A00013F0100F61D072B64FF03C0002F084FEE3
:1003B0004FF0050003F02AFB4FF0000003F0DEFBD6
:1003C0003A4803F097FD02F01FFF62B601F08CF986
:1003D0002D4BDB7913F0100F47D072B64FF03C0075
:1003E00002F06AFE4FF0040003F010FB4FF0000033
:1003F00003F0C4FB2E4803F07DFD02F005FF62B65A
:1004000001F072F9204BDB7913F0100F2DD072B68A
:100410004FF03C0002F050FE4FF0060003F0F6FAF9
:100420004FF0000003F0AAFB224803F063FD02F046
:10043000EBFE62B601F058F9134BDB7913F0100FA5
:1004400013D072B64FF03C0002F036FE4FF00800B9
:1004500003F0DCFA204603F091FB174803F04AFD55
:1004600002F0D2FE62B601F03FF920464FF00501DE
:1004700001F032FE20464FF0060101F02DFE094B3F
:1004800023604FF0020010BDC809002004010020C5
:10049000C04200001D300000CC420000F10200000C
:1004A000D8420000BD040000E8420000F84200000D
:1004B000044300000C4300001C430000F8B5044650
:1004C0000D460B88062B00F0C980082B03D0052BA6
:1004D00040F0C9803FE000F067FE2D79042D02D87E
:1004E00063195B7F23B165484FF0600100F0D2FED5
:1004F0002846634900F0ECFF05F10103614A82FBE5
:1005000003124FEA620202EB82029B1ADBB2E2188C
:10051000127ECAB96219127EB2B961194FF0010296
:100520000A76E3181A764FF006004FF0040101F046
:1005300023FF0571214601F0B1FF2846524900F022
:10054000C7FF4FF00000F8BD64194FF00103637757
:100550004FF00000F8BD00F027FE2D79042D02D8E1
:1005600063195B7F23B145484FF0740100F092FEA0
:100570002846464900F0ACFF05F10103414E86FBD9
:1005800003264FEA660606EB86069E1BF6B2631943
:100590001B7E012B03D1A3191B7E012B04D03748EE
:1005A0004FF0790100F076FE62194FF000031376E8
:1005B000A219137605F10403324F87FB03174FEAA4
:1005C000670707EB8707DF1BFFB2E3195B7FCBB140
:1005D000E3191B7EB3B9E3194FF001021A766519CE
:1005E0002A764FF000025A774FF006004FF00401D0
:1005F00001F0C2FE0771214601F050FF3846224942
:1006000000F066FFA3195B7F002B31D006F10103D8
:100610001C4A82FB03124FEA620202EB82029B1A1F
:10062000DBB2E218127E002A25D1E3184FF0010256
:100630001A76A3191A764FF000055D774FF0060081
:100640004FF0040101F098FE0671214601F026FFEB
:1006500030460D4900F03CFF2846F8BD01F006FB8E
:100660004FF00000F8BD0A4B03604FF00300F8BDE7
:100670004FF00000F8BD4FF00000F8BD2843000027
:10068000304A0000676666663C4A0000484A00003F
:100690001D300000084B094A1A604FF000021A761C
:1006A0005A775A769A779A76DA77DA7683F820202C
:1006B0001A7783F82120704704010020F10200001E
:1006C000044B4FF07A021A6098604FF003025A60B0
:1006D000704700BF000002400138FDD170477047ED
:1006E00010B50446064A5369002BFCD0054B186828
:1006F000FFF7F2FF024B9C604FF001025A6010BD01
:10070000000002402801002038B505460A4A536916
:10071000002BFCD0094B1C682046FFF7DDFF064B81
:100720009D604FF005025A601A465369002BFCD0B9
:100730002046FFF7D1FF38BD00000240280100200D
:100740002DE9F04191B105464618094C094F4FF08B
:1007500001086369002BFCD03868FFF7BDFF15F86E
:10076000013BA360C4F80480B542F2D1BDE8F0813A
:10077000000002402801002070B54FF08000FFF714
:100780009FFF1B4B1E79002E1A4B03F1080018BF68
:1007900018464FF00601FFF7D3FF4FF05F044FF00C
:1007A00000052846FFF79CFF013CFAD14FF00000FE
:1007B000FFF7AAFF4FF08000FFF782FF002E0E4BDD
:1007C00003F1080018BF18464FF00601FFF7B8FF05
:1007D0004FF0000425462846FFF782FF04F101048C
:1007E0005F2CF8D14FF00000FFF78EFF70BD00BF07
:1007F0002801002034430000444300002DE9F84361
:1008000006460C4615464FF08000FFF759FF002DB5
:1008100014BFB120B020FFF763FF4FF08000FFF757
:100820005FFF2F4B5D79281900F00F00FFF758FF8D
:100830004FF08000FFF754FF6519C5F3031040F037
:100840001000FFF74DFF4FF04000FFF749FF3378EE
:10085000002B3AD1BDE8F88304F106045A2C1CD8C9
:1008600003EB8303A3F1A00038184146FFF768FFAC
:100870005A2C03D02E4615F8013B2BB94FF000003F
:10088000FFF742FFBDE8F8834846FFF729FF15F858
:10089000013C002BE0D1BDE8F883C4F15F05114CA9
:1008A00003EB8303E018A0F180002946FFF748FF1F
:1008B0003378A3F1200303EB8303E418651995F85B
:1008C0002000FFF721FFBDE8F8835A2CE5D806F198
:1008D0000105054F4FF005084FF00009C0E700BFC4
:1008E0002801002034430000544300002DE9F84F54
:1008F000054614461F460A9B1C4A92F805A08A44E6
:100900008BB3CAF3031848F0100803EB04094FF047
:1009100080060AF00F0A07F1FF3B3046FFF7D0FED2
:10092000002C14BFB120B020FFF7DAFE3046FFF7ED
:10093000D7FE5046FFF7D4FE3046FFF7D1FE4046C3
:10094000FFF7CEFE4FF04000FFF7CAFE284659469B
:10095000FFF7F6FEED1915F8010CFFF7D5FE04F1CF
:1009600001044C45D9D1BDE8F88F00BF2801002013
:100970002DE9F8430446664BD3F8042142F4805233
:10098000C3F80421D3F8082142F00202C3F8082179
:100990005B68C3F30033DEB25E4A1371002E00F0D1
:1009A0009C804FF004025B4B5A71594BD3F80821DD
:1009B00042F00802C3F808214FF00100FFF78CFE57
:1009C000554BD3F8002442F08002C3F800244FF0C6
:1009D0008002C3F80022514BD3F8002422F00C020D
:1009E000C3F80024D3F8202442F00C02C3F82024DA
:1009F000D3F8002542F00C02C3F80025D3F81825DF
:100A000022F00C02C3F81825D3F80C2542F00C0292
:100A1000C3F80C25D3F8102542F00C02C3F81025BA
:100A2000D3F81C2542F00C02C3F81C25D3F8282566
:100A300022F00C02C3F8282503F5D8331A6A42F0D5
:100A400010021A62364B374A002C0CBF14461C4663
:100A500004EB84044FEA8404334B1B6803F1FF3337
:100A60001B19B3FBF4F404F1FF34304BDC60DB689A
:100A700003F1010303EB03134FEA8303254A1360D9
:100A80004FF00004DFF8A88008F51377B9461AE0A4
:100A900046B308F5FE7563195878FFF711FE04F1A7
:100AA0000200615D2818A1F10201FFF749FE635DB4
:100AB00008EB0402D31893F8FC01FFF725FE2B5D29
:100AC00003F10103E418002E0CBF71234D239C4257
:100AD000DED3FFF751FEBDE8F8834FF024020D4B43
:100AE0005A7178E7E3195878FFF7EAFD04F102003C
:100AF000E15D3818A1F10201FFF722FEE35D08EB8A
:100B00000402D31893F84C02FFF7FEFD4D46D6E7DA
:100B100000E00F402801002000700040005000401D
:100B2000801A0600A08601001C0800200000024078
:100B3000344300002DE9F0414FF000041E4F07F54B
:100B40001376B04619E013B307F5FE7563195878AC
:100B5000FFF7B6FD04F10200615D2818A1F1020162
:100B6000FFF7EEFD635D3A19D31893F8FC01FFF728
:100B7000CBFD2B5D03F10103E418104B1B79002B17
:100B80000CBF71224D229442DDD3BDE8F081A31940
:100B90005878FFF795FD04F10200A15D3018A1F12E
:100BA0000201FFF7CDFDA35D3A19D31893F84C026B
:100BB000FFF7AAFD4546DCE734430000280100208A
:100BC00008B54FF08000FFF77BFD4FF0AE00FFF758
:100BD00087FD4FF08000FFF783FD4FF0AD00FFF77A
:100BE0007FFD4FF08000FFF77BFD4FF08A00FFF79D
:100BF0008BFD08BD10B50446B74B1B78002B40F0A9
:100C00002E81B64BDB7913F0200F00F0D08072B646
:100C10004FF03D0002F050FAB14802F0AFFFB1488A
:100C200003F068F902F0F0FA62B600F05DFDAB4B3C
:100C3000DB7913F0200F00F0BA8072B64FF03D0060
:100C400002F03AFAA84802F099FFA84803F052F9D6
:100C500002F0DAFA62B600F047FDA04BDB7913F040
:100C6000200F00F0A48072B64FF03D0002F024FA8D
:100C70009F4802F083FF9F4803F03CF902F0C4FA5A
:100C800062B600F031FD954BDB7913F0200F00F0D8
:100C90008E8072B64FF03D0002F00EFA964802F0D8
:100CA0006DFF964803F026F902F0AEFA62B600F046
:100CB0001BFD8A4BDB7913F0200F78D072B64FF012
:100CC0003D0002F0F9F98E4802F058FF8D4803F01C
:100CD00011F902F099FA62B600F006FD7F4BDB795C
:100CE00013F0200F63D072B64FF03D0002F0E4F92C
:100CF000854802F043FF854803F0FCF802F084FACF
:100D000062B600F0F1FC754BDB7913F0200F4ED08A
:100D100072B64FF03D0002F0CFF97D4802F02EFF91
:100D20007C4803F0E7F802F06FFA62B600F0DCFCF2
:100D30006A4BDB7913F0200F39D072B64FF03D00CB
:100D400002F0BAF9744802F019FF744803F0D2F8BF
:100D500002F05AFA62B600F0C7FC604BDB7913F080
:100D6000200F24D072B64FF03D0002F0A5F96C4878
:100D700002F004FF6B4803F0BDF802F045FA62B6DA
:100D800000F0B2FC554BDB7913F0200F0FD072B698
:100D90004FF03D0002F090F9634802F0EFFE634827
:100DA00003F0A8F802F030FA62B600F09DFC4B4B5D
:100DB000DB7913F0400F4ED072B64FF03E0002F0D8
:100DC0007BF95B4802F0DAFE5A4803F093F802F030
:100DD0001BFA62B600F088FC404BDB7913F0400F41
:100DE00039D072B64FF03E0002F066F9524802F078
:100DF000C5FE524803F07EF802F006FA62B600F033
:100E000073FC364BDB7913F0400F24D072B64FF0F1
:100E10003E0002F051F94A4802F0B0FE494803F0A2
:100E200069F802F0F1F962B600F05EFC2B4BDB7959
:100E300013F0400F0FD072B64FF03E0002F03CF9B5
:100E4000414802F09BFE414803F054F802F0DCF9FF
:100E500062B600F049FC4FF001021F4B1A701F4BA5
:100E6000DB7913F0100F2CD072B64FF03C0002F07B
:100E700023F94FF0080002F0C9FD204602F07EFE83
:100E8000334803F037F802F0BFF962B600F02CFCEB
:100E9000124BDB7913F0100F13D072B64FF03C00F9
:100EA00002F00AF94FF0090002F0B0FD204602F00E
:100EB00065FE284803F01EF802F0A6F962B600F0BD
:100EC00013FC20464FF0040101F006F91A4B236091
:100ED0004FF0020010BD00BF30010020C809002003
:100EE00034010020F44500004C01002000460000C1
:100EF0006001002014460000780100202046000018
:100F00008C01002034460000A4010020404600006F
:100F1000B801002054460000D001002060460000C7
:100F2000E401002074460000FC010020804600001F
:100F3000F50B0000944600000D100000A4460000D0
:100F400099100000B4460000590F0000C44600008C
:100F5000D4460000E046000038B504460B8803F193
:100F6000FF33082B40D8DFE803F005113F2C2C3F5E
:100F70003F3F25004FF00005458500F11800214650
:100F80004FF0060201F0ACFC284638BD4FF00600D9
:100F90004FF0050101F0F0F9174BE31A4FEAA303F4
:100FA000164A02FB03F30371214601F077FA4FF072
:100FB000000038BD00F0F8F8114B23604FF002003C
:100FC00038BD0D4BC41A4FEAA4040C4B03FB04F3C9
:100FD0000A79DBB29A420CD10A484FF0AB0100F01B
:100FE00059F94FF0000038BD074B03604FF0030084
:100FF00038BD4FF0000038BD34010020A38B2EBA5D
:101000000D100000EC4600001D30000038B504460D
:101010000B8803F1FF33082B2CD8DFE803F0052BF6
:101020002B18182B2B2B11004FF00005458500F1D4
:10103000180021464FF00F0201F052FC284638BD3F
:1010400000F0B2F80F4B23604FF0020038BD0E4B9A
:10105000C41A4FEAA4040D4B03FB04F30A79DBB274
:101060009A420CD10A484FF0790100F013F94FF081
:10107000000038BD074B03604FF0030038BD4FF050
:10108000000038BD9910000034010020A38B2EBA57
:10109000EC4600001D30000010B504460B88042B00
:1010A0001AD0052B2AD0012B3BD14FF006004FF070
:1010B000080101F061F901461E4BE31A4FEAA30350
:1010C0001D4A02FB03F303711C4B1868224600F013
:1010D000E9FE4FF0000010BD164BC31A4FEAA30300
:1010E000154A02FB03F30A79DBB29A4219D100F0E8
:1010F0005BF8134B23604FF0020010BD0D4BC41A78
:101100004FEAA4040C4B03FB04F30A79DBB29A42C6
:101110000CD10C484FF0910100F0BCF84FF00000EA
:1011200010BD094B23604FF0030010BD4FF00000CD
:1011300010BD00BF34010020A38B2EBA3043000045
:10114000590F0000EC4600001D3000002DE9F04171
:101150004FF000052C460A4E0A4F4FF02C087751ED
:1011600008FB046000F118004FF0090101F0A2FB38
:1011700004F1010405F12C05052CF0D1BDE8F08146
:1011800034010020F50B000028B14FF02002054B80
:10119000C3F8802070474FF00002024BC3F8802054
:1011A000704700BF0060004082B04FF00003019321
:1011B000019B03F1FF320192002BF9D102B070477D
:1011C000144B1A68144BA3FB02134FEA1313B3F129
:1011D000807F10D223F07F4303F1FF330F4A536027
:1011E0004FF0E0010E4B83F823104FF000039360A3
:1011F0004FF0070313604FF02002094B83F82320C0
:10120000A3F540634FF0000283F800234FF0010282
:101210001A6070471C0800208988888810E000E068
:1012200000ED00E0704700BF00B583B072B6174B09
:101230004FF02002C3F880204FF00002C3F8802056
:1012400062B603F5C0439B6913F0800F1BD002A860
:101250004FF0100320F8023D72B602F097FE62B61E
:10126000BDF8063003F1FF32ADF806205BB1084946
:1012700010F8013B0B60BDF8063003F1FF32ADF80A
:101280000620002BF4D103B000BD00BF0060004079
:1012900000C0004072B6FEE708B5FFF7FBFF08BDCF
:1012A00010B5774C20464FF4C06101F0C3FE754B7A
:1012B000D3F8042142F00102C3F80421D3F8082135
:1012C00042F00102C3F8082100BF00BF00BF4FF089
:1012D0004023D3F8002422F00302C3F80024D3F8FB
:1012E000202442F00302C3F82024D3F8002542F062
:1012F0000302C3F80025D3F8182522F00302C3F82F
:101300001825D3F80C2522F00302C3F80C25D3F8D6
:10131000102522F00302C3F81025D3F8142522F07B
:101320000302C3F81425D3F81C2542F00302C3F8C6
:101330001C25554B19684FEAC102544BA3FB02020E
:101340004FEA124202F101024FEAD210504B5862AA
:10135000C2F345029A624FF06002DA62DA6A42F042
:101360001002DA621A6B42F4407242F001021A6310
:10137000484BA3FB01234FEA1313C4F80036C4F80B
:1013800004364FF0FF0001F05BFE4FF00A0001F061
:1013900075FE4FF00B0001F071FE4FF00C0001F0F4
:1013A0006DFE4FF00D0001F069FE4FF00E0001F0F0
:1013B00065FE4FF00F0001F061FE4FF0100001F0EC
:1013C0005DFE4FF0110001F059FE4FF0120001F0E8
:1013D00055FE4FF0130001F051FE4FF0140001F0E4
:1013E0004DFE4FF0150001F049FE4FF0160001F0E0
:1013F00045FE4FF0170001F041FE4FF0180001F0DC
:101400003DFE4FF0190001F039FE4FF01A0001F0D7
:1014100035FE4FF01C0001F031FE4FF01D0001F0D1
:101420002DFE4FF01E0001F029FE4FF0200001F0CC
:1014300025FE4FF0210001F021FE4FF0220001F0C7
:101440001DFE4FF0230001F019FE4FF0240001F0C3
:1014500015FE4FF0250001F011FE4FF0270001F0BE
:101460000DFE4FF0280001F009FE4FF0290001F0B9
:1014700005FE4FF02A0001F001FE4FF0010010BD03
:101480001002002000E00F401C080020C5B3A2910C
:1014900000C0004089888888704700BF0A4B1B68DD
:1014A00013F4807F06D1084B9B68084AD2F80406E3
:1014B000C01A7047044B9A68044BD3F80006D3F85F
:1014C0000436C018801A704710E000E010020020B7
:1014D00030B583B004460D460B788DF804304FF0DC
:1014E00000038DF8053000EBC0014FEA410101A86F
:1014F00001F106014FF00102FFF780F9114B1B7A51
:1015000013F0400F1BD0104B1B6823B10F4A52F849
:101510002420934213D172B64FF0460001F0CCFD67
:10152000FFF7BCFF02F02AFB4FF01100214601F04B
:10153000DFFE284602F05CFD01F066FE62B603B0F5
:1015400030BD00BFC8090020080A0020F446000092
:10155000684620F007018D4619B572B6284B1A78F7
:1015600002F10102D2B21A70264B5B7913F0020F1E
:1015700011D04FF0290001F09FFDFFF78FFF02F01F
:10158000FDFA1F4B187802F0E1F91F4B187802F0B2
:10159000DDF901F039FE62B61C4B1C684FF0040007
:1015A0004FF0070100F0E8FE01462046184A00F01F
:1015B00079FC72B6134B5B7913F0040F11D04FF026
:1015C0002A0001F079FDFFF769FF02F0D7FA0C4B12
:1015D000187802F0BBF90C4B187802F0B7F901F05B
:1015E00013FE074B1A7802F1FF32D2B21A704FF095
:1015F0008052084B1A6062B6BDE8194085467047B4
:1016000029080020C8090020000000203043000005
:101610001808002004ED00E0684620F007018D4620
:1016200001B572B62A4B1A7802F10102D2B21A70D1
:10163000284B5B7913F0020F11D04FF0290001F015
:101640003BFDFFF72BFF02F099FA214B187802F0CF
:101650007DF9214B187802F079F901F0D5FD62B6D9
:101660001E4B1B681E48D0F80026D0F80436D3184D
:10167000C0F8043600F5C06000F1090000F088FFF2
:1016800072B6144B5B7913F0040F11D04FF02A009F
:1016900001F012FDFFF702FF02F070FA0C4B187810
:1016A00002F054F90C4B187802F050F901F0ACFD3F
:1016B000074B1A7802F1FF32D2B21A704FF0805203
:1016C000084B1A6062B6BDE801408546704700BF0E
:1016D00029080020C80900200000002010E000E0D8
:1016E0001002002004ED00E030B583B002AD4FF0F1
:1016F000100325F8023D72B6134C1BE062B6A269D6
:1017000012F0800FFBD0BDF8062002F1FF31ADF8DA
:10171000061052B113F8012B2260BDF8062002F129
:10172000FF31ADF80610002AF4D14FF01003ADF8E8
:10173000063072B6284602F029FC03460028DDD1A7
:1017400062B603B030BD00BF00C0004010B500F06D
:1017500019F9354BD3F8082142F00502C3F80821E6
:1017600000BF00BF00BF314BD3F8002442F020027D
:10177000C3F80024D3F81C2542F02002C3F81C252E
:101780004FF00004C3F88040D3F8002422F0100288
:10179000C3F80024D3F81C2542F01002C3F81C251E
:1017A0004FF00100FFF7E4F8214821462246FFF7F9
:1017B00025F8204821464FF00102FFF71FF8204688
:1017C000FFF76EFD20B91C484FF07501FFF762FD71
:1017D0001A4BDB7913F0200F24D072B64FF03D0086
:1017E00001F06AFC164802F0C9F9164802F082FBC3
:1017F00001F00AFD62B6FFF777FF104BDB7913F0BB
:10180000200F0FD072B64FF03D0001F055FC0E488E
:1018100002F0B4F90D4802F06DFB01F0F5FC62B680
:10182000FFF762FF10BD00BF00E00F400060004006
:10183000544A0000644A000008470000C80900201C
:101840001908002010470000180800202447000055
:10185000684620F007018D4601B5034840F20711A4
:10186000FFF71AFDFEE700BF744A0000684620F04B
:1018700007018D4601B5134B134A9A4208D2134A09
:10188000114B104852F8041B43F8041B8342F9D350
:101890000F4B104A9A4207D213464FF000010C4AF0
:1018A00043F8041B9342FBD302F076FCFEF720FCC6
:1018B00009484FF48171FFF7EFFCBDE80140854610
:1018C000704700BF04000020000000208C4A000088
:1018D000100A002004000020744A0000704700BF76
:1018E000EFF30980704700BF80F30988704700BF9D
:1018F000EFF30880704700BF80F30888704700BF8F
:10190000EFF31280704700BF80F31188704700BF6B
:10191000EFF31080704700BF80F31088704700BF5E
:10192000EFF31380704700BF80F31388704700BF48
:1019300000BA704740BA7047C0BA704790FAA0F03A
:10194000704700BFD0E84F0FC0B27047D0E85F0FBC
:1019500080B2704750E8000F704700BFC1E8400FE9
:10196000704700BFC1E8500F704700BF41E800005A
:10197000704700BFEFF31480704700BF80F31488F6
:10198000704700BF30B482B09A4B9B4A1A6702F589
:10199000602202F5965202F101021A6602F17D42BE
:1019A000A2F58052A2F10F021A66944A1A674FF00C
:1019B00000030193019BB3F57A7F09D240F2E7322D
:1019C00000BF019B03F101030193019B9342F7D9EF
:1019D000884B8B4A1A66894A1A674FF000030193B5
:1019E000019BB3F57A7F09D240F2E73200BF019B39
:1019F00003F101030193019B9342F7D97D4B814A87
:101A00001A661B6D13F0400F05D17A4A00BF136DA3
:101A100013F0400FFAD0774B7B4A1A66774A1A6761
:101A20004FF000030193019BB3F57A7F09D240F296
:101A3000E73200BF019B03F101030193019B934235
:101A4000F7D96C4B196E1A6F002AB4BF02F07003FD
:101A500001F03003202B40D004D86BB1102B40F0A4
:101A6000F8800FE0602B66D0702B61D0302B40F0F7
:101A7000F08047F2305370E0C1F38410634B53F8A9
:101A800020306AE05B4B1B6813F0E04F56D0594B97
:101A900018685F4B00EA0303B3F1805F50D0554BE9
:101AA00018685B4B00EA03035A48834204D1514B48
:101AB0001B689BB2022B45D04E4B1868544B00EA72
:101AC0000303554883423FD14A4B1C68A4B2534894
:101AD000534B002C18BF03463FE0464B1B6813F0E6
:101AE000E04F33D0434B1868494B00EA0303B3F18E
:101AF000805F2DD03F4B1868454B00EA03034548F3
:101B0000834204D13B4B1B689BB2022B22D0394B42
:101B100018683F4B00EA03033F4883421CD1354B12
:101B20001C68A4B23F48404B002C18BF034614E089
:101B30004FF4004311E04FF480030EE03B4B0CE008
:101B40003A4B0AE0364B08E0344B06E0384B04E0F1
:101B5000374B02E0344B00E0324B002A03DA12F438
:101B6000006F03D031E011F4006F2ED1214C606E74
:101B7000246814F0E04F07D01E4C2568244C05EA79
:101B80000404B4F1805F0CD1C0F3481404F10204E2
:101B900004FB03F300F01F0404F10204B3FBF4F3AD
:101BA0000BE0C0F3481404FB03F300F01F0404F13E
:101BB00001044FEA4404B3FBF4F310F4804F18BF60
:101BC0005B0810F4004F18BF9B0811F4800F3ED043
:101BD000002A36DA12F0804F2CD012F4006F29D18F
:101BE0004FEA4303C2F3865202F10102B3FBF2F360
:101BF0002DE000BF00E00F40102880071028800073
:101C0000C20A8E04C20ACE04C202CE043C470000BF
:101C10000000FF7000000110000003100024F40019
:101C2000001BB70000093D00C0C62D00C0E1E40064
:101C300070383900C2F3C55202F10102B3FBF2F36E
:101C400005E0C1F3C35101F10101B3FBF1F3024A15
:101C5000136002B030BC70471C0800200048704779
:101C60009847000008B502F0BBFA08BD08B5FFF7B9
:101C7000D9FA08BD08B572B64FF00002044B1A70CD
:101C800000F038F862B6FFF79BFAFFF7CDFAFCE7F1
:101C900000000020F8B504460D4616461F4601F127
:101CA000FF33DBB23E2B04D90F484FF06001FFF742
:101CB000F1FA04F104003146FAB200F05DFA25753C
:101CC000204600F087FA069B0BB9079B23B1064814
:101CD0004FF06A01FFF7DEFA2046089900F046FE51
:101CE000FFF702FDF8BD00BFA047000008B500F0F7
:101CF000ABFA08BD2DE9F0473A4B1B7823B13A48BF
:101D00004FF03001FFF7C6FA384B1B78002B64D038
:101D100036490B78364AD35C03F1FF33DBB2C9187E
:101D20004978545C04EBC30404F0FF04314B1B7886
:101D30009C4254D9304B1B789C4250D92D4B93F880
:101D400000A05FFA8AF92D4E1F46DFF8B88056F8DA
:101D500024503C7098F8063013F0100F14D0284B24
:101D60001B680BB19D420FD14FF0340001F0A4F974
:101D7000FFF794FB01F002FF204601F0E7FD484623
:101D800001F0E4FD01F040FA62B6284600F004F9E3
:101D900004462846214600F09BFE204600F090FABB
:101DA00072B6124B1B789BB1104A1178104B5C5CD9
:101DB00004F1FF34E4B2121952789B5C03EBC404C3
:101DC00004F0FF04A14503D20B4B1B789C42BED804
:101DD000084B83F800A0BDE8F087064B1B78BDE8F0
:101DE000F08700BF29080020A44700002008002039
:101DF000E0470000000000202C08002030080020F0
:101E0000F8090020C809002010B572B60F4B1C78E5
:101E10001B7883423CBF0D4B18700D4B9B7913F020
:101E2000040F10D04FF0320001F046F9FFF736FBF7
:101E300001F0A4FE204601F089FD044B187801F062
:101E400085FD01F0E1F962B6204610BD2C080020A6
:101E5000C809002010B5044672B6104B9B7913F0E8
:101E6000080F10D04FF0330001F026F9FFF716FBF2
:101E700001F084FE204601F069FD094B187801F05D
:101E800065FD01F0C1F9064B1B789C4203D2044B5F
:101E90001C70FFF72FFF62B610BD00BFC8090020FD
:101EA0002C08002070B504460D46164672B6334B1A
:101EB0005B7813F0400F23D0314B1B680BB183428A
:101EC0001ED14FF00E0001F0F7F8FFF7E7FA01F02E
:101ED00055FE304601F052FE288801F097FD20465D
:101EE00001F04CFEA87801F031FDE87801F02EFDFC
:101EF000E07B01F02BFD207C01F028FD01F084F94E
:101F0000AB781BB1EB7803F10103EB706368BBB9ED
:101F100065601C4B1D78227D1B49885C1B490C1891
:101F2000647845EA04041C701B1858788A5C40EAFF
:101F300002025A70164B1B78F3B9FFF7DBFE1BE069
:101F4000E37B23B913484FF04901FFF7A3F9627B04
:101F5000A36843F82250637B0BB9237B6373637BD5
:101F600003F1FF336373E37B03F1FF33DBB2E3730E
:101F7000227C9A4288BF237462B670BDC8090020D3
:101F8000F80900202008002084490000FC480000D7
:101F900029080020B047000070B5044672B64368B7
:101FA00023B93B484FF03001FFF774F96568E37BD4
:101FB000227B934231D0A17BA06850F82100606061
:101FC00001B9A273A27B02F1FF32A27303F10103F4
:101FD000E373304B9B7813F0010F55D02E4B1B68E9
:101FE0000BB19C4250D14FF0100001F065F8FFF7A3
:101FF00055FA01F0C3FD288801F008FD204601F0E4
:10200000BDFDA87801F0A2FCE87801F09FFCE07B20
:1020100001F09CFC01F0F8F836E04FF0000363603B
:10202000227D1E4B995C1E4B5B1858781D4EB25C8E
:1020300000EA02025A705B7833B9194B18787118AC
:102040004A7800EA02021A70124B9B7813F0020FD2
:102050001AD0114B1B680BB19C4215D14FF01100E7
:1020600001F02AF8FFF71AFA01F088FD288801F03C
:10207000CDFC204601F082FDA87801F067FCE878ED
:1020800001F064FC01F0C0F862B6284670BD00BFE4
:10209000B8470000C8090020F80900208449000062
:1020A000200800204049000010B504463F2803D80E
:1020B000074B53F8203023B906484FF05C01FFF777
:1020C000E9F872B662B6024B53F82430187C10BDA2
:1020D00030080020B8470000F8B507460C46057DDB
:1020E0001D4B5E5D03290BD91C4B1B888B4207D906
:1020F00035B13F2D04D81A4B53F82530834204D014
:1021000018484FF03001FFF7C5F872B6164B5B78F0
:1021100013F0100F14D0154B1B680BB19F420FD159
:102120004FF00C0000F0C8FFFFF7B8F901F026FDF2
:10213000204601F06BFC384601F020FD01F064F808
:102140000B4B1B6803EBC404A25D0A4B5B5D42EAC8
:102150000303A35562B6F8BD84490000B40900200A
:1021600030080020C0470000C8090020F8090020FE
:10217000B0090020FC48000038B50D4614464FF069
:10218000000303604160027243728372C272027381
:102190000C4B9B7813F0040F12D00B4B1B680BB148
:1021A00098420DD172B64FF0120000F085FF28461C
:1021B00001F0E4FC204601F0C9FB01F025F862B60D
:1021C00038BD00BFC8090020000A00200048704741
:1021D000C847000038B50546047D04F1FF33DBB283
:1021E0003E2B03D8144B53F8243023B113484FF03F
:1021F0004001FFF74FF872B60F4B43F82450104BD5
:102200005B7813F0040F14D00E4B1B680BB19D428A
:102210000FD14FF00A0000F04FFFFFF73FF901F038
:10222000ADFC284601F0AAFC204601F08FFB00F02F
:10223000EBFF62B638BD00BF30080020D047000079
:10224000C8090020F809002038B50546047D04F1CE
:10225000FF33DBB23E2B04D8154B53F824308342B6
:1022600004D014484FF05401FFF714F872B64FF041
:1022700000020F4B43F824200F4B5B7813F0080F3C
:1022800014D00E4B1B680BB19D420FD14FF00B00C9
:1022900000F012FFFFF702F901F070FC284601F090
:1022A0006DFC204601F052FB00F0AEFF62B638BD77
:1022B00030080020D0470000C8090020F80900209D
:1022C00038B504468578002D4DD072B6C378012B01
:1022D0001CD903F1FF33C370234BDB7813F0200FBD
:1022E00012D04FF01D0000F0E7FEFFF7D7F801F025
:1022F00045FC208801F08AFBA07801F027FBE078FC
:1023000001F024FB00F080FF62B638BD05F1FF3517
:10231000EDB2154BDB7813F0400F12D04FF01E00DA
:1023200000F0CAFEFFF7BAF801F028FC208801F09F
:102330006DFBA07801F00AFBE07801F007FB00F0EC
:1023400063FF62B6094B1B78AB4204D808484FF0D4
:102350004601FEF79FFF05EB8505064B03EB850065
:10236000214600F069FA38BDC80900203409002070
:10237000D8470000380900202DE9F8430546894672
:102380004FF00004234E244FDFF894800AE004F15C
:102390000104E4B23B78A34204D840464FF0300138
:1023A000FEF778FF04EB840306EB83039B89AB42C3
:1023B000EDD31A4BDB7813F0100F11D072B64FF03B
:1023C0001C0000F079FEFFF769F801F0D7FB284602
:1023D00001F01CFB484601F019FB00F015FF62B646
:1023E00004EB84000B4B03EB800000F05BF9054627
:1023F00020B90B484FF03A01FEF74CFFA5F80090CA
:1024000004F10104AC704FF00003EB702846BDE806
:10241000F88300BF3809002034090020C8090020D3
:10242000E0480000F8B506460F461546164B1B78E7
:10243000052B04D915484FF02E01FEF72BFF124B48
:102440001B7873B103F1FF3303EB83030E4A02EBF6
:1024500083031B8AAB4204D30C484FF03101FEF7D3
:1024600019FF094C04F10402237803EB830302EB08
:10247000830031463A462B4600F068F9237803F191
:1024800001032370F8BD00BF34090020E8480000B4
:10249000014B186099807047B00900202DE9F04F7A
:1024A00083B0074689460288324B1B889A4204D380
:1024B00031484FF03101FEF7EDFE72B62F4BDB785D
:1024C00013F0040F15D04FF01A0000F0F5FDFEF7E1
:1024D000E5FF01F053FB484601F050FB388801F05E
:1024E00095FAB87801F032FAF87801F02FFA00F096
:1024F0008BFEBB781BB1FB7803F10103FB7062B666
:102500004FF008010191DFF880A0DFF880B01C4E89
:10251000019A02F1FF33DBB201933A8819490B6843
:1025200003EBC203019A9C5CD4B14FEAC2085FFA84
:1025300088F81AF804501BF805301C404544EDB2E9
:1025400056F8253023B90C484FF05901FEF7A2FE8A
:1025500056F8250039464A46FFF7A4FC002CE8D17E
:10256000019B002BD4D13846FFF7AAFE03B0BDE88B
:10257000F08F00BFB4090020F0480000C809002017
:1025800030080020B0090020E0470000404900006A
:102590002DE9F041074672B63D4B93F90330002B0D
:1025A0000EDA4FF01F0000F087FD3A4B1A6802F177
:1025B00001021A60186880B201F028FA00F024FEC7
:1025C000354B1C68002C5FD0314DDFF8D4801E469F
:1025D000238A03F1FF339BB22382002B4BD1638A02
:1025E0000BB1238224E033689C4202D1A36833609C
:1025F00006E0A3680BB162685A606368A2689A60DB
:102600004FF0000363602B7913F0020F10D0D8F85D
:1026100000300BB19C420BD14FF0210000F04CFD7B
:10262000204601F0ABFAE06801F0A8FA00F0ECFDFA
:102630002B7913F0200F17D0D8F800300BB19C4243
:1026400012D14FF0250000F037FDFEF727FF01F013
:1026500095FA204601F092FA208801F0D7F9E06857
:1026600001F08CFA00F0D0FD62B6E06821463A46EF
:10267000FFF718FC04E062B64FF00002074B1A7037
:1026800072B6A468002CA3D162B6BDE8F08100BF89
:10269000C80900200C0A0020BC090020B80900204D
:1026A000040A002038B5044672B6056855B12B6897
:1026B0000360038A03F1FF339BB20382428A9A428A
:1026C00088BF4382104BDB7813F0010F18D00F4BFB
:1026D0001B6813B16268934212D14FF0180000F0EA
:1026E000EBFCFEF7DBFE01F049FA606801F046FA08
:1026F000208A01F08BF9608A01F088F900F084FDEE
:1027000062B6284638BD00BFC8090020FC09002079
:1027100010B5044618B10A4B1B78834204D209480D
:102720004FF04501FEF7B6FD72B662B604F1FF3414
:1027300004EB8404044B03EB8404608A10BD00BFE7
:1027400034090020C8490000380900202DE9F04173
:10275000044617461E46884631B1032A04D903F1C0
:1027600004039BB29E4204D330484FF03601FEF77B
:1027700091FDC4F800804FF00403A381042E0CD90E
:102780004FF004034FF0010503F104039BB205F180
:1027900001059E42F8D8A38103E04FF004034FF0F7
:1027A00001051E469F4204D220484FF04401FEF727
:1027B00071FDBF1B4FF00103E3812268BE4210D8B8
:1027C0004FEA8505C6F10001BF1B00E01A46531908
:1027D0001360E28902F10102E2817F18F742F5D32A
:1027E00000E013464FF000021A60E2892282628202
:1027F000C4F80480A3600E4B93F90230002B12DA68
:102800000C4B1B680BB198450DD172B64FF01700F9
:1028100000F052FC606801F0B1F9E08901F0F6F8CF
:1028200000F0F2FC62B6BDE8F08100BFD0490000C4
:10283000C8090020FC09002038B504460D4643684D
:102840008B4206D88368994203D8028AC3899A4288
:1028500004D915484FF02D01FEF71CFD72B6236810
:102860002B602560238A03F1010323820F4BDB7861
:1028700013F0020F15D00E4B1B6813B16268934220
:102880000FD14FF0190000F017FCFEF707FE01F022
:1028900075F9606801F072F9208A01F0B7F800F06C
:1028A000B3FC62B638BD00BFDC490000C809002097
:1028B000FC09002038B504460D46032904D8074812
:1028C0004FF02901FEF7E6FC4FF000036360A360C0
:1028D000E360238263822580A37038BDE449000051
:1028E00070B504460D4616462AB10388032B02D95B
:1028F000436803B921B919484FF03001FEF7CAFC0B
:1029000026826460E56072B6154B1B7913F0010FE7
:102910001AD0144B1B680BB19C4215D14FF020000C
:1029200000F0CAFBFEF7BAFD01F028F9204601F0DD
:1029300025F9284601F022F9304601F067F8608A4F
:1029400001F064F800F060FC074B1B68A36003B162
:102950005C60054B1C6062B670BD00BFF0490000B2
:10296000C8090020040A0020BC0900202DE9F04716
:1029700086B0054603689847022804D04E484FF0B9
:102980002D01FEF787FC4D4EDFF83C91DFF83CA1AE
:102990004B4F07F1040899F8003013F0080F15D0D9
:1029A000DAF800300BB19D4210D172B64FF003003F
:1029B00000F082FB284601F0E1F8304601F0DEF835
:1029C000286801F0DBF800F01FFC62B62C68009468
:1029D00028463946A0472B68B34266D04FF0000422
:1029E00004F10104E4B262B206A901EB820242F8EA
:1029F000183C2846394698472B68B342F0D1009BD3
:102A00002B6063B2052B04DD2B484FF04401FEF729
:102A100041FC63B206AA02EB830353F8186C284604
:102A20004146B047B8B999F8003013F0020F12D000
:102A3000DAF800300BB19D420DD172B64FF00100B3
:102A400000F03AFB284601F099F8304601F096F87C
:102A500000F0DAFB62B604F1FF34E4B214F0800F48
:102A6000D7D0009E28461749B047022893D02E6041
:102A7000154B1B7813F0100F1BD0144B1B680BB1B8
:102A80009D4216D172B64FF0040000F015FBFEF720
:102A900005FD01F073F8284601F070F8286801F090
:102AA0006DF800F0B1FB62B603E02C604FF000045B
:102AB000AFE706B0BDE8F087F84900001D30000020
:102AC000184A0000244A0000C8090020F409002028
:102AD0002DE9F04F87B005468B460668944B5B782E
:102AE00013F0010F1AD0934B1B680BB1984215D10C
:102AF00072B64FF0080000F0DFFAFEF7CFFC01F0ED
:102B00003DF8BBF8000000F081FF284601F036F8E0
:102B1000304601F033F800F077FB62B6D5F800904C
:102B200028465946C8470328F8D0022840F01482A6
:102B30002B68009301964E4524D07F4C7C4FA4F126
:102B4000080828462146B047C8B93B7813F0040F5F
:102B500012D0784B1B680BB19D420DD172B64FF06D
:102B6000020000F0A9FA284601F008F8304601F00A
:102B700005F800F049FB62B628464146B0472E688A
:102B8000B145DED1009CA14520D128466A49C847FD
:102B9000002840F03782664B1B7813F0040F00F0DA
:102BA0003182644B1B6813B19D4240F02B8272B698
:102BB0004FF0020000F080FA284600F0DFFF4846A0
:102BC00000F0DCFF00F020FB62B61BE228465B4908
:102BD000A0472E68B14500F0158228465749C847DE
:102BE0002F68B74220D128465349C847002840F0F3
:102BF00009824F4B1B7813F0040F00F003824D4BFA
:102C00001B6813B19D4240F0FD8172B64FF0020087
:102C100000F052FA284600F0B1FF484600F0AEFF3F
:102C200000F0F2FA62B6EDE1BC4225D128464249F5
:102C3000C847002840F0F6803D4B1B7813F0040F86
:102C400000F0F0803B4B1B6813B19D4240F0EA80DE
:102C500072B64FF0020000F02FFA284600F08EFF07
:102C6000484600F08BFF00F0CFFA62B6DAE014F0CD
:102C7000800F00F0AA80D5E0019628462F49B04782
:102C8000032829D14FF00104DFF8B08000E034467A
:102C900004F10106F6B22B6872B206A901EB8202BA
:102CA00042F8183C994508D176B2052EDFDD24485C
:102CB0004FF07A01FEF7EEFAD9E7284641469847E9
:102CC0000328E4D0344676B2052E07DD1C484FF0C9
:102CD0008501FEF7DFFA01E04FF0010428461649AE
:102CE000C847B8B9124B1B7813F0040F12D0114B20
:102CF0001B680BB19D420DD172B64FF0020000F07F
:102D0000DBF9284600F03AFF484600F037FF00F0B4
:102D10007BFA62B623465AB206A901EB820252F848
:102D2000182C97420ED103F1FF33DCB29FE700BFAE
:102D3000C8090020F4090020204A0000184A0000B9
:102D4000044A000003F1FF33DBB213F0800FE2D03E
:102D5000934EDFF86482A6F1080A28463146B84748
:102D6000D0B998F8003013F0040F12D08D4B1B68C7
:102D70000BB19D420DD172B64FF0020000F09CF9EC
:102D8000284600F0FBFE384600F0F8FE00F03CFA62
:102D900062B628465146B8472F6823465AB206A95C
:102DA00001EB820252F8182CBA4203D103F1FF332F
:102DB000DCB25CE703F1FF33DBB213F0800FEDD040
:102DC0004FF00102002AC8D151E7774FDFF8E881C0
:102DD000DFF8D0A163B206A901EB830353F8186CA6
:102DE00028463946B047B8B998F8003013F0020FBA
:102DF00012D0DAF800300BB19D420DD172B64FF00F
:102E0000010000F059F9284600F0B8FE304600F005
:102E1000B5FE00F0F9F962B604F1FF34E4B214F043
:102E2000800FD7D0009E2E60DFF88CA1DFF878816C
:102E300068E09AF8003013F0080F15D0594A13686B
:102E40000BB19D4210D172B64FF0030000F034F97F
:102E5000284600F093FE304600F090FE286800F00F
:102E60008DFE00F0D1F962B62C68009428464F49D7
:102E7000A0472B68B34200F0C8804FF000044B4FCE
:102E800004F10104E4B262B206A901EB820242F845
:102E9000183C2846394698472B68B342F0D1009B2E
:102EA0002B6063B2052B04DD41484FF0D901FEF7DA
:102EB000F1F963B206AA02EB830353F8186C2846B3
:102EC0004146B047B8B99AF8003013F0020F12D05B
:102ED00034490B680BB19D420DD172B64FF0010021
:102EE00000F0EAF8284600F049FE304600F046FEC1
:102EF00000F08AF962B604F1FF34E4B214F0800FF6
:102F0000D7D0009E28462B49B047022891D034469E
:102F1000294B1B7813F0400F70D0224B1B680BB16C
:102F20009D426BD172B64FF0060000F0C5F8FEF777
:102F3000B5FA00F023FEBBF8000000F067FD28465C
:102F400000F01CFE484600F019FE204600F016FE78
:102F500000F05AF962B651E001282FD1164B93F9CF
:102F60000030002B4ADA0F4B1B680BB19D4245D154
:102F700072B64FF0070000F09FF8FEF78FFA00F0EE
:102F8000FDFDBBF8000000F041FD284600F0F6FD15
:102F9000304600F0F3FD00F037F962B62EE000BFD6
:102FA000204A0000F40900201C4A0000184A0000D2
:102FB000044A0000244A0000C8090020154B1B7871
:102FC00013F0200F1AD0144B1B680BB19D4215D182
:102FD00072B64FF0050000F06FF8FEF75FFA00F0F0
:102FE000CDFDBBF8000000F011FD284600F0C6FD45
:102FF000484600F0C3FD00F007F962B62E6007B046
:10300000BDE8F08F4FF00004DFE62C604FF00004C5
:103010004FE700BFC8090020F40900204FF001006D
:10302000704700BF00487047104A000000487047D2
:10303000284A0000014B186099807047C0090020A1
:10304000FF280BD10C4901F1070301F127014FF0D3
:10305000FF0203F8012F8B42FBD17047064B03EBB5
:10306000D00300F007004FF0010202FA00F01A7AD4
:1030700010431872704700BFC0090020FF280BD111
:103080000C4901F1070301F127014FF0000203F899
:10309000012F8B42FBD17047064B03EBD00300F0AE
:1030A00007004FF0010202FA00F01A7A22EA00004B
:1030B00018727047C009002010B4524A92F82830A4
:1030C00003F10103DBB282F8283082F82930A3F142
:1030D0007D02D2B2012A2FD84A4B5A8D19684FF07F
:1030E0007D048C545A8D02F1010292B25A859B885C
:1030F000934203D1434B4FF000025A85414B9A8DC6
:1031000002F101029A855A8D196893F8284084F0DB
:1031100020048C545A8D02F1010292B25A859B8888
:10312000934203D1374B4FF000025A85354B9A8DAD
:1031300002F101029A8514E0324A518D14686354F9
:10314000538D03F101039BB2538592889A4203D1B8
:103150002C4B4FF000025A852A4B9A8D02F1010246
:103160009A85284B93F82920821883F82920A0F10A
:103170007D03DBB2012B2DD8224B5A8D19684FF0FD
:103180007D048C545A8D02F1010292B25A859B88BB
:10319000934203D11B4B4FF000025A85194B9A8D75
:1031A00002F101029A855A8D196880F02000885436
:1031B0005A8D02F1010292B25A859B88934203D143
:1031C000104B4FF000025A850E4B9A8D02F101020E
:1031D0009A8514E00B4B5A8D196888545A8D02F168
:1031E000010292B25A859B88934203D1054B4FF05E
:1031F00000025A85034B9A8D02F101029A8510BC98
:10320000704700BFC0090020384B93F829206FEAAF
:103210000202D2B283F82920A2F17D03DBB2012B96
:103220002FD8324B5A8D19684FF07D0088545A8D33
:1032300002F1010292B25A859B88934203D12B4B33
:103240004FF000015985294B9A8D02F101029A85B0
:103250005A8D196893F8290080F0200088545A8DFF
:1032600002F1010292B25A859B88934203D11F4B0F
:103270004FF000025A851D4B9A8D02F101029A858A
:1032800014E01A4B598D186842545A8D02F101020C
:1032900092B25A859B88934203D1144B4FF00001A0
:1032A0005985124B9A8D02F101029A850F4B5A8D66
:1032B00019684FF07E0088545A8D02F1010292B2D3
:1032C0005A859B889A4203D1084A4FF000015185E4
:1032D00006498A8D02F1010292B28A85934203D295
:1032E0000A46498DD1859385704700BFC0090020EB
:1032F00030B44F4B93F82920821883F82920A0F18D
:103300007D03DBB2012B2DD8494B5A8D1C684FF041
:103310007D05A5545A8D02F1010292B25A859B880F
:10332000934203D1424B4FF000025A85404B9A8D95
:1033300002F101029A855A8D1C6880F02000A05489
:103340005A8D02F1010292B25A859B88934203D1B1
:10335000374B4FF000025A85354B9A8D02F101022E
:103360009A8514E0324B5A8D1C68A0545A8D02F194
:10337000010292B25A859B88934203D12C4B4FF0A5
:1033800000025A852A4B9A8D02F101029A85284B38
:1033900093F829208A1883F82920A1F17D03DBB254
:1033A000012B2DD8224B5A8D18684FF07D04845480
:1033B0005A8D02F1010292B25A859B88934203D141
:1033C0001B4B4FF000025A85194B9A8D02F10102F6
:1033D0009A855A8D186881F0200181545A8D02F126
:1033E000010292B25A859B88934203D1104B4FF051
:1033F00000025A850E4B9A8D02F101029A8514E063
:103400000B4B5A8D186881545A8D02F1010292B209
:103410005A859B88934203D1054B4FF000025A8591
:10342000034B9A8D02F101029A8530BC704700BFB0
:10343000C009002030B4784B93F82920821883F813
:103440002920A0F17D03DBB2012B2DD8724B5A8DC0
:103450001C684FF07D05A5545A8D02F1010292B20D
:103460005A859B88934203D16B4B4FF000025A85DB
:10347000694B9A8D02F101029A855A8D1C6880F081
:103480002000A0545A8D02F1010292B25A859B8805
:10349000934203D1604B4FF0000058855E4B9A8DEC
:1034A00002F101029A8514E05B4B5A8D1C68A0540E
:1034B0005A8D02F1010292B25A859B88934203D140
:1034C000554B4FF000025A85534B9A8D02F1010281
:1034D0009A85CAB2504B93F82900101883F8290036
:1034E000A2F17D03DBB2012B2DD84B4B588D1C680C
:1034F0004FF07D052554588D00F1010080B25885AC
:103500009B88834203D1444B4FF000005885424BC7
:10351000988D00F101009885588D1C6882F020027A
:1035200022545A8D02F1010292B25A859B8893422D
:1035300003D1394B4FF000025A85374B9A8D02F177
:1035400001029A8514E0344B588D1C6822545A8D20
:1035500002F1010292B25A859B88934203D12E4B0D
:103560004FF0000058852C4B9A8D02F101029A858C
:103570004FEA1121CBB2284A92F82900181882F894
:103580002900A3F17D02D2B2012A2DD8224A518D01
:1035900010684FF07D044454518D01F1010189B24E
:1035A000518592888A4203D11B4A4FF00001518510
:1035B000194A918D01F101019185518D106883F0B7
:1035C00020034354538D03F101039BB2538592882A
:1035D0009A4203D1104B4FF000025A850E4B9A8D40
:1035E00002F101029A8514E00B4B5A8D1868815440
:1035F0005A8D02F1010292B25A859B88934203D1FF
:10360000054B4FF000005885034B9A8D02F10102E3
:103610009A8530BC704700BFC009002030B4954B7C
:1036200093F82920821883F82920A0F17D03DBB2CA
:10363000012B2DD88F4B5A8D1C684FF07D05A5545A
:103640005A8D02F1010292B25A859B88934203D1AE
:10365000884B4FF000025A85864B9A8D02F1010289
:103660009A855A8D1C6880F02000A0545A8D02F172
:10367000010292B25A859B88934203D17D4B4FF051
:10368000000058857B4B9A8D02F101029A8514E067
:10369000784B5A8D1C68A0545A8D02F1010292B2E7
:1036A0005A859B88934203D1724B4FF000025A8592
:1036B000704B9A8D02F101029A85CAB26D4B93F854
:1036C0002900101883F82900A2F17D03DBB2012B39
:1036D0002DD8684B588D1C684FF07D052554588DAA
:1036E00000F1010080B258859B88834203D1614B71
:1036F0004FF0000058855F4B988D00F101009885D0
:10370000588D1C6882F0200222545A8D02F1010269
:1037100092B25A859B88934203D1564B4FF00002D8
:103720005A85544B9A8D02F101029A8514E0514B4F
:10373000588D1C6822545A8D02F1010292B25A85AA
:103740009B88934203D14B4B4FF000005885494B67
:103750009A8D02F101029A854FEA1121CAB2454BB6
:1037600093F82900101883F82900A2F17D03DBB239
:10377000012B2DD83F4B588D1C684FF07D052554EB
:10378000588D00F1010080B258859B88834203D197
:10379000384B4FF000005885364B988D00F10100F2
:1037A0009885588D1C6882F0200222545A8D02F1AF
:1037B000010292B25A859B88934203D12D4B4FF060
:1037C00000025A852B4B9A8D02F101029A8514E072
:1037D000284B588D1C6822545A8D02F1010292B276
:1037E0005A859B88934203D1224B4FF000005885A5
:1037F000204B9A8D02F101029A854FEA1121CAB23B
:103800001C4B93F82900101883F82900A2F17D03BE
:10381000DBB2012B30D8174B588D1C684FF07D055B
:103820002554588D00F1010080B258859B88834251
:1038300003D1104B4FF0000058850E4B988D00F1CE
:1038400001009885588D1C6882F0200222545A8D00
:1038500002F1010292B25A859B88934203D1054B33
:103860004FF000025A85034B9A8D02F101029A85AE
:1038700017E000BFC0090020334B588D1C6822544C
:103880005A8D02F1010292B25A859B88934203D16C
:103890002D4B4FF0000058852B4B9A8D02F1010201
:1038A0009A854FEA1121284B93F829208A1883F82A
:1038B0002920A1F17D03DBB2012B2DD8224B5A8D9B
:1038C00018684FF07D0484545A8D02F1010292B2BF
:1038D0005A859B88934203D11B4B4FF000025A85B7
:1038E000194B9A8D02F101029A855A8D186881F060
:1038F000200181545A8D02F1010292B25A859B88AF
:10390000934203D1104B4FF0000058850E4B9A8D17
:1039100002F101029A8514E00B4B5A8D186881540C
:103920005A8D02F1010292B25A859B88934203D1CB
:10393000054B4FF000025A85034B9A8D02F10102AC
:103940009A8530BC704700BFC009002010B42A4BD4
:103950001A7882181A70A0F17D03DBB2012B32D8DD
:10396000264B1A88264909684FF07D048C541A8822
:1039700002F1010292B21A80224B1B88934203D1BA
:103980001E4B4FF000021A801F4B1A8802F10102F1
:103990001A801A4B1A881A49096880F02000885446
:1039A0001A8802F1010292B21A80164B1B889342C8
:1039B00003D1124B4FF000021A80134B1A8802F108
:1039C00001021A8016E00D4B1A880D4909688854C7
:1039D0001A8802F1010292B21A800A4B1B889342A4
:1039E00003D1064B4FF000021A80074B1A8802F1F0
:1039F00001021A8010BC7047E9090020EA09002082
:103A0000C0090020C4090020EC09002030B4C3B272
:103A1000554A117859181170A3F17D02D2B2012ACA
:103A200032D8524A1188524C24684FF07D056554B3
:103A3000118801F1010189B211804E4A12888A422F
:103A400003D14A4A4FF0000111804B4A118801F11D
:103A500001011180454A1188454C246883F02003F8
:103A60006354138803F101039BB21380414A128807
:103A70009A4203D13D4B4FF000021A803E4B1A8808
:103A800002F101021A8016E0384A1188384C246885
:103A90006354138803F101039BB21380354A1288E3
:103AA0009A4203D1314B4FF000011980324B1A88F2
:103AB00002F101021A804FEA1020C3B22A4A11789B
:103AC00059181170A3F17D02D2B2012A32D8274AC7
:103AD0001188274800684FF07D044454118801F193
:103AE000010189B21180234A12888A4203D11F4AF8
:103AF0004FF000011180204A118801F1010111806D
:103B00001A4A11881A48006883F020034354138826
:103B100003F101039BB21380164A12889A4203D123
:103B2000124B4FF000021A80134B1A8802F1010267
:103B30001A8016E00D4B1A880D49096888541A88B6
:103B400002F1010292B21A800A4B1B88934203D100
:103B5000064B4FF000011980074B1A8802F1010251
:103B60001A8030BC704700BFE9090020EA09002034
:103B7000C0090020C4090020EC09002030B4C3B201
:103B8000734A117859181170A3F17D02D2B2012A3B
:103B900032D8704A1188704C24684FF07D05655406
:103BA000118801F1010189B211806C4A12888A42A0
:103BB00003D1684A4FF000011180694A118801F170
:103BC00001011180634A1188634C246883F020034B
:103BD0006354138803F101039BB213805F4A128878
:103BE0009A4203D15B4B4FF000021A805C4B1A885B
:103BF00002F101021A8016E0564A1188564C2468D8
:103C00006354138803F101039BB21380534A128853
:103C10009A4203D14F4B4FF000011980504B1A8844
:103C200002F101021A804FEA1020C3B2484A11780B
:103C300059181170A3F17D02D2B2012A32D8454A37
:103C40001188454C24684FF07D056554118801F1B9
:103C5000010189B21180414A12888A4203D13D4A4A
:103C60004FF0000111803E4A118801F101011180DD
:103C7000384A1188384C246883F020036354138831
:103C800003F101039BB21380344A12889A4203D194
:103C9000304B4FF000021A80314B1A8802F10102BA
:103CA0001A8016E02B4A11882B4C24686354138821
:103CB00003F101039BB21380284A12889A4203D170
:103CC000244B4FF000011980254B1A8802F10102A4
:103CD0001A804FEA1020C3B21D4A1178591811708A
:103CE000A3F17D02D2B2012A3CD81A4A11881A4C9B
:103CF00024684FF07D056554118801F1010189B2F6
:103D00001180164A12888A4203D1124A4FF00001EC
:103D10001180134A118801F1010111800D4A1188A7
:103D20000D4C246883F020036354138803F10103CE
:103D30009BB21380094A12889A4203D1054B4FF077
:103D400000021A80064B1A8802F101021A8020E054
:103D5000E9090020EA090020C0090020C409002068
:103D6000EC090020364A1188364C246863541388C5
:103D700003F101039BB21380334A12889A4203D1A4
:103D80002F4B4FF000011980304B1A8802F10102CD
:103D90001A804FEA10202E4B1A7882181A70A0F160
:103DA0007D03DBB2012B32D8254B1A8825490968DF
:103DB0004FF07D048C541A8802F1010292B21A80ED
:103DC000214B1B88934203D11D4B4FF000021A80F8
:103DD0001E4B1A8802F101021A80194B1A881949E0
:103DE000096880F0200088541A8802F1010292B21A
:103DF0001A80154B1B88934203D1114B4FF00001E1
:103E00001980124B1A8802F101021A8016E00C4B3D
:103E10001A880C49096888541A8802F1010292B282
:103E20001A80094B1B88934203D1054B4FF00002C7
:103E30001A80064B1A8802F101021A8030BC7047C2
:103E4000EA090020C0090020C4090020EC09002074
:103E5000E90900202DE9F00302782AB3204C214B18
:103E6000214F224E4FF0000C214925785219227023
:103E700005461A88D7F8008090F8009008F802905C
:103E80001A8802F1010292B21A80B6F800809045B9
:103E900008BFA3F800C00A8802F101020A80427834
:103EA00000F10100002AE0D10E4B1A880E49096882
:103EB0004FF0000088541A8802F1010292B21A8071
:103EC0000A4B1B88934203D1064B4FF000021A8025
:103ED000074B1A8802F101021A80BDE8F00370470F
:103EE000E9090020EA090020C0090020C4090020D7
:103EF000EC0900202DE9F001037803B31E4C1F4AA2
:103F00001F4F204E4FF0000C1F4925785D1925707A
:103F10001588D7F8008008F80530138803F10103ED
:103F20009BB2138035889D4208BFA2F800C00B8861
:103F300003F101030B8010F8013F002BE5D10F4B7B
:103F40001A880F4909684FF0000088541A8802F156
:103F5000010292B21A800B4B1B88934203D1074B8C
:103F60004FF000021A80084B1A8802F101021A80F1
:103F7000BDE8F001704700BFE9090020EA09002010
:103F8000C0090020C4090020EC09002030B4144B03
:103F9000198811B9018008461FE0124C124B258880
:103FA0001A88AA1A92B28A4228BF0A460588AA42EB
:103FB00028BF2A4602800A490888801A0880198882
:103FC000521892B21A802388934203D1064B4FF0C5
:103FD00000021A80054B1868401830BC704700BFBB
:103FE000EC090020C4090020EE090020C0090020CF
:103FF0002DE9F0012E4B1A882E4909684FF008046C
:104000008C541A8802F1010292B21A802A4B1B8842
:10401000934203D1264B4FF000021A80274B1A8897
:1040200002F101021A80264B1A7802F108021A7076
:1040300002780AB31E4B1F4F1F4E4FF0000C1F4C4F
:104040001F491D88D7F8008008F805201A8802F15A
:10405000010292B21A803588954208BFA3F800C0C9
:10406000228802F1010222800D780278AA180A70D3
:1040700010F8012F002AE4D10D4B1A880D49096868
:104080004FF0000088541A8802F1010292B21A809F
:10409000094B1B88934203D1054B4FF000021A8055
:1040A000064B1A8802F101021A80BDE8F001704740
:1040B000EA090020C0090020C4090020EC09002002
:1040C000E90900202DE9F0012E4B1A882E490968D4
:1040D0004FF008048C541A8802F1010292B21A803F
:1040E0002A4B1B88934203D1264B4FF000021A80C3
:1040F000274B1A8802F101021A80264B1A7802F126
:1041000008021A7003780BB31E4A1F4F1F4E4FF060
:10411000000C1F4D1F4C1188D7F8008008F80130A3
:10412000118801F1010189B21180B6F8008088453B
:1041300008BFA2F800C0298801F101012980217877
:104140005B18237010F8013F002BE4D10D4B1A8847
:104150000D4909684FF0000088541A8802F10102E5
:1041600092B21A80094B1B88934203D1054B4FF042
:1041700000021A80064B1A8802F101021A80BDE87B
:10418000F0017047EA090020C0090020C40900209E
:10419000EC090020E909002070B500240C4D0D4EFB
:1041A000761BB61003E055F8043B01349847B4423F
:1041B000F9D1094DFDF792FB084E0024761BB6108D
:1041C00003E055F8043B01349847B442F9D170BD7F
:1041D0008C4A00008C4A00008C4A00008C4A000087
:1041E000EFF3108072B606498A68FF231B041A4356
:1041F0008A604A681B029A434A6080F310887047BD
:1042000018ED00E072B609480121C90601600848AE
:104210000078002804D0C908064803B486B0704767
:1042200062B67047FDF766FD62B600DF04ED00E0A0
:10423000200800202442000008B070476C5F736DB6
:104240006C506F6F6C53746F000000006C5F746192
:10425000626C65517565756553746F006C5F70684D
:10426000696C6F517565756553746F5B305D0000E7
:104270006C5F7068696C6F517565756553746F5BC1
:10428000315D00006C5F7068696C6F5175657565B4
:1042900053746F5B325D00006C5F7068696C6F51C6
:1042A0007565756553746F5B335D00006C5F706896
:1042B000696C6F517565756553746F5B345D000093
:1042C000266C5F7461626C650000000026514873C3
:1042D0006D5F746F70000000265461626C655F69E9
:1042E0006E697469616C0000265461626C655F736D
:1042F000657276696E670000444F4E455F534947CB
:10430000000000004541545F534947005445524D59
:10431000494E4154455F53494700000048554E47B8
:1043200052595F53494700007461626C652E630007
:1043300004010020B080048010400000B0800480A0
:1043400012400000B180048010400000B180048061
:1043500012400000000000000000004F00000007B5
:10436000000700147F147F14242A7F2A12231308C5
:10437000646236495522500005030000001C2241AA
:10438000000041221C0014083E081408083E0808DA
:104390000050300000080808080800606000002095
:1043A000100804023E5149453E00427F40004261F0
:1043B0005149462141454B311814127F102745457C
:1043C00045393C4A49493001710905033649494993
:1043D00036064949291E00363600000056360000D0
:1043E0000814224100141414141400412214080269
:1043F00001510906324979413E7E1111117E7F49F2
:104400004949363E414141227F4141221C7F494971
:1044100049417F090909013E4149497A7F08080855
:104420007F00417F41002040413F017F081422412D
:104430007F404040407F020C027F7F0408107F3E97
:104440004141413E7F090909063E4151215E7F09F4
:10445000192946464949493101017F01013F404040
:10446000403F1F2040201F3F4038403F6314081446
:104470006307087008076151494543007F414100C7
:1044800002040810200041417F00040201020440A0
:1044900040404040000102040020545454787F48BA
:1044A0004444383844444420384444487F385454C1
:1044B0005418087E0901020C5252523E7F0804042F
:1044C0007800447D40002040443D007F1028440097
:1044D00000417F40007C041804787C08040478388C
:1044E000444444387C14141408081414187C7C08C0
:1044F0000404084854545420043F4440203C4040A5
:10450000207C1C2040201C3C4030403C442810288B
:10451000440C5050503C4464544C44000836410014
:1045200000007F0000004136080002010204020082
:104530000480AE80E30680AD808A80E30680A88098
:104540001F80E30480C880E30480A080E30480D857
:1045500080E304800580E304804080E3068081805E
:104560005D80E30680D9801180E30680D5800180DC
:10457000E30680D3800080E30480AF80E300000086
:104580000480AE80E304800480E304801280E306AC
:104590008081802B80E30480A180E304804080E35D
:1045A0000680D3800080E30680A8800F80E304802B
:1045B000A480E30480A680E30480B080E30480C884
:1045C00080E30680D5807280E30680D8800080E397
:1045D0000680D9802280E30680DA801280E306809C
:1045E000DB800F80E30680AD808B80E30480AF80AA
:1045F000E3000000266C5F7068696C6F5B305D00E3
:10460000266C5F7068696C6F5B305D2E74696D65D8
:1046100045767400266C5F7068696C6F5B315D0075
:10462000266C5F7068696C6F5B315D2E74696D65B7
:1046300045767400266C5F7068696C6F5B325D0054
:10464000266C5F7068696C6F5B325D2E74696D6596
:1046500045767400266C5F7068696C6F5B335D0033
:10466000266C5F7068696C6F5B335D2E74696D6575
:1046700045767400266C5F7068696C6F5B345D0012
:10468000266C5F7068696C6F5B345D2E74696D6554
:1046900045767400265068696C6F5F696E6974694D
:1046A000616C0000265068696C6F5F7468696E6B9E
:1046B000696E6700265068696C6F5F68756E677217
:1046C00079000000265068696C6F5F656174696EDF
:1046D0006700000048554E4752595F534947000054
:1046E00054494D454F55545F534947007068696CB4
:1046F0006F2E630034010020600100208C01002037
:10470000B8010020E40100206273702E63000000F5
:10471000266C5F5379735469636B5F48616E646C98
:1047200065720000266C5F4750494F506F727441AC
:104730005F49525148616E646C65720040420F00DF
:1047400000201C0080841E0000802500999E3600F9
:104750000040380000093D0000803E0000004B0092
:10476000404B4C0000204E00808D5B0000C05D007F
:104770000080700000127A0000007D008096980092
:10478000001BB7000080BB00C0E8CE00647ADA00EE
:104790000024F4000000FA00342E322E30340000E1
:1047A000716B0000716B5F736368656400000000EB
:1047B00071615F6669666F0071615F6765745F0054
:1047C00071615F7375620000342E322E3034000048
:1047D00071665F616374000071665F67630000006B
:1047E0000001020203030303040404040404040498
:1047F0000505050505050505050505050505050569
:104800000606060606060606060606060606060648
:104810000606060606060606060606060606060638
:104820000707070707070707070707070707070718
:104830000707070707070707070707070707070708
:1048400007070707070707070707070707070707F8
:1048500007070707070707070707070707070707E8
:1048600008080808080808080808080808080808C8
:1048700008080808080808080808080808080808B8
:1048800008080808080808080808080808080808A8
:104890000808080808080808080808080808080898
:1048A0000808080808080808080808080808080888
:1048B0000808080808080808080808080808080878
:1048C0000808080808080808080808080808080868
:1048D0000808080808080808080808080808080858
:1048E00071665F6E6577000071665F706F6F6C0058
:1048F00071665F7073707562000000000001020451
:1049000008102040800102040810204080010204A9
:104910000810204080010204081020408001020499
:104920000810204080010204081020408001020489
:104930000810204080010204081020408000000080
:10494000FFFEFDFBF7EFDFBF7FFEFDFBF7EFDFBFF5
:104950007FFEFDFBF7EFDFBF7FFEFDFBF7EFDFBF65
:104960007FFEFDFBF7EFDFBF7FFEFDFBF7EFDFBF55
:104970007FFEFDFBF7EFDFBF7FFEFDFBF7EFDFBF45
:104980007F000000000000000000000000010101A5
:1049900001010101010202020202020202030303F9
:1049A00003030303030404040404040404050505C9
:1049B0000505050505060606060606060607070799
:1049C0000707070707000000716D705F67657400D7
:1049D000716D705F696E697400000000716D705FC9
:1049E000707574007174655F63746F72000000000D
:1049F0007174655F61726D007168736D5F696E6976
:104A0000000000007168736D5F646973000000004E
:104A1000342E322E3034000000000000010000006F
:104A20000200000003000000342E322E303400005B
:104A300068756E67727920200000000065617469F6
:104A40006E672020000000007468696E6B696E67F5
:104A50000000000044696E696E67205068696C6FE1
:104A60007300000030202C31202C32202C33202CDD
:104A700034000000737461727475705F73746D3309
:0C4A800032663130785F636C000000008B
:044A8C0040000000E6
:040000030000186D74
:00000001FF
