:020000040000FA
:06000000F0EF38F01200E1
:0600080079EF37F0120051
:06002A00040071730000E8
:1000300012020000050000006773000000020000CB
:100040000A0000005F7300000A02000008000000C0
:0C0050005D7300001702000002000000B9
:04005C00D9CFE6FF13
:10006000E1CFD9FF160EE126FD0EDBCFE9FFFE0E34
:10007000DBCFEAFF0E0EEECFDBFF0F0EEDCFDBFF87
:10008000FD0EDBCFE9FFFE0EDBCFEAFF0C0EEECF5D
:10009000DBFF0D0EEDCFDBFF0C0EDBCF10F00D0EF6
:1000A000DBCF11F0FB0EDBCFE6FFFC0EDBCFE6FF74
:1000B000FD0EDBCFE6FFFE0EDBCFE6FF04D011C066
:1000C000FAFF1050F96EFBDFE552E552E552E552BA
:1000D000E76E100EE7CFDBFFDB500308D1E0100E18
:1000E000DB50020802E082EF07F00C0EDBCF06F0D7
:1000F0000D0EDBCF07F0120E06C0DBFF130E07C09C
:10010000DBFF140EDB68FD0EDBCFE9FFFE0EDBCF5D
:10011000EAFFEECFDEFFEDCFDDFF0E0EDBCF06F008
:100120000F0EDBCF07F0020E06C0DBFF030E07C089
:10013000DBFF0E0EDBCF10F00F0EDBCF11F00C0E3D
:10014000DB50101803E10D0EDB50111801E17DD0DA
:100150000E0EDBCF10F00F0EDBCF11F00E0EE66EA1
:10016000020EE66EFD0EDBCFE6FFFE0EDBCFE6FFF6
:1001700004D011C0FAFF1050F96EFBDFE552E552D2
:10018000E552E552000954E1040E0501611536E01F
:100190000501D751D8110CE0D7C510F0D8C511F022
:1001A000FD0EDB50101803E1FE0EDB50111826E1A6
:1001B000C00EF214E76E110EE7CFDBFF3F0EF21612
:1001C000020EE66EDFEC08F0E552FD0EDBCFE6FF37
:1001D000FE0EDBCFE6FF40EC19F0E552E5520E0EC5
:1001E000DBCFE6FF0F0EDBCFE6FF40EC19F0E55268
:1001F000E552A7EC09F0110EDB50F2120E0EDBCF28
:1002000010F00F0EDBCF11F00A0EE66E020EE66E56
:10021000FD0EDBCFE6FFFE0EDBCFE6FF04D011C004
:10022000FAFF1050F96EFBDFE552E552E552E55258
:10023000FD0EDBCFE9FFFE0EDBCFEAFF0E0EEECFA9
:10024000DBFF0F0EEDCFDBFF74D7D9CFE9FFDACF9D
:10025000EAFF0E0EEECFDBFF0F0EEDCFDBFF0C0E35
:10026000DBCF10F00D0EDBCF11F00E0EDB501018AF
:1002700003E10F0EDB50111859E10C0EDBCF10F02B
:100280000D0EDBCF11F00E0EE66E020EE66EFD0EC9
:10029000DBCFE6FFFE0EDBCFE6FF04D011C0FAFF96
:1002A0001050F96EFBDFE552E552E552E5520009C8
:1002B0003AE1040E0501611536E00501D751D81168
:1002C0000CE0D7C510F0D8C511F0FD0EDB501018AA
:1002D00003E1FE0EDB50111826E1C00EF214E76EAA
:1002E000110EE7CFDBFF3F0EF216020EE66EDFECDB
:1002F00008F0E552FD0EDBCFE6FFFE0EDBCFE6FF9A
:1003000040EC19F0E552E5520C0EDBCFE6FF0D0E86
:10031000DBCFE6FF40EC19F0E552E552A7EC09F01F
:10032000110EDB50F212140EDB6A5AD30E0EDBCF25
:1003300010F00F0EDBCF11F00A0EE66E020EE66E25
:10034000FD0EDBCFE6FFFE0EDBCFE6FF04D011C0D3
:10035000FAFF1050F96EFBDFE552E552E552E55227
:10036000FD0EDBCFE9FFFE0EDBCFEAFF0E0EEECF78
:10037000DBFF0F0EEDCFDBFF0C0EDBCF10F00D0E11
:10038000DBCF11F00E0EDB50101803E10F0EDB5027
:10039000111803E1140EDB6A23D30C0EDBCF10F02F
:1003A0000D0EDBCF11F00A0EE66E020EE66EFD0EAC
:1003B000DBCFE6FFFE0EDBCFE6FF04D011C0FAFF75
:1003C0001050F96EFBDFE552E552E552E552FD0EA5
:1003D000DBCFE9FFFE0EDBCFEAFFEECF10F0EFCF71
:1003E00011F00E0EDB50101803E10F0EDB50111848
:1003F00059E10C0EDBCF10F00D0EDBCF11F00E0E1D
:10040000E66E020EE66EFD0EDBCFE6FFFE0EDBCFE4
:10041000E6FF04D011C0FAFF1050F96EFBDFE55281
:10042000E552E552E55200093AE1040E0501611575
:1004300036E00501D751D8110CE0D7C510F0D8C56A
:1004400011F0FD0EDB50101803E1FE0EDB50111809
:1004500026E1C00EF214E76E110EE7CFDBFF3F0E70
:10046000F216020EE66EDFEC08F0E552FD0EDBCF71
:10047000E6FFFE0EDBCFE6FF40EC19F0E552E55259
:100480000C0EDBCFE6FF0D0EDBCFE6FF40EC19F0E4
:10049000E552E552A7EC09F0110EDB50F212140EF2
:1004A000DB6A9ED2FD0EDBCFE9FFFE0EDBCFEAFF5B
:1004B000EECF10F0EFCF11F0DF50101803E1DE5255
:1004C000DD50111857E10C0EDBCF10F00D0EDBCF15
:1004D00011F00E0EE66E020EE66EFD0EDBCFE6FFAD
:1004E000FE0EDBCFE6FF04D011C0FAFF1050F96E0C
:1004F000FBDFE552E552E552E55200093AE1040E10
:100500000501611536E00501D751D8110CE0D7C5BA
:1005100010F0D8C511F0FD0EDB50101803E1FE0EEF
:10052000DB50111826E1C00EF214E76E110EE7CF72
:10053000DBFF3F0EF216020EE66EDFEC08F0E5522E
:10054000FD0EDBCFE6FFFE0EDBCFE6FF40EC19F041
:10055000E552E5520C0EDBCFE6FF0D0EDBCFE6FFDA
:1005600040EC19F0E552E552A7EC09F0110EDB5012
:10057000F21236D2150EDB6A010EF36E140EF3CFB3
:10058000DBFF0E0EDBCF06F00F0EDBCF07F0020E07
:1005900006C0DBFF030E07C0DBFFFD0EDBCFE9FF6C
:1005A000FE0EDBCFEAFF0E0EEECFDBFF0F0EEDCF20
:1005B000DBFF020EDBCF10F0030EDBCF11F00A0ED3
:1005C000E66E020EE66EFD0EDBCFE6FFFE0EDBCF23
:1005D000E6FF04D011C0FAFF1050F96EFBDFE552C0
:1005E000E552E552E552E76E100EE7CFDBFFDB5038
:1005F000030801E07DD0FD0EDBCFE9FFFE0EDBCF6F
:10060000EAFFEECF14F0EFCF15F0D9CF10F0DACF2C
:1006100011F0140EDB2ADBCF12F0136A12BE13683E
:10062000D8901236133610501224E96E1150132050
:10063000EA6E14C0EEFF15C0EDFFFD0EDBCFE9FF43
:10064000FE0EDBCFEAFFEECF10F0EFCF11F00C0E75
:10065000DB50101803E10D0EDB50111825E1010EDF
:10066000F36E150EF3CFDBFF140EDBCF10F0060E8A
:10067000E76E1018E8AE02D0E73402D0E750105C05
:1006800001E20DD0720EE66EE66AF30EE66E720EB1
:10069000E66EFCEC27F0E552E552E552E552140E09
:1006A000DB06100EDB6A23D0FD0EDBCFE9FFFE0E6A
:1006B000DBCFEAFFEECF10F0EFCF11F00A0EE66EBF
:1006C000020EE66EFD0EDBCFE6FFFE0EDBCFE6FF91
:1006D00005D011C0FAFF00011050F96EFADFE552A3
:1006E000E552E552E552E76E100EE7CFDBFF7FD70C
:1006F000150EDB5001E074D1140EDBCF10F0060EA6
:10070000E76E1018E8AE02D0E73402D0E750105C74
:1007100001E20DD07D0EE66EE66AF30EE66E720E15
:10072000E66EFCEC27F0E552E552E552E5520C0E80
:10073000DBCF10F00D0EDBCF11F00E0EE66E020EC9
:10074000E66EFD0EDBCFE6FFFE0EDBCFE6FF04D04C
:1007500011C0FAFF1050F96EFBDFE552E552E55289
:10076000E55200093AE1040E0501611536E0050184
:10077000D751D8110CE0D7C510F0D8C511F0FD0E37
:10078000DB50101803E1FE0EDB50111826E1C00EFD
:10079000F214E76E110EE7CFDBFF3F0EF216020EEA
:1007A000E66EDFEC08F0E552FD0EDBCFE6FFFE0E55
:1007B000DBCFE6FF40EC19F0E552E5520C0EDBCF43
:1007C000E6FF0D0EDBCFE6FF40EC19F0E552E552F7
:1007D000A7EC09F0110EDB50F212140EDB50E76E9D
:1007E000150EE7CFDBFF010EF36E100EF3CFDBFF2C
:1007F0000E0EDBCF10F00F0EDBCF11F0D9CF14F0BF
:10080000DACF15F0150EDBCF16F0176A16BE176893
:10081000D8901636173614501624E96E1550172046
:10082000EA6EEECF12F0EFCF13F01250101802E183
:10083000135011180BE1100EDB6A150EDB04E76E86
:10084000140EE7CFDBFF150EDB6802D0150EDB06BA
:10085000DBCF10F01034CCE3100EDB5001E1C0D040
:10086000010EF36E100EF3CFDBFF0E0EDBCF10F098
:100870000F0EDBCF11F00E0EE66E020EE66EFD0ED1
:10088000DBCFE6FFFE0EDBCFE6FF04D011C0FAFFA0
:100890001050F96EFBDFE552E552E552E5520009D2
:1008A00054E1040E0501611536E00501D751D81158
:1008B0000CE0D7C510F0D8C511F0FD0EDB501018B4
:1008C00003E1FE0EDB50111826E1C00EF214E76EB4
:1008D000110EE7CFDBFF3F0EF216020EE66EDFECE5
:1008E00008F0E552FD0EDBCFE6FFFE0EDBCFE6FFA4
:1008F00040EC19F0E552E5520E0EDBCFE6FF0F0E8D
:10090000DBCFE6FF40EC19F0E552E552A7EC09F029
:10091000110EDB50F2120E0EDBCF10F00F0EDBCFFC
:1009200011F00A0EE66E020EE66EFD0EDBCFE6FF5C
:10093000FE0EDBCFE6FF04D011C0FAFF1050F96EB7
:10094000FBDFE552E552E552E552FD0EDBCFE9FF54
:10095000FE0EDBCFEAFF0E0EEECFDBFF0F0EEDCF6C
:10096000DBFF140EDB50E76E150EE7CFDBFF0E0E3C
:10097000DBCF10F00F0EDBCF11F0D9CF14F0DACFB0
:1009800015F0150EDBCF16F0176A16BE1768D89053
:100990001636173614501624E96E15501720EA6ED5
:1009A000EECF12F0EFCF13F01250101802E11350F7
:1009B00011180BE1150EDB04E76E140EE7CFDBFF19
:1009C000150EDB68100EDB6A02D0150EDB06150E65
:1009D000DBCF10F01034CBE3100EDB5001E045D735
:1009E000140EDBCF10F0103401E37BD0D9CF12F01E
:1009F000DACF13F0140EDBCF14F0156A14BE1568AD
:100A0000D8901436153612501424E96E1350152060
:100A1000EA6EEECF10F0EFCF11F00C0EE66E020E84
:100A2000E66EFD0EDBCFE6FFFE0EDBCFE6FF04D069
:100A300011C0FAFF1050F96EFBDFE552E552E552A6
:100A4000E55200094BE1020E0501611547E0050181
:100A5000D751D8110CE0D7C510F0D8C511F0FD0E54
:100A6000DB50101803E1FE0EDB50111837E1C00E09
:100A7000F214E76E110EE7CFDBFF3F0EF216010E08
:100A8000E66EDFEC08F0E552FD0EDBCFE6FFFE0E72
:100A9000DBCFE6FF40EC19F0E552E552D9CF10F07C
:100AA000DACF11F0140EDBCF12F0136A12BE136806
:100AB000D8901236133610501224E96E11501320BC
:100AC000EA6EEECFE6FFEFCFE6FF40EC19F0E5521D
:100AD000E552A7EC09F0110EDB50F212140EDB0602
:100AE0007FD7D9CFE9FFDACFEAFF0E0EEECFDBFFDB
:100AF0000F0EEDCFDBFFFD0EDBCFE9FFFE0EDBCFF0
:100B0000EAFF0E0EDBCFEEFF0F0EDBCFEDFF0E0E7A
:100B1000DBCF10F00F0EDBCF11F0100EE66E020EE1
:100B2000E66EFD0EDBCFE6FFFE0EDBCFE6FF04D068
:100B300011C0FAFF1050F96EFBDFE552E552E552A5
:100B4000E552020801E076D1080E0501611544E086
:100B50000501D751D8110CE0D7C510F0D8C511F058
:100B6000FD0EDB50101803E1FE0EDB50111834E1CE
:100B7000C00EF214E76E110EE7CFDBFF3F0EF21648
:100B8000030EE66EDFEC08F0E552FD0EDBCFE6FF6C
:100B9000FE0EDBCFE6FF40EC19F0E552E5520E0EFB
:100BA000DBCFE6FF0F0EDBCFE6FF40EC19F0E5529E
:100BB000E552FD0EDBCFE9FFFE0EDBCFEAFFEECF05
:100BC000E6FFEFCFE6FF40EC19F0E552E552A7EC67
:100BD00009F0110EDB50F212140EDB6AFD0EDBCFB2
:100BE000E9FFFE0EDBCFEAFFEECFDEFFEDCFDDFF4C
:100BF000FD0EDBCFE9FFFE0EDBCFEAFFEECF10F0FC
:100C0000EFCF11F00A0EE66E020EE66EFD0EDBCFA0
:100C1000E6FFFE0EDBCFE6FF05D011C0FAFF0001B4
:100C20001050F96EFADFE552E552E552E552FD0E3D
:100C3000DBCFE9FFFE0EDBCFEAFFEECF10F0EFCF08
:100C400011F00E0EDB50101803E10F0EDB501118DF
:100C500042E0FD0EDBCFE9FFFE0EDBCFEAFFEECF79
:100C600014F0EFCF15F0D9CF10F0DACF11F0140E49
:100C7000DB2ADBCF12F0136A12BE1368D89012364B
:100C8000133610501224E96E11501320EA6E14C06E
:100C9000EEFF15C0EDFFFD0EDBCFE9FFFE0EDBCF53
:100CA000EAFFEECF10F0EFCF11F00A0EE66E020E63
:100CB000E66EFD0EDBCFE6FFFE0EDBCFE6FF05D0D6
:100CC00011C0FAFF00011050F96EFADFE552E5524B
:100CD000E552E552ACD7FD0EDBCFE9FFFE0EDBCFD0
:100CE000EAFFDECFEEFFDDCFEDFF140EDBCF10F01D
:100CF000060EE76E1018E8AE02D0E73402D0E750D7
:100D0000105C01E20DD0D00EE66EE66AF30EE66EE0
:100D1000720EE66EFCEC27F0E552E552E552E55224
:100D2000D9CF12F0DACF13F0140EDBCF14F0156A1E
:100D300014BE1568D8901436153612501424E96E76
:100D400013501520EA6EEECF10F0EFCF11F00C0E1D
:100D5000E66E020EE66EFD0EDBCFE6FFFE0EDBCF8B
:100D6000E6FF04D011C0FAFF1050F96EFBDFE55228
:100D7000E552E552E55200094BE1020E050161150D
:100D800047E00501D751D8110CE0D7C510F0D8C500
:100D900011F0FD0EDB50101803E1FE0EDB501118B0
:100DA00037E1C00EF214E76E110EE7CFDBFF3F0E06
:100DB000F216010EE66EDFEC08F0E552FD0EDBCF19
:100DC000E6FFFE0EDBCFE6FF40EC19F0E552E55200
:100DD000D9CF10F0DACF11F0140EDBCF12F0136A76
:100DE00012BE1368D8901236133610501224E96ED2
:100DF00011501320EA6EEECFE6FFEFCFE6FF40EC96
:100E000019F0E552E552A7EC09F0110EDB50F21291
:100E1000140EDB06DBCF10F0103401E281D7D9CFFE
:100E2000E9FFDACFEAFF0E0EEECFDBFF0F0EEDCFBC
:100E3000DBFF6DD6400E0501611563E00501D7515A
:100E4000D8110CE0D7C510F0D8C511F0FD0EDB505D
:100E5000101803E1FE0EDB50111853E1C00EF2141E
:100E6000E76E110EE7CFDBFF3F0EF216060EE66EC1
:100E7000DFEC08F0E55279EC28F004C010F005C072
:100E800011F006C012F007C013F010C0E6FF11C049
:100E9000E6FF12C0E6FF13C0E6FF45EC1AF0E5528C
:100EA000E552E552E552FB0EDBCFE9FFFC0EDBCF4E
:100EB000EAFFEF50E66EC1EC18F0E552FD0EDBCF15
:100EC000E6FFFE0EDBCFE6FF40EC19F0E552E552FF
:100ED000120EDBCFE6FF130EDBCFE6FF40EC19F07E
:100EE000E552E5520E0EDBCFE6FF0F0EDBCFE6FF3D
:100EF00040EC19F0E552E552A7EC09F0110EDB5079
:100F0000F212BED0100EDB045EE1800E0501611509
:100F100059E00501D751D8110CE0D7C510F0D8C55C
:100F200011F0FD0EDB50101803E1FE0EDB5011181E
:100F300049E1C00EF214E76E110EE7CFDBFF3F0E62
:100F4000F216070EE66EDFEC08F0E55279EC28F0B9
:100F500004C010F005C011F006C012F007C013F075
:100F600010C0E6FF11C0E6FF12C0E6FF13C0E6FFA7
:100F700045EC1AF0E552E552E552E552FB0EDBCFA7
:100F8000E9FFFC0EDBCFEAFFEF50E66EC1EC18F094
:100F9000E552FD0EDBCFE6FFFE0EDBCFE6FF40ECB9
:100FA00019F0E552E5520E0EDBCFE6FF0F0EDBCF58
:100FB000E6FF40EC19F0E552E552A7EC09F0110EFE
:100FC000DB50F2125DD0200E0501611559E00501DC
:100FD000D751D8110CE0D7C510F0D8C511F0FD0ECF
:100FE000DB50101803E1FE0EDB50111849E1C00E72
:100FF000F214E76E110EE7CFDBFF3F0EF216050E7F
:10100000E66EDFEC08F0E55279EC28F004C010F051
:1010100005C011F006C012F007C013F010C0E6FFC3
:1010200011C0E6FF12C0E6FF13C0E6FF45EC1AF060
:10103000E552E552E552E552FB0EDBCFE9FFFC0E2F
:10104000DBCFEAFFEF50E66EC1EC18F0E552FD0E83
:10105000DBCFE6FFFE0EDBCFE6FF40EC19F0E552FA
:10106000E5520C0EDBCFE6FF0D0EDBCFE6FF40ECCA
:1010700019F0E552E552A7EC09F0110EDB50F2121F
:10108000FD0EDBCFE9FFFE0EDBCFEAFF0E0EDBCF5E
:10109000EEFF0F0EDBCFEDFFF56E160EE15C02E208
:1010A000E16AE552E16EF550E552E7CFD9FF120053
:1010B000350E106E730E116E10C0F3FF11C0F4FFE9
:1010C00000D01200D9CFE6FFE1CFD9FFFD0EDBCF74
:1010D00081F5FE0EDBCF82F5F90EDBCF83F5FA0E3C
:1010E000DBCF84F5E552E7CFD9FF1200D9CFE6FF79
:1010F000E1CFD9FFE652FE0EDB50FF080EE1DF6ABA
:10110000200EDF5C09E2DF50EA6A610FE96E050E2E
:10111000EA22EF68DF2AF4D718D0FE0EDB50070B67
:10112000116E010E115204E0E846FE0B1106FCE1BF
:10113000106EFE0EDB40E840E8401F0BEA6A610FCC
:10114000E96E050EEA221050EF12E552E552E7CFA4
:10115000D9FF1200D9CFE6FFE1CFD9FFE652FE0E4C
:10116000DB50FF080EE1DF6A200EDF5C09E2DF5092
:10117000EA6A610FE96E050EEA22EF6ADF2AF4D708
:1011800019D0FE0EDB50070B116E010E115204E058
:10119000E846FE0B1106FCE1E81C106EFE0EDB407B
:1011A000E840E8401F0BEA6A610FE96E050EEA228B
:1011B0001050EF16E552E552E7CFD9FF1200D9CF14
:1011C000E6FFE1CFD9FF05018C6B8B2B8C518B2572
:1011D0008C6F7E0E8B5D03E07D0E8B5D39E185C5E6
:1011E00010F086C511F0852B000E86238151102446
:1011F000E96E82511120EA6E7D0EEF6E83518519E2
:1012000002E18451861902E1856B866B892B000E01
:101210008A23200E8B19E66E85C510F086C511F065
:10122000852B000E862381511024E96E82511120F6
:10123000EA6EE552E750EF6E8351851902E1845161
:10124000861902E1856B866B892B000E8A231AD0E2
:1012500085C510F086C511F0852B000E86238151BF
:101260001024E96E82511120EA6E8BC5EFFF835185
:10127000851902E18451861902E1856B866B892B01
:10128000000E8A23FE0EDB508C258C6FFE0EDB5089
:101290007E0804E0FE0EDB507D083AE185C510F0C3
:1012A00086C511F0852B000E862381511024E96E2E
:1012B00082511120EA6E7D0EEF6E8351851902E195
:1012C0008451861902E1856B866B892B000E8A2377
:1012D000FE0EDB50200AE66E85C510F086C511F0C3
:1012E000852B000E862381511024E96E8251112036
:1012F000EA6EE552E750EF6E8351851902E18451A1
:10130000861902E1856B866B892B000E8A231BD020
:1013100085C510F086C511F0852B000E86238151FE
:101320001024E96E82511120EA6EFE0EDBCFEFFF32
:101330008351851902E18451861902E1856B866B20
:10134000892B000E8A23E552E7CFD9FF1200050151
:101350008C1D8C6F7E0E8C5D03E07D0E8C5D39E103
:1013600085C510F086C511F0852B000E86238151AE
:101370001024E96E82511120EA6E7D0EEF6E8351CA
:10138000851902E18451861902E1856B866B892BF0
:10139000000E8A23200E8C19E66E85C510F086C5D6
:1013A00011F0852B000E862381511024E96E8251A5
:1013B0001120EA6EE552E750EF6E8351851902E184
:1013C0008451861902E1856B866B892B000E8A2376
:1013D0001AD085C510F086C511F0852B000E862326
:1013E00081511024E96E82511120EA6E8CC5EFFF05
:1013F0008351851902E18451861902E1856B866B60
:10140000892B000E8A2385C510F086C511F0852B27
:10141000862381511024E96E82511120EA6E7E0EDE
:10142000EF6E8351851902E18451861902E1856BC3
:10143000866B892B000E8A238951835D8A518459DA
:1014400008E285C587F586C588F583C589F584C515
:101450008AF51200D9CFE6FFE1CFD9FFFE0EDB50AF
:1014600005018C258C6FFE0EDB507E0804E0FE0E1D
:10147000DB507D083AE185C510F086C511F0852B5B
:10148000000E862381511024E96E82511120EA6EEC
:101490007D0EEF6E8351851902E18451861902E1B8
:1014A000856B866B892B000E8A23FE0EDB50200A8B
:1014B000E66E85C510F086C511F0852B000E8623DB
:1014C00081511024E96E82511120EA6EE552E750F5
:1014D000EF6E8351851902E18451861902E1856B13
:1014E000866B892B000E8A231BD085C510F086C51C
:1014F00011F0852B000E862381511024E96E825154
:101500001120EA6EFE0EDBCFEFFF8351851902E159
:101510008451861902E1856B866B892B000E8A2324
:10152000FD0EDB508C258C6FFD0EDB507E0804E039
:10153000FD0EDB507D083AE185C510F086C511F03F
:10154000852B000E862381511024E96E82511120D3
:10155000EA6E7D0EEF6E8351851902E18451861982
:1015600002E1856B866B892B000E8A23FD0EDB5012
:10157000200AE66E85C510F086C511F0852B000E99
:10158000862381511024E96E82511120EA6EE552C2
:10159000E750EF6E8351851902E18451861902E10B
:1015A000856B866B892B000E8A231BD085C510F0B6
:1015B00086C511F0852B000E862381511024E96E1B
:1015C00082511120EA6EFD0EDBCFEFFF83518519AA
:1015D00002E18451861902E1856B866B892B000E2E
:1015E0008A23E552E7CFD9FF1200D9CFE6FFE1CF3A
:1015F000D9FFFE0EDB5005018C258C6FFE0EDB50F3
:101600007E0804E0FE0EDB507D083AE185C510F04F
:1016100086C511F0852B000E862381511024E96EBA
:1016200082511120EA6E7D0EEF6E8351851902E121
:101630008451861902E1856B866B892B000E8A2303
:10164000FE0EDB50200AE66E85C510F086C511F04F
:10165000852B000E862381511024E96E82511120C2
:10166000EA6EE552E750EF6E8351851902E184512D
:10167000861902E1856B866B892B000E8A231BD0AD
:1016800085C510F086C511F0852B000E862381518B
:101690001024E96E82511120EA6EFE0EDBCFEFFFBF
:1016A0008351851902E18451861902E1856B866BAD
:1016B000892B000E8A23FC0EDB508C258C6FFC0ED0
:1016C000DB507E0804E0FC0EDB507D083AE185C566
:1016D00010F086C511F0852B000E86238151102451
:1016E000E96E82511120EA6E7D0EEF6E83518519ED
:1016F00002E18451861902E1856B866B892B000E0D
:101700008A23FC0EDB50200AE66E85C510F086C5E4
:1017100011F0852B000E862381511024E96E825131
:101720001120EA6EE552E750EF6E8351851902E110
:101730008451861902E1856B866B892B000E8A2302
:101740001BD085C510F086C511F0852B000E8623B1
:1017500081511024E96E82511120EA6EFC0EDBCF1C
:10176000EFFF8351851902E18451861902E1856BEF
:10177000866B892B000E8A23D950FC0FE96EFF0E71
:10178000DA20EA6E080E0F0B06E0EC52D890ED322C
:10179000EF32E806FAE1FC0EDB5005018C258C6F78
:1017A000FC0EDB507E0804E0FC0EDB507D083AE1C5
:1017B00085C510F086C511F0852B000E862381515A
:1017C0001024E96E82511120EA6E7D0EEF6E835176
:1017D000851902E18451861902E1856B866B892B9C
:1017E000000E8A23FC0EDB50200AE66E85C510F041
:1017F00086C511F0852B000E862381511024E96ED9
:1018000082511120EA6EE552E750EF6E835185193F
:1018100002E18451861902E1856B866B892B000EEB
:101820008A231BD085C510F086C511F0852B000ECC
:10183000862381511024E96E82511120EA6EFC0E3C
:10184000DBCFEFFF8351851902E18451861902E154
:10185000856B866B892B000E8A23E552E7CFD9FF73
:101860001200D9CFE6FFE1CFD9FFFE0EDB50050114
:101870008C258C6FFE0EDB507E0804E0FE0EDB50E4
:101880007D083AE185C510F086C511F0852B000E64
:10189000862381511024E96E82511120EA6E7D0E5B
:1018A000EF6E8351851902E18451861902E1856B3F
:1018B000866B892B000E8A23FE0EDB50200AE66E13
:1018C00085C510F086C511F0852B000E8623815149
:1018D0001024E96E82511120EA6EE552E750EF6E56
:1018E0008351851902E18451861902E1856B866B6B
:1018F000892B000E8A231BD085C510F086C511F0F8
:10190000852B000E862381511024E96E825111200F
:10191000EA6EFE0EDBCFEFFF8351851902E18451A1
:10192000861902E1856B866B892B000E8A23FA0EDD
:10193000DB508C258C6FFA0EDB507E0804E0FA0E2B
:10194000DB507D083AE185C510F086C511F0852B86
:10195000000E862381511024E96E82511120EA6E17
:101960007D0EEF6E8351851902E18451861902E1E3
:10197000856B866B892B000E8A23FA0EDB50200ABA
:10198000E66E85C510F086C511F0852B000E862306
:1019900081511024E96E82511120EA6EE552E75020
:1019A000EF6E8351851902E18451861902E1856B3E
:1019B000866B892B000E8A231BD085C510F086C547
:1019C00011F0852B000E862381511024E96E82517F
:1019D0001120EA6EFA0EDBCFEFFF8351851902E189
:1019E0008451861902E1856B866B892B000E8A2350
:1019F000D950FA0FE96EFF0EDA20EA6E080EE76E94
:101A0000D890030EEB32020EEB32010EEB32EF32C6
:101A1000E706F6E1FA0EDB5005018C258C6FFA0E15
:101A2000DB507E0804E0FA0EDB507D083AE185C504
:101A300010F086C511F0852B000E862381511024ED
:101A4000E96E82511120EA6E7D0EEF6E8351851989
:101A500002E18451861902E1856B866B892B000EA9
:101A60008A23FA0EDB50200AE66E85C510F086C583
:101A700011F0852B000E862381511024E96E8251CE
:101A80001120EA6EE552E750EF6E8351851902E1AD
:101A90008451861902E1856B866B892B000E8A239F
:101AA0001BD085C510F086C511F0852B000E86234E
:101AB00081511024E96E82511120EA6EFA0EDBCFBB
:101AC000EFFF8351851902E18451861902E1856B8C
:101AD000866B892B000E8A23D950FA0FE96EFF0E10
:101AE000DA20EA6E080EE76ED890030EEB32020E93
:101AF000EB32010EEB32EF32E706F6E1FA0EDB5085
:101B000005018C258C6FFA0EDB507E0804E0FA0E7E
:101B1000DB507D083AE185C510F086C511F0852BB4
:101B2000000E862381511024E96E82511120EA6E45
:101B30007D0EEF6E8351851902E18451861902E111
:101B4000856B866B892B000E8A23FA0EDB50200AE8
:101B5000E66E85C510F086C511F0852B000E862334
:101B600081511024E96E82511120EA6EE552E7504E
:101B7000EF6E8351851902E18451861902E1856B6C
:101B8000866B892B000E8A231BD085C510F086C575
:101B900011F0852B000E862381511024E96E8251AD
:101BA0001120EA6EFA0EDBCFEFFF8351851902E1B7
:101BB0008451861902E1856B866B892B000E8A237E
:101BC000D950FA0FE96EFF0EDA20EA6E080EE76EC2
:101BD000D890030EEB32020EEB32010EEB32EF32F5
:101BE000E706F6E1FA0EDB5005018C258C6FFA0E44
:101BF000DB507E0804E0FA0EDB507D083AE185C533
:101C000010F086C511F0852B000E8623815110241B
:101C1000E96E82511120EA6E7D0EEF6E83518519B7
:101C200002E18451861902E1856B866B892B000ED7
:101C30008A23FA0EDB50200AE66E85C510F086C5B1
:101C400011F0852B000E862381511024E96E8251FC
:101C50001120EA6EE552E750EF6E8351851902E1DB
:101C60008451861902E1856B866B892B000E8A23CD
:101C70001BD085C510F086C511F0852B000E86237C
:101C800081511024E96E82511120EA6EFA0EDBCFE9
:101C9000EFFF8351851902E18451861902E1856BBA
:101CA000866B892B000E8A23E552E7CFD9FF1200FD
:101CB000D9CFE6FFE1CFD9FF030EE126DF6A050E9B
:101CC000DF5C35E2DF50190DF3CF10F0F4CF11F0E7
:101CD000800E1026000E1122010E10C0DBFF020E36
:101CE00011C0DBFF010EDBCFE9FF020EDBCFEAFF05
:101CF000460EEE6E1D0EED6E090EE66E010EDBCF8A
:101D0000E9FF020EDBCFEAFF0D0EE926000EEA2204
:101D1000E9CF10F0EACF11F010C0E6FF11C0E6FFE6
:101D200018EC37F0E552E552E552DF2AC8D7F56ED8
:101D3000030EE15C02E2E16AE552E16EF550E55224
:101D4000E7CFD9FF1200D9CFE6FFE1CFD9FF100EC0
:101D5000E1260001FD5101E02FD2050168AB21D041
:101D6000C00EF214DF6E3F0EF2163D0EE66EDFEC93
:101D700008F0E552800EE66E000EE66E40EC19F0BB
:101D8000E552E552A00EE66E6B0EE66EC9EC1CF055
:101D9000E552E552A7EC09F0DF50F21253EC28F0BF
:101DA00000D0050168AB25D0C00EF214E76E010E1D
:101DB000E7CFDBFF3F0EF2163D0EE66EDFEC08F0DC
:101DC000E5528D0EE66E000EE66E40EC19F0E5521F
:101DD000E552AC0EE66E6B0EE66EC9EC1CF0E552F9
:101DE000E552A7EC09F0010EDB50F21253EC28F09B
:101DF00000D0050168AB25D0C00EF214E76E020ECC
:101E0000E7CFDBFF3F0EF2163D0EE66EDFEC08F08B
:101E1000E552990EE66E000EE66E40EC19F0E552C2
:101E2000E552C00EE66E6B0EE66EC9EC1CF0E55294
:101E3000E552A7EC09F0020EDB50F21253EC28F049
:101E400000D0050168AB25D0C00EF214E76E030E7A
:101E5000E7CFDBFF3F0EF2163D0EE66EDFEC08F03B
:101E6000E552A60EE66E000EE66E40EC19F0E55265
:101E7000E552CC0EE66E6B0EE66EC9EC1CF0E55238
:101E8000E552A7EC09F0030EDB50F21253EC28F0F8
:101E900000D0050168AB25D0C00EF214E76E040E29
:101EA000E7CFDBFF3F0EF2163D0EE66EDFEC08F0EB
:101EB000E552B20EE66E000EE66E40EC19F0E55209
:101EC000E552E00EE66E6B0EE66EC9EC1CF0E552D4
:101ED000E552A7EC09F0040EDB50F21253EC28F0A7
:101EE00000D0050168AB25D0C00EF214E76E050ED8
:101EF000E7CFDBFF3F0EF2163D0EE66EDFEC08F09B
:101F0000E552BF0EE66E000EE66E40EC19F0E552AB
:101F1000E552EC0EE66E6B0EE66EC9EC1CF0E55277
:101F2000E552A7EC09F0050EDB50F21253EC28F055
:101F300000D0050168AB25D0C00EF214E76E060E86
:101F4000E7CFDBFF3F0EF2163D0EE66EDFEC08F04A
:101F5000E552CB0EE66E000EE66E40EC19F0E5524F
:101F6000E552000EE66E6C0EE66EC9EC1CF0E55212
:101F7000E552A7EC09F0060EDB50F21253EC28F004
:101F800000D0050168AB25D0C00EF214E76E070E35
:101F9000E7CFDBFF3F0EF2163D0EE66EDFEC08F0FA
:101FA000E552D80EE66E000EE66E40EC19F0E552F2
:101FB000E5520C0EE66E6C0EE66EC9EC1CF0E552B6
:101FC000E552A7EC09F0070EDB50F21253EC28F0B3
:101FD00000D0050168AB25D0C00EF214E76E080EE4
:101FE000E7CFDBFF3F0EF2163D0EE66EDFEC08F0AA
:101FF000E552E40EE66E000EE66E40EC19F0E55296
:10200000E552200EE66E6C0EE66EC9EC1CF0E55251
:10201000E552A7EC09F0080EDB50F21253EC28F061
:1020200000D0050168AB25D0C00EF214E76E090E92
:10203000E7CFDBFF3F0EF2163D0EE66EDFEC08F059
:10204000E552F10EE66E000EE66E40EC19F0E55238
:10205000E5522C0EE66E6C0EE66EC9EC1CF0E552F5
:10206000E552A7EC09F0090EDB50F21253EC28F010
:1020700000D0050168AD25D0C00EF214E76E0A0E3F
:10208000E7CFDBFF3F0EF2163E0EE66EDFEC08F008
:10209000E552460EE66E1D0EE66E40EC19F0E55276
:1020A000E552400EE66E6C0EE66EC9EC1CF0E55291
:1020B000E552A7EC09F00A0EDB50F21253EC28F0BF
:1020C00000D0050168AD25D0C00EF214E76E0B0EEE
:1020D000E7CFDBFF3F0EF2163E0EE66EDFEC08F0B8
:1020E000E552BE0EE66E220EE66E40EC19F0E552A9
:1020F000E5524F0EE66E6C0EE66EC9EC1CF0E55232
:10210000E552A7EC09F00B0EDB50F21253EC28F06D
:1021100000D0050168AD25D0C00EF214E76E0C0E9C
:10212000E7CFDBFF3F0EF2163E0EE66EDFEC08F067
:10213000E552EA0EE66E230EE66E40EC19F0E5522B
:10214000E5525F0EE66E6C0EE66EC9EC1CF0E552D1
:10215000E552A7EC09F00C0EDB50F21253EC28F01C
:1021600000D0050168AD25D0C00EF214E76E0D0E4B
:10217000E7CFDBFF3F0EF2163E0EE66EDFEC08F017
:10218000E552860EE66E250EE66E40EC19F0E5523D
:10219000E5526D0EE66E6C0EE66EC9EC1CF0E55273
:1021A000E552A7EC09F00D0EDB50F21253EC28F0CB
:1021B00000D00001010EFD6F050168A92CD0C00EF2
:1021C000F214E76E0E0EE7CFDBFF3F0EF2163C0E69
:1021D000E66EDFEC08F0E552080EE66EC1EC18F092
:1021E000E552FD0EDBCFE6FFFE0EDBCFE6FF40EC57
:1021F00019F0E552E5527B0EE66E6C0EE66EC9EC08
:102200001CF0E552E552A7EC09F00E0EDB50F2127D
:1022100053EC28F000D0050168A92CD0C00EF214B0
:10222000E76E0F0EE7CFDBFF3F0EF2163C0EE66EB9
:10223000DFEC08F0E552090EE66EC1EC18F0E5524D
:10224000FD0EDBCFE6FFFE0EDBCFE6FF40EC19F024
:10225000E552E552860EE66E6C0EE66EC9EC1CF099
:10226000E552E552A7EC09F00F0EDB50F21253ECE9
:1022700028F000D0040EE66EFD0EDBCFE6FFFE0E6A
:10228000DBCFE6FF1FEC33F0E552E552E552FD0EE1
:10229000DBCFE9FFFE0EDBCFEAFFBE0EEE6E220EB5
:1022A000ED6E020EF56E100EE15C03E200D0E16A05
:1022B000E552E16EF550E552E7CFD9FF1200D9CFD4
:1022C000E6FFE1CFD9FFFB0EDBCFE9FFFC0EDBCF52
:1022D000EAFFEF50040A51E0010A4FE00C0A41E026
:1022E000080A0CE0FD0EDBCFE9FFFE0EDBCFEAFFB4
:1022F000920EEE6E720EED6E030E73D0FD0EDBCFFE
:10230000E9FFFE0EDBCFEAFF0D0EE926000EEA2202
:102310000A0EE926000EEA22EE6AED6A070EE66E64
:10232000E66AFD0EDBCFE6FFFE0EDBCFE6FFFD0E1D
:10233000DBCFE9FFFE0EDBCFEAFF0D0EE926000E34
:10234000EA22E9CF10F0EACF11F010C0E6FF11C089
:10235000E6FF2DEC2FF0F56E060EE15EF550000E57
:1023600040D0FD0EDBCFE9FFFE0EDBCFEAFFEA0E29
:10237000EE6E230EED6E020E34D0FD0EDBCF10F0AC
:10238000FE0EDBCF11F0800E105E000E115A190EFA
:102390000B6E0C6A10C006F011C007F0CAEC38F0E2
:1023A00006C010F007C011F0FB0EDBCFE9FFFC0EFA
:1023B000DBCFEAFF020EE926000EEA22EF50105CA6
:1023C00001E00DD0780EE66EE66A980EE66E6B0EB2
:1023D000E66EFCEC27F0E552E552E552E552000EC0
:1023E00000D0E552E7CFD9FF1200D9CFE6FFE1CF09
:1023F000D9FF020EE126FB0EDBCFE9FFFC0EDBCF9F
:10240000EAFFEF50050A73E0010A40E0050A01E027
:10241000A2D0080EE66E030EE66EEEEC33F0E55247
:10242000E552F3CFDEFFF4CFDDFFFD0EDBCF10F082
:10243000FE0EDBCF11F0800E105E000E115A190E49
:102440000B6E0C6A10C006F011C007F0CAEC38F031
:1024500006C010F007C011F0DECFE9FFDDCFEAFFC4
:10246000020EE926000EEA2210C0EFFFDECFE6FFE3
:10247000DDCFE6FF17C2E6FF18C2E6FFDEEC23F071
:10248000E552E552E552E552000E71D0FD0EDBCF6C
:1024900010F0FE0EDBCF11F0800E105E000E115A10
:1024A000190E0B6E0C6A10C006F011C007F0CAECD2
:1024B00038F006C010F007C011F0FB0EDBCFE9FFCB
:1024C000FC0EDBCFEAFF020EE926000EEA22EF50F7
:1024D000105C0CE1FD0EDBCFE9FFFE0EDBCFEAFF67
:1024E000860EEE6E250EED6E020E41D034D0FD0E3E
:1024F000DBCF10F0FE0EDBCF11F0800E105E000E71
:10250000115A190E0B6E0C6A10C006F011C007F0BC
:10251000CAEC38F006C010F007C011F0FB0EDBCF9C
:10252000E9FFFC0EDBCFEAFF020EE926000EEA22ED
:10253000EF50105C01E00DD0900EE66EE66A980E4A
:10254000E66E6B0EE66EFCEC27F0E552E552E552C6
:10255000E552000E0CD0FD0EDBCFE9FFFE0EDBCF07
:10256000EAFF920EEE6E720EED6E030E00D0F56E67
:10257000020EE15C02E2E16AE552E16EF550E552DD
:10258000E7CFD9FF1200D9CFE6FFE1CFD9FF020E86
:10259000E126FB0EDBCFE9FFFC0EDBCFEAFFEF50BD
:1025A000040A01E18CD0010A01E189D00C0A01E1A1
:1025B0007AD00B0A41E0030A0CE0FD0EDBCFE9FF05
:1025C000FE0EDBCFEAFF920EEE6E720EED6E030E84
:1025D000AAD0FD0EDBCFE9FFFE0EDBCFEAFF0D0E2A
:1025E000E926000EEA220A0EE926000EEA22EE6A29
:1025F000ED6A050EE66EE66AFD0EDBCFE6FFFE0E27
:10260000DBCFE6FFFD0EDBCFE9FFFE0EDBCFEAFFFF
:102610000D0EE926000EEA22E9CF10F0EACF11F004
:1026200010C0E6FF11C0E6FF2DEC2FF0F56E060E90
:10263000E15EF550000E77D0050EE66E030EE66EF5
:10264000EEEC33F0E552E552F3CFDEFFF4CFDDFFE1
:10265000FD0EDBCF10F0FE0EDBCF11F0800E105E12
:10266000000E115A190E0B6E0C6A10C006F011C044
:1026700007F0CAEC38F006C010F007C011F0DECF4A
:10268000E9FFDDCFEAFF020EE926000EEA2210C0C4
:10269000EFFFDECFE6FFDDCFE6FF39EC31F0E552AC
:1026A000E552000E40D0FD0EDBCFE9FFFE0EDBCF82
:1026B000EAFFBE0EEE6E220EED6E020E34D0FD0E5F
:1026C000DBCF10F0FE0EDBCF11F0800E105E000E9F
:1026D000115A190E0B6E0C6A10C006F011C007F0EB
:1026E000CAEC38F006C010F007C011F0FB0EDBCFCB
:1026F000E9FFFC0EDBCFEAFF020EE926000EEA221C
:10270000EF50105C01E00DD0AA0EE66EE66A980E5E
:10271000E66E6B0EE66EFCEC27F0E552E552E552F4
:10272000E552000E00D0F56E020EE15C02E2E16AB5
:0E273000E552E16EF550E552E7CFD9FF1200F9
:02273E00D9CFF1
:10274000E6FFE1CFD9FF030EE126D950010FE96E74
:10275000DACFEAFFAD0EEE6E050EED6E010EDBCFA9
:10276000E9FF020EDBCFEAFFEA0EEE6E270EED6EFA
:10277000DF6A050EDF5C2DE2010EDBCFE9FF020E02
:10278000DBCFEAFF0D0EE926000EEA22E9CF10F0BA
:10279000EACF11F0DF500F011024E96E000E112076
:1027A000EA6EEF6A010EDBCFE9FF020EDBCFEAFF34
:1027B000120EE926000EEA22E9CF10F0EACF11F05E
:1027C000DF501024E96E000E1120EA6EEF6ADF2A56
:1027D000D0D7F56E030EE15C02E2E16AE552E16EEC
:1027E000F550E552E7CFD9FF1200D9CFE6FFE1CF90
:1027F000D9FF080EE126050168AB21D0C00EF21406
:10280000DF6E3F0EF2163D0EE66EDFEC08F0E5528D
:10281000AD0EE66E050EE66E40EC19F0E552E5529F
:10282000380EE66E710EE66EC9EC1CF0E552E5520C
:10283000A7EC09F0DF50F21253EC28F000D00501AC
:1028400068AD25D0C00EF214E76E010EE7CFDBFFB6
:102850003F0EF2163E0EE66EDFEC08F0E552920EE9
:10286000E66E720EE66E40EC19F0E552E552410E4E
:10287000E66E710EE66EC9EC1CF0E552E552A7EC6F
:1028800009F0010EDB50F21253EC28F000D00501E4
:1028900068AD25D0C00EF214E76E020EE7CFDBFF65
:1028A0003F0EF2163E0EE66EDFEC08F0E552EA0E41
:1028B000E66E270EE66E40EC19F0E552E5524B0E3F
:1028C000E66E710EE66EC9EC1CF0E552E552A7EC1F
:1028D00009F0020EDB50F21253EC28F000D0050193
:1028E00068AD25D0C00EF214E76E030EE7CFDBFF14
:1028F0003F0EF2163E0EE66EDFEC08F0E552F80EE3
:10290000E66E2A0EE66E40EC19F0E552E5525A0EDC
:10291000E66E710EE66EC9EC1CF0E552E552A7ECCE
:1029200009F0030EDB50F21253EC28F000D0050141
:1029300068A929D0C00EF214E76E040EE7CFDBFFC2
:102940003F0EF2163C0EE66EDFEC08F0E552050E87
:10295000E66EC1EC18F0E552000EE66EE66A40EC59
:1029600019F0E552E552690EE66E710EE66EC9EC9D
:102970001CF0E552E552A7EC09F0040EDB50F21210
:1029800053EC28F000D0050168A929D0C00EF2143C
:10299000E76E050EE7CFDBFF3F0EF2163C0EE66E4C
:1029A000DFEC08F0E552040EE66EC1EC18F0E552DB
:1029B000000EE66EE66A40EC19F0E552E552720E42
:1029C000E66E710EE66EC9EC1CF0E552E552A7EC1E
:1029D00009F0050EDB50F21253EC28F000D005018F
:1029E00068A929D0C00EF214E76E060EE7CFDBFF10
:1029F0003F0EF2163C0EE66EDFEC08F0E552060ED6
:102A0000E66EC1EC18F0E552000EE66EE66A40ECA8
:102A100019F0E552E5527A0EE66E710EE66EC9ECDB
:102A20001CF0E552E552A7EC09F0060EDB50F2125D
:102A300053EC28F000D0050168A92CD0C00EF21488
:102A4000E76E070EE7CFDBFF3F0EF2163C0EE66E99
:102A5000DFEC08F0E552080EE66EC1EC18F0E55226
:102A6000FD0EDBCFE6FFFE0EDBCFE6FF40EC19F0FC
:102A7000E552E552880EE66E710EE66EC9EC1CF06A
:102A8000E552E552A7EC09F0070EDB50F21253ECC9
:102A900028F000D0050EE66EFD0EDBCFE6FFFE0E41
:102AA000DBCFE6FF1FEC33F0E552E552E552060EB0
:102AB000E66EFD0EDBCFE6FFFE0EDBCFE6FF1FEC82
:102AC00033F0E552E552E552FD0EDBCFE9FFFE0E95
:102AD000DBCFEAFFF80EEE6E2A0EED6E020EF56EFB
:102AE000080EE15C03E200D0E16AE552E16EF550C8
:102AF000E552E7CFD9FF1200D9CFE6FFE1CFD9FFEA
:102B0000040EE126FB0EDBCFE9FFFC0EDBCFEAFF74
:102B1000EF50060A01E125D3030A01E1FDD00D0AB9
:102B20000CE0FD0EDBCFE9FFFE0EDBCFEAFF920EDD
:102B3000EE6E720EED6E030E18D3FB0EDBCFE9FFC7
:102B4000FC0EDBCFEAFF020EE926000EEA22EFCFF1
:102B5000DFFF050EDF5C18E2FD0EDBCFE9FFFE0EA6
:102B6000DBCFEAFF120EE926000EEA22E9CF10F0D1
:102B7000EACF11F0DF500F011024E96E000E112092
:102B8000EA6EEF5001E10DD0610EE66EE66A300E9E
:102B9000E66E710EE66EFCEC27F0E552E552E5526A
:102BA000E552880EE66E720EE66EDFCFE6FF81EC30
:102BB00027F0E552E552E552DF28106E050E116E42
:102BC00011C00CF010C007F02DEC39F0010E03C05D
:102BD000DBFFFD0EDBCFE9FFFE0EDBCFEAFF0D0EC4
:102BE000E926000EEA22E9CF10F0EACF11F0010E3B
:102BF000DB500F011024E96E000E1120EA6EEF5039
:102C000073E1FD0EDBCFE9FFFE0EDBCFEAFF0D0E19
:102C1000E926000EEA22E9CF12F0EACF13F0DF50E6
:102C20001224E96E000E1320EA6EEF505DE1FD0EF6
:102C3000DBCFE9FFFE0EDBCFEAFF0D0EE926000E2B
:102C4000EA22E9CF12F0EACF13F0DF501224E96E46
:102C5000000E1320EA6E010EEF6EFD0EDBCFE9FFD2
:102C6000FE0EDBCFEAFF0D0EE926000EEA22E9CFC9
:102C700010F0EACF11F0010EDB501024E96E000EC7
:102C80001120EA6E010EEF6E040EE66E030EE66E84
:102C9000EEEC33F0E552E552020EF3CFDBFF030E0C
:102CA000F4CFDBFF020EDBCFE9FF030EDBCFEAFF41
:102CB000020EE926000EEA22DFCFEFFF020EDBCF85
:102CC000E6FF030EDBCFE6FF39EC31F0E552E552CB
:102CD0007F0EE66E720EE66EDFCFE6FF81EC27F028
:102CE000E552E552E55216D0FD0EDBCFE9FFFE0EB0
:102CF000DBCFEAFF120EE926000EEA22E9CF10F040
:102D0000EACF11F0DF501024E96E000E1120EA6EB8
:102D1000010EEF6E000E29D2FB0EDBCFE9FFFC0E99
:102D2000DBCFEAFF020EE926000EEA22EFCFDFFF3B
:102D3000050EDF5C18E2FD0EDBCFE9FFFE0EDBCFF8
:102D4000EAFF120EE926000EEA22E9CF10F0EACFE0
:102D500011F0DF500F011024E96E000E1120EA6E11
:102D6000EF5001E10DD0750EE66EE66A300EE66EAC
:102D7000710EE66EFCEC27F0E552E552E552E552A5
:102D8000760EE66E720EE66EDFCFE6FF81EC27F080
:102D9000E552E552E552DF28106E050E116E11C0A6
:102DA0000CF010C007F02DEC39F0010E03C0DBFF72
:102DB000FD0EDBCFE9FFFE0EDBCFEAFF0D0EE926AD
:102DC000000EEA22E9CF10F0EACF11F0DF500F0138
:102DD0001024E96E000E1120EA6EEF0418E1FD0EDA
:102DE000DBCFE9FFFE0EDBCFEAFF0D0EE926000E7A
:102DF000EA22E9CF12F0EACF13F0010EDB501224E1
:102E0000E96E000E1320EA6EEF0401E10DD07A0E98
:102E1000E66EE66A300EE66E710EE66EFCEC27F0AA
:102E2000E552E552E552E552FD0EDBCFE9FFFE0E1D
:102E3000DBCFEAFF0D0EE926000EEA22E9CF12F001
:102E4000EACF13F0DF500F011224E96E000E1320B9
:102E5000EA6EEF6AFD0EDBCFE9FFFE0EDBCFEAFF85
:102E60000D0EE926000EEA22E9CF10F0EACF11F0AC
:102E7000010EDB501024E96E000E1120EA6E000EE8
:102E8000EF6E040EDF24106E050E116E11C00CF0F3
:102E900010C007F02DEC39F0010E03C0DBFFFD0E72
:102EA000DBCFE9FFFE0EDBCFEAFF120EE926000EB4
:102EB000EA22E9CF10F0EACF11F0010EDB500F014A
:102EC0001024E96E000E1120EA6EEF5001E18BD064
:102ED000FD0EDBCFE9FFFE0EDBCFEAFF0D0EE9268C
:102EE000000EEA22E9CF12F0EACF13F0010EDB5018
:102EF0001224E96E000E1320EA6EEF5074E1FD0E0D
:102F0000DBCFE9FFFE0EDBCFEAFF0D0EE926000E58
:102F1000EA22E9CF12F0EACF13F0010EDB501224BF
:102F2000E96E000E1320EA6E010EEF6EFD0EDBCF90
:102F3000E9FFFE0EDBCFEAFF0D0EE926000EEA22C6
:102F4000E9CF10F0EACF11F0DF501024E96E000E47
:102F50001120EA6E010EEF6EFD0EDBCFE9FFFE0ED3
:102F6000DBCFEAFF120EE926000EEA22E9CF10F0CD
:102F7000EACF11F0010EDB501024E96E000E112093
:102F8000EA6EEF6A040EE66E030EE66EEEEC33F0C8
:102F9000E552E552020EF3CFDBFF030EF4CFDBFF69
:102FA000020EDBCFE9FF030EDBCFEAFF020EE926BC
:102FB000000EEA22010EDBCFEFFF020EDBCFE6FFB1
:102FC000030EDBCFE6FF39EC31F0E552E5527F0E20
:102FD000E66E720EE66E010EDBCFE6FF81EC27F0A7
:102FE000E552E552E552DF28106E050E116E11C054
:102FF0000CF010C007F02DEC39F0010E03C0DBFF20
:10300000DB28106E050E116E11C00CF010C007F019
:103010002DEC39F00350DF6EFD0EDBCFE9FFFE0E25
:10302000DBCFEAFF120EE926000EEA22E9CF10F00C
:10303000EACF11F0010EDB500F011024E96E000EF3
:103040001120EA6EEF5001E18AD0FD0EDBCFE9FFDF
:10305000FE0EDBCFEAFF0D0EE926000EEA22E9CFD5
:1030600012F0EACF13F0DF501224E96E000E1320A5
:10307000EA6EEF5074E1FD0EDBCFE9FFFE0EDBCF11
:10308000EAFF0D0EE926000EEA22E9CF12F0EACFA0
:1030900013F0DF501224E96E000E1320EA6E010EC9
:1030A000EF6EFD0EDBCFE9FFFE0EDBCFEAFF0D0E6C
:1030B000E926000EEA22E9CF10F0EACF11F0010E66
:1030C000DB501024E96E000E1120EA6E010EEF6E47
:1030D000FD0EDBCFE9FFFE0EDBCFEAFF120EE92685
:1030E000000EEA22E9CF10F0EACF11F0010EDB501A
:1030F0001024E96E000E1120EA6EEF6A040EE66EEF
:10310000030EE66EEEEC33F0E552E552020EF3CF1D
:10311000DBFF030EF4CFDBFF020EDBCFE9FF030E74
:10312000DBCFEAFF020EE926000EEA22010EDBCF1A
:10313000EFFF020EDBCFE6FF030EDBCFE6FF39EC3D
:1031400031F0E552E5527F0EE66E720EE66E010E2C
:10315000DBCFE6FF81EC27F0E552E552E552000EA9
:1031600004D027EC2EF0000E00D0F56E040EE15CCA
:1031700002E2E16AE552E16EF550E552E7CFD9FF90
:0231800012003B
:0E318200D9CFE6FFE1CFD9FFFE0EDB500501ED
:103190008C258C6FFE0EDB507E0804E0FE0EDB50AB
:1031A0007D0848E1050185C510F086C511F0852B25
:1031B000000E8623050181511024E96E82511120F1
:1031C000EA6E7D0EEF6E050183510501851904E15C
:1031D000050184510501861902E1856B866B0501A5
:1031E000892B000E8A23FE0EDB50200AE66E0501B5
:1031F00085C510F086C511F0852B000E86230501CC
:1032000081511024E96E82511120EA6EE552E75097
:10321000EF6E050183510501851904E10501845113
:103220000501861902E1856B866B0501892B000E6D
:103230008A2322D0050185C510F086C511F0852BA3
:10324000000E8623050181511024E96E8251112060
:10325000EA6EFE0EDBCFEFFF0501835105018519F4
:1032600004E1050184510501861902E1856B866B35
:103270000501892B000E8A23E552E7CFD9FF120002
:10328000D9CFE6FFE1CFD9FFFD0EDB5005018C253C
:103290008C6FFD0EDB507E0804E0FD0EDB507D08D8
:1032A00048E1050185C510F086C511F0852B000E9B
:1032B0008623050181511024E96E82511120EA6EA6
:1032C0007D0EEF6E050183510501851904E10501AD
:1032D00084510501861902E1856B866B0501892BF6
:1032E000000E8A23FD0EDB50200AE66E050185C51F
:1032F00010F086C511F0852B000E86230501815143
:103300001024E96E82511120EA6EE552E750EF6E0B
:10331000050183510501851904E105018451050169
:10332000861902E1856B866B0501892B000E8A23C5
:1033300022D0050185C510F086C511F0852B000E41
:103340008623050181511024E96E82511120EA6E15
:10335000FD0EDBCFEFFF050183510501851904E167
:10336000050184510501861902E1856B866B050113
:10337000892B000E8A23D950FD0FE96EFF0EDA204B
:10338000EA6E080E0F0B06E0EC52D890ED32EF32E9
:10339000E806FAE1FD0EDB5005018C258C6FFD0E71
:1033A000DB507E0804E0FD0EDB507D0848E105019E
:1033B00085C510F086C511F0852B000E862305010A
:1033C00081511024E96E82511120EA6E7D0EEF6E5C
:1033D000050183510501851904E1050184510501A9
:1033E000861902E1856B866B0501892B000E8A2305
:1033F000FD0EDB50200AE66E050185C510F086C57E
:1034000011F0852B000E8623050181511024E96EF1
:1034100082511120EA6EE552E750EF6E05018351AB
:103420000501851904E1050184510501861902E1B0
:10343000856B866B0501892B000E8A2322D005013E
:1034400085C510F086C511F0852B000E8623050179
:1034500081511024E96E82511120EA6EFD0EDBCFFE
:10346000EFFF050183510501851904E10501845130
:103470000501861902E1856B866B0501892B000E1B
:103480008A23E552E7CFD9FF1200D9CFE6FFE1CF7B
:10349000D9FFFB0EDB5005018C258C6FFB0EDB503A
:1034A0007E0804E0FB0EDB507D0848E1050185C580
:1034B00010F086C511F0852B000E86230501815181
:1034C0001024E96E82511120EA6E7D0EEF6E050127
:1034D00083510501851904E105018451050186190F
:1034E00002E1856B866B0501892B000E8A23FB0E9A
:1034F000DB50200AE66E050185C510F086C511F087
:10350000852B000E8623050181511024E96E82511E
:103510001120EA6EE552E750EF6E05018351050177
:10352000851904E1050184510501861902E1856BC5
:10353000866B0501892B000E8A2322D0050185C5E3
:1035400010F086C511F0852B000E862305018151F0
:103550001024E96E82511120EA6EFB0EDBCFEFFFE3
:10356000050183510501851904E105018451050117
:10357000861902E1856B866B0501892B000E8A2373
:10358000D950FB0FE96EFF0EDA20EA6E080EE76EE7
:10359000D890030EEB32020EEB32010EEB32EF321B
:1035A000E706F6E1FB0EDB5005018C258C6FFB0E68
:1035B000DB507E0804E0FB0EDB507D0848E105018E
:1035C00085C510F086C511F0852B000E86230501F8
:1035D00081511024E96E82511120EA6E7D0EEF6E4A
:1035E000050183510501851904E105018451050197
:1035F000861902E1856B866B0501892B000E8A23F3
:10360000FB0EDB50200AE66E050185C510F086C56D
:1036100011F0852B000E8623050181511024E96EDF
:1036200082511120EA6EE552E750EF6E0501835199
:103630000501851904E1050184510501861902E19E
:10364000856B866B0501892B000E8A2322D005012C
:1036500085C510F086C511F0852B000E8623050167
:1036600081511024E96E82511120EA6EFB0EDBCFEE
:10367000EFFF050183510501851904E1050184511E
:103680000501861902E1856B866B0501892B000E09
:103690008A23D950FB0FE96EFF0EDA20EA6E080E7E
:1036A000E76ED890030EEB32020EEB32010EEB32D6
:1036B000EF32E706F6E1FB0EDB5005018C258C6F3F
:1036C000FB0EDB507E0804E0FB0EDB507D0848E17A
:1036D000050185C510F086C511F0852B000E8623E7
:1036E000050181511024E96E82511120EA6E7D0E90
:1036F000EF6E050183510501851904E1050184512F
:103700000501861902E1856B866B0501892B000E88
:103710008A23FB0EDB50200AE66E050185C510F0FA
:1037200086C511F0852B000E8623050181511024DA
:10373000E96E82511120EA6EE552E750EF6E050105
:1037400083510501851904E105018451050186199C
:1037500002E1856B866B0501892B000E8A2322D03E
:10376000050185C510F086C511F0852B000E862356
:10377000050181511024E96E82511120EA6EFB0E81
:10378000DBCFEFFF050183510501851904E1050138
:1037900084510501861902E1856B866B0501892B31
:1037A000000E8A23D950FB0FE96EFF0EDA20EA6E75
:1037B000080EE76ED890030EEB32020EEB32010ECC
:1037C000EB32EF32E706F6E1FB0EDB5005018C250C
:1037D0008C6FFB0EDB507E0804E0FB0EDB507D0897
:1037E00048E1050185C510F086C511F0852B000E56
:1037F0008623050181511024E96E82511120EA6E61
:103800007D0EEF6E050183510501851904E1050167
:1038100084510501861902E1856B866B0501892BB0
:10382000000E8A23FB0EDB50200AE66E050185C5DB
:1038300010F086C511F0852B000E862305018151FD
:103840001024E96E82511120EA6EE552E750EF6EC6
:10385000050183510501851904E105018451050124
:10386000861902E1856B866B0501892B000E8A2380
:1038700022D0050185C510F086C511F0852B000EFC
:103880008623050181511024E96E82511120EA6ED0
:10389000FB0EDBCFEFFF050183510501851904E124
:1038A000050184510501861902E1856B866B0501CE
:1038B000892B000E8A23E552E7CFD9FF1200D9CF1A
:1038C000E6FFE1CFD9FFFD0EDBCFE9FFFE0EDBCF38
:1038D000EAFFEF503AE0FD0EDBCFE9FFFE0EDBCF53
:1038E000EAFFEF5005018C258C6FFD0EDBCFE9FF61
:1038F000FE0EDBCFEAFFEF50E66E050185C510F046
:1039000086C511F0852B000E8623050181511024F8
:10391000E96E82511120EA6EE552E750EF6E050123
:1039200083510501851904E10501845105018619BA
:1039300002E1856B866B0501892B000E8A23FD0E43
:10394000DB2AFE0E01E3DB2ABED7050185C510F098
:1039500086C511F0852B000E8623050181511024A8
:10396000E96E82511120EA6EEF6A0501835105016B
:10397000851904E1050184510501861902E1856B71
:10398000866B0501892B000E8A23E552E7CFD9FF0C
:103990001200D9CFE6FFE1CFD9FFE652FD0EDBCF13
:1039A000F6FFFE0EDBCFF7FF0800F550DF6EDF50AD
:1039B0002BE0DF5005018C258C6F050185C510F0CB
:1039C00086C511F0852B000E862305018151102438
:1039D000E96E82511120EA6EDFCFEFFF05018351BE
:1039E0000501851904E1050184510501861902E1EB
:1039F000856B866B0501892B000E8A23FD0EDB2A61
:103A0000FE0E01E3DB2ACAD7050185C510F086C585
:103A100011F0852B000E8623050181511024E96EDB
:103A200082511120EA6EEF6A050183510501851963
:103A300004E1050184510501861902E1856B866B5D
:103A40000501892B000E8A23E552E552E7CFD9FF05
:023A5000120062
:0E3A5200D9CFE6FFE1CFD9FF0B0EE126D95008
:103A6000FB0FE96EFF0EDA20EA6EEE50ED1019E062
:103A7000D950F70FE96EFF0EDA20EA6E020EEE5C07
:103A8000000EEE58000EEE58000EEE580AE3F60E49
:103A9000DB50020F106EF60EDB50D880105401E29E
:103AA0000DD0370EE66EE66AE10EE66E720EE66E39
:103AB000FCEC27F0E552E552E552E552FB0EDBCF78
:103AC00010F0FC0EDBCF11F0126A136A010E101613
:103AD000116A126A136A020E10C0DBFF030E11C0D6
:103AE000DBFF040E12C0DBFF050E13C0DBFF020E6E
:103AF000DBCF10F0030EDBCF11F0040EDBCF12F0A2
:103B0000050EDBCF13F0105011101210131034E01B
:103B1000020E146E156A166A176AD950020FE96E02
:103B2000DACFEAFFEE50145C106EEE501558116EAD
:103B3000EE501658126EEE501758136E020E10C04B
:103B4000DBFF030E11C0DBFF040E12C0DBFF050E0E
:103B500013C0DBFFD950F70FE96EFF0EDA20EA6ED3
:103B6000020EDB50EE5E030EDB50EE5A040EDB500D
:103B7000EE5A050EDB50EE5A020EDBCF12F0030EAA
:103B8000DBCF13F0FB0EDB501224106EFC0EDB506B
:103B90001320116EFD0EDBCFE9FFFE0EDBCFEAFF37
:103BA00010C0EEFF11C0EDFFFD0EDBCFE9FFFE0EF2
:103BB000DBCFEAFF060EE926000EEA22020EEF6EC8
:103BC000010EF36E060EF3CFDBFF070EDB6A080E65
:103BD000DB6A090EDB6AFD0EDBCFE9FFFE0EDBCFF1
:103BE000EAFF060EE926000EEA22EFCF10F0F60EED
:103BF000DB50105C19E2020E106EFD0EDBCFE9FF08
:103C0000FE0EDBCFEAFF060EE926000EEA22105078
:103C1000EF26D950060FE96EDACFEAFFEE2A000E42
:103C2000EE22EE22EE22D7D7FD0EDBCFE9FFFE0E0D
:103C3000DBCFEAFF060EE926000EEA22F60EEFCFF2
:103C4000DBFFDBCF10F0116A126A136AD950F70F4D
:103C5000E96EFF0EDA20EA6E1050EE5C1150EE585D
:103C60001250EE581350EE5801E30DD04C0EE66E94
:103C7000E66AE10EE66E720EE66EFCEC27F0E552A7
:103C8000E552E552E552F60EDBCF10F0116A126AEA
:103C9000136AD950F70FE96EFF0EDA20EA6E105062
:103CA000EE5E1150EE5A1250EE5A1350EE5AFD0EBF
:103CB000DBCFE9FFFE0EDBCFEAFF070EE926000EA1
:103CC000EA22010EEF6EFD0EDBCFE9FFFE0EDBCF29
:103CD000EAFFEECFDEFFEDCFDDFFF60EDBCF10F01B
:103CE000116A126A136AD950F70FE96EFF0EDA20D3
:103CF000EA6E1050EE5C1150EE581250EE58135010
:103D0000EE583FE3060EDBCF12F0070EDBCF13F0C9
:103D1000D89012361336DE501224106EDD50132068
:103D2000116EDECFE9FFDDCFEAFF10C0EEFF11C05C
:103D3000EDFFDECFE9FFDDCFEAFFEECFDEFFEDCF17
:103D4000DDFFF60EDBCF10F0116A126A136AD9504C
:103D5000F70FE96EFF0EDA20EA6E1050EE5E11509A
:103D6000EE5A1250EE5A1350EE5AFD0EDBCFE9FF19
:103D7000FE0EDBCFEAFF070EE926000EEA22EF2A4D
:103D8000ACD7DECFE9FFDDCFEAFFEE6AED6AFD0ECC
:103D9000DBCFE9FFFE0EDBCFEAFF070EE926000EC0
:103DA000EA22EF50E66EFD0EDBCFE9FFFE0EDBCF21
:103DB000EAFF080EE926000EEA22E552E750EF6E10
:103DC000FD0EDBCFE9FFFE0EDBCFEAFF070EE92693
:103DD000000EEA22EF50E66EFD0EDBCFE9FFFE0E8D
:103DE000DBCFEAFF090EE926000EEA22E552E75092
:103DF000EF6EFD0EDBCFE9FFFE0EDBCFEAFF020E1A
:103E0000E926000EEA22FB0EDBCFEEFFFC0EDBCF35
:103E1000EDFFFD0EDBCFE9FFFE0EDBCFEAFF040E68
:103E2000E926000EEA22DECFEEFFDDCFEDFF800EA9
:103E3000050163154BE00501DB51DC1114E0FD0EBB
:103E4000DBCFE9FFFE0EDBCFEAFF020EE926000E14
:103E5000EA22EECF10F0EFCF11F01050DB1902E1A3
:103E60001150DC1933E1C00EF214E76E0A0EE7CFF1
:103E7000DBFF3F0EF216170EE66EDFEC08F0E552A0
:103E8000FD0EDBCFE9FFFE0EDBCFEAFF020EE926D7
:103E9000000EEA22EECFE6FFEFCFE6FF40EC19F08E
:103EA000E552E552FD0EDBCFE9FFFE0EDBCFEAFF68
:103EB000070EE926000EEA22EF50E66EC1EC18F07C
:103EC000E552A7EC09F00A0EDB50F212F56E0B0E6C
:103ED000E15C02E2E16AE552E16EF550E552E7CFBE
:043EE000D9FF1200F4
:0C3EE400D9CFE6FFE1CFD9FF100EE12698
:103EF000FD0EDBCFE9FFFE0EDBCFEAFFEECF10F0C9
:103F0000EFCF11F0FB0EDBCFE6FFFC0EDBCFE6FFC1
:103F1000FD0EDBCFE6FFFE0EDBCFE6FF05D011C0C6
:103F2000FAFF00011050F96EFADFE552E552E55252
:103F3000E552020801E10DD02D0EE66EE66AEA0EAA
:103F4000E66E720EE66EFCEC27F0E552E552E552A5
:103F5000E552920EDE6E720EDD6E0F0EDB6A080EFB
:103F60000501611542E00501D751D8110CE0D7C514
:103F700010F0D8C511F0FD0EDB50101803E1FE0E55
:103F8000DB50111832E1C00EF214E76E020EE7CFDB
:103F9000DBFF3F0EF216030EE66EDFEC08F0E55293
:103FA000FD0EDBCFE6FFFE0EDBCFE6FF40EC19F0A7
:103FB000E552E552DECFE6FFDDCFE6FF40EC19F03B
:103FC000E552E552FD0EDBCFE9FFFE0EDBCFEAFF47
:103FD000EECFE6FFEFCFE6FF40EC19F0E552E552F9
:103FE000A7EC09F0020EDB50F212FD0EDBCFE9FF69
:103FF000FE0EDBCFEAFF030EEECFDBFF040EEDCFAC
:10400000DBFFFD0EDBCFE9FFFE0EDBCFEAFFEECFDD
:1040100010F0EFCF11F00A0EE66E020EE66EFD0E06
:10402000DBCFE6FFFE0EDBCFE6FF05D011C0FAFFC7
:1040300000011050F96EFADFE552E552E552E55203
:10404000FD0EDBCFE9FFFE0EDBCFEAFFEECF10F077
:10405000EFCF11F0DF50101803E1DE52DD501118E0
:1040600043E0FD0EDBCFE9FFFE0EDBCFEAFFEECF34
:1040700014F0EFCF15F0D950030F106EDACF11F016
:104080000F0EDB2ADBCF12F0136A12BE1368D89032
:104090001236133610501224E96E11501320EA6EB6
:1040A00014C0EEFF15C0EDFFFD0EDBCFE9FFFE0EE5
:1040B000DBCFEAFFEECF10F0EFCF11F00A0EE66E85
:1040C000020EE66EFD0EDBCFE6FFFE0EDBCFE6FF57
:1040D00005D011C0FAFF00011050F96EFADFE55269
:1040E000E552E552E552ACD7FD0EDBCFE9FFFE0EFF
:1040F000DBCFEAFF030EDBCFEEFF040EDBCFEDFFDD
:104100000F0EDBCF10F0060EE76E1018E8AE02D0EF
:10411000E73402D0E750105C01E20DD0430EE66EAA
:10412000E66AEA0EE66E720EE66EFCEC27F0E552E9
:10413000E552E552E552D950030F126EDACF13F073
:104140000F0EDBCF14F0156A14BE1568D890143624
:10415000153612501424E96E13501520EA6EEECF76
:1041600010F0EFCF11F00C0EE66E020EE66EFD0EB3
:10417000DBCFE6FFFE0EDBCFE6FF04D011C0FAFF77
:104180001050F96EFBDFE552E552E552E5520009A9
:104190004CE1020E0501611548E00501D751D81127
:1041A0000CE0D7C510F0D8C511F0FD0EDB5010188B
:1041B00003E1FE0EDB50111838E1C00EF214E76E79
:1041C000020EE7CFDBFF3F0EF216010EE66EDFECCC
:1041D00008F0E552FD0EDBCFE6FFFE0EDBCFE6FF7B
:1041E00040EC19F0E552E552D950030F106EDACFCA
:1041F00011F00F0EDBCF12F0136A12BE1368D890C5
:104200001236133610501224E96E11501320EA6E44
:10421000EECFE6FFEFCFE6FF40EC19F0E552E552B6
:10422000A7EC09F0020EDB50F2120F0EDB06DBCF1B
:1042300010F0103401E27FD7030EDBCFDEFFDBCFBF
:10424000DDFFDECF10F0DDCF11F0100EE66E020EB6
:10425000E66EFD0EDBCFE6FFFE0EDBCFE6FF04D001
:1042600011C0FAFF1050F96EFBDFE552E552E5523E
:10427000E552020801E171D6FD0EDBCFE9FFFE0E2B
:10428000DBCFEAFFDECFEEFFDDCFEDFF100E050145
:10429000611552E00501D751D8110CE0D7C510F0D7
:1042A000D8C511F0FD0EDB50101803E1FE0EDB50F7
:1042B000111842E1C00EF214E76E020EE7CFDBFFE9
:1042C0003F0EF216040EE66EDFEC08F0E55279ECD4
:1042D00028F004C010F005C011F006C012F007C0AD
:1042E00013F010C0E6FF11C0E6FF12C0E6FF13C0D6
:1042F000E6FF45EC1AF0E552E552E552E552FD0EB7
:10430000DBCFE6FFFE0EDBCFE6FF40EC19F0E55217
:10431000E552FD0EDBCFE9FFFE0EDBCFEAFFEECF6D
:10432000E6FFEFCFE6FF40EC19F0E552E552A7ECCF
:1043300009F0020EDB50F212F56E100EE15C02E2A3
:10434000E16AE552E16EF550E552E7CFD9FF120080
:10435000D9CFE6FFE1CFD9FF030EE126C00EF2145C
:10436000E76E020EE7CFDBFF3F0EF216FD0EDBCF4E
:10437000E9FFFE0EDBCFEAFF020EE926000EEA227D
:10438000EE50ED1001E00DD0300EE66EE66A250E1F
:10439000E66E730EE66EFCEC27F0E552E552E55250
:1043A000E552FD0EDBCFE9FFFE0EDBCFEAFF020E8A
:1043B000E926000EEA22EECFDEFFEDCFDDFFFD0E97
:1043C000DBCFE9FFFE0EDBCFEAFF020EE926000E8F
:1043D000EA22070EE926000EEA22EFCF10F0FD0ECA
:1043E000DBCFE9FFFE0EDBCFEAFF020EE926000E6F
:1043F000EA22040EE926000EEA22EF50105C01E1E9
:10440000EED0FD0EDBCFE9FFFE0EDBCFEAFF020EA2
:10441000E926000EEA22060EE926000EEA22EF3413
:10442000136AFE0B1336126EFD0EDBCFE9FFFE0E94
:10443000DBCFEAFF020EE926000EEA22020EE92691
:10444000000EEA221250EE24E76E1350EE20EA6EC0
:10445000E7CFE9FFEECF10F0EFCF11F0FD0EDBCF8D
:10446000E9FFFE0EDBCFEAFF020EE926000EEA228C
:1044700010C0EEFF11C0EDFFFD0EDBCFE9FFFE0E19
:10448000DBCFEAFF020EE926000EEA22060EE9263D
:10449000000EEA22EF5021E1FD0EDBCFE9FFFE0E18
:1044A000DBCFEAFF020EE926000EEA22040EE9261F
:1044B000000EEA22EF50E66EFD0EDBCFE9FFFE0EA6
:1044C000DBCFEAFF020EE926000EEA22060EE926FD
:1044D000000EEA22E552E750EF6EFD0EDBCFE9FF5A
:1044E000FE0EDBCFEAFF020EE926000EEA22060EE0
:1044F000E926000EEA22EF06FD0EDBCFE9FFFE0EF5
:10450000DBCFEAFF020EE926000EEA22070EE926BB
:10451000000EEA22EF2A010E050163155FE0050196
:10452000D951DA110CE0D9C510F0DAC511F0FD0E41
:10453000DB50101803E1FE0EDB5011184FE1100E96
:10454000E66EDFEC08F0E55279EC28F004C010F0DC
:1045500005C011F006C012F007C013F010C0E6FF4E
:1045600011C0E6FF12C0E6FF13C0E6FF45EC1AF0EB
:10457000E552E552E552E552DECFE9FFDDCFEAFF35
:10458000EF50E66EC1EC18F0E552FD0EDBCFE6FF12
:10459000FE0EDBCFE6FF40EC19F0E552E552DECF30
:1045A000E9FFDDCFEAFFEE52EF50E66EC1EC18F006
:1045B000E552FD0EDBCFE9FFFE0EDBCFEAFF020E78
:1045C000E926000EEA22070EE926000EEA22EF5045
:1045D000E66EC1EC18F0E552A7EC09F070D0FD0EC4
:1045E000DBCFE9FFFE0EDBCFEAFF020EE926000E6D
:1045F000EA22EE6AED6AFD0EDBCFE9FFFE0EDBCFAD
:10460000EAFF0B0EE926000EEA22EF50F76AAD0F23
:10461000F66E6D0EF7220800F55002011917020E12
:10462000050163154CE00501D951DA110CE0D9C53B
:1046300010F0DAC511F0FD0EDB50101803E1FE0E8C
:10464000DB5011183CE1110EE66EDFEC08F0E5528C
:1046500079EC28F004C010F005C011F006C012F08B
:1046600007C013F010C0E6FF11C0E6FF12C0E6FF5E
:1046700013C0E6FF45EC1AF0E552E552E552E5526B
:10468000DECFE9FFDDCFEAFFEF50E66EC1EC18F0B8
:10469000E552FD0EDBCFE6FFFE0EDBCFE6FF40EC82
:1046A00019F0E552E552DECFE9FFDDCFEAFFEE5229
:1046B000EF50E66EC1EC18F0E552A7EC09F0020EDF
:1046C000DB50F212DECF10F0DDCF11F010C0F3FF9F
:1046D00011C0F4FFF56E030EE15C03E200D0E16A65
:1046E000E552E16EF550E552E7CFD9FF1200D9CF80
:1046F000E6FFE1CFD9FF050EE126FE0EDB500808EC
:104700000EE3FE0EEA6ADB34FE0BEA36E96EC40EF7
:10471000E926050EEA22EE50ED1001E00DD05A0E0A
:10472000E66EE66A250EE66E730EE66EFCEC27F08A
:10473000E552E552E552E552C00EF214E76E040E62
:10474000E7CFDBFF3F0EF216FE0EEA6ADB34FE0B0C
:10475000EA36E96EC40EE926050EEA22EE50EFCFE6
:10476000EAFFE96E020EE926000EEA22080EE926AB
:10477000000EEA22EFCF10F010C0DFFF010EDB6A5F
:10478000020EDB6A030EDB6A040EDB50F212DECF90
:1047900004F0DECF05F0DECF06F0DDCF07F0DD520E
:1047A000DD52F56E050EE15C03E200D0E16AE552F0
:0C47B000E16EF550E552E7CFD9FF120092
:0447BC00D9CFE6FF6C
:1047C000E1CFD9FFE652C00EF214DF6E3F0EF216B3
:1047D000400E0501621576E00501D951DA110CE0B1
:1047E000D9C510F0DAC511F0FD0EDB50101803E149
:1047F000FE0EDB50111866E10E0EE66EDFEC08F0DF
:10480000E55279EC28F004C010F005C011F006C0A4
:1048100012F007C013F010C0E6FF11C0E6FF12C08F
:10482000E6FF13C0E6FF45EC1AF0E552E552E5520B
:10483000E552FB0EDBCFE9FFFC0EDBCFEAFFEF50CA
:10484000E66EC1EC18F0E552FD0EDBCFE6FFFE0E82
:10485000DBCFE6FF40EC19F0E552E552FB0EDBCF73
:10486000E9FFFC0EDBCFEAFFEE52EF50E66EC1EC43
:1048700018F0E552FD0EDBCFE9FFFE0EDBCFEAFFBD
:10488000020EE926000EEA22070EE926000EEA22B1
:10489000EF50E66EC1EC18F0E552FD0EDBCFE9FFFC
:1048A000FE0EDBCFEAFF020EE926000EEA22080E1A
:1048B000E926000EEA22EF50E66EC1EC18F0E55250
:1048C000A7EC09F0FB0EDBCFE9FFFC0EDBCFEAFF24
:1048D000EE52EF5008E0FB0EDBCFE9FFFC0EDBCF22
:1048E000EAFFEE52EF2AFD0EDBCFE9FFFE0EDBCF33
:1048F000EAFF020EE926000EEA22EE50ED1025E155
:10490000FD0EDBCFE9FFFE0EDBCFEAFF020EE9264C
:10491000000EEA22FB0EDBCFEEFFFC0EDBCFEDFF3D
:10492000FD0EDBCFE9FFFE0EDBCFEAFF0B0EE92623
:10493000000EEA22EF50F76A6C0FF66E6D0EF7224A
:104940000800F55002011913DFD0FD0EDBCFE9FF9F
:10495000FE0EDBCFEAFF020EE926000EEA22070E6A
:10496000E926000EEA22EF5001E00DD0450EE66E7A
:10497000E66A2D0EE66E730EE66EFCEC27F0E5524D
:10498000E552E552E552FD0EDBCFE9FFFE0EDBCF2F
:10499000EAFF020EE926000EEA22050EE926000EC5
:1049A000EA22EF34116AFE0B1136106EFD0EDBCFDA
:1049B000E9FFFE0EDBCFEAFF020EE926000EEA2237
:1049C000020EE926000EEA221050EE24E76E115086
:1049D000EE20EA6EE7CFE9FFFB0EDBCFEEFFFC0E29
:1049E000DBCFEDFFFD0EDBCFE9FFFE0EDBCFEAFFF5
:1049F000020EE926000EEA22050EE926000EEA2242
:104A0000EF5021E1FD0EDBCFE9FFFE0EDBCFEAFF29
:104A1000020EE926000EEA22040EE926000EEA2222
:104A2000EF50E66EFD0EDBCFE9FFFE0EDBCFEAFFB7
:104A3000020EE926000EEA22050EE926000EEA2201
:104A4000E552E750EF6EFD0EDBCFE9FFFE0EDBCF48
:104A5000EAFF020EE926000EEA22050EE926000E04
:104A6000EA22EF06FD0EDBCFE9FFFE0EDBCFEAFF09
:104A7000020EE926000EEA22070EE926000EEA22BF
:104A8000EF06FD0EDBCFE9FFFE0EDBCFEAFF020EE5
:104A9000E926000EEA22080EE926000EEA22EFCFF0
:104AA00010F0FD0EDBCFE9FFFE0EDBCFEAFF020EBA
:104AB000E926000EEA22070EE926000EEA22EF5050
:104AC000D880105421E2FD0EDBCFE9FFFE0EDBCFD4
:104AD000EAFF020EE926000EEA22070EE926000E82
:104AE000EA22EF50E66EFD0EDBCFE9FFFE0EDBCFD4
:104AF000EAFF020EE926000EEA22080EE926000E61
:104B0000EA22E552E750EF6EDF50F212E552E5522D
:064B1000E7CFD9FF1200FF
:0A4B1600D9CFE6FFE1CFD9FF080E6A
:104B2000E12658EC0EF09FEC13F030EC27F026EC69
:104B30002EF0050168AB25D0C00EF214E76E010E11
:104B4000E7CFDBFF3F0EF2163D0EE66EDFEC08F01E
:104B5000E552430EE66E050EE66E40EC19F0E552A6
:104B6000E552440EE66E700EE66EC9EC1CF0E5529E
:104B7000E552A7EC09F0010EDB50F21253EC28F0DD
:104B800000D0050168AB25D0C00EF214E76E020E0E
:104B9000E7CFDBFF3F0EF2163D0EE66EDFEC08F0CE
:104BA000E552000EE66E050EE66E40EC19F0E55299
:104BB000E552510EE66E700EE66EC9EC1CF0E55241
:104BC000E552A7EC09F0020EDB50F21253EC28F08C
:104BD00000D0050168AB25D0C00EF214E76E030EBD
:104BE000E7CFDBFF3F0EF2163D0EE66EDFEC08F07E
:104BF000E5520A0EE66E050EE66E40EC19F0E5523F
:104C0000E552610EE66E700EE66EC9EC1CF0E552E0
:104C1000E552A7EC09F0030EDB50F21253EC28F03A
:104C200000D0050168AB25D0C00EF214E76E040E6B
:104C3000E7CFDBFF3F0EF2163D0EE66EDFEC08F02D
:104C4000E552140EE66E050EE66E40EC19F0E552E4
:104C5000E552740EE66E700EE66EC9EC1CF0E5527D
:104C6000E552A7EC09F0040EDB50F21253EC28F0E9
:104C700000D0050168AB25D0C00EF214E76E050E1A
:104C8000E7CFDBFF3F0EF2163D0EE66EDFEC08F0DD
:104C9000E5521E0EE66E050EE66E40EC19F0E5528A
:104CA000E552870EE66E700EE66EC9EC1CF0E5521A
:104CB000E552A7EC09F0050EDB50F21253EC28F098
:104CC00000D0050168AB25D0C00EF214E76E060EC9
:104CD000E7CFDBFF3F0EF2163D0EE66EDFEC08F08D
:104CE000E552280EE66E050EE66E40EC19F0E55230
:104CF000E5529A0EE66E700EE66EC9EC1CF0E552B7
:104D0000E552A7EC09F0060EDB50F21253EC28F046
:104D100000D0050168AB25D0C00EF214E76E070E77
:104D2000E7CFDBFF3F0EF2163D0EE66EDFEC08F03C
:104D3000E552320EE66E050EE66E40EC19F0E552D5
:104D4000E552AD0EE66E700EE66EC9EC1CF0E55253
:104D5000E552A7EC09F0070EDB50F21253EC28F0F5
:104D600000D0070EE66E3C0EE66E050EE66E1CECFD
:104D700039F0E552E552E552030EE66E1E0EE66E80
:104D8000E66AE66AE66A430EE66E050EE66E49ECF2
:104D900036F0F56E070EE15EF550DF6A050EDF5C5A
:104DA00033E2000EE66EE66AE66AE66AE66AE66AFC
:104DB000E66EE66A050EE66EE66AE66AE66ADF50C9
:104DC0000A0DF3CF10F0F4CF11F00A0E1026050EE5
:104DD000112210C0E6FF11C0E6FFDF28E66EEA6A86
:104DE000DF34FE0BEA36E96E000EE926020EEA22F7
:104DF000EECFE6FFEFCFE6FF9FEC2EF0F56E110E43
:104E0000E15EF550DF2ACAD7000EE66EE66AE66A72
:104E1000E66AE66AE66AE66EE66A050EE66EE66A47
:104E2000E66AE66A000EE66E050EE66E060EE66EB1
:104E300017C2E6FF18C2E6FF9FEC2EF0F56E110ECA
:104E4000E15EF55029EC2EF0F56E080EE15C02E211
:104E5000E16AE552E16EF550E552E7CFD9FF120065
:104E6000936A8A6AD08E000EE66EE66AD0D8E55262
:104E7000E55200090CE13E0EE66EE66A570EE66E5C
:104E8000730EE66EB9D8E552E552E552E5521200CE
:104E9000CF6A010ECE6E8F0ECD6E9F809D80D76A39
:104EA000D66A880ED56EF28AC00EF2121200120077
:104EB000D9CFE6FFE1CFD9FF020EE1269EA812D09E
:104EC00060EC38F0F3CFDEFFF4CFDDFFD9CFE9FFA0
:104ED000DACFEAFFFF0EEE1802E1FF0EED1802E056
:104EE000DF50AD6EFE0EDB50F212F56E020EE15C8D
:104EF00002E2E16AE552E16EF550E552E7CFD9FFF3
:104F00001200D9CFE6FFE1CFD9FFE652FC0EDBCF8E
:104F1000F6FFFD0EDBCFF7FF0800F55065080AE14C
:104F2000FE0EDB50EA6A120FE96E020EEA22EF5023
:104F30008A1209D0FE0EDB50EA6A120FE96E020EE9
:104F4000EA22EF1C8A16400E0501691550E00501A2
:104F5000E151E21114E0FE0EEA6ADB34FE0BEA36A0
:104F6000E96E000EE926020EEA22EECF10F0EFCF36
:104F700011F01050E11902E11150E21938E1C00EB0
:104F8000F214DF6E3F0EF216460EE66EDFEC08F00E
:104F9000E552AFD804C010F005C011F006C012F001
:104FA00007C013F010C0E6FF11C0E6FF12C0E6FF15
:104FB00013C0E6FF45EC1AF0E552E552E552E55222
:104FC000FE0EDBCFE6FF110EE66E2AEC0AF0E5528C
:104FD000E552FC0EDBCFE6FFFD0EDBCFE6FF08EC73
:104FE0002DF0E552E552A7EC09F0DF50F212E55240
:104FF000E552E7CFD9FF1200D9CFE6FFE1CFD9FFC5
:105000003F0EF216FFD7E552E7CFD9FF1200D9CFF6
:10501000E6FFE1CFD9FF020EE126FC0EE66EE66A5E
:10502000E66AE66A040EE66E010EE66E62EC08F0D1
:10503000F56E060EE15EF5500C0EAF6EAB8EAC98C1
:10504000AC84AC8AE66876EC08F0E552270EE66E92
:10505000AAEC08F0E552280EE66EAAEC08F0E5523C
:10506000290EE66EAAEC08F0E5522A0EE66EAAECCE
:1050700008F0E5521F0EE66EAAEC08F0E552340E79
:10508000E66EAAEC08F0E552010EF56E020EE15C48
:1050900003E200D0E16AE552E16EF550E552E7CF58
:1050A000D9FF12001200D9CFE6FFE1CFD9FF020EDF
:1050B000E12660EC38F0F3CFDEFFF4CFDDFFDECF8A
:1050C00010F0DDCF11F00001101C01E1111C05E012
:1050D0009EA8FED7DF50AD6EECD7F56E020EE15CF8
:1050E00002E2E16AE552E16EF550E552E7CFD9FF01
:1050F0001200D9CFE6FFE1CFD9FFE652D650DF6EDE
:10510000F2B423D0D750146E14C015F0146ADF50D7
:1051100000011410106E15C011F0126A136A000E0F
:10512000E96E010EEA6EEE501026EE501122EE509E
:105130001222EE50132210C004F011C005F012C06C
:1051400006F013C007F02AD029D000C110F001C129
:1051500011F002C112F003C113F0122A000E132243
:10516000D750186E18C019F0186ADF5000011810D7
:10517000146E19C015F0166A176A145010261550CF
:105180001122165012221750132210C004F011C021
:1051900005F012C006F013C007F000D0E552E5524A
:0651A000E7CFD9FF120069
:0A51A600D9CFE6FFE1CFD9FF030ED9
:1051B000E126C00EF214E76E020EE7CFDBFF3F0ED2
:1051C000F216800E0501641502E1000E01D0010EF9
:1051D000000E000915E01F0EE66EDFEC08F0E55248
:1051E0000501E32B000EE423E523E623E3C5E6FFF8
:1051F000E4C5E6FF40EC19F0E552E552A7EC09F0F2
:10520000FEC0DEFFFFC0DDFFD9CFE9FFDACFEAFF46
:10521000EE50ED1001E158D1DECFE9FFDDCFEAFF1E
:10522000080EE926000EEA22EE06ED5AEECF10F047
:10523000EDCF11F01050111001E02CD1DECFE9FFBD
:10524000DDCFEAFF0A0EE926000EEA22EE50ED104D
:1052500019E0DECFE9FFDDCFEAFF0A0EE926000EF6
:10526000EA22EECF10F0EFCF11F0DECFE9FFDDCF75
:10527000EAFF080EE926000EEA2210C0EEFF11C078
:10528000EDFF9CD0DECF10F0DDCF11F00001FE511C
:10529000101802E1FF5111180DE1DECFE9FFDDCF5B
:1052A000EAFF040EE926000EEA22EECFFEF0EDCF73
:1052B000FFF04BD0DECFE9FFDDCFEAFF040EE92699
:1052C000000EEA22EE50ED1020E0DECFE9FFDDCF48
:1052D000EAFF020EE926000EEA22EECF10F0EFCF31
:1052E00011F0DECFE9FFDDCFEAFF040EE926000E64
:1052F000EA22EE50EFCFEAFFE96E020EE926000E39
:10530000EA2210C0EEFF11C0EDFFDECFE9FFDDCFD6
:10531000EAFF040EE926000EEA22EECF10F0EFCFEE
:1053200011F0DECFE9FFDDCFEAFF020EE926000E25
:10533000EA22EE50EFCFEAFFE96E040EE926000EF6
:10534000EA2210C0EEFF11C0EDFFDECFE9FFDDCF96
:10535000EAFF020EEB6A030EEB6A020E0501651509
:105360002DE00501DF51E0110AE0DECF10F0DDCFC6
:1053700011F01050DF1902E11150E0191FE1210E68
:10538000E66EDFEC08F0E552DECFE6FFDDCFE6FFAC
:1053900040EC19F0E552E552DECFE9FFDDCFEAFF40
:1053A000060EE926000EEA22EECFE6FFEFCFE6FF7B
:1053B00040EC19F0E552E552A7EC09F0200E05018A
:1053C00065154EE00501DF51E0110AE0DECF10F077
:1053D000DDCF11F01050DF1902E11150E01940E16A
:1053E000250EE66EDFEC08F0E55279EC28F004C0FB
:1053F00010F005C011F006C012F007C013F010C085
:10540000E6FF11C0E6FF12C0E6FF13C0E6FF45EC61
:105410001AF0E552E552E552E552DECFE6FFDDCF68
:10542000E6FF40EC19F0E552E552DECFE9FFDDCFB3
:10543000EAFFEF50E66EC1EC18F0E552DECFE9FF6F
:10544000DDCFEAFF060EE926000EEA22EECFE6FFE8
:10545000EFCFE6FF40EC19F0E552E552A7EC09F07A
:10546000020EDB50F212DECFE6FFDDCFE6FFDECF2D
:10547000E9FFDDCFEAFF060EE926000EEA22EECFB5
:10548000E6FFEFCFE6FFDEEC23F0E552E552E55212
:10549000E55205D0020EDB50F21202011A6BC00E6B
:1054A000F214E76E020EE7CFDBFF3F0EF216DECFFF
:1054B000E9FFDDCFEAFF040EE926000EEA22EECF77
:1054C000DEFFEDCFDDFFA0D6020EDB50F212F56E4F
:1054D000030EE15C02E2E16AE552E16EF550E5524D
:0654E000E7CFD9FF120026
:0A54E600D9CFE6FFE1CFD9FF030E96
:1054F000E126C00EF214E76E020EE7CFDBFF3F0E8F
:10550000F216FD0EDBCFE9FFFE0EDBCFEAFFEECF9A
:10551000DEFFEDCFDDFFD9CFE9FFDACFEAFFEE50B6
:10552000ED1050E0DECFE9FFDDCFEAFFEECF10F067
:10553000EFCF11F0FD0EDBCFE9FFFE0EDBCFEAFF70
:1055400010C0EEFF11C0EDFFFD0EDBCFE9FFFE0E38
:10555000DBCFEAFF080EE926000EEA22EF06FD0E79
:10556000DBCFE9FFFE0EDBCFEAFF090EE926000ED6
:10557000EA22EFCF10F0FD0EDBCFE9FFFE0EDBCF0E
:10558000EAFF080EE926000EEA22EF50D8801054F8
:1055900019E2FD0EDBCFE9FFFE0EDBCFEAFF080EBE
:1055A000E926000EEA22EF50E66EFD0EDBCFE9FFA2
:1055B000FE0EDBCFEAFF090EE926000EEA22E552D5
:1055C000E750EF6E010E0501641567E00501DB5140
:1055D000DC1114E0FD0EDBCFE9FFFE0EDBCFEAFFAE
:1055E000020EE926000EEA22EECF10F0EFCF11F006
:1055F0001050DB1902E11150DC194FE1180EE66E74
:10560000DFEC08F0E55279EC28F004C010F005C09A
:1056100011F006C012F007C013F010C0E6FF11C071
:10562000E6FF12C0E6FF13C0E6FF45EC1AF0E552B4
:10563000E552E552E552FD0EDBCFE9FFFE0EDBCF72
:10564000EAFF020EE926000EEA22EECFE6FFEFCFD8
:10565000E6FF40EC19F0E552E552FD0EDBCFE9FF25
:10566000FE0EDBCFEAFF080EE926000EEA22EF501D
:10567000E66EC1EC18F0E552FD0EDBCFE9FFFE0E41
:10568000DBCFEAFF090EE926000EEA22EF50E66EB4
:10569000C1EC18F0E552A7EC09F0020EDB50F21253
:1056A000DECF10F0DDCF11F010C0F3FF11C0F4FF1A
:1056B000F56E030EE15C03E200D0E16AE552E16EB3
:1056C000F550E552E7CFD9FF1200D9CFE6FFE1CF81
:1056D000D9FF050EE126010E106EFE0EDB50D880BC
:1056E000105409E3FE0EDBCF11F00501AC51D88058
:1056F000115401E30DD0450EE66EE66A150EE66E16
:10570000730EE66EFCEC27F0E552E552E552E552E9
:10571000C00EF214E76E040EE7CFDBFF3F0EF21669
:10572000FE0EDB040A0DF3CFE9FFF4CFEAFF8E0E85
:10573000E926050EEA22090EE926000EEA22EFCF3D
:1057400010F010C0DFFF010EDB6A020EDB6A030EF1
:10575000DB6A040EDB50F212DECF04F0DECF05F080
:10576000DECF06F0DDCF07F0DD52DD52F56E050E1F
:10577000E15C03E200D0E16AE552E16EF550E552EA
:06578000E7CFD9FF120083
:0A578600D10E106E720E116E10C0ED
:10579000F3FF11C0F4FF00D01200D9CFE6FFE1CF34
:1057A000D9FF020EE126FD0EDBCFE9FFFE0EDBCFB7
:1057B000EAFF0B0EE926000EEA22EFCFDFFF106AA8
:1057C000DF50105C10E2DF5008080DE3EA6ADF34B6
:1057D000FE0BEA36E96EC40EE926050EEA22EE500B
:1057E000ED1001E10DD0380EE66EE66ACA0EE66EE7
:1057F000720EE66EFCEC27F0E552E552E552E552FA
:10580000C00EF214E76E010EE7CFDBFF3F0EF2167B
:10581000EA6ADF34FE0BEA36E96EC40EE926050EAD
:10582000EA22FD0EDBCFEEFFFE0EDBCFEDFF040E16
:10583000050162153EE00501D951DA110CE0D9C528
:1058400010F0DAC511F0FD0EDB50101803E1FE0E6A
:10585000DB5011182EE10A0EE66EDFEC08F0E5527F
:1058600079EC28F004C010F005C011F006C012F069
:1058700007C013F010C0E6FF11C0E6FF12C0E6FF3C
:1058800013C0E6FF45EC1AF0E552E552E552E55249
:10589000FD0EDBCFE6FFFE0EDBCFE6FF40EC19F09E
:1058A000E552E552DFCFE6FFC1EC18F0E552A7EC78
:1058B00009F0010EDB50F212F56E020EE15C02E21D
:1058C000E16AE552E16EF550E552E7CFD9FF1200EB
:1058D000D9CFE6FFE1CFD9FF020EE126FD0EDBCFE7
:1058E000E9FFFE0EDBCFEAFF0B0EE926000EEA22EF
:1058F000EFCFDFFF106ADF50105C19E2DF500808BD
:1059000016E3EA6ADF34FE0BEA36E96EC40EE926D6
:10591000050EEA22EECF11F0EFCF12F0FD0EDB50B4
:10592000111803E1FE0EDB50121801E10DD04C0EF0
:10593000E66EE66ACA0EE66E720EE66EFCEC27F0C4
:10594000E552E552E552E552C00EF214E76E010E43
:10595000E7CFDBFF3F0EF216EA6ADF34FE0BEA36D2
:10596000E96EC40EE926050EEA22EE6AED6A080E1B
:10597000050162153EE00501D951DA110CE0D9C5E7
:1059800010F0DAC511F0FD0EDB50101803E1FE0E29
:10599000DB5011182EE10B0EE66EDFEC08F0E5523D
:1059A00079EC28F004C010F005C011F006C012F028
:1059B00007C013F010C0E6FF11C0E6FF12C0E6FFFB
:1059C00013C0E6FF45EC1AF0E552E552E552E55208
:1059D000FD0EDBCFE6FFFE0EDBCFE6FF40EC19F05D
:1059E000E552E552DFCFE6FFC1EC18F0E552A7EC37
:1059F00009F0010EDB50F212F56E020EE15C02E2DC
:105A0000E16AE552E16EF550E552E7CFD9FF1200A9
:105A1000D9CFE6FFE1CFD9FF050185C510F086C5D6
:105A200011F0852B000E8623050181511024E96EAB
:105A300082511120EA6E080EEF6E050183510501B7
:105A4000851904E1050184510501861902E1856B80
:105A5000866B0501892B000E8A23080E05018C2513
:105A60008C6FFD0EDBCFE9FFFE0EDBCFEAFFEF50C0
:105A70003AE0FD0EDBCFE9FFFE0EDBCFEAFFEF5091
:105A8000E66E050185C510F086C511F0852B000E68
:105A90008623050181511024E96E82511120EA6E9E
:105AA000E552E750EF6E050183510501851904E1C8
:105AB000050184510501861902E1856B866B05019C
