:020000040000FA
:060000007FEF0BF012007F
:020006001200E6
:0600080060EF08F0120099
:02000E000000F0
:050010000000010000EA
:0600180069EF08F0120080
:02001E000100DF
:0C0020000E0000008F0000000700000030
:04002C00D9CFE6FF43
:10003000E1CFD9FFE6526A6A686A9F0E6B6EFB0ECB
:10004000696E6D8C6D9C6E6A000EE66EE66AE66AFD
:10005000710EE66E0F0EE66E65EC0BF00B6E050E84
:10006000E15E0B50DF6ADF500B6E0C6A080E0B5C12
:10007000000E0C5810E2DF50040DF3CFE9FFF4CF6F
:10008000EAFF000EE926040EEA22EE6AEE6AEE6A44
:10009000EE6ADF2AE8D7160E706E68A60CD0030E43
:1000A000E66E680EE66E0F0EE66E44EC08F0E55262
:1000B000E552E552F2D70001736B786B796B7A6B7E
:1000C0006D98080E6B6F040E6C6F616B606BE55280
:1000D000E552E7CFD9FF1200D9CFE6FFE1CFD9FF34
:1000E000E652A19A0001605111E105D06D6A696A7A
:1000F0000001606BC9D06D6A696A6DB602D06D8609
:10010000FCD70001010E606F160E6F6E600508E1EE
:100110006DBA06D0686A696A69806988020E606F84
:100120006850040B0FE06950040B0CE0020EE66E01
:10013000680EE66E0F0EE66E44EC08F0E552E552EE
:10014000E552E6D86DB2A0D06850010B1BE06950B3
:10015000010B18E06BDF0001040E606F0401200E3C
:10016000026F040E036F080E016F006B8C0E0013FC
:10017000E66A680EE66E0F0EE66E44EC08F0E55295
:10018000E552E5526850100B0FE06950100B0CE07F
:10019000A3D8040EE66E680EE66E0F0EE66E44EC13
:1001A00008F0E552E552E5526850400B1DE06950F9
:1001B000400B1AE0010EE66EE66A000EE66EE66A95
:1001C000020EE66EE66AF2EC09F00B6E060EE15ED8
:1001D0000B50060EE66E680EE66E0F0EE66E44ECF1
:1001E00008F0E552E552E5526850200B04E06950F2
:1001F000200B01E04ED86850020B12E06950020B50
:100200000FE0010EE66EE66A000EE66EE66AE6684C
:10021000E668F2EC09F00B6E060EE15E0B506A6ABE
:10022000040E0001605D01E22FD069A62DD0DF6AC7
:10023000040EDF5C29E268A624D06CCF80F0030EA8
:10024000E66E680EE66E0F0EE66E44EC08F0E552C0
:10025000E552E552780E0001801502E178D810D001
:10026000000EE66EE66A800EE66E000EE66E010E89
:10027000E66EE66AF2EC09F00B6E060EE15E0B50DC
:1002800001D002D0DF2AD4D7E552E552E7CFD9FF1B
:10029000120070A015D063C0E9FF64C0EAFFEF5000
:1002A00080080DE16BC0E9FF6CC0EAFFEF508408E5
:1002B00006E163C0E9FF64C0EAFF8C0EEF6E709048
:1002C000050EE66E680EE66E0F0EE66E44EC08F064
:1002D000E552E552E55212006984040EE66E680E9E
:1002E000E66E0F0EE66E44EC08F0E552E552E5527C
:1002F0006D82000EE66EE66AE66EE66A040EE66E53
:10030000E66AF2EC09F00B6E060EE15E0B5012008D
:100310006D92000EE66EE66AE66EE66A030EE66E23
:10032000E66AF2EC09F00B6E060EE15E0B50699482
:1003300068A40CD0020EE66E680EE66E0F0EE66E36
:1003400044EC08F0E552E552E552F2D71200FD0EFA
:100350000001801520E17E0E8015E8407F0B040D22
:10036000F3CF63F0F4CF64F0000E6327040E642330
:1003700063C065F064C066F0657563C0E9FF64C082
:10038000EAFFEF503C0BE842E8420D0802E109D8D1
:1003900001D02AD805D0FD0E8015040801E12DD822
:1003A00012006BC0E9FF6CC0EAFFEF50800B05E064
:1003B0006BC0E9FF6CC0EAFFEF6A00016F6B706B06
:1003C000746B756B736B04D9000EE66EE66AE66EAD
:1003D000E66A170EE66EE66AF2EC09F00B6E060EA0
:1003E000E15E0B5094EF04F0020E0001705D03E13A
:1003F000F1EC05F001D04ED81200D9CFE6FFE1CFE5
:10040000D9FFE6526BC0E9FF6CC0EAFFEF50400B2A
:1004100001E0010EDF6E00016B75080E605D0AE100
:1004200022C46EFF6E50000803E2100E606F02D00F
:10043000040E606F700528E16BC0E9FF6CC0EAFF35
:10044000020EE926000EEA22280EEE6E040EED6E74
:100450003DDB020E00016F5D07E16BC0E9FF6CC080
:10046000EAFF840EEF6E0FD0DF5007E16BC0E9FFAB
:100470006CC0EAFFC80EEF6E06D06BC0E9FF6CC01F
:10048000EAFF880EEF6E01D005D8E552E552E7CFBE
:10049000D9FF1200D9CFE6FFE1CFD9FF030EE12645
:1004A000020E0001705D4AE16D50100B47E063C021
:1004B000E9FF64C0EAFFEE52EF500B6E0C6A080EC3
:1004C0000B1801E10C503AE163C0E9FF64C0EAFF98
:1004D000EF503C0BE842E8420D0830E165C0E9FF0F
:1004E00066C0EAFFEF50800B29E165C0E9FF66C0F6
:1004F000EAFF020EE926000EEA22200EEE6E040E3E
:10050000ED6EDF6ADF500B6E0C6A080E0B5C000E9E
:100510000C5813E2DF50EA6A280FE96E040EEA2253
:10052000EF50E66EDF50EA6A200FE96E040EEA2211
:10053000E552E750EF6EDF2AE5D731D0706B65C02A
:10054000E9FF66C0EAFFEE52080EEF6E65C0E9FFF4
:1005500066C0EAFF020EE926000EEA22200EEE6EC9
:10056000040EED6E65C0E9FF66C0EAFF8C0EEF6E0B
:100570006BC0E9FF6CC0EAFFEF6A040E6B190B6EEB
:100580006CC00CF0010E0BC0DBFF020E0CC0DBFFD9
:10059000010EDBCFE9FF020EDBCFEAFFEF6A0001BD
:1005A00078AF0CD07B517C1107E005D07CC0FAFFFE
:1005B00000017B51F96EFADF0001789F030EE15CC8
:1005C00002E2E16AE552E16EE552E7CFD9FF12009F
:1005D00004012051600BE842E842E842E842E84268
:1005E000000901E058D021510C0A54E00B0A43E005
:1005F0000C0A35E0010A26E00B0A22E0020A20E09C
:10060000030A1CE0080A10E0010A0CE00F0A08E0E7
:10061000030A01E03FD00001738F080E606F3BD0EA
:10062000C8D839D06FDB37D00001610E716F000E72
:10063000726F7381010E746F738F2DD014D92BD00C
:100640002BD829D024510001716F726B620E712773
:10065000000E72237381010E746F738F1CD0000122
:10066000738F04012451EA6A620FE96E000EEA22D8
:1006700022C4EFFF10D0000EE66EE66AE66EE66A70
:10068000160EE66EE66AF2EC09F00B6E060EE15EFF
:100690000B5001D000D01200D9CFE6FFE1CFD9FF37
:1006A000040EE1260401220510E120511F0B000970
:1006B0000CE10001738F030E0401215D04E10001D0
:1006C000010E7F6F02D000017F6B0401225167E1B0
:1006D00020511F0B020863E124510F0B00095FE05A
:1006E0000001738F040124BF10D024510F0BE96E59
:1006F000EA6AD890E936EA36670EE926000EEA2261
:10070000EECFDEFFEDCFDDFF0FD024510F0BE96EF2
:10071000EA6AD890E936EA366B0EE926000EEA223C
:10072000EECFDEFFEDCFDDFF030E215D07E1DECF73
:10073000E9FFDDCFEAFF840EEF6E31D024510F0BBD
:100740000C6A700F0B6E0F0E0C22020E0BC0DBFF3B
:10075000030E0CC0DBFF020EDBCFE9FF030EDBCF85
:10076000EAFFEE90ED5224AF0DD0DECFE9FFDDCFF2
:10077000EAFFEF6ADF74DECFE9FFDDCFEAFF400E6C
:10078000EF6E0DD0DECFE9FFDDCFEAFF880EEF6E12
:10079000DF74DECFE9FFDDCFEAFFC80EEF6E040E97
:1007A000E15C02E2E16AE552E16EE552E7CFD9FF92
:1007B0001200800E0401205D55E10001C00E736F30
:1007C00004012351030A2EE0010A0EE0030A03E0AC
:1007D0000001736B47D00001660E716F150E726FCA
:1007E000120E746F756B3ED02251F66EF76AD89078
:1007F000F636F736240EF626160EF7220900F5CF48
:1008000071F00A00F5CF72F0020E0001F76A71254F
:10081000F66E7251F7220900F5CF74F00A00F5CF99
:1008200075F020D0030E225D1AE22251F66EF76AAF
:10083000D890F636F736260EF626160EF722090061
:10084000F5CF71F00A00F5CF72F071C0F6FF72C0FB
:10085000F7FF0800F5500001746F756B02D00001BE
:10086000736B00D01200D9CFE6FFE1CFD9FF020EA3
:10087000E1260401286B296B20511F0B020A12E0AC
:10088000030A0DE0010A01E03BD00001738F04016F
:10089000288100017F0502E10401288331D0000195
:1008A000738F2ED00001738F040124BF10D0245108
:1008B0000F0BE96EEA6AD890E936EA36670EE92648
:1008C000000EEA22EECFDEFFEDCFDDFF0FD0245188
:1008D0000F0BE96EEA6AD890E936EA366B0EE92624
:1008E000000EEA22EECFDEFFEDCFDDFFDECFE9FF27
:1008F000DDCFEAFFEF50040B02E0010E286F00D0BD
:10090000000173AF07D0280E716F040E726F7381F0
:10091000020E746F020EE15C02E2E16AE552E16EE2
:10092000E552E7CFD9FF12006D98000173BF4AD09E
:1009300078AF28D0020E706F6BC0E9FF6CC0EAFF81
:10094000EE52EF6A6BC0E9FF6CC0EAFFC80EEF6EB3
:1009500065C0E9FF66C0EAFFEE52080EEF6E65C0A3
:10096000E9FF66C0EAFF020EE926000EEA22280E21
:10097000EE6E040EED6E65C0E9FF66C0EAFFC80EBC
:10098000EF6E1FD065C0E9FF66C0EAFFEE52080EA9
:10099000EF6E65C0E9FF66C0EAFF020EE926000EB1
:1009A000EA22200EEE6E040EED6E65C0E9FF66C011
:1009B000EAFF8C0EEF6E6BC0E9FF6CC0EAFF840E9D
:1009C000EF6E83D078BF81D0040120AF56D00001F4
:1009D00074510401265D000175510401275904E298
:1009E00026C474F027C475F071D80001010E706F31
:1009F00065C0E9FF66C0EAFFEE52080EEF6E65C003
:100A0000E9FF66C0EAFF020EE926000EEA22200E88
:100A1000EE6E040EED6E65C0E9FF66C0EAFF800E63
:100A2000EF6E63C0E9FF64C0EAFFEE52080EEF6E9E
:100A300063C0E9FF64C0EAFF020EE926000EEA2265
:100A4000200EEE6E040EED6E63C0E9FF64C0EAFF97
:100A5000800EEF6E6BC0E9FF6CC0EAFF020EE92664
:100A6000000EEA22280EEE6E040EED6E6BC0E9FF5A
:100A70006CC0EAFFC80EEF6E28D00001020E706F46
:100A80006BC0E9FF6CC0EAFFEE52EF6A6BC0E9FF92
:100A90006CC0EAFFC80EEF6E65C0E9FF66C0EAFFF2
:100AA000EE52080EEF6E65C0E9FF66C0EAFF020E67
:100AB000E926000EEA22280EEE6E040EED6E65C0E9
:100AC000E9FF66C0EAFFC80EEF6E1200D9CFE6FF5D
:100AD000E1CFD9FF020EE1260001080E745D000E81
:100AE00075590EE274C0DEFF75C0DDFF6F5103E182
:100AF000010E6F6F04D06F0502E1020E6F6F03D01D
:100B0000080EDE6EDD6A6BC0E9FF6CC0EAFFEF9293
:100B10006BC0E9FF6CC0EAFFEF906BC0E9FF6CC0EF
:100B2000EAFF010EDB50EF126BC0E9FF6CC0EAFF79
:100B3000EE52DFCFEFFF000EDB50745F010EDB5093
:100B4000755B280E7D6F040E7E6F73B121D0D9CFF7
:100B5000E9FFDACFEAFFEE50ED1019E071C0F6FFC1
:100B600072C0F7FF712B000E72230800F550E66E7D
:100B70007DC0E9FF7EC0EAFF7D2B000E7E23E5529B
:100B8000E750EF6EDF06010E01E2DB06E0D71FD073
:100B9000D9CFE9FFDACFEAFFEE50ED1018E071C0CF
:100BA000E9FF72C0EAFF712B000E7223EF50E66E70
:100BB0007DC0E9FF7EC0EAFF7D2B000E7E23E5525B
:100BC000E750EF6EDF06010E01E2DB06E1D7020E11
:100BD000E15C02E2E16AE552E16EE552E7CFD9FF5E
:100BE0001200D9CFE6FFE1CFD9FF020EE12663C0A4
:100BF000E9FF64C0EAFFEE52EFCFDFFFDFCF0BF07B
:100C00000B500001795D000E7A5903E279C0DFFFD5
:100C100009D0DF500B6E0C6A0B50795D796F0C5068
:100C20007A597A6F010EDB6ADF50F36E010EDBCF6B
:100C3000F4FFF350F45C16E2010EDB50EA6A280F71
:100C4000E96E040EEA22EF50E66E76C0E9FF77C047
:100C5000EAFF762B000E7723E552E750EF6E010E88
:100C6000DB2AE2D7000ED8807955000E7A5528E2AB
:100C700065C0E9FF66C0EAFFEE52080EEF6E65C080
:100C8000E9FF66C0EAFF020EE926000EEA22280EFE
:100C9000EE6E040EED6E63C0E9FF64C0EAFFEF5034
:100CA000400B07E165C0E9FF66C0EAFFC80EEF6EC2
:100CB00006D065C0E9FF66C0EAFF880EEF6E18D067
:100CC00065C0E9FF66C0EAFF020EE926000EEA22CF
:100CD000200EEE6E040EED6E7B517C1107E005D008
:100CE0007CC0FAFF00017B51F96EFADF0001789FAA
:100CF000020EE15C02E2E16AE552E16EE552E7CF05
:100D0000D9FF12000001738F000EE66EE66AE66AF4
:100D1000710EE66E0F0EE66E65EC0BF00B6E050EB7
:100D2000E15E0B50010EE66EE66AE66A620EE66E62
:100D3000000EE66E65EC0BF00B6E050EE15E0B50DF
:100D400022C461F00401225104E10001100E606F21
:100D500011D00001200E606F000EE66EE66AE66EAE
:100D6000E66A150EE66EE66AF2EC09F00B6E060E08
:100D7000E15E0B501200D9CFE6FFE1CFD9FF020EA2
:100D8000E126000EDE6E040EDD6EFD0EDB50E82463
:100D90000D6EFE0EDB50040DF3500D24040DF350C8
:100DA0000B6E0C6A020E0F0B05E0D8900C320B3262
:100DB000E806FBE1D8900B360C36D8900B360C3693
:100DC000D9CFE9FFDACFEAFF0B50EE260C50ED2227
:100DD000DECFE9FFDDCFEAFFEF9EFD0EDB500FE136
:100DE000FE0EEA6ADB34FE0BEA36E96E670EE92690
:100DF000000EEA22DECFEEFFDDCFEDFF0ED0FE0EBD
:100E0000EA6ADB34FE0BEA36E96E6B0EE926000E69
:100E1000EA22DECFEEFFDDCFEDFFDECFE9FFDDCF53
:100E2000EAFFEF9CDECFE9FFDDCFEAFF040EE92603
:100E3000000EEA22EF8C020EE15C02E2E16AE5526A
:100E4000E16EE552E7CFD9FF1200D9CFE6FFE1CF3F
:100E5000D9FF020EE126FE0EDB500C6A700F0B6EFE
:100E60000F0E0C220BC0DEFF0CC0DDFFDECFE9FF52
:100E7000DDCFEAFFFD0EDBCFEFFFDBA407D0E66A94
:100E8000FE0EDBCFE6FF77DFE552E552FD0EDBA27B
:100E900008D0010EE66EFE0EDBCFE6FF6CDFE552FA
:100EA000E552020EE15C02E2E16AE552E16EE552D2
:100EB000E7CFD9FF1200D9CFE6FFE1CFD9FF020E6D
:100EC000E126FE0EDB5020E165C0E9FF66C0EAFFC7
:100ED000EE52080EEF6E65C0E9FF66C0EAFF020E33
:100EE000E926000EEA22200EEE6E040EED6E65C0BD
:100EF000E9FF66C0EAFF8C0EEF6E6BC0E9FF6CC0C5
:100F0000EAFF840EEF6E3DD0FD0EDB50E8240D6E3F
:100F1000FE0EDB50040DF3500D24040DF3CF0BF047
:100F2000F4CF0CF0000E0B26040E0C220BC0DEFFDB
:100F30000CC0DDFF840E0B6EDECFE9FFDDCFEAFFD4
:100F40000B50EF12FD0EDB50E8240D6EFE0EDB5051
:100F5000040DF3500D24010F040DF3CF0BF0F4CF6B
:100F60000CF0000E0B26040E0C220BC0DEFF0CC092
:100F7000DDFF840E0B6EDECFE9FFDDCFEAFF0B5005
:100F8000EF12020EE15C02E2E16AE552E16EE55227
:100F9000E7CFD9FF1200D9CFE6FFE1CFD9FF020E8C
:100FA000E126FD0EDB500FE0FE0EEA6ADB34FE0B9D
:100FB000EA36E96E6B0EE926000EEA22EECFDEFF7E
:100FC000EDCFDDFF0ED0FE0EEA6ADB34FE0BEA3613
:100FD000E96E670EE926000EEA22EECFDEFFEDCFC6
:100FE000DDFFDECFE9FFDDCFEAFF020EE926000ECE
:100FF000EA22FB0EDBCFEEFFFC0EDBCFEDFFDECFF8
:10100000E9FFDDCFEAFFEE52FA0EDBCFEFFF400E35
:101010000B6EDECFE9FFDDCFEAFF0B50EF16880E37
:101020000B6EDECFE9FFDDCFEAFF0B50EF12FD0EB6
:10103000DB500CE0FE0EEA6ADB34FE0BEA36E96EAA
:101040006B0EE926000EEA22EF740BD0FE0EEA6A60
:10105000DB34FE0BEA36E96E670EE926000EEA2263
:10106000EF74DECF0BF0DDCF0CF00BC0F3FF0CC044
:10107000F4FF020EE15C03E200D0E16AE552E16EAA
:10108000E552E7CFD9FF1200D9CFE6FFE1CFD9FF74
:10109000010EF36EFC0EDB5004E0D890F336E80648
:1010A000FCE1F350E81C0B6EFD0EDBCFE9FFFE0EFA
:1010B000DBCFEAFF0B50EF16E552E7CFD9FF120066
:1010C000DACFE4FFE2CFDAFFE652E552E5CFDAFF0E
:1010D0001100D8CFE4FFE0CFE4FFE46EDACFE4FF05
:1010E000E2CFDAFFE652E552E5CFDAFFE550E5CF91
:1010F000E0FFE5CFD8FF100005D86CEC00F014D865
:10110000FCD712000F0EC11202D816EF00F0F00E3D
:101110008C1695169388938A00018F6B906B916B58
:10112000926B010E936F1200D9CFE6FFE1CFD9FF8A
:10113000020EE1260001935101E0DDD8200E0001EE
:10114000605D03E36D50020B01E0A4D000018F51FC
:10115000901102E1000E08D08FC0E9FF90C0EAFFB5
:10116000EF50800B01E0010E000901E093D0050172
:101170000051370A45E0B60A17E0010A01E077D0CE
:101180000001936B8C50010B0B6E8C50020B01E035
:10119000010E0B5C03E18C708C7205D08CA002D028
:1011A0008C8201D08C9263D0810E406F81A803D0D5
:1011B000010E416F01D0416B00019151921102E18A
:1011C000000E08D091C0E9FF92C0EAFFEF50800BFB
:1011D00001E0010E000913E1400EE66E400EE66EDE
:1011E000050EE66E010EE66EE66ECBEC07F00B6EBA
:1011F000050EE15E0B50F3CF91F0F4CF92F037D0B3
:1012000000019151921102E1000E08D091C0E9FF56
:1012100092C0EAFFEF50800B01E0010E000926E1C9
:101220009280010EC26E3C0EC06EC08E3DD8F3CFD0
:10123000DEFFF4CFDDFF0501370E406FDFCF41F554
:10124000010EDBCF42F5400EE66E400EE66E050E57
:10125000E66E010EE66EE66ECBEC07F00B6E050E49
:10126000E15E0B50F3CF91F0F4CF92F000D0400E3E
:10127000E66E000EE66E050EE66EE66A010EE66E9E
:10128000CBEC07F00B6E050EE15E0B50F3CF8FF049
:10129000F4CF90F0020EE15C02E2E16AE552E16E09
:1012A000E552E7CFD9FF1200D9CFE6FFE1CFD9FF52
:1012B000020EE1269280010EC26E3C0EC06EC08E00
:1012C000C282C2B2FED7C350DF6E010EC4CFDBFFB5
:1012D000DECF0BF0DDCF0CF00BC0F3FF0CC0F4FF42
:1012E000020EE15C03E200D0E16AE552E16EE552F4
:1012F000E7CFD9FF120000019451951104E1100EBF
:10130000946F270E956F9407000E955B6DA20AD01F
:101310009451951106E18C708CA002D08C8201D082
:101320008C922ED00001605103E18C908C9228D0D9
:10133000600503E18C808C8223D0020E605D03E1A6
:101340008C808C921DD0040E605D03E18C908C82A9
:1013500017D0100E605D07E100019451951102E174
:101360008C708C920DD0200E605D0AE100019451CA
:10137000951106E18C708CA002D08C9201D08C82E9
:10138000120012001200120012003DEF0AF01200CB
:101390001E0EE66E010EE66E25EC07F0E552E552F4
:1013A000400EE66E000EE66E050EE66EE66A010E73
:1013B000E66ECBEC07F00B6E050EE15E0B50F3CF43
:1013C0008FF0F4CF90F012006D840001080E996F39
:1013D000070E9A6F9907000E9A5B99519A11FAE1DC
:1013E0006D941200D9CFE6FFE1CFD9FFFD0EDBCF20
:1013F00006F0FE0EDBCF07F0010E061801E10750E4
:1014000033E0E868061802E1E86807182BE0030EED
:10141000061801E1075024E0040E061801E1075008
:101420001DE0020E061801E1075016E0170E06181F
:1014300001E107500FE0160E061801E1075008E021
:10144000150E061801E1075001E010D0A1DF0FD002
:101450009EDF0DD09ADF0BD096DF09D092DF07D048
:1014600091DF05D091DF03D0000001D000D0010E44
:0A14700000D0E552E7CFD9FF1200CB
:06147A00040120511F0BCC
:10148000010801E06DD0245101E06AD0060E215D13
:1014900028E12351230A21E0010A11E0030A01E0B7
:1014A00020D0000161050AE100018A0E716F150E5E
:1014B000726F090E746F756BC00E736F12D00001DE
:1014C00061050AE10001070E716F160E726F1D0EA5
:1014D000746F756BC00E736F04D00001800E736F54
:1014E00000D004012051600BE842E842E842E842A3
:1014F000E842010801E034D021510B0A2BE0080A30
:101500001EE0090A16E0080A09E00B0A05E0080ACD
:1015100001E026D026D824D025D822D00001960E6E
:10152000716F000E726F010E746F756BC10E736F69
:1015300017D00001800E736F23C496F011D0000104
:10154000970E716F000E726F010E746F756B810EC6
:10155000736F06D00001800E736F22C497F000D025
:061560001200120012004F
:0A1566001201100100000008D80473
:101570003F0002000102000109022900010100C030
:1015800032090400000203000000092100010001EB
:10159000221D0007058103400001070501034000EB
:1015A000010403090434034D006900630072006FF5
:1015B000006300680069007000200054006500634B
:1015C0000068006E006F006C006F006700790020FB
:1015D0000049006E0063002E002E03530069006D69
:1015E0000070006C006500200048004900440020A5
:1015F0000044006500760069006300650020004437
:101600000065006D006F000600FF0901A1011901CE
:101610002940150026FF007508954081021901290F
:0C162000409102C07815A115A515D91540
:04162C001E0EF66E2A
:10163000000EF76E000EF86E00010900F5508A6F7B
:101640000900F5508B6F03E18A6701D03DD0090096
:10165000F550856F0900F550866F0900F550876FCA
:1016600009000900F550E96E0900F550EA6E09001D
:1016700009000900F550886F0900F550896F0900CD
:101680000900F6CF8CF0F7CF8DF0F8CF8EF085C043
:10169000F6FF86C0F7FF87C0F8FF0001885302E11C
:1016A000895307E00900F550EE6E8807F8E28907D4
:1016B000F9D78CC0F6FF8DC0F7FF8EC0F8FF000190
:0A16C0008A07000E8B5BBFD71200F3
:0616CA00FE0EE3CFE9FF74
:1016D000FF0EE3CFEAFFE9CFF3FFEACFF4FFFB0E03
:1016E000E35003E1FC0EE35009E0FB0EE30602E2E7
:0E16F000FC0EE306FD0EE350EE6EF1D7120085
:0216FE0013EEE9
:1017000000F023EE00F0F86A0A9C16EC0BF003ECF4
:0A17100000F07CEC08F0FBD712009B
:06171A0000EE00F00F0ECE
:08172000EE6AEA62FDD7120037
:020000040030CA
:0100000024DB
:010001000EF0
:010002003FBE
:010003001EDE
:010005008179
:010006008178
:010008000FE8
:01000900C036
:01000A000FE6
:01000B00E014
:01000C000FE4
:01000D0040B2
:00000001FF
