:10000000680B0020E5180000C9180000000000007F
:10001000C9180000C9180000C9180000C91800005C
:10002000C9180000C9180000C9180000392B0000C9
:10003000C9180000C9180000052B00006915000050
:10004000B1150000C9180000C9180000C918000047
:10005000C9180000C9180000C9180000C91800001C
:10006000C9180000C9180000C9180000C91800000C
:10007000C9180000C9180000C9180000C9180000FC
:10008000C9180000C9170000C9180000C9180000ED
:10009000C9180000C9180000C9180000C9180000DC
:1000A000C9180000C9180000C9180000C9180000CC
:1000B000C9180000C9180000C9180000C9180000BC
:1000C000C9180000C9180000C9180000C9180000AC
:1000D000C9180000C9180000C9180000C91800009C
:1000E000C9180000C9180000C9180000C91800008C
:1000F0000B88032B02D0052B06D101E0044B00E056
:10010000044B036002207047034B036003207047D9
:1001100055030000B104000035010000034B044802
:100120001A6850431860000A704700BF040000209E
:10013000CD0D010038B50B880446062B0D4612D0B4
:10014000162B14D10B79042B03D8103350F823301D
:100150001BB90948A92101F035FB2B790020103388
:1001600044F8230038BD054B0360022038BD044B22
:100170000360032038BD00BF3C2B00006502000077
:10018000C125000038B50446FFF7C8FFC0B22F28CC
:1001900006D894F87F305BB1013B84F87F3007E0EC
:1001A000D02805D994F8803013B1013B84F8803011
:1001B000FFF7B4FFC0B22F2817D894F87F3094F817
:1001C0008020C3F11001891A94F88120914227DD23
:1001D00094F87D205A2A04D994F87E105A1C914232
:1001E0001EDD013384F87F301AE0D02818D994F846
:1001F0007F1094F88030C1F1100194F88120C91A61
:1002000091420DDD94F87D205A2A06D994F87E108B
:10021000C3F110020131914202DA013384F88030D7
:100220000F4DBF22691D281D02F06AFB94F8801053
:1002300094F87F304FF0FF32C1F1100112FA01F152
:1002400012FA03F361EA030385F8633005F1C40091
:100250001B0A291DC13285F8C33002F0B7F938BD39
:100260000400002008B50B88012B0DD10021C0220D
:10027000074802F09FFB06486021102201F03CFA7B
:1002800001F0E2FC002008BD024B0360032008BD22
:10029000C8000020C125000038B50B880446013B8A
:1002A0000A2B3CD8DFE803F0061B3B3B3B3B3B3BC8
:1002B0003B2737000F234385214618300F220025A6
:1002C00002F020F804F12C0021469622E58702F086
:1002D00019F884F87C5015200021134A18E01830D2
:1002E00002F030F804F12C0002F02CF8002001F0AC
:1002F00016FA002038BD90F87C300B4A0B4C83F086
:100300000103002180F87C308B4218BF2246152063
:1003100001F0FBF9EDE7064B0360022038BD054B09
:100320000360032038BD00BFC6310000D03100009B
:10033000B10400003501000070B50E46044600F11E
:100340001405206C10B1314602F05EF80434AC4262
:10035000F7D170BD0B8810B5022B04460ED00B2BC5
:1003600013D0012B15D101F0DDF90023E38704F14F
:100370002C0021465A2201F0C5FF04E02C3001F088
:10038000E1FF01F0CDF9002010BD044B0360022015
:1003900010BD034B0360032010BD00BF210400000B
:1003A000F10000000928F8B504460D46164604D9A8
:1003B000194840F2CB2101F005FA174800EBC403BD
:1003C0001A7CC5F160039A42C8BFDAB2134B5D19BB
:1003D00000231CE0002E4FEAC40106DB4118C96867
:1003E000CF5CF1B217FA01F106E04118C968CF5CA1
:1003F0007142C9B257FA01F12F7801330F4305F862
:10040000017B95F85FC04CEA112185F85F10D9B2E5
:100410009142DFD3F8BD00BF3C2B0000C800002094
:1004200038B50B880446022B24D00B2B31D0012B7E
:1004300033D1FFF773FE00210546C022194802F0B0
:10044000B9FA2923B5FBF3F103FB1151002005F0A4
:100450000702C9B2FFF7A6FF60211022114801F080
:100460004BF90023E38704F12C0021460A2201F016
:1004700049FF0CE02C3001F065FF0021C022094843
:1004800002F098FA07486021102201F035F90020A7
:1004900038BD054B0360022038BD044B03600320C8
:1004A00038BD00BFC800002055030000F100000067
:1004B00038B50B880446013B0A2B52D8DFE803F01D
:1004C000062B513D4D51515151333B0000250D2319
:1004D00080F8813080F87D5080F87E5080F87F5021
:1004E00080F880502946C022204802F063FA0F238A
:1004F000638504F1180021460F2201F003FF04F187
:100500002C00E58721464FF4167201F0FBFE84F8BB
:100510007C50284638BD183001F014FF04F12C003F
:1005200001F010FF05E090F87C3083F0010380F8C3
:100530007C30002038BD0E4B10E0FFF723FE94F80E
:100540007C3023B1002014210422FFF72BFF09483F
:100550006021102201F0D0F8EBE7074B0360022086
:1005600038BD064B0360032038BD00BF08000020E3
:10057000F1000000C80000208105000035010000E6
:100580002DE9F0430B8885B0013B04460D46172B3F
:1005900000F21881DFE813F01800260016012E0083
:1005A00016011601D80016011601160116011601D2
:1005B0001601160181008100C40016011601C40055
:1005C000160116011601CB000D2380F881300021A1
:1005D000C0227F4802F0EEF97E4B7F49186801F097
:1005E000E9FB05E004A9172221F8082DFFF7A4FE76
:1005F0000020EAE060211022784801F07DF82046D2
:10060000FFF7C0FDFFF78AFD94F87D3013B1013B81
:1006100084F87D3094F87D30552B7EDC00F0FF00AF
:1006200007287AD8234600261A6C22B101360433F3
:10063000052EF9D171E0FFF771FD94F8801010F0EC
:10064000010F0CBF04EB860206F11A0287B294F880
:100650007F000CBF526D54F82220C1F10C0106F14D
:100660001003091A44F82320831CB7FBF1F001FBA7
:10067000107160225B1810361521ADF8001084F857
:100680007D2084F87E3054F8260069468DF80420D9
:100690008DF8053001F0B8FE3FE0AE7995F80580A1
:1006A000092E2F795FFA88F904D94D4840F2E521E7
:1006B00001F088F84A4A02EBC603197CC7F16003CF
:1006C0009942C8BFD9B2474B9646FA18002311E0A9
:1006D0000EEBC600C06812F85FCCC05C00FA09F0EF
:1006E00010EA0C0F0AD1013292F800C001331CEA63
:1006F000102C03D1D8B28842EAD308E02B883A49BB
:100700000F2B0CBF334B394B186801F053FB3046AD
:1007100039464FFA88F2FFF745FE2046294665E73D
:10072000A879297995F90520FFF73CFE60E7A888AC
:1007300000F0F5FFAA884FF4FA63B2FBF3F3C3F1BC
:100740000D0384F8813053E7AD88284600F0E7FFB9
:100750000021C022214802F02DF9204860211022FA
:1007600000F0CAFF12200121214A00F0CEFF002331
:100770008DF80C300A33B5FBF3F203FB125592B23D
:10078000B2FBF3F103FB112289B230328DF80A205B
:10079000B1FBF3F203FB121130318DF80910B2FBFB
:1007A000F3F101FB132304AA303302F8083D36208D
:1007B000303501218DF80B5000F0A7FF0D4B0220C2
:1007C000236002E00C4B0360032005B0BDE8F0831A
:1007D00008000020382C0000982B0000C8000020E2
:1007E0003C2B0000670000209C2B0000342C0000F4
:1007F000DA310000990200003501000070B50446AE
:10080000054600F11406686D002101F0B3FDA86EE5
:100810000021043501F0AEFDB542F4D1094B40F2A0
:10082000D2421A602046042101F05CFB20460521DB
:1008300001F058FB2046062101F054FB024B022038
:10084000236070BD04000020B104000070B5134C9B
:10085000134B04F5CE700A21C4F8843101F03EFD3B
:1008600004F5D8700B2101F039FD04F5EA76002576
:10087000284600F05FF946F8040F284600F04AFACF
:100880000135EDB20023052D706146F8143CEFD11F
:1008900084F8013284F8023270BD00BF04000020E9
:1008A000FD0700002DE9F843092805460C461646C9
:1008B00098469DF820709DF8249001D8092B04D902
:1008C0002D4840F2033100F07DFFBC422A4B24D872
:1008D00003EBC802127CA218BA4247DD3C1BD71BAF
:1008E00003EBC502117CFFB2E4B28F4228BF0F4672
:1008F00000220EE003EBC501C968885C03EBC80168
:10090000C968B0408918095D013201FA09F108424D
:1009100029D1D1B2B942EDD328E003EBC502127C54
:10092000B918A14222DDE01B141B03EBC802117CA5
:100930003F19FFB2C0B28F4228BF0F4600220EE01F
:1009400003EBC801C9688C5C03EBC501C96804FAF4
:1009500009F48918095C0132B1400C4209D1D1B2C5
:10096000B942EDD302E00120BDE8F8830020BDE8E4
:10097000F8830120BDE8F8833C2B0000044B1A7873
:100980000AB901321A70034B03600220704700BF9E
:100990000C020020990900000B88152B07D10B7958
:1009A00003714B794371044B036002207047034B82
:1009B00003600320704700BF810A0000C1250000CA
:1009C0000B8810B5022B044602D0172B13D10EE072
:1009D0001621062001F01EFB094B0146E41A094BC3
:1009E000E4100471186801F0E5F9002010BD064B11
:1009F0000360022010BD054B0360032010BD00BF43
:100A000010020020A02B000099090000C125000061
:100A10000B8810B5012B044602D0042B25D102E02F
:100A20000020A07110BD0379DBB182790E2A18D89D
:100A30000132013B827103711421082001F0EAFAAE
:100A400023790146013303716379023B4371A37932
:100A50009B0806338371074B186801F0ABF900203F
:100A600010BD054B0220236010BD044B0360032022
:100A700010BD00BFA02B000099090000C1090000B3
:100A80000B8837B50F2B0446084618D0102B28D0FA
:100A9000042B3AD1237913B3013B23711121082090
:100AA00001F0B8FA23790146037163794371032396
:100AB0008371184B186801F07DF9002028E0057952
:100AC0008379009540792179019062790320FFF7BD
:100AD000E9FEE8B1104B1149186801F06BF9104BB1
:100AE00010E0057983790095407921790190627948
:100AF0000320FFF7D7FE58B10A4B0B49186801F0E5
:100B000059F90A4B2360022002E0094B03202360BD
:100B10003EBD00BFA02B0000382C00000C2C0000B4
:100B200099090000342C0000122C0000110A00006A
:100B3000C1090000042810B5044603D9054838212E
:100B400000F040FE0448E400044A031904305A60EF
:100B5000001910BD182C00000C0200207D090000B7
:100B6000044B1A780AB901321A70034B0360022051
:100B7000704700BF380200207D0B00000B88152B4A
:100B800007D10B7903714B794371044B0360022049
:100B90007047034B03600320704700BF650C0000E3
:100BA000C12500000B8810B5022B044602D0172B7C
:100BB00013D10EE01621062001F02CFA094B014654
:100BC000E41A094BE4100471186801F0F3F80020EE
:100BD00010BD064B0360022010BD054B03600320CF
:100BE00010BD00BF3C020020A02B00007D0B0000C8
:100BF000C12500000B8810B5012B044602D0042B40
:100C000025D102E00020A07110BD0379DBB182790B
:100C10000E2A18D80132013B827103711421082079
:100C200001F0F8F923790146013303716379023B3E
:100C30004371A3799B0806338371074B186801F051
:100C4000B9F8002010BD054B0220236010BD044BF5
:100C50000360032010BD00BFA02B00007D0B00002F
:100C6000A50B000037B50D8804460F2D084617D098
:100C7000102D27D0042D39D123790BB3013B2371DB
:100C80001121082001F0C6F9237901460371637927
:100C900085714371174B186801F08CF8002028E02B
:100CA0000579837900954079217901906279042052
:100CB000FFF7F8FDE8B1104B1049186801F07AF819
:100CC0000F4B10E0057983790095407921790190E7
:100CD00062790520FFF7E6FD58B10A4B0A4918680A
:100CE00001F068F8094B2360022002E0084B032062
:100CF00023603EBDA02B0000382C0000202C0000FB
:100D00007D0B0000342C0000262C0000F50B0000A9
:100D1000A50B0000042810B5044603D90548382166
:100D200000F050FD0448E400044A031904305A60FE
:100D3000001910BD2C2C000038020020610B0000AF
:100D400030B5054685B00C4600F0DCF800F0C2F97D
:100D5000FFF77CFD28461E4D214600F051FC00F0B7
:100D600071FF28462821042201F080F9082205F1AC
:100D70002800902101F07AF905F1B800082101F06E
:100D8000A3F9144B00241868012105F1F80202238D
:100D900000940194029400F069FF0F4B022118683F
:100DA00005F58072032300940194029400F05EFF25
:100DB0000A4B0321186805F586720A2300940194F2
:100DC000029400F053FF00F041FF204605B030BD13
:100DD00064020020342C0000382C0000A02B0000FE
:100DE0000B88122B07D10B7903764B794376044B92
:100DF000036002207047034B03600320704700BF6D
:100E0000210E0000C125000010B50421044601F0A8
:100E100069F8024B0220236010BD00BFE10D000005
:100E20000B8810B50D2B04461BD0132B1DD0042BA3
:100E300022D1037E5D2B12DC0233037610210820C1
:100E400001F0E8F8237E01460371637E43710223BB
:100E500083710B4B186800F0ADFF002010BD094BEB
:100E600000E0094B0360022010BD084B186800F039
:100E7000A1FF044B2360F6E7054B0360032010BD80
:100E8000A02B0000E10D0000950E0000382C0000A2
:100E9000C12500000B8810B5012B044602D0042B9D
:100EA00025D102E00020A07610BD037EDBB1827E5A
:100EB0000E2A18D80132013B8276037614210820CD
:100EC00001F0A8F8237E014603330371637E043BDF
:100ED0004371A37E9B0806338371074B186800F0AB
:100EE00069FF002010BD054B0220236010BD044B9C
:100EF0000360032010BD00BFA02B0000E10D000027
:100F0000C1250000014A024B1A607047090E00001B
:100F1000980300200B88032B02D0092B0AD103E091
:100F2000064B0360022070470B7903764B794376BA
:100F300000207047024B036003207047450F0000FC
:100F4000C12500000B880C2B03D1044B0360022049
:100F50007047034B03600320704700BF850F0000FC
:100F6000150F000010B50421044600F0BBFF204619
:100F7000052100F0B7FF024B0220236010BD00BF27
:100F8000150F00000B8870B5013B0446122B57D893
:100F9000DFE803F00A5656153D5656565656565635
:100FA0005252565656564D00002383831821062070
:100FB00001F030F8A48B01468480244B32E00F21ED
:100FC000082001F027F8237E01460371637E4371F8
:100FD000012383711D4B1E68304600F0EBFEA38B8E
:100FE0000A2201339BB2B3FBF2F502FB1535ADB219
:100FF000A383002D28D11821062001F00BF8A48B23
:1010000001468480304600F0D5FE284670BD12218E
:10101000062000F0FFFF237E01460371637E02334A
:1010200043710B4B186800F0C5FE002070BD8A8824
:10103000838BD3188383F8E7064B0360022070BDCF
:10104000054B0360032070BD002070BDA02B000085
:10105000342C00005D100000150F000038B50B881F
:101060000446012B02D0042B2AD102E00020A076F6
:1010700038BD837E144D0E2B14D801338376142192
:10108000082000F0C7FFA37E01469B08063383714A
:10109000237E0371637E013B4371286800F08AFE62
:1010A000002038BD0721062000F0B4FFA38B0146C5
:1010B0008380286800F07EFE044B0220236038BD48
:1010C000034B0360032038BDA02B0000450F000038
:1010D000150F0000034B044A1A600A221A76023ADE
:1010E0005A767047B4030020650F0000034B7A2244
:1010F0001A60773A98605A60704700BF000002405B
:101100000138FDD17047704738B50546054C636915
:10111000002BFBD0044B1868FFF7F2FF0123A560FA
:10112000636038BD00000240D403002070B506465D
:10113000094C6369002BFBD0084B1D682846FFF75C
:10114000DFFF0523A6606360034B5B69002BFBD0C8
:101150002846BDE87040D3E700000240D4030020D9
:1011600070B504460D460DE0084E7369002BFBD0A8
:10117000074B013D1868FFF7C3FF14F8013BB3604C
:1011800001237360002DEFD170BD00BF000002404D
:10119000D403002070B58020FFF7A8FF134B062171
:1011A0001C79134B5F25981F002C08BF1846FFF7CA
:1011B000D7FF0020FFF7A8FF013DFAD12846FFF72F
:1011C000B5FF8020FFF792FF0A4B0621981F002CE5
:1011D00008BF1846FFF7C4FF5F240020FFF794FF05
:1011E000013CFAD12046BDE870409FE7D4030020BF
:1011F000422C00004E2C000070B51646054680209B
:101200000C46FFF773FF002E14BFB120B020FFF78C
:101210007BFF8020FFF778FF234B5E79361906F0BD
:101220000F00FFF771FF36098020FFF76DFF06F012
:101230000F0040F01000FFF767FF4020FFF764FF4A
:101240002CE05A2C194A4FEA830112D8CB18A3F18B
:10125000A00005211018FFF783FF5A2C02D07378E5
:1012600001350BB9002016E00020FFF74DFF0634D2
:1012700014E0CB18A3F1A000C4F15F0410182146BC
:10128000A2F11806FFF76CFF2B78203B03EB8303DA
:10129000F6183419207EBDE8704047E72B782E46BB
:1012A000002BCED170BD00BFD4030020542C000011
:1012B0002DE9F84398461A4B04465F791546CF1935
:1012C0004FEA171909F00F09089E49F0100923E0A9
:1012D0008020FFF70BFF002D14BFB120B020FFF7D7
:1012E00013FF8020FFF710FF07F00F00FFF70CFF40
:1012F0008020FFF709FF4846FFF706FF4020FFF771
:1013000003FF204608F1FF314444FFF729FF14F89A
:10131000010CFFF70BFF0135013ED9D2BDE8F88380
:10132000D4030020524B2DE9F041D3F80421514C55
:1013300042F48052C3F80421D3F80821064642F053
:101340000202C3F808215D68C5F300352571002D40
:101350000CBF24220422627112D0D3F8082101208C
:1013600042F00802C3F80821FFF7CAFE424BD3F847
:10137000002442F08002C3F800248022C3F8002237
:101380003E4B3F49D3F8002422F00C02C3F800245E
:10139000D3F8202442F00C02C3F82024D3F800250F
:1013A00042F00C02C3F80025D3F8182522F00C02F5
:1013B000C3F81825D3F80C2542F00C02C3F80C250D
:1013C000D3F8102542F00C02C3F81025D3F81C25E1
:1013D00042F00C02C3F81C25D3F8282522F00C0299
:1013E000C3F82825274B1A6A42F010021A62264ACF
:1013F000002E0CBF0E46164614225643234A12688E
:10140000013A9219B2FBF6F6013EDE60DB68442237
:10141000013353432360002420E01D4EA6F14D0309
:10142000002D08BF3346771EA6F14E08185D002D2B
:101430000CBF3E464646FFF759FE315DA01C3018F2
:101440000239002D18BF4746FFF78AFE3B5D3F1962
:10145000F85CFFF76BFE335D0133E418002D0CBF21
:1014600071234D239C42D8D3BDE8F04192E600BFE2
:1014700000E00F40D4030020007000400050004006
:10148000A086010000000240801A0600EC03002044
:101490007D2E00002DE9F041002421E0154EA6F13B
:1014A0004D03002D08BF3346771EA6F14E08185D88
:1014B000002D0CBF3E464646FFF718FE315DA01CCE
:1014C00030180239002D14BF45463D46FFF748FE4F
:1014D0002B5D2D19E85CFFF729FE335D0133E4181D
:1014E000054B1D79002D0CBF71234D239C42D5D394
:1014F000BDE8F0817D2E0000D403002010B58020CF
:10150000FFF7F4FDAE20FFF7FFFD8020FFF7FCFDA5
:10151000AD20FFF7F9FD8020FFF7F6FD8A20BDE83A
:10152000104003E600BF70474209012300F01F008E
:1015300013FA00F0014B43F82200704700E100E08D
:1015400000284FEA411105DA054B00F00F00C318DF
:1015500019767047034BC31883F80013704700BF18
:10156000FCEC00E000E100E0684620F007018D4659
:1015700019B572B60B4C23780133237062B600F0B4
:10158000F7FD094800F0A6FD72B623784FF08052AF
:10159000013B2370054B1A6062B6BDE819408546D1
:1015A000704700BFF9030020EE2E000004ED00E0BC
:1015B000684620F007018D4631B572B60D4C237890
:1015C0000133237062B60C4B082104201D6800F023
:1015D00021FD0146284600F0EDFB72B623784FF05E
:1015E0008052013B2370054B1A6062B6BDE8314062
:1015F00085467047F9030020A02B000004ED00E0B1
:1016000010B500F0E5F9374BD3F8002142F48032F1
:10161000C3F80021D3F8042142F44032C3F8042176
:10162000D3F8082142F00502C3F80821FFF77AFF3A
:10163000FFF778FFFFF776FF2B4B02215A6922F460
:10164000704242F4A0425A611A6A22F470421A624D
:10165000D3F8A02022F06F0242F06002C3F8A0206D
:10166000D3F8A42022F00F0242F00602C3F8A4200F
:101670001A6842F008021A601C4BDA6822F0011264
:10168000DA6000221A605960194908687821B0FBB5
:10169000F1F19962D968012041F00201D960D9685D
:1016A00041F02001D960134BD3F8001441F0200120
:1016B000C3F80014D3F81C1541F02001C3F81C1521
:1016C000C3F88020D3F8002422F01002C3F80024CD
:1016D000D3F81C2542F01002C3F81C25BDE81040C9
:1016E000FFF720BE00E00F400080034000100340E1
:1016F000EC0300200060004007B50B46D208002133
:1017000000920A46FFF7D4FD0EBD10B50B46044605
:10171000214610461A46BDE81040FFF76DBD7047E0
:10172000FFF7B8BEFFF7EABE1B4B10B51A681E23C1
:10173000B2FBF3F3B3F1807F0DD2184C23F07F435B
:10174000013B63604FF0FF300721FFF7F9FE0023F4
:10175000A360073323604FF0FF300221FFF7F0FE54
:1017600011200121FFF7ECFE00200146FFF7E8FE03
:101770001120FFF7D9FE0020FFF7D6FE084B082204
:10178000DA609A6842F008029A60064BDA6842F022
:101790000112DA6010BD00BFEC03002010E000E091
:1017A0000080034000100340704772B6044B2022B3
:1017B000C3F88020203AC3F8802062B630BF70475B
:1017C0000060004072B6FEE7684620F007018D46D3
:1017D00079B572B6334E33780133337062B6324C1A
:1017E0000823E360D4F8AC3013F4807F03D02F4893
:1017F0006521FFF7E7FFD4F8A8302D4C04332268A9
:101800006FF00D059B1A02EBE3035D43236005F5C2
:1018100060556368AD0A9D420CD00921062000F096
:10182000F9FB0A230371234B01464571186800F048
:10183000C1FA6560204B227A1B6C032A24D8DFE8AA
:1018400002F002090F18E26893421DD0184B0122E2
:101850001A7219E0E168164A8B4208D0022304E0AC
:10186000E168134A8B4202D0032313720CE0002379
:10187000FBE7E268934205D00D4AD36013B90F48E5
:1018800000F028FC0023237272B633784FF08052A8
:10189000013B33700A4B1A6062B6BDE87940854659
:1018A000704700BFF903002000800340F22E0000C3
:1018B000DC030020382C000000600040F82E0000FF
:1018C00004ED00E07EE700BF684620F007018D468A
:1018D00001B540F207110248FFF7F4FFFEE700BF31
:1018E000E1310000684620F007018D4601B50F4A3E
:1018F0000F4B03E052F8041B43F8041B0D498B42C5
:10190000F8D30D4B02E0002243F8042B0B4A93421C
:10191000F9D300F0D1FFFFF713FA09484FF48171B2
:10192000FFF7D0FFBDE8014085467047F831000061
:101930000000002004000020040000208C0500208E
:10194000E1310000704700BFEFF30980704780F37A
:1019500009887047EFF30880704780F30888704764
:10196000EFF31280704780F311887047EFF3108017
:10197000704780F310887047EFF31380704780F34F
:101980001388704700BA704740BA7047C0BA7047B2
:1019900090FAA0F07047D0E84F0FC0B27047D0E87F
:1019A0005F0F80B2704750E8000F7047C1E8400FEA
:1019B0007047C1E8500F704741E800007047EFF3EF
:1019C0001480704780F314887047000000BF704790
:1019D000874B884A73B51A67874A1A66874A1A6618
:1019E000874A1A67002303E0FFF7F0FF019B0133EA
:1019F0000193019BB3F57A7FF6D37D4B814A1A663A
:101A00007F4A1A67002303E0FFF7E0FF019B0133E1
:101A10000193019BB3F57A7FF6D37B4A744B1A6628
:101A200001E0FFF7D3FF724B1A6D12F0400FF8D0B0
:101A3000764A1A66724A1A67002303E0FFF7C6FF68
:101A4000019B01330193019BB3F57A7FF6D3684B79
:101A5000196E1A6F1846002AB4BF02F0700301F025
:101A60003003202B3AD004D86BB1102B40F0BE804D
:101A700010E0602B5DD0702B58D0302B40F0B6803A
:101A800047F2305363E001F4F860614B800953F88A
:101A900020305CE0564B186810F0E04F4CD01C68CA
:101AA0005C4804EA0000B0F1805F45D01C685948EA
:101AB00004EA0000584CA04203D11B689BB2022BE1
:101AC0003CD04B48534B046804EA0303534CA342F5
:101AD00036D10368524C9BB2524822E00068444B16
:101AE00010F0E04F2ED01C684A4804EA0000B0F124
:101AF000805F27D01C68474804EA0000464CA0429B
:101B000003D11B689BB2022B1ED03948414B04689D
:101B100004EA0303414CA34218D10368424C4348F2
:101B20009BB2002B0CBF2346034610E04FF400434A
:101B30000DE04FF480030AE03D4B08E0384B06E02F
:101B4000384B04E03B4B02E0374B00E0374B002AB8
:101B500002DA12F4006F01E011F4006F27D1244D76
:101B6000686E2C6814F0E04F43F6E07400EA040459
:101B700006D02E68274D06EA0505B5F1805F06D12F
:101B80006409023400F01F056343023505E064096F
:101B9000634300F01F0501356D00B3FBF5F310F44E
:101BA000804F18BF5B0810F4004F18BF9B0811F45A
:101BB000800F19D0002A11DA12F0804F07D012F4EA
:101BC000006F04D102F0FE525B00920D02E002F0C1
:101BD000FC52D20D0132B3FBF2F305E001F0F061EB
:101BE000C90D0131B3FBF1F3134A13607CBD00BF93
:101BF00000E00F4010288007D13A8E07C22A8E04D9
:101C000010288000C20A8E04C20ACE04C202CE048A
:101C1000FC2E00000000FF70000001100000031007
:101C2000001BB7000024F400C0C62D0000093D00D1
:101C3000C0E1E40070383900EC0300200048704730
:101C4000582F000000F04CBFFFF7AEBD08B572B6CC
:101C5000054B00221A7000F037F862B6FFF764FDFA
:101C6000FFF7A3FDFCE700BF000000202DE9F047CF
:101C70009A464B1EDBB23E2B04460D469146DDF8DC
:101C80002080099F0A9E03D90D486021FFF79AFD25
:101C9000201D49465FFA8AF200F054F92575204666
:101CA00000F05EF9B8F1000F00D11FB104486A21BD
:101CB000FFF788FD20463146BDE8F04700F05ABBEB
:101CC0005F2F000000F064B92DE9F047254B1B7829
:101CD0001BB125483021FFF775FD244D2B785BB1F2
:101CE0002B78234AD35C013BDBB2E9184978525C7C
:101CF00002EBC30303F0FF031E4C227893422ED95C
:101D00001D4A117891468B4229D926785FFA86F8C8
:101D10001A4A237052F823A062B6504600F092F897
:101D200007463946504600F06FFB384600F04AF946
:101D300072B62B780D498BB10B780D4AD35C013B01
:101D4000DBB2C9184978525C02EBC30303F0FF030E
:101D5000434503D999F800209342D9D82670BDE8AD
:101D6000F08700BFF9030020622F0000F00300207D
:101D7000962F000000000020FA030020FC03002042
:101D8000024672B6034B18781978914238BF1A7020
:101D900062B67047FA03002008B572B6044B1A7891
:101DA000824202D91870FFF78FFF62B608BD00BFEC
:101DB000FA03002038B504460D4672B68B7813B18D
:101DC000CB780133CB706368BBB9227D1849194BBE
:101DD000885C194965600C181D7864788A5C45EA4E
:101DE00004041C701B18587840EA02025A70134B06
:101DF0001B78DBB9FFF768FF18E0E37B1BB91048DD
:101E00004921FFF7DFFCA368627B43F82250637B24
:101E10000BB9237B6373637B227C013B6373E37B9E
:101E2000013BDBB29A42E37388BF237462B638BDCC
:101E300030310000F0030020AE300000F903002034
:101E40006B2F000070B5044672B643681BB9164884
:101E50003021FFF7B7FCE37B227B606893420CD014
:101E6000A17BA56855F82150656001B9A273A27BDA
:101E70000133013AA273E37314E000236360257D0C
:101E80000A4B0B4C595D0B4B655D5A18567806EAA8
:101E90000505557052782AB961181D784A7805EA07
:101EA00002021A7062B670BD732F0000303100005C
:101EB000EF300000F00300203F2838B50446074DFE
:101EC00002D855F820301BB905485C21FFF77AFC91
:101ED00072B662B655F82430187C38BDFC03002079
:101EE000732F000070B5114B047D03290D461E5D54
:101EF0000BD90F4B1B888B4207D934B13F2C04D828
:101F00000C4B53F82430834203D00B483021FFF7A9
:101F100059FC72B6094B1B6803EBC505084BAA5D5B
:101F20001B5D42EA0303AB5562B670BD3031000061
:101F300080050020FC0300207B2F00007C05002092
:101F4000AE3000000023036041600272437283726E
:101F5000C27202737047000000487047822F000071
:101F600070B5047D0646631EDBB23E2B064D02D8DB
:101F700055F824301BB105484021FFF723FC72B609
:101F800045F8246062B670BDFC030020892F000074
:101F900038B5047D094D631EDBB23E2B03D855F8DE
:101FA0002430834203D006485421FFF70BFC72B65D
:101FB000002345F8243062B638BD00BFFC03002082
:101FC000892F000070B585780446002D1BD072B6AD
:101FD000C378012B03D9013BC37062B670BD013DCC
:101FE000EDB262B6084B1B78AB4203D807484621D6
:101FF000FFF7E8FB064B142000FB05302146BDE847
:10200000704000F04FB970BD00050020902F000017
:102010000405002070B504460E46002509E0104B6B
:1020200001351B78EDB2AB4203D80E483021FFF7E3
:10203000C9FB0D4B142000FB05308389A342EED36E
:1020400000F0C6F8044618B906483A21FFF7BAFB73
:10205000013500232680A570E370204670BD00BFC7
:10206000000500209630000004050020F8B5134C50
:10207000074623780E46052B154603D910482E2116
:10208000FFF7A0FB23785BB10C4A013B142101FB55
:1020900003231B8AAB4203D309481D31FFF792FB90
:1020A0002278084B142000FB023039462B4632467A
:1020B00000F0B8F8237801332370F8BD0005002044
:1020C0009D30000004050020014B18609980704786
:1020D0007C050020204B02881B882DE9F0479A429E
:1020E000044603D31D483121FFF76CFB72B6A37879
:1020F00013B1E3780133E37062B60825184B013D54
:1021000022881B68EDB203EBC2034FEAC5095E5D8E
:102110005FFA89F916E0134B134F13F80680134B3F
:1021200013F80830C8445FFA88F81E4057F8283082
:102130001BB90A485921FFF745FB57F828002146EB
:10214000FFF738FE002EE6D1002DD7D12046BDE89E
:10215000F047FFF737BF00BF80050020A530000023
:102160007C050020962F0000FC030020EF300000CB
:1021700038B572B6144D2C6822E0238A013B9BB21D
:102180002382BBB9638A0BB123820DE02B689C428A
:10219000A36802D10C4A136004E00BB162685A6074
:1021A000626893600023636062B6E0682146FFF7CF
:1021B00001FE03E062B6054B00221A7072B6A468F5
:1021C000002CDAD162B638BD8805002084050020D5
:1021D000034672B6006848B10268598A1A601A8AC2
:1021E000013A92B291421A8288BF5A8262B670470F
:1021F00010B5044618B1084B1B78834203D2074838
:102200004521FFF7DFFA72B662B6054B013C142296
:1022100002FB0434608A10BD00050020713100000B
:10222000040500202DE9F8430446154699460F465B
:1022300029B1032A03D904339BB24B4503D818486C
:102240003621FFF7BFFA04232760A3814FF001086E
:1022500003E00436A68108F10108A6894E45F8D3AB
:10226000B54203D20E484421FFF7ACFA0123E381C3
:10227000AD1B23684FEA880807E003EB08021A60E9
:10228000E389AD1B0133E3811346B542F5D2002249
:102290001A60E289676022826282A360BDE8F883E7
:1022A0007931000038B5436804468B420D4606D8A4
:1022B0008368994203D8028AC3899A4203D906489F
:1022C0002D21FFF77FFA72B623682B60238A2560E1
:1022D0000133238262B638BD82310000032938B54C
:1022E00004460D4603D806482921FFF76BFA002360
:1022F0006360A360E360238263822580A37038BD9E
:102300008A31000070B504460D4616462AB103888E
:10231000032B02D9436803B919B908483021FFF7E4
:1023200051FA26826460E56072B6054A1368A360BC
:1023300003B15C60146062B670BD00BF93310000F1
:102340008805002072B6426872B109490B6898424C
:10235000836801D10B6003E003B15A604268936067
:1023600000234360012000E0104662B6704700BFC2
:1023700088050020F0B5036887B004469847022816
:1023800003D01C482D21FFF71DFA1B4E236806AF12
:1023900047F8183D204619499847002506E00135C1
:1023A00047F8043F20461549EDB298472368B342E9
:1023B000F5D1009E6BB2052B266003DD0D4844214C
:1023C000FFF700FA6FB2013700AB03EB8707013D5F
:1023D00057F8043D20460A49EDB2984715F0800FA2
:1023E000F5D020460749B0470228CFD0266007B075
:1023F000F0BD00BF9B310000C1250000B6310000D8
:10240000BA310000C23100002DE9F043056887B001
:1024100004460E46276820463146B8470328F9D0BF
:10242000022840F0BF80D4F800900195CDF80090CC
:1024300007E020465D49A84710B920465C49A847F7
:102440002568BD42F5D14D4509D120465749A847D9
:1024500000256EB2013600A800EB86066CE020462F
:102460005349C847D4F800804545F1D0204650492B
:10247000A84726684645E8D04E4504D120464B493A
:10248000A847FF25E5E7CDF8048020464849C04726
:10249000012518E005F1010823685FFA88F84FFA72
:1024A00088F206A800EB8201BB4241F8183C06D135
:1024B000052ACEDD3F487A21FFF784F9C9E7204697
:1024C0003B49984745460328E4D06BB2052B03DD12
:1024D00038488521FFF776F920463449B8476FB26E
:1024E00000AB013703EB87073A462B4652F8041D31
:1024F000013B8E4212D0DBB213F0800FF6D02046A3
:102500002A49B04710B920462949B04726683A46BB
:102510002B4652F8041D013B8E4201D1DDB298E7F3
:10252000DBB213F0800FF4D0E9E756F8043D204603
:1025300021499847013DEDB215F0800FF5D0009D7F
:1025400025602AE0236806AF47F8183D2046184961
:102550009847002606E0013647F8043F2046144914
:10256000F6B298472368AB42F5D1009D73B2052BB4
:10257000256003DD0F48D921FFF724F977B2013731
:1025800000A800EB8707013E57F8043D20460A49A2
:10259000F6B2984716F0800FF5D020460749A847B5
:1025A0000228CFD0256007B0BDE8F083BE3100001F
:1025B000B6310000A4310000BA310000C231000081
:1025C0000120704700487047AE3100002DE91140EE
:1025D00087B090F800F091F800F091F820F0042A0C
:1025E000C0F05781C1F1000313F0030311D05FEA7B
:1025F000C37CA2EB030244BF11F8013B00F8013B8E
:1026000021BF11F8014B11F801CB00F8014B00F884
:1026100001CB80EA010C1CF0030F50D18DE8E00FD4
:10262000C0F1000313F01C0316D0934288BF02F0E0
:102630001C035FEA037C24BFF0C9F0C044BFB1E8CB
:102640000003A0E8000313F0040F1CBF51F804AB13
:1026500040F804ABA2EB0302203A0DD321F01F0C8B
:102660000CF1400CB1E8F00F9CF840F0203AA0E8E3
:10267000F00FF7D202F1200212F01F0F1AD05FEA1A
:10268000027C24BFF0C9F0C044BFB1E80003A0E859
:1026900000035FEA827C24BF51F8043B40F8043B0E
:1026A00044BF31F8024B20F8024B12F0010F1CBF5F
:1026B0000B780370BDE8E00FBDE811407047042AB5
:1026C000C0F0E7808DE8E00FC0F1000505F00305DC
:1026D0004FEAC50CCCF1200E51F8043BA2F10402E4
:1026E000ED0744BF00F8013B1B0A21BF00F8013B86
:1026F0001B0A00F8013B1B0A042AC0F0BC8010F042
:102700001C0F0FD051F8045BA2F1040205FA0EF47D
:1027100043EA040425FA0CF340F8044B042AEED2F1
:10272000C0F0A980203AC0F09280BCF1180F60D0B0
:10273000BCF1080F2ED051F804CB6446B1E8E00F8D
:1027400091F840F0203A28BF51F804CB43EA044303
:102750004FEA144444EA05444FEA154545EA064564
:102760004FEA164646EA07464FEA174747EA084740
:102770004FEA184848EA09484FEA194949EA0A491C
:102780004FEA1A4A4AEA0B4AA0E8F8074FEA1B4305
:10279000D3D25CE051F804CB6446B1E8E00F91F885
:1027A00040F0203A28BF51F804CB43EA04634FEAD3
:1027B000142444EA05644FEA152545EA06654FEA04
:1027C000162646EA07664FEA172747EA08674FEAE0
:1027D000182848EA09684FEA192949EA0A694FEABC
:1027E0001A2A4AEA0B6AA0E8F8074FEA1B23D3D259
:1027F0002DE051F804CB6446B1E8E00F91F840F0C9
:10280000203A28BF51F804CB43EA04234FEA14646A
:1028100044EA05244FEA156545EA06254FEA16669F
:1028200046EA07264FEA176747EA08274FEA18687B
:1028300048EA09284FEA196949EA0A294FEA1A6A57
:102840004AEA0B2AA0E8F8074FEA1B63D3D2CEF17D
:10285000200C02F12002042A0DD351F8045BA2F1EE
:10286000040205FA0EF443EA040425FA0CF340F8D6
:10287000044B042AF1D25FEA0E7544BF00F8013B15
:102880001B0A22BF00F8013B1B0A00F8013B9DE830
:10289000E00FD20744BF11F8012B00F8012B21BF34
:1028A00011F8013B91F800C000F8013B80F800C02E
:1028B00007B0BDE81140704770B500240C4D0D4EB7
:1028C000761BB61003E055F8043B01349847B44238
:1028D000F9D1094DFFF736F8084E0024761BB610E3
:1028E00003E055F8043B01349847B442F9D170BD78
:1028F000F8310000F8310000F8310000F831000034
:1029000088420346F0B40C460ED98D18A8420BD26B
:1029100042B1831829469A1A11F8014D03F8014D66
:102920009342F9D1F0BC70470F2A38D941EA00052B
:1029300015F0030F35D1A2F1100601F110050B4679
:102940000246370905EB07151C6814605C68546083
:102950009C689460DC681033D46010329D42F3D1DF
:102960007C1C06F00F022401032A00EB040321441F
:1029700014D9043A0C461D464FEA920C01EB8C0721
:10298000043754F8046BBC4245F8046BF9D10CF1E0
:10299000010402F00302A4001B1909190C46002AC5
:1029A000C0D02146A21811F8014B914203F8014B07
:1029B000F9D1B7E7032AC9B2F0B408D82AB103465F
:1029C000121803F8011B9342FBD1F0BC7047821828
:1029D000044601E004F8011B14F0030FFAD1151BA3
:1029E0004FF00136072D06FB01F603DD0AE044F83F
:1029F000046B151B032DFADC01E004F8011BA24255
:102A0000FBD8E2E714F0070F02D044F8046BF9E7B3
:102A10004FF0013303FB01F3171B254680347F2F52
:102A200040DD44F8803C44F87C3C44F8783C44F871
:102A3000743C44F8703C44F86C3C44F8683C44F8FE
:102A4000643C44F8603C44F85C3C44F8583C44F82E
:102A5000543C44F8503C44F84C3C44F8483C44F85E
:102A6000443C44F8403C44F83C3C44F8383C44F88E
:102A7000343C44F8303C44F82C3C44F8283C44F8BE
:102A8000243C44F8203C44F81C3C44F8183C44F8EE
:102A9000143C44F8103C44F80C3C44F8083C44F81E
:102AA000043CB9E7571B2C4620351F2F10DD45F895
:102AB000203C45F81C3C45F8183C45F8143C45F8CA
:102AC000103C45F80C3C45F8083C45F8043CE9E767
:102AD000151B072D8EDD236063600834F8E700BF07
:102AE000EFF3108072B606498A68FF231B041A436D
:102AF0008A604A681B029A434A6080F310887047D4
:102B000018ED00E072B609480121C90601600848C5
:102B10000078002804D0C908064803B486B070477E
:102B200062B67047FFF7D0F862B600DF04ED00E050
:102B3000F0030020242B000008B0704774756E6EFF
:102B4000656C2E6300000000A42B0000370000001D
:102B5000DB2B000005000000E02B0000030000005C
:102B6000E32B000003000000E62B0000040000003F
:102B7000EA2B000004000000EE2B0000070000001C
:102B8000F52B000007000000FC2B000007000000F0
:102B9000032C0000070000000C0000000D000000E6
:102BA000880100207F090906007C080404003854CD
:102BB0005458004854542400485454240000000041
:102BC0007F494936003C40407C00043F4400043FBC
:102BD000440038444438007C0404780706060404A2
:102BE00001010102070209060609000606000000AD
:102BF0000814080000000014081400000022140843
:102C0000142200492A146B142A4900000E00000007
:102C100001001300000019006D696E65312E63001C
:102C20000E0000000200130000002D006D696E65AB
:102C3000322E630098030020B4030020B08004808B
:102C40001040B08004801240B18004801040B180F8
:102C500004801240000000000000004F0000000748
:102C6000000700147F147F14242A7F2A12231308DC
:102C7000646236495522500005030000001C2241C1
:102C8000000041221C0014083E081408083E0808F1
:102C900000503000000808080808006060000020AC
:102CA000100804023E5149453E00427F4000426107
:102CB0005149462141454B311814127F1027454593
:102CC00045393C4A494930017109050336494949AA
:102CD00036064949291E00363600000056360000E7
:102CE0000814224100141414141400412214080280
:102CF00001510906324979413E7E1111117E7F4909
:102D00004949363E414141227F4141221C7F494988
:102D100049417F090909013E4149497A7F0808086C
:102D20007F00417F41002040413F017F0814224144
:102D30007F404040407F020C027F7F0408107F3EAE
:102D40004141413E7F090909063E4151215E7F090B
:102D5000192946464949493101017F01013F404057
:102D6000403F1F2040201F3F4038403F631408145D
:102D70006307087008076151494543007F414100DE
:102D800002040810200041417F00040201020440B7
:102D900040404040000102040020545454787F48D1
:102DA0004444383844444420384444487F385454D8
:102DB0005418087E0901020C5252523E7F08040446
:102DC0007800447D40002040443D007F10284400AE
:102DD00000417F40007C041804787C0804047838A3
:102DE000444444387C14141408081414187C7C08D7
:102DF0000404084854545420043F4440203C4040BC
:102E0000207C1C2040201C3C4030403C44281028A2
:102E1000440C5050503C4464544C4400083641002B
:102E200000007F0000004136080002010204020495
:102E300080AE80E30680AD808A80E30680A8801F94
:102E400080E30480C880E30480A080E30480D8800D
:102E5000E304800580E304804080E3068081805D98
:102E600080E30680D9801180E30680D5800180E36D
:102E70000680D3800080E30480AF80E30480AE80CE
:102E8000E304800480E304801280E3068081802BC9
:102E900080E30480A180E304804080E30680D38047
:102EA0000080E30680A8800F80E30480A480E30410
:102EB00080A680E30480B080E30480C880E30680BD
:102EC000D5807280E30680D8800080E30680D980B8
:102ED0002280E30680DA801280E30680DB800F80A8
:102EE000E30680AD808B80E30480AF80E3000400C4
:102EF00000006273702E63000500000040420F0066
:102F000000201C0080841E0000802500999E360051
:102F10000040380000093D0000803E0000004B00EA
:102F2000404B4C0000204E00808D5B0000C05D00D7
:102F30000080700000127A0000007D0080969800EA
:102F4000001BB7000080BB00C0E8CE00647ADA0046
:102F50000024F4000000FA00342E322E30340071C8
:102F60006B00716B5F73636865640071615F6669B4
:102F7000666F0071615F6765745F0071615F737593
:102F80006200342E322E30340071665F616374004B
:102F900071665F6763000001020203030303040418
:102FA00004040404040405050505050505050505D7
:102FB00005050505050506060606060606060606B7
:102FC00006060606060606060606060606060606A1
:102FD0000606060606060707070707070707070787
:102FE0000707070707070707070707070707070771
:102FF0000707070707070707070707070707070761
:103000000707070707070707070707070707070750
:103010000707070707070808080808080808080836
:103020000808080808080808080808080808080820
:103030000808080808080808080808080808080810
:103040000808080808080808080808080808080800
:1030500008080808080808080808080808080808F0
:1030600008080808080808080808080808080808E0
:1030700008080808080808080808080808080808D0
:1030800008080808080808080808080808080808C0
:1030900008080808080871665F6E65770071665F4A
:1030A000706F6F6C0071665F707370756200000105
:1030B0000204081020408001020408102040800112
:1030C0000204081020408001020408102040800102
:1030D00002040810204080010204081020408001F2
:1030E000020408102040800102040810204080FFE4
:1030F000FEFDFBF7EFDFBF7FFEFDFBF7EFDFBF7FDE
:10310000FEFDFBF7EFDFBF7FFEFDFBF7EFDFBF7FCD
:10311000FEFDFBF7EFDFBF7FFEFDFBF7EFDFBF7FBD
:10312000FEFDFBF7EFDFBF7FFEFDFBF7EFDFBF7FAD
:103130000000000000000000000101010101010188
:103140000102020202020202020303030303030359
:103150000304040404040404040505050505050529
:1031600005060606060606060607070707070707F9
:1031700007716D705F67657400716D705F696E696E
:103180007400716D705F707574007174655F637445
:103190006F72007174655F61726D007168736D5F4D
:1031A000696E69007168736D5F6469730000342E25
:1031B000322E303400000000000001000000020048
:1031C00000000300000047616D65204F76657200C6
:1031D0002020202020202020200053636F72653A99
:1031E00000737461727475705F73746D333266311D
:0831F00030785F636C00000001
:0431F8004000000093
:04000003000018E5FC
:00000001FF
