:100000006C0B0020F11D0000D51D00000000000059
:10001000D51D0000D51D0000D51D0000D51D000018
:10002000D51D0000D51D0000D51D00007532000053
:10003000D51D0000D51D000041320000FD19000053
:100040004D1A0000D51D0000D51D0000D51D000073
:10005000D51D0000D51D0000D51D0000D51D0000D8
:10006000D51D0000D51D0000D51D0000D51D0000C8
:10007000D51D0000D51D0000D51D0000D51D0000B8
:10008000D51D0000A11C0000D51D0000D51D0000DD
:10009000D51D0000D51D0000D51D0000D51D000098
:1000A000D51D0000D51D0000D51D0000D51D000088
:1000B000D51D0000D51D0000D51D0000D51D000078
:1000C000D51D0000D51D0000D51D0000D51D000068
:1000D000D51D0000D51D0000D51D0000D51D000058
:1000E000D51D0000D51D0000D51D0000D51D000048
:1000F0000B88032B02D0052B0AD104E0074B0360C9
:100100004FF002007047064B03604FF0020070474B
:10011000044B03604FF00300704700BFA1090000CB
:100120003D040000C9010000044B1A68044800FBAC
:1001300002F018604FEA1020704700BF0400002052
:10014000CD0D01002DE9F0410D4616461C4609294A
:1001500004D91B4840F2CB2101F0A0FD2A46184BE0
:1001600003EBC5052D7CC6F160039D42C8BFDDB21F
:100170001DB3144B9E194FF00003114F07EBC2073C
:10018000C4F100085FFA88F85FFA84FC002CFA6872
:10019000D15CACBF01FA0CF141FA08F132780A43A4
:1001A00006F8012B96F85F0040EA112186F85F10EF
:1001B00003F10103DAB29542E8D8BDE8F08100BF4F
:1001C000783200000800002038B505460C460B8840
:1001D000062B16D0162B19D10B79042B04D803F15A
:1001E000100350F8233023B90B484FF0A90101F058
:1001F00055FD237903F110034FF0000045F823006B
:1002000038BD064B03604FF0020038BD044B03605D
:100210004FF0030038BD00BF783200003505000004
:10022000F92C0000F8B5074600F1500400F1640510
:100230004FF0000654F8040F314602F0E9FB606904
:10024000314602F0E5FBAC42F4D140F2D2420B4B16
:100250001A6038464FF0040102F036F938464FF084
:10026000050102F031F938464FF0060102F02CF991
:10027000034B3B604FF00200F8BD00BF04000020BC
:100280003D04000070B504460B88022B33D00B2BC5
:1002900047D0012B4AD1FFF747FF0546264E30468F
:1002A0004FF000014FF0C00202F022FF234BA3FBEE
:1002B00005234FEA531303EB830203EBC202AA1A8E
:1002C00020464FF00001D2B205F00703FFF73AFFD6
:1002D00030464FF060014FF0100201F063FC4FF028
:1002E0000005E58704F12C0021464FF00A0202F0D8
:1002F0004FFB284670BD00F12C0002F06BFB0E4C4A
:1003000020464FF000014FF0C00202F0F1FE2046FF
:100310004FF060014FF0100201F044FC4FF000007C
:1003200070BD074B03604FF0020070BD054B0360CA
:100330004FF0030070BD00BF080000207D0CCEC749
:10034000A1090000F100000070B50446FFF7ECFEC3
:10035000C0B22F2806D894F87F301BB103F1FF33C9
:1003600084F87F30D02806D994F880301BB103F18F
:10037000FF3384F88030FFF7D7FEC0B22F2818D89B
:1003800094F87F30C3F1100194F88020891A94F812
:10039000812091420DDD94F87D205A2A05D994F8E8
:1003A0007E1003F10102914203DD03F1010384F8A1
:1003B0007F30D0281AD994F8803094F87F10C1F19A
:1003C0001001C91A94F8812091420FDD94F87D2024
:1003D0005A2A07D994F87E1001F10101C3F11002E5
:1003E000914203DA03F1010384F88030124D05F1E4
:1003F000C406304605F1C5014FF0BF0202F01EFEF3
:1004000094F88010C1F110014FF0FF3202FA01F1AF
:1004100094F87F3002FA03F361EA030385F823318D
:100420004FEA132385F8833105F1040031464FF07C
:10043000C00202F069FC70BD0400002038B504461B
:100440000B8803F1FF330A2B65D8DFE803F0062E93
:1004500064475F646464643942004FF0000580F8CB
:100460007D5080F87E5080F87F5080F880504FF0AB
:100470000D0380F881302A4829464FF0C00202F06F
:1004800037FE4FF00F02628504F11800214602F09A
:100490007FFAE58704F12C0021464FF4167202F032
:1004A00077FA84F87C50284638BD00F1180002F035
:1004B00091FA04F12C0002F08DFA4FF0000038BDE3
:1004C00090F87C3083F0010380F87C304FF000001E
:1004D00038BD144B03604FF0020038BDFFF734FF06
:1004E00094F87C3043B120464FF000014FF01402E5
:1004F0004FF00403FFF726FE0B484FF060014FF06A
:10050000100201F04FFB4FF0000038BD074B0360B5
:100510004FF0020038BD064B03604FF0030038BDBA
:10052000C8000020F100000008000020590600006B
:10053000C901000010B50B88012B13D10C4C2046CB
:100540004FF000014FF0C00202F0D2FD20464FF004
:1005500060014FF0100201F025FB01F049FE4FF061
:10056000000010BD034B03604FF0030010BD00BF3F
:1005700008000020F92C000070B504460B8803F138
:10058000FF330A2B4BD8DFE803F006224A4A4A4AD7
:100590004A4A4A3145004FF00F02428500F11800E7
:1005A000214602F0F5F94FF00005E58704F12C0033
:1005B00021464FF0960202F0EBF984F87C504FF0A0
:1005C00015002946184A01F0FBFA284670BD00F1D3
:1005D000180002F0FFF904F12C0002F0FBF94FF0D3
:1005E000000001F0F7FA4FF0000070BD90F87C3089
:1005F00083F0010380F87C304FF015004FF00001CC
:10060000094A0A4C8B4218BF224601F0D9FA4FF032
:10061000000070BD064B03604FF0020070BD054B3B
:1006200003604FF0030070BD4439000050390000F2
:100630003D040000C901000070B50E4600F13C0405
:1006400000F1500554F8040F10B1314602F03AFAA7
:10065000AC42F7D170BD00BF2DE9F04182B0054634
:100660000C460B8803F1FF33172B00F27781DFE88C
:1006700013F018002B007501370075017501160184
:100680007501750175017501750175017501A00090
:10069000A000FC0075017501FC0075017501750174
:1006A00006014FF00D0385F88130B0484FF000018E
:1006B0004FF0C00202F01CFDAD4B1868AD4901F0CF
:1006C0005FFE4FF000004DE102A94FF0170221F844
:1006D000082D28466946FFF7AFFF4FF0000041E1C3
:1006E000A5484FF060014FF0100201F05BFA284678
:1006F000FFF72AFEFFF718FD95F87D3043B103F1AF
:10070000FF33DBB285F87D3003F10A035F2B49DC50
:1007100000F0FF00072845D82B6C63B105F14003BA
:100720004FF0010653F8042F3AB106F10106F6B274
:10073000052EF7D136E04FF00006FFF7F5FC81B249
:1007400010F0010F06F1100307BF05EB8602526D92
:1007500006F11A0255F8222045F823204FF06002D6
:1007600085F87D2095F87F3003F1020095F88070C0
:10077000C7F10C07FB1AB1FBF3F703FB1713C31800
:10078000DBB285F87E304FF01500ADF800008DF833
:1007900004208DF8053006F1100655F8260069464C
:1007A00002F090F928462146FFF746FF4FF000007F
:1007B000D8E00E7991F805808F79092F04D96F4818
:1007C00040F2E52101F06AFA6C4B03EBC7031A7C97
:1007D000C6F160039A42C8BFDAB2002A37D0674B2D
:1007E00003EBC703D9685FFA88FE0B7803FA0EF3B0
:1007F0006348801990F8C40003421FD160488019F3
:1008000090F8240110EA132018D15848831902F1F6
:10081000FF32D2B203EB020C0DE011F8012F02FA05
:100820000EF2587803F10103104207D193F86000EB
:1008300010EA122002D16345EFD108E023880F2B84
:100840000CBF4B4B4F4B18684F4901F099FD2846A0
:10085000394632464FFA88F3FFF774FC28462146A2
:10086000FFF7EAFE4FF000007CE028468979227904
:1008700094F90530FFF766FC4FF0000072E08888BD
:1008800001F0A8F9A288414BA3FB02134FEAD3134E
:10089000C3F10D0385F881304FF0000062E08C88D1
:1008A000204601F097F9344E30464FF000014FF0EA
:1008B000C00202F01DFC30464FF060014FF0100204
:1008C00001F070F94FF012004FF00101304A01F0D1
:1008D00077F94FF000038DF804302E4BA3FB040290
:1008E0004FEAD20202EB8201A4EB410404F130048E
:1008F0008DF8034091B2A3FB01024FEAD20202EB52
:100900008200A1EB400101F130018DF8021091B29B
:10091000A3FB01024FEAD20202EB8200A1EB4001ED
:1009200001F130018DF8011092B2A3FB02134FEADE
:10093000D30303EB8303A2EB430202F1300302AAC9
:1009400002F8083D4FF036004FF001016A4601F011
:1009500037F9114B2B604FF0020003E00F4B2B6077
:100960004FF0030002B0BDE8F08100BFC8000020D6
:1009700084330000D43200000800002078320000E8
:100980000400002080330000D8320000D34D6210F4
:100990005C390000CDCCCCCC79050000C901000049
:1009A00038B504460B88022B11D00B2B18D0012B25
:1009B0001BD101F015F94FF00005E58704F12C007B
:1009C00021464FF05A0201F0E3FF284638BD00F1FE
:1009D0002C0001F0FFFF01F0FFF84FF0000038BDE0
:1009E000044B03604FF0020038BD034B03604FF02F
:1009F000030038BD85020000F100000070B5164DFF
:100A0000164BC5F8843105F5CE704FF00A0101F0A0
:100A1000A9FF05F5D8704FF00B0101F0A3FF05F514
:100A2000EA754FF000042646204600F0D9F945F853
:100A3000040F204600F0FAFA686145F8146C04F1DE
:100A40000104E4B2052CEFD1034B4FF0000283F810
:100A5000012283F8022270BD04000020250200005C
:100A60002DE9F84306460D4690461F469DF8204066
:100A70009DF82490092801D8092B04D9514840F247
:100A8000033101F00BF9A5423DD84E4B03EBC703F0
:100A90001B7CEA18A24275DD101BC0B2494B03EB68
:100AA000C6031A7C904228BF104600286ED0454BE2
:100AB00003EBC707F968641BE4B24F4603EBC606B5
:100AC000F26846460B5D03FA09F9137803FA08F851
:100AD00019EA080F5ED10C194FF000030AE065789F
:100AE00004F1010412F8011F05FA07F501FA06F1F5
:100AF0000D4253D103F10103DBB28342EFD14FF03A
:100B00000000BDE8F8832F4B03EBC6031B7CE21803
:100B1000AA4247DD581B2018C0B22A4B03EBC7037B
:100B20001A7C904228BF104600283FD0254B03EB8B
:100B3000C606F1682C1BE4B2464603EBC707FA6809
:100B40004F460B5D03FA08F8137803FA09F918EA1F
:100B5000090F2FD10C194FF000030AE0617804F15E
:100B6000010412F8015F05FA07F501FA06F10D42DA
:100B700024D103F10103DBB28342EFD14FF0000037
:100B8000BDE8F8834FF00000BDE8F8834FF00000A7
:100B9000BDE8F8834FF00100BDE8F8834FF0010095
:100BA000BDE8F8834FF00000BDE8F8834FF0000087
:100BB000BDE8F8834FF00100BDE8F8834FF0010075
:100BC000BDE8F88378320000054B1B781BB94FF065
:100BD0000102034B1A70034B03604FF00200704791
:100BE0000C020020E90B00000B88152B08D10B79B3
:100BF00003714B794371054B03604FF0020070475E
:100C0000034B03604FF00300704700BFF90C000076
:100C1000F92C000010B504460B88022B02D0172BCC
:100C200018D112E04FF006004FF0160101F0F0FC71
:100C300001460B4BE41A4FEAE4040471094B1868AF
:100C400001F09EFB4FF0000010BD074B03604FF01A
:100C5000020010BD054B03604FF0030010BD00BF44
:100C600010020020DC320000E90B0000F92C00002B
:100C700010B504460B88012B02D0042B30D103E0C1
:100C80004FF00000A07110BD037923B382790E2AC2
:100C900021D802F10102827103F1FF3303714FF099
:100CA00008004FF0140101F0B3FC0146237903F171
:100CB000010303716379A3F102034371A3794FEA3E
:100CC000930303F106038371084B186801F058FB86
:100CD0004FF0000010BD064B23604FF0020010BD26
:100CE000044B03604FF0030010BD00BFDC32000076
:100CF000E90B0000150C000030B583B004460B88EA
:100D00000F2B22D0102B37D0042B4CD10379BBB141
:100D100003F1FF3303714FF008004FF0110101F0B0
:100D200077FC014623790371637943714FF0030324
:100D30008371234B186801F023FB4FF000003CE067
:100D4000204B03604FF0020037E0057942798B7940
:100D500008790090497901914FF003002946FFF787
:100D60007FFE28B3184B1868184901F009FB154B92
:100D700023604FF0020020E0057942798B790879F1
:100D80000090497901914FF003002946FFF768FE72
:100D900088B10F4B18680F4901F0F2FA0E4B23602F
:100DA0004FF0020009E00D4B03604FF0030004E038
:100DB0004FF0000001E04FF0000003B030BD00BF75
:100DC000DC320000E90B00008433000050330000E7
:100DD0008033000058330000710C0000150C000037
:100DE00010B50446042804D907484FF0380100F034
:100DF00055FF06484FEAC4040319054A5A6000F13A
:100E00000400001910BD00BF603300000C02002078
:100E1000C90B0000054B1B781BB94FF00102034BB7
:100E20001A70034B03604FF0020070473802002035
:100E3000350E00000B88152B08D10B7903714B7907
:100E40004371054B03604FF002007047034B036092
:100E50004FF00300704700BF450F0000F92C000061
:100E600010B504460B88022B02D0172B18D112E0C4
:100E70004FF006004FF0160101F0CAFB01460B4B84
:100E8000E41A4FEAE4040471094B186801F078FA97
:100E90004FF0000010BD074B03604FF0020010BD83
:100EA000054B03604FF0030010BD00BF3C02002063
:100EB000DC320000350E0000F92C000010B50446AD
:100EC0000B88012B02D0042B30D103E04FF000003F
:100ED000A07110BD037923B382790E2A21D802F1C3
:100EE0000102827103F1FF3303714FF008004FF0EC
:100EF000140101F08DFB0146237903F10103037115
:100F00006379A3F102034371A3794FEA930303F1D9
:100F100006038371084B186801F032FA4FF00000A5
:100F200010BD064B23604FF0020010BD044B036060
:100F30004FF0030010BD00BFDC320000350E000092
:100F4000610E000030B583B004460B880F2B22D011
:100F5000102B37D0042B4CD10379BBB103F1FF33F5
:100F600003714FF008004FF0110101F051FB0146F1
:100F700023790371637943714FF004038371234B29
:100F8000186801F0FDF94FF000003CE0204B0360D1
:100F90004FF0020037E0057942798B7908790090AB
:100FA000497901914FF004002946FFF759FD28B314
:100FB000184B1868184901F0E3F9154B23604FF0FE
:100FC000020020E0057942798B790879009049790F
:100FD00001914FF005002946FFF742FD88B10F4B04
:100FE00018680F4901F0CCF90E4B23604FF0020056
:100FF00009E00D4B03604FF0030004E04FF00000E8
:1010000001E04FF0000003B030BD00BFDC32000053
:10101000350E000084330000683300008033000088
:1010200070330000BD0E0000610E000010B50446D4
:10103000042804D907484FF0380100F02FFE064875
:101040004FEAC4040319054A5A6000F1040000196C
:1010500010BD00BF7833000038020020150E0000DC
:1010600030B585B005460C4600F004F900F01EFAD4
:10107000FFF7C4FC2846214600F016FD01F0B4F845
:10108000214D28464FF028014FF0040201F0FCFAF0
:1010900005F128004FF090014FF0080201F0F4FA3A
:1010A00005F1B8004FF0080101F024FB174B186858
:1010B0004FF000040094019402944FF0010105F1F7
:1010C000F8024FF0020301F0A7F8114B18680094E2
:1010D000019402944FF0020105F580724FF0030372
:1010E00001F09AF80B4B18680094019402944FF0A9
:1010F000030105F586724FF00A0301F08DF801F047
:101100007BF8204605B030BD64020020803300002B
:1011100084330000DC3200000B88122B08D10B79DD
:1011200003764B794376054B03604FF0020070471E
:10113000034B03604FF00300704700BF61110000D4
:10114000F92C000010B504464FF0040101F0BCF981
:10115000024B23604FF0020010BD00BF19110000C8
:1011600010B504460B880D2B23D0132B26D0042B4F
:101170002DD1037E03F102025F2A15DC02764FF0C7
:1011800008004FF0100101F043FA0146237E03717D
:10119000637E43714FF0020383710F4B186801F0B7
:1011A000EFF84FF0000010BD0C4B03604FF0020051
:1011B00010BD0B4B03604FF0020010BD094B1868C7
:1011C00001F0DEF8054B23604FF0020010BD064B26
:1011D00003604FF0030010BDDC3200001911000065
:1011E000ED11000084330000F92C000010B5044616
:1011F0000B88012B02D0042B30D103E04FF000000C
:10120000A07610BD037E23B3827E0E2A21D802F180
:101210000102827603F1FF3303764FF008004FF0AE
:10122000140101F0F5F90146237E03F10303037174
:10123000637EA3F104034371A37E4FEA930303F19A
:1012400006038371084B186801F09AF84FF000000C
:1012500010BD064B23604FF0020010BD044B03602D
:101260004FF0030010BD00BFDC3200001911000078
:10127000F92C0000014A024B1A607047451100002A
:10128000980300200B88032B02D0092B0CD104E01B
:10129000084B03604FF0020070470B7903764B79DF
:1012A00043764FF000007047034B03604FF003009C
:1012B000704700BFBD120000F92C00000B880C2BFA
:1012C00004D1054B03604FF002007047034B0360ED
:1012D0004FF00300704700BF0513000085120000A7
:1012E00010B504464FF0040101F0EEF820464FF02F
:1012F000050101F0E9F8024B23604FF0020010BD38
:101300008512000038B504460B8803F1FF33122B19
:1013100070D8DFE803F00A6F6F1C4F6F6F6F6F6F4D
:101320006F6F6A6A6F6F6F6F63004FF000058583A0
:101330004FF006004FF0180101F06AF90146A48B46
:101340008480304B186801F01BF8284638BD4FF0F8
:1013500008004FF00F0101F05BF90146237E037195
:10136000637E43714FF001038371264B1D6828464D
:1013700001F006F8A38B03F101039BB2A383224A79
:10138000A2FB03124FEAD20202EB8202A3EB42035A
:101390009BB2002B33D14FF006004FF0180101F043
:1013A00037F90146A48B8480284600F0E9FF4FF00E
:1013B000000038BD4FF006004FF0120101F028F98F
:1013C0000146237E0371637E03F1020343710F4BD9
:1013D000186800F0D5FF4FF0000038BD8A88838B75
:1013E000D31883834FF0000038BD094B03604FF0E2
:1013F000020038BD074B03604FF0030038BD4FF0CB
:10140000000038BDDC320000CDCCCCCC80330000F5
:10141000191400008512000010B504460B88012B3A
:1014200002D0042B36D103E04FF00000A07610BDAF
:10143000837E0E2B1CD803F1010383764FF0080046
:101440004FF0140101F0E4F80146A37E4FEA930344
:1014500003F106038371237E0371637E03F1FF337F
:1014600043710F4B186800F08BFF4FF0000010BD68
:101470004FF006004FF0070101F0CAF80146A38BB8
:101480008380074B186800F07BFF064B23604FF00A
:10149000020010BD044B03604FF0030010BD00BFFD
:1014A000DC320000BD12000085120000044B054A2A
:1014B0001A604FF00A021A764FF008025A76704707
:1014C000B4030020E1120000044B4FF07A021A60CE
:1014D00098604FF003025A60704700BF000002405E
:1014E0000138FDD17047704710B50446064A53696C
:1014F000002BFCD0054B1868FFF7F2FF024B9C60F5
:101500004FF001025A6010BD00000240D4030020D9
:1015100038B505460A4A5369002BFCD0094B1C68B4
:101520002046FFF7DDFF064B9D604FF005025A6035
:101530001A465369002BFCD02046FFF7D1FF38BD77
:1015400000000240D40300202DE9F04191B105468E
:101550004618094C094F4FF001086369002BFCD075
:101560003868FFF7BDFF15F8013BA360C4F804809D
:10157000B542F2D1BDE8F08100000240D403002062
:1015800070B54FF08000FFF79FFF1B4B1E79002EB8
:101590001A4B03F1080018BF18464FF00601FFF779
:1015A000D3FF4FF05F044FF000052846FFF79CFF84
:1015B000013CFAD14FF00000FFF7AAFF4FF0800086
:1015C000FFF782FF002E0E4B03F1080018BF1846EC
:1015D0004FF00601FFF7B8FF4FF0000425462846FC
:1015E000FFF782FF04F101045F2CF8D14FF00000F7
:1015F000FFF78EFF70BD00BFD403002088330000CA
:10160000983300002DE9F84306460C4615464FF086
:101610008000FFF759FF002D14BFB120B020FFF765
:1016200063FF4FF08000FFF75FFF2F4B5D792819B4
:1016300000F00F00FFF758FF4FF08000FFF754FF56
:101640006519C5F3031040F01000FFF74DFF4FF090
:101650004000FFF749FF3378002B3AD1BDE8F8830B
:1016600004F106045A2C1CD803EB8303A3F1A00059
:1016700038184146FFF768FF5A2C03D02E4615F85C
:10168000013B2BB94FF00000FFF742FFBDE8F883A4
:101690004846FFF729FF15F8013C002BE0D1BDE8D3
:1016A000F883C4F15F05114C03EB8303E018A0F14C
:1016B00080002946FFF748FF3378A3F1200303EBAE
:1016C0008303E418651995F82000FFF721FFBDE8B2
:1016D000F8835A2CE5D806F10105054F4FF00508AF
:1016E0004FF00009C0E700BFD4030020883300009A
:1016F000A83300002DE9F84F054614461F460A9B03
:101700001C4A92F805A08A448BB3CAF3031848F028
:10171000100803EB04094FF080060AF00F0A07F1E6
:10172000FF3B3046FFF7D0FE002C14BFB120B020A5
:10173000FFF7DAFE3046FFF7D7FE5046FFF7D4FE3C
:101740003046FFF7D1FE4046FFF7CEFE4FF0400097
:10175000FFF7CAFE28465946FFF7F6FEED1915F8C1
:10176000010CFFF7D5FE04F101044C45D9D1BDE8C9
:10177000F88F00BFD40300202DE9F8430446664BE0
:10178000D3F8042142F48052C3F80421D3F808218D
:1017900042F00202C3F808215B68C3F30033DEB2F3
:1017A0005E4A1371002E00F09C804FF004025B4BE8
:1017B0005A71594BD3F8082142F00802C3F80821A6
:1017C0004FF00100FFF78CFE554BD3F8002442F098
:1017D0008002C3F800244FF08002C3F80022514B6E
:1017E000D3F8002422F00C02C3F80024D3F82024FC
:1017F00042F00C02C3F82024D3F8002542F00C027A
:10180000C3F80025D3F8182522F00C02C3F81825D8
:10181000D3F80C2542F00C02C3F80C25D3F81025A0
:1018200042F00C02C3F81025D3F81C2542F00C023C
:10183000C3F81C25D3F8282522F00C02C3F828256C
:1018400003F5D8331A6A42F010021A62364B374A4F
:10185000002C0CBF14461C4604EB84044FEA84049D
:10186000334B1B6803F1FF331B19B3FBF4F404F192
:10187000FF34304BDC60DB6803F1010303EB03133F
:101880004FEA8303254A13604FF00004DFF8A88075
:1018900008F51377B9461AE046B308F5FE756319E3
:1018A0005878FFF711FE04F10200615D2818A1F1DC
:1018B0000201FFF749FE635D08EB0402D31893F8B9
:1018C000FC01FFF725FE2B5D03F10103E418002E58
:1018D0000CBF71234D239C42DED3FFF751FEBDE8C0
:1018E000F8834FF024020D4B5A7178E7E3195878CA
:1018F000FFF7EAFD04F10200E15D3818A1F10201F1
:10190000FFF722FEE35D08EB0402D31893F84C02C4
:10191000FFF7FEFD4D46D6E700E00F40D403002060
:101920000070004000500040801A0600A0860100B0
:10193000EC03002000000240883300002DE9F04154
:101940004FF000041E4F07F51376B04619E013B3AD
:1019500007F5FE7563195878FFF7B6FD04F102002C
:10196000615D2818A1F10201FFF7EEFD635D3A19F0
:10197000D31893F8FC01FFF7CBFD2B5D03F10103B6
:10198000E418104B1B79002B0CBF71224D2294429E
:10199000DDD3BDE8F081A3195878FFF795FD04F178
:1019A0000200A15D3018A1F10201FFF7CDFDA35D9A
:1019B0003A19D31893F84C02FFF7AAFD4546DCE725
:1019C00088330000D403002008B54FF08000FFF7F3
:1019D0007BFD4FF0AE00FFF787FD4FF08000FFF773
:1019E00083FD4FF0AD00FFF77FFD4FF08000FFF764
:1019F0007BFD4FF08A00FFF78BFD08BD684620F0A5
:101A000007018D4619B572B60D4C237803F1010319
:101A1000DBB2237062B600F0C9FE0A4800F070FE27
:101A200072B6237803F1FF33DBB223704FF080529C
:101A3000054B1A6062B6BDE819408546704700BF85
:101A4000F90300204836000004ED00E0684620F06D
:101A500007018D4631B572B6104C237803F10103AE
:101A6000DBB2237062B60E4B1D684FF004004FF0DE
:101A7000080100F0CDFD0146284600F081FC72B659
:101A8000237803F1FF33DBB223704FF08052054B14
:101A90001A6062B6BDE8314085467047F903002000
:101AA000DC32000004ED00E010B500F02DFA384BF8
:101AB000D3F8002142F48032C3F80021D3F8042186
:101AC00042F44032C3F80421D3F8082142F0050261
:101AD000C3F8082100BF00BF00BF2E4B5A6922F493
:101AE000704242F4A0425A611A6A22F470421A62A9
:101AF000D3F8A02022F06F0242F06002C3F8A020C9
:101B0000D3F8A42022F00F0242F00602C3F8A4206A
:101B10001A6842F008021A60A3F5E043DA6822F07E
:101B20000112DA604FF000021A604FF002015960B2
:101B3000194908681949A1FB00414FEA91119962BE
:101B4000D96841F00201D960D96841F02001D9601B
:101B5000134BD3F8001441F02001C3F80014D3F85C
:101B60001C1541F02001C3F81C15C3F88020D3F8E0
:101B7000002422F01002C3F80024D3F81C2542F000
:101B80001002C3F81C254FF00100FFF7F5FD10BD52
:101B900000E00F4000800340EC0300208988888823
:101BA0000060004000B583B00B464FEAD2020092BD
:101BB0004FF000010A46FFF79DFD03B000BD00BFD6
:101BC00010B504460B46104621461A46FFF71AFD8B
:101BD00010BD00BF704700BF08B5FFF7AFFE08BDDE
:101BE00008B5FFF7F1FE08BD1F4B1A681F4BA3FB9A
:101BF00002134FEA1313B3F1807F10D223F07F4317
:101C000003F1FF331A4A53604FF0E001194B83F898
:101C100023104FF0000393604FF0070313604FF061
:101C20004002144B83F82320A3F540634FF02002B9
:101C300083F811234FF0000283F800234FF40032A1
:101C40001A604FF001021A600B4B4FF00802DA6085
:101C50009A6842F008029A60A3F5E043DA6842F01D
:101C60000112DA60704700BFEC0300208988888881
:101C700010E000E000ED00E000800340704700BF8E
:101C800072B6054B4FF02002C3F880204FF00002DF
:101C9000C3F8802062B670470060004072B6FEE76D
:101CA000684620F007018D4619B572B63F4B1A7889
:101CB00002F10102D2B21A7062B63D4B4FF0080237
:101CC000DA60D3F8AC3013F4807F04D039484FF099
:101CD0006501FFF7E3FF364BD3F8A840364B1A688F
:101CE00004F10404A41A02EBE4041C60A4EBC40491
:101CF0004FEA440404F560544FEA94245B689C4224
:101D000010D04FF006004FF0090100F081FC0146B1
:101D10004FF00A0303714471284B186800F030FB40
:101D2000254B5C60264B1A6C234B1B7A032B2CD85B
:101D3000DFE803F0020B141D1F4BDB689A4224D02E
:101D40004FF001021C4B1A721FE01B4BDB689A42DA
:101D500014BF02220022184B1A7216E0164BDB68E1
:101D60009A4214BF03220022134B1A720DE0124B49
:101D7000DB689A4205D0104BDA6012B9114800F0C6
:101D8000BFFC4FF000020C4B1A7272B6074B1A7868
:101D900002F1FF32D2B21A704FF080520A4B1A6031
:101DA00062B6BDE819408546704700BFF9030020C0
:101DB000008003404C360000DC0300208433000028
:101DC000006000405436000004ED00E008B5FFF765
:101DD00065FF08BD684620F007018D4601B5034840
:101DE00040F20711FFF7F2FFFEE700BF6439000081
:101DF000684620F007018D4601B5134B134A9A42FD
:101E000008D2134A114B104852F8041B43F8041B24
:101E10008342F9D30F4B104A9A4207D213464FF030
:101E200000010C4A43F8041B9342FBD301F0E2F893
:101E3000FFF716F909484FF48171FFF7C7FFBDE8B6
:101E400001408546704700BF0400002000000020CC
:101E50007C39000090050020040000206439000057
:101E6000704700BFEFF30980704700BF80F3098817
:101E7000704700BFEFF30880704700BF80F3088809
:101E8000704700BFEFF31280704700BF80F31188E6
:101E9000704700BFEFF31080704700BF80F31088D9
:101EA000704700BFEFF31380704700BF80F31388C3
:101EB000704700BF00BA704740BA7047C0BA704759
:101EC00090FAA0F0704700BFD0E84F0FC0B2704743
:101ED000D0E85F0F80B2704750E8000F704700BF36
:101EE000C1E8400F704700BFC1E8500F704700BF06
:101EF00041E80000704700BFEFF31480704700BF57
:101F000080F31488704700BF30B482B09A4B9B4A6C
:101F10001A6702F5602202F5965202F101021A6672
:101F200002F17D42A2F58052A2F10F021A66944A94
:101F30001A674FF000030193019BB3F57A7F09D232
:101F400040F2E73200BF019B03F101030193019BC3
:101F50009342F7D9884B8B4A1A66894A1A674FF021
:101F600000030193019BB3F57A7F09D240F2E73277
:101F700000BF019B03F101030193019B9342F7D939
:101F80007D4B814A1A661B6D13F0400F05D17A4ACA
:101F900000BF136D13F0400FFAD0774B7B4A1A66DF
:101FA000774A1A674FF000030193019BB3F57A7FDC
:101FB00009D240F2E73200BF019B03F10103019314
:101FC000019B9342F7D96C4B196E1A6F002AB4BF6C
:101FD00002F0700301F03003202B40D004D86BB125
:101FE000102B40F0F8800FE0602B66D0702B61D092
:101FF000302B40F0F08047F2305370E0C1F3841092
:10200000634B53F820306AE05B4B1B6813F0E04FE2
:1020100056D0594B18685F4B00EA0303B3F1805F59
:1020200050D0554B18685B4B00EA03035A48834273
:1020300004D1514B1B689BB2022B45D04E4B186804
:10204000544B00EA0303554883423FD14A4B1C6876
:10205000A4B25348534B002C18BF03463FE0464BF5
:102060001B6813F0E04F33D0434B1868494B00EA2C
:102070000303B3F1805F2DD03F4B1868454B00EA56
:1020800003034548834204D13B4B1B689BB2022BA0
:1020900022D0394B18683F4B00EA03033F48834284
:1020A0001CD1354B1C68A4B23F48404B002C18BFD4
:1020B000034614E04FF4004311E04FF480030EE0B8
:1020C0003B4B0CE03A4B0AE0364B08E0344B06E061
:1020D000384B04E0374B02E0344B00E0324B002A2F
:1020E00003DA12F4006F03D031E011F4006F2ED147
:1020F000214C606E246814F0E04F07D01E4C256818
:10210000244C05EA0404B4F1805F0CD1C0F34814F8
:1021100004F1020404FB03F300F01F0404F10204C1
:10212000B3FBF4F30BE0C0F3481404FB03F300F03B
:102130001F0404F101044FEA4404B3FBF4F310F468
:10214000804F18BF5B0810F4004F18BF9B0811F4B4
:10215000800F3ED0002A36DA12F0804F2CD012F4D5
:10216000006F29D14FEA4303C2F3865202F1010204
:10217000B3FBF2F32DE000BF00E00F401028800712
:1021800010288000C20A8E04C20ACE04C202CE0405
:10219000583600000000FF7000000110000003101E
:1021A0000024F400001BB70000093D00C0C62D004C
:1021B000C0E1E40070383900C2F3C55202F10102F7
:1021C000B3FBF2F305E0C1F3C35101F10101B3FB2D
:1021D000F1F3024A136002B030BC7047EC030020F8
:1021E00000487047B436000008B501F017F808BD84
:1021F00008B5FFF743FD08BD08B572B64FF0000201
:10220000044B1A7000F036F862B6FFF7EDFCFFF7EA
:1022100037FDFCE700000020F8B504460D461646E1
:102220001F4601F1FF33DBB23E2B04D90E484FF0BD
:102230006001FFF733FD04F104003146FAB200F00B
:1022400075F92575204600F07FF9069B0BB9079BB1
:1022500023B105484FF06A01FFF720FD2046089999
:1022600000F0D6FBF8BD00BFBC36000008B500F09A
:1022700087F908BD2DE9F0472C4B1B7823B12C487A
:102280004FF03001FFF70AFD2A4B1B78002B48D096
:1022900028490B78284AD35C03F1FF33DBB2C91815
:1022A0004978525C02EBC30303F0FF03234A127820
:1022B000934238D9224A1278934234D91F4A92F86D
:1022C00000A05FFA8AF91F4F90461A4E57F8235024
:1022D00088F8003062B6284600F09EF8044628468A
:1022E000214600F0EFFB204600F068F972B6337823
:1022F00093B13378104AD35C03F1FF33DBB2F118AA
:102300004978525C02EBC30303F0FF03994503D203
:102310000B4A12789342D9D8084B83F800A0BDE845
:10232000F087064B1B78BDE8F08700BFF90300205B
:10233000C0360000F0030020FC3600000000002042
:10234000FC03002000040020024672B6044B1878FB
:102350001B7893423CBF024B1A7062B6704700BFB5
:10236000FC03002008B572B6044B1B78834203D9E6
:10237000024B1870FFF77EFF62B608BDFC03002019
:1023800038B504460D4672B68B781BB1CB7803F195
:102390000103CB706368BBB965601A4B1D78227D61
:1023A0001949885C19490C18647845EA04041C70C2
:1023B0001B1858788A5C40EA02025A70144B1B784A
:1023C000F3B9FFF757FF1BE0E37B23B911484FF048
:1023D0004901FFF763FC627BA36843F82250637BEB
:1023E0000BB9237B6373637B03F1FF336373E37B7D
:1023F00003F1FF33DBB2E373227C9A4288BF23747C
:1024000062B638BDF0030020A03800001838000084
:10241000F9030020CC36000038B5044672B6436894
:1024200023B919484FF03001FFF738FC6068E37BAF
:10243000227B93420ED0A17BA56855F821506560A0
:1024400001B9A273A27B02F1FF32A27303F101036F
:10245000E37316E04FF000036360227D0B4B995C41
:102460000B4B5B185C780B4DAA5C04EA02025A70B5
:102470005B7833B9064B1C7869184A7804EA020283
:102480001A7062B638BD00BFD4360000A038000014
:10249000F00300205C38000010B504463F2803D844
:1024A000074B53F8203023B906484FF05C01FFF783
:1024B000F5FB72B662B6024B53F82430187C10BD9F
:1024C00000040020D436000070B50C46057D114B89
:1024D0005E5D03290BD9104B1B888B4207D935B1A0
:1024E0003F2D04D80D4B53F82530834204D00C48BF
:1024F0004FF03001FFF7D2FB72B60A4B1B6803EBBB
:10250000C404A25D084B5B5D42EA0303A35562B6B7
:1025100070BD00BFA038000084050020000400202A
:10252000DC36000080050020183800004FF0000362
:1025300003604160027243728372C2720273704719
:1025400000487047E436000038B50546047D04F1C4
:10255000FF33DBB23E2B03D8074B53F8243023B1B3
:1025600006484FF04001FFF799FB72B6024B43F863
:10257000245062B638BD00BF00040020EC360000D5
:1025800010B5047D04F1FF33DBB23E2B04D8094BB8
:1025900053F82430834204D007484FF05401FFF72A
:1025A0007DFB72B64FF00002024B43F8242062B666
:1025B00010BD00BF00040020EC36000038B5044612
:1025C0008578EDB172B6C378012B04D903F1FF33DE
:1025D000C37062B638BD05F1FF35EDB262B6094B86
:1025E0001B78AB4204D808484FF04601FFF756FB72
:1025F00005EB8505054B03EB8500214600F094F9BA
:1026000038BD00BF04050020F43600000805002096
:102610002DE9F843054689464FF00004174E184F40
:10262000DFF860800AE004F10104E4B23B78A342E1
:1026300004D840464FF03001FFF730FB04EB840331
:1026400006EB83039B89AB42EDD304EB84000B4B79
:1026500003EB800000F0DEF8054620B909484FF092
:102660003A01FFF71BFBA5F8009004F10104AC70E0
:102670004FF00003EB702846BDE8F8830805002002
:1026800004050020FC370000F8B506460F46154645
:10269000164B1B78052B04D915484FF02E01FFF778
:1026A000FDFA124B1B7873B103F1FF3303EB830385
:1026B0000E4A02EB83031B8AAB4204D30C484FF053
:1026C0003101FFF7EBFA094C04F10402237803EB24
:1026D000830302EB830031463A462B4600F0CAF8EA
:1026E000237803F101032370F8BD00BF0405002027
:1026F00004380000014B1860998070478005002065
:102700002DE9F84F07460288224B1B889A4204D3D2
:1027100021484FF03101FFF7C1FA72B6BB781BB107
:10272000FB7803F10103FB7062B64FF0080BDFF892
:102730007490DFF874A0194E0BF1FF3B5FFA8BFB2E
:102740003A8817490B6803EBC20313F80B40CCB16E
:102750004FEACB085FFA88F819F804501AF80530E8
:102760001C404544EDB256F8253023B90A484FF0D5
:102770005901FFF793FA56F825003946FFF700FE96
:10278000002CE9D1BBF1000FD6D13846FFF716FF78
:10279000BDE8F88F840500200C38000000040020FC
:1027A00080050020FC3600005C380000F8B572B6E9
:1027B000164B1C68002C27D01E464FF00005144F06
:1027C000238A03F1FF339BB22382BBB9638A0BB127
:1027D00023820DE033689C4202D1A368336006E097
:1027E000A3680BB162685A606368A2689A6065600A
:1027F00062B6E0682146FFF7C3FD01E062B63D70B6
:1028000072B6A468002CDBD162B6F8BD8C0500203E
:1028100088050020034672B6006850B102681A604D
:102820001A8A02F1FF3292B21A82598A914288BF03
:102830005A8262B6704700BF10B5044618B10A4B01
:102840001B78834204D209484FF04501FFF726FA6E
:1028500072B662B604F1FF3404EB8404044B03EB5C
:102860008404608A10BD00BF04050020E438000025
:10287000080500202DE9F041044617461E4688460B
:1028800031B1032A04D903F104039BB29E4204D35D
:1028900024484FF03601FFF701FAC4F800804FF0EA
:1028A0000403A381042E0CD94FF004034FF001055B
:1028B00003F104039BB205F101059E42F8D8A38100
:1028C00003E04FF004034FF001051E469F4204D27F
:1028D00014484FF04401FFF7E1F9BF1B4FF001032B
:1028E000E3812268BE4210D84FEA8505C6F1000197
:1028F000BF1B00E01A4653191360E28902F101027E
:10290000E2817F18F742F5D300E013464FF0000252
:102910001A60E28922826282C4F80480A360BDE862
:10292000F08100BFEC38000038B504460D4643681E
:102930008B4206D88368994203D8028AC3899A4297
:1029400004D907484FF02D01FFF7A8F972B62368A4
:102950002B602560238A03F10103238262B638BD10
:10296000F838000038B504460D46032904D8074856
:102970004FF02901FFF792F94FF000036360A36065
:10298000E360238263822580A37038BD0039000094
:1029900070B504460D4616462AB10388032B02D9AA
:1029A000436803B921B909484FF03001FFF776F9C0
:1029B00026826460E56072B6054B1B68A36003B1B4
:1029C0005C60034B1C6062B670BD00BF0C39000038
:1029D0008C05002072B643689BB10C4A1268904285
:1029E00003D18268094B1A6005E0826802B1536026
:1029F000436882689A604FF0000343604FF0010023
:102A000001E04FF0000062B6704700BF8C05002067
:102A10002DE9F04186B0054603689847022804D0A6
:102A200024484FF02D01FFF739F9234E234F07F1CA
:102A300004082C68009428463946A0472B68B34206
:102A400032D04FF0000404F10104E4B262B206A9EE
:102A500001EB820242F8183C2846394698472B6819
:102A6000B342F0D1009E2E6063B2052B04DD114805
:102A70004FF04401FFF712F963B206AA02EB830399
:102A800053F8183C28464146984704F1FF34E4B215
:102A900014F0800FF0D028460949B0470228C8D06A
:102AA0002E6006B0BDE8F0812C6026464FF0000491
:102AB000E2E700BF14390000F92C000034390000AF
:102AC000403900002DE9F04786B005460C460668FF
:102AD0002F6828462146B8470328F9D0022840F03D
:102AE000F480D5F80090CDF800900196BE420CD04D
:102AF0007C4CA4F1080828462146B04710B9284666
:102B00004146B0472E68B742F5D14F4508D1284617
:102B10007449B847DDE014F0800F00F0878095E03D
:102B200028467149C8472C68A74200F0D280284641
:102B30006D49B847D5F80080A04503D128466949BA
:102B4000B847C6E0C14503D128466649B8477DE08D
:102B5000019428466449A047032829D14FF0010475
:102B6000DFF8849100E0344604F10106F6B22B68E8
:102B700072B206A901EB820242F8183C9F4208D1CA
:102B800076B2052EC7DD59484FF07A01FFF786F877
:102B9000C1E72846494698470328E4D0344676B230
:102BA000052E07DD51484FF08501FFF777F801E06A
:102BB0004FF0010428464B49B84723465AB206A9AC
:102BC00001EB820252F8182C904503D103F1FF3338
:102BD000DCB2A0E703F1FF33DBB213F0800FEDD0DE
:102BE0004FF0010A3F4EA6F1080927462846314614
:102BF000C04710B928464946C047D5F800803B4633
:102C00005AB206A901EB820252F8182C424503D1B0
:102C100003F1FF33DCB27EE703F1FF33DBB213F0E5
:102C2000800FEDD0BAF1000FE0D174E7304E63B2FF
:102C300006AA02EB830353F8183C2846314698470E
:102C400004F1FF34E4B214F0800FF0D0009E2E6047
:102C5000DFF8A090A9F1080832E02C68009428461B
:102C60002149A0472B68B34236D04FF000041E4FD5
:102C700004F10104E4B262B206A901EB820242F857
:102C8000183C2846394698472B68B342F0D1009E3D
:102C90002E6063B2052B04DD14484FF0D901FEF716
:102CA000FDFF63B206AA02EB830353F8183C2846E3
:102CB0004146984704F1FF34E4B214F0800FF0D09D
:102CC00028464946B0470228C7D02E6006B0BDE866
:102CD000F0874FF00004A9E72C6026464FF000046F
:102CE000DFE700BF3C390000343900002039000024
:102CF00038390000403900004FF00100704700BF34
:102D0000004870472C3900002DE9114087B090F839
:102D100000F091F800F091F820F0042AC0F05781FB
:102D2000C1F1000313F0030311D05FEAC37CA2EBEF
:102D3000030244BF11F8013B00F8013B21BF11F829
:102D4000014B11F801CB00F8014B00F801CB80EAF0
:102D5000010C1CF0030F50D18DE8E00FC0F100030F
:102D600013F01C0316D0934288BF02F01C035FEAE5
:102D7000037C24BFF0C9F0C044BFB1E80003A0E861
:102D8000000313F0040F1CBF51F804AB40F804AB70
:102D9000A2EB0302203A0DD321F01F0C0CF1400CE2
:102DA000B1E8F00F9CF840F0203AA0E8F00FF7D21D
:102DB00002F1200212F01F0F1AD05FEA027C24BF3A
:102DC000F0C9F0C044BFB1E80003A0E800035FEA27
:102DD000827C24BF51F8043B40F8043B44BF31F8E7
:102DE000024B20F8024B12F0010F1CBF0B7803704E
:102DF000BDE8E00FBDE811407047042AC0F0E7804D
:102E00008DE8E00FC0F1000505F003054FEAC50CA1
:102E1000CCF1200E51F8043BA2F10402ED0744BFAF
:102E200000F8013B1B0A21BF00F8013B1B0A00F818
:102E3000013B1B0A042AC0F0BC8010F01C0F0FD00D
:102E400051F8045BA2F1040205FA0EF443EA04040B
:102E500025FA0CF340F8044B042AEED2C0F0A98006
:102E6000203AC0F09280BCF1180F60D0BCF1080F7E
:102E70002ED051F804CB6446B1E8E00F91F840F051
:102E8000203A28BF51F804CB43EA04434FEA1444E4
:102E900044EA05444FEA154545EA06454FEA164619
:102EA00046EA07464FEA174747EA08474FEA1848F5
:102EB00048EA09484FEA194949EA0A494FEA1A4AD1
:102EC0004AEA0B4AA0E8F8074FEA1B43D3D25CE07A
:102ED00051F804CB6446B1E8E00F91F840F0203A95
:102EE00028BF51F804CB43EA04634FEA142444EAB0
:102EF00005644FEA152545EA06654FEA162646EAB7
:102F000007664FEA172747EA08674FEA182848EA92
:102F100009684FEA192949EA0A694FEA1A2A4AEA6E
:102F20000B6AA0E8F8074FEA1B23D3D22DE051F833
:102F300004CB6446B1E8E00F91F840F0203A28BF96
:102F400051F804CB43EA04234FEA146444EA05240D
:102F50004FEA156545EA06254FEA166646EA072652
:102F60004FEA176747EA08274FEA186848EA09282E
:102F70004FEA196949EA0A294FEA1A6A4AEA0B2A0A
:102F8000A0E8F8074FEA1B63D3D2CEF1200C02F180
:102F90002002042A0DD351F8045BA2F1040205FAC1
:102FA0000EF443EA040425FA0CF340F8044B042A17
:102FB000F1D25FEA0E7544BF00F8013B1B0A22BF45
:102FC00000F8013B1B0A00F8013B9DE8E00FD20727
:102FD00044BF11F8012B00F8012B21BF11F8013B70
:102FE00091F800C000F8013B80F800C007B0BDE8D0
:102FF0001140704770B500240C4D0D4E761BB61075
:1030000003E055F8043B01349847B442F9D1094D27
:10301000FEF726FF084E0024761BB61003E055F895
:10302000043B01349847B442F9D170BD7C390000AB
:103030007C3900007C3900007C390000884203465E
:10304000F0B40C460ED98D18A8420BD242B18318A9
:1030500029469A1A11F8014D03F8014D9342F9D10E
:10306000F0BC70470F2A38D941EA000515F0030F6C
:1030700035D1A2F1100601F110050B4602463709C1
:1030800005EB07151C6814605C6854609C689460CC
:10309000DC681033D46010329D42F3D17C1C06F002
:1030A0000F022401032A00EB0403214414D9043A3B
:1030B0000C461D464FEA920C01EB8C07043754F87E
:1030C000046BBC4245F8046BF9D10CF1010402F029
:1030D0000302A4001B1909190C46002AC0D021467E
:1030E000A21811F8014B914203F8014BF9D1B7E74F
:1030F000032AC9B2F0B408D82AB10346121803F85B
:10310000011B9342FBD1F0BC70478218044601E0DA
:1031100004F8011B14F0030FFAD1151B4FF0013610
:10312000072D06FB01F603DD0AE044F8046B151BCE
:10313000032DFADC01E004F8011BA242FBD8E2E710
:1031400014F0070F02D044F8046BF9E74FF0013395
:1031500003FB01F3171B254680347F2F40DD44F825
:10316000803C44F87C3C44F8783C44F8743C44F897
:10317000703C44F86C3C44F8683C44F8643C44F8C7
:10318000603C44F85C3C44F8583C44F8543C44F8F7
:10319000503C44F84C3C44F8483C44F8443C44F827
:1031A000403C44F83C3C44F8383C44F8343C44F857
:1031B000303C44F82C3C44F8283C44F8243C44F887
:1031C000203C44F81C3C44F8183C44F8143C44F8B7
:1031D000103C44F80C3C44F8083C44F8043CB9E783
:1031E000571B2C4620351F2F10DD45F8203C45F895
:1031F0001C3C45F8183C45F8143C45F8103C45F893
:103200000C3C45F8083C45F8043CE9E7151B072D44
:103210008EDD236063600834F8E700BFEFF31080B1
:1032200072B606498A68FF231B041A438A604A68FB
:103230001B029A434A6080F31088704718ED00E043
:1032400072B609480121C9060160084800780028C3
:1032500004D0C908064803B486B0704762B6704708
:10326000FFF708F862B600DF04ED00E0F00300208D
:103270006032000008B0704774756E6E656C2E6326
:1032800000000000E03200003700000018330000AA
:10329000050000002033000003000000243300007C
:1032A0000300000028330000040000002C3300005D
:1032B0000400000030330000070000003833000035
:1032C0000700000040330000070000004833000002
:1032D000070000000C0000000D0000008801002025
:1032E0007F090906007C080404003854545800483B
:1032F0005454240048545424000000007F494936A7
:10330000003C40407C00043F4400043F44003844FB
:103310004438007C0404780007060604040000001A
:103320000101010002070200090606090006060065
:103330000000081408000000000014081400000039
:103340000022140814220000492A146B142A490090
:103350000E00000001000000130000001900000032
:103360006D696E65312E63000E00000002000000E2
:10337000130000002D0000006D696E65322E6300A1
:1033800098030020B4030020B080048010400000A7
:10339000B080048012400000B18004801040000022
:1033A000B180048012400000000000000000004FC7
:1033B00000000007000700147F147F14242A7F2ACE
:1033C0001223130864623649552250000503000099
:1033D000001C2241000041221C0014083E08140871
:1033E000083E08080050300000080808080800607F
:1033F00060000020100804023E5149453E00427F13
:10340000400042615149462141454B311814127F19
:103410001027454545393C4A4949300171090503A2
:103420003649494936064949291E0036360000000A
:1034300056360000081422410014141414140041DC
:103440002214080201510906324979413E7E1111C8
:10345000117E7F494949363E414141227F41412207
:103460001C7F494949417F090909013E4149497A7F
:103470007F0808087F00417F41002040413F017FD5
:10348000081422417F404040407F020C027F7F04AD
:1034900008107F3E4141413E7F090909063E4151E6
:1034A000215E7F09192946464949493101017F01B9
:1034B000013F4040403F1F2040201F3F4038403FD9
:1034C00063140814630708700807615149454300F5
:1034D0007F41410002040810200041417F000402A6
:1034E00001020440404040400001020400205454C6
:1034F00054787F484444383844444420384444484D
:103500007F3854545418087E0901020C5252523E1E
:103510007F0804047800447D40002040443D007F43
:103520001028440000417F40007C041804787C0887
:1035300004047838444444387C14141408081414DF
:10354000187C7C080404084854545420043F444028
:10355000203C4040207C1C2040201C3C4030403C13
:1035600044281028440C5050503C4464544C4400AF
:103570000836410000007F000000413608000201CB
:10358000020402000480AE80E30680AD808A80E3FE
:103590000680A8801F80E30480C880E30480A080A8
:1035A000E30480D880E304800580E304804080E366
:1035B000068081805D80E30680D9801180E30680EB
:1035C000D5800180E30680D3800080E30480AF8053
:1035D000E30000000480AE80E304800480E3048004
:1035E0001280E3068081802B80E30480A180E304C5
:1035F000804080E30680D3800080E30680A8800FAF
:1036000080E30480A480E30480A680E30480B0808B
:10361000E30480C880E30680D5807280E30680D80A
:10362000800080E30680D9802280E30680DA801261
:1036300080E30680DB800F80E30680AD808B80E333
:103640000480AF80E3000000040000006273702E6D
:10365000630000000500000040420F0000201C0035
:1036600080841E0000802500999E360000403800AE
:1036700000093D0000803E0000004B00404B4C0024
:1036800000204E00808D5B0000C05D000080700057
:1036900000127A0000007D0080969800001BB700A1
:1036A0000080BB00C0E8CE00647ADA000024F40099
:1036B0000000FA00342E322E30340000716B00000E
:1036C000716B5F73636865640000000071615F6621
:1036D00069666F0071615F6765745F0071615F7338
:1036E00075620000342E322E3034000071665F6146
:1036F0006374000071665F676300000000010202EE
:103700000303030304040404040404040505050579
:103710000505050505050505050505050606060655
:103720000606060606060606060606060606060639
:103730000606060606060606060606060707070725
:103740000707070707070707070707070707070709
:1037500007070707070707070707070707070707F9
:1037600007070707070707070707070707070707E9
:1037700007070707070707070707070708080808D5
:1037800008080808080808080808080808080808B9
:1037900008080808080808080808080808080808A9
:1037A0000808080808080808080808080808080899
:1037B0000808080808080808080808080808080889
:1037C0000808080808080808080808080808080879
:1037D0000808080808080808080808080808080869
:1037E0000808080808080808080808080808080859
:1037F00008080808080808080808080871665F6EC5
:103800006577000071665F706F6F6C0071665F7046
:10381000737075620000000000010204081020406F
:10382000800102040810204080010204081020409A
:10383000800102040810204080010204081020408A
:10384000800102040810204080010204081020407A
:10385000800102040810204080000000FFFEFDFBF4
:10386000F7EFDFBF7FFEFDFBF7EFDFBF7FFEFDFB66
:10387000F7EFDFBF7FFEFDFBF7EFDFBF7FFEFDFB56
:10388000F7EFDFBF7FFEFDFBF7EFDFBF7FFEFDFB46
:10389000F7EFDFBF7FFEFDFBF7EFDFBF7F0000002C
:1038A0000000000000000000000101010101010111
:1038B00001020202020202020203030303030303E2
:1038C00003040404040404040405050505050505B2
:1038D0000506060606060606060707070707070782
:1038E00007000000716D705F67657400716D705F37
:1038F000696E697400000000716D705F707574000E
:103900007174655F63746F72000000007174655FAD
:1039100061726D007168736D5F696E69000000000F
:103920007168736D5F64697300000000342E322E7D
:103930003034000000000000010000000200000020
:103940000300000047616D65204F7665720000003E
:1039500020202020202020202000000053636F72B0
:10396000653A0000737461727475705F73746D33BF
:0C39700032663130785F636C00000000AC
:04397C004000000007
:0400000300001DF1EB
:00000001FF
