:1000000004060020E50C0000C90C00000000000000
:10001000C90C0000C90C0000C90C0000C90C00008C
:10002000C90C0000C90C0000C90C0000C90C00007C
:10003000C90C0000C90C0000C90C0000490B0000ED
:10004000C90C0000C90C0000C90C0000C90C00005C
:10005000C90C0000C90C0000C90C0000C90C00004C
:10006000C90C0000C90C0000C90C0000C90C00003C
:10007000C90C0000C90C0000C90C0000C90C00002C
:10008000C90C0000C90C0000C90C0000C90C00001C
:10009000C90C0000C90C0000C90C0000C90C00000C
:1000A000C90C0000C90C0000C90C0000C90C0000FC
:1000B000C90C0000C90C0000C90C0000C90C0000EC
:1000C000C90C0000C90C0000C90C0000C90C0000DC
:1000D000C90C0000C90C0000C90C0000C90C0000CC
:1000E000C90C0000C90C0000C90C0000C90C0000BC
:1000F0002DE9F04184B005460C4600F007FD00F004
:1001000045F92846214600F023FD01F061FA1D4D16
:1001100028464FF0070101F005F905F138004FF0CE
:1001200050014FF0080201F0C7F8174F05F188059C
:100130004FF0000426464FF0050804F10104E4B234
:1001400057F8040F00960196029621462A46434628
:1001500001F07AFA05F11405052CEED10B4B186865
:100160004FF000040094019402944FF00601084AF5
:100170004FF0050301F068FA01F030FA204604B0B0
:10018000BDE8F08100000020F81D0000301B0000D9
:10019000EC00002010B504464FF0050100F0E0FF30
:1001A00020464FF0060100F0DBFF024B23604FF0CA
:1001B000020010BDB9010000F8B504460D460B88D9
:1001C000062B00F0C680082B03D0052B40F0C6801C
:1001D0003EE000F025FD2D79042D02D863195B7FE8
:1001E00023B164484FF0600100F068FD2846624981
:1001F00000F0F0FC05F10103604A82FB03124FEAB4
:10020000620202EB82029B1ADBB2E218127EC2B9D2
:100210006219127EAAB961194FF001020A76E31839
:100220001A764FF006004FF0040101F009F805714D
:1002300001F07EF82846524900F0CCFC4FF0000057
:10024000F8BD64194FF0010363774FF00000F8BD6B
:1002500000F0E6FC2D79042D02D863195B7F23B1F1
:1002600044484FF0740100F029FD2846454900F04C
:10027000B1FC05F10103414E86FB03264FEA6606F9
:1002800006EB86069E1BF6B263191B7E012B03D17B
:10029000A3191B7E012B04D036484FF0790100F0E2
:1002A0000DFD62194FF000031376A219137605F1C4
:1002B0000403324F87FB03174FEA670707EB8707F3
:1002C000DF1BFFB2E3195B7FC3B1E3191B7EABB940
:1002D000E3194FF001021A7665192A764FF00002F1
:1002E0005A774FF006004FF0040100F0A9FF0771A4
:1002F00001F01EF83846224900F06CFCA3195B7F20
:10030000002B30D006F101031C4A82FB03124FEA96
:10031000620202EB82029B1ADBB2E218127E002A12
:1003200024D1E3184FF001021A76A41922764FF077
:10033000000565774FF006004FF0040100F080FFE4
:10034000067100F0F5FF30460D4900F043FC2846E9
:10035000F8BD01F03FF94FF00000F8BD0A4B036013
:100360004FF00300F8BD4FF00000F8BD4FF0000063
:10037000F8BD00BF281B0000F82000006766666615
:100380000421000010210000D11A0000084B094A86
:100390001A604FF000021A765A775A769A779A7650
:1003A000DA77DA7683F820201A7783F821207047ED
:1003B0000001002095010000044B4FF07A021A6002
:1003C00098604FF003025A60704700BF000002407F
:1003D0000138FDD17047704710B50446064A53698D
:1003E000002BFCD0054B1868FFF7F2FF024B9C6016
:1003F0004FF001025A6010BD0000024024010020AD
:1004000038B505460A4A5369002BFCD0094B1C68D5
:100410002046FFF7DDFF064B9D604FF005025A6056
:100420001A465369002BFCD02046FFF7D1FF38BD98
:1004300000000240240100202DE9F04191B1054661
:100440004618094C094F4FF001086369002BFCD096
:100450003868FFF7BDFF15F8013BA360C4F80480BE
:10046000B542F2D1BDE8F081000002402401002035
:1004700070B54FF08000FFF79FFF1B4B1E79002ED9
:100480001A4B03F1080018BF18464FF00601FFF79A
:10049000D3FF4FF05F044FF000052846FFF79CFFA5
:1004A000013CFAD14FF00000FFF7AAFF4FF08000A7
:1004B000FFF782FF002E0E4B03F1080018BF18460D
:1004C0004FF00601FFF7B8FF4FF00004254628461D
:1004D000FFF782FF04F101045F2CF8D14FF0000018
:1004E000FFF78EFF70BD00BF24010020341B000009
:1004F000441B00002DE9F84306460C4615464FF014
:100500008000FFF759FF002D14BFB120B020FFF786
:1005100063FF4FF08000FFF75FFF2F4B5D792819D5
:1005200000F00F00FFF758FF4FF08000FFF754FF77
:100530006519C5F3031040F01000FFF74DFF4FF0B1
:100540004000FFF749FF3378002B3AD1BDE8F8832C
:1005500004F106045A2C1CD803EB8303A3F1A0007A
:1005600038184146FFF768FF5A2C03D02E4615F87D
:10057000013B2BB94FF00000FFF742FFBDE8F883C5
:100580004846FFF729FF15F8013C002BE0D1BDE8F4
:10059000F883C4F15F05114C03EB8303E018A0F16D
:1005A00080002946FFF748FF3378A3F1200303EBCF
:1005B0008303E418651995F82000FFF721FFBDE8D3
:1005C000F8835A2CE5D806F10105054F4FF00508D0
:1005D0004FF00009C0E700BF24010020341B0000D9
:1005E000541B00002DE9F84F054614461F460A9B90
:1005F0001C4A92F805A08A448BB3CAF3031848F04A
:10060000100803EB04094FF080060AF00F0A07F107
:10061000FF3B3046FFF7D0FE002C14BFB120B020C6
:10062000FFF7DAFE3046FFF7D7FE5046FFF7D4FE5D
:100630003046FFF7D1FE4046FFF7CEFE4FF04000B8
:10064000FFF7CAFE28465946FFF7F6FEED1915F8E2
:10065000010CFFF7D5FE04F101044C45D9D1BDE8EA
:10066000F88F00BF240100202DE9F8430446664BB3
:10067000D3F8042142F48052C3F80421D3F80821AE
:1006800042F00202C3F808215B68C3F30033DEB214
:100690005E4A1371002E00F09C804FF004025B4B09
:1006A0005A71594BD3F8082142F00802C3F80821C7
:1006B0004FF00100FFF78CFE554BD3F8002442F0B9
:1006C0008002C3F800244FF08002C3F80022514B8F
:1006D000D3F8002422F00C02C3F80024D3F820241D
:1006E00042F00C02C3F82024D3F8002542F00C029B
:1006F000C3F80025D3F8182522F00C02C3F81825FA
:10070000D3F80C2542F00C02C3F80C25D3F81025C1
:1007100042F00C02C3F81025D3F81C2542F00C025D
:10072000C3F81C25D3F8282522F00C02C3F828258D
:1007300003F5D8331A6A42F010021A62364B374A70
:10074000002C0CBF14461C4604EB84044FEA8404BE
:10075000334B1B6803F1FF331B19B3FBF4F404F1B3
:10076000FF34304BDC60DB6803F1010303EB031360
:100770004FEA8303254A13604FF00004DFF8A88096
:1007800008F51377B9461AE046B308F5FE75631904
:100790005878FFF711FE04F10200615D2818A1F1FD
:1007A0000201FFF749FE635D08EB0402D31893F8DA
:1007B000FC01FFF725FE2B5D03F10103E418002E79
:1007C0000CBF71234D239C42DED3FFF751FEBDE8E1
:1007D000F8834FF024020D4B5A7178E7E3195878EB
:1007E000FFF7EAFD04F10200E15D3818A1F1020112
:1007F000FFF722FEE35D08EB0402D31893F84C02E6
:10080000FFF7FEFD4D46D6E700E00F402401002033
:100810000070004000500040801A0600A0860100D1
:100820000C02002000000240341B00002DE9F041C2
:100830004FF000041E4F07F51376B04619E013B3CE
:1008400007F5FE7563195878FFF7B6FD04F102004D
:10085000615D2818A1F10201FFF7EEFD635D3A1911
:10086000D31893F8FC01FFF7CBFD2B5D03F10103D7
:10087000E418104B1B79002B0CBF71224D229442BF
:10088000DDD3BDE8F081A3195878FFF795FD04F199
:100890000200A15D3018A1F10201FFF7CDFDA35DBB
:1008A0003A19D31893F84C02FFF7AAFD4546DCE746
:1008B000341B00002401002008B54FF08000FFF732
:1008C0007BFD4FF0AE00FFF787FD4FF08000FFF794
:1008D00083FD4FF0AD00FFF77FFD4FF08000FFF785
:1008E0007BFD4FF08A00FFF78BFD08BD10B5044675
:1008F000084B1B781BB94FF00102064B1A702046BB
:100900004FF0040100F02CFC034B23604FF0020079
:1009100010BD00BF2C0100201D09000038B50446A1
:100920000B8803F1FF33082B2CD8DFE803F0052BED
:100930002B18182B2B2B11004FF00005458500F1CB
:10094000180021464FF00F0200F01CFE284638BD6B
:1009500000F066F90F4B23604FF0020038BD0E4BDC
:10096000C41A4FEAA4040D4B03FB04F30A79DBB26B
:100970009A420CD10A484FF0790100F09FF94FF0EC
:10098000000038BD074B03604FF0030038BD4FF047
:10099000000038BDA909000030010020A38B2EBA49
:1009A000F41D0000D11A000010B504460B88042B7A
:1009B00019D0052B29D0012B3AD14FF006004FF06A
:1009C000080100F03DFC01461D4BE41A4FEAA40467
:1009D0001C4B03FB04F404711B4B186800F07AFBFA
:1009E0004FF0000010BD164BC31A4FEAA303154A7F
:1009F00002FB03F30A79DBB29A4219D100F010F935
:100A0000124B23604FF0020010BD0D4BC41A4FEA89
:100A1000A4040C4B03FB04F30A79DBB29A420CD119
:100A20000B484FF0910100F049F94FF0000010BD64
:100A3000084B23604FF0030010BD4FF0000010BDC5
:100A400030010020A38B2EBA301B0000590A000091
:100A5000F41D0000D11A000038B504460B8803F1DC
:100A6000FF33082B3FD8DFE803F005113E2B2B3E68
:100A70003E3E24004FF00005458500F11800214658
:100A80004FF0060200F07EFD284638BD4FF006000C
:100A90004FF0050100F0D4FB174BE41A4FEAA40411
:100AA000164B03FB04F4047100F042FC4FF000000D
:100AB00038BD00F0B5F8124B23604FF0020038BD8E
:100AC0000D4BC41A4FEAA4040C4B03FB04F30A7940
:100AD000DBB29A420CD10B484FF0AB0100F0EEF8BC
:100AE0004FF0000038BD084B03604FF0030038BDE5
:100AF0004FF0000038BD00BF30010020A38B2EBA9C
:100B00001D090000F41D0000D11A00002DE9F0417C
:100B10004FF000052C460A4E0A4F4FF02C08775133
:100B200008FB046000F118004FF0090100F014FD0B
:100B300004F1010405F12C05052CF0D1BDE8F0818C
:100B400030010020ED08000008B500F047FC08BDAA
:100B500010B500F053F91B4BD3F8082142F0050201
:100B6000C3F8082100BF00BF00BF174BD3F8002413
:100B700042F02002C3F80024D3F81C2542F02002E2
:100B8000C3F81C254FF00004C3F88040D3F80024BC
:100B900022F01002C3F80024D3F81C2542F0100202
:100BA000C3F81C254FF00100FFF75EFD0748214602
:100BB0002246FFF79FFC064821464FF00102FFF74F
:100BC00099FC10BD00E00F40006000401C210000B7
:100BD0002C21000000B583B00B788DF804304FF065
:100BE00000038DF8053000EBC0004FEA400101A87A
:100BF00001F106014FF00102FFF77CFC03B000BDDC
:100C000028B14FF02002054BC3F8802070474FF009
:100C10000002024BC3F88020704700BF0060004014
:100C200082B04FF000030193019B03F1FF32019268
:100C3000002BF9D102B07047144B1A68144BA3FB78
:100C400002134FEA1313B3F1807F10D223F07F43D6
:100C500003F1FF330F4A53604FF0E0010E4B83F86E
:100C600023104FF0000393604FF0070313604FF021
:100C70002002094B83F82320A3F540634FF00002C4
:100C800083F800234FF001021A6070470C02002025
:100C90008988888810E000E000ED00E0704700BF20
:100CA000054B4FF02002C3F880204FF00002C3F83C
:100CB000802062B6704700BF0060004072B6FEE759
:100CC00008B5FFF7FBFF08BD684620F007018D4619
:100CD00001B5034840F20711FFF7F2FFFEE700BF3E
:100CE0003C210000684620F007018D4601B5134BFA
:100CF000134A9A4208D2134A114B104852F8041B67
:100D000043F8041B8342F9D30F4B104A9A4207D28F
:100D100013464FF000010C4A43F8041B9342FBD3E7
:100D200000F0DEFEFFF7E4F909484FF48171FFF7A8
:100D3000C7FFBDE801408546704700BF00000020A6
:100D40000000002054210000AC030020000000201F
:100D50003C210000704700BFEFF30980704700BFDF
:100D600080F30988704700BFEFF30880704700BF29
:100D700080F30888704700BFEFF31280704700BF10
:100D800080F31188704700BFEFF31080704700BFF9
:100D900080F31088704700BFEFF31380704700BFE7
:100DA00080F31388704700BF00BA704740BA70479D
:100DB000C0BA704790FAA0F0704700BFD0E84F0F5C
:100DC000C0B27047D0E85F0F80B2704750E8000FA4
:100DD000704700BFC1E8400F704700BFC1E8500F27
:100DE000704700BF41E80000704700BFEFF3148078
:100DF000704700BF80F31488704700BF30B482B0E2
:100E00009A4B9B4A1A6702F5602202F5965202F14C
:100E100001021A6602F17D42A2F58052A2F10F0290
:100E20001A66944A1A674FF000030193019BB3F5C9
:100E30007A7F09D240F2E73200BF019B03F1010340
:100E40000193019B9342F7D9884B8B4A1A66894AD2
:100E50001A674FF000030193019BB3F57A7F09D223
:100E600040F2E73200BF019B03F101030193019BB4
:100E70009342F7D97D4B814A1A661B6D13F0400FE0
:100E800005D17A4A00BF136D13F0400FFAD0774BAB
:100E90007B4A1A66774A1A674FF000030193019B59
:100EA000B3F57A7F09D240F2E73200BF019B03F12C
:100EB00001030193019B9342F7D96C4B196E1A6F92
:100EC000002AB4BF02F0700301F03003202B40D0A1
:100ED00004D86BB1102B40F0F8800FE0602B66D087
:100EE000702B61D0302B40F0F08047F2305370E02F
:100EF000C1F38410634B53F820306AE05B4B1B68EE
:100F000013F0E04F56D0594B18685F4B00EA0303CB
:100F1000B3F1805F50D0554B18685B4B00EA030378
:100F20005A48834204D1514B1B689BB2022B45D0D7
:100F30004E4B1868544B00EA0303554883423FD197
:100F40004A4B1C68A4B25348534B002C18BF0346AD
:100F50003FE0464B1B6813F0E04F33D0434B18681B
:100F6000494B00EA0303B3F1805F2DD03F4B186873
:100F7000454B00EA03034548834204D13B4B1B68C1
:100F80009BB2022B22D0394B18683F4B00EA030377
:100F90003F4883421CD1354B1C68A4B23F48404BAC
:100FA000002C18BF034614E04FF4004311E04FF447
:100FB00080030EE03B4B0CE03A4B0AE0364B08E076
:100FC000344B06E0384B04E0374B02E0344B00E092
:100FD000324B002A03DA12F4006F03D031E011F42F
:100FE000006F2ED1214C606E246814F0E04F07D0C2
:100FF0001E4C2568244C05EA0404B4F1805F0CD132
:10100000C0F3481404F1020404FB03F300F01F04CE
:1010100004F10204B3FBF4F30BE0C0F3481404FB47
:1010200003F300F01F0404F101044FEA4404B3FB8E
:10103000F4F310F4804F18BF5B0810F4004F18BF92
:101040009B0811F4800F3ED0002A36DA12F0804F50
:101050002CD012F4006F29D14FEA4303C2F3865219
:1010600002F10102B3FBF2F32DE000BF00E00F40FC
:101070001028800710288000C20A8E04C20ACE04FD
:10108000C202CE04101E00000000FF70000001101C
:10109000000003100024F400001BB70000093D000D
:1010A000C0C62D00C0E1E40070383900C2F3C5525B
:1010B00002F10102B3FBF2F305E0C1F3C35101F108
:1010C0000101B3FBF1F3024A136002B030BC704778
:1010D0000C02002038B504460D4672B68B781BB161
:1010E000CB7803F10103CB70636893B96560184B4B
:1010F0001D78227D1749885C17490C18647845EAE9
:1011000004041C701B1858788A5C40EA02025A706A
:101110001BE0E37B23B911484FF04901FFF7CEFDF7
:10112000627BA36843F82250637B0BB9237B637314
:10113000637B03F1FF336373E37B03F1FF33DBB2C4
:10114000E373227C9A4288BF237462B638BD00BF25
:10115000A0030020301F0000A81E00006C1E00002D
:1011600070B50C46057D114B5E5D03290BD9104B04
:101170001B888B4207D935B13F2D04D80D4B53F84E
:101180002530834204D00C484FF03001FFF796FD24
:1011900072B60A4B1B6803EBC404A25D084B5B5D8F
:1011A00042EA0303A35562B670BD00BF301F0000C2
:1011B0009403002010020020741E00009003002001
:1011C000A81E0000004870477C1E000038B5054688
:1011D000047D04F1FF33DBB23E2B03D8074B53F8F9
:1011E000243023B106484FF04001FFF767FD72B687
:1011F000024B43F8245062B638BD00BF10020020F5
:10120000841E000010B5047D04F1FF33DBB23E2BD9
:1012100004D8094B53F82430834204D007484FF0D8
:101220005401FFF74BFD72B64FF00002024B43F83A
:10123000242062B610BD00BF10020020841E0000F2
:101240002DE9F843054689464FF00004174E184F24
:10125000DFF860800AE004F10104E4B23B78A342C5
:1012600004D840464FF03001FFF728FD04EB84031B
:1012700006EB83039B89AB42EDD304EB84000B4B5D
:1012800003EB800000F0DEF8054620B909484FF076
:101290003A01FFF713FDA5F8009004F10104AC70CA
:1012A0004FF00003EB702846BDE8F88318030020D8
:1012B000140300208C1E0000F8B506460F461546A4
:1012C000164B1B78052B04D915484FF02E01FFF75C
:1012D000F5FC124B1B7873B103F1FF3303EB83036F
:1012E0000E4A02EB83031B8AAB4204D30C484FF037
:1012F0003101FFF7E3FC094C04F10402237803EB0E
:10130000830302EB830031463A462B4600F0CAF8CD
:10131000237803F101032370F8BD00BF14030020FC
:10132000941E0000014B18609980704790030020C4
:101330002DE9F84F07460288224B1B889A4204D3B6
:1013400021484FF03101FFF7B9FC72B6BB781BB1F1
:10135000FB7803F10103FB7062B64FF0080BDFF876
:101360007490DFF874A0194E0BF1FF3B5FFA8BFB12
:101370003A8817490B6803EBC20313F80B40CCB152
:101380004FEACB085FFA88F819F804501AF80530CC
:101390001C404544EDB256F8253023B90A484FF0B9
:1013A0005901FFF78BFC56F825003946FFF792FEEE
:1013B000002CE9D1BBF1000FD6D1384600F0CCF9B2
:1013C000BDE8F88F940300209C1E0000100200204E
:1013D00090030020C01F0000EC1E0000F8B572B69C
:1013E000164B1C68002C27D01E464FF00005144FEA
:1013F000238A03F1FF339BB22382BBB9638A0BB10B
:1014000023820DE033689C4202D1A368336006E07A
:10141000A3680BB162685A606368A2689A606560ED
:1014200062B6E0682146FFF755FE01E062B63D7006
:1014300072B6A468002CDBD162B6F8BD9C03002014
:1014400098030020034672B6006850B102681A6023
:101450001A8A02F1FF3292B21A82598A914288BFE7
:101460005A8262B6704700BF10B5044618B10A4BE5
:101470001B78834204D209484FF04501FFF71EFC58
:1014800072B662B604F1FF3404EB8404044B03EB40
:101490008404608A10BD00BF14030020741F000084
:1014A000180300202DE9F041044617461E468846E1
:1014B00031B1032A04D903F104039BB29E4204D341
:1014C00024484FF03601FFF7F9FBC4F800804FF0D5
:1014D0000403A381042E0CD94FF004034FF001053F
:1014E00003F104039BB205F101059E42F8D8A381E4
:1014F00003E04FF004034FF001051E469F4204D263
:1015000014484FF04401FFF7D9FBBF1B4FF0010314
:10151000E3812268BE4210D84FEA8505C6F100017A
:10152000BF1B00E01A4653191360E28902F1010261
:10153000E2817F18F742F5D300E013464FF0000236
:101540001A60E28922826282C4F80480A360BDE846
:10155000F08100BF7C1F000038B504460D4603290A
:1015600004D807484FF02901FFF7A8FB4FF000030C
:101570006360A360E360238263822580A37038BD2B
:10158000881F000070B504460D4616462AB1038830
:10159000032B02D9436803B921B909484FF0300140
:1015A000FFF78CFB26826460E56072B6054B1B6812
:1015B000A36003B15C60034B1C6062B670BD00BFEA
:1015C000941F00009C030020004870479C1F0000EF
:1015D000704700BF08B5FFF761FB08BD2DE9F0417A
:1015E000FFF72AFB154C164FDFF8588072B62378A8
:1015F0000BB3237873B1237818F8033003F1FF336A
:10160000DBB2E218527818F8022002EBC30303F0B1
:10161000FF0301E04FF0000357F8235062B628465D
:1016200000F038F806462846314600F037F93046D3
:1016300000F092F8DAE7FFF733FBD7E7A0030020CA
:1016400010020020C01F0000F8B504460D461646E3
:101650001F4601F1FF33DBB23E2B01D8069B23B1BD
:1016600009484FF06701FFF729FB04F104003146F8
:10167000FAB200F067F825752046FFF7A7FD20466F
:10168000089900F0B1F8F8BDA41F000008B5FFF7F5
:10169000B9FD08BD38B5044672B6436823B9194888
:1016A0004FF03001FFF70AFB6068E37B227B934237
:1016B0000ED0A17BA56855F82150656001B9A273D1
:1016C000A27B02F1FF32A27303F10103E37316E080
:1016D0004FF000036360227D0B4B995C0B4B5B1852
:1016E0005C780B4DAA5C04EA02025A705B7833B94D
:1016F000064B1C7869184A7804EA02021A7062B62E
:1017000038BD00BFB01F0000301F0000A003002044
:10171000EC1E000010B504463F2803D8074B53F8D1
:10172000203023B906484FF05C01FFF7C7FA72B6C4
:1017300062B6024B53F82430187C10BD1002002012
:10174000B01F00004FF0000303604160027243725B
:101750008372C2720273704738B504468578EDB162
:1017600072B6C378012B04D903F1FF33C37062B69C
:1017700038BD05F1FF35EDB262B6094B1B78AB42BF
:1017800004D808484FF04601FFF798FA05EB8505A5
:10179000054B03EB8500214600F008F838BD00BF7B
:1017A00014030020B81F00001803002038B50446B9
:1017B0000D4643688B4206D88368994203D8028A53
:1017C000C3899A4204D907484FF02D01FFF776FAF2
:1017D00072B623682B602560238A03F101032382FC
:1017E00062B638BDC02000002DE9F04186B0054644
:1017F00003689847022804D024484FF02D01FFF7D2
:101800005DFA234E234F07F104082C680094284604
:101810003946A0472B68B34232D04FF0000404F1A0
:101820000104E4B262B206A901EB820242F8183C5C
:101830002846394698472B68B342F0D1009E2E6067
:1018400063B2052B04DD11484FF04401FFF736FA6F
:1018500063B206AA02EB830353F8183C28464146BC
:10186000984704F1FF34E4B214F0800FF0D028461A
:101870000949B0470228C8D02E6006B0BDE8F08103
:101880002C6026464FF00004E2E700BFC8200000AD
:10189000D11A0000E8200000F42000002DE9F047F4
:1018A00086B005460C4606682F6828462146B8478C
:1018B0000328F9D0022840F0F480D5F80090CDF844
:1018C00000900196BE420CD07C4CA4F1080828463A
:1018D0002146B04710B928464146B0472E68B74266
:1018E000F5D14F4508D128467449B847DDE014F0DA
:1018F000800F00F0878095E028467149C8472C6822
:10190000A74200F0D28028466D49B847D5F800803C
:10191000A04503D128466949B847C6E0C14503D16F
:1019200028466649B8477DE0019428466449A047A7
:10193000032829D14FF00104DFF8849100E03446F8
:1019400004F10106F6B22B6872B206A901EB82021D
:1019500042F8183C9F4208D176B2052EC7DD59489F
:101960004FF07A01FFF7AAF9C1E7284649469847A0
:101970000328E4D0344676B2052E07DD51484FF0F7
:101980008501FFF79BF901E04FF0010428464B4920
:10199000B84723465AB206A901EB820252F8182C26
:1019A000904503D103F1FF33DCB2A0E703F1FF332D
:1019B000DBB213F0800FEDD04FF0010A3F4EA6F1DD
:1019C0000809274628463146C04710B928464946E7
:1019D000C047D5F800803B465AB206A901EB820207
:1019E00052F8182C424503D103F1FF33DCB27EE7F5
:1019F00003F1FF33DBB213F0800FEDD0BAF1000F2B
:101A0000E0D174E7304E63B206AA02EB830353F8C9
:101A1000183C28463146984704F1FF34E4B214F0EC
:101A2000800FF0D0009E2E60DFF8A090A9F108088A
:101A300032E02C68009428462149A0472B68B34225
:101A400036D04FF000041E4F04F10104E4B262B23C
:101A500006A901EB820242F8183C2846394698470D
:101A60002B68B342F0D1009E2E6063B2052B04DDDB
:101A700014484FF0D901FFF721F963B206AA02EB2F
:101A8000830353F8183C28464146984704F1FF3435
:101A9000E4B214F0800FF0D028464946B04702283F
:101AA000C7D02E6006B0BDE8F0874FF00004A9E76C
:101AB0002C6026464FF00004DFE700BFF020000056
:101AC000E8200000D4200000EC200000F4200000FA
:101AD0004FF00100704700BF00487047E020000051
:101AE00070B500240C4D0D4E761BB61003E055F872
:101AF000043B01349847B442F9D1094DFFF72AF964
:101B0000084E0024761BB61003E055F8043B013460
:101B10009847B442F9D170BD54210000542100000F
:101B200054210000542100007461626C652E630032
:101B300000010020B080048010400000B0800480CC
:101B400012400000B180048010400000B180048089
:101B500012400000000000000000004F00000007DD
:101B6000000700147F147F14242A7F2A12231308ED
:101B7000646236495522500005030000001C2241D2
:101B8000000041221C0014083E081408083E080802
:101B900000503000000808080808006060000020BD
:101BA000100804023E5149453E00427F4000426118
:101BB0005149462141454B311814127F10274545A4
:101BC00045393C4A494930017109050336494949BB
:101BD00036064949291E00363600000056360000F8
:101BE0000814224100141414141400412214080291
:101BF00001510906324979413E7E1111117E7F491A
:101C00004949363E414141227F4141221C7F494999
:101C100049417F090909013E4149497A7F0808087D
:101C20007F00417F41002040413F017F0814224155
:101C30007F404040407F020C027F7F0408107F3EBF
:101C40004141413E7F090909063E4151215E7F091C
:101C5000192946464949493101017F01013F404068
:101C6000403F1F2040201F3F4038403F631408146E
:101C70006307087008076151494543007F414100EF
:101C800002040810200041417F00040201020440C8
:101C900040404040000102040020545454787F48E2
:101CA0004444383844444420384444487F385454E9
:101CB0005418087E0901020C5252523E7F08040457
:101CC0007800447D40002040443D007F10284400BF
:101CD00000417F40007C041804787C0804047838B4
:101CE000444444387C14141408081414187C7C08E8
:101CF0000404084854545420043F4440203C4040CD
:101D0000207C1C2040201C3C4030403C44281028B3
:101D1000440C5050503C4464544C4400083641003C
:101D200000007F00000041360800020102040200AA
:101D30000480AE80E30680AD808A80E30680A880C0
:101D40001F80E30480C880E30480A080E30480D87F
:101D500080E304800580E304804080E30680818086
:101D60005D80E30680D9801180E30680D580018004
:101D7000E30680D3800080E30480AF80E3000000AE
:101D80000480AE80E304800480E304801280E306D4
:101D90008081802B80E30480A180E304804080E385
:101DA0000680D3800080E30680A8800F80E3048053
:101DB000A480E30480A680E30480B080E30480C8AC
:101DC00080E30680D5807280E30680D8800080E3BF
:101DD0000680D9802280E30680DA801280E30680C4
:101DE000DB800F80E30680AD808B80E30480AF80D2
:101DF000E30000007068696C6F2E63003001002002
:101E00005C01002088010020B4010020E0010020D6
:101E100040420F0000201C0080841E00008025002E
:101E2000999E36000040380000093D0000803E00C9
:101E300000004B00404B4C0000204E00808D5B00AA
:101E400000C05D000080700000127A0000007D007C
:101E500080969800001BB7000080BB00C0E8CE0051
:101E6000647ADA000024F4000000FA0071615F6611
:101E700069666F0071615F7375620000342E322EE7
:101E80003034000071665F616374000071665F6EDC
:101E90006577000071665F706F6F6C0071665F70D0
:101EA00073707562000000000001020408102040F9
:101EB0008001020408102040800102040810204024
:101EC0008001020408102040800102040810204014
:101ED0008001020408102040800102040810204004
:101EE000800102040810204080000000FFFEFDFB7E
:101EF000F7EFDFBF7FFEFDFBF7EFDFBF7FFEFDFBF0
:101F0000F7EFDFBF7FFEFDFBF7EFDFBF7FFEFDFBDF
:101F1000F7EFDFBF7FFEFDFBF7EFDFBF7FFEFDFBCF
:101F2000F7EFDFBF7FFEFDFBF7EFDFBF7F000000B5
:101F3000000000000000000000010101010101019A
:101F4000010202020202020202030303030303036B
:101F5000030404040404040404050505050505053B
:101F6000050606060606060606070707070707070B
:101F700007000000716D705F67657400716D705FC0
:101F8000696E6974000000007174655F63746F723C
:101F9000000000007174655F61726D00342E312E97
:101FA000303500007176616E696C6C610000000074
:101FB00071615F6765745F0071665F676300000051
:101FC00000010202030303030404040404040404E0
:101FD00005050505050505050505050505050505B1
:101FE0000606060606060606060606060606060691
:101FF0000606060606060606060606060606060681
:102000000707070707070707070707070707070760
:102010000707070707070707070707070707070750
:102020000707070707070707070707070707070740
:102030000707070707070707070707070707070730
:102040000808080808080808080808080808080810
:102050000808080808080808080808080808080800
:1020600008080808080808080808080808080808F0
:1020700008080808080808080808080808080808E0
:1020800008080808080808080808080808080808D0
:1020900008080808080808080808080808080808C0
:1020A00008080808080808080808080808080808B0
:1020B00008080808080808080808080808080808A0
:1020C000716D705F707574007168736D5F696E69B2
:1020D000000000007168736D5F64697300000000A8
:1020E000342E322E303400000000000001000000C9
:1020F000020000000300000068756E6772792020FE
:1021000000000000656174696E6720200000000017
:102110007468696E6B696E670000000044696E69DF
:102120006E67205068696C6F7300000030202C319E
:10213000202C32202C33202C340000007374617268
:102140007475705F73746D3332663130785F636CB1
:04215000000000008B
:0400000300000CE508
:00000001FF
