:020000040000FA
:060000009AEF1BF0120054
:0600080090EF1AF0120057
:06002A000400C2380000D2
:10003000C601000005000000B8380000B40100004F
:100040000A000000B0380000BE01000008000000F7
:0C005000AE380000CE01000002000000ED
:04005C00D9CFE6FF13
:10006000E1CFD9FF130EE126FD0EDBCFE9FFFE0E37
:10007000DBCFEAFF0E0EEECFDBFF0F0EEDCFDBFF87
:10008000FD0EDBCFE9FFFE0EDBCFEAFF0C0EEECF5D
:10009000DBFF0D0EEDCFDBFF0C0EDBCF10F00D0EF6
:1000A000DBCF11F0FB0EDBCFE6FFFC0EDBCFE6FF74
:1000B000FD0EDBCFE6FFFE0EDBCFE6FF04D011C066
:1000C000FAFF1050F96EFBDFE552E552E552E552BA
:1000D000E76E100EE7CFDBFFDB500308D1E0100E18
:1000E000DB50020802E0BCEF04F0110EDB68FD0EED
:1000F000DBCFE9FFFE0EDBCFEAFFEECFDEFFEDCF79
:10010000DDFF0E0EDBCF06F00F0EDBCF07F0020E89
:1001100006C0DBFF030E07C0DBFF0E0EDBCF10F0C7
:100120000F0EDBCF11F00C0EDB50101803E10D0E9B
:10013000DB50111843E00E0EDBCF10F00F0EDBCFBB
:1001400011F0C20EE66E010EE66EFD0EDBCFE6FF8D
:10015000FE0EDBCFE6FF04D011C0FAFF1050F96E9F
:10016000FBDFE552E552E552E55200091AE10E0EB9
:10017000DBCF10F00F0EDBCF11F0BE0EE66E010EDE
:10018000E66EFD0EDBCFE6FFFE0EDBCFE6FF04D012
:1001900011C0FAFF1050F96EFBDFE552E552E5524F
:1001A000E552FD0EDBCFE9FFFE0EDBCFEAFF0E0EC0
:1001B000EECFDBFF0F0EEDCFDBFFAFD7D9CFE9FFDF
:1001C000DACFEAFF0E0EEECFDBFF0F0EEDCFDBFF37
:1001D0000C0EDBCF10F00D0EDBCF11F00E0EDB504E
:1001E00010181BE10F0EDB50111817E10C0EDBCFBE
:1001F00010F00D0EDBCF11F0C20EE66E010EE66EB2
:10020000FD0EDBCFE6FFFE0EDBCFE6FF04D011C014
:10021000FAFF1050F96EFBDF76D00E0EDBCF10F038
:100220000F0EDBCF11F0BE0EE66E010EE66EFD0E78
:10023000DBCFE6FFFE0EDBCFE6FF04D011C0FAFFF6
:100240001050F96EFBDFE552E552E552E552FD0E26
:10025000DBCFE9FFFE0EDBCFEAFF0E0EEECFDBFFBA
:100260000F0EEDCFDBFF0C0EDBCF10F00D0EDBCF52
:1002700011F00E0EDB50101804E10F0EDB501118B8
:1002800047E00C0EDBCF10F00D0EDBCF11F0BE0EF1
:10029000E66E010EE66EFD0EDBCFE6FFFE0EDBCF57
:1002A000E6FF04D011C0FAFF1050F96EFBDFE552F3
:1002B000E552E552E552FD0EDBCFE9FFFE0EDBCF46
:1002C000EAFFEECF10F0EFCF11F00E0EDB5010185A
:1002D00022E10F0EDB5011181EE10C0EDBCF10F0E7
:1002E0000D0EDBCF11F0C20EE66E010EE66EFD0EB6
:1002F000DBCFE6FFFE0EDBCFE6FF04D011C0FAFF36
:100300001050F96EFBDFE552E552E552E552000967
:10031000110EDB6AEED1FD0EDBCFE9FFFE0EDBCF67
:10032000EAFFEECF10F0EFCF11F0DF50101822E10E
:10033000DE52DD5011181EE10C0EDBCF10F00D0E59
:10034000DBCF11F0C20EE66E010EE66EFD0EDBCFC6
:10035000E6FFFE0EDBCFE6FF04D011C0FAFF10501F
:10036000F96EFBDFE552E552E552E552000901E086
:10037000C0D1BFD1120EDB6A010EF36E110EF3CFA6
:10038000DBFF0E0EDBCF06F00F0EDBCF07F0020E09
:1003900006C0DBFF030E07C0DBFFFD0EDBCFE9FF6E
:1003A000FE0EDBCFEAFF0E0EEECFDBFF0F0EEDCF22
:1003B000DBFF020EDBCF10F0030EDBCF11F0BE0E21
:1003C000E66E010EE66EFD0EDBCFE6FFFE0EDBCF26
:1003D000E6FF04D011C0FAFF1050F96EFBDFE552C2
:1003E000E552E552E552E76E100EE7CFDBFFDB503A
:1003F000030801E07CD0FD0EDBCFE9FFFE0EDBCF72
:10040000EAFFEECF14F0EFCF15F0D9CF10F0DACF2E
:1004100011F0110EDB2ADBCF12F0136A12BE136843
:10042000D8901236133610501224E96E1150132052
:10043000EA6E14C0EEFF15C0EDFFFD0EDBCFE9FF45
:10044000FE0EDBCFEAFFEECF10F0EFCF11F00C0E77
:10045000DB50101828E10D0EDB50111824E1010EBD
:10046000F36E120EF3CFDBFF110EDBCF10F0060E92
:10047000E76E1018E8AE02D0E73402D0E750105C07
:100480000DE3720EE66EE66A3B0EE66E380EE66E21
:1004900071EC1BF0E552E552E552E552110EDB0618
:1004A000100EDB6AA4D7FD0EDBCFE9FFFE0EDBCF1B
:1004B000EAFFEECF10F0EFCF11F0BE0EE66E010EA8
:1004C000E66EFD0EDBCFE6FFFE0EDBCFE6FF05D0CE
:1004D00011C0FAFF00011050F96EFADFE552E55243
:1004E000E552E552E76E100EE7CFDBFF80D7120E24
:1004F000DB5001E0FED0110EDBCF10F0060EE76EF0
:100500001018E8AE02D0E73402D0E750105C0DE3DB
:100510007D0EE66EE66A3B0EE66E380EE66E71EC18
:100520001BF0E552E552E552E5520C0EDBCF10F020
:100530000D0EDBCF11F0C20EE66E010EE66EFD0E63
:10054000DBCFE6FFFE0EDBCFE6FF04D011C0FAFFE3
:100550001050F96EFBDFE552E552E552E552000915
:10056000110EDB50E76E120EE7CFDBFF010EF36ECC
:10057000100EF3CFDBFF0E0EDBCF10F00F0EDBCF34
:1005800011F0D9CF14F0DACF15F0120EDBCF16F040
:10059000176A16BE1768D8901636173614501624E8
:1005A000E96E15501720EA6EEECF12F0EFCF13F080
:1005B000125010180EE1135011180BE1100EDB6AE7
:1005C000120EDB04E76E110EE7CFDBFF120EDB68C5
:1005D00002D0120EDB06DBCF10F01034CCE3100E8D
:1005E000DB5001E186D0010EF36E100EF3CFDBFF7E
:1005F0000E0EDBCF10F00F0EDBCF11F0C20EE66E49
:10060000010EE66EFD0EDBCFE6FFFE0EDBCFE6FF52
:1006100004D011C0FAFF1050F96EFBDFE552E5522D
:10062000E552E55200091AE10E0EDBCF10F00F0E75
:10063000DBCF11F0BE0EE66E010EE66EFD0EDBCFD7
:10064000E6FFFE0EDBCFE6FF04D011C0FAFF10502C
:10065000F96EFBDFE552E552E552E552FD0EDBCFC8
:10066000E9FFFE0EDBCFEAFF0E0EEECFDBFF0F0E33
:10067000EDCFDBFF110EDB50E76E120EE7CFDBFF95
:100680000E0EDBCF10F00F0EDBCF11F0D9CF14F030
:10069000DACF15F0120EDBCF16F0176A16BE176808
:1006A000D8901636173614501624E96E15501720B8
:1006B000EA6EEECF12F0EFCF13F0125010180EE1E9
:1006C000135011180BE1120EDB04E76E110EE7CF89
:1006D000DBFF120EDB68100EDB6A02D0120EDB06A7
:1006E000120EDBCF10F01034CBE3100EDB5001E024
:1006F0007FD7110EDBCF10F010342FE2D9CF12F0DC
:10070000DACF13F0110EDBCF14F0156A14BE1568A2
:10071000D8901436153612501424E96E1350152053
:10072000EA6EEECF10F0EFCF11F0C00EE66E010EC4
:10073000E66EFD0EDBCFE6FFFE0EDBCFE6FF04D05C
:1007400011C0FAFF1050F96EFBDFE552E552E55299
:10075000E5520009110EDB06CCD7D9CFE9FFDACF7D
:10076000EAFF0E0EEECFDBFF0F0EEDCFDBFFFD0E2F
:10077000DBCFE9FFFE0EDBCFEAFF0E0EDBCFEEFF95
:100780000F0EDBCFEDFF0E0EDBCF10F00F0EDBCF29
:1007900011F0C40EE66E010EE66EFD0EDBCFE6FF35
:1007A000FE0EDBCFE6FF04D011C0FAFF1050F96E49
:1007B000FBDFE552E552E552E552020801E0DCD0EC
:1007C000110EDB6AFD0EDBCFE9FFFE0EDBCFEAFF89
:1007D000EECFDEFFEDCFDDFFFD0EDBCFE9FFFE0E3E
:1007E000DBCFEAFFEECF10F0EFCF11F0BE0EE66EDA
:1007F000010EE66EFD0EDBCFE6FFFE0EDBCFE6FF61
:1008000005D011C0FAFF00011050F96EFADFE55271
:10081000E552E552E552FD0EDBCFE9FFFE0EDBCFE0
:10082000EAFFEECF10F0EFCF11F00E0EDB501018F4
:1008300003E10F0EDB5011183EE0FD0EDBCFE9FFA8
:10084000FE0EDBCFEAFFEECF14F0EFCF15F0D9CFDD
:1008500010F0DACF11F0110EDB2ADBCF12F0136AA1
:1008600012BE1368D8901236133610501224E96E57
:1008700011501320EA6E14C0EEFF15C0EDFFFD0EFF
:10088000DBCFE9FFFE0EDBCFEAFFEECF10F0EFCFBC
:1008900011F0BE0EE66E010EE66EFD0EDBCFE6FF3A
:1008A000FE0EDBCFE6FF05D011C0FAFF00011050AD
:1008B000F96EFADFACD7FD0EDBCFE9FFFE0EDBCF22
:1008C000EAFFDECFEEFFDDCFEDFF110EDBCF10F044
:1008D000060EE76E1018E8AE02D0E73402D0E750FB
:1008E000105C0DE3D00EE66EE66A3B0EE66E380E47
:1008F000E66E71EC1BF0E552E552E552E552D9CFB8
:1009000012F0DACF13F0110EDBCF14F0156A14BE1B
:100910001568D8901436153612501424E96E135009
:100920001520EA6EEECF10F0EFCF11F0C00EE66E9C
:10093000010EE66EFD0EDBCFE6FFFE0EDBCFE6FF1F
:1009400004D011C0FAFF1050F96EFBDFE552E552FA
:10095000E552E5520009110EDB06DBCF10F0103432
:10096000CEE3D9CFE9FFDACFEAFF0E0EEECFDBFF01
:100970000F0EEDCFDBFF07D7FD0EDBCFE9FFFE0E3D
:10098000DBCFEAFF0E0EDBCFEEFF0F0EDBCFEDFF6E
:10099000F56E130EE15C02E2E16AE552E16EF5509C
:0809A000E552E7CFD9FF120078
:0809A800D9CFE6FFE1CFD9FF32
:1009B000030EE126D950010FE96EDACFEAFF800E6F
:1009C000EE6E010EED6E010EDBCFE9FF020EDBCF06
:1009D000EAFF420EEE6E0A0EED6EDF6A050EDF5C78
:1009E00024E2010EDBCFE9FF020EDBCFEAFF0D0EA2
:1009F000E926000EEA22DF50E924E96E000EEA2023
:100A0000EA6EEF6A010EDBCFE9FF020EDBCFEAFFF1
:100A1000120EE926000EEA22DF50E924E96E000EEC
:100A2000EA20EA6EEF6ADF2AD9D7F56E030EE15CA1
:100A300002E2E16AE552E16EF550E552E7CFD9FFF7
:100A40001200D9CFE6FFE1CFD9FF050EE66EFD0E0D
:100A5000DBCFE6FFFE0EDBCFE6FFF7EC16F0E5524C
:100A6000E552E552060EE66EFD0EDBCFE6FFFE0E0A
:100A7000DBCFE6FFF7EC16F0E552E552E552FD0E4E
:100A8000DBCFE9FFFE0EDBCFEAFF9C0EEE6E0A0E17
:100A9000ED6E020EE552E7CFD9FF1200D9CFE6FF87
:100AA000E1CFD9FF040EE126FB0EDBCFE9FFFC0E00
:100AB000DBCFEAFFEF50060A01E1E7D2030A01E1CA
:100AC000DED00D0A01E0E5D2FB0EDBCFE9FFFC0E24
:100AD000DBCFEAFF020EE926000EEA22EFCFDFFFAE
:100AE000050EDF5C17E2FD0EDBCFE9FFFE0EDBCF6C
:100AF000EAFF120EE926000EEA22E9CF10F0EACF53
:100B000011F0DF500F01E924E96E000EEA20EA6ED1
:100B1000EF500DE0610EE66EE66A4D0EE66E380EA1
:100B2000E66E71EC1BF0E552E552E552E552DC0E43
:100B3000E66E370EE66EDFCFE6FF4CEC1BF0E552BB
:100B4000E552E552DF28106E050E116E0C6E10C0D6
:100B500007F0D7EC1BF0010E03C0DBFFFD0EDBCF6F
:100B6000E9FFFE0EDBCFEAFF0D0EE926000EEA22BA
:100B7000010EDB500F01E924E96E000EEA20EA6E57
:100B8000EF506AE1FD0EDBCFE9FFFE0EDBCFEAFF9F
:100B90000D0EE926000EEA22DF50E924E96E000E70
:100BA000EA20EA6EEF5058E1FD0EDBCFE9FFFE0EC2
:100BB000DBCFEAFF0D0EE926000EEA22E9CF12F0A4
:100BC000EACF13F0DF50E924E96E000EEA20EA6E66
:100BD000010EEF6EFD0EDBCFE9FFFE0EDBCFEAFF6D
:100BE0000D0EE926000EEA22E9CF10F0EACF11F04F
:100BF000010EDB50E924E96E000EEA20EA6E010ED8
:100C0000EF6E040EE66E030EE66E6DEC16F0E55226
:100C1000E552020EF3CFDBFF030EF4CFDBFF020E33
:100C2000DBCFE9FF030EDBCFEAFF020EE926000E61
:100C3000EA22DFCFEFFF020EDBCFE6FF030EDBCFB2
:100C4000E6FF82EC14F0E552E552D30EE66E370E65
:100C5000E66EDFCFE6FF13D2FD0EDBCFE9FFFE0E1F
:100C6000DBCFEAFF120EE926000EEA22DF50E9246C
:100C7000E96E000EEA20EA6E010EEF6E08D2FB0E5E
:100C8000DBCFE9FFFC0EDBCFEAFF020EE926000E08
:100C9000EA22EFCFDFFF050EDF5C17E2FD0EDBCFB0
:100CA000E9FFFE0EDBCFEAFF120EE926000EEA2274
:100CB000E9CF10F0EACF11F0DF500F01E924E96E1F
:100CC000000EEA20EA6EEF500DE0750EE66EE66A61
:100CD0004D0EE66E380EE66E71EC1BF0E552E552F5
:100CE000E552E552CA0EE66E370EE66EDFCFE6FF3E
:100CF0004CEC1BF0E552E552E552DF28106E050E74
:100D0000116E0C6E10C007F0D7EC1BF0010E03C083
:100D1000DBFFFD0EDBCFE9FFFE0EDBCFEAFF0D0EA2
:100D2000E926000EEA22E9CF10F0EACF11F0DF50F9
:100D30000F01E924E96E000EEA20EA6EEF0417E1E4
:100D4000FD0EDBCFE9FFFE0EDBCFEAFF0D0EE9263D
:100D5000000EEA22E9CF12F0EACF13F0010EDB50C9
:100D6000E924E96E000EEA20EA6EEF040DE07A0E47
:100D7000E66EE66A4D0EE66E380EE66E71EC1BF01E
:100D8000E552E552E552E552FD0EDBCFE9FFFE0EDE
:100D9000DBCFEAFF0D0EE926000EEA22E9CF12F0C2
:100DA000EACF13F0DF500F01E924E96E000EEA20CC
:100DB000EA6EEF6AFD0EDBCFE9FFFE0EDBCFEAFF46
:100DC0000D0EE926000EEA22010EDB50E924E96E41
:100DD000000EEA20EA6E000EEF6E040EDF24106EA5
:100DE000050E116E0C6E10C007F0D7EC1BF0010E53
:100DF00003C0DBFFFD0EDBCFE9FFFE0EDBCFEAFF1A
:100E0000120EE926000EEA22010EDB500F01E92442
:100E1000E96E000EEA20EA6EEF5001E187D0FD0E88
:100E2000DBCFE9FFFE0EDBCFEAFF0D0EE926000E59
:100E3000EA22E9CF12F0EACF13F0010EDB50E924E9
:100E4000E96E000EEA20EA6EEF5070E1FD0EDBCF96
:100E5000E9FFFE0EDBCFEAFF0D0EE926000EEA22C7
:100E6000E9CF12F0EACF13F0010EDB50E924E96E6E
:100E7000000EEA20EA6E010EEF6EFD0EDBCFE9FFF9
:100E8000FE0EDBCFEAFF0D0EE926000EEA22DF5050
:100E9000E924E96E000EEA20EA6E010EEF6EFD0E07
:100EA000DBCFE9FFFE0EDBCFEAFF120EE926000ED4
:100EB000EA22E9CF10F0EACF11F0010EDB50E9246D
:100EC000E96E000EEA20EA6EEF6A040EE66E030E8B
:100ED000E66E6DEC16F0E552E552020EF3CFDBFF45
:100EE000030EF4CFDBFF020EDBCFE9FF030EDBCFF7
:100EF000EAFF020EE926000EEA22010EDBCFEFFF29
:100F0000020EDBCFE6FF030EDBCFE6FF82EC14F030
:100F1000E552E552D30EE66E370EE66E010EDBCFDC
:100F2000E6FF4CEC1BF0E552E552E552DF28106E6F
:100F3000050E116E0C6E10C007F0D7EC1BF0010E01
:100F400003C0DBFFDB28106E050E116E0C6E10C0A7
:100F500007F0D7EC1BF00350DF6EFD0EDBCFE9FF8F
:100F6000FE0EDBCFEAFF120EE926000EEA22010E8A
:100F7000DB500F01E924E96E000EEA20EA6EEF5023
:100F800001E185D0FD0EDBCFE9FFFE0EDBCFEAFFEE
:100F90000D0EE926000EEA22DF50E924E96E000E6C
:100FA000EA20EA6EEF5073E1FD0EDBCFE9FFFE0EA3
:100FB000DBCFEAFF0D0EE926000EEA22E9CF12F0A0
:100FC000EACF13F0DF50E924E96E000EEA20EA6E62
:100FD000010EEF6EFD0EDBCFE9FFFE0EDBCFEAFF69
:100FE0000D0EE926000EEA22010EDB50E924E96E1F
:100FF000000EEA20EA6E010EEF6EFD0EDBCFE9FF78
:10100000FE0EDBCFEAFF120EE926000EEA22E9CF40
:1010100010F0EACF11F0010EDB50E924E96E000E6A
:10102000EA20EA6EEF6A040EE66E030EE66E6DECE1
:1010300016F0E552E552020EF3CFDBFF030EF4CFBC
:10104000DBFF020EDBCFE9FF030EDBCFEAFF020E70
:10105000E926000EEA22010EDBCFEFFF020EDBCF06
:10106000E6FF030EDBCFE6FF82EC14F0E552E5521B
:10107000D30EE66E370EE66E010EDBCFE6FF4CECCC
:101080001BF0E552E552E55202D0F0EC10F0000EF4
:101090000BD0FD0EDBCFE9FFFE0EDBCFEAFF040E27
:1010A000EE6E380EED6E030EF56E040EE15C02E29C
:1010B000E16AE552E16EF550E552E7CFD9FF120043
:1010C000D9CFE6FFE1CFD9FF030EE126DF6A050E97
:1010D000DF5C35E2DF50190DF3CF10F0F4CF11F0E3
:1010E000800E1026000E1122010E10C0DBFF020E32
:1010F00011C0DBFF010EDBCFE9FF020EDBCFEAFF01
:10110000560EEE6E110EED6E090EE66E010EDBCF81
:10111000E9FF020EDBCFEAFF0D0EE926000EEA2200
:10112000E9CF10F0EACF11F0E9CFE6FFEACFE6FF12
:10113000D3EC19F0E552E552E552DF2AC8D7F56E37
:10114000030EE15C02E2E16AE552E16EF550E55220
:10115000E7CFD9FF1200D9CFE6FFE1CFD9FF0001D9
:10116000FD5102E1010EFD6F040EE66EFD0EDBCFB8
:10117000E6FFFE0EDBCFE6FFF7EC16F0E552E55298
:10118000E552FD0EDBCFE9FFFE0EDBCFEAFFA00E3E
:10119000EE6E110EED6E020EE552E7CFD9FF120092
:1011A000D9CFE6FFE1CFD9FFFB0EDBCFE9FFFC0E85
:1011B000DBCFEAFFEF50040A44E0010A42E00C0AE8
:1011C00034E0080A71E1FD0EDBCFE9FFFE0EDBCF54
:1011D000EAFF0D0EE926000EEA220A0EE926000EAD
:1011E000EA22EE6AED6A070EE66EE66AFD0EDBCFD6
:1011F000E6FFFE0EDBCFE6FFFD0EDBCFE9FFFE0EC6
:10120000DBCFEAFF0D0EE926000EEA22E9CF10F04F
:10121000EACF11F0E9CFE6FFEACFE6FF34EC15F0B4
:10122000F56E060EE15EF5503DD0FD0EDBCFE9FF19
:10123000FE0EDBCFEAFFC60EEE6E120EED6E020E54
:101240003ED0FD0EDBCF10F0FE0EDBCF11F0800E96
:10125000105E000E115A190E0B6E0C6A10C006F0CB
:1012600011C007F074EC1BF006C010F007C011F0BD
:10127000FB0EDBCFE9FFFC0EDBCFEAFF020EE92617
:10128000000EEA22EF50065C0DE1780EE66EE66A8B
:10129000850EE66E380EE66E71EC1BF0E552E552F7
:1012A000E552E552000E0BD0FD0EDBCFE9FFFE0E3E
:1012B000DBCFEAFF040EEE6E380EED6E030EE55244
:1012C000E7CFD9FF1200D9CFE6FFE1CFD9FF020E59
:1012D000E126FB0EDBCFE9FFFC0EDBCFEAFFEF5090
:1012E000050A69E0010A3BE0050A01E097D0080E13
:1012F000E66E030EE66E6DEC16F0E552E552F3CFA6
:10130000DEFFF4CFDDFFFD0EDBCF10F0FE0EDBCFF6
:1013100011F0800E105E000E115A190E0B6E0C6A41
:1013200010C006F011C007F074EC1BF006C010F0FE
:1013300007C011F0DECFE9FFDDCFEAFF020EE9269C
:10134000000EEA2206C0EFFFDECFE6FFDDCFE6FFAC
:10135000CEC1E6FFCFC1E6FFB6EC0FF059D0FD0ECF
:10136000DBCF10F0FE0EDBCF11F0800E105E000E12
:10137000115A190E0B6E0C6A10C006F011C007F05E
:1013800074EC1BF0FB0EDBCFE9FFFC0EDBCFEAFFBA
:10139000020EE926000EEA22EF50065C3FE1FD0E48
:1013A000DBCFE9FFFE0EDBCFEAFF4A0EEE6E140E36
:1013B000ED6E020E3ED0FD0EDBCF10F0FE0EDBCF49
:1013C00011F0800E105E000E115A190E0B6E0C6A91
:1013D00010C006F011C007F074EC1BF006C010F04E
:1013E00007C011F0FB0EDBCFE9FFFC0EDBCFEAFFFD
:1013F000020EE926000EEA22EF50065C0DE1900E87
:10140000E66EE66A850EE66E380EE66E71EC1BF04F
:10141000E552E552E552E552000E0BD0FD0EDBCF52
:10142000E9FFFE0EDBCFEAFF040EEE6E380EED6E26
:10143000030EF56E020EE15C02E2E16AE552E16E36
:10144000F550E552E7CFD9FF1200D9CFE6FFE1CF43
:10145000D9FF020EE126FB0EDBCFE9FFFC0EDBCF4E
:10146000EAFFEF50040A01E17CD0010A01E179D0E2
:101470000C0A6BE00B0A35E0030A01E0A5D0FD0E73
:10148000DBCFE9FFFE0EDBCFEAFF0D0EE926000EF3
:10149000EA220A0EE926000EEA22EE6AED6A050E3D
:1014A000E66EE66AFD0EDBCFE6FFFE0EDBCFE6FF63
:1014B000FD0EDBCFE9FFFE0EDBCFEAFF0D0EE926C6
:1014C000000EEA22E9CF10F0EACF11F0E9CFE6FFF3
:1014D000EACFE6FF34EC15F0F56E060EE15EF5504E
:1014E00071D0050EE66E030EE66E6DEC16F0E55259
:1014F000E552F3CFDEFFF4CFDDFFFD0EDBCF10F0C2
:10150000FE0EDBCF11F0800E105E000E115A190E88
:101510000B6E0C6A10C006F011C007F074EC1BF0E3
:1015200006C010F007C011F0DECFE9FFDDCFEAFF03
:10153000020EE926000EEA2206C0EFFFDECFE6FF2C
:10154000DDCFE6FF82EC14F03BD0FD0EDBCFE9FFF0
:10155000FE0EDBCFEAFFA00EEE6E110EED6E020E58
:101560003ED0FD0EDBCF10F0FE0EDBCF11F0800E73
:10157000105E000E115A190E0B6E0C6A10C006F0A8
:1015800011C007F074EC1BF006C010F007C011F09A
:10159000FB0EDBCFE9FFFC0EDBCFEAFF020EE926F4
:1015A000000EEA22EF50065C0DE1AA0EE66EE66A36
:1015B000850EE66E380EE66E71EC1BF0E552E552D4
:1015C000E552E552000E0BD0FD0EDBCFE9FFFE0E1B
:1015D000DBCFEAFF040EEE6E380EED6E030EF56EF5
:1015E000020EE15C02E2E16AE552E16EF550E5527D
:0615F000E7CFD9FF120055
:0A15F600D9CFE6FFE1CFD9FF0A0EBE
:10160000E126D950FB0FE96EFF0EDA20EA6EEE50AC
:10161000ED1018E0D950F70FE96EFF0EDA20EA6EF0
:10162000020EEE5C000EEE58000EEE58000EEE5864
:1016300009E3F60EDB50020F106EF60EDB50D88079
:1016400010540DE3370EE66EE66A290EE66E380E8C
:10165000E66E71EC1BF0E552E552E552E552FB0EE9
:10166000DBCF10F0FC0E126A136A010E1016116A1D
:10167000126A136A020E10C0DBFF030E11C0DBFFFB
:10168000040E12C0DBFF050E13C0DBFF020EDBCF22
:1016900010F0030EDBCF11F0040EDBCF12F0050EBD
:1016A000DBCF13F0105011101210131034E0020EA3
:1016B000146E156A166A176AD950020FE96EDACFEE
:1016C000EAFFEE50145C106EEE501558116EEE509D
:1016D0001658126EEE501758136E020E10C0DBFF34
:1016E000030E11C0DBFF040E12C0DBFF050E13C09A
:1016F000DBFFD950F70FE96EFF0EDA20EA6E020E1B
:10170000DB50EE5E030EDB50EE5A040EDB50EE5A59
:10171000050EDB50EE5A020EDBCF12F0030EDBCFCC
:1017200013F0FB0EDB501224106EFC0EDB50132066
:10173000116EFD0EDBCFE9FFFE0EDBCFEAFF10C01E
:10174000EEFF11C0EDFFFD0EDBCFE9FFFE0EDBCF9C
:10175000EAFF060EE926000EEA22020EEF6E010EE7
:10176000F36E060EF3CFDBFF070EDB6A080EDB6AB3
:10177000090EDB6AFD0EDBCFE9FFFE0EDBCFEAFFD1
:10178000060EE926000EEA22EFCF10F0F60EDB502F
:10179000105C19E2020E106EFD0EDBCFE9FFFE0EAB
:1017A000DBCFEAFF060EE926000EEA221050EF26F4
:1017B000D950060FE96EDACFEAFFEE2A000EEE22CC
:1017C000EE22EE22D7D7FD0EDBCFE9FFFE0EDBCFF8
:1017D000EAFF060EE926000EEA22F60EEFCFDBFF47
:1017E000DBCF10F0116A126A136AD950F70FE96E55
:1017F000FF0EDA20EA6E1050EE5C1150EE581250D7
:10180000EE581350EE580DE24C0EE66EE66A290EC5
:10181000E66E380EE66E71EC1BF0E552E552E552CD
:10182000E552F60EDBCF10F0116A126A136AD95036
:10183000F70FE96EFF0EDA20EA6E1050EE5E1150DF
:10184000EE5A1250EE5A1350EE5AFD0EDBCFE9FF5E
:10185000FE0EDBCFEAFF070EE926000EEA22010E9C
:10186000EF6EFD0EDBCFE9FFFE0EDBCFEAFFEECF22
:10187000DEFFEDCFDDFFF60EDBCF10F0116A126A4E
:10188000136AD950F70FE96EFF0EDA20EA6E105096
:10189000EE5C1150EE581250EE581350EE583FE3E4
:1018A000060EDBCF12F0070EDBCF13F0D890123606
:1018B0001336DE501224106EDD501320116EDECF71
:1018C000E9FFDDCFEAFF10C0EEFF11C0EDFFDECF74
:1018D000E9FFDDCFEAFFEECFDEFFEDCFDDFFF60E55
:1018E000DBCF10F0116A126A136AD950F70FE96E54
:1018F000FF0EDA20EA6E1050EE5E1150EE5A1250D2
:10190000EE5A1350EE5AFD0EDBCFE9FFFE0EDBCF91
:10191000EAFF070EE926000EEA22EF2AACD7DECF57
:10192000E9FFDDCFEAFFEE6AED6AFD0EDBCFE9FFEE
:10193000FE0EDBCFEAFF070EE926000EEA22EF508B
:10194000E66EFD0EDBCFE9FFFE0EDBCFEAFF080EF1
:10195000E926000EEA22E552E750EF6EFD0EDBCFDE
:10196000E9FFFE0EDBCFEAFF070EE926000EEA22B2
:10197000EF50E66EFD0EDBCFE9FFFE0EDBCFEAFF98
:10198000090EE926000EEA22E552E750EF6EFD0E41
:10199000DBCFE9FFFE0EDBCFEAFF020EE926000EE9
:1019A000EA22FB0EDBCFEEFFFC0EDBCFEDFFFD0EE0
:1019B000DBCFE9FFFE0EDBCFEAFF040EE926000EC7
:1019C000EA22DECFEEFFDDCFEDFFF56E0A0EE15C21
:1019D00002E2E16AE552E16EF550E552E7CFD9FF48
:0219E0001200F3
:0E19E200D9CFE6FFE1CFD9FF030EE126C00EFC
:1019F000F214E76E020EE7CFDBFF3F0EF216FD0E8C
:101A0000DBCFE9FFFE0EDBCFEAFF020EE926000E78
:101A1000EA22EE50ED100DE1300EE66EE66A750E2C
:101A2000E66E380EE66E71EC1BF0E552E552E552BB
:101A3000E552FD0EDBCFE9FFFE0EDBCFEAFF020E23
:101A4000E926000EEA22EECFDEFFEDCFDDFFFD0E30
:101A5000DBCFE9FFFE0EDBCFEAFF020EE926000E28
:101A6000EA22070EE926000EEA22EFCF10F0FD0E63
:101A7000DBCFE9FFFE0EDBCFEAFF020EE926000E08
:101A8000EA22040EE926000EEA22EF50105C01E182
:101A90008BD0FD0EDBCFE9FFFE0EDBCFEAFF020E9F
:101AA000E926000EEA22060EE926000EEA22EF34AD
:101AB000136AFE0B1336126EFD0EDBCFE9FFFE0E2E
:101AC000DBCFEAFF020EE926000EEA22020EE9262B
:101AD000000EEA221250EE24E76E1350EE20EA6E5A
:101AE000E7CFE9FFEECF10F0EFCF11F0FD0EDBCF27
:101AF000E9FFFE0EDBCFEAFF020EE926000EEA2226
:101B000010C0EEFF11C0EDFFFD0EDBCFE9FFFE0EB2
:101B1000DBCFEAFF020EE926000EEA22060EE926D6
:101B2000000EEA22EF5021E1FD0EDBCFE9FFFE0EB1
:101B3000DBCFEAFF020EE926000EEA22040EE926B8
:101B4000000EEA22EF50E66EFD0EDBCFE9FFFE0E3F
:101B5000DBCFEAFF020EE926000EEA22060EE92696
:101B6000000EEA22E552E750EF6EFD0EDBCFE9FFF3
:101B7000FE0EDBCFEAFF020EE926000EEA22060E79
:101B8000E926000EEA22EF06FD0EDBCFE9FFFE0E8E
:101B9000DBCFEAFF020EE926000EEA22070EE92655
:101BA000000EEA22EF2A20D0FD0EDBCFE9FFFE0E69
:101BB000DBCFEAFF020EE926000EEA22EE6AED6AAA
:101BC000FD0EDBCFE9FFFE0EDBCFEAFF0B0EE926B1
:101BD000000EEA22EF50F76A230FF66E330EF7225B
:101BE0000800F5500101D017020EDB50F212DECFD3
:101BF00010F0DDCF11F010C0F3FF11C0F4FFF56E4F
:101C0000030EE15C02E2E16AE552E16EF550E55255
:101C1000E7CFD9FF1200D9CFE6FFE1CFD9FF050EFC
:101C2000E126FE0EDB5008080DE3FE0EEA6ADB3407
:101C3000FE0BEA36E96E970EE926010EEA22EE5017
:101C4000ED100DE15A0EE66EE66A750EE66E380E80
:101C5000E66E71EC1BF0E552E552E552E552C00E1E
:101C6000F214E76E040EE7CFDBFF3F0EF216FE0E16
:101C7000EA6ADB34FE0BEA36E96E970EE926010EBE
:101C8000EA22EE50EFCFEAFFE96E020EE926000EDF
:101C9000EA22080EE926000EEA22EFCF10F010C06B
:101CA000DFFF010EDB6A020EDB6A030EDB6A040E45
:101CB000DB50F212DECF04F0DECF05F0DECF06F00F
:101CC000DDCF07F0DD52DD52F56E050EE15C02E27C
:101CD000E16AE552E16EF550E552E7CFD9FF120017
:101CE000D9CFE6FFE1CFD9FF0F0EE126FD0EDBCF06
:101CF000E9FFFE0EDBCFEAFFEECF10F0EFCF11F0E1
:101D0000FB0EDBCFE6FFFC0EDBCFE6FFFD0EDBCFED
:101D1000E6FFFE0EDBCFE6FF05D011C0FAFF0001A3
:101D20001050F96EFADFE552E552E552E55202082D
:101D30000DE02D0EE66EE66A320EE66E380EE66EA9
:101D400071EC1BF0E552E552E552E552040EDE6EF1
:101D5000380EDD6E0E0EDB6AFD0EDBCFE9FFFE0EE8
:101D6000DBCFEAFF020EEECFDBFF030EEDCFDBFF92
:101D7000FD0EDBCFE9FFFE0EDBCFEAFFEECF10F06A
:101D8000EFCF11F0BE0EE66E010EE66EFD0EDBCF5C
:101D9000E6FFFE0EDBCFE6FF05D011C0FAFF000123
:101DA0001050F96EFADFE552E552E552E552FD0EAC
:101DB000DBCFE9FFFE0EDBCFEAFFEECF10F0EFCF77
:101DC00011F0DF50101803E1DE52DD5011183FE032
:101DD000FD0EDBCFE9FFFE0EDBCFEAFFEECF14F006
:101DE000EFCF15F0D950020F106EDACF11F00E0EB2
:101DF000DB2ADBCF12F0136A12BE1368D8901236BA
:101E0000133610501224E96E11501320EA6E14C0DC
:101E1000EEFF15C0EDFFFD0EDBCFE9FFFE0EDBCFC1
:101E2000EAFFEECF10F0EFCF11F0BE0EE66E010E1E
:101E3000E66EFD0EDBCFE6FFFE0EDBCFE6FF05D044
:101E400011C0FAFF00011050F96EFADFACD7FD0E99
:101E5000DBCFE9FFFE0EDBCFEAFF020EDBCFEEFFAA
:101E6000030EDBCFEDFF0E0EDBCF10F0060EE76E9C
:101E70001018E8AE02D0E73402D0E750105C0DE352
:101E8000430EE66EE66A320EE66E380EE66E71ECD2
:101E90001BF0E552E552E552E552D950020F126EA1
:101EA000DACF13F00E0EDBCF14F0156A14BE1568EE
:101EB000D8901436153612501424E96E135015209C
:101EC000EA6EEECF10F0EFCF11F0C00EE66E010E0D
:101ED000E66EFD0EDBCFE6FFFE0EDBCFE6FF04D0A5
:101EE00011C0FAFF1050F96EFBDFE552E552E552E2
:101EF000E55200090E0EDB06DBCF10F01034CDE307
:101F0000020EDBCFDEFFDBCFDDFFDECF10F0DDCF5B
:101F100011F0C40EE66E010EE66EFD0EDBCFE6FF9D
:101F2000FE0EDBCFE6FF04D011C0FAFF1050F96EB1
:101F3000FBDFE552E552E552E552020801E10AD71E
:101F4000FD0EDBCFE9FFFE0EDBCFEAFFDECFEEFFBB
:101F5000DDCFEDFFF56E0F0EE15C02E2E16AE552C6
:0C1F6000E16EF550E552E7CFD9FF12000A
:041F6C00D9CFE6FFE4
:101F7000E1CFD9FFE652C00EF214DF6E3F0EF2162B
:101F8000FB0EDBCFE9FFFC0EDBCFEAFFEE52EF509A
:101F900008E0FB0EDBCFE9FFFC0EDBCFEAFFEE52E1
:101FA000EF2AFD0EDBCFE9FFFE0EDBCFEAFF020ECC
:101FB000E926000EEA22EE50ED1025E1FD0EDBCF02
:101FC000E9FFFE0EDBCFEAFF020EE926000EEA2251
:101FD000FB0EDBCFEEFFFC0EDBCFEDFFFD0EDBCF0C
:101FE000E9FFFE0EDBCFEAFF0B0EE926000EEA2228
:101FF000EF50F76AE20FF66E320EF7220800F55046
:102000000101D013DED0FD0EDBCFE9FFFE0EDBCFEA
:10201000EAFF020EE926000EEA22070EE926000E6C
:10202000EA22EF500DE1450EE66EE66A7D0EE66EA1
:10203000380EE66E71EC1BF0E552E552E552E552C2
:10204000FD0EDBCFE9FFFE0EDBCFEAFF020EE92635
:10205000000EEA22050EE926000EEA22EF34116A8C
:10206000FE0B1136106EFD0EDBCFE9FFFE0EDBCF4F
:10207000EAFF020EE926000EEA22020EE926000E11
:10208000EA221050EE24E76E1150EE20EA6EE7CF00
:10209000E9FFFB0EDBCFEEFFFC0EDBCFEDFFFD0E0D
:1020A000DBCFE9FFFE0EDBCFEAFF020EE926000ED2
:1020B000EA22050EE926000EEA22EF5021E1FD0E8C
:1020C000DBCFE9FFFE0EDBCFEAFF020EE926000EB2
:1020D000EA22040EE926000EEA22EF50E66EFD0E1B
:1020E000DBCFE9FFFE0EDBCFEAFF020EE926000E92
:1020F000EA22050EE926000EEA22E552E750EF6ECD
:10210000FD0EDBCFE9FFFE0EDBCFEAFF020EE92674
:10211000000EEA22050EE926000EEA22EF06FD0E69
:10212000DBCFE9FFFE0EDBCFEAFF020EE926000E51
:10213000EA22070EE926000EEA22EF06FD0EDBCFAB
:10214000E9FFFE0EDBCFEAFF020EE926000EEA22CF
:10215000080EE926000EEA22EFCF10F0FD0EDBCFCD
:10216000E9FFFE0EDBCFEAFF020EE926000EEA22AF
:10217000070EE926000EEA22EF50D880105421E223
:10218000FD0EDBCFE9FFFE0EDBCFEAFF020EE926F4
:10219000000EEA22070EE926000EEA22EF50E66E54
:1021A000FD0EDBCFE9FFFE0EDBCFEAFF020EE926D4
:1021B000000EEA22080EE926000EEA22E552E75058
:1021C000EF6EDF50F212E552E552E7CFD9FF120071
:1021D000EE0E106E370E10C0F3FFF46E12001200F8
:1021E0003FEF1BF0D9CFE6FFE1CFD9FF060EE12686
:1021F00035EC1BF0C00EF214E76E050EE7CFDBFFE7
:102200003F0EF2160101D0514FE0D051F76A0C0F8A
:10221000F66E310EF7220800F550DF6EEA6ADF3401
:10222000FE0BEA36E96E970EE926010EEA22010E50
:10223000EECFDBFF020EEDCFDBFF050EDB50F2121F
:10224000010EDBCFE6FF020EDBCFE6FFF1EC0CF078
:10225000E552E552030EF3CFDBFF040EF4CFDBFFB4
:10226000030EDBCFE6FF040EDBCFE6FF010EDBCF74
:10227000E9FF020EDBCFEAFFE9CF10F0EACF11F061
:10228000E9CFE6FFEACFE6FF2EEC00F0E552E5529B
:10229000E552E552030EDBCFE6FF040EDBCFE6FF8F
:1022A00004EC18F0E55205D0050EDBCFE6FF40EC5C
:1022B0001BF0E5529FD7D9CFE6FFE1CFD9FF106AD7
:1022C000FC0EDB50105C0DE2FC0EDB50080809E34D
:1022D000D950F40FE96EFF0EDA20EA6EEE50ED10E1
:1022E0000DE0670EE66EE66AE50EE66E370EE66E08
:1022F00071EC1BF0E552E552E552E552F60EDBCFEC
:10230000E6FFFA0EDBCFE6FFFB0EDBCFE6FFFD0EAE
:10231000DBCFE9FFFE0EDBCFEAFF020EE926000E5F
:10232000EA22E9CF10F0EACF11F0E9CFE6FFEACFD9
:10233000E6FF33EC1AF0F56E050EE15EF550FD0E8A
:10234000DBCFE9FFFE0EDBCFEAFF0B0EE926000E26
:10235000EA22FC0EDBCFEFFFFD0EDBCFE6FFFE0E29
:10236000DBCFE6FFCDEC13F0E552E552EE0EDBCF0E
:10237000E6FFEF0EDBCFE6FFFD0EDBCFE9FFFE0E43
:10238000DBCFEAFFE9CF10F0EACF11F0E9CFE6FFAB
:10239000EACFE6FF70EC0EF0E552E552E552E55269
:1023A000E552E7CFD9FF1200D9CFE6FFE1CFD9FF41
:1023B000FD0EDBCFE6FFFE0EDBCFE6FF25EC14F0D3
:0C23C000E552E552E552E7CFD9FF1200CC
:0423CC00D9CFE6FF80
:1023D000E1CFD9FF030EE126C00EF214E76E020E24
:1023E000E7CFDBFF3F0EF216FEC0DEFFFFC0DDFFD2
:1023F000D9CFE9FFDACFEAFFEE50ED1001E1D5D0F9
:10240000DECFE9FFDDCFEAFF080EE926000EEA2263
:10241000EE06ED5AEECF10F0EDCF11F01050111086
:1024200001E0A9D0DECFE9FFDDCFEAFF0A0EE92601
:10243000000EEA22EE50ED1019E0DECFE9FFDDCF0D
:10244000EAFF0A0EE926000EEA22EECF10F0EFCFE7
:1024500011F0DECFE9FFDDCFEAFF080EE926000E1E
:10246000EA2210C0EEFF11C0EDFF6BD0DECF10F0FE
:10247000DDCF11F00001FE51101810E1FF511118CD
:102480000DE1DECFE9FFDDCFEAFF040EE926000E05
:10249000EA22EECFFEF0EDCFFFF04BD0DECFE9FF2A
:1024A000DDCFEAFF040EE926000EEA22EE50ED1021
:1024B00020E0DECFE9FFDDCFEAFF020EE926000EC5
:1024C000EA22EECF10F0EFCF11F0DECFE9FFDDCF43
:1024D000EAFF040EE926000EEA22EE50EFCFEAFFF3
:1024E000E96E020EE926000EEA2210C0EEFF11C0CE
:1024F000EDFFDECFE9FFDDCFEAFF040EE926000E97
:10250000EA22EECF10F0EFCF11F0DECFE9FFDDCF02
:10251000EAFF020EE926000EEA22EE50EFCFEAFFB4
:10252000E96E040EE926000EEA2210C0EEFF11C08B
:10253000EDFFDECFE9FFDDCFEAFF020EEB6A030E0F
:10254000EB6A020EDB50F212DECFE6FFDDCFE6FFD4
:10255000DECFE9FFDDCFEAFF060EE926000EEA2214
:10256000EECFE6FFEFCFE6FFB6EC0FF0E552E55217
:10257000E552E55205D0020EDB50F2120101D16B9B
:10258000C00EF214E76E020EE7CFDBFF3F0EF2162D
:10259000DECFE9FFDDCFEAFF040EE926000EEA22D6
:1025A000EECFDEFFEDCFDDFF23D7020EDB50F212C0
:1025B000F56E030EE15C02E2E16AE552E16EF55070
:0825C000E552E7CFD9FF12003C
:0825C800D9CFE6FFE1CFD9FFF6
:1025D000030EE126C00EF214E76E020EE7CFDBFF1A
:1025E0003F0EF216FD0EDBCFE9FFFE0EDBCFEAFF5A
:1025F000EECFDEFFEDCFDDFFD9CFE9FFDACFEAFF87
:10260000EE50ED1050E0DECFE9FFDDCFEAFFEECF78
:1026100010F0EFCF11F0FD0EDBCFE9FFFE0EDBCFA8
:10262000EAFF10C0EEFF11C0EDFFFD0EDBCFE9FFAA
:10263000FE0EDBCFEAFF080EE926000EEA22EF06C7
:10264000FD0EDBCFE9FFFE0EDBCFEAFF090EE92628
:10265000000EEA22EFCF10F0FD0EDBCFE9FFFE0EF9
:10266000DBCFEAFF080EE926000EEA22EF50D88001
:10267000105419E2FD0EDBCFE9FFFE0EDBCFEAFFBF
:10268000080EE926000EEA22EF50E66EFD0EDBCFC3
:10269000E9FFFE0EDBCFEAFF090EE926000EEA2273
:1026A000E552E750EF6E020EDB50F212DECF10F073
:1026B000DDCF11F010C0F3FF11C0F4FFF56E030E73
:1026C000E15C02E2E16AE552E16EF550E552E7CFE6
:1026D000D9FF1200D9CFE6FFE1CFD9FF050EE126E1
:1026E000010E106EFE0EDB50D880105408E3FE0E73
:1026F000DBCF11F001017F51D88011540DE2450E5E
:10270000E66EE66A650EE66E380EE66E71EC1BF05C
:10271000E552E552E552E552C00EF214E76E040EA2
:10272000E7CFDBFF3F0EF216FE0EDB040A0DF3CF00
:10273000E9FFF4CFEAFF610EE926010EEA22090E55
:10274000E926000EEA22EFCF10F010C0DFFF010EE5
:10275000DB6A020EDB6A030EDB6A040EDB50F21248
:10276000DECF04F0DECF05F0DECF06F0DDCF07F0E0
:10277000DD52DD52F56E050EE15C02E2E16AE552E2
:0C278000E16EF550E552E7CFD9FF1200E2
:04278C00FC0E106EC1
:10279000370E10C0F3FFF46E1200D9CFE6FFE1CF81
:1027A000D9FF020EE126FD0EDBCFE9FFFE0EDBCFE7
:1027B000EAFF0B0EE926000EEA22EFCFDFFF106AD8
:1027C000DF50105C0FE2DF5008080CE3EA6ADF34E8
:1027D000FE0BEA36E96E970EE926010EEA22EE506C
:1027E000ED100DE0380EE66EE66AF50EE66E370E79
:1027F000E66E71EC1BF0E552E552E552E552C00E73
:10280000F214E76E010EE7CFDBFF3F0EF216EA6A25
:10281000DF34FE0BEA36E96E970EE926010EEA2256
:10282000FD0EDBCFEEFFFE0EDBCFEDFF010EDB502A
:10283000F212F56E020EE15C02E2E16AE552E16E2F
:10284000F550E552E7CFD9FF1200D9CFE6FFE1CF2F
:10285000D9FF020EE126FD0EDBCFE9FFFE0EDBCF36
:10286000EAFF0B0EE926000EEA22EFCFDFFF106A27
:10287000DF50105C18E2DF50080815E3EA6ADF3425
:10288000FE0BEA36E96E970EE926010EEA22EECF3C
:1028900011F0EFCF12F0FD0EDB50111804E1FE0E27
:1028A000DB5012180DE04C0EE66EE66AF50EE66E91
:1028B000370EE66E71EC1BF0E552E552E552E5523B
:1028C000C00EF214E76E010EE7CFDBFF3F0EF216EB
:1028D000EA6ADF34FE0BEA36E96E970EE926010E4E
:1028E000EA22EE6AED6A010EDB50F212F56E020E7C
:1028F000E15C02E2E16AE552E16EF550E552E7CFB4
:04290000D9FF1200E9
:0C290400D9CFE6FFE1CFD9FF030EE1269A
:10291000FD0EDBCFE9FFFE0EDBCFEAFFEECF10F0BE
:10292000EFCF11F00101CD510001105C0DE32C0E31
:10293000E66EE66A440EE66E380EE66E71EC1BF04B
:10294000E552E552E552E552C00EF214DF6E3F0E3D
:10295000F216FD0EDBCFE9FFFE0EDBCFEAFFEE52F3
:10296000EF5008E0FD0EDBCFE9FFFE0EDBCFEAFF04
:10297000EE52EF2ADF50F212FD0EDBCFE9FFFE0E22
:10298000DBCFEAFFEF500101EA6ACB25E96ECC51BB
:10299000EA22010EEFCFDBFF010EDB504FE0010E0C
:1029A000DB50F76A0C0FF66E310EF7220800020EAC
:1029B000F5CFDBFFDB50F76A230FF66E330EF722FD
:1029C000010EDBCFE7FF0800F550E716010EE7CF59
:1029D000DBFF020EEA6ADB34FE0BEA36E96E970E85
:1029E000E926010EEA22EE50ED100DE1440EE66EEE
:1029F000E66A440EE66E380EE66E71EC1BF0E552A8
:102A0000E552E552E552FD0EDBCFE6FFFE0EDBCFD1
:102A1000E6FF020EEA6ADB34FE0BEA36E96E970E39
:102A2000E926010EEA22EECFE6FFEFCFE6FFB6EC95
:102A30000FF0E552E552E552E552AED7FD0EDBCF81
:102A4000E6FFFE0EDBCFE6FF04EC18F0E552E552A0
:102A5000F56E030EE15C02E2E16AE552E16EF550CB
:082A6000E552E7CFD9FF120097
:082A6800D9CFE6FFE1CFD9FF51
:102A7000E652D950F90FE96EFF0EDA20EA6E000E29
:102A8000D880EE54000EED5424E2FD0EDBCFE9FFBA
:102A9000FE0EDBCFEAFFEECF10F0EFCF11F0040E09
:102AA0000001105C16E3FD0EDBCFE9FFFE0EDBCF6D
:102AB000EAFF020EE926000EEA22EE50ED1009E1CF
:102AC000D950FB0FE96EFF0EDA20EA6EEE50ED10E2
:102AD0000DE1300EE66EE66A550EE66E380EE66ED5
:102AE00071EC1BF0E552E552E552E552FD0EDBCFED
:102AF000E9FFFE0EDBCFEAFF080EE926000EEA2210
:102B0000F90EDBCFEEFFFA0EDBCFEDFFFD0EDBCFD4
:102B1000E9FFFE0EDBCFEAFF020EE926000EEA22F5
:102B2000FD0EDBCFEEFFFE0EDBCFEDFFFD0EDBCFAC
:102B3000E9FFFE0EDBCFEAFF060EE926000EEA22D1
:102B4000FB0EDBCFEEFFFC0EDBCFEDFFC00EF21471
:102B5000DF6E3F0EF216FD0EDBCFE9FFFE0EDBCF80
:102B6000EAFF040EE926000EEA22FEC0EEFFFFC0D7
:102B7000EDFF0001FE51FF110EE0FEC0E9FFFFC0B6
:102B8000EAFF020EE926000EEA22FD0EDBCFEEFF81
:102B9000FE0EDBCFEDFFFD0EDBCFFEF0FE0EDBCF3A
:102BA000FFF0DF50F212E552E552E7CFD9FF1200F5
:102BB000D9CFE6FFE1CFD9FFE652FD0EDBCFE9FF2B
:102BC000FE0EDBCFEAFF020EE926000EEA22EECF70
:102BD00010F0EFCF11F0FB0EDBCF12F0FC0EDBCFCD
:102BE00013F01050125C1150135833E3FB0EDBCF7F
:102BF00014F0FC0EDBCF15F0FD0EDBCFE9FFFE0E6F
:102C0000DBCFEAFF040EE926000EEA22EECF16F033
:102C1000EFCF17F01450165C155017581AE3FD0E3D
:102C2000DBCFE9FFFE0EDBCFEAFF080EE926000E40
:102C3000EA22EFCF18F0FD0EDBCFE9FFFE0EDBCF6F
:102C4000EAFF070EE926000EEA22EF50D88018545A
:102C50000DE22D0EE66EE66A5D0EE66E380EE66E4D
:102C600071EC1BF0E552E552E552E552C00EF2144C
:102C7000DF6E3F0EF216FD0EDBCFE9FFFE0EDBCF5F
:102C8000EAFFEECF10F0EFCF11F0FB0EDBCFE9FF44
:102C9000FC0EDBCFEAFF10C0EEFF11C0EDFFFD0E12
:102CA000DBCFE9FFFE0EDBCFEAFFFB0EDBCFEEFF53
:102CB000FC0EDBCFEDFFFD0EDBCFE9FFFE0EDBCF21
:102CC000EAFF080EE926000EEA22EF2ADF50F21290
:0A2CD000E552E552E7CFD9FF1200EC
:062CDA00D9CFE6FFE1CFB7
:102CE000D9FF030EE126020EDB6AFE0EDBCF10F0E9
:102CF000020EDB500A0DF3CFE9FFF4CFEAFF610EBD
:102D0000E926010EEA22060EE926000EEA22EF501D
:102D1000D880105419E2020EDB2A01017F51F36EB4
:102D2000020EDBCFF4FFF350F45CDFE3300EE66E0F
:102D3000E66A8D0EE66E380EE66E71EC1BF0E5521B
:102D4000E552E552E552D1D7020EDB500A0DF3CF22
:102D500010F0F4CF11F0610E1026010E112210C0F8
:102D6000E6FF11C0E6FFE4EC12F0E552E552F3CFC6
:102D7000DEFFF4CFDDFFD9CFE9FFDACFEAFFEE5077
:102D8000ED100DE13A0EE66EE66A8D0EE66E380E37
:102D9000E66E71EC1BF0E552E552E552E552DECFEE
:102DA000E9FFDDCFEAFFFD0EDBCFEFFF020EDB28F0
:102DB000400DF350E66EDECFE9FFDDCFEAFFEE52C5
:102DC000E552E750EF6EDECF10F0DDCF11F010C00E
:102DD000F3FF11C0F4FFF56E030EE15C02E2E16A5D
:0E2DE000E552E16EF550E552E7CFD9FF120043
:022DEE00D9CF3B
:102DF000E6FFE1CFD9FF030EE126FD0EDBCFE9FFB1
:102E0000FE0EDBCFEAFF0B0EE926000EEA22EFCF23
:102E1000DFFFDF50F76A640FF66E330EF72208000B
:102E2000010EF5CFDBFF040E106EFC0EDB50D880D8
:102E3000105425E30101CD51F36EFC0EDBCFF4FFFE
:102E4000F350F45C1CE2116ADF50115C18E2DF50B1
:102E5000080815E3EA6ADF34FE0BEA36E96E970EDE
:102E6000E926010EEA22EECF12F0EFCF13F0FD0EAD
:102E7000DB50121804E1FE0EDB5013180DE0300E8B
:102E8000E66EE66A9B0EE66E380EE66E71EC1BF09F
:102E9000E552E552E552E552C00EF214E76E020E1D
:102EA000E7CFDBFF3F0EF216DF50F76AE20FF66E58
:102EB000320EF7220800F5CF12F0FC0EDB500101B4
:102EC000EA6ACB25E96ECC51EA22E9CF10F0010E77
:102ED000DB50E924E96E000EEA20EA6E1250EF1290
:102EE000020EDB50F212F56E030EE15C02E2E16AC3
:0E2EF000E552E16EF550E552E7CFD9FF120032
:022EFE00D9CF2A
:102F0000E6FFE1CFD9FFE65260EC08F0D4EC04F024
:102F100031EC1BF0EFEC10F0070EE66E3C0EE66EA7
:102F2000010EE66EC6EC1BF0E552E552E552030ECB
:102F3000E66E1E0EE66EE66AE66AE66A430EE66E28
:102F4000010EE66E06EC19F0F56E070EE15EF55027
:102F5000DF6A050EDF5C33E2000EE66EE66AE66AC3
:102F6000E66AE66AE66AE66EE66A050EE66EE66A16
:102F7000E66AE66ADF500A0DF3CF10F0F4CF11F0E5
:102F80000A0E1026010E112210C0E6FF11C0E6FF46
:102F9000DF28E66EEA6ADF34FE0BEA36E96EB40E2D
:102FA000E926010EEA22EECFE6FFEFCFE6FF5BEC6B
:102FB00011F0F56E110EE15EF550DF2ACAD7000E52
:102FC000E66EE66AE66AE66AE66AE66AE66EE66A79
:102FD000050EE66EE66AE66AE66A000EE66E010E29
:102FE000E66E060EE66ECEC1E6FFCFC1E6FF5BECF5
:102FF00011F0F56E110EE15EF550F2EC10F0E552B5
:08300000E552E7CFD9FF1200F1
:08300800D9CFE6FFE1CFD9FFAB
:10301000020EE126FD0EDBCFE9FFFE0EDBCFEAFF5D
:10302000EE52EF5067E0C00EF214DF6E3F0EF21664
:10303000FD0EDBCFE9FFFE0EDBCFEAFFEE52EF50D5
:103040003F0B01080BE2FD0EDBCFE9FFFE0EDBCFED
:10305000EAFFEE52EF06DF50F2124CD0FD0EDBCF4E
:10306000E9FFFE0EDBCFEAFFEECF10F0EFCF11F05D
:10307000060E11C0E7FF070B04E0E742E79EE806F3
:10308000FCE1E750FF0FE76E010EE7CFDBFFDF50FB
:10309000F21201017F51F36E010EDBCFF4FFF3500A
:1030A000F45C0DE3490EE66EE66AA20EE66E380E9B
:1030B000E66E71EC1BF0E552E552E552E552FD0E6D
:1030C000DBCFE6FFFE0EDBCFE6FF010EDB500A0D85
:1030D000F3CF10F0F4CF11F0610E1026010E112283
:1030E00010C0E6FF11C0E6FFD8EC15F0E552E5523E
:1030F000E552E552F56E020EE15C02E2E16AE5524C
:0C310000E16EF550E552E7CFD9FF120058
:04310C0000010202BA
:10311000030303030404040404040404050505056F
:10312000050505050505050505050505060606064B
:10313000060606060606060606060606060606062F
:10314000060606060606060606060606070707071B
:1031500007070707070707070707070707070707FF
:1031600007070707070707070707070707070707EF
:1031700007070707070707070707070707070707DF
:1031800007070707070707070707070708080808CB
:1031900008080808080808080808080808080808AF
:1031A000080808080808080808080808080808089F
:1031B000080808080808080808080808080808088F
:1031C000080808080808080808080808080808087F
:1031D000080808080808080808080808080808086F
:1031E000080808080808080808080808080808085F
:1031F000080808080808080808080808080808084F
:0C32000008080808080808080808080862
:04320C00D9CFE6FF31
:10321000E1CFD9FF030E01017F5D0DE32E0EE66EB7
:10322000E66A6D0EE66E380EE66E71EC1BF0E55246
:10323000E552E552E55201017F5121E07F050A0D7B
:10324000F3CFE9FFF4CFEAFF610EE926010EEA228F
:10325000060EE926000EEA22EFCF10F0F80EDB5042
:10326000105C0DE3310EE66EE66A6D0EE66E380E0A
:10327000E66E71EC1BF0E552E552E552E552F80EB0
:10328000DBCFE6FFD950F90FE96EFF0EDA20EA6EC8
:10329000EECFE6FFEECFE6FFEECFE6FFEFCFE6FFA5
:1032A000FD0EDBCFE6FFFE0EDBCFE6FF01017F5117
:1032B0000A0DF3CF10F0F4CF11F0610E1026010EBD
:1032C000112210C0E6FF11C0E6FFFBEC0AF0F56E1C
:1032D000090EE15EF55001017F2BE552E7CFD9FFE2
:0232E0001200DA
:0E32E2000001020408102040800102040810C0
:1032F00020408001020408102040800102040810D0
:1033000020408001020408102040800102040810BF
:1033100020408001020408102040800102040810AF
:10332000204080FFFEFDFBF7EFDFBF7FFEFDFBF7D8
:10333000EFDFBF7FFEFDFBF7EFDFBF7FFEFDFBF79B
:10334000EFDFBF7FFEFDFBF7EFDFBF7FFEFDFBF78B
:10335000EFDFBF7FFEFDFBF7EFDFBF7FFEFDFBF77B
:10336000EFDFBF7F0000000000000000000101014E
:10337000010101010102020202020202020303032F
:1033800003030303030404040404040404050505FF
:1033900005050505050606060606060606070707CF
:0533A000070707070705
:0A33A600D9CFE6FFE1CFD9FF040EF6
:1033B000F36EFC0EDBCFF4FFF350F45C0DE2290E4C
:1033C000E66EE66A200EE66E380EE66E71EC1BF0D5
:1033D000E552E552E552E552FD0EDBCFE9FFFE0E68
:1033E000DBCFEAFF020EEB6A030EEB6AFD0EDBCFCA
:1033F000E9FFFE0EDBCFEAFF040EEB6A050EEB6A77
:10340000FD0EDBCFE9FFFE0EDBCFEAFF060EEB6A17
:10341000070EEB6AFD0EDBCFE9FFFE0EDBCFEAFF06
:10342000080EEB6A090EEB6AFD0EDBCFE9FFFE0E1C
:10343000DBCFEAFF0A0EEB6A0B0EEB6AFD0EDBCF69
:10344000E9FFFE0EDBCFEAFFFC0EDBCFEFFFFD0E48
:10345000DBCFE9FFFE0EDBCFEAFFEE52EF6AE5526B
:06346000E7CFD9FF1200C6
:0A346600D9CFE6FFE1CFD9FFFD0E3C
:10347000DBCFE9FFFE0EDBCFEAFFEE6AED6AFD0E61
:10348000DBCFE9FFFE0EDBCFEAFF020EE926000EDE
:10349000EA22FB0EDBCFEEFFFC0EDBCFEDFFFD0ED5
:1034A000DBCFE9FFFE0EDBCFEAFF040EE926000EBC
:1034B000EA22FA0EDBCFEFFFFD0EDBCFE9FFFE0EB7
:1034C000DBCFEAFF050EE926000EEA22EF6AFD0EC9
:1034D000DBCFE9FFFE0EDBCFEAFF060EE926000E8A
:1034E000EA22EF6AFD0EDBCFE9FFFE0EDBCFEAFF3B
:1034F000070EE926000EEA22FA0EDBCFEFFFFD0EE3
:10350000DBCFE9FFFE0EDBCFEAFF080EE926000E57
:10351000EA22FA0EDBCFEFFFE552E7CFD9FF120028
:10352000DACFE4FFE2CFDAFFE9CFE4FFEACFE4FF4E
:10353000F6CFE4FFF7CFE4FFF5CFE4FFF3CFE4FFEE
:10354000F4CFE4FFFACFE4FF00EE00F0100EE80441
:1035500003E3EECFE4FFFBD700EE10F0090EE80422
:1035600003E3EECFE4FFFBD7E6529EA007D09E9088
:10357000F90ECF6E9A0ECE6EE6EC11F0E55200EE2B
:1035800018F0090EE80403E3E5CFEDFFFBD700EEEA
:103590000FF0100EE80403E3E5CFEDFFFBD7E5CF16
:1035A000FAFFE5CFF4FFE5CFF3FFE5CFF5FFE5CF79
:1035B000F7FFE5CFF6FFE5CFEAFFE5CFE9FFE5CF7F
:0435C000DAFF11001D
:0C35C4002A0EF66E000EF76E000EF86E78
:1035D00001010900F550AF6F0900F550B06F03E12C
:1035E000AF6701D03DD00900F550AA6F0900F55032
:1035F000AB6F0900F550AC6F09000900F550E96E9A
:103600000900F550EA6E090009000900F550AD6F98
:103610000900F550AE6F09000900F6CFB1F1F7CF00
:10362000B2F1F8CFB3F1AAC1F6FFABC1F7FFACC15D
:10363000F8FF0101AD5302E1AE5307E00900F55078
:10364000EE6EAD07F8E2AE07F9D7B1C1F6FFB2C131
:10365000F7FFB3C1F8FF0101AF07000EB05BBFD7A2
:02366000120056
:0E366200936A8A6AD08E1200CF6A010ECE6E75
:103670008F0ECD6E9F809D80C00EF2121200120040
:10368000D9CFE6FFE1CFD9FF0300FE0EDB50F212E7
:10369000E552E7CFD9FF1200D9CFE6FFE1CFD9FF3E
:1036A000FC0EDBCFF6FFFD0EDBCFF7FF0800F55079
:1036B00065080AE1FE0EDB50EA6AC60FE96E010EEC
:1036C000EA22EF508A1209D0FE0EDB50EA6AC60FDA
:1036D000E96E010EEA22EF1C8A16E552E7CFD9FF08
:0836E00012003F0EF216FFD7A5
:0836E8000E6A0CAE7DEF1BF031
:1036F0000B6C0C1EE86A0C220E1E07AE85EF1BF049
:10370000066C071EE86A07220E1EB0EC1BF007BE0F
:1037100095EF1BF00EAE000C066C071EE86A072240
:10372000026C031EE86A0322000C0EBE8CEF1BF035
:043730000F88FF0CF3
:0C37340015EE00F025EE00F0F86A0F9C86
:10374000FF0EE96E0E0EEA6E010E006E000EED6EBB
:103750000052FDE1E2EC1AF07FEC17F0FDD7120009
:10376000036A026A100EE76ED890063607360236F4
:1037700003360B50025C0C50035805E30B50025EFD
:0C3780000C50035A062AE72EF0D7120066
:04378C00D9CFE6FFAC
:10379000E1CFD9FFFD0EDBCFCBF1FE0EDBCFCCF1BD
:0E37A000FC0EDBCFCDF1E552E7CFD9FF1200D2
:0237AE00036AAC
:1037B000080EE76ED890073603360C50035C02E320
:0A37C000036E072AE72EF7D7120068
:0637CA007468696E6B6972
:1037D0006E6700656174696E6720200068756E67AA
:0537E0007279202000B9
:0B37E5007176616E696C6C6100342E1F
:0537F000302E30300016
:0B37F50071665F61637400342E302E9B
:0338000030310064
:0C380400D9CFE6FF010EE552E7CFD9FF57
:023810001200A4
:0E381200940E106E380E10C0F3FFF46E12000C
:093820007174655F63746F72003E
:07382900716D705F696E69AB
:02383000740022
:093832007168736D5F696E690035
:05383B007168736D5F70
:043840006469730044
:0938440071665F7073707562001B
:03384D0074616241
:053850006C652E630011
:083855007174655F61726D0082
:03385D00716D701A
:053860005F70757400AB
:08386500716D705F676574006E
:03386D0071665F22
:05387000706F6F6C0099
:0838750071615F6765745F007B
:03387D0071615F17
:053880006669666F009F
:083885007068696C6F2E63008E
:03388D0071665F02
:043890006E657700EA
:07389400342E302E3030000D
:05389B0071615F73750F
:0238A0006200C4
:0638A20071665F67630020
:0638A8006273702E630044
:0238AE00800197
:0838B00000000100020003000A
:0838B80080009900B200CB0072
:0238C000E40022
:0538C2000102040800F2
:00000001FF
