:100000009C0700207D0D0000610D00000000000035
:10001000610D0000610D0000610D0000610D000028
:10002000610D0000610D0000610D0000F91C000071
:10003000610D0000610D0000C51C0000490B0000AF
:100040008D0B0000610D0000610D0000610D0000CE
:10005000610D0000610D0000610D0000610D0000E8
:10006000610D0000610D0000610D0000610D0000D8
:10007000610D0000610D0000610D0000610D0000C8
:10008000610D0000610D0000610D0000610D0000B8
:10009000610D0000610D0000610D0000610D0000A8
:1000A000610D0000610D0000610D0000610D000098
:1000B000610D0000610D0000610D0000610D000088
:1000C000610D0000610D0000610D0000610D000078
:1000D000610D0000610D0000610D0000610D000068
:1000E000610D0000610D0000610D0000610D000058
:1000F0002DE9F04184B005460C4600F007FD00F004
:1001000045F92846214600F06FFD01F033F81D4DFA
:1001100028464FF0070101F0B3FA05F138004FF01F
:1001200050014FF0080201F075FA174F05F18805EC
:100130004FF0000426464FF0050804F10104E4B234
:1001400057F8040F00960196029621462A46434628
:1001500001F028F805F11405052CEED10B4B1868B9
:100160004FF000040094019402944FF00601084AF5
:100170004FF0050301F016F801F004F8204604B032
:10018000BDE8F08104000020CC1F0000041D000029
:10019000F000002010B504464FF0050101F05AF9B7
:1001A00020464FF0060101F055F9024B23604FF055
:1001B000020010BDB9010000F8B504460D460B88D9
:1001C000062B00F0C680082B03D0052B40F0C6801C
:1001D0003EE000F071FD2D79042D02D863195B7F9C
:1001E00023B164484FF0600100F0B4FD2846624935
:1001F00000F03CFD05F10103604A82FB03124FEA67
:10020000620202EB82029B1ADBB2E218127EC2B9D2
:100210006219127EAAB961194FF001020A76E31839
:100220001A764FF006004FF0040101F0B7F905719E
:1002300001F02CFA2846524900F018FD4FF000005A
:10024000F8BD64194FF0010363774FF00000F8BD6B
:1002500000F032FD2D79042D02D863195B7F23B1A4
:1002600044484FF0740100F075FD2846454900F000
:10027000FDFC05F10103414E86FB03264FEA6606AD
:1002800006EB86069E1BF6B263191B7E012B03D17B
:10029000A3191B7E012B04D036484FF0790100F0E2
:1002A00059FD62194FF000031376A219137605F178
:1002B0000403324F87FB03174FEA670707EB8707F3
:1002C000DF1BFFB2E3195B7FC3B1E3191B7EABB940
:1002D000E3194FF001021A7665192A764FF00002F1
:1002E0005A774FF006004FF0040101F057F90771FB
:1002F00001F0CCF93846224900F0B8FCA3195B7F25
:10030000002B30D006F101031C4A82FB03124FEA96
:10031000620202EB82029B1ADBB2E218127E002A12
:1003200024D1E3184FF001021A76A41922764FF077
:10033000000565774FF006004FF0040101F02EF93B
:10034000067101F0A3F930460D4900F08FFC2846F4
:10035000F8BD00F013FF4FF00000F8BD0A4B03603A
:100360004FF00300F8BD4FF00000F8BD4FF0000063
:10037000F8BD00BFFC1C0000D02200006766666666
:10038000DC220000E8220000491C0000084B094A5A
:100390001A604FF000021A765A775A769A779A7650
:1003A000DA77DA7683F820201A7783F821207047ED
:1003B0000401002095010000044B4FF07A021A60FE
:1003C00098604FF003025A60704700BF000002407F
:1003D0000138FDD17047704710B50446064A53698D
:1003E000002BFCD0054B1868FFF7F2FF024B9C6016
:1003F0004FF001025A6010BD0000024028010020A9
:1004000038B505460A4A5369002BFCD0094B1C68D5
:100410002046FFF7DDFF064B9D604FF005025A6056
:100420001A465369002BFCD02046FFF7D1FF38BD98
:1004300000000240280100202DE9F04191B105465D
:100440004618094C094F4FF001086369002BFCD096
:100450003868FFF7BDFF15F8013BA360C4F80480BE
:10046000B542F2D1BDE8F081000002402801002031
:1004700070B54FF08000FFF79FFF1B4B1E79002ED9
:100480001A4B03F1080018BF18464FF00601FFF79A
:10049000D3FF4FF05F044FF000052846FFF79CFFA5
:1004A000013CFAD14FF00000FFF7AAFF4FF08000A7
:1004B000FFF782FF002E0E4B03F1080018BF18460D
:1004C0004FF00601FFF7B8FF4FF00004254628461D
:1004D000FFF782FF04F101045F2CF8D14FF0000018
:1004E000FFF78EFF70BD00BF28010020081D00002F
:1004F000181D00002DE9F84306460C4615464FF03E
:100500008000FFF759FF002D14BFB120B020FFF786
:1005100063FF4FF08000FFF75FFF2F4B5D792819D5
:1005200000F00F00FFF758FF4FF08000FFF754FF77
:100530006519C5F3031040F01000FFF74DFF4FF0B1
:100540004000FFF749FF3378002B3AD1BDE8F8832C
:1005500004F106045A2C1CD803EB8303A3F1A0007A
:1005600038184146FFF768FF5A2C03D02E4615F87D
:10057000013B2BB94FF00000FFF742FFBDE8F883C5
:100580004846FFF729FF15F8013C002BE0D1BDE8F4
:10059000F883C4F15F05114C03EB8303E018A0F16D
:1005A00080002946FFF748FF3378A3F1200303EBCF
:1005B0008303E418651995F82000FFF721FFBDE8D3
:1005C000F8835A2CE5D806F10105054F4FF00508D0
:1005D0004FF00009C0E700BF28010020081D0000FF
:1005E000281D00002DE9F84F054614461F460A9BBA
:1005F0001C4A92F805A08A448BB3CAF3031848F04A
:10060000100803EB04094FF080060AF00F0A07F107
:10061000FF3B3046FFF7D0FE002C14BFB120B020C6
:10062000FFF7DAFE3046FFF7D7FE5046FFF7D4FE5D
:100630003046FFF7D1FE4046FFF7CEFE4FF04000B8
:10064000FFF7CAFE28465946FFF7F6FEED1915F8E2
:10065000010CFFF7D5FE04F101044C45D9D1BDE8EA
:10066000F88F00BF280100202DE9F8430446664BAF
:10067000D3F8042142F48052C3F80421D3F80821AE
:1006800042F00202C3F808215B68C3F30033DEB214
:100690005E4A1371002E00F09C804FF004025B4B09
:1006A0005A71594BD3F8082142F00802C3F80821C7
:1006B0004FF00100FFF78CFE554BD3F8002442F0B9
:1006C0008002C3F800244FF08002C3F80022514B8F
:1006D000D3F8002422F00C02C3F80024D3F820241D
:1006E00042F00C02C3F82024D3F8002542F00C029B
:1006F000C3F80025D3F8182522F00C02C3F81825FA
:10070000D3F80C2542F00C02C3F80C25D3F81025C1
:1007100042F00C02C3F81025D3F81C2542F00C025D
:10072000C3F81C25D3F8282522F00C02C3F828258D
:1007300003F5D8331A6A42F010021A62364B374A70
:10074000002C0CBF14461C4604EB84044FEA8404BE
:10075000334B1B6803F1FF331B19B3FBF4F404F1B3
:10076000FF34304BDC60DB6803F1010303EB031360
:100770004FEA8303254A13604FF00004DFF8A88096
:1007800008F51377B9461AE046B308F5FE75631904
:100790005878FFF711FE04F10200615D2818A1F1FD
:1007A0000201FFF749FE635D08EB0402D31893F8DA
:1007B000FC01FFF725FE2B5D03F10103E418002E79
:1007C0000CBF71234D239C42DED3FFF751FEBDE8E1
:1007D000F8834FF024020D4B5A7178E7E3195878EB
:1007E000FFF7EAFD04F10200E15D3818A1F1020112
:1007F000FFF722FEE35D08EB0402D31893F84C02E6
:10080000FFF7FEFD4D46D6E700E00F40280100202F
:100810000070004000500040801A0600A0860100D1
:100820001002002000000240081D00002DE9F041E8
:100830004FF000041E4F07F51376B04619E013B3CE
:1008400007F5FE7563195878FFF7B6FD04F102004D
:10085000615D2818A1F10201FFF7EEFD635D3A1911
:10086000D31893F8FC01FFF7CBFD2B5D03F10103D7
:10087000E418104B1B79002B0CBF71224D229442BF
:10088000DDD3BDE8F081A3195878FFF795FD04F199
:100890000200A15D3018A1F10201FFF7CDFDA35DBB
:1008A0003A19D31893F84C02FFF7AAFD4546DCE746
:1008B000081D00002801002008B54FF08000FFF758
:1008C0007BFD4FF0AE00FFF787FD4FF08000FFF794
:1008D00083FD4FF0AD00FFF77FFD4FF08000FFF785
:1008E0007BFD4FF08A00FFF78BFD08BD10B5044675
:1008F000084B1B781BB94FF00102064B1A702046BB
:100900004FF0040100F0A6FD034B23604FF00200FE
:1009100010BD00BF300100201D09000038B504469D
:100920000B8803F1FF33082B2CD8DFE803F0052BED
:100930002B18182B2B2B11004FF00005458500F1CB
:10094000180021464FF00F0200F0E8FF284638BD9E
:1009500000F0B2F90F4B23604FF0020038BD0E4B90
:10096000C41A4FEAA4040D4B03FB04F30A79DBB26B
:100970009A420CD10A484FF0790100F0EBF94FF0A0
:10098000000038BD074B03604FF0030038BD4FF047
:10099000000038BDA909000034010020A38B2EBA45
:1009A000C81F0000491C000010B504460B88042B2A
:1009B00019D0052B29D0012B3AD14FF006004FF06A
:1009C000080100F0EBFD01461D4BE41A4FEAA404B8
:1009D0001C4B03FB04F404711B4B186800F096FCDD
:1009E0004FF0000010BD164BC31A4FEAA303154A7F
:1009F00002FB03F30A79DBB29A4219D100F05CF9E9
:100A0000124B23604FF0020010BD0D4BC41A4FEA89
:100A1000A4040C4B03FB04F30A79DBB29A420CD119
:100A20000B484FF0910100F095F94FF0000010BD18
:100A3000084B23604FF0030010BD4FF0000010BDC5
:100A400034010020A38B2EBA041D0000590A0000B7
:100A5000C81F0000491C000038B504460B8803F18C
:100A6000FF33082B3FD8DFE803F005113E2B2B3E68
:100A70003E3E24004FF00005458500F11800214658
:100A80004FF0060200F04AFF284638BD4FF006003E
:100A90004FF0050100F082FD174BE41A4FEAA40461
:100AA000164B03FB04F4047100F0F0FD4FF000005E
:100AB00038BD00F001F9124B23604FF0020038BD41
:100AC0000D4BC41A4FEAA4040C4B03FB04F30A7940
:100AD000DBB29A420CD10B484FF0AB0100F03AF96F
:100AE0004FF0000038BD084B03604FF0030038BDE5
:100AF0004FF0000038BD00BF34010020A38B2EBA98
:100B00001D090000C81F0000491C00002DE9F0412C
:100B10004FF000052C460A4E0A4F4FF02C08775133
:100B200008FB046000F118004FF0090100F0E0FE3E
:100B300004F1010405F12C05052CF0D1BDE8F0818C
:100B400034010020ED080000684620F007018D46C2
:100B500019B572B60B4C237803F10103DBB2237095
:100B600062B600F0E9FD72B6237803F1FF33DBB221
:100B700023704FF08052044B1A6062B6BDE81940F2
:100B8000854670471D02002004ED00E0684620F015
:100B900007018D4631B572B6104C237803F101037D
:100BA000DBB2237062B60E4B1D684FF004004FF0AD
:100BB000070100F0F3FC0146284600F0A7FB72B6DF
:100BC000237803F1FF33DBB223704FF08052054BE3
:100BD0001A6062B6BDE83140854670471D020020AC
:100BE000041D000004ED00E010B500F053F91B4BAC
:100BF000D3F8082142F00502C3F8082100BF00BF66
:100C000000BF174BD3F8002442F02002C3F80024A1
:100C1000D3F81C2542F02002C3F81C254FF0000435
:100C2000C3F88040D3F8002422F01002C3F8002457
:100C3000D3F81C2542F01002C3F81C254FF0010028
:100C4000FFF712FD074821462246FFF753FC0648EE
:100C500021464FF00102FFF74DFC10BD00E00F40B0
:100C600000600040F42200000423000000B583B0BF
:100C70000B788DF804304FF000038DF8053000EB51
:100C8000C0004FEA400101A801F106014FF0010246
:100C9000FFF730FC03B000BD28B14FF02002054B38
:100CA000C3F8802070474FF00002024BC3F8802049
:100CB000704700BF0060004082B04FF00003019316
:100CC000019B03F1FF320192002BF9D102B0704772
:100CD000144B1A68144BA3FB02134FEA1313B3F11E
:100CE000807F10D223F07F4303F1FF330F4A53601C
:100CF0004FF0E0010E4B83F823104FF00003936098
:100D00004FF0070313604FF02002094B83F82320B4
:100D1000A3F540634FF0000283F800234FF0010277
:100D20001A607047100200208988888810E000E06F
:100D300000ED00E0704700BF72B6054B4FF0200297
:100D4000C3F880204FF00002C3F8802062B67047DD
:100D50000060004072B6FEE708B5FFF7FBFF08BD74
:100D6000684620F007018D4601B5034840F207119F
:100D7000FFF7F2FFFEE700BF14230000684620F0F3
:100D800007018D4601B5134B134A9A4208D2134A04
:100D9000114B104852F8041B43F8041B8342F9D34B
:100DA0000F4B104A9A4207D213464FF000010C4AEB
:100DB00043F8041B9342FBD300F04EFFFFF798F972
:100DC00009484FF48171FFF7C7FFBDE80140854630
:100DD000704700BF04000020000000202C2300000A
:100DE000B40300200400002014230000704700BF5B
:100DF000EFF30980704700BF80F30988704700BF98
:100E0000EFF30880704700BF80F30888704700BF89
:100E1000EFF31280704700BF80F31188704700BF66
:100E2000EFF31080704700BF80F31088704700BF59
:100E3000EFF31380704700BF80F31388704700BF43
:100E400000BA704740BA7047C0BA704790FAA0F035
:100E5000704700BFD0E84F0FC0B27047D0E85F0FB7
:100E600080B2704750E8000F704700BFC1E8400FE4
:100E7000704700BFC1E8500F704700BF41E8000055
:100E8000704700BFEFF31480704700BF80F31488F1
:100E9000704700BF30B482B09A4B9B4A1A6702F584
:100EA000602202F5965202F101021A6602F17D42B9
:100EB000A2F58052A2F10F021A66944A1A674FF007
:100EC00000030193019BB3F57A7F09D240F2E73228
:100ED00000BF019B03F101030193019B9342F7D9EA
:100EE000884B8B4A1A66894A1A674FF000030193B0
:100EF000019BB3F57A7F09D240F2E73200BF019B34
:100F000003F101030193019B9342F7D97D4B814A81
:100F10001A661B6D13F0400F05D17A4A00BF136D9E
:100F200013F0400FFAD0774B7B4A1A66774A1A675C
:100F30004FF000030193019BB3F57A7F09D240F291
:100F4000E73200BF019B03F101030193019B934230
:100F5000F7D96C4B196E1A6F002AB4BF02F07003F8
:100F600001F03003202B40D004D86BB1102B40F09F
:100F7000F8800FE0602B66D0702B61D0302B40F0F2
:100F8000F08047F2305370E0C1F38410634B53F8A4
:100F900020306AE05B4B1B6813F0E04F56D0594B92
:100FA00018685F4B00EA0303B3F1805F50D0554BE4
:100FB00018685B4B00EA03035A48834204D1514B43
:100FC0001B689BB2022B45D04E4B1868544B00EA6D
:100FD0000303554883423FD14A4B1C68A4B253488F
:100FE000534B002C18BF03463FE0464B1B6813F0E1
:100FF000E04F33D0434B1868494B00EA0303B3F189
:10100000805F2DD03F4B1868454B00EA03034548ED
:10101000834204D13B4B1B689BB2022B22D0394B3D
:1010200018683F4B00EA03033F4883421CD1354B0D
:101030001C68A4B23F48404B002C18BF034614E084
:101040004FF4004311E04FF480030EE03B4B0CE003
:101050003A4B0AE0364B08E0344B06E0384B04E0EC
:10106000374B02E0344B00E0324B002A03DA12F433
:10107000006F03D031E011F4006F2ED1214C606E6F
:10108000246814F0E04F07D01E4C2568244C05EA74
:101090000404B4F1805F0CD1C0F3481404F10204DD
:1010A00004FB03F300F01F0404F10204B3FBF4F3A8
:1010B0000BE0C0F3481404FB03F300F01F0404F139
:1010C00001044FEA4404B3FBF4F310F4804F18BF5B
:1010D0005B0810F4004F18BF9B0811F4800F3ED03E
:1010E000002A36DA12F0804F2CD012F4006F29D18A
:1010F0004FEA4303C2F3865202F10102B3FBF2F35B
:101100002DE000BF00E00F4010288007102880006D
:10111000C20A8E04C20ACE04C202CE04E41F00003A
:101120000000FF7000000110000003100024F40014
:10113000001BB70000093D00C0C62D00C0E1E4005F
:1011400070383900C2F3C55202F10102B3FBF2F369
:1011500005E0C1F3C35101F10101B3FBF1F3024A10
:10116000136002B030BC7047100200200048704786
:101170004020000008B500F093FD08BD08B5FFF75A
:10118000D9FD08BD08B572B64FF00002044B1A70C5
:1011900000F036F862B6FFF79BFDFFF7CDFDFCE7E8
:1011A00000000020F8B504460D4616461F4601F122
:1011B000FF33DBB23E2B04D90E484FF06001FFF73E
:1011C000C9FD04F104003146FAB200F075F9257545
:1011D000204600F07FF9069B0BB9079B23B1054819
:1011E0004FF06A01FFF7B6FD2046089900F0B8FB02
:1011F000F8BD00BF4820000008B500F087F908BD21
:101200002DE9F0472C4B1B7823B12C484FF03001CF
:10121000FFF7A0FD2A4B1B78002B48D028490B78FC
:10122000284AD35C03F1FF33DBB2C9184978525C1A
:1012300002EBC30303F0FF03234A1278934238D929
:10124000224A1278934234D91F4A92F800A05FFADA
:101250008AF91F4F90461A4E57F8235088F80030ED
:1012600062B6284600F09EF804462846214600F063
:10127000D1FB204600F068F972B6337893B1337829
:10128000104AD35C03F1FF33DBB2F1184978525CAA
:1012900002EBC30303F0FF03994503D20B4A127814
:1012A0009342D9D8084B83F800A0BDE8F087064BDD
:1012B0001B78BDE8F08700BF1D0200204C20000015
:1012C00014020020882000000000002020020020DE
:1012D00024020020024672B6044B18781B78934211
:1012E0003CBF024B1A7062B6704700BF200200205C
:1012F00008B572B6044B1B78834203D9024B1870B1
:10130000FFF77EFF62B608BD2002002038B5044614
:101310000D4672B68B781BB1CB7803F10103CB700D
:101320006368BBB965601A4B1D78227D1949885CDA
:1013300019490C18647845EA04041C701B18587885
:101340008A5C40EA02025A70144B1B78F3B9FFF72B
:1013500057FF1BE0E37B23B911484FF04901FFF72A
:10136000F9FC627BA36843F82250637B0BB9237BB3
:101370006373637B03F1FF336373E37B03F1FF3339
:10138000DBB2E373227C9A4288BF237462B638BD15
:10139000140200202C220000A42100001D020020C5
:1013A0005820000038B5044672B6436823B919487E
:1013B0004FF03001FFF7CEFC6068E37B227B934265
:1013C0000ED0A17BA56855F82150656001B9A273C4
:1013D000A27B02F1FF32A27303F10103E37316E073
:1013E0004FF000036360227D0B4B995C0B4B5B1845
:1013F0005C780B4DAA5C04EA02025A705B7833B940
:10140000064B1C7869184A7804EA02021A7062B620
:1014100038BD00BF602000002C2200001402002014
:10142000E821000010B504463F2803D8074B53F8C5
:10143000203023B906484FF05C01FFF78BFC72B6F1
:1014400062B6024B53F82430187C10BD24020020F1
:101450006020000070B50C46057D114B5E5D0329D0
:101460000BD9104B1B888B4207D935B13F2D04D8BF
:101470000D4B53F82530834204D00C484FF0300117
:10148000FFF768FC72B60A4B1B6803EBC404A25D4D
:10149000084B5B5D42EA0303A35562B670BD00BF13
:1014A0002C220000A8030020240200206820000055
:1014B000A4030020A42100004FF00003036041605A
:1014C000027243728372C27202737047004870479F
:1014D0007020000038B50546047D04F1FF33DBB20F
:1014E0003E2B03D8074B53F8243023B106484FF066
:1014F0004001FFF72FFC72B6024B43F8245062B64E
:1015000038BD00BF240200207820000010B5047D03
:1015100004F1FF33DBB23E2B04D8094B53F82430DF
:10152000834204D007484FF05401FFF713FC72B612
:101530004FF00002024B43F8242062B610BD00BFFA
:10154000240200207820000038B504468578EDB1EB
:1015500072B6C378012B04D903F1FF33C37062B6AE
:1015600038BD05F1FF35EDB262B6094B1B78AB42D1
:1015700004D808484FF04601FFF7ECFB05EB850562
:10158000054B03EB8500214600F094F938BD00BF00
:1015900028030020802000002C0300202DE9F843C0
:1015A000054689464FF00004174E184FDFF860805B
:1015B0000AE004F10104E4B23B78A34204D84046B7
:1015C0004FF03001FFF7C6FB04EB840306EB830307
:1015D0009B89AB42EDD304EB84000B4B03EB800003
:1015E00000F0DEF8054620B909484FF03A01FFF750
:1015F000B1FBA5F8009004F10104AC704FF00003BA
:10160000EB702846BDE8F8832C0300202803002057
:1016100088210000F8B506460F461546164B1B7884
:10162000052B04D915484FF02E01FFF793FB124B01
:101630001B7873B103F1FF3303EB83030E4A02EB14
:1016400083031B8AAB4204D30C484FF03101FFF7F0
:1016500081FB094C04F10402237803EB830302EBC2
:10166000830031463A462B4600F0CAF8237803F14E
:1016700001032370F8BD00BF280300209021000063
:10168000014B186099807047A40300202DE9F84FA2
:1016900007460288224B1B889A4204D321484FF008
:1016A0003101FFF757FB72B6BB781BB1FB7803F132
:1016B0000103FB7062B64FF0080BDFF87490DFF89F
:1016C00074A0194E0BF1FF3B5FFA8BFB3A88174968
:1016D0000B6803EBC20313F80B40CCB14FEACB0805
:1016E0005FFA88F819F804501AF805301C40454490
:1016F000EDB256F8253023B90A484FF05901FFF7EB
:1017000029FB56F825003946FFF700FE002CE9D1E9
:10171000BBF1000FD6D13846FFF716FFBDE8F88FB2
:10172000A80300209821000024020020A403002028
:1017300088200000E8210000F8B572B6164B1C683E
:10174000002C27D01E464FF00005144F238A03F1CA
:10175000FF339BB22382BBB9638A0BB123820DE0B6
:1017600033689C4202D1A368336006E0A3680BB1E2
:1017700062685A606368A2689A60656062B6E068F1
:101780002146FFF7C3FD01E062B63D7072B6A46862
:10179000002CDBD162B6F8BDB0030020AC03002002
:1017A000034672B6006850B102681A601A8A02F1E4
:1017B000FF3292B21A82598A914288BF5A8262B627
:1017C000704700BF10B5044618B10A4B1B7883421E
:1017D00004D209484FF04501FFF7BCFA72B662B671
:1017E00004F1FF3404EB8404044B03EB8404608AAB
:1017F00010BD00BF28030020702200002C03002031
:101800002DE9F041044617461E46884631B1032AA9
:1018100004D903F104039BB29E4204D324484FF041
:101820003601FFF797FAC4F800804FF00403A38154
:10183000042E0CD94FF004034FF0010503F104030B
:101840009BB205F101059E42F8D8A38103E04FF059
:1018500004034FF001051E469F4204D214484FF086
:101860004401FFF777FABF1B4FF00103E3812268C1
:10187000BE4210D84FEA8505C6F10001BF1B00E04B
:101880001A4653191360E28902F10102E2817F18BE
:10189000F742F5D300E013464FF000021A60E289E8
:1018A00022826282C4F80480A360BDE8F08100BF98
:1018B0007822000038B504460D4643688B4206D8AE
:1018C0008368994203D8028AC3899A4204D9074897
:1018D0004FF02D01FFF73EFA72B623682B602560AA
:1018E000238A03F10103238262B638BD84220000FB
:1018F00038B504460D46032904D807484FF029019E
:10190000FFF728FA4FF000036360A360E3602382CF
:1019100063822580A37038BD8C22000070B5044618
:101920000D4616462AB10388032B02D9436803B932
:1019300021B909484FF03001FFF70CFA26826460A4
:10194000E56072B6054B1B68A36003B15C60034B96
:101950001C6062B670BD00BF98220000B00300207A
:101960002DE9F04186B0054603689847022804D067
:1019700024484FF02D01FFF7EDF9234E234F07F1D7
:1019800004082C68009428463946A0472B68B342C7
:1019900032D04FF0000404F10104E4B262B206A9AF
:1019A00001EB820242F8183C2846394698472B68DA
:1019B000B342F0D1009E2E6063B2052B04DD1148C6
:1019C0004FF04401FFF7C6F963B206AA02EB8303A6
:1019D00053F8183C28464146984704F1FF34E4B2D6
:1019E00014F0800FF0D028460949B0470228C8D02B
:1019F0002E6006B0BDE8F0812C6026464FF0000452
:101A0000E2E700BFA0220000491C0000C022000045
:101A1000CC2200002DE9F04786B005460C4606684A
:101A20002F6828462146B8470328F9D0022840F0FD
:101A3000F480D5F80090CDF800900196BE420CD00D
:101A40007C4CA4F1080828462146B04710B9284626
:101A50004146B0472E68B742F5D14F4508D12846D8
:101A60007449B847DDE014F0800F00F0878095E0FE
:101A700028467149C8472C68A74200F0D280284602
:101A80006D49B847D5F80080A04503D1284669497B
:101A9000B847C6E0C14503D128466649B8477DE04E
:101AA000019428466449A047032829D14FF0010436
:101AB000DFF8849100E0344604F10106F6B22B68A9
:101AC00072B206A901EB820242F8183C9F4208D18B
:101AD00076B2052EC7DD59484FF07A01FFF73AF983
:101AE000C1E72846494698470328E4D0344676B2F1
:101AF000052E07DD51484FF08501FFF72BF901E076
:101B00004FF0010428464B49B84723465AB206A96C
:101B100001EB820252F8182C904503D103F1FF33F8
:101B2000DCB2A0E703F1FF33DBB213F0800FEDD09E
:101B30004FF0010A3F4EA6F10809274628463146D4
:101B4000C04710B928464946C047D5F800803B46F3
:101B50005AB206A901EB820252F8182C424503D171
:101B600003F1FF33DCB27EE703F1FF33DBB213F0A6
:101B7000800FEDD0BAF1000FE0D174E7304E63B2C0
:101B800006AA02EB830353F8183C284631469847CF
:101B900004F1FF34E4B214F0800FF0D0009E2E6008
:101BA000DFF8A090A9F1080832E02C6800942846DC
:101BB0002149A0472B68B34236D04FF000041E4F96
:101BC00004F10104E4B262B206A901EB820242F818
:101BD000183C2846394698472B68B342F0D1009EFE
:101BE0002E6063B2052B04DD14484FF0D901FFF7D6
:101BF000B1F863B206AA02EB830353F8183C2846F7
:101C00004146984704F1FF34E4B214F0800FF0D05D
:101C100028464946B0470228C7D02E6006B0BDE826
:101C2000F0874FF00004A9E72C6026464FF000042F
:101C3000DFE700BFC8220000C0220000AC22000085
:101C4000C4220000CC2200004FF00100704700BF0A
:101C500000487047B822000070B500240C4D0D4EAE
:101C6000761BB61003E055F8043B01349847B442A4
:101C7000F9D1094DFFF7BAF8084E0024761BB610CB
:101C800003E055F8043B01349847B442F9D170BDE4
:101C90002C2300002C2300002C2300002C23000008
:101CA000EFF3108072B606498A68FF231B041A43BB
:101CB0008A604A681B029A434A6080F31088704722
:101CC00018ED00E072B609480121C9060160084814
:101CD0000078002804D0C908064803B486B07047CD
:101CE00062B67047FFF78CFA62B600DF04ED00E0E1
:101CF00014020020E41C000008B070477461626C9C
:101D0000652E630004010020B080048010400000B4
:101D1000B080048012400000B180048010400000B8
:101D2000B180048012400000000000000000004F5D
:101D300000000007000700147F147F14242A7F2A64
:101D4000122313086462364955225000050300002F
:101D5000001C2241000041221C0014083E08140807
:101D6000083E080800503000000808080808006015
:101D700060000020100804023E5149453E00427FA9
:101D8000400042615149462141454B311814127FB0
:101D90001027454545393C4A494930017109050339
:101DA0003649494936064949291E003636000000A1
:101DB0005636000008142241001414141414004173
:101DC0002214080201510906324979413E7E11115F
:101DD000117E7F494949363E414141227F4141229E
:101DE0001C7F494949417F090909013E4149497A16
:101DF0007F0808087F00417F41002040413F017F6C
:101E0000081422417F404040407F020C027F7F0443
:101E100008107F3E4141413E7F090909063E41517C
:101E2000215E7F09192946464949493101017F014F
:101E3000013F4040403F1F2040201F3F4038403F6F
:101E4000631408146307087008076151494543008B
:101E50007F41410002040810200041417F0004023C
:101E6000010204404040404000010204002054545C
:101E700054787F48444438384444442038444448E3
:101E80007F3854545418087E0901020C5252523EB5
:101E90007F0804047800447D40002040443D007FDA
:101EA0001028440000417F40007C041804787C081E
:101EB00004047838444444387C1414140808141476
:101EC000187C7C080404084854545420043F4440BF
:101ED000203C4040207C1C2040201C3C4030403CAA
:101EE00044281028440C5050503C4464544C440046
:101EF0000836410000007F00000041360800020162
:101F0000020402000480AE80E30680AD808A80E394
:101F10000680A8801F80E30480C880E30480A0803E
:101F2000E30480D880E304800580E304804080E3FC
:101F3000068081805D80E30680D9801180E3068081
:101F4000D5800180E30680D3800080E30480AF80E9
:101F5000E30000000480AE80E304800480E304809A
:101F60001280E3068081802B80E30480A180E3045B
:101F7000804080E30680D3800080E30680A8800F45
:101F800080E30480A480E30480A680E30480B08022
:101F9000E30480C880E30680D5807280E30680D8A1
:101FA000800080E30680D9802280E30680DA8012F8
:101FB00080E30680DB800F80E30680AD808B80E3CA
:101FC0000480AF80E30000007068696C6F2E6300CE
:101FD00034010020600100208C010020B8010020A5
:101FE000E401002040420F0000201C0080841E00FD
:101FF00000802500999E36000040380000093D0011
:1020000000803E0000004B00404B4C0000204E0082
:10201000808D5B0000C05D000080700000127A00BF
:1020200000007D0080969800001BB7000080BB0078
:10203000C0E8CE00647ADA000024F4000000FA0060
:10204000342E322E30340000716B0000716B5F73E0
:10205000636865640000000071615F6669666F0017
:1020600071615F6765745F0071615F737562000025
:10207000342E322E3034000071665F6163740000CC
:1020800071665F676300000000010202030303033F
:1020900004040404040404040505050505050505F8
:1020A00005050505050505050606060606060606D8
:1020B00006060606060606060606060606060606C0
:1020C00006060606060606060707070707070707A8
:1020D0000707070707070707070707070707070790
:1020E0000707070707070707070707070707070780
:1020F0000707070707070707070707070707070770
:102100000707070707070707080808080808080857
:10211000080808080808080808080808080808083F
:10212000080808080808080808080808080808082F
:10213000080808080808080808080808080808081F
:10214000080808080808080808080808080808080F
:1021500008080808080808080808080808080808FF
:1021600008080808080808080808080808080808EF
:1021700008080808080808080808080808080808DF
:10218000080808080808080871665F6E657700008F
:1021900071665F706F6F6C0071665F7073707562EF
:1021A0000000000000010204081020408001020429
:1021B0000810204080010204081020408001020421
:1021C0000810204080010204081020408001020411
:1021D0000810204080010204081020408001020401
:1021E0000810204080000000FFFEFDFBF7EFDFBF7E
:1021F0007FFEFDFBF7EFDFBF7FFEFDFBF7EFDFBFED
:102200007FFEFDFBF7EFDFBF7FFEFDFBF7EFDFBFDC
:102210007FFEFDFBF7EFDFBF7FFEFDFBF7EFDFBFCC
:102220007FFEFDFBF7EFDFBF7F0000000000000036
:102230000000000000010101010101010102020290
:102240000202020202030303030303030304040460
:102250000404040404050505050505050506060630
:102260000606060606070707070707070700000018
:10227000716D705F67657400716D705F696E697410
:1022800000000000716D705F707574007174655F9F
:1022900063746F72000000007174655F61726D009D
:1022A0007168736D5F696E69000000007168736D1D
:1022B0005F64697300000000342E322E3034000059
:1022C0000000000001000000020000000300000008
:1022D00068756E677279202000000000656174697E
:1022E0006E672020000000007468696E6B696E677D
:1022F0000000000044696E696E67205068696C6F69
:102300007300000030202C31202C32202C33202C64
:1023100034000000737461727475705F73746D3390
:0C23200032663130785F636C0000000012
:04232C00400000006D
:0400000300000D7D6F
:00000001FF
