:020000040000FA
:0600000017EF02F01200F0
:020006000000F8
:0800080024EC02F0FF0865E1A1
:100010000B0EE66E000EE66EEBEC01F042E90A0E06
:10002000E66E000EE66E6AEC01F042E90F014C91BB
:1000300000000000010E966EB1D8670E00010B5D46
:1000400004E17A0E00010C5D06E0960EE66EE66AAB
:10005000A9D842E9FAD700010AA105D0010EE66E3F
:10006000E66AA0D842E900010AA305D0020EE66EB6
:10007000E66A98D842E900010AA505D0030EE66EAB
:10008000E66A90D842E900010AA705D0040EE66EA0
:10009000E66A88D842E900010AA905D0050EE66E95
:1000A000E66A80D842E900010AAB05D0060EE66E8A
:1000B000E66A78D842E900010AAD05D0070EE66E7F
:1000C000E66A70D842E900010AAF05D0080EE66E74
:1000D000E66A68D842E905D802D060D802D8FFD7CE
:1000E0001200D9CFE6FFE1CFD9FF81E945E8016AE7
:1000F000026A036A046A4DD8000902E0000E01D0CA
:10010000010E056E055029E0010E966EFE0E8D6EF5
:100110000F01670E4E6F0F017A0E4F6F036A046A6C
:10012000100E035C270E045805E20000032A000E9F
:100130000422F6D7800E016E026A01EBE6FFC7ECDF
:1001400001F041E9010E016E026AF29E01EBE6FF49
:1001500002EBE6FFA1EC01F042E9CDD746E9E7CF9B
:10016000D9FF1200D9CFE6FFE1CFD9FF81E942E8FC
:100170000168026A01EB0DF002EB0EF00106000EC1
:10018000025A00010D510E11F5E143E9E7CFD9FF05
:10019000120080AA010C80BAFED7000C928A0F01CF
:1001A00048691200D9CFE6FFE1CFD9FF83E944E8DF
:1001B000036A046A056A066A056A066A0050055CF5
:1001C0000150065834E28C6A036A046A03EB0DF0AE
:1001D00004EB0EF000010F6BD8900F51000A06E6F9
:1001E000600E0D5DEA0E0E59000E0F5904E2032A4F
:1001F000000E0422EBD7FE0E8C6E036A046A03EB3A
:100200000DF004EB0EF00F6BD8900F51000A06E6CC
:10021000600E0D5DEA0E0E59000E0F5904E2032A1E
:10022000000E0422ECD7052A000E0622C7D745E9A6
:06023000E7CFD9FF120028
:0A023600060EF66E000EF76E000EC5
:10024000F86E00010900F550056F0900F550066FC2
:1002500003E1056701D03DD00900F550006F0900AA
:10026000F550016F0900F550026F09000900F550C3
:10027000E96E0900F550EA6E090009000900F55021
:10028000036F0900F550046F09000900F6CF07F06D
:10029000F7CF08F0F8CF09F000C0F6FF01C0F7FF74
:1002A00002C0F8FF0001035302E1045307E0090014
:1002B000F550EE6E0307F8E20407F9D707C0F6FF22
:1002C00008C0F7FF09C0F8FF00010507000E065B34
:0402D000BFD7120082
:0C02D400D9CFE6FFDACFE6FFE1CFD9FF7B
:1002E000E2CFDAFF84E928D8EF6A0F014AA102D0F1
:1002F00023D8EF804AA502D01FD8EF824AA702D0A8
:100300001BD8EF844AA902D017D8EF864AAB02D097
:1003100013D8EF8E4AAF02D00FD8EF884BA102D08E
:100320000BD8EF8A4CA302D007D8EF8C41E9E5CF78
:10033000DAFFE7CFD9FF120000EBE9FF01EBEAFF9C
:020340001200A9
:0E034200D9CFE6FFDACFE6FFE1CFD9FFE2CF59
:10035000DAFF84E90050010B02E00F014D810050EB
:10036000020B07E00F014D830F014C9529EC02F0C1
:1003700004D00F014D930F014C85D39E0F014D8F7B
:0E038000030041E9E5CFDAFFE7CFD9FF120015
:02038E00D9CFC5
:10039000E6FFDACFE6FFE1CFD9FFE2CFDAFF83E96C
:1003A000F29200A202D0F18C01D0F19C00A002D008
:1003B000F18E01D0F19E00AC02D0F18001D0F1901D
:1003C00000AE02D0F28801D0F29841E9E5CFDAFF21
:0603D000E7CFD9FF120087
:0A03D600D9CFE6FFDACFE6FFE1CF52
:1003E000D9FFE2CFDAFF84E900EBE9FF01EBEAFF96
:1003F0004ECFEFFF00EBE9FF01EBEAFFEE524FCFEC
:0E040000EFFF41E9E5CFDAFFE7CFD9FF1200A9
:02040E00C00E1E
:10041000F36E00EE00F00E0E01D81200EA6002D07A
:0E042000EE6AFCD7F350E9601200EE6AFCD7DA
:02042E001DEEC1
:1004300000F02DEE00F0F86A1BEC01F02DEC02F05C
:0804400004EC00F0FBD71200F0
:08044800C0A602D0C096FF0C13
:02045000000C9E
:080452009280C084C0821200F8
:02045A0012008E
:01FFF800AE5A
:01FFF900F710
:01FFFA00DC2A
:01FFFC006D97
:00000001FF
