:100000003C0E0020A53000008930000000000000F8
:1000100089300000893000008930000089300000FC
:1000200089300000893000008930000089300000EC
:10003000893000008930000089300000092A000062
:1000400089300000893000008930000089300000CC
:1000500089300000893000008930000089300000BC
:1000600089300000893000008930000089300000AC
:10007000893000008930000089300000893000009C
:1000800089300000812B0000893000008930000099
:10009000893000008930000089300000893000007C
:1000A000893000008930000089300000893000006C
:1000B000893000008930000089300000893000005C
:1000C000893000008930000089300000893000004C
:1000D000893000008930000089300000893000003C
:1000E000893000008930000089300000893000002C
:1000F0000B88032B02D0052B0AD104E0074B0360C9
:100100004FF002007047064B03604FF0020070474B
:10011000044B03604FF00300704700BF6D07000001
:100120007D090000C9010000044B1A68044800FB67
:1001300002F018604FEA1020704700BF0000002056
:10014000CD0D01002DE9F0410D4616461C4609294A
:1001500004D91B4840F2CB2102F010FD2A46184B6F
:1001600003EBC5052D7CC6F160039D42C8BFDDB21F
:100170001DB3144B9E194FF00003114F07EBC2073C
:10018000C4F100085FFA88F85FFA84FC002CFA6872
:10019000D15CACBF01FA0CF141FA08F132780A43A4
:1001A00006F8012B96F85F0040EA112186F85F10EF
:1001B00003F10103DAB29542E8D8BDE8F08100BF4F
:1001C0008C5C00000400002038B505460C460B8806
:1001D000062B16D0162B19D10B79042B04D803F15A
:1001E000100350F8233023B90B484FF0A90102F057
:1001F000C5FC237903F110034FF0000045F82300FC
:1002000038BD064B03604FF0020038BD044B03605D
:100210004FF0030038BD00BF8C5C0000E10D000012
:10022000A5470000F8B5074600F1500400F1640549
:100230004FF0000654F8040F314603F05BFF60698D
:10024000314603F057FFAC42F4D140F2D242C04BEA
:100250001A6038464FF0040103F090F938464FF029
:10026000050103F08BF938464FF0060103F086F9DB
:10027000B84BDB7913F0200F39D072B64FF03D0048
:1002800004F0DEFAB44805F03DF8B44805F0F6F99C
:1002900004F07EFB62B602F007FEAE4BDB7913F092
:1002A000200F24D072B64FF03D0004F0C9FAAC48DC
:1002B00005F028F8AB4805F0E1F904F069FB62B6F7
:1002C00002F0F2FDA34BDB7913F0200F0FD072B6D2
:1002D0004FF03D0004F0B4FAA34805F013F8A3482A
:1002E00005F0CCF904F054FB62B602F0DDFD994B49
:1002F000DB7913F0400F00F0BA8072B64FF03E0089
:1003000004F09EFA9A4804F0FDFF9A4805F0B6F909
:1003100004F03EFB62B602F0C7FD8E4BDB7913F0B2
:10032000400F00F0A48072B64FF03E0004F088FA4F
:10033000914804F0E7FF914805F0A0F904F028FB8C
:1003400062B602F0B1FD834BDB7913F0400F00F091
:100350008E8072B64FF03E0004F072FA884804F0C6
:10036000D1FF884805F08AF904F012FB62B602F06A
:100370009BFD784BDB7913F0400F78D072B64FF0CD
:100380003E0004F05DFA804804F0BCFF7F4805F0B1
:1003900075F904F0FDFA62B602F086FD6D4BDB796B
:1003A00013F0400F63D072B64FF03E0004F048FAED
:1003B000774804F0A7FF774805F060F904F0E8FA01
:1003C00062B602F071FD634BDB7913F0400F4ED043
:1003D00072B64FF03E0004F033FA6F4804F092FF1B
:1003E0006E4805F04BF904F0D3FA62B602F05CFDFA
:1003F000584BDB7913F0400F39D072B64FF03E0006
:1004000004F01EFA664804F07DFF664805F036F9F0
:1004100004F0BEFA62B602F047FD4E4BDB7913F0F2
:10042000400F24D072B64FF03E0004F009FA5E4847
:1004300004F068FF5D4805F021F904F0A9FA62B6FE
:1004400002F032FD434BDB7913F0400F0FD072B650
:100450004FF03E0004F0F4F9554804F053FF5548BE
:1004600005F00CF904F094FA62B602F01DFD394B68
:10047000DB7913F0100F00F0068172B64FF03C00EC
:1004800004F0DEF94FF00A0004F084FE324C2046FE
:1004900004F038FF484805F0F1F804F079FA62B644
:1004A00002F002FD2B4BDB7913F0100F00F0EB8014
:1004B00072B64FF03C0004F0C3F94FF00B0004F0AB
:1004C00069FE204604F01EFF3C4805F0D7F804F012
:1004D0005FFA62B602F0E8FC1E4BDB7913F0100FF6
:1004E00000F0D18072B64FF03C0004F0A9F94FF053
:1004F0000F0004F04FFE204604F004FF304805F0E2
:10050000BDF804F045FA62B602F0CEFC114BDB797F
:1005100013F0100F00F0B78072B64FF03C0004F0FB
:100520008FF94FF0100004F035FE204604F0EAFE8B
:10053000244805F0A3F804F02BFA62B602F0B4FCEC
:10054000044BDB7913F0100F00F09D803CE000BFFE
:10055000000000209C0B0020C4000020E85C00008C
:10056000DC000020F45C0000F00000200C5D0000C6
:1005700025020000245D0000E10D0000345D000054
:10058000C9010000445D0000950A0000545D0000B0
:100590007D090000645D0000C9070000745D000073
:1005A000F1000000885D00006D070000A05D000004
:1005B000A9060000BC5D0000D85D0000EC5D0000F5
:1005C000005E0000105E000072B64FF03C0004F0C8
:1005D00037F94FF0110004F0DDFD204604F092FEE3
:1005E0002B4805F04BF804F0D3F962B602F05CFC3E
:1005F000284BDB7913F0100F45D072B64FF03C005A
:1006000004F01EF94FF0160004F0C4FD204604F07B
:1006100079FE214805F032F804F0BAF962B602F02A
:1006200043FC1C4BDB7913F0100F2CD072B64FF04B
:100630003C0004F005F94FF0140004F0ABFD204637
:1006400004F060FE154805F019F804F0A1F962B64F
:1006500002F02AFC0F4BDB7913F0100F13D072B6A7
:100660004FF03C0004F0ECF84FF0180004F092FD5D
:10067000204604F047FE0A4805F000F804F088F927
:1006800062B602F011FC074B3B604FF00200F8BD70
:10069000205E00009C0B0020305E0000445E0000E5
:1006A000545E00007D09000070B504460B88022BE3
:1006B00033D00B2B47D0012B4AD1FFF735FD054630
:1006C000264E30464FF000014FF0C00205F048FAC8
:1006D000234BA3FB05234FEA531303EB830203EBE6
:1006E000C202AA1A20464FF00001D2B205F0070359
:1006F000FFF728FD30464FF060014FF0100202F086
:100700009BF94FF00005E58704F12C0021464FF0DE
:100710000A0203F073FA284670BD00F12C0003F0C2
:10072000B3FA0E4C20464FF000014FF0C00205F026
:1007300017FA20464FF060014FF0100202F07CF9EA
:100740004FF0000070BD074B03604FF0020070BD1A
:10075000054B03604FF0030070BD00BF0400002094
:100760007D0CCEC76D070000F100000038B50446CF
:100770000B88022B11D00B2B18D0012B1BD102F0B0
:1007800079F94FF00005E58704F12C0021464FF080
:100790005A0203F033FA284638BD00F12C0003F06A
:1007A00073FA02F063F94FF0000038BD044B0360A8
:1007B0004FF0020038BD034B03604FF0030038BD1B
:1007C000A9060000F100000070B504460B8803F193
:1007D000FF330A2B4BD8DFE803F006224A4A4A4A85
:1007E0004A4A4A3145004FF00F02428500F1180095
:1007F000214603F003FA4FF00005E58704F12C00D1
:1008000021464FF0960203F0F9F984F87C504FF03E
:1008100015002946184A02F01DF9284670BD00F15E
:10082000180003F031FA04F12C0003F02DFA4FF018
:10083000000002F019F94FF0000070BD90F87C3014
:1008400083F0010380F87C304FF015004FF0000179
:10085000094A0A4C8B4218BF224602F0FBF84FF0BF
:10086000000070BD064B03604FF0020070BD054BE9
:1008700003604FF0030070BDA4680000B068000082
:100880007D090000C901000070B50446FFF74CFC6B
:10089000C0B22F2806D894F87F301BB103F1FF3384
:1008A00084F87F30D02806D994F880301BB103F14A
:1008B000FF3384F88030FFF737FCC0B22F2818D8F8
:1008C00094F87F30C3F1100194F88020891A94F8CD
:1008D000812091420DDD94F87D205A2A05D994F8A3
:1008E0007E1003F10102914203DD03F1010384F85C
:1008F0007F30D0281AD994F8803094F87F10C1F155
:100900001001C91A94F8812091420FDD94F87D20DE
:100910005A2A07D994F87E1001F10101C3F110029F
:10092000914203DA03F1010384F88030124D05F59A
:10093000A476304606F101014FF0BF0205F0B6F88B
:1009400094F88010C1F110014FF0FF3202FA01F16A
:1009500094F87F3002FA03F361EA030385F8A731C4
:100960004FEA132385F8073205F1040031464FF0B2
:10097000C00204F001FF70BD0000002038B504463D
:100980000B8803F1FF330A2B65D8DFE803F0062E4E
:1009900064475F646464643942004FF0000580F886
:1009A0007D5080F87E5080F87F5080F880504FF066
:1009B0000D0380F881302A4829464FF0C00205F027
:1009C000CFF84FF00F02628504F11800214603F0C2
:1009D00015F9E58704F12C0021464FF4167203F057
:1009E0000DF984F87C50284638BD00F1180003F05A
:1009F0004BF904F12C0003F047F94FF0000038BD2B
:100A000090F87C3083F0010380F87C304FF00000D8
:100A100038BD144B03604FF0020038BDFFF734FFC0
:100A200094F87C3043B120464FF000014FF014029F
:100A30004FF00403FFF786FB0B484FF060014FF0C7
:100A4000100201F0F9FF4FF0000038BD074B0360C2
:100A50004FF0020038BD064B03604FF0030038BD75
:100A600048010020F100000004000020950A000069
:100A7000C901000070B50E4600F13C0400F15005BC
:100A800054F8040F10B1314603F0E6FBAC42F7D145
:100A900070BD00BF2DE9F04182B005460C460B88C1
:100AA00003F1FF33172B00F27981DFE813F0180010
:100AB0002C00770138007701770118017701770161
:100AC00077017701770177017701A100A100FE008E
:100AD00077017701FE0077017701770108014FF078
:100AE0000D0385F88130B1484FF000014FF0C0028E
:100AF00005F036F8AE4B1868AE492A4602F0CAFC3B
:100B00004FF000004EE102A94FF0170221F8082D26
:100B100028466946FFF7AEFF4FF0000042E1A648C5
:100B20004FF060014FF0100201F086FF2846FFF7FA
:100B3000ABFEFFF7F9FA95F87D3043B103F1FF33CF
:100B4000DBB285F87D3003F10A035F2B49DC00F04E
:100B5000FF00072845D82B6C63B105F140034FF027
:100B6000010653F8042F3AB106F10106F6B2052E3C
:100B7000F7D136E04FF00006FFF7D6FA81B210F059
:100B8000010F06F1100307BF05EB8602526D06F157
:100B90001A0255F8222045F823204FF0600285F80C
:100BA0007D2095F87F3003F1020095F88070C7F141
:100BB0000C07FB1AB1FBF3F703FB1713C318DBB2E7
:100BC00085F87E304FF01500ADF800008DF8042058
:100BD0008DF8053006F1100655F82600694603F039
:100BE0003BFB28462146FFF745FF4FF00000D9E0C8
:100BF0000E7991F805808F79092F04D96F4840F25A
:100C0000E52101F0BBFF6D4B03EBC7031A7CC6F176
:100C100060039A42C8BFDAB2002A38D0674B03EBB0
:100C2000C703D9685FFA88FE0B7803FA0EF36448AD
:100C3000801990F8480103421FD16148801990F84B
:100C4000A80110EA132018D15848831902F1FF3285
:100C5000D2B203EB020C0DE011F8012F02FA0EF2F2
:100C6000587803F10103104207D193F8600010EAAD
:100C7000122002D16345EFD109E023880F2B0CBF6E
:100C80004B4B504B186850492A4602F003FC28464B
:100C9000394632464FFA88F3FFF754FA2846214680
:100CA000FFF7E8FE4FF000007CE0284689792279C2
:100CB00094F90530FFF746FA4FF0000072E088889B
:100CC00001F0D2FEA288414BA3FB02134FEAD313DB
:100CD000C3F10D0385F881304FF0000062E08C888D
:100CE000204601F0C1FE344E30464FF000014FF077
:100CF000C00204F035FF30464FF060014FF01002A3
:100D000001F09AFE4FF012004FF00101304A01F05D
:100D1000A1FE4FF000038DF804302E4BA3FB04021C
:100D20004FEAD20202EB8201A4EB410404F1300449
:100D30008DF8034091B2A3FB01024FEAD20202EB0D
:100D40008200A1EB400101F130018DF8021091B257
:100D5000A3FB01024FEAD20202EB8200A1EB4001A9
:100D600001F130018DF8011092B2A3FB02134FEA9A
:100D7000D30303EB8303A2EB430202F1300302AA85
:100D800002F8083D4FF036004FF001016A4601F0CD
:100D900061FE114B2B604FF0020003E00F4B2B6004
:100DA0004FF0030002B0BDE8F08100BF4801002011
:100DB000B4620000605E0000040000208C5C000053
:100DC00000000020FC610000645E0000D34D621052
:100DD000BC680000CDCCCCCCC9070000C901000024
:100DE00010B50B88012B13D10C4C20464FF000019D
:100DF0004FF0C00204F0B4FE20464FF060014FF007
:100E0000100201F019FE02F0AFFF4FF0000010BD1C
:100E1000034B03604FF0030010BD00BF040000202F
:100E2000A547000070B5164D164BC5F8C43005F146
:100E3000DC004FF00A0102F0CBFE05F1F0004FF0AC
:100E40000B0102F0C5FE05F58A754FF00004264639
:100E5000204600F063FB45F8040F204600F00EFE2C
:100E6000686145F8146C04F10104E4B2052CEFD17B
:100E7000034B4FF0000283F8412183F8422170BDFB
:100E800000000020250200002DE9F84306460D462B
:100E900090461F469DF820409DF82490092801D8CF
:100EA000092B04D9514840F2033101F067FEA542F5
:100EB0003DD84E4B03EBC7031B7CEA18A24275DDFD
:100EC000101BC0B2494B03EBC6031A7C904228BFEB
:100ED000104600286ED0454B03EBC707F968641B2A
:100EE000E4B24F4603EBC606F26846460B5D03FAD2
:100EF00009F9137803FA08F819EA080F5ED10C19FA
:100F00004FF000030AE0657804F1010412F8011FB4
:100F100005FA07F501FA06F10D4253D103F1010379
:100F2000DBB28342EFD14FF00000BDE8F8832F4BD6
:100F300003EBC6031B7CE218AA4247DD581B2018AE
:100F4000C0B22A4B03EBC7031A7C904228BF10465D
:100F500000283FD0254B03EBC606F1682C1BE4B2FA
:100F6000464603EBC707FA684F460B5D03FA08F8DD
:100F7000137803FA09F918EA090F2FD10C194FF069
:100F800000030AE0617804F1010412F8015F05FA38
:100F900007F501FA06F10D4224D103F10103DBB29A
:100FA0008342EFD14FF00000BDE8F8834FF000001E
:100FB000BDE8F8834FF00000BDE8F8834FF0010072
:100FC000BDE8F8834FF00100BDE8F8834FF0000062
:100FD000BDE8F8834FF00000BDE8F8834FF0010052
:100FE000BDE8F8834FF00100BDE8F8838C5C000099
:100FF0000B88152B08D10B7903714B794371054B85
:1010000003604FF002007047034B03604FF0030092
:10101000704700BF2D140000A547000010B504461E
:10102000AE4B1B78002B40F0D680AD4BDB7913F034
:10103000200F63D072B64FF03D0003F001FCA948C9
:1010400004F060F9A84804F019FB03F0A1FC62B6B3
:1010500001F02AFFA24BDB7913F0200F4ED072B6BD
:101060004FF03D0003F0ECFBA04804F04BF9A04822
:1010700004F004FB03F08CFC62B601F015FF984B02
:10108000DB7913F0200F39D072B64FF03D0003F03A
:10109000D7FB984804F036F9974804F0EFFA03F0CC
:1010A00077FC62B601F000FF8D4BDB7913F0200F67
:1010B00024D072B64FF03D0003F0C2FB8F4804F01D
:1010C00021F98F4804F0DAFA03F062FC62B601F00D
:1010D000EBFE834BDB7913F0200F0FD072B64FF08D
:1010E0003D0003F0ADFB874804F00CF9864804F09E
:1010F000C5FA03F04DFC62B601F0D6FE784BDB7901
:1011000013F0400F63D072B64FF03E0003F098FB2F
:101110007E4804F0F7F87E4804F0B0FA03F038FC9B
:1011200062B601F0C1FE6E4BDB7913F0400F4ED07A
:1011300072B64FF03E0003F083FB764804F0E2F80D
:10114000754804F09BFA03F023FC62B601F0ACFE94
:10115000634BDB7913F0400F39D072B64FF03E008D
:1011600003F06EFB6D4804F0CDF86D4804F086FA8C
:1011700003F00EFC62B601F097FE594BDB7913F0D9
:10118000400F24D072B64FF03E0003F059FB654883
:1011900004F0B8F8644804F071FA03F0F9FB62B6A1
:1011A00001F082FE4E4BDB7913F0400F0FD072B688
:1011B0004FF03E0003F044FB5C4804F0A3F85C48A9
:1011C00004F05CFA03F0E4FB62B601F06DFE4FF050
:1011D0000102424B1A70424BDB7913F0100F77D0AB
:1011E00072B64FF03C0003F02BFB4FF0150003F0FC
:1011F000D1FF204604F086F84E4804F03FFA03F091
:10120000C7FB62B601F050FE354BDB7913F0100FCF
:101210005ED072B64FF03C0003F012FB4FF01600A8
:1012200003F0B8FF204604F06DF8434804F026FAB6
:1012300003F0AEFB62B601F037FE294BDB7913F009
:10124000100F45D072B64FF03C0003F0F9FA4FF0A2
:10125000170003F09FFF204604F054F8374804F0CD
:101260000DFA03F095FB62B601F01EFE1C4BDB7914
:1012700013F0100F2CD072B64FF03C0003F0E0FAE0
:101280004FF00F0003F086FF204604F03BF82C4897
:1012900004F0F4F903F07CFB62B601F005FE104B9C
:1012A000DB7913F0100F13D072B64FF03C0003F04F
:1012B000C7FA4FF0100003F06DFF204604F022F84B
:1012C000204804F0DBF903F063FB62B601F0ECFDAB
:1012D000104B23604FF0020010BD00BF0802002039
:1012E0009C0B00200C020020DC5E00001402002099
:1012F000E85E00001C020020F45E000024020020D2
:10130000005F00002C0200200C5F00001D10000098
:10131000185F0000F10F0000285F0000D1130000EB
:10132000385F00002D140000445F000049130000E6
:10133000545F0000685F0000785F00008C5F000071
:10134000A05F0000B05F000010B504460B88012BC1
:1013500002D0042B31D103E04FF00000A07110BD8A
:1013600003792BB382790E2A22D802F1010282710D
:1013700003F1FF3303714FF008004FF0140102F046
:10138000C7F90146237903F1010303716379A3F1DE
:1013900002034371A3794FEA930303F106038371B8
:1013A000084B1868224602F075F84FF0000010BD97
:1013B000054B23604FF0020010BD044B03604FF05B
:1013C000030010BD685E0000F10F0000D1130000A3
:1013D00010B504460B88022B02D0172B19D113E04D
:1013E0004FF006004FF0160102F092F901460B4B48
:1013F000E31A4FEAE3030371094B1868224602F02F
:1014000049F84FF0000010BD064B03604FF002009A
:1014100010BD054B03604FF0030010BD0C0200200F
:10142000685E0000F10F0000A547000030B583B0F2
:1014300004460B880F2B23D0102B3AD0042B50D10D
:101440000379C3B103F1FF3303714FF008004FF08C
:10145000110102F05DF9014623790371637943714B
:101460004FF003038371254B1868224602F012F8EF
:101470004FF000003FE0224B03604FF002003AE0E3
:10148000057942798B7908790090497901914FF07B
:1014900003002946FFF7F8FC002827D0194B1868ED
:1014A0001949224601F0F6FF154B23604FF0020068
:1014B00021E0057942798B79087900904979019189
:1014C0004FF003002946FFF7DFFC90B10F4B18687F
:1014D0000F49224601F0DEFF0E4B23604FF0020061
:1014E00009E00D4B03604FF0030004E04FF00000F3
:1014F00001E04FF0000003B030BD00BF685E0000A7
:10150000F10F0000B4620000C05F0000FC61000049
:10151000C85F000049130000D113000010B5044655
:10152000042804D907484FF0380101F027FB06488A
:101530004FEAC4040319054A5A6000F10400001977
:1015400010BD00BFD05F0000080200201D10000089
:101550000B88152B08D10B7903714B794371054B1F
:1015600003604FF002007047034B03604FF003002D
:10157000704700BF8D190000A547000010B5044654
:10158000AE4B1B78002B40F0D680AD4BDB7913F0CF
:10159000200F63D072B64FF03D0003F051F9A94817
:1015A00003F0B0FEA84804F069F803F0F1F962B660
:1015B00001F07AFCA24BDB7913F0200F4ED072B60B
:1015C0004FF03D0003F03CF9A04803F09BFEA0481B
:1015D00004F054F803F0DCF962B601F065FC984BB6
:1015E000DB7913F0200F39D072B64FF03D0003F0D5
:1015F00027F9984803F086FE974804F03FF803F077
:10160000C7F962B601F050FC8D4BDB7913F0200F67
:1016100024D072B64FF03D0003F012F98F4803F06A
:1016200071FE8F4804F02AF803F0B2F962B601F0B7
:101630003BFC834BDB7913F0200F0FD072B64FF0D9
:101640003D0003F0FDF8874803F05CFE864804F097
:1016500015F803F09DF962B601F026FC784BDB79B2
:1016600013F0400F63D072B64FF03E0003F0E8F87D
:101670007E4803F047FE7E4804F000F803F088F946
:1016800062B601F011FC6E4BDB7913F0400F4ED0C7
:1016900072B64FF03E0003F0D3F8764803F032FE06
:1016A000754803F0EBFF03F073F962B601F0FCFB41
:1016B000634BDB7913F0400F39D072B64FF03E0028
:1016C00003F0BEF86D4803F01DFE6D4803F0D6FF31
:1016D00003F05EF962B601F0E7FB594BDB7913F0DA
:1016E000400F24D072B64FF03E0003F0A9F86548D1
:1016F00003F008FE644803F0C1FF03F049F962B645
:1017000001F0D2FB4E4BDB7913F0400F0FD072B6D5
:101710004FF03E0003F094F85C4803F0F3FD5C48A2
:1017200003F0ACFF03F034F962B601F0BDFB4FF0FB
:101730000102424B1A70424BDB7913F0100F77D045
:1017400072B64FF03C0003F07BF84FF0150003F049
:1017500021FD204603F0D6FD4E4803F08FFF03F035
:1017600017F962B601F0A0FB354BDB7913F0100FCF
:101770005ED072B64FF03C0003F062F84FF01600F6
:1017800003F008FD204603F0BDFD434803F076FF5B
:1017900003F0FEF862B601F087FB294BDB7913F00A
:1017A000100F45D072B64FF03C0003F049F84FF0EF
:1017B000170003F0EFFC204603F0A4FD374803F0C8
:1017C0005DFF03F0E5F862B601F06EFB1C4BDB79C0
:1017D00013F0100F2CD072B64FF03C0003F030F82D
:1017E0004FF00F0003F0D6FC204603F08BFD2C4891
:1017F00003F044FF03F0CCF862B601F055FB104B48
:10180000DB7913F0100F13D072B64FF03C0003F0E9
:1018100017F84FF0100003F0BDFC204603F072FDF6
:10182000204803F02BFF03F0B3F862B601F03CFB55
:10183000104B23604FF0020010BD00BF34020020A7
:101840009C0B002038020020D85F000040020020DE
:10185000E45F000048020020F05F0000500200201A
:10186000FC5F000058020020086000007D150000A9
:1018700014600000511500002460000031190000C0
:10188000346000008D19000040600000A9180000BD
:101890005060000064600000746000008860000018
:1018A0009C600000AC60000010B504460B88012B62
:1018B00002D0042B31D103E04FF00000A07110BD25
:1018C00003792BB382790E2A22D802F101028271A8
:1018D00003F1FF3303714FF008004FF0140101F0E2
:1018E00017FF0146237903F1010303716379A3F123
:1018F00002034371A3794FEA930303F10603837153
:10190000084B1868224601F0C5FD4FF0000010BDDD
:10191000054B23604FF0020010BD044B03604FF0F5
:10192000030010BD685E0000511500003119000071
:1019300010B504460B88022B02D0172B19D113E0E7
:101940004FF006004FF0160101F0E2FE01460B4B8E
:10195000E31A4FEAE3030371094B1868224601F0CA
:1019600099FD4FF0000010BD064B03604FF00200E0
:1019700010BD054B03604FF0030010BD380200207E
:10198000685E000051150000A547000030B583B027
:1019900004460B880F2B23D0102B3AD0042B50D1A8
:1019A0000379C3B103F1FF3303714FF008004FF027
:1019B000110101F0ADFE0146237903716379437192
:1019C0004FF004038371254B1868224601F062FD35
:1019D0004FF000003FE0224B03604FF002003AE07E
:1019E000057942798B7908790090497901914FF016
:1019F00004002946FFF748FA002827D0194B186839
:101A00001949224601F046FD154B23604FF00200B4
:101A100021E0057942798B79087900904979019123
:101A20004FF005002946FFF72FFA90B10F4B1868C9
:101A30000F49224601F02EFD0E4B23604FF00200AD
:101A400009E00D4B03604FF0030004E04FF000008D
:101A500001E04FF0000003B030BD00BF685E000041
:101A600051150000B4620000BC600000FC61000081
:101A7000C4600000A91800003119000010B5044628
:101A8000042804D907484FF0380101F077F80648D8
:101A90004FEAC4040319054A5A6000F10400001912
:101AA00010BD00BFCC600000340200207D15000096
:101AB00030B585B005460C4600F0BEFA00F0FCFCDF
:101AC000FFF7B0F92846214601F020FA02F04AF962
:101AD0008C4C20464FF028014FF0040201F06EFEBE
:101AE00004F128004FF090014FF0080201F066FE6B
:101AF00004F1B8004FF0080101F096FE824BDB794B
:101B000013F0200F67D072B64FF03D0002F098FE40
:101B100004F1F80003F0F6FB7C4803F0AFFD02F09F
:101B200037FF62B601F0C0F9774BDB7913F0200F75
:101B300051D072B64FF03D0002F082FE04F5807085
:101B400003F0E0FB724803F099FD02F021FF62B65A
:101B500001F0AAF96C4BDB7913F0200F3BD072B681
:101B60004FF03D0002F06CFE04F5867003F0CAFBF6
:101B7000684803F083FD02F00BFF62B601F094F9B0
:101B8000614BDB7913F0200F25D072B64FF03D008A
:101B900002F056FE204603F0B5FB5F4803F06EFDF1
:101BA00002F0F6FE62B601F07FF9574BDB7913F0D5
:101BB000200F10D072B64FF03D0002F041FE04F14C
:101BC000280003F09FFB554803F058FD02F0E0FEAB
:101BD00062B601F069F94C4BDB7913F0100F62D05B
:101BE00072B64FF03C0002F02BFE4FF0040003F001
:101BF000D1FA4FF0000003F085FB494803F03EFDA9
:101C000002F0C6FE62B601F04FF93F4BDB7913F0EC
:101C1000100F48D072B64FF03C0002F011FE4FF0AA
:101C2000050003F0B7FA4FF0000003F06BFB3D48EE
:101C300003F024FD02F0ACFE62B601F035F9324B40
:101C4000DB7913F0100F2ED072B64FF03C0002F08B
:101C5000F7FD4FF0060003F09DFA4FF0000003F08F
:101C600051FB314803F00AFD02F092FE62B601F02A
:101C70001BF9254BDB7913F0100F14D072B64FF01F
:101C80003C0002F0DDFD4FF0070003F083FA4FF057
:101C9000000003F037FB254803F0F0FC02F078FE6B
:101CA00062B601F001F9224B1868164D4FF000049E
:101CB0000094019402944FF0010105F1F8024FF0F5
:101CC000020302F08BF81B4B1868009401940294F5
:101CD0004FF0020105F580724FF0030302F07EF829
:101CE000154B18680094019402944FF0030105F518
:101CF00086724FF00A0302F071F802F039F82046BC
:101D000005B030BD600200209C0B0020D4600000B4
:101D1000E8600000F86000000C6100001C61000039
:101D20002C6100003C610000506100006061000017
:101D3000FC610000B4620000685E00000B88122B9A
:101D400008D10B7903764B794376054B03604FF04E
:101D500002007047034B03604FF00300704700BF61
:101D6000A91F0000A547000038B504464FF0040144
:101D700001F004FC5C4BDB7913F0200F0FD072B63E
:101D80004FF03D0002F05CFD584803F0BBFA5848A4
:101D900003F074FC02F0FCFD62B601F085F8524BD2
:101DA000DB7913F0400F4ED072B64FF03E0002F0D8
:101DB00047FD504803F0A6FA4F4803F05FFC02F0DD
:101DC000E7FD62B601F070F8474BDB7913F0400F86
:101DD00039D072B64FF03E0002F032FD474803F0B2
:101DE00091FA474803F04AFC02F0D2FD62B601F0D6
:101DF0005BF83D4BDB7913F0400F24D072B64FF007
:101E00003E0002F01DFD3F4803F07CFA3E4803F01F
:101E100035FC02F0BDFD62B601F046F8324BDB79CD
:101E200013F0400F0FD072B64FF03E0002F008FDE5
:101E3000364803F067FA364803F020FC02F0A8FDAC
:101E400062B601F031F8284BDB7913F0100F46D061
:101E500072B64FF03C0002F0F3FC4FF0120003F0BA
:101E600099F9224D284603F04DFA2A4803F006FC62
:101E700002F08EFD62B601F017F81B4BDB7913F010
:101E8000100F2CD072B64FF03C0002F0D9FC4FF08E
:101E90000D0003F07FF9284603F034FA1E4803F0E2
:101EA000EDFB02F075FD62B600F0FEFF0E4BDB7934
:101EB00013F0100F13D072B64FF03C0002F0C0FCCC
:101EC0004FF0130003F066F9284603F01BFA13489D
:101ED00003F0D4FB02F05CFD62B600F0E5FF074BB7
:101EE00023604FF0020038BD9C0B002094030020BB
:101EF00070610000691D00007C6100003D1D000054
:101F000090610000A91F0000A0610000211F0000D7
:101F1000B0610000C4610000D8610000E861000009
:101F200010B504460B88012B02D0042B31D103E0FD
:101F30004FF00000A07610BD037E2BB3827E0E2AE8
:101F400022D802F10102827603F1FF3303764FF0CB
:101F500008004FF0140101F0DBFB0146237E03F182
:101F600003030371637EA3F104034371A37E4FEA6D
:101F7000930303F106038371084B1868224601F0AE
:101F800089FA4FF0000010BD054B23604FF00200AE
:101F900010BD044B03604FF0030010BD685E0000ED
:101FA0003D1D0000A547000010B504460B880D2B11
:101FB00024D0132B27D0042B2FD1037E03F1020250
:101FC0005F2A16DC02764FF008004FF0100101F096
:101FD0009FFB0146237E0371637E43714FF0020332
:101FE0008371104B1868224601F054FA4FF000003C
:101FF00010BD0D4B03604FF0020010BD0B4B036092
:102000004FF0020010BD0A4B1868224601F042FA58
:10201000054B23604FF0020010BD064B03604FF0EC
:10202000030010BD685E00003D1D0000211F000080
:10203000B4620000A5470000014A024B1A607047D5
:10204000691D0000940300200B88032B02D0092B8C
:102050000CD104E0084B03604FF0020070470B798D
:1020600003764B7943764FF000007047034B0360D3
:102070004FF00300704700BF81200000A54700001B
:102080000B880C2B04D1054B03604FF00200704706
:10209000034B03604FF00300704700BF9D23000017
:1020A0004920000038B504464FF0040101F066FAFB
:1020B00020464FF0050101F061FA804BDB7913F007
:1020C000200F0FD072B64FF03D0002F0B9FB7C48F4
:1020D00003F018F97B4803F0D1FA02F059FC62B61C
:1020E00000F0E2FE754BDB7913F0400F63D072B65F
:1020F0004FF03E0002F0A4FB734803F003F973486D
:1021000003F0BCFA02F044FC62B600F0CDFE6B4B6B
:10211000DB7913F0400F4ED072B64FF03E0002F064
:102120008FFB6B4803F0EEF86A4803F0A7FA02F061
:102130002FFC62B600F0B8FE604BDB7913F0400F65
:1021400039D072B64FF03E0002F07AFB624803F0DD
:10215000D9F8624803F092FA02F01AFC62B600F075
:10216000A3FE564BDB7913F0400F24D072B64FF02C
:102170003E0002F065FB5A4803F0C4F8594803F0EA
:102180007DFA02F005FC62B600F08EFE4B4BDB7967
:1021900013F0400F0FD072B64FF03E0002F050FB2C
:1021A000514803F0AFF8514803F068FA02F0F0FB31
:1021B00062B600F079FE414BDB7913F0100F78D056
:1021C00072B64FF03C0002F03BFB4FF0090002F00A
:1021D000E1FF3B4D284603F095F8454803F04EFAE1
:1021E00002F0D6FB62B600F05FFE344BDB7913F0F1
:1021F000100F5ED072B64FF03C0002F021FB4FF0A2
:102200000C0002F0C7FF284603F07CF8394803F0C1
:1022100035FA02F0BDFB62B600F046FE274BDB79D3
:1022200013F0100F45D072B64FF03C0002F008FBDF
:102230004FF00D0002F0AEFF284603F063F82E4881
:1022400003F01CFA02F0A4FB62B600F02DFE1B4B5B
:10225000DB7913F0100F2CD072B64FF03C0002F077
:10226000EFFA4FF00E0002F095FF284603F04AF80F
:10227000224803F003FA02F08BFB62B600F014FE72
:102280000E4BDB7913F0100F13D072B64FF03C00F9
:1022900002F0D6FA4FF0130002F07CFF284603F05C
:1022A00031F8174803F0EAF902F072FB62B600F069
:1022B000FBFD074B23604FF0020038BD9C0B002054
:1022C000B003002000620000A520000008620000AA
:1022D00049200000186200008120000028620000F0
:1022E0009D230000386200000523000048620000C2
:1022F000586200007062000080620000906200007E
:10230000A062000010B504460B88012B02D0042BFC
:1023100038D103E04FF00000A07610BD837E0E2B75
:102320001DD803F1010383764FF008004FF014012C
:1023300001F0EEF90146A37E4FEA930303F1060391
:102340008371237E0371637E03F1FF334371104B6E
:102350001868224601F09EF84FF0000010BD4FF0C3
:1023600006004FF0070101F0D3F90146A38B8380EB
:10237000074B1868224601F08DF8064B23604FF09A
:10238000020010BD044B03604FF0030010BD00BFFE
:10239000685E0000812000004920000038B5044636
:1023A0000B8803F1FF33122B74D8DFE803F00A73B4
:1023B000731D52737373737373736E6E737373736E
:1023C00067004FF0000585834FF006004FF01801BD
:1023D00001F09EF90146A38B8380324B1868224698
:1023E00001F058F8284638BD4FF008004FF00F01B3
:1023F00001F08EF90146237E0371637E43714FF035
:1024000001038371274B1D682846224601F042F8DC
:10241000A38B03F101039BB2A383234AA2FB031204
:102420004FEAD20202EB8202A3EB42039BB2002BE3
:1024300035D14FF006004FF0180101F069F901465F
:10244000A28B82802846224601F024F84FF000003B
:1024500038BD4FF006004FF0120101F059F9014666
:10246000237E0371637E03F1020343710F4B1868EF
:10247000224601F00FF84FF0000038BD8A88838BA8
:10248000D31883834FF0000038BD094B03604FF031
:10249000020038BD074B03604FF0030038BD4FF01A
:1024A000000038BD685E0000CDCCCCCCFC610000E3
:1024B0000523000049200000044B054A1A604FF034
:1024C0000A021A764FF008025A767047B0030020CD
:1024D000A5200000044B4FF07A021A6098604FF07C
:1024E00003025A60704700BF000002400138FDD16E
:1024F0007047704710B50446064A5369002BFCD05C
:10250000054B1868FFF7F2FF024B9C604FF0010289
:102510005A6010BD00000240D003002038B50546C7
:102520000A4A5369002BFCD0094B1C682046FFF770
:10253000DDFF064B9D604FF005025A601A46536955
:10254000002BFCD02046FFF7D1FF38BD0000024031
:10255000D00300202DE9F04191B105464618094C01
:10256000094F4FF001086369002BFCD03868FFF772
:10257000BDFF15F8013BA360C4F80480B542F2D159
:10258000BDE8F08100000240D003002070B54FF09C
:102590008000FFF79FFF1B4B1E79002E1A4B03F1A3
:1025A000080018BF18464FF00601FFF7D3FF4FF0A1
:1025B0005F044FF000052846FFF79CFF013CFAD16D
:1025C0004FF00000FFF7AAFF4FF08000FFF782FFF7
:1025D000002E0E4B03F1080018BF18464FF00601FD
:1025E000FFF7B8FF4FF0000425462846FFF782FFAB
:1025F00004F101045F2CF8D14FF00000FFF78EFFCB
:1026000070BD00BFD0030020B8620000C8620000A7
:102610002DE9F84306460C4615464FF08000FFF7BB
:1026200059FF002D14BFB120B020FFF763FF4FF01A
:102630008000FFF75FFF2F4B5D79281900F00F0036
:10264000FFF758FF4FF08000FFF754FF6519C5F3FF
:10265000031040F01000FFF74DFF4FF04000FFF770
:1026600049FF3378002B3AD1BDE8F88304F1060422
:102670005A2C1CD803EB8303A3F1A0003818414661
:10268000FFF768FF5A2C03D02E4615F8013B2BB9F3
:102690004FF00000FFF742FFBDE8F8834846FFF720
:1026A00029FF15F8013C002BE0D1BDE8F883C4F107
:1026B0005F05114C03EB8303E018A0F1800029466D
:1026C000FFF748FF3378A3F1200303EB8303E418FB
:1026D000651995F82000FFF721FFBDE8F8835A2C13
:1026E000E5D806F10105054F4FF005084FF0000948
:1026F000C0E700BFD0030020B8620000D86200002D
:102700002DE9F84F054614461F460A9B1C4A92F8CD
:1027100005A08A448BB3CAF3031848F0100803EBF2
:1027200004094FF080060AF00F0A07F1FF3B30461C
:10273000FFF7D0FE002C14BFB120B020FFF7DAFE67
:102740003046FFF7D7FE5046FFF7D4FE3046FFF77E
:10275000D1FE4046FFF7CEFE4FF04000FFF7CAFE25
:1027600028465946FFF7F6FEED1915F8010CFFF75C
:10277000D5FE04F101044C45D9D1BDE8F88F00BF66
:10278000D00300202DE9F8430446664BD3F804211A
:1027900042F48052C3F80421D3F8082142F0020227
:1027A000C3F808215B68C3F30033DEB25E4A1371DD
:1027B000002E00F09C804FF004025B4B5A71594B85
:1027C000D3F8082142F00802C3F808214FF00100B5
:1027D000FFF78CFE554BD3F8002442F08002C3F87B
:1027E00000244FF08002C3F80022514BD3F800249C
:1027F00022F00C02C3F80024D3F8202442F00C028B
:10280000C3F82024D3F8002542F00C02C3F80025B9
:10281000D3F8182522F00C02C3F81825D3F80C259C
:1028200042F00C02C3F80C25D3F8102542F00C023C
:10283000C3F81025D3F81C2542F00C02C3F81C2560
:10284000D3F8282522F00C02C3F8282503F5D83345
:102850001A6A42F010021A62364B374A002C0CBF3B
:1028600014461C4604EB84044FEA8404334B1B6873
:1028700003F1FF331B19B3FBF4F404F1FF34304BC5
:10288000DC60DB6803F1010303EB03134FEA83030E
:10289000254A13604FF00004DFF8A88008F513778D
:1028A000B9461AE046B308F5FE7563195878FFF784
:1028B00011FE04F10200615D2818A1F10201FFF789
:1028C00049FE635D08EB0402D31893F8FC01FFF79F
:1028D00025FE2B5D03F10103E418002E0CBF7123CC
:1028E0004D239C42DED3FFF751FEBDE8F8834FF045
:1028F00024020D4B5A7178E7E3195878FFF7EAFD87
:1029000004F10200E15D3818A1F10201FFF722FE97
:10291000E35D08EB0402D31893F84C02FFF7FEFDC9
:102920004D46D6E700E00F40D00300200070004085
:1029300000500040801A0600A0860100F409002023
:1029400000000240B86200002DE9F0414FF00004A1
:102950001E4F07F51376B04619E013B307F5FE7561
:1029600063195878FFF7B6FD04F10200615D28187D
:10297000A1F10201FFF7EEFD635D3A19D31893F858
:10298000FC01FFF7CBFD2B5D03F10103E418104BB5
:102990001B79002B0CBF71224D229442DDD3BDE880
:1029A000F081A3195878FFF795FD04F10200A15DAD
:1029B0003018A1F10201FFF7CDFDA35D3A19D3183C
:1029C00093F84C02FFF7AAFD4546DCE7B862000029
:1029D000D003002008B54FF08000FFF77BFD4FF0DB
:1029E000AE00FFF787FD4FF08000FFF783FD4FF04B
:1029F000AD00FFF77FFD4FF08000FFF77BFD4FF04C
:102A00008A00FFF78BFD08BD10B5084B1B68084C0A
:102A100062682368D31844F8083B204600F084FF1E
:102A20000448214600F006FF10BD00BF10E000E0A2
:102A3000D80300207865000000B583B00B464FEA4C
:102A4000D20200924FF000010A46FFF759FE03B090
:102A500000BD00BF10B504460B46104621461A467D
:102A6000FFF7D6FD10BD00BF704700BF08B5FFF7E8
:102A70006BFF08BD08B5FFF7ADFF08BD1F4B1A6817
:102A80001F4BA3FB02134FEA1313B3F1807F10D245
:102A900023F07F4303F1FF331A4A53604FF0E00104
:102AA000194B83F823104FF0000393604FF0070396
:102AB00013604FF04002144B83F82320A3F54063CA
:102AC0004FF0200283F811234FF0000283F8002317
:102AD0004FF400321A604FF001021A600B4B4FF0B6
:102AE0000802DA609A6842F008029A60A3F5E043AF
:102AF000DA6842F00112DA60704700BFF409002082
:102B00008988888810E000E000ED00E00080034044
:102B1000704700BF00B583B0164B4FF02002C3F8DA
:102B200080204FF00002C3F8802062B603F5C04356
:102B30009B6913F0800F1BD002A84FF0100320F800
:102B4000023D72B602F0E6FD62B6BDF8063003F152
:102B5000FF32ADF806205BB1074910F8013B0B606E
:102B6000BDF8063003F1FF32ADF80620002BF4D19A
:102B700003B000BD0060004000C0004072B6FEE738
:102B800038B5364B4FF00802DA60D3F8AC3013F4A6
:102B9000807F04D032484FF05C01FFF7EFFF2F4BEE
:102BA000D3F8A8402F4BDA6804F10404A41A02EB0E
:102BB000E404DC60A4EBC4044FEA440404F560546C
:102BC0004FEA94241B699C4212D04FF006004FF04C
:102BD000090100F09DFD01464FF00A0303714471A5
:102BE000204D214B186805F1140200F053FC2C61B4
:102BF0001E4B1A6C1B4B5B7D032B2ED8DFE803F0BA
:102C0000020B141D174B9B699A4226D04FF001020C
:102C1000144B5A7538BD134B9B699A4214BF02225C
:102C20000022104B5A7538BD0E4B9B699A4214BF57
:102C3000032200220B4B5A7538BD0A4B9B699A42FE
:102C400007D0084B9A6122B9094803F1140100F03A
:102C5000F1FD4FF00002034B5A7538BD0080034070
:102C60007C650000D8030020B462000000600040D2
:102C70008465000008B5FFF781FF08BD10B5774CEB
:102C800004F11C004FF4C06101F098FD744BD3F8BF
:102C9000042142F00102C3F80421D3F8082142F0D4
:102CA0000102C3F8082100BF00BF00BF4FF040235E
:102CB000D3F8002422F00302C3F80024D3F8202420
:102CC00042F00302C3F82024D3F8002542F00302A7
:102CD000C3F80025D3F8182522F00302C3F81825FD
:102CE000D3F80C2522F00302C3F80C25D3F81025E5
:102CF00022F00302C3F81025D3F8142522F00302B2
:102D0000C3F81425D3F81C2542F00302C3F81C2590
:102D1000544B19684FEAC102534BA3FB02024FEA1E
:102D2000124202F101024FEAD210504B5862C2F334
:102D300045029A624FF06002DA62DA6A42F01002EB
:102D4000DA621A6B42F4407242F001021A63484B95
:102D5000A3FB01234FEA1313636023604FF0FF00CE
:102D600001F032FD4FF00A0001F04CFD4FF00B0076
:102D700001F048FD4FF00C0001F044FD4FF00D0054
:102D800001F040FD4FF00E0001F03CFD4FF00F0050
:102D900001F038FD4FF0100001F034FD4FF011004C
:102DA00001F030FD4FF0120001F02CFD4FF0130048
:102DB00001F028FD4FF0140001F024FD4FF0150044
:102DC00001F020FD4FF0160001F01CFD4FF0170040
:102DD00001F018FD4FF0180001F014FD4FF019003C
:102DE00001F010FD4FF01A0001F00CFD4FF01C0037
:102DF00001F008FD4FF01D0001F004FD4FF01E0032
:102E000001F000FD4FF0200001F0FCFC4FF021002C
:102E100001F0F8FC4FF0220001F0F4FC4FF0230029
:102E200001F0F0FC4FF0240001F0ECFC4FF0250025
:102E300001F0E8FC4FF0270001F0E4FC4FF028001F
:102E400001F0E0FC4FF0290001F0DCFC4FF02A001B
:102E500001F0D8FC4FF0010010BD00BFD8030020E6
:102E600000E00F40F4090020C5B3A29100C000406B
:102E700089888888704700BF094B1B6813F4807FDE
:102E800005D1074B9B68074A1068C01A7047044B6E
:102E90009A68044B58681B68C018801A704700BFB6
:102EA00010E000E0D803002030B583B002AD4FF051
:102EB000100325F8023D72B6134C1BE062B6A269FE
:102EC00012F0800FFBD0BDF8062002F1FF31ADF803
:102ED000061052B113F8012B2260BDF8062002F152
:102EE000FF31ADF80610002AF4D14FF01003ADF811
:102EF000063072B6284602F00DFC03460028DDD1EC
:102F000062B603B030BD00BF00C0004010B500F095
:102F100055F9524BD3F8002142F48032C3F8002116
:102F2000D3F8042142F44032C3F80421D3F8082135
:102F300042F00502C3F8082100BF00BF00BF484BA4
:102F40005A6922F4704242F4A0425A611A6A22F489
:102F500070421A62D3F8A02022F06F0242F06002A1
:102F6000C3F8A020D3F8A42022F00F0242F00602FA
:102F7000C3F8A4201A6842F008021A60A3F5E043DF
:102F8000DA6822F00112DA604FF000041C604FF0A2
:102F900002025A60334A1168334AA2FB01024FEA27
:102FA00092129A62DA6842F00202DA60DA6842F05B
:102FB0002002DA602D4BD3F8002442F02002C3F83F
:102FC0000024D3F81C2542F02002C3F81C25C3F8C6
:102FD0008040D3F8002422F01002C3F80024D3F874
:102FE0001C2542F01002C3F81C254FF00100FFF72A
:102FF000C9FB2046FFF742FE20B91D484FF0C30130
:10300000FFF7BCFD1B4BDB7913F0200F24D072B609
:103010004FF03D0001F014FC174802F073F9174817
:1030200002F02CFB01F0B4FC62B6FFF73DFF114B40
:10303000DB7913F0200F0FD072B64FF03D0001F096
:10304000FFFB0F4802F05EF90E4802F017FB01F09B
:103050009FFC62B6FFF728FF10BD00BF00E00F40E5
:1030600000800340F40900208988888800600040BF
:103070007C6500009C0B0020E003002088650000B8
:10308000EC0300209C650000684620F007018D4697
:1030900001B5034840F20711FFF7ECFDFEE700BF62
:1030A000C4680000684620F007018D4601B5134B47
:1030B000134A9A4208D2134A114B104852F8041B83
:1030C00043F8041B8342F9D30F4B104A9A4207D2AC
:1030D00013464FF000010C4A43F8041B9342FBD304
:1030E00002F0C0FCFEF7E4FC09484FF48171FFF7E1
:1030F000C1FDBDE801408546704700BF00000020CB
:1031000000000020DC680000E40B0020000000202C
:10311000C4680000704700BFEFF30980704700BF2C
:1031200080F30988704700BFEFF30880704700BF45
:1031300080F30888704700BFEFF31280704700BF2C
:1031400080F31188704700BFEFF31080704700BF15
:1031500080F31088704700BFEFF31380704700BF03
:1031600080F31388704700BF00BA704740BA7047B9
:10317000C0BA704790FAA0F0704700BFD0E84F0F78
:10318000C0B27047D0E85F0F80B2704750E8000FC0
:10319000704700BFC1E8400F704700BFC1E8500F43
:1031A000704700BF41E80000704700BFEFF3148094
:1031B000704700BF80F31488704700BF30B482B0FE
:1031C0009A4B9B4A1A6702F5602202F5965202F169
:1031D00001021A6602F17D42A2F58052A2F10F02AD
:1031E0001A66944A1A674FF000030193019BB3F5E6
:1031F0007A7F09D240F2E73200BF019B03F101035D
:103200000193019B9342F7D9884B8B4A1A66894AEE
:103210001A674FF000030193019BB3F57A7F09D23F
:1032200040F2E73200BF019B03F101030193019BD0
:103230009342F7D97D4B814A1A661B6D13F0400FFC
:1032400005D17A4A00BF136D13F0400FFAD0774BC7
:103250007B4A1A66774A1A674FF000030193019B75
:10326000B3F57A7F09D240F2E73200BF019B03F148
:1032700001030193019B9342F7D96C4B196E1A6FAE
:10328000002AB4BF02F0700301F03003202B40D0BD
:1032900004D86BB1102B40F0F8800FE0602B66D0A3
:1032A000702B61D0302B40F0F08047F2305370E04B
:1032B000C1F38410634B53F820306AE05B4B1B680A
:1032C00013F0E04F56D0594B18685F4B00EA0303E8
:1032D000B3F1805F50D0554B18685B4B00EA030395
:1032E0005A48834204D1514B1B689BB2022B45D0F4
:1032F0004E4B1868544B00EA0303554883423FD1B4
:103300004A4B1C68A4B25348534B002C18BF0346C9
:103310003FE0464B1B6813F0E04F33D0434B186837
:10332000494B00EA0303B3F1805F2DD03F4B18688F
:10333000454B00EA03034548834204D13B4B1B68DD
:103340009BB2022B22D0394B18683F4B00EA030393
:103350003F4883421CD1354B1C68A4B23F48404BC8
:10336000002C18BF034614E04FF4004311E04FF463
:1033700080030EE03B4B0CE03A4B0AE0364B08E092
:10338000344B06E0384B04E0374B02E0344B00E0AE
:10339000324B002A03DA12F4006F03D031E011F44B
:1033A000006F2ED1214C606E246814F0E04F07D0DE
:1033B0001E4C2568244C05EA0404B4F1805F0CD14E
:1033C000C0F3481404F1020404FB03F300F01F04EB
:1033D00004F10204B3FBF4F30BE0C0F3481404FB64
:1033E00003F300F01F0404F101044FEA4404B3FBAB
:1033F000F4F310F4804F18BF5B0810F4004F18BFAF
:103400009B0811F4800F3ED0002A36DA12F0804F6C
:103410002CD012F4006F29D14FEA4303C2F3865235
:1034200002F10102B3FBF2F32DE000BF00E00F4018
:103430001028800710288000C20A8E04C20ACE0419
:10344000C202CE04B46500000000FF70000001104D
:10345000000003100024F400001BB70000093D0029
:10346000C0C62D00C0E1E40070383900C2F3C55277
:1034700002F10102B3FBF2F305E0C1F3C35101F124
:103480000101B3FBF1F3024A136002B030BC704794
:10349000F409002070B504460D46164672B6314B4D
:1034A0005B7813F0400F23D02F4B1B680BB1834286
:1034B0001ED14FF00E0001F0C3F9FFF7DDFC01F063
:1034C00021FF304601F01EFF288801F063FE2046F0
:1034D00001F018FFA87801F0FDFDE87801F0FAFD91
:1034E000E07B01F0F7FD207C01F0F4FD01F050FAE3
:1034F000AB781BB1EB7803F10103EB70636893B910
:1035000065601A4B1D78227D1949885C19490C1891
:10351000647845EA04041C701B1858788A5C40EAF9
:1035200002025A701BE0E37B23B913484FF04901B4
:10353000FFF724FB627BA36843F82250637B0BB93F
:10354000237B6373637B03F1FF336373E37B03F1DB
:10355000FF33DBB2E373227C9A4288BF237462B6E6
:1035600070BD00BF9C0B0020CC0B0020880B0020FE
:10357000D46600004C66000010660000F8B50746EF
:103580000C46057D1D4B5E5D03290BD91C4B1B882A
:103590008B4207D935B13F2D04D81A4B53F825304B
:1035A000834204D018484FF03001FFF7E7FA72B6B3
:1035B000164B5B7813F0100F14D0154B1B680BB132
:1035C0009F420FD14FF00C0001F03AF9FFF754FC85
:1035D00001F098FE204601F0DDFD384601F092FE34
:1035E00001F0D6F90B4B1B6803EBC404A25D0A4B38
:1035F0005B5D42EA0303A35562B6F8BDD4660000E2
:103600007C0B0020F8090020186600009C0B0020AD
:10361000CC0B0020780B00204C660000004870475F
:103620002066000038B50546047D04F1FF33DBB2A7
:103630003E2B03D8144B53F8243023B113484FF0DA
:103640004001FFF79BFA72B60F4B43F82450104B22
:103650005B7813F0040F14D00E4B1B680BB19D4226
:103660000FD14FF00A0001F0EBF8FFF705FC01F075
:1036700049FE284601F046FE204601F02BFD01F0F0
:1036800087F962B638BD00BFF8090020286600003F
:103690009C0B0020CC0B002038B50546047D04F1BE
:1036A000FF33DBB23E2B04D8154B53F82430834252
:1036B00004D014484FF05401FFF760FA72B64FF08F
:1036C00000020F4B43F824200F4B5B7813F0080FD8
:1036D00014D00E4B1B680BB19D420FD14FF00B0065
:1036E00001F0AEF8FFF7C8FB01F00CFE284601F030
:1036F00009FE204601F0EEFC01F04AF962B638BD41
:10370000F8090020286600009C0B0020CC0B00204C
:103710002DE9F843054689464FF00004234E244F17
:10372000DFF894800AE004F10104E4B23B78A3429C
:1037300004D840464FF03001FFF720FA04EB840331
:1037400006EB83039B89AB42EDD31A4BDB7813F076
:10375000100F11D072B64FF01C0001F071F8FFF796
:103760008BFB01F0CFFD284601F014FD484601F027
:1037700011FD01F00DF962B604EB84000B4B03EB75
:10378000800000F05BF9054620B90B484FF03A0184
:10379000FFF7F4F9A5F8009004F10104AC704FF0C4
:1037A0000003EB702846BDE8F88300BF000B002043
:1037B000FC0A00209C0B002030660000F8B506468D
:1037C0000F461546164B1B78052B04D915484FF0AC
:1037D0002E01FFF7D3F9124B1B7873B103F1FF33BE
:1037E00003EB83030E4A02EB83031B8AAB4204D331
:1037F0000C484FF03101FFF7C1F9094C04F1040204
:10380000237803EB830302EB830031463A462B46D1
:1038100000F068F9237803F101032370F8BD00BFBD
:10382000FC0A002038660000014B18609980704740
:10383000780B00202DE9F04F83B0074689460288B7
:10384000324B1B889A4204D331484FF03101FFF7C5
:1038500095F972B62F4BDB7813F0040F15D04FF0AB
:103860001A0000F0EDFFFFF707FB01F04BFD4846A3
:1038700001F048FD388801F08DFCB87801F02AFC91
:10388000F87801F027FC01F083F8BB781BB1FB78D6
:1038900003F10103FB7062B64FF008010191DFF8FC
:1038A00080A0DFF880B01C4E019A02F1FF33DBB23A
:1038B00001933A8819490B6803EBC203019A9C5C97
:1038C000D4B14FEAC2085FFA88F81AF804501BF81E
:1038D00005301C404544EDB256F8253023B90C485C
:1038E0004FF05901FFF74AF956F8250039464A4684
:1038F000FFF7D0FD002CE8D1019B002BD4D1384636
:1039000000F05EFB03B0BDE8F08F00BF7C0B002031
:10391000406600009C0B0020F8090020780B002076
:1039200064670000906600002DE9F041074672B61A
:103930003D4B93F90330002B0EDA4FF01F0000F0DF
:103940007FFF3A4B1A6802F101021A60186880B2D0
:1039500001F020FC01F01CF8354B1C68002C5FD0F6
:10396000314DDFF8D4801E46238A03F1FF339BB22A
:103970002382002B4BD1638A0BB1238224E033686E
:103980009C4202D1A368336006E0A3680BB1626871
:103990005A606368A2689A604FF0000363602B79F5
:1039A00013F0020F10D0D8F800300BB19C420BD1AD
:1039B0004FF0210000F044FF204601F0A3FCE06836
:1039C00001F0A0FC00F0E4FF2B7913F0200F17D0DA
:1039D000D8F800300BB19C4212D14FF0250000F016
:1039E0002FFFFFF749FA01F08DFC204601F08AFC19
:1039F000208801F0CFFBE06801F084FC00F0C8FFF4
:103A000062B6E06821463A46FFF744FD04E062B63C
:103A10004FF00002074B1A7072B6A468002CA3D1B5
:103A200062B6BDE8F08100BF9C0B0020E00B0020D7
:103A3000840B0020800B0020D80B002038B50446F2
:103A400072B6056855B12B680360038A03F1FF3332
:103A50009BB20382428A9A4288BF4382104BDB7832
:103A600013F0010F18D00F4B1B6813B1626893421B
:103A700012D14FF0180000F0E3FEFFF7FDF901F05E
:103A800041FC606801F03EFC208A01F083FB608A03
:103A900001F080FB00F07CFF62B6284638BD00BF15
:103AA0009C0B0020D00B002010B5044618B10A4B27
:103AB0001B78834204D209484FF04501FFF75EF8B6
:103AC00072B662B604F1FF3404EB8404044B03EBDA
:103AD0008404608A10BD00BFFC0A00201867000043
:103AE000000B00202DE9F041044617461E4688468B
:103AF00031B1032A04D903F104039BB29E4204D3DB
:103B000030484FF03601FFF739F8C4F800804FF025
:103B10000403A381042E0CD94FF004034FF00105D8
:103B200003F104039BB205F101059E42F8D8A3817D
:103B300003E04FF004034FF001051E469F4204D2FC
:103B400020484FF04401FFF719F8BF1B4FF0010365
:103B5000E3812268BE4210D84FEA8505C6F1000114
:103B6000BF1B00E01A4653191360E28902F10102FB
:103B7000E2817F18F742F5D300E013464FF00002D0
:103B80001A60E28922826282C4F80480A3600E4B2C
:103B900093F90230002B12DA0C4B1B680BB19845DD
:103BA0000DD172B64FF0170000F04AFE606801F0C8
:103BB000A9FBE08901F0EEFA00F0EAFE62B6BDE88A
:103BC000F08100BF206700009C0B0020D00B00207C
:103BD00038B504460D46032904D807484FF029019B
:103BE000FEF7CCFF4FF000036360A360E360238225
:103BF00063822580A37038BD2C67000070B5044631
:103C00000D4616462AB10388032B02D9436803B92F
:103C100021B919484FF03001FEF7B0FF26826460E9
:103C2000E56072B6154B1B7913F0010F1AD0144BD7
:103C30001B680BB19C4215D14FF0200000F000FE34
:103C4000FFF71AF901F05EFB204601F05BFB284606
:103C500001F058FB304601F09DFA608A01F09AFAB3
:103C600000F096FE074B1B68A36003B15C60054B38
:103C70001C6062B670BD00BF386700009C0B00205E
:103C8000D80B0020840B002010B5044672B64368A0
:103C9000002B33D02E4A1268904203D182682C4BFD
:103CA0001A6005E0826802B153606368A2689A6096
:103CB0004FF000036360274B1B7913F0080F3AD0D5
:103CC000254B1B680BB19C4238D14FF0230000F00C
:103CD000B7FDFFF7D1F801F015FB204601F012FB0C
:103CE000E06801F00FFB208A01F054FA608A01F0CD
:103CF00051FA00F04DFE4FF0010027E0154B1B7903
:103D000013F0040F1DD0144B1B680BB198421BD14C
:103D10004FF0220000F094FDFFF7AEF801F0F2FA48
:103D2000204601F0EFFAE06801F0ECFA00F030FE16
:103D30004FF000000AE04FF0010007E04FF00100F3
:103D400004E04FF0000001E04FF0000062B610BD4B
:103D5000840B00209C0B0020D80B002000487047EB
:103D600040670000704700BF08B5FEF7D1FE08BDF0
:103D70002DE9F041FEF782FE154C164FDFF8588012
:103D800072B623780BB3237873B1237818F8033015
:103D900003F1FF33DBB2E218527818F8022002EB8D
:103DA000C30303F0FF0301E04FF0000357F8235073
:103DB00062B6284600F03AF806462846314600F03A
:103DC0004BFA304600F0FCF8DAE7FEF7A3FED7E73F
:103DD000880B0020F809002064670000F8B504464D
:103DE0000D4616461F4601F1FF33DBB23E2B01D8CC
:103DF000069B23B10A484FF06701FEF7BFFE04F1AE
:103E000004003146FAB200F0B1F825752046FFF7FC
:103E100009FC2046089900F06DF9FFF745F8F8BD58
:103E20004867000008B5FFF737FC08BD70B50446C9
:103E300072B6436823B93B484FF03001FEF79EFE4F
:103E40006568E37B227B934231D0A17BA06850F868
:103E50002100606001B9A273A27B02F1FF32A2735C
:103E600003F10103E373304B9B7813F0010F55D03E
:103E70002E4B1B680BB19C4250D14FF0100000F04C
:103E8000DFFCFEF7F9FF01F03DFA288801F082F926
:103E9000204601F037FAA87801F01CF9E87801F023
:103EA00019F9E07B01F016F900F072FD36E04FF0F1
:103EB00000036360227D1E4B995C1E4B5B18587893
:103EC0001D4EB25C00EA02025A705B7833B9194B9E
:103ED000187871184A7800EA02021A70124B9B781F
:103EE00013F0020F1AD0114B1B680BB19C4215D175
:103EF0004FF0110000F0A4FCFEF7BEFF01F002FA43
:103F0000288801F047F9204601F0FCF9A87801F073
:103F1000E1F8E87801F0DEF800F03AFD62B62846F4
:103F200070BD00BF546700009C0B0020CC0B00202C
:103F3000D4660000880B00209066000010B504468F
:103F40003F2803D8074B53F8203023B906484FF0D9
:103F50005C01FEF713FE72B662B6024B53F82430D2
:103F6000187C10BDF80900205467000038B50D46D4
:103F700014464FF000030360416002724372837283
:103F8000C27202730C4B9B7813F0040F12D00B4BD0
:103F90001B680BB198420DD172B64FF0120000F0C1
:103FA0004FFC284601F0AEF9204601F093F800F0EE
:103FB000EFFC62B638BD00BF9C0B0020D40B002084
:103FC00038B504468578002D4DD072B6C378012BE4
:103FD0001CD903F1FF33C370234BDB7813F0200FA0
:103FE00012D04FF01D0000F02BFCFEF745FF01F052
:103FF00089F9208801F0CEF8A07801F06BF8E0781C
:1040000001F068F800F0C4FC62B638BD05F1FF3578
:10401000EDB2154BDB7813F0400F12D04FF01E00BD
:1040200000F00EFCFEF728FF01F06CF9208801F08B
:10403000B1F8A07801F04EF8E07801F04BF800F00C
:10404000A7FC62B6094B1B78AB4204D808484FF076
:104050004601FEF793FD05EB8505064B03EB850056
:10406000214600F009F838BD9C0B0020FC0A002016
:104070005C670000000B002038B504460D4643681D
:104080008B4206D88368994203D8028AC3899A4230
:1040900004D915484FF02D01FEF770FD72B6236864
:1040A0002B602560238A03F1010323820F4BDB7809
:1040B00013F0020F15D00E4B1B6813B162689342C8
:1040C0000FD14FF0190000F0BBFBFEF7D5FE01F059
:1040D00019F9606801F016F9208A01F05BF800F028
:1040E00057FC62B638BD00BF646800009C0B00201E
:1040F000D00B00202DE9F04786B0054603689847AD
:10410000022804D04E484FF02D01FEF737FD4D4EEA
:10411000DFF83C91DFF83CA14B4F07F1040899F818
:10412000003013F0080F15D0DAF800300BB19D42C3
:1041300010D172B64FF0030000F082FB284601F068
:10414000E1F8304601F0DEF8286801F0DBF800F015
:104150001FFC62B62C68009428463946A0472B689D
:10416000B34266D04FF0000404F10104E4B262B23D
:1041700006A901EB820242F8183C284639469847C6
:104180002B68B342F0D1009B2B6063B2052B04DD9A
:104190002B484FF04401FEF7F1FC63B206AA02EB94
:1041A000830353F8186C28464146B047B8B999F8CC
:1041B000003013F0020F12D0DAF800300BB19D423C
:1041C0000DD172B64FF0010000F03AFB284601F025
:1041D00099F8304601F096F800F0DAFB62B604F187
:1041E000FF34E4B214F0800FD7D0009E2846174960
:1041F000B047022893D02E60154B1B7813F0100F98
:104200001BD0144B1B680BB19D4216D172B64FF0F8
:10421000040000F015FBFEF72FFE01F073F82846AE
:1042200001F070F8286801F06DF800F0B1FB62B69B
:1042300003E02C604FF00004AFE706B0BDE8F08764
:104240006C680000A54700008C68000098680000BA
:104250009C0B0020C80B00202DE9F04F87B00546CD
:104260008B460668944B5B7813F0010F1AD0934B82
:104270001B680BB1984215D172B64FF0080000F0E0
:10428000DFFAFEF7F9FD01F03DF8BBF8000000F0A1
:1042900081FF284601F036F8304601F033F800F08F
:1042A00077FB62B6D5F8009028465946C8470328E0
:1042B000F8D0022840F014822B68009301964E45F6
:1042C00024D07F4C7C4FA4F1080828462146B047F3
:1042D000C8B93B7813F0040F12D0784B1B680BB1B0
:1042E0009D420DD172B64FF0020000F0A9FA2846A7
:1042F00001F008F8304601F005F800F049FB62B61D
:1043000028464146B0472E68B145DED1009CA14504
:1043100020D128466A49C847002840F03782664BBA
:104320001B7813F0040F00F03182644B1B6813B14B
:104330009D4240F02B8272B64FF0020000F080FAEE
:10434000284600F0DFFF484600F0DCFF00F020FBCD
:1043500062B61BE228465B49A0472E68B14500F0D3
:10436000158228465749C8472F68B74220D12846AA
:104370005349C847002840F009824F4B1B7813F07F
:10438000040F00F003824D4B1B6813B19D4240F0B7
:10439000FD8172B64FF0020000F052FA284600F09C
:1043A000B1FF484600F0AEFF00F0F2FA62B6EDE170
:1043B000BC4225D128464249C847002840F0F68033
:1043C0003D4B1B7813F0040F00F0F0803B4B1B6853
:1043D00013B19D4240F0EA8072B64FF0020000F047
:1043E0002FFA284600F08EFF484600F08BFF00F0C1
:1043F000CFFA62B6DAE014F0800F00F0AA80D5E0C0
:10440000019628462F49B047032829D14FF00104CF
:10441000DFF8B08000E0344604F10106F6B22B6804
:1044200072B206A901EB820242F8183C994508D104
:1044300076B2052EDFDD24484FF07A01FEF79EFBB1
:10444000D9E72846414698470328E4D0344676B257
:10445000052E07DD1C484FF08501FEF78FFB01E0BC
:104460004FF0010428461649C847B8B9124B1B78CB
:1044700013F0040F12D0114B1B680BB19D420DD1EC
:1044800072B64FF0020000F0DBF9284600F03AFF68
:10449000484600F037FF00F07BFA62B623465AB276
:1044A00006A901EB820252F8182C97420ED103F1B3
:1044B000FF33DCB29FE700BF9C0B0020C80B00203D
:1044C000946800008C6800007868000003F1FF33F6
:1044D000DBB213F0800FE2D0934EDFF86482A6F1D6
:1044E000080A28463146B847D0B998F8003013F08A
:1044F000040F12D08D4B1B680BB19D420DD172B6CB
:104500004FF0020000F09CF9284600F0FBFE384610
:1045100000F0F8FE00F03CFA62B628465146B84773
:104520002F6823465AB206A901EB820252F8182CD2
:10453000BA4203D103F1FF33DCB25CE703F1FF338E
:10454000DBB213F0800FEDD04FF00102002AC8D18A
:1045500051E7774FDFF8E881DFF8D0A163B206A911
:1045600001EB830353F8186C28463946B047B8B9B5
:1045700098F8003013F0020F12D0DAF800300BB1C7
:104580009D420DD172B64FF0010000F059F9284656
:1045900000F0B8FE304600F0B5FE00F0F9F962B662
:1045A00004F1FF34E4B214F0800FD7D0009E2E60E7
:1045B000DFF88CA1DFF8788168E09AF8003013F01A
:1045C000080F15D0594A13680BB19D4210D172B62D
:1045D0004FF0030000F034F9284600F093FE304617
:1045E00000F090FE286800F08DFE00F0D1F962B670
:1045F0002C68009428464F49A0472B68B34200F02E
:10460000C8804FF000044B4F04F10104E4B262B2E1
:1046100006A901EB820242F8183C28463946984721
:104620002B68B342F0D1009B2B6063B2052B04DDF5
:1046300041484FF0D901FEF7A1FA63B206AA02EB96
:10464000830353F8186C28464146B047B8B99AF826
:10465000003013F0020F12D034490B680BB19D42A9
:104660000DD172B64FF0010000F0EAF8284600F0D4
:1046700049FE304600F046FE00F08AF962B604F1C9
:10468000FF34E4B214F0800FD7D0009E28462B49A7
:10469000B047022891D03446294B1B7813F0400FC5
:1046A00070D0224B1B680BB19D426BD172B64FF09C
:1046B000060000F0C5F8FEF7DFFB00F023FEBBF8B4
:1046C000000000F067FD284600F01CFE484600F0A0
:1046D00019FE204600F016FE00F05AF962B651E0CD
:1046E00001282FD1164B93F90030002B4ADA0F4BDB
:1046F0001B680BB19D4245D172B64FF0070000F028
:104700009FF8FEF7B9FB00F0FDFDBBF8000000F0DC
:1047100041FD284600F0F6FD304600F0F3FD00F0C4
:1047200037F962B62EE000BF94680000C80B002085
:10473000906800008C6800007868000098680000AD
:104740009C0B0020154B1B7813F0200F1AD0144B34
:104750001B680BB19D4215D172B64FF0050000F0F9
:104760006FF8FEF789FB00F0CDFDBBF8000000F00C
:1047700011FD284600F0C6FD484600F0C3FD00F0DC
:1047800007F962B62E6007B0BDE8F08F4FF0000465
:10479000DFE62C604FF000044FE700BF9C0B0020C9
:1047A000C80B00204FF00100704700BF0048704761
:1047B00084680000004870479C680000014B186046
:1047C00099807047940B0020FF280BD10C4901F110
:1047D000070301F127014FF0FF0203F8012F8B427D
:1047E000FBD17047064B03EBD00300F007004FF0FE
:1047F000010202FA00F01A7A10431872704700BFE3
:10480000940B0020FF280BD10C4901F1070301F1A3
:1048100027014FF0000203F8012F8B42FBD17047B4
:10482000064B03EBD00300F007004FF0010202FA41
:1048300000F01A7A22EA000018727047940B0020E8
:1048400010B4524A92F8283003F10103DBB282F827
:10485000283082F82930A3F17D02D2B2012A2FD864
:104860004A4B5A8D19684FF07D048C545A8D02F1D1
:10487000010292B25A859B88934203D1434B4FF079
:1048800000025A85414B9A8D02F101029A855A8D98
:10489000196893F8284084F020048C545A8D02F152
:1048A000010292B25A859B88934203D1374B4FF055
:1048B00000025A85354B9A8D02F101029A8514E067
:1048C000324A518D14686354538D03F101039BB236
:1048D000538592889A4203D12C4B4FF000025A859F
:1048E0002A4B9A8D02F101029A85284B93F82920D0
:1048F000821883F82920A0F17D03DBB2012B2DD88B
:10490000224B5A8D19684FF07D048C545A8D02F158
:10491000010292B25A859B88934203D11B4B4FF000
:1049200000025A85194B9A8D02F101029A855A8D1F
:10493000196880F0200088545A8D02F1010292B269
:104940005A859B88934203D1104B4FF000025A8541
:104950000E4B9A8D02F101029A8514E00B4B5A8D91
:10496000196888545A8D02F1010292B25A859B88C7
:10497000934203D1054B4FF000025A85034B9A8DA9
:1049800002F101029A8510BC704700BF940B002011
:10499000384B93F829206FEA0202D2B283F829201B
:1049A000A2F17D03DBB2012B2FD8324B5A8D19684F
:1049B0004FF07D0088545A8D02F1010292B25A855F
:1049C0009B88934203D12B4B4FF000015985294B13
:1049D0009A8D02F101029A855A8D196893F829007F
:1049E00080F0200088545A8D02F1010292B25A855B
:1049F0009B88934203D11F4B4FF000025A851D4BF9
:104A00009A8D02F101029A8514E01A4B598D1868AB
:104A100042545A8D02F1010292B25A859B88934208
:104A200003D1144B4FF000015985124B9A8D02F1BE
:104A300001029A850F4B5A8D19684FF07E008854F9
:104A40005A8D02F1010292B25A859B889A4203D193
:104A5000084A4FF00001518506498A8D02F1010292
:104A600092B28A85934203D20A46498DD1859385B5
:104A7000704700BF940B002030B44F4B93F82920AF
:104A8000821883F82920A0F17D03DBB2012B2DD8F9
:104A9000494B5A8D1C684FF07D05A5545A8D02F183
:104AA000010292B25A859B88934203D1424B4FF048
:104AB00000025A85404B9A8D02F101029A855A8D67
:104AC0001C6880F02000A0545A8D02F1010292B2BD
:104AD0005A859B88934203D1374B4FF000025A8589
:104AE000354B9A8D02F101029A8514E0324B5A8DB2
:104AF0001C68A0545A8D02F1010292B25A859B881B
:104B0000934203D12C4B4FF000025A852A4B9A8DC9
:104B100002F101029A85284B93F829208A1883F81C
:104B20002920A1F17D03DBB2012B2DD8224B5A8D18
:104B300018684FF07D0484545A8D02F1010292B23C
:104B40005A859B88934203D11B4B4FF000025A8534
:104B5000194B9A8D02F101029A855A8D186881F0DD
:104B6000200181545A8D02F1010292B25A859B882C
:104B7000934203D1104B4FF000025A850E4B9A8D91
:104B800002F101029A8514E00B4B5A8D186881548A
:104B90005A8D02F1010292B25A859B88934203D149
:104BA000054B4FF000025A85034B9A8D02F101022A
:104BB0009A8530BC704700BF940B002030B4784B0E
:104BC00093F82920821883F82920A0F17D03DBB215
:104BD000012B2DD8724B5A8D1C684FF07D05A554C2
:104BE0005A8D02F1010292B25A859B88934203D1F9
:104BF0006B4B4FF000025A85694B9A8D02F101020E
:104C00009A855A8D1C6880F02000A0545A8D02F1BC
:104C1000010292B25A859B88934203D1604B4FF0B8
:104C2000000058855E4B9A8D02F101029A8514E0CE
:104C30005B4B5A8D1C68A0545A8D02F1010292B24E
:104C40005A859B88934203D1554B4FF000025A85F9
:104C5000534B9A8D02F101029A85CAB2504B93F8D8
:104C60002900101883F82900A2F17D03DBB2012B83
:104C70002DD84B4B588D1C684FF07D052554588D11
:104C800000F1010080B258859B88834203D1444BD8
:104C90004FF000005885424B988D00F10100988537
:104CA000588D1C6882F0200222545A8D02F10102B4
:104CB00092B25A859B88934203D1394B4FF0000240
:104CC0005A85374B9A8D02F101029A8514E0344BD4
:104CD000588D1C6822545A8D02F1010292B25A85F5
:104CE0009B88934203D12E4B4FF0000058852C4BEC
:104CF0009A8D02F101029A854FEA1121CBB2284A1E
:104D000092F82900181882F82900A3F17D02D2B286
:104D1000012A2DD8224A518D10684FF07D04445449
:104D2000518D01F1010189B2518592888A4203D1E6
:104D30001B4A4FF000015185194A918D01F1010183
:104D40009185518D106883F020034354538D03F1F6
:104D500001039BB2538592889A4203D1104B4FF0C6
:104D600000025A850E4B9A8D02F101029A8514E0D9
:104D70000B4B5A8D186881545A8D02F1010292B280
:104D80005A859B88934203D1054B4FF0000058850C
:104D9000034B9A8D02F101029A8530BC704700BF27
:104DA000940B002030B4954B93F82920821883F897
:104DB0002920A0F17D03DBB2012B2DD88F4B5A8D1A
:104DC0001C684FF07D05A5545A8D02F1010292B284
:104DD0005A859B88934203D1884B4FF000025A8535
:104DE000864B9A8D02F101029A855A8D1C6880F0DB
:104DF0002000A0545A8D02F1010292B25A859B887C
:104E0000934203D17D4B4FF0000058857B4B9A8D28
:104E100002F101029A8514E0784B5A8D1C68A05467
:104E20005A8D02F1010292B25A859B88934203D1B6
:104E3000724B4FF000025A85704B9A8D02F10102BD
:104E40009A85CAB26D4B93F82900101883F829008F
:104E5000A2F17D03DBB2012B2DD8684B588D1C6865
:104E60004FF07D052554588D00F1010080B2588522
:104E70009B88834203D1614B4FF0000058855F4B04
:104E8000988D00F101009885588D1C6882F02002F1
:104E900022545A8D02F1010292B25A859B889342A4
:104EA00003D1564B4FF000025A85544B9A8D02F1B4
:104EB00001029A8514E0514B588D1C6822545A8D7A
:104EC00002F1010292B25A859B88934203D14B4B67
:104ED0004FF000005885494B9A8D02F101029A85E6
:104EE0004FEA1121CAB2454B93F82900101883F8F4
:104EF0002900A2F17D03DBB2012B2DD83F4B588D49
:104F00001C684FF07D052554588D00F1010080B2DA
:104F100058859B88834203D1384B4FF00000588559
:104F2000364B988D00F101009885588D1C6882F0F1
:104F3000200222545A8D02F1010292B25A859B88B6
:104F4000934203D12D4B4FF000025A852B4B9A8D83
:104F500002F101029A8514E0284B588D1C682254F6
:104F60005A8D02F1010292B25A859B88934203D175
:104F7000224B4FF000005885204B9A8D02F1010220
:104F80009A854FEA1121CAB21C4B93F829001018D8
:104F900083F82900A2F17D03DBB2012B30D8174B37
:104FA000588D1C684FF07D052554588D00F1010087
:104FB00080B258859B88834203D1104B4FF000008C
:104FC00058850E4B988D00F101009885588D1C680E
:104FD00082F0200222545A8D02F1010292B25A85C7
:104FE0009B88934203D1054B4FF000025A85034B37
:104FF0009A8D02F101029A8517E000BF940B002000
:10500000334B588D1C6822545A8D02F1010292B222
:105010005A859B88934203D12D4B4FF00000588551
:105020002B4B9A8D02F101029A854FEA1121284BF0
:1050300093F829208A1883F82920A1F17D03DBB297
:10504000012B2DD8224B5A8D18684FF07D048454C3
:105050005A8D02F1010292B25A859B88934203D184
:105060001B4B4FF000025A85194B9A8D02F1010239
:105070009A855A8D186881F0200181545A8D02F169
:10508000010292B25A859B88934203D1104B4FF094
:10509000000058850E4B9A8D02F101029A8514E0AA
:1050A0000B4B5A8D186881545A8D02F1010292B24D
:1050B0005A859B88934203D1054B4FF000025A85D5
:1050C000034B9A8D02F101029A8530BC704700BFF4
:1050D000940B002010B42A4B1A7882181A70A0F191
:1050E0007D03DBB2012B32D8264B1A88264909688A
:1050F0004FF07D048C541A8802F1010292B21A809A
:10510000224B1B88934203D11E4B4FF000021A80A2
:105110001F4B1A8802F101021A801A4B1A881A4989
:10512000096880F0200088541A8802F1010292B2C6
:105130001A80164B1B88934203D1124B4FF000028A
:105140001A80134B1A8802F101021A8016E00D4BE7
:105150001A880D49096888541A8802F1010292B22E
:105160001A800A4B1B88934203D1064B4FF0000272
:105170001A80074B1A8802F101021A8010BC70478E
:10518000BD0B0020BE0B0020940B0020980B0020CC
:10519000C00B002030B4C3B2554A117859181170B1
:1051A000A3F17D02D2B2012A32D8524A1188524C60
:1051B00024684FF07D056554118801F1010189B221
:1051C00011804E4A12888A4203D14A4A4FF00001A8
:1051D00011804B4A118801F101011180454A118863
:1051E000454C246883F020036354138803F10103C2
:1051F0009BB21380414A12889A4203D13D4B4FF033
:1052000000021A803E4B1A8802F101021A8016E051
:10521000384A1188384C24686354138803F1010319
:105220009BB21380354A12889A4203D1314B4FF01A
:1052300000011980324B1A8802F101021A804FEAEC
:105240001020C3B22A4A117859181170A3F17D02B7
:10525000D2B2012A32D8274A1188274800684FF075
:105260007D044454118801F1010189B21180234A5F
:1052700012888A4203D11F4A4FF000011180204A50
:10528000118801F1010111801A4A11881A48006839
:1052900083F020034354138803F101039BB213806E
:1052A000164A12889A4203D1124B4FF000021A801C
:1052B000134B1A8802F101021A8016E00D4B1A886E
:1052C0000D49096888541A8802F1010292B21A80C5
:1052D0000A4B1B88934203D1064B4FF00001198003
:1052E000074B1A8802F101021A8030BC704700BFD8
:1052F000BD0B0020BE0B0020940B0020980B00205B
:10530000C00B002030B4C3B2734A11785918117021
:10531000A3F17D02D2B2012A32D8704A1188704CB2
:1053200024684FF07D056554118801F1010189B2AF
:1053300011806C4A12888A4203D1684A4FF00001FA
:105340001180694A118801F101011180634A1188B5
:10535000634C246883F020036354138803F1010332
:105360009BB213805F4A12889A4203D15B4B4FF085
:1053700000021A805C4B1A8802F101021A8016E0C2
:10538000564A1188564C24686354138803F101036C
:105390009BB21380534A12889A4203D14F4B4FF06D
:1053A00000011980504B1A8802F101021A804FEA5D
:1053B0001020C3B2484A117859181170A3F17D0228
:1053C000D2B2012A32D8454A1188454C24684FF0A0
:1053D0007D056554118801F1010189B21180414AAE
:1053E00012888A4203D13D4A4FF0000111803E4AA3
:1053F000118801F101011180384A1188384C246864
:1054000083F020036354138803F101039BB21380DC
:10541000344A12889A4203D1304B4FF000021A806E
:10542000314B1A8802F101021A8016E02B4A1188CA
:105430002B4C24686354138803F101039BB213803F
:10544000284A12889A4203D1244B4FF00001198058
:10545000254B1A8802F101021A804FEA1020C3B2CC
:105460001D4A117859181170A3F17D02D2B2012A98
:105470003CD81A4A11881A4C24684FF07D056554AF
:10548000118801F1010189B21180164A12888A42FD
:1054900003D1124A4FF000011180134A118801F123
:1054A000010111800D4A11880D4C246883F02003FE
:1054B0006354138803F101039BB21380094A1288D5
:1054C0009A4203D1054B4FF000021A80064B1A880E
:1054D00002F101021A8020E0BD0B0020BE0B00206B
:1054E000940B0020980B0020C00B0020364A118836
:1054F000364C24686354138803F101039BB2138074
:10550000334A12889A4203D12F4B4FF00001198081
:10551000304B1A8802F101021A804FEA10202E4BFC
:105520001A7882181A70A0F17D03DBB2012B32D8F1
:10553000254B1A88254909684FF07D048C541A8838
:1055400002F1010292B21A80214B1B88934203D1CF
:105550001D4B4FF000021A801E4B1A8802F1010207
:105560001A80194B1A881949096880F0200088545C
:105570001A8802F1010292B21A80154B1B889342DD
:1055800003D1114B4FF000011980124B1A8802F120
:1055900001021A8016E00C4B1A880C4909688854DD
:1055A0001A8802F1010292B21A80094B1B889342B9
:1055B00003D1054B4FF000021A80064B1A8802F106
:1055C00001021A8030BC7047BE0B0020940B0020F3
:1055D000980B0020C00B0020BD0B00202DE9F0032C
:1055E00002782AB3204C214B214F224E4FF0000C61
:1055F000214925785219227005461A88D7F800806B
:1056000090F8009008F802901A8802F1010292B214
:105610001A80B6F80080904508BFA3F800C00A8839
:1056200002F101020A80427800F10100002AE0D173
:105630000E4B1A880E4909684FF0000088541A88EA
:1056400002F1010292B21A800A4B1B88934203D1E5
:10565000064B4FF000021A80074B1A8802F1010234
:105660001A80BDE8F0037047BD0B0020BE0B002080
:10567000940B0020980B0020C00B00202DE9F001B6
:10568000037803B31E4C1F4A1F4F204E4FF0000CEF
:105690001F4925785D1925701588D7F8008008F80E
:1056A0000530138803F101039BB2138035889D42B6
:1056B00008BFA2F800C00B8803F101030B8010F8AB
:1056C000013F002BE5D10F4B1A880F4909684FF0B5
:1056D000000088541A8802F1010292B21A800B4B22
:1056E0001B88934203D1074B4FF000021A80084BEE
:1056F0001A8802F101021A80BDE8F001704700BF6C
:10570000BD0B0020BE0B0020940B0020980B002046
:10571000C00B002030B4144B198811B90180084621
:105720001FE0124C124B25881A88AA1A92B28A429C
:1057300028BF0A460588AA4228BF2A4602800A498D
:105740000888801A08801988521892B21A80238813
:10575000934203D1064B4FF000021A80054B1868A4
:10576000401830BC704700BFC00B0020980B0020D1
:10577000C20B0020940B00202DE9114087B090F857
:1057800000F091F800F091F820F0042AC0F0578161
:10579000C1F1000313F0030311D05FEAC37CA2EB55
:1057A000030244BF11F8013B00F8013B21BF11F88F
:1057B000014B11F801CB00F8014B00F801CB80EA56
:1057C000010C1CF0030F50D18DE8E00FC0F1000375
:1057D00013F01C0316D0934288BF02F01C035FEA4B
:1057E000037C24BFF0C9F0C044BFB1E80003A0E8C7
:1057F000000313F0040F1CBF51F804AB40F804ABD6
:10580000A2EB0302203A0DD321F01F0C0CF1400C47
:10581000B1E8F00F9CF840F0203AA0E8F00FF7D282
:1058200002F1200212F01F0F1AD05FEA027C24BF9F
:10583000F0C9F0C044BFB1E80003A0E800035FEA8C
:10584000827C24BF51F8043B40F8043B44BF31F84C
:10585000024B20F8024B12F0010F1CBF0B780370B3
:10586000BDE8E00FBDE811407047042AC0F0E780B2
:105870008DE8E00FC0F1000505F003054FEAC50C07
:10588000CCF1200E51F8043BA2F10402ED0744BF15
:1058900000F8013B1B0A21BF00F8013B1B0A00F87E
:1058A000013B1B0A042AC0F0BC8010F01C0F0FD073
:1058B00051F8045BA2F1040205FA0EF443EA040471
:1058C00025FA0CF340F8044B042AEED2C0F0A9806C
:1058D000203AC0F09280BCF1180F60D0BCF1080FE4
:1058E0002ED051F804CB6446B1E8E00F91F840F0B7
:1058F000203A28BF51F804CB43EA04434FEA14444A
:1059000044EA05444FEA154545EA06454FEA16467E
:1059100046EA07464FEA174747EA08474FEA18485A
:1059200048EA09484FEA194949EA0A494FEA1A4A36
:105930004AEA0B4AA0E8F8074FEA1B43D3D25CE0DF
:1059400051F804CB6446B1E8E00F91F840F0203AFA
:1059500028BF51F804CB43EA04634FEA142444EA15
:1059600005644FEA152545EA06654FEA162646EA1C
:1059700007664FEA172747EA08674FEA182848EAF8
:1059800009684FEA192949EA0A694FEA1A2A4AEAD4
:105990000B6AA0E8F8074FEA1B23D3D22DE051F899
:1059A00004CB6446B1E8E00F91F840F0203A28BFFC
:1059B00051F804CB43EA04234FEA146444EA052473
:1059C0004FEA156545EA06254FEA166646EA0726B8
:1059D0004FEA176747EA08274FEA186848EA092894
:1059E0004FEA196949EA0A294FEA1A6A4AEA0B2A70
:1059F000A0E8F8074FEA1B63D3D2CEF1200C02F1E6
:105A00002002042A0DD351F8045BA2F1040205FA26
:105A10000EF443EA040425FA0CF340F8044B042A7C
:105A2000F1D25FEA0E7544BF00F8013B1B0A22BFAA
:105A300000F8013B1B0A00F8013B9DE8E00FD2078C
:105A400044BF11F8012B00F8012B21BF11F8013BD5
:105A500091F800C000F8013B80F800C007B0BDE835
:105A60001140704770B500240C4D0D4E761BB610DA
:105A700003E055F8043B01349847B442F9D1094D8D
:105A8000FDF748FB084E0024761BB61003E055F8DE
:105A9000043B01349847B442F9D170BDDC68000082
:105AA000DC680000DC680000DC6800008842034617
:105AB000F0B40C460ED98D18A8420BD242B183180F
:105AC00029469A1A11F8014D03F8014D9342F9D174
:105AD000F0BC70470F2A38D941EA000515F0030FD2
