:020000040000FA
:06000000BFEF00F012004A
:020006000000F8
:08000800D9CFE6FFE1CFD9FFDB
:100010009EA8FED7D950FE0FE96EFF0EDA20EA6ED9
:10002000EF50AE6EE552E7CFD9FF1200D9CFE6FF11
:10003000E1CFD9FF3AD8EECFF6FFEECFF7FFEFCF03
:10004000F8FF0800F5500FE030D8EFCFF6FFEE2AAA
:10005000EFCFF7FF000EEE22EFCFF8FFEE22080001
:10006000F5502AD8E7D7E552E7CFD9FF1200948E92
:10007000949CAD98AD8AAD94AC8EAC880C0EB06EED
:100080008C8E959E320E18D89A0EE66E010EE66E94
:10009000000EE66ECBDFE552E552E5529EAAFED792
:1000A000AA500AD88C7E9E9AF9D7D950FC0FE96ED7
:1000B000FF0EDA20EA6E1200E66EA6DFE5521200AD
:1000C000060EF66E000EF76E000EF86E00010900C7
:1000D000F550656F0900F550666F03E1656701D063
:1000E0003DD00900F550606F0900F550616F0900BF
:1000F000F550626F09000900F550E96E0900F550EE
:10010000EA6E090009000900F550636F0900F55017
:10011000646F09000900F6CF67F0F7CF68F0F8CFF9
:1001200069F060C0F6FF61C0F7FF62C0F8FF000130
:10013000635302E1645307E00900F550EE6E630774
:10014000F8E26407F9D767C0F6FF68C0F7FF69C037
:0E015000F8FF00016507000E665BBFD71200C6
:02015E00C00ED1
:10016000F36E00EE00F00E0E01D81200EA6002D02D
:0E017000EE6AFCD7F350E9601200EE6AFCD78D
:02017E001DEE74
:1001800000F02DEE00F0F86A019C60EC00F0DBEC72
:0A01900000F037EC00F0FBD712007E
:06019A003A2048656C6C80
:1001A0006F2066726F6D2050494320455553415270
:0501B0005432210A0099
:0201B600120035
:01FFF800AC5C
:01FFF900F413
:01FFFA001AEC
:01FFFB00FA0B
:01FFFC00996B
:01FFFD00F80B
:01FFFE008181
:01FFFF00F110
:00000001FF
