:020000040000FA
:060000002CEF0BF01200D2
:020006000000F8
:08000800190EE66EE66A7C0E9B
:10001000E66EEAEC09F0E552E552E552490EE66E6D
:10002000140EE66E000EE66E93EC0AF0E552E55211
:10003000E5523AEC0BF00001060E606F0C0E626F99
:10004000040E616F0B0E636F010EE66E600EE66EBE
:10005000000EE66E74EC03F0E552E552E552000145
:100060000C0E676F666B656B010EE66E640EE66ED6
:10007000000EE66EF1EC04F0E552E552E5520001A7
:10008000060E6D6F0C0E6B6F040E6A6F0B0E686FB1
:100090000C0E6C6F6F6B6E6B010EE66E680EE66E8B
:1000A000000EE66E37EC04F0E552E552E552610EC3
:1000B000E66E140EE66E000EE66E93EC0AF0E55264
:1000C000E552E5528F0EE66E140EE66E000EE66EF9
:1000D00093EC0AF0E552E552E552800EE66E000E12
:1000E000E66E00016051E66EE66A95EC05F0E552B9
:1000F000E552E552E552F3CF00F0F4CF01F0F3CF33
:10010000E6FFF4CFE6FFC5EC0AF0E552E552460EF5
:10011000E66E140EE66E000EE66E93EC0AF0E55203
:10012000E552E552950EE66E140EE66E000EE66E92
:1001300093EC0AF0E552E552E552800EE66E000EB1
:10014000E66E00016251E66EE66A95EC05F0E55256
:10015000E552E552E552F3CF00F0F4CF01F0F3CFD2
:10016000E6FFF4CFE6FFC5EC0AF0E552E552460E95
:10017000E66E140EE66E000EE66E93EC0AF0E552A3
:10018000E552E5529A0EE66E140EE66E000EE66E2D
:1001900093EC0AF0E552E552E552800EE66E000E51
:1001A000E66E00016151E66EE66A95EC05F0E552F7
:1001B000E552E552E552F3CF00F0F4CF01F0F3CF72
:1001C000E6FFF4CFE6FFC5EC0AF0E552E552460E35
:1001D000E66E140EE66E000EE66E93EC0AF0E55243
:1001E000E552E552A00EE66E140EE66E000EE66EC7
:1001F00093EC0AF0E552E552E552800EE66E000EF1
:10020000E66E00016351E66EE66A95EC05F0E55294
:10021000E552E552E552F3CF00F0F4CF01F0F3CF11
:10022000E6FFF4CFE6FFC5EC0AF0E552E552460ED4
:10023000E66E140EE66E000EE66E93EC0AF0E552E2
:10024000E552E552600EE66E000EE66E4FEC08F0E9
:10025000E552E5526C0EE66E140EE66E000EE66E8A
:1002600093EC0AF0E552E552E5528F0EE66E140E5D
:10027000E66E000EE66E93EC0AF0E552E552E552AA
:10028000800EE66E000EE66E00016051E66EE66AD4
:1002900095EC05F0E552E552E552E552F3CF00F05A
:1002A000F4CF01F0F3CFE6FFF4CFE6FFC5EC0AF0A0
:1002B000E552E552460EE66E140EE66E000EE66E50
:1002C00093EC0AF0E552E552E552950EE66E140EF7
:1002D000E66E000EE66E93EC0AF0E552E552E5524A
:1002E000800EE66E000EE66E00016251E66EE66A72
:1002F00095EC05F0E552E552E552E552F3CF00F0FA
:10030000F4CF01F0F3CFE6FFF4CFE6FFC5EC0AF03F
:10031000E552E552460EE66E140EE66E000EE66EEF
:1003200093EC0AF0E552E552E5529A0EE66E140E91
:10033000E66E000EE66E93EC0AF0E552E552E552E9
:10034000800EE66E000EE66E00016151E66EE66A12
:1003500095EC05F0E552E552E552E552F3CF00F099
:10036000F4CF01F0F3CFE6FFF4CFE6FFC5EC0AF0DF
:10037000E552E552460EE66E140EE66E000EE66E8F
:1003800093EC0AF0E552E552E552A00EE66E140E2B
:10039000E66E000EE66E93EC0AF0E552E552E55289
:1003A000800EE66E000EE66E00016351E66EE66AB0
:1003B00095EC05F0E552E552E552E552F3CF00F039
:1003C000F4CF01F0F3CFE6FFF4CFE6FFC5EC0AF07F
:1003D000E552E552460EE66E140EE66E000EE66E2F
:1003E00093EC0AF0E552E552E552780EE66E140EF3
:1003F000E66E000EE66E93EC0AF0E552E552E55229
:10040000A60EE66E140EE66E000EE66E93EC0AF093
:10041000E552E552E552800EE66E000EE66E0001F2
:100420006751E66EE66A95EC05F0E552E552E55255
:10043000E552F3CF00F0F4CF01F0F3CFE6FFF4CFB5
:10044000E6FFC5EC0AF0E552E552460EE66E140EE4
:10045000E66E000EE66E93EC0AF0E552E552E552C8
:10046000AC0EE66E140EE66E000EE66E93EC0AF02D
:10047000E552E552E552800EE66E000EE66E000192
:100480006651E66EE66A95EC05F0E552E552E552F6
:10049000E552F3CF00F0F4CF01F0F3CFE6FFF4CF55
:1004A000E6FFC5EC0AF0E552E552460EE66E140E84
:1004B000E66E000EE66E93EC0AF0E552E552E55268
:1004C000B10EE66E140EE66E000EE66E93EC0AF0C8
:1004D000E552E552E552800EE66E000EE66E000132
:1004E0006551E66EE66A95EC05F0E552E552E55297
:1004F000E552F3CF00F0F4CF01F0F3CFE6FFF4CFF5
:10050000E6FFC5EC0AF0E552E552460EE66E140E23
:10051000E66E000EE66E93EC0AF0E552E552E55207
:10052000640EE66E000EE66EB9EC08F0E552E55298
:10053000830EE66E140EE66E000EE66E93EC0AF085
:10054000E552E552E552A60EE66E140EE66E000E7A
:10055000E66E93EC0AF0E552E552E552800EE66E47
:10056000000EE66E00016751E66EE66A95EC05F056
:10057000E552E552E552E552F3CF00F0F4CF01F039
:10058000F3CFE6FFF4CFE6FFC5EC0AF0E552E55203
:10059000460EE66E140EE66E000EE66E93EC0AF062
:1005A000E552E552E552AC0EE66E140EE66E000E14
:1005B000E66E93EC0AF0E552E552E552800EE66EE7
:1005C000000EE66E00016651E66EE66A95EC05F0F7
:1005D000E552E552E552E552F3CF00F0F4CF01F0D9
:1005E000F3CFE6FFF4CFE6FFC5EC0AF0E552E552A3
:1005F000460EE66E140EE66E000EE66E93EC0AF002
:10060000E552E552E552B10EE66E140EE66E000EAE
:10061000E66E93EC0AF0E552E552E552800EE66E86
:10062000000EE66E00016551E66EE66A95EC05F097
:10063000E552E552E552E552F3CF00F0F4CF01F078
:10064000F3CFE6FFF4CFE6FFC5EC0AF0E552E55242
:10065000460EE66E140EE66E000EE66E93EC0AF0A1
:10066000E552E552E552680EE66E000EE66EE3ECEA
:1006700007F0E552E552700EE66E000EE66E2FECC6
:1006800006F0E552E552740EE66E000EE66E5BEC87
:1006900007F0E552E552780EE66E000EE66EC6EC07
:1006A00006F0E552E552700EE66E000EE66EA9EC1D
:1006B00009F0E552E552740EE66E000EE66E64EC4B
:1006C00009F0E552E552780EE66E000EE66E5BEC40
:1006D0000AF0E552E552560EE66E140EE66EC5ECD3
:0806E0000AF0E552E552FFD7D4
:0806E800D9CFE6FFDACFE6FFEF
:1006F000E1CFD9FFE2CFDAFF090EE12402E3E1689E
:10070000E652E16E080EDB6A120E006EA4D8020EED
:10071000A9D8005C1EE3010E016E9DD8020EA2D87E
:10072000D880015416E3310E026E95D8EE52EF5088
:10073000025C0FE3010E036E8ED8EE52EF50D880AC
:10074000035407E3990E046E86D8030E8BD8045C1D
:1007500002E2000E72D07FD8030EE926000EEA22D4
:10076000040EEFCFDBFF77D8EE52020EEFCFDBFFA8
:1007700072D8020EE926000EEA22030EEFCFDBFF4D
:10078000FB0EDB5001E0F29C0F013F51200B01E01A
:10079000010EE76E060EE7CFDBFFDB5002E1EBEC6C
:1007A0000AF00F013F51800B01E0010EE76E070ECA
:1007B000E7CFDBFFDB5009E09150800B01E0010E39
:1007C000E76E080EE7CFDBFF3F9FFC0E3F173F8130
:1007D0009850DF6E010E99CFDBFF3DD8010EEFCFB1
:1007E000DBFFFC0E3F17030E3F13040EDB50986E29
:1007F000050EDB50996E020EDB50986E030EDB5037
:10080000996EDF50986E010EDB50996E070EDB502B
:100810000BE03F8F080EDB5001E0918E060EDB509F
:1008200007E0EBEC0AF004D0060EDB5001E13F9B41
:10083000FB0EDB5001E0F29C010E006E090EE15C44
:1008400002E2E16AE552E16E0050E552E5CFDAFFDF
:10085000E7CFD9FF1200FC0EDBCFE9FFFD0EDBCFA7
:0E086000EAFF1200E926000EEA22EF50120015
:02086E00D9CFE0
:10087000E6FFDACFE6FFE1CFD9FFE2CFDAFFE652BB
:10088000E652E652020EDB6A590E006E96D8070E4B
:100890009BD8005C31E3590E016E8FD8060E94D8B8
:1008A000015C2AE3060E026E88D8050E8DD8025C24
:1008B00023E3240E036E81D8040E86D8035C1CE368
:1008C000120E046E86D8045C17E3010E056E81D803
:1008D000D880055411E3310E066E7FD8065C0CE318
:1008E000010E076E7AD8D880075406E3990E086E79
:1008F00064D8EF50085C02E2000E56D0FB0EDB50CD
:1009000001E0F29C0F013F51200B01E0010EDF6E70
:10091000DF5002E1EBEC0AF00F013F51800B01E0E8
:10092000010EE76E010EE7CFDBFFDB5009E09150CF
:10093000800B01E0010EE76E020EE7CFDBFF3F9F69
:10094000FC0E3F17030E3F1338D8EF50986E35D882
:10095000010E3AD8996E41D8986E3BD8996E2DD831
:10096000040E32D8986E29D8050E2ED8996E25D847
:10097000060E2AD8986E21D8070E26D8996E010E39
:10098000DB500AE03F8F020EDB5001E0918EDF501A
:1009900006E0EBEC0AF003D0DF5001E13F9BFB0ED9
:1009A000DB5001E0F28C010EE552E552E552E552D2
:1009B000E5CFDAFFE7CFD9FF1200FC0EDBCFE9FF6E
:1009C000FD0EDBCFEAFF1200E926000EEA22EF500F
:1009D0001200F3DF030EE4EF04F0EFDF020EE4EFAA
:0209E00004F021
:0E09E200D9CFE6FFDACFE6FFE1CFD9FFE2CFB3
:1009F000DAFF070EE12402E3E168E652E16E060E3B
:100A0000DB6A590E006E85D8EF50005C0DE3590E7D
:100A1000016E78D8EE52EF50015C06E3240E026EB0
:100A20007ED8EF50025C02E2000E5ED072D8030E58
:100A3000EFCFDBFF67D8EE52020EEFCFDBFFFB0EEE
:100A4000DB5001E0F29C0F013F51200B01E0010E51
:100A5000E76E040EE7CFDBFFDB5002E1EBEC0AF0C0
:100A60000F013F51800B01E0010EE76E050EE7CF4D
:100A7000DBFFDB5009E09150800B01E0010EE76ED7
:100A8000060EE7CFDBFF3F9FFC0E3F173F819850DC
:100A9000DF6E010E99CFDBFF42D8EFCFDFFFFC0EF8
:100AA0003F173F81DF50986E010EDB50996E020EAA
:100AB000DB50986E030EDB50996E050EDB500BE099
:100AC0003F8F060EDB5001E0918E040EDB5007E0F5
:100AD000EBEC0AF004D0040EDB5001E13F9BFB0E6F
:100AE000DB5001E0F28C010E006E070EE15C02E2C9
:100AF000E16AE552E16E0050E552E5CFDAFFE7CF5B
:100B0000D9FF1200FC0EDBCFE9FFFD0EDBCFEAFFC1
:100B10001200F8DF020EE926000EEA221200F2DFD0
:0A0B2000030EE926000EEA2212007F
:060B2A00D9CFE6FFDACF8F
:100B3000E6FFFA0EE3CFD9FFFB0EE3CFDAFFFD0E9F
:100B4000E35209E72D0EDE6EFC0EE31EE32AFD0ED6
:100B5000D8B4E306E31EE652E652E652FD0EE12467
:100B6000E76EFF0EE220E46EE652F70EE3CFE6FFFB
:100B7000F70EE3CFE6FF05EC06F0F90EE124E96E8F
:100B8000FF0EE220EA6EF5EC05F00AE1F2EC05F06A
:100B900009E1F5EC05F008E1F2EC05F007E108D019
:100BA00000EC06F0FBEC05F000EC06F0FBEC05F0C9
:100BB00000EC06F0DE6AF90EE126FF0EE222FF0EDF
:100BC000E3CFDAFFE552FF0EE3CFD9FFE552FC0E8B
:100BD000E124E96EFF0EE220EA6EEECFF3FFEFCFE5
:100BE000F4FF1200EF380F0B1200EF500F0B02E171
:100BF000EE52D8841200EF380F0B300FDE6E120069
:100C0000EE500F0B300FDE6E1200FC0EE3CFE9FF4B
:100C1000FD0EE3CFEAFF100EE66EEE6AEE6AEF6AB3
:100C2000D890FD0EE336FE0EE336ED36ED36EF36A8
:100C3000FF0EE30609E026EC06F0EE5226EC06F085
:100C4000EE5226EC06F0EDD7E56E1200030EEF240F
:0E0C5000E8B6EF6E300EEF24E8BEEF6E000C3B
:020C5E00D9CFEC
:100C6000E6FFDACFE6FFE1CFD9FFE2CFDAFF060EEB
:100C7000E12402E3E168E652E16E120E006E7AD8DA
:100C8000020E7FD8005C1EE3010E016E73D8020EC7
:100C900078D8D880015416E3310E026E6BD8EE522C
:100CA000EF50025C0FE3010E036E64D8EE52EF507A
:100CB000D880035407E3990E046E5CD8030E61D804
:100CC000045C02E2000E48D055D8EE52020EEFCF7F
:100CD000DBFF50D8020EE926000EEA22030EEFCF0A
:100CE000DBFF0F013F51200B01E0010EE76E040E08
:100CF000E7CFDBFFDB5002E1EBEC0AF09150800B19
:100D000001E0010EE76E050EE7CFDBFFDB5001E0EF
:100D1000919EFC0E911691808E50DF6E010E8FCF4A
:100D2000DBFF28D8EFCFDFFFFC0E0F013F173F831B
:100D3000020EDB508E6E030EDB508F6EDF508E6E18
:100D4000010EDB508F6E050EDB5001E0918E040E1C
:100D5000DB5001E13F9B010E006E060EE15C02E2FA
:100D6000E16AE552E16E0050E552E5CFDAFFE7CFE8
:100D7000D9FF1200FC0EDBCFE9FFFD0EDBCFEAFF4F
:0C0D80001200E926000EEA22EF501200DB
:040D8C00D9CFE6FFD6
:100D9000DACFE6FFE1CFD9FFE2CFDAFFE652E65243
:100DA000590E006E78D8070E7DD8005C2FE3590EDF
:100DB000016E71D8060E76D8015C28E3060E026E2D
:100DC0006AD8050E6FD8025C21E3240E036E63D847
:100DD000040E68D8035C1AE3120E046E68D8045C33
:100DE00015E3010E056E63D8D88005540FE3310E6C
:100DF000066E51D8020E56D8065C08E3010E076E47
:100E00004AD8020E4FD8D880075402E2000E3BD0D9
:100E10000F013F51200B01E0010EDF6EDF5002E1B8
:100E2000EBEC0AF09150800B01E0010EE76E010E31
:100E3000E7CFDBFFDB5001E0919EFC0E9116918223
:100E4000DBCFE9FFFD0EDBCFEAFF020E2BD88E6E63
:100E50002ED88F6E20D8040E25D88E6E1CD8050E85
:100E600021D88F6E18D8060E1DD88E6E14D8070E96
:100E700019D88F6E010EDB5001E0918EDF5002E138
:100E80000F013F9B010EE552E552E552E5CFDAFF37
:100E9000E7CFD9FF1200FC0EDBCFE9FFFD0EDBCF61
:100EA000EAFF1200E926000EEA22EF501200F3DFFB
:060EB000030E52EF07F0F3
:0A0EB600D9CFE6FFDACFE6FFE1CF67
:100EC000D9FFE2CFDAFF060EE12402E3E168E65241
:100ED000E16E590E006E6BD8EF50005C0DE3590EB9
:100EE000016E5ED8EE52EF50015C06E3240E026EF6
:100EF00064D8EF50025C02E2000E44D058D8030ED2
:100F0000EFCFDBFF4DD8EE52020EEFCFDBFF0F012C
:100F10003F51200B01E0010EE76E040EE7CFDBFF2F
:100F2000DB5002E1EBEC0AF09150800B01E0010E86
:100F3000E76E050EE7CFDBFFDB5001E0919EFC0E74
:100F4000911691808E50DF6E010E8FCFDBFF35D86A
:100F5000EFCFDFFFFC0E91169180DF508E6E010EF9
:100F6000DB508F6E020EDB508E6E030EDB508F6EE9
:100F7000050EDB5001E0918E040EDB5002E10F0103
:100F80003F9B010E006E060EE15C02E2E16AE55253
:100F9000E16E0050E552E5CFDAFFE7CFD9FF12004E
:100FA000FC0EDBCFE9FFFD0EDBCFEAFF1200F8DF1E
:100FB000020EE926000EEA221200F2DF030EE926F5
:060FC000000EEA221200FF
:0A0FC600D9CFE6FFDACFE6FFE1CF56
:100FD000D9FFE2CFDAFF080EE12402E3E168E6522E
:100FE000E16EFC0E0F013F17030E3F1343D898CF5D
:100FF000EFFF40D8010E49D8020E4CD8030E45D859
:10100000040E48D8050E41D8060E44D8070E39D82C
:1010100099CFEFFFFC0E3F17030E3F139850DF6E82
:10102000010E99CFDBFF020E98CFDBFF030E99CFA5
:10103000DBFF040E98CFDBFF050E99CFDBFF060E1A
:1010400098CFDBFF070E99CFDBFF14D8060E19D817
:10105000EFCF00F0060EDB50005CC3E1080EE15C50
:1010600002E2E16AE552E16EE552E5CFDAFFE7CF51
:10107000D9FF1200FC0EDBCFE9FFFD0EDBCFEAFF4C
:101080001200E926000EEA221200FBDF99CFEFFFE3
:0E1090003AEF08F0F6DF98CFEFFF3AEF08F0E6
:02109E00D9CFA8
:1010A000E6FFDACFE6FFE1CFD9FFE2CFDAFF100E9D
:1010B000E12402E3E168E652E16EFC0E0F013F1706
:1010C000030E3F139850DF6E010E99CFDBFF020E27
:1010D00098CFDBFF030E99CFDBFF040E98CFDBFF29
:1010E000050E99CFDBFFFC0E3F17030E3F13080ED2
:1010F00098CFDBFF090E99CFDBFF0A0E98CFDBFFFD
:101100000B0E99CFDBFF0C0E98CFDBFF0D0E99CFA6
:10111000DBFF0A0EDB50F36E020EDB50F35CCDE119
:1011200021D8EE52020E1AD8020EE926000EEA224B
:10113000030E14D8050E12D8030EE926000EEA227B
:10114000DFCFEFFF100EE15C02E2E16AE552E16EF3
:10115000E552E5CFDAFFE7CFD9FF1200DBCFEFFF93
:10116000B2EF08F0FC0EDBCFE9FFFD0EDBCFEAFFAC
:0211700012006B
:0E117200D9CFE6FFDACFE6FFE1CFD9FFE2CF1B
:10118000DAFF100EE12402E3E168E652E16EFC0EA4
:101190000F013F173F81040E98CFDBFF050E99CF5B
:1011A000DBFF060E98CFDBFF070E99CFDBFFFC0EAF
:1011B0003F173F810C0E98CFDBFF0D0E99CFDBFF61
:1011C0000E0E98CFDBFF0F0E99CFDBFF0E0EDB501C
:1011D000F36E060EDB50F35CDAE120D8030EE9264D
:1011E000000EEA22040EDBCFEFFF18D8020EE9262C
:1011F000000EEA22070EDBCFEFFF10D8EE52060EEC
:10120000DBCFEFFF100EE15C02E2E16AE552E16E36
:10121000E552E5CFDAFFE7CFD9FF1200FC0EDBCFB6
:0A122000E9FFFD0EDBCFEAFF12002C
:06122A00060EF66E000E38
:10123000F76E000EF86E00010900F550876F090087
:10124000F550886F03E1876701D03DD00900F55064
:10125000826F0900F550836F0900F550846F090013
:101260000900F550E96E0900F550EA6E0900090021
:101270000900F550856F0900F550866F09000900D7
:10128000F6CF89F0F7CF8AF0F8CF8BF082C0F6FF67
:1012900083C0F7FF84C0F8FF0001855302E1865345
:1012A00007E00900F550EE6E8507F8E28607F9D7EA
:1012B00089C0F6FF8AC0F7FF8BC0F8FF00018707DF
:0812C000000E885BBFD712008D
:0812C800D9CFE6FFDACFE6FF03
:1012D000E1CFD9FFE2CFDAFF080EE12402E3E168B3
:1012E000E652E16EFC0E91169180040E8ECFDBFF6C
:1012F000050E8FCFDBFF060E8ECFDBFF070E8FCFE5
:10130000DBFF20D8030EE926000EEA22040EDBCF15
:10131000EFFF18D8020EE926000EEA22070EDBCFF7
:10132000EFFF10D8EE52060EDBCFEFFF080EE15CA8
:1013300002E2E16AE552E16EE552E5CFDAFFE7CF7E
:10134000D9FF1200FC0EDBCFE9FFFD0EDBCFEAFF79
:02135000120089
:0E135200D9CFE6FFDACFE6FFE1CFD9FFE2CF39
:10136000DAFF080EE12402E3E168E652E16EFC0ECA
:1013700091169182020E8ECFDBFF030E8FCFDBFF23
:10138000040E8ECFDBFF050E8FCFDBFF1CD8EE5295
:10139000020EDBCFEFFF17D8020EE926000EEA227D
:1013A000030EDBCFEFFF0FD8050EDBCFEFFF080EEC
:1013B000E15C02E2E16AE552E16EE552E5CFDAFF77
:1013C000E7CFD9FF1200FC0EDBCFE9FFFD0EDBCF2C
:0413D000EAFF12001E
:0C13D400D9CFE6FFDACFE6FFE1CFD9FF6A
:1013E000E2CFDAFFAD6AAC6AFD0EDBB0AD88DBA2FE
:1013F00002D0AD8CAC8CDBB4AD8EDBA602D0AC8859
:1014000001D0AC8ADBB8AD84DBBAAC86DBAC02D0F1
:101410009D8A01D09D9ADBAE02D09D8801D09D9817
:10142000FB0EDB50B06EFC0EDBCF01F001C000F014
:10143000016A00507F6EAD8AAC8EE552E5CFDAFFCF
:06144000E7CFD9FF120006
:0A1446000D0A0053746172742074E3
:101450006573740D0A00456E6420746573740D0A1B
:101460000044617465207365740D0A0044617465FD
:1014700020726561640D0A0054696D65207365749E
:101480000D0A0054696D6520726561640D0A00776C
:101490006461793A006D6F6E3A006D6461793A006B
:1014A000796561723A00686F75723A006D696E3ADB
:0614B000007365633A00C1
:0A14B600D9CFE6FFDACFE6FFE1CF61
:1014C000D9FFE2CFDAFFFC0E9116918226D8020EE8
:1014D00014D8030E1AD8040E10D8050E16D8060E0E
:1014E0000CD8070EE926000EEA228FCFEFFFE55257
:1014F000E5CFDAFFE7CFD9FF1200E926000EEA2296
:101500008ECFEFFFFC0E8DEF0AF0E926000EEA22E7
:101510008FCFEFFFFC0E8DEF0AF0DBCFE9FFFD0E62
:06152000DBCFEAFF120020
:0A152600D9CFE6FFDACFE6FFE1CFF0
:10153000D9FFE2CFDAFFADA2FED7FB0EDBCFF6FF7D
:10154000FC0EDBCFF7FFFD0EDBCFF8FF0800F550F8
:10155000E66E05EC0BF0E552D950FB0FE96EFF0E7D
:10156000DA20EA6EEFCFF6FFEE2AEFCFF7FF000E9C
:10157000EE22EFCFF8FFEE220800F550DCE1E55255
:0A158000E5CFDAFFE7CFD9FF120034
:06158A00D9CFE6FFDACF25
:10159000E6FFE1CFD9FFE2CFDAFFADA2FED7FC0E26
:1015A000DBCFE9FFFD0EDBCFEAFFEF50E66E05EC87
:1015B0000BF0E552FC0EDBCFE9FFDB2AFD0EDBCFA3
:1015C000EAFF01E3DB2AEF50E8E1E552E5CFDAFF7D
:0615D000E7CFD9FF120075
:0A15D600D9CFE6FFDACFE6FFE1CF40
:1015E000D9FFE2CFDAFFE652E652F29C550EA76E23
:1015F000AA0EA76E0F013F8BF28CE552E552E55221
:0A160000E5CFDAFFE7CFD9FF1200B3
:06160A00D9CFE6FFDACFA4
:10161000E6FFE1CFD9FFE2CFDAFFADAC04D0AD9069
:1016200000018CB3AD80FD0EDB50AE6EE552E5CF10
:08163000DAFFE7CFD9FF120039
:08163800C00EF36E00EE00F09D
:101640000E0E01D81200EA6002D0EE6AFCD7F35009
:08165000E9601200EE6AFCD70C
:081658001DEE00F02DEE00F084
:10166000F86A0A9C15EC09F048EC0BF004EC00F069
:04167000FBD7120092
:0C167400CD860F013F6B3E6B3FAF06D0F0
:101680003FBB02D0EBEC0AF00F013F9F3F9B1200E3
:02169000120046
:00000001FF
