:10000000CC11002019330000FD3200000000000078
:10001000FD320000FD320000FD320000FD32000024
:10002000FD320000FD320000FD320000DD60000006
:10003000FD320000FD320000A96000001130000018
:100040008D2D0000FD320000FD320000FD32000069
:10005000FD320000FD320000FD320000FD320000E4
:10006000FD320000FD320000FD320000FD320000D4
:10007000FD320000FD320000FD320000FD320000C4
:10008000FD320000552E0000FD320000FD32000060
:10009000FD320000FD320000FD320000FD320000A4
:1000A000FD320000FD320000FD320000FD32000094
:1000B000FD320000FD320000FD320000FD32000084
:1000C000FD320000FD320000FD320000FD32000074
:1000D000FD320000FD320000FD320000FD32000064
:1000E000FD320000FD320000FD320000FD32000054
:1000F0000B88032B02D0052B0AD104E0074B0360C9
:100100004FF002007047064B03604FF0020070474B
:10011000044B03604FF00300704700BF6D07000001
:100120007D090000C9010000044B1A68044800FB67
:1001300002F018604FEA1020704700BF0400002052
:10014000CD0D01002DE9F0410D4616461C4609294A
:1001500004D91B4840F2CB2102F0FAFC2A46184B86
:1001600003EBC5052D7CC6F160039D42C8BFDDB21F
:100170001DB3144B9E194FF00003114F07EBC2073C
:10018000C4F100085FFA88F85FFA84FC002CFA6872
:10019000D15CACBF01FA0CF141FA08F132780A43A4
:1001A00006F8012B96F85F0040EA112186F85F10EF
:1001B00003F10103DAB29542E8D8BDE8F08100BF4F
:1001C000E06000000800002038B505460C460B88AA
:1001D000062B16D0162B19D10B79042B04D803F15A
:1001E000100350F8233023B90B484FF0A90102F057
:1001F000AFFC237903F110034FF0000045F8230012
:1002000038BD064B03604FF0020038BD044B03605D
:100210004FF0030038BD00BFE0600000E10D0000BA
:100220009D4B0000F8B5074600F1500400F164054D
:100230004FF0000654F8040F314604F057F9606996
:10024000314604F053F9AC42F4D140F2D242C04BF3
:100250001A6038464FF0040103F094FC38464FF022
:10026000050103F08FFC38464FF0060103F08AFCCD
:10027000B84BDB7913F0200F39D072B64FF03D0048
:1002800004F0DAFCB44805F039FAB44805F0F2FBA2
:1002900004F07AFD62B602F029FFAE4BDB7913F071
:1002A000200F24D072B64FF03D0004F0C5FCAC48DE
:1002B00005F024FAAB4805F0DDFB04F065FD62B6FD
:1002C00002F014FFA34BDB7913F0200F0FD072B6AE
:1002D0004FF03D0004F0B0FCA34805F00FFAA3482E
:1002E00005F0C8FB04F050FD62B602F0FFFE994B2A
:1002F000DB7913F0400F00F0BA8072B64FF03E0089
:1003000004F09AFC9A4805F0F9F99A4805F0B2FB16
:1003100004F03AFD62B602F0E9FE8E4BDB7913F091
:10032000400F00F0A48072B64FF03E0004F084FC51
:10033000914805F0E3F9914805F09CFB04F024FD99
:1003400062B602F0D3FE834BDB7913F0400F00F06E
:100350008E8072B64FF03E0004F06EFC884805F0C7
:10036000CDF9884805F086FB04F00EFD62B602F078
:10037000BDFE784BDB7913F0400F78D072B64FF0AA
:100380003E0004F059FC804805F0B8F97F4805F0BC
:1003900071FB04F0F9FC62B602F0A8FE6D4BDB794C
:1003A00013F0400F63D072B64FF03E0004F044FCEF
:1003B000774805F0A3F9774805F05CFB04F0E4FC0E
:1003C00062B602F093FE634BDB7913F0400F4ED020
:1003D00072B64FF03E0004F02FFC6F4805F08EF926
:1003E0006E4805F047FB04F0CFFC62B602F07EFEDB
:1003F000584BDB7913F0400F39D072B64FF03E0006
:1004000004F01AFC664805F079F9664805F032FBFD
:1004100004F0BAFC62B602F069FE4E4BDB7913F0D1
:10042000400F24D072B64FF03E0004F005FC5E4849
:1004300005F064F95D4805F01DFB04F0A5FC62B60B
:1004400002F054FE434BDB7913F0400F0FD072B62D
:100450004FF03E0004F0F0FB554805F04FF95548C9
:1004600005F008FB04F090FC62B602F03FFE394B49
:10047000DB7913F0100F00F0068172B64FF03C00EC
:1004800004F0DAFB4FF00A0005F080F8324C204609
:1004900005F034F9484805F0EDFA04F075FC62B651
:1004A00002F024FE2B4BDB7913F0100F00F0EB80F1
:1004B00072B64FF03C0004F0BFFB4FF00B0005F0AC
:1004C00065F8204605F01AF93C4805F0D3FA04F027
:1004D0005BFC62B602F00AFE1E4BDB7913F0100FD4
:1004E00000F0D18072B64FF03C0004F0A5FB4FF055
:1004F0000F0005F04BF8204605F000F9304805F0F4
:10050000B9FA04F041FC62B602F0F0FD114BDB7960
:1005100013F0100F00F0B78072B64FF03C0004F0FB
:100520008BFB4FF0100005F031F8204605F0E6F89F
:10053000244805F09FFA04F027FC62B602F0D6FDCD
:10054000044BDB7913F0100F00F09D803CE000BFFE
:1005500004000020A80B0020C80000203C6100001F
:10056000E000002048610000F4000020606100000D
:100570002502000078610000E10D000088610000A4
:10058000C901000098610000950A0000A861000000
:100590007D090000B8610000C9070000C8610000C3
:1005A000F1000000DC6100006D070000F461000054
:1005B000A9060000106200002C62000040620000EA
:1005C000546200006462000072B64FF03C0004F018
:1005D00033FB4FF0110004F0D9FF204605F08EF8F0
:1005E0002B4805F047FA04F0CFFB62B602F07EFD1F
:1005F000284BDB7913F0100F45D072B64FF03C005A
:1006000004F01AFB4FF0160004F0C0FF204605F07E
:1006100075F8214805F02EFA04F0B6FB62B602F038
:1006200065FD1C4BDB7913F0100F2CD072B64FF028
:100630003C0004F001FB4FF0140004F0A7FF20463B
:1006400005F05CF8154805F015FA04F09DFB62B65C
:1006500002F04CFD0F4BDB7913F0100F13D072B684
:100660004FF03C0004F0E8FA4FF0180004F08EFF61
:10067000204605F043F80A4805F0FCF904F084FB35
:1006800062B602F033FD074B3B604FF00200F8BD4D
:1006900074620000A80B00208462000098620000D1
:1006A000A86200007D09000070B504460B88022B8B
:1006B00033D00B2B47D0012B4AD1FFF735FD054630
:1006C000264E30464FF000014FF0C00205F044FCCA
:1006D000234BA3FB05234FEA531303EB830203EBE6
:1006E000C202AA1A20464FF00001D2B205F0070359
:1006F000FFF728FD30464FF060014FF0100202F086
:1007000083F94FF00005E58704F12C0021464FF0F6
:100710000A0203F03BFE284670BD00F12C0003F0F6
:100720007BFE0E4C20464FF000014FF0C00205F05A
:1007300013FC20464FF060014FF0100202F064F904
:100740004FF0000070BD074B03604FF0020070BD1A
:10075000054B03604FF0030070BD00BF0800002090
:100760007D0CCEC76D070000F100000038B50446CF
:100770000B88022B11D00B2B18D0012B1BD102F0B0
:1007800061F94FF00005E58704F12C0021464FF098
:100790005A0203F0FBFD284638BD00F12C0003F09F
:1007A0003BFE02F04BF94FF0000038BD044B0360F4
:1007B0004FF0020038BD034B03604FF0030038BD1B
:1007C000A9060000F100000070B504460B8803F193
:1007D000FF330A2B4BD8DFE803F006224A4A4A4A85
:1007E0004A4A4A3145004FF00F02428500F1180095
:1007F000214603F0CBFD4FF00005E58704F12C0006
:1008000021464FF0960203F0C1FD84F87C504FF072
:1008100015002946184A02F005F9284670BD00F176
:10082000180003F0F9FD04F12C0003F0F5FD4FF082
:10083000000002F001F94FF0000070BD90F87C302C
:1008400083F0010380F87C304FF015004FF0000179
:10085000094A0A4C8B4218BF224602F0E3F84FF0D7
:10086000000070BD064B03604FF0020070BD054BE9
:1008700003604FF0030070BD146D0000206D000098
:100880007D090000C901000070B50446FFF74CFC6B
:10089000C0B22F2806D894F87F301BB103F1FF3384
:1008A00084F87F30D02806D994F880301BB103F14A
:1008B000FF3384F88030FFF737FCC0B22F2818D8F8
:1008C00094F87F30C3F1100194F88020891A94F8CD
:1008D000812091420DDD94F87D205A2A05D994F8A3
:1008E0007E1003F10102914203DD03F1010384F85C
:1008F0007F30D0281AD994F8803094F87F10C1F155
:100900001001C91A94F8812091420FDD94F87D20DE
:100910005A2A07D994F87E1001F10101C3F110029F
:10092000914203DA03F1010384F88030124D05F59A
:10093000A476304606F101014FF0BF0205F0B2FA8D
:1009400094F88010C1F110014FF0FF3202FA01F16A
:1009500094F87F3002FA03F361EA030385F8A731C4
:100960004FEA132385F8073205F1040031464FF0B2
:10097000C00205F0FDF870BD0400002038B5044643
:100980000B8803F1FF330A2B65D8DFE803F0062E4E
:1009900064475F646464643942004FF0000580F886
:1009A0007D5080F87E5080F87F5080F880504FF066
:1009B0000D0380F881302A4829464FF0C00205F027
:1009C000CBFA4FF00F02628504F11800214603F0C4
:1009D000DDFCE58704F12C0021464FF4167203F08C
:1009E000D5FC84F87C50284638BD00F1180003F08F
:1009F00013FD04F12C0003F00FFD4FF0000038BD93
:100A000090F87C3083F0010380F87C304FF00000D8
:100A100038BD144B03604FF0020038BDFFF734FFC0
:100A200094F87C3043B120464FF000014FF014029F
:100A30004FF00403FFF786FB0B484FF060014FF0C7
:100A4000100201F0E1FF4FF0000038BD074B0360DA
:100A50004FF0020038BD064B03604FF0030038BD75
:100A60004C010020F100000008000020950A000061
:100A7000C901000070B50E4600F13C0400F15005BC
:100A800054F8040F10B1314603F0E2FDAC42F7D147
:100A900070BD00BF2DE9F04182B005460C460B88C1
:100AA00003F1FF33172B00F27981DFE813F0180010
:100AB0002C00770138007701770118017701770161
:100AC00077017701770177017701A100A100FE008E
:100AD00077017701FE0077017701770108014FF078
:100AE0000D0385F88130B1484FF000014FF0C0028E
:100AF00005F032FAAE4B1868AE492A4602F028FFDC
:100B00004FF000004EE102A94FF0170221F8082D26
:100B100028466946FFF7AEFF4FF0000042E1A648C5
:100B20004FF060014FF0100201F06EFF2846FFF712
:100B3000ABFEFFF7F9FA95F87D3043B103F1FF33CF
:100B4000DBB285F87D3003F10A035F2B49DC00F04E
:100B5000FF00072845D82B6C63B105F140034FF027
:100B6000010653F8042F3AB106F10106F6B2052E3C
:100B7000F7D136E04FF00006FFF7D6FA81B210F059
:100B8000010F06F1100307BF05EB8602526D06F157
:100B90001A0255F8222045F823204FF0600285F80C
:100BA0007D2095F87F3003F1020095F88070C7F141
:100BB0000C07FB1AB1FBF3F703FB1713C318DBB2E7
:100BC00085F87E304FF01500ADF800008DF8042058
:100BD0008DF8053006F1100655F82600694603F039
:100BE00037FD28462146FFF745FF4FF00000D9E0CA
:100BF0000E7991F805808F79092F04D96F4840F25A
:100C0000E52101F0A5FF6D4B03EBC7031A7CC6F18C
:100C100060039A42C8BFDAB2002A38D0674B03EBB0
:100C2000C703D9685FFA88FE0B7803FA0EF36448AD
:100C3000801990F8480103421FD16148801990F84B
:100C4000A80110EA132018D15848831902F1FF3285
:100C5000D2B203EB020C0DE011F8012F02FA0EF2F2
:100C6000587803F10103104207D193F8600010EAAD
:100C7000122002D16345EFD109E023880F2B0CBF6E
:100C80004B4B504B186850492A4602F061FE2846EB
:100C9000394632464FFA88F3FFF754FA2846214680
:100CA000FFF7E8FE4FF000007CE0284689792279C2
:100CB00094F90530FFF746FA4FF0000072E088889B
:100CC00001F0BAFEA288414BA3FB02134FEAD313F3
:100CD000C3F10D0385F881304FF0000062E08C888D
:100CE000204601F0A9FE344E30464FF000014FF08F
:100CF000C00205F031F930464FF060014FF01002AC
:100D000001F082FE4FF012004FF00101304A01F075
:100D100089FE4FF000038DF804302E4BA3FB040234
:100D20004FEAD20202EB8201A4EB410404F1300449
:100D30008DF8034091B2A3FB01024FEAD20202EB0D
:100D40008200A1EB400101F130018DF8021091B257
:100D5000A3FB01024FEAD20202EB8200A1EB4001A9
:100D600001F130018DF8011092B2A3FB02134FEA9A
:100D7000D30303EB8303A2EB430202F1300302AA85
:100D800002F8083D4FF036004FF001016A4601F0CD
:100D900049FE114B2B604FF0020003E00F4B2B601C
:100DA0004FF0030002B0BDE8F08100BF4C0100200D
:100DB00008670000B462000008000020E060000046
:100DC0000400002050660000B8620000D34D62109D
:100DD0002C6D0000CDCCCCCCC9070000C9010000AF
:100DE00010B50B88012B13D10C4C20464FF000019D
:100DF0004FF0C00205F0B0F820464FF060014FF010
:100E0000100201F001FE02F087FC4FF0000010BD5F
:100E1000034B03604FF0030010BD00BF080000202B
:100E20009D4B000070B5164D164BC5F8C43005F14A
:100E3000DC004FF00A0103F093FA05F1F0004FF0E7
:100E40000B0103F08DFA05F58A754FF00004264674
:100E5000204600F063FB45F8040F204600F00EFE2C
:100E6000686145F8146C04F10104E4B2052CEFD17B
:100E7000034B4FF0000283F8412183F8422170BDFB
:100E800004000020250200002DE9F84306460D4627
:100E900090461F469DF820409DF82490092801D8CF
:100EA000092B04D9514840F2033101F051FEA5420B
:100EB0003DD84E4B03EBC7031B7CEA18A24275DDFD
:100EC000101BC0B2494B03EBC6031A7C904228BFEB
:100ED000104600286ED0454B03EBC707F968641B2A
:100EE000E4B24F4603EBC606F26846460B5D03FAD2
:100EF00009F9137803FA08F819EA080F5ED10C19FA
:100F00004FF000030AE0657804F1010412F8011FB4
:100F100005FA07F501FA06F10D4253D103F1010379
:100F2000DBB28342EFD14FF00000BDE8F8832F4BD6
:100F300003EBC6031B7CE218AA4247DD581B2018AE
:100F4000C0B22A4B03EBC7031A7C904228BF10465D
:100F500000283FD0254B03EBC606F1682C1BE4B2FA
:100F6000464603EBC707FA684F460B5D03FA08F8DD
:100F7000137803FA09F918EA090F2FD10C194FF069
:100F800000030AE0617804F1010412F8015F05FA38
:100F900007F501FA06F10D4224D103F10103DBB29A
:100FA0008342EFD14FF00000BDE8F8834FF000001E
:100FB000BDE8F8834FF00000BDE8F8834FF0010072
:100FC000BDE8F8834FF00100BDE8F8834FF0000062
:100FD000BDE8F8834FF00000BDE8F8834FF0010052
:100FE000BDE8F8834FF00100BDE8F883E060000041
:100FF0000B88152B08D10B7903714B794371054B85
:1010000003604FF002007047034B03604FF0030092
:10101000704700BF2D1400009D4B000010B5044622
:10102000AE4B1B78002B40F0D680AD4BDB7913F034
:10103000200F63D072B64FF03D0003F0FDFDA948CC
:1010400004F05CFBA84804F015FD03F09DFE62B6B9
:1010500002F04CF8A24BDB7913F0200F4ED072B6A1
:101060004FF03D0003F0E8FDA04804F047FBA04826
:1010700004F000FD03F088FE62B602F037F8984BEA
:10108000DB7913F0200F39D072B64FF03D0003F03A
:10109000D3FD984804F032FB974804F0EBFC03F0D2
:1010A00073FE62B602F022F88D4BDB7913F0200F4D
:1010B00024D072B64FF03D0003F0BEFD8F4804F01F
:1010C0001DFB8F4804F0D6FC03F05EFE62B602F012
:1010D0000DF8834BDB7913F0200F0FD072B64FF071
:1010E0003D0003F0A9FD874804F008FB864804F0A2
:1010F000C1FC03F049FE62B601F0F8FF784BDB79E2
:1011000013F0400F63D072B64FF03E0003F094FD31
:101110007E4804F0F3FA7E4804F0ACFC03F034FEA1
:1011200062B601F0E3FF6E4BDB7913F0400F4ED057
:1011300072B64FF03E0003F07FFD764804F0DEFA11
:10114000754804F097FC03F01FFE62B601F0CEFF75
:10115000634BDB7913F0400F39D072B64FF03E008D
:1011600003F06AFD6D4804F0C9FA6D4804F082FC92
:1011700003F00AFE62B601F0B9FF594BDB7913F0B8
:10118000400F24D072B64FF03E0003F055FD654885
:1011900004F0B4FA644804F06DFC03F0F5FD62B6A7
:1011A00001F0A4FF4E4BDB7913F0400F0FD072B665
:1011B0004FF03E0003F040FD5C4804F09FFA5C48AD
:1011C00004F058FC03F0E0FD62B601F08FFF4FF031
:1011D0000102424B1A70424BDB7913F0100F77D0AB
:1011E00072B64FF03C0003F027FD4FF0150004F0FD
:1011F000CDF9204604F082FA4E4804F03BFC03F09F
:10120000C3FD62B601F072FF354BDB7913F0100FAE
:101210005ED072B64FF03C0003F00EFD4FF01600AA
:1012200004F0B4F9204604F069FA434804F022FCC3
:1012300003F0AAFD62B601F059FF294BDB7913F0E8
:10124000100F45D072B64FF03C0003F0F5FC4FF0A4
:10125000170004F09BF9204604F050FA374804F0D8
:1012600009FC03F091FD62B601F040FF1C4BDB79F5
:1012700013F0100F2CD072B64FF03C0003F0DCFCE2
:101280004FF00F0004F082F9204604F037FA2C48A2
:1012900004F0F0FB03F078FD62B601F027FF104B7D
:1012A000DB7913F0100F13D072B64FF03C0003F04F
:1012B000C3FC4FF0100004F069F9204604F01EFA58
:1012C000204804F0D7FB03F05FFD62B601F00EFF8B
:1012D000104B23604FF0020010BD00BF0C02002035
:1012E000A80B00201002002030630000180200202C
:1012F0003C63000020020020486300002802002018
:101300005463000030020020606300001D100000E4
:101310006C630000F10F00007C630000D11300003B
:101320008C6300002D140000986300004913000036
:10133000A8630000BC630000CC630000E063000011
:10134000F46300000464000010B504460B88012B10
:1013500002D0042B31D103E04FF00000A07110BD8A
:1013600003792BB382790E2A22D802F1010282710D
:1013700003F1FF3303714FF008004FF0140102F046
:1013800051FD0146237903F1010303716379A3F150
:1013900002034371A3794FEA930303F106038371B8
:1013A000084B1868224602F0D3FA4FF0000010BD37
:1013B000054B23604FF0020010BD044B03604FF05B
:1013C000030010BDBC620000F10F0000D11300004B
:1013D00010B504460B88022B02D0172B19D113E04D
:1013E0004FF006004FF0160102F01CFD01460B4BBA
:1013F000E31A4FEAE3030371094B1868224602F02F
:10140000A7FA4FF0000010BD064B03604FF002003A
:1014100010BD054B03604FF0030010BD100200200B
:10142000BC620000F10F00009D4B000030B583B09E
:1014300004460B880F2B23D0102B3AD0042B50D10D
:101440000379C3B103F1FF3303714FF008004FF08C
:10145000110102F0E7FC01462379037163794371BE
:101460004FF003038371254B1868224602F070FA8F
:101470004FF000003FE0224B03604FF002003AE0E3
:10148000057942798B7908790090497901914FF07B
:1014900003002946FFF7F8FC002827D0194B1868ED
:1014A0001949224602F054FA154B23604FF002000E
:1014B00021E0057942798B79087900904979019189
:1014C0004FF003002946FFF7DFFC90B10F4B18687F
:1014D0000F49224602F03CFA0E4B23604FF0020007
:1014E00009E00D4B03604FF0030004E04FF00000F3
:1014F00001E04FF0000003B030BD00BFBC6200004F
:10150000F10F00000867000014640000506600003E
:101510001C64000049130000D113000010B50446FC
:10152000042804D907484FF0380101F011FB0648A0
:101530004FEAC4040319054A5A6000F10400001977
:1015400010BD00BF246400000C0200201D1000002C
:101550000B88152B08D10B7903714B794371054B1F
:1015600003604FF002007047034B03604FF003002D
:10157000704700BF8D1900009D4B000010B5044658
:10158000AE4B1B78002B40F0D680AD4BDB7913F0CF
:10159000200F63D072B64FF03D0003F04DFBA94819
:1015A00004F0ACF8A84804F065FA03F0EDFB62B66D
:1015B00001F09CFDA24BDB7913F0200F4ED072B6E8
:1015C0004FF03D0003F038FBA04804F097F8A04826
:1015D00004F050FA03F0D8FB62B601F087FD984B97
:1015E000DB7913F0200F39D072B64FF03D0003F0D5
:1015F00023FB984804F082F8974804F03BFA03F084
:10160000C3FB62B601F072FD8D4BDB7913F0200F46
:1016100024D072B64FF03D0003F00EFB8F4804F06B
:101620006DF88F4804F026FA03F0AEFB62B601F0C5
:101630005DFD834BDB7913F0200F0FD072B64FF0B6
:101640003D0003F0F9FA874804F058F8864804F0A2
:1016500011FA03F099FB62B601F048FD784BDB7993
:1016600013F0400F63D072B64FF03E0003F0E4FA7F
:101670007E4804F043F87E4804F0FCF903F084FB54
:1016800062B601F033FD6E4BDB7913F0400F4ED0A4
:1016900072B64FF03E0003F0CFFA764804F02EF811
:1016A000754804F0E7F903F06FFB62B601F01EFD28
:1016B000634BDB7913F0400F39D072B64FF03E0028
:1016C00003F0BAFA6D4804F019F86D4804F0D2F945
:1016D00003F05AFB62B601F009FD594BDB7913F0B8
:1016E000400F24D072B64FF03E0003F0A5FA6548D3
:1016F00004F004F8644804F0BDF903F045FB62B659
:1017000001F0F4FC4E4BDB7913F0400F0FD072B6B2
:101710004FF03E0003F090FA5C4803F0EFFF5C48A6
:1017200004F0A8F903F030FB62B601F0DFFC4FF0E3
:101730000102424B1A70424BDB7913F0100F77D045
:1017400072B64FF03C0003F077FA4FF0150003F04B
:101750001DFF204603F0D2FF4E4804F08BF903F042
:1017600013FB62B601F0C2FC354BDB7913F0100FAE
:101770005ED072B64FF03C0003F05EFA4FF01600F8
:1017800003F004FF204603F0B9FF434804F072F968
:1017900003F0FAFA62B601F0A9FC294BDB7913F0E9
:1017A000100F45D072B64FF03C0003F045FA4FF0F1
:1017B000170003F0EBFE204603F0A0FF374804F0CB
:1017C00059F903F0E1FA62B601F090FC1C4BDB79A9
:1017D00013F0100F2CD072B64FF03C0003F02CFA2F
:1017E0004FF00F0003F0D2FE204603F087FF2C4895
:1017F00004F040F903F0C8FA62B601F077FC104B30
:10180000DB7913F0100F13D072B64FF03C0003F0E9
:1018100013FA4FF0100003F0B9FE204603F06EFFFC
:10182000204804F027F903F0AFFA62B601F05EFC3D
:10183000104B23604FF0020010BD00BF38020020A3
:10184000A80B00203C0200202C6400004402002071
:10185000386400004C020020446400005402002060
:10186000506400005C0200205C6400007D150000F4
:101870006864000051150000786400003119000010
:10188000886400008D19000094640000A91800000D
:10189000A4640000B8640000C8640000DC640000B8
:1018A000F06400000065000010B504460B88012BB1
:1018B00002D0042B31D103E04FF00000A07110BD25
:1018C00003792BB382790E2A22D802F101028271A8
:1018D00003F1FF3303714FF008004FF0140102F0E1
:1018E000A1FA0146237903F1010303716379A3F19E
:1018F00002034371A3794FEA930303F10603837153
:10190000084B1868224602F023F84FF0000010BD83
:10191000054B23604FF0020010BD044B03604FF0F5
:10192000030010BDBC620000511500003119000019
:1019300010B504460B88022B02D0172B19D113E0E7
:101940004FF006004FF0160102F06CFA01460B4B07
:10195000E31A4FEAE3030371094B1868224601F0CA
:10196000F7FF4FF0000010BD064B03604FF0020080
:1019700010BD054B03604FF0030010BD3C0200207A
:10198000BC620000511500009D4B000030B583B0D3
:1019900004460B880F2B23D0102B3AD0042B50D1A8
:1019A0000379C3B103F1FF3303714FF008004FF027
:1019B000110102F037FA014623790371637943710B
:1019C0004FF004038371254B1868224601F0C0FFD5
:1019D0004FF000003FE0224B03604FF002003AE07E
:1019E000057942798B7908790090497901914FF016
:1019F00004002946FFF748FA002827D0194B186839
:101A00001949224601F0A4FF154B23604FF0020054
:101A100021E0057942798B79087900904979019123
:101A20004FF005002946FFF72FFA90B10F4B1868C9
:101A30000F49224601F08CFF0E4B23604FF002004D
:101A400009E00D4B03604FF0030004E04FF000008D
:101A500001E04FF0000003B030BD00BFBC620000E9
:101A60005115000008670000106500005066000076
:101A700018650000A91800003119000010B50446CF
:101A8000042804D907484FF0380101F061F80648EE
:101A90004FEAC4040319054A5A6000F10400001912
:101AA00010BD00BF20650000380200207D15000039
:101AB00030B585B005460C4600F0BEFA00F0FCFCDF
:101AC000FFF7B0F92846214601F042FB01F020FE65
:101AD0008C4C20464FF028014FF0040202F0F8F938
:101AE00004F128004FF090014FF0080202F0F0F9E5
:101AF00004F1B8004FF0080102F020FA824BDB79C4
:101B000013F0200F67D072B64FF03D0003F094F849
:101B100004F1F80003F0F2FD7C4803F0ABFF03F0A2
:101B200033F962B601F0E2FA774BDB7913F0200F5C
:101B300051D072B64FF03D0003F07EF804F580708E
:101B400003F0DCFD724803F095FF03F01DF962B667
:101B500001F0CCFA6C4BDB7913F0200F3BD072B65E
:101B60004FF03D0003F068F804F5867003F0C6FD01
:101B7000684803F07FFF03F007F962B601F0B6FA98
:101B8000614BDB7913F0200F25D072B64FF03D008A
:101B900003F052F8204603F0B1FD5F4803F06AFFFE
:101BA00003F0F2F862B601F0A1FA574BDB7913F0BB
:101BB000200F10D072B64FF03D0003F03DF804F155
:101BC000280003F09BFD554803F054FF03F0DCF8B8
:101BD00062B601F08BFA4C4BDB7913F0100F62D038
:101BE00072B64FF03C0003F027F84FF0040003F00A
:101BF000CDFC4FF0000003F081FD494803F03AFFAF
:101C000003F0C2F862B601F071FA3F4BDB7913F0D2
:101C1000100F48D072B64FF03C0003F00DF84FF0B3
:101C2000050003F0B3FC4FF0000003F067FD3D48F2
:101C300003F020FF03F0A8F862B601F057FA324B28
:101C4000DB7913F0100F2ED072B64FF03C0002F08B
:101C5000F3FF4FF0060003F099FC4FF0000003F093
:101C60004DFD314803F006FF03F08EF862B601F037
:101C70003DFA254BDB7913F0100F14D072B64FF0FC
:101C80003C0002F0D9FF4FF0070003F07FFC4FF05B
:101C9000000003F033FD254803F0ECFE03F074F878
:101CA00062B601F023FA224B1868164D4FF000047B
:101CB0000094019402944FF0010105F1F8024FF0F5
:101CC000020301F03DFD1B4B18680094019402943F
:101CD0004FF0020105F580724FF0030301F030FD73
:101CE000154B18680094019402944FF0030105F518
:101CF00086724FF00A0301F023FD01F011FD20462A
:101D000005B030BD64020020A80B0020286500004B
:101D10003C6500004C6500006065000070650000D7
:101D20008065000090650000A4650000B4650000B7
:101D30005066000008670000BC6200000B88122B90
:101D400008D10B7903764B794376054B03604FF04E
:101D500002007047034B03604FF00300704700BF61
:101D6000A91F00009D4B000038B504464FF0040148
:101D700001F008FF5C4BDB7913F0200F0FD072B637
:101D80004FF03D0002F058FF584803F0B7FC5848A8
:101D900003F070FE02F0F8FF62B601F0A7F9524BB3
:101DA000DB7913F0400F4ED072B64FF03E0002F0D8
:101DB00043FF504803F0A2FC4F4803F05BFE02F0E3
:101DC000E3FF62B601F092F9474BDB7913F0400F65
:101DD00039D072B64FF03E0002F02EFF474803F0B4
:101DE0008DFC474803F046FE02F0CEFF62B601F0DC
:101DF0007DF93D4BDB7913F0400F24D072B64FF0E4
:101E00003E0002F019FF3F4803F078FC3E4803F023
:101E100031FE02F0B9FF62B601F068F9324BDB79AE
:101E200013F0400F0FD072B64FF03E0002F004FFE7
:101E3000364803F063FC364803F01CFE02F0A4FFB2
:101E400062B601F053F9284BDB7913F0100F46D03E
:101E500072B64FF03C0002F0EFFE4FF0120003F0BC
:101E600095FB224D284603F049FC2A4803F002FE68
:101E700002F08AFF62B601F039F91B4BDB7913F0EF
:101E8000100F2CD072B64FF03C0002F0D5FE4FF090
:101E90000D0003F07BFB284603F030FC1E4803F0E6
:101EA000E9FD02F071FF62B601F020F90E4BDB791B
:101EB00013F0100F13D072B64FF03C0002F0BCFECE
:101EC0004FF0130003F062FB284603F017FC1348A1
:101ED00003F0D0FD02F058FF62B601F007F9074B9E
:101EE00023604FF0020038BDA80B002098030020AB
:101EF000C4650000691D0000D06500003D1D0000A4
:101F0000E4650000A91F0000F4650000211F000027
:101F100004660000186600002C6600003C660000A5
:101F200010B504460B88012B02D0042B31D103E0FD
:101F30004FF00000A07610BD037E2BB3827E0E2AE8
:101F400022D802F10102827603F1FF3303764FF0CB
:101F500008004FF0140101F065FF0146237E03F1F4
:101F600003030371637EA3F104034371A37E4FEA6D
:101F7000930303F106038371084B1868224601F0AE
:101F8000E7FC4FF0000010BD054B23604FF002004E
:101F900010BD044B03604FF0030010BDBC62000095
:101FA0003D1D00009D4B000010B504460B880D2B15
:101FB00024D0132B27D0042B2FD1037E03F1020250
:101FC0005F2A16DC02764FF008004FF0100101F096
:101FD00029FF0146237E0371637E43714FF00203A4
:101FE0008371104B1868224601F0B2FC4FF00000DC
:101FF00010BD0D4B03604FF0020010BD0B4B036092
:102000004FF0020010BD0A4B1868224601F0A0FCF8
:10201000054B23604FF0020010BD064B03604FF0EC
:10202000030010BDBC6200003D1D0000211F000028
:10203000086700009D4B0000014A024B1A60704780
:10204000691D0000980300200B88032B02D0092B88
:102050000CD104E0084B03604FF0020070470B798D
:1020600003764B7943764FF000007047034B0360D3
:102070004FF00300704700BF812000009D4B00001F
:102080000B880C2B04D1054B03604FF00200704706
:10209000034B03604FF00300704700BF9D23000017
:1020A0004920000038B504464FF0040101F06AFDF4
:1020B00020464FF0050101F065FD804BDB7913F000
:1020C000200F0FD072B64FF03D0002F0B5FD7C48F6
:1020D00003F014FB7B4803F0CDFC02F055FE62B622
:1020E00001F004F8754BDB7913F0400F63D072B642
:1020F0004FF03E0002F0A0FD734803F0FFFA734872
:1021000003F0B8FC02F040FE62B600F0EFFF6B4B4C
:10211000DB7913F0400F4ED072B64FF03E0002F064
:102120008BFD6B4803F0EAFA6A4803F0A3FC02F067
:102130002BFE62B600F0DAFF604BDB7913F0400F44
:1021400039D072B64FF03E0002F076FD624803F0DF
:10215000D5FA624803F08EFC02F016FE62B600F07B
:10216000C5FF564BDB7913F0400F24D072B64FF009
:102170003E0002F061FD5A4803F0C0FA594803F0EE
:1021800079FC02F001FE62B600F0B0FF4B4BDB7948
:1021900013F0400F0FD072B64FF03E0002F04CFD2E
:1021A000514803F0ABFA514803F064FC02F0ECFD37
:1021B00062B600F09BFF414BDB7913F0100F78D033
:1021C00072B64FF03C0002F037FD4FF0090003F00B
:1021D000DDF93B4D284603F091FA454803F04AFCEF
:1021E00002F0D2FD62B600F081FF344BDB7913F0D0
:1021F000100F5ED072B64FF03C0002F01DFD4FF0A4
:102200000C0003F0C3F9284603F078FA394803F0CC
:1022100031FC02F0B9FD62B600F068FF274BDB79B4
:1022200013F0100F45D072B64FF03C0002F004FDE1
:102230004FF00D0003F0AAF9284603F05FFA2E488C
:1022400003F018FC02F0A0FD62B600F04FFF1B4B3C
:10225000DB7913F0100F2CD072B64FF03C0002F077
:10226000EBFC4FF00E0003F091F9284603F046FA1C
:10227000224803F0FFFB02F087FD62B600F036FF54
:102280000E4BDB7913F0100F13D072B64FF03C00F9
:1022900002F0D2FC4FF0130003F078F9284603F067
:1022A0002DFA174803F0E6FB02F06EFD62B600F06F
:1022B0001DFF074B23604FF0020038BDA80B002024
:1022C000B403002054660000A52000005C660000F6
:1022D000492000006C660000812000007C66000040
:1022E0009D2300008C660000052300009C66000012
:1022F000AC660000C4660000D4660000E46600001E
:10230000F466000010B504460B88012B02D0042BA4
:1023100038D103E04FF00000A07610BD837E0E2B75
:102320001DD803F1010383764FF008004FF014012C
:1023300001F078FD0146A37E4FEA930303F1060303
:102340008371237E0371637E03F1FF334371104B6E
:102350001868224601F0FCFA4FF0000010BD4FF063
:1023600006004FF0070101F05DFD0146A38B83805D
:10237000074B1868224601F0EBFA064B23604FF03A
:10238000020010BD044B03604FF0030010BD00BFFE
:10239000BC620000812000004920000038B50446DE
:1023A0000B8803F1FF33122B74D8DFE803F00A73B4
:1023B000731D52737373737373736E6E737373736E
:1023C00067004FF0000585834FF006004FF01801BD
:1023D00001F028FD0146A38B8380324B186822460A
:1023E00001F0B6FA284638BD4FF008004FF00F0153
:1023F00001F018FD0146237E0371637E43714FF0A7
:1024000001038371274B1D682846224601F0A0FA7C
:10241000A38B03F101039BB2A383234AA2FB031204
:102420004FEAD20202EB8202A3EB42039BB2002BE3
:1024300035D14FF006004FF0180101F0F3FC0146D2
:10244000A28B82802846224601F082FA4FF00000DB
:1024500038BD4FF006004FF0120101F0E3FC0146D9
:10246000237E0371637E03F1020343710F4B1868EF
:10247000224601F06DFA4FF0000038BD8A88838B48
:10248000D31883834FF0000038BD094B03604FF031
:10249000020038BD074B03604FF0030038BD4FF01A
:1024A000000038BDBC620000CDCCCCCC5066000032
:1024B0000523000049200000044B054A1A604FF034
:1024C0000A021A764FF008025A767047B4030020C9
:1024D000A5200000044B4FF07A021A6098604FF07C
:1024E00003025A60704700BF000002400138FDD16E
:1024F0007047704710B50446064A5369002BFCD05C
:10250000054B1868FFF7F2FF024B9C604FF0010289
:102510005A6010BD00000240D403002038B50546C3
:102520000A4A5369002BFCD0094B1C682046FFF770
:10253000DDFF064B9D604FF005025A601A46536955
:10254000002BFCD02046FFF7D1FF38BD0000024031
:10255000D40300202DE9F04191B105464618094CFD
:10256000094F4FF001086369002BFCD03868FFF772
:10257000BDFF15F8013BA360C4F80480B542F2D159
:10258000BDE8F08100000240D403002070B54FF098
:102590008000FFF79FFF1B4B1E79002E1A4B03F1A3
:1025A000080018BF18464FF00601FFF7D3FF4FF0A1
:1025B0005F044FF000052846FFF79CFF013CFAD16D
:1025C0004FF00000FFF7AAFF4FF08000FFF782FFF7
:1025D000002E0E4B03F1080018BF18464FF00601FD
:1025E000FFF7B8FF4FF0000425462846FFF782FFAB
:1025F00004F101045F2CF8D14FF00000FFF78EFFCB
:1026000070BD00BFD40300200C6700001C670000F1
:102610002DE9F84306460C4615464FF08000FFF7BB
:1026200059FF002D14BFB120B020FFF763FF4FF01A
:102630008000FFF75FFF2F4B5D79281900F00F0036
:10264000FFF758FF4FF08000FFF754FF6519C5F3FF
:10265000031040F01000FFF74DFF4FF04000FFF770
:1026600049FF3378002B3AD1BDE8F88304F1060422
:102670005A2C1CD803EB8303A3F1A0003818414661
:10268000FFF768FF5A2C03D02E4615F8013B2BB9F3
:102690004FF00000FFF742FFBDE8F8834846FFF720
:1026A00029FF15F8013C002BE0D1BDE8F883C4F107
:1026B0005F05114C03EB8303E018A0F1800029466D
:1026C000FFF748FF3378A3F1200303EB8303E418FB
:1026D000651995F82000FFF721FFBDE8F8835A2C13
:1026E000E5D806F10105054F4FF005084FF0000948
:1026F000C0E700BFD40300200C6700002C67000077
:102700002DE9F84F054614461F460A9B1C4A92F8CD
:1027100005A08A448BB3CAF3031848F0100803EBF2
:1027200004094FF080060AF00F0A07F1FF3B30461C
:10273000FFF7D0FE002C14BFB120B020FFF7DAFE67
:102740003046FFF7D7FE5046FFF7D4FE3046FFF77E
:10275000D1FE4046FFF7CEFE4FF04000FFF7CAFE25
:1027600028465946FFF7F6FEED1915F8010CFFF75C
:10277000D5FE04F101044C45D9D1BDE8F88F00BF66
:10278000D40300202DE9F8430446664BD3F8042116
:1027900042F48052C3F80421D3F8082142F0020227
:1027A000C3F808215B68C3F30033DEB25E4A1371DD
:1027B000002E00F09C804FF004025B4B5A71594B85
:1027C000D3F8082142F00802C3F808214FF00100B5
:1027D000FFF78CFE554BD3F8002442F08002C3F87B
:1027E00000244FF08002C3F80022514BD3F800249C
:1027F00022F00C02C3F80024D3F8202442F00C028B
:10280000C3F82024D3F8002542F00C02C3F80025B9
:10281000D3F8182522F00C02C3F81825D3F80C259C
:1028200042F00C02C3F80C25D3F8102542F00C023C
:10283000C3F81025D3F81C2542F00C02C3F81C2560
:10284000D3F8282522F00C02C3F8282503F5D83345
:102850001A6A42F010021A62364B374A002C0CBF3B
:1028600014461C4604EB84044FEA8404334B1B6873
:1028700003F1FF331B19B3FBF4F404F1FF34304BC5
:10288000DC60DB6803F1010303EB03134FEA83030E
:10289000254A13604FF00004DFF8A88008F513778D
:1028A000B9461AE046B308F5FE7563195878FFF784
:1028B00011FE04F10200615D2818A1F10201FFF789
:1028C00049FE635D08EB0402D31893F8FC01FFF79F
:1028D00025FE2B5D03F10103E418002E0CBF7123CC
:1028E0004D239C42DED3FFF751FEBDE8F8834FF045
:1028F00024020D4B5A7178E7E3195878FFF7EAFD87
:1029000004F10200E15D3818A1F10201FFF722FE97
:10291000E35D08EB0402D31893F84C02FFF7FEFDC9
:102920004D46D6E700E00F40D40300200070004081
:1029300000500040801A0600A0860100FC0900201B
:10294000000002400C6700002DE9F0414FF0000448
:102950001E4F07F51376B04619E013B307F5FE7561
:1029600063195878FFF7B6FD04F10200615D28187D
:10297000A1F10201FFF7EEFD635D3A19D31893F858
:10298000FC01FFF7CBFD2B5D03F10103E418104BB5
:102990001B79002B0CBF71224D229442DDD3BDE880
:1029A000F081A3195878FFF795FD04F10200A15DAD
:1029B0003018A1F10201FFF7CDFDA35D3A19D3183C
:1029C00093F84C02FFF7AAFD4546DCE70C670000D0
:1029D000D403002008B54FF08000FFF77BFD4FF0D7
:1029E000AE00FFF787FD4FF08000FFF783FD4FF04B
:1029F000AD00FFF77FFD4FF08000FFF77BFD4FF04C
:102A00008A00FFF78BFD08BD00B583B00B464FEA87
:102A1000D20200924FF000010A46FFF771FE03B0A8
:102A200000BD00BF10B504460B46104621461A46AD
:102A3000FFF7EEFD10BD00BF704700BF08B5FFF700
:102A400083FF08BD08B5FFF7C5FF08BD1F4B1A6817
:102A50001F4BA3FB02134FEA1313B3F1807F10D275
:102A600023F07F4303F1FF331A4A53604FF0E00134
:102A7000194B83F823104FF0000393604FF00703C6
:102A800013604FF04002144B83F82320A3F54063FA
:102A90004FF0200283F811234FF0000283F8002347
:102AA0004FF400321A604FF001021A600B4B4FF0E6
:102AB0000802DA609A6842F008029A60A3F5E043DF
:102AC000DA6842F00112DA60704700BFFC090020AA
:102AD0008988888810E000E000ED00E00080034075
:102AE000704700BF00B583B072B6174B4FF020029D
:102AF000C3F880204FF00002C3F8802062B603F5CF
:102B0000C0439B6913F0800F1BD002A84FF0100345
:102B100020F8023D72B602F0F9FF62B6BDF8063049
:102B200003F1FF32ADF806205BB1084910F8013B14
:102B30000B60BDF8063003F1FF32ADF80620002B24
:102B4000F4D103B000BD00BF0060004000C00040F1
:102B500072B6FEE708B5FFF7FBFF08BD10B5774C6E
:102B600020464FF4C06102F025F8754BD3F80421DC
:102B700042F00102C3F80421D3F8082142F0010217
:102B8000C3F8082100BF00BF00BF4FF04023D3F8B7
:102B9000002422F00302C3F80024D3F8202442F0DA
:102BA0000302C3F82024D3F8002542F00302C3F83F
:102BB0000025D3F8182522F00302C3F81825D3F80E
:102BC0000C2522F00302C3F80C25D3F8102522F0BF
:102BD0000302C3F81025D3F8142522F00302C3F82A
:102BE0001425D3F81C2542F00302C3F81C25554BCD
:102BF00019684FEAC102544BA3FB02024FEA12428A
:102C000002F101024FEAD210504B5862C2F3450262
:102C10009A624FF06002DA62DA6A42F01002DA6217
:102C20001A6B42F4407242F001021A63484BA3FB54
:102C300001234FEA1313C4F80036C4F804364FF0EA
:102C4000FF0001F0BDFF4FF00A0001F0D7FF4FF089
:102C50000B0001F0D3FF4FF00C0001F0CFFF4FF05D
:102C60000D0001F0CBFF4FF00E0001F0C7FF4FF059
:102C70000F0001F0C3FF4FF0100001F0BFFF4FF055
:102C8000110001F0BBFF4FF0120001F0B7FF4FF051
:102C9000130001F0B3FF4FF0140001F0AFFF4FF04D
:102CA000150001F0ABFF4FF0160001F0A7FF4FF049
:102CB000170001F0A3FF4FF0180001F09FFF4FF045
:102CC000190001F09BFF4FF01A0001F097FF4FF041
:102CD0001C0001F093FF4FF01D0001F08FFF4FF03B
:102CE0001E0001F08BFF4FF0200001F087FF4FF036
:102CF000210001F083FF4FF0220001F07FFF4FF031
:102D0000230001F07BFF4FF0240001F077FF4FF02C
:102D1000250001F073FF4FF0270001F06FFF4FF027
:102D2000280001F06BFF4FF0290001F067FF4FF022
:102D30002A0001F063FF4FF0010010BDDC0300200A
:102D400000E00F40FC090020C5B3A29100C0004084
:102D500089888888704700BF0A4B1B6813F4807FFE
:102D600006D1084B9B68084AD2F80406C01A70477F
:102D7000044B9A68044BD3F80006D3F80436C01805
:102D8000801A704710E000E0DC030020684620F065
:102D900007018D4619B572B6284B1A7802F1010267
:102DA000D2B21A70264B5B7913F0020F11D04FF09C
:102DB000290001F041FFFFF7CFFF02F09FFC1F4BFE
:102DC000187802F083FB1F4B187802F07FFB01F0AC
:102DD000DBFF62B61C4B1C684FF004004FF008018B
:102DE00001F020F801462046184A00F0B1FD72B605
:102DF000134B5B7913F0040F11D04FF02A0001F050
:102E00001BFFFFF7A9FF02F079FC0C4B187802F0CA
:102E10005DFB0C4B187802F059FB01F0B5FF074B36
:102E20001A7802F1FF32D2B21A704FF08052084B7A
:102E30001A6062B6BDE8194085467047090A00204D
:102E4000A80B002000000020BC620000E409002064
:102E500004ED00E0684620F007018D4631B572B6FA
:102E6000614B1A7802F10102D2B21A705F4B5B79A2
:102E700013F0020F11D04FF0290001F0DDFEFFF733
:102E80006BFF02F03BFC584B187802F01FFB584BCD
:102E9000187802F01BFB01F077FF62B6554B4FF03C
:102EA0000802DA60D3F8AC3013F4807F04D05248C3
:102EB0004FF06501FFF74CFE4E4BD3F8A8404F4B47
:102EC000D3F80C2604F10404A41A02EBE404C3F8BA
:102ED0000C46A4EBC4044FEA440404F560544FEAE2
:102EE0009424D3F810369C4215D04FF006004FF0D2
:102EF000090100F097FF01464FF00A030371447186
:102F00003E4D3F4B186805F5C26202F1040200F025
:102F10001FFDC5F810463B4B1A6C384B93F815361D
:102F2000032B39D8DFE803F0020D1823334BD3F815
:102F300018369A4230D04FF00102304B83F81526F4
:102F40002AE02E4BD3F818369A4214BF02220022F0
:102F50002A4B83F815261FE0284BD3F818369A42DF
:102F600014BF03220022254B83F8152614E0234BBF
:102F7000D3F818369A420AD0204BC3F8182632B933
:102F8000214803F5C26101F1040100F0DDFF4FF0BB
:102F900000021A4B83F8152672B6144B5B7913F0B6
:102FA000040F11D04FF02A0001F046FEFFF7D4FEC7
:102FB00002F0A4FB0C4B187802F088FA0C4B18783E
:102FC00002F084FA01F0E0FE074B1A7802F1FF32BA
:102FD000D2B21A704FF080520C4B1A6062B6BDE844
:102FE00031408546704700BF090A0020A80B002029
:102FF0000000002000800340CC690000DC030020BA
:103000000867000000600040D469000004ED00E0A3
:10301000684620F007018D4619B572B62C4B1A7818
:1030200002F10102D2B21A702A4B5B7913F0020F3F
:1030300011D04FF0290001F0FFFDFFF78DFE02F0E7
:103040005DFB234B187802F041FA234B187802F00D
:103050003DFA01F099FE62B6204B1B68204CD4F873
:103060000026D4F80436D318C4F8043604F5C26434
:1030700004F10C04204600F0E1FF1A48214600F05C
:1030800063FF72B6134B5B7913F0040F11D04FF04E
:103090002A0001F0D1FDFFF75FFE02F02FFB0C4B81
:1030A000187802F013FA0C4B187802F00FFA01F0BE
:1030B0006BFE074B1A7802F1FF32D2B21A704FF052
:1030C0008052094B1A6062B6BDE8194085467047C8
:1030D000090A0020A80B00200000002010E000E0FA
:1030E000DC030020D869000004ED00E030B583B0B7
:1030F00002AD4FF0100325F8023D72B6134C1BE0F1
:1031000062B6A26912F0800FFBD0BDF8062002F172
:10311000FF31ADF8061052B113F8012B2260BDF853
:10312000062002F1FF31ADF80610002AF4D14FF06D
:103130001003ADF8063072B6284602F0E7FC0346ED
:103140000028DDD162B603B030BD00BF00C0004032
:1031500010B500F06DF95C4BD3F8002142F48032D9
:10316000C3F80021D3F8042142F44032C3F804210B
:10317000D3F8082142F00502C3F8082100BF00BFC0
:1031800000BF524B5A6922F4704242F4A0425A6185
:103190001A6A22F470421A62D3F8A02022F06F0259
:1031A00042F06002C3F8A020D3F8A42022F00F025E
:1031B00042F00602C3F8A4201A6842F008021A601E
:1031C000A3F5E043DA6822F00112DA604FF0000460
:1031D0001C604FF002025A603D4A11683D4AA2FB52
:1031E00001024FEA92129A62DA6842F00202DA6051
:1031F000DA6842F02002DA60374BD3F8002442F05C
:103200002002C3F80024D3F81C2542F02002C3F8A2
:103210001C25C3F88040D3F8002422F01002C3F824
:103220000024D3F81C2542F01002C3F81C254FF0EF
:103230000100FFF7A7FA2046FFF790FC20B92748C6
:103240004FF0D901FFF784FC254BDB7913F0200FF9
:1032500039D072B64FF03D0001F0EEFC214802F08B
:103260004DFA214802F006FC01F08EFD62B6FFF730
:103270003DFF1B4BDB7913F0200F24D072B64FF0CB
:103280003D0001F0D9FC194802F038FA184802F064
:10329000F1FB01F079FD62B6FFF728FF104BDB79F7
:1032A00013F0200F0FD072B64FF03D0001F0C4FCB8
:1032B000104802F023FA104802F0DCFB01F064FD34
:1032C00062B6FFF713FF10BD00E00F40008003401F
:1032D000FC0900208988888800600040CC690000D3
:1032E000A80B0020F8090020DC690000F00900208C
:1032F000F0690000E4090020086A0000684620F038
:1033000007018D4601B5034840F20711FFF722FC83
:10331000FEE700BF346D0000684620F007018D46CF
:1033200001B5134B134A9A4208D2134A114B104865
:1033300052F8041B43F8041B8342F9D30F4B104A85
:103340009A4207D213464FF000010C4A43F8041B7F
:103350009342FBD302F082FDFEF7AAFB09484FF42B
:103360008171FFF7F7FBBDE801408546704700BF5C
:1033700004000020000000204C6D0000F00B002035
:1033800004000020346D0000704700BFEFF3098097
:10339000704700BF80F30988704700BFEFF30880D3
:1033A000704700BF80F30888704700BFEFF31280BA
:1033B000704700BF80F31188704700BFEFF31080A3
:1033C000704700BF80F31088704700BFEFF3138091
:1033D000704700BF80F31388704700BF00BA704782
:1033E00040BA7047C0BA704790FAA0F0704700BF6B
:1033F000D0E84F0FC0B27047D0E85F0F80B270477F
:1034000050E8000F704700BFC1E8400F704700BF91
:10341000C1E8500F704700BF41E80000704700BF8F
:10342000EFF31480704700BF80F31488704700BF2B
:1034300030B482B09A4B9B4A1A6702F5602202F5BB
:10344000965202F101021A6602F17D42A2F5805203
:10345000A2F10F021A66944A1A674FF00003019313
:10346000019BB3F57A7F09D240F2E73200BF019B9E
:1034700003F101030193019B9342F7D9884B8B4AD7
:103480001A66894A1A674FF000030193019BB3F54E
:103490007A7F09D240F2E73200BF019B03F10103BA
:1034A0000193019B9342F7D97D4B814A1A661B6DAC
:1034B00013F0400F05D17A4A00BF136D13F0400F8F
:1034C000FAD0774B7B4A1A66774A1A674FF00003A7
:1034D0000193019BB3F57A7F09D240F2E73200BF36
:1034E000019B03F101030193019B9342F7D96C4BBC
:1034F000196E1A6F002AB4BF02F0700301F0300396
:10350000202B40D004D86BB1102B40F0F8800FE096
:10351000602B66D0702B61D0302B40F0F08047F2EA
:10352000305370E0C1F38410634B53F820306AE0ED
:103530005B4B1B6813F0E04F56D0594B18685F4B3C
:1035400000EA0303B3F1805F50D0554B18685B4B22
:1035500000EA03035A48834204D1514B1B689BB2D3
:10356000022B45D04E4B1868544B00EA03035548D4
:1035700083423FD14A4B1C68A4B25348534B002CA2
:1035800018BF03463FE0464B1B6813F0E04F33D0B3
:10359000434B1868494B00EA0303B3F1805F2DD019
:1035A0003F4B1868454B00EA03034548834204D16A
:1035B0003B4B1B689BB2022B22D0394B18683F4B08
:1035C00000EA03033F4883421CD1354B1C68A4B278
:1035D0003F48404B002C18BF034614E04FF4004313
:1035E00011E04FF480030EE03B4B0CE03A4B0AE055
:1035F000364B08E0344B06E0384B04E0374B02E032
:10360000344B00E0324B002A03DA12F4006F03D08F
:1036100031E011F4006F2ED1214C606E246814F05B
:10362000E04F07D01E4C2568244C05EA0404B4F191
:10363000805F0CD1C0F3481404F1020404FB03F3CF
:1036400000F01F0404F10204B3FBF4F30BE0C0F339
:10365000481404FB03F300F01F0404F101044FEAD3
:103660004404B3FBF4F310F4804F18BF5B0810F46C
:10367000004F18BF9B0811F4800F3ED0002A36DAA5
:1036800012F0804F2CD012F4006F29D14FEA43037F
:10369000C2F3865202F10102B3FBF2F32DE000BF48
:1036A00000E00F401028800710288000C20A8E0416
:1036B000C20ACE04C202CE04206A00000000FF70DD
:1036C00000000110000003100024F400001BB700EC
:1036D00000093D00C0C62D00C0E1E400703839008B
:1036E000C2F3C55202F10102B3FBF2F305E0C1F3EC
:1036F000C35101F10101B3FBF1F3024A136002B0BF
:1037000030BC7047FC090020004870477C6A00000C
:1037100008B502F0B7FC08BD08B5FFF7E1F908BD30
:1037200008B572B64FF00002044B1A7000F038F87A
:1037300062B6FFF78BF9FFF7D5F9FCE70000002030
:10374000F8B504460D4616461F4601F1FF33DBB2BD
:103750003E2B04D90F484FF06001FFF7F9F904F14F
:1037600004003146FAB200F05DFA2575204600F0FB
:1037700087FA069B0BB9079B23B106484FF06A01F5
:10378000FFF7E6F92046089900F0B0FEFFF7AEFC1F
:10379000F8BD00BF846A000008B500F0ABFA08BDB0
:1037A0002DE9F0473A4B1B7823B13A484FF03001EE
:1037B000FFF7CEF9384B1B78002B64D036490B78D5
:1037C000364AD35C03F1FF33DBB2C9184978545C45
:1037D00004EBC30404F0FF04314B1B789C4254D922
:1037E000304B1B789C4250D92D4B93F800A05FFAC8
:1037F0008AF92D4E1F46DFF8B88056F824503C70E9
:1038000098F8063013F0100F14D0284B1B680BB13A
:103810009D420FD14FF0340001F00EFAFFF79CFAF1
:1038200001F06CFF204601F051FE484601F04EFECB
:1038300001F0AAFA62B6284600F004F904462846C8
:10384000214600F005FF204600F090FA72B6124BB8
:103850001B789BB1104A1178104B5C5C04F1FF346B
:10386000E4B2121952789B5C03EBC40404F0FF0429
:10387000A14503D20B4B1B789C42BED8084B83F862
:1038800000A0BDE8F087064B1B78BDE8F08700BFBD
:10389000090A0020886A0000000A0020C46A0000AB
:1038A000000000200C0A0020100A0020D80B002085
:1038B000A80B002010B572B60F4B1C781B78834202
:1038C0003CBF0D4B18700D4B9B7913F0040F10D0BB
:1038D0004FF0320001F0B0F9FFF73EFA01F00EFFB1
:1038E000204601F0F3FD044B187801F0EFFD01F0E4
:1038F0004BFA62B6204610BD0C0A0020A80B00202F
:1039000010B5044672B6104B9B7913F0080F10D017
:103910004FF0330001F090F9FFF71EFA01F0EEFED0
:10392000204601F0D3FD094B187801F0CFFD01F0DE
:103930002BFA064B1B789C4203D2044B1C70FFF7FA
:103940002FFF62B610BD00BFA80B00200C0A00209C
:1039500070B504460D46164672B6334B5B7813F0CD
:10396000400F23D0314B1B680BB183421ED14FF067
:103970000E0001F061F9FFF7EFF901F0BFFE3046EC
:1039800001F0BCFE288801F001FE204601F0B6FEE1
:10399000A87801F09BFDE87801F098FDE07B01F04C
:1039A00095FD207C01F092FD01F0EEF9AB781BB1A2
:1039B000EB7803F10103EB706368BBB965601C4BE6
:1039C0001D78227D1B49885C1B490C18647845EAE8
:1039D00004041C701B1858788A5C40EA02025A7072
:1039E000164B1B78F3B9FFF7DBFE1BE0E37B23B933
:1039F00013484FF04901FFF7ABF8627BA36843F827
:103A00002250637B0BB9237B6373637B03F1FF332A
:103A10006373E37B03F1FF33DBB2E373227C9A42EF
:103A200088BF237462B670BDA80B0020D80B00209D
:103A3000000A0020686C0000E06B0000090A00200A
:103A4000946A000070B5044672B6436823B93B48D7
:103A50004FF03001FFF77CF86568E37B227B9342EF
:103A600031D0A17BA06850F82100606001B9A27339
:103A7000A27B02F1FF32A27303F10103E373304B27
:103A80009B7813F0010F55D02E4B1B680BB19C4255
:103A900050D14FF0100001F0CFF8FFF75DF901F0C1
:103AA0002DFE288801F072FD204601F027FEA8783F
:103AB00001F00CFDE87801F009FDE07B01F006FD66
:103AC00001F062F936E04FF000036360227D1E4B87
:103AD000995C1E4B5B1858781D4EB25C00EA0202DE
:103AE0005A705B7833B9194B187871184A7800EA24
:103AF00002021A70124B9B7813F0020F1AD0114B6E
:103B00001B680BB19C4215D14FF0110001F094F8E5
:103B1000FFF722F901F0F2FD288801F037FD204679
:103B200001F0ECFDA87801F0D1FCE87801F0CEFCC2
:103B300001F02AF962B6284670BD00BF9C6A0000F9
:103B4000A80B0020D80B0020686C0000000A0020A1
:103B5000246C000010B504463F2803D8074B53F8E7
:103B6000203023B906484FF05C01FEF7F1FF72B632
:103B700062B6024B53F82430187C10BD100A0020A6
:103B80009C6A0000F8B507460C46057D1D4B5E5D3E
:103B900003290BD91C4B1B888B4207D935B13F2D0C
:103BA00004D81A4B53F82530834204D018484FF0FC
:103BB0003001FEF7CDFF72B6164B5B7813F0100F95
:103BC00014D0154B1B680BB19F420FD14FF00C0066
:103BD00001F032F8FFF7C0F801F090FD204601F047
:103BE000D5FC384601F08AFD01F0CEF80B4B1B687E
:103BF00003EBC404A25D0A4B5B5D42EA0303A355D9
:103C000062B6F8BD686C0000940B0020100A00201A
:103C1000A46A0000A80B0020D80B0020900B002005
:103C2000E06B000038B50D4614464FF0000303600A
:103C30004160027243728372C27202730C4B9B78B2
:103C400013F0040F12D00B4B1B680BB198420DD12F
:103C500072B64FF0120000F0EFFF284601F04EFD63
:103C6000204601F033FC01F08FF862B638BD00BF8A
:103C7000A80B0020E00B002000487047AC6A000051
:103C800038B50546047D04F1FF33DBB23E2B03D883
:103C9000144B53F8243023B113484FF04001FEF782
:103CA00057FF72B60F4B43F82450104B5B7813F05C
:103CB000040F14D00E4B1B680BB19D420FD14FF077
:103CC0000A0000F0B9FFFFF747F801F017FD28469A
:103CD00001F014FD204601F0F9FB01F055F862B641
:103CE00038BD00BF100A0020B46A0000A80B0020F5
:103CF000D80B002038B50546047D04F1FF33DBB254
:103D00003E2B04D8154B53F82430834204D014487A
:103D10004FF05401FEF71CFF72B64FF000020F4B3C
:103D200043F824200F4B5B7813F0080F14D00E4B90
:103D30001B680BB19D420FD14FF00B0000F07CFFD0
:103D4000FFF70AF801F0DAFC284601F0D7FC20461C
:103D500001F0BCFB01F018F862B638BD100A002073
:103D6000B46A0000A80B0020D80B002038B5044628
:103D70008578002D4DD072B6C378012B1CD903F184
:103D8000FF33C370234BDB7813F0200F12D04FF0BA
:103D90001D0000F051FFFEF7DFFF01F0AFFC2088AF
:103DA00001F0F4FBA07801F091FBE07801F08EFBCC
:103DB00000F0EAFF62B638BD05F1FF35EDB2154BF4
:103DC000DB7813F0400F12D04FF01E0000F034FFEC
:103DD000FEF7C2FF01F092FC208801F0D7FBA0782B
:103DE00001F074FBE07801F071FB00F0CDFF62B6EA
:103DF000094B1B78AB4204D808484FF04601FEF748
:103E0000A7FE05EB8505064B03EB8500214600F078
:103E100069FA38BDA80B0020140B0020BC6A000012
:103E2000180B00202DE9F843054689464FF00004A1
:103E3000234E244FDFF894800AE004F10104E4B239
:103E40003B78A34204D840464FF03001FEF780FE95
:103E500004EB840306EB83039B89AB42EDD31A4B3F
:103E6000DB7813F0100F11D072B64FF01C0000F089
:103E7000E3FEFEF771FF01F041FC284601F086FBEE
:103E8000484601F083FB00F07FFF62B604EB84003C
:103E90000B4B03EB800000F05BF9054620B90B48A3
:103EA0004FF03A01FEF754FEA5F8009004F101042A
:103EB000AC704FF00003EB702846BDE8F88300BFFC
:103EC000180B0020140B0020A80B0020C46B00006E
:103ED000F8B506460F461546164B1B78052B04D938
:103EE00015484FF02E01FEF733FE124B1B7873B1CD
:103EF00003F1FF3303EB83030E4A02EB83031B8AB8
:103F0000AB4204D30C484FF03101FEF721FE094CBF
:103F100004F10402237803EB830302EB83003146B0
:103F20003A462B4600F068F9237803F10103237029
:103F3000F8BD00BF140B0020CC6B0000014B1860D3
:103F400099807047900B00202DE9F04F83B0074611
:103F500089460288324B1B889A4204D331484FF07D
:103F60003101FEF7F5FD72B62F4BDB7813F0040F2D
:103F700015D04FF01A0000F05FFEFEF7EDFE01F0E5
:103F8000BDFB484601F0BAFB388801F0FFFAB8786B
:103F900001F09CFAF87801F099FA00F0F5FEBB7890
:103FA0001BB1FB7803F10103FB7062B64FF008010F
:103FB0000191DFF880A0DFF880B01C4E019A02F179
:103FC000FF33DBB201933A8819490B6803EBC20354
:103FD000019A9C5CD4B14FEAC2085FFA88F81AF8DB
:103FE00004501BF805301C404544EDB256F825300E
:103FF00023B90C484FF05901FEF7AAFD56F82500E9
:1040000039464A46FFF7A4FC002CE8D1019B002B5F
:10401000D4D13846FFF7AAFE03B0BDE8F08F00BF49
:10402000940B0020D46B0000A80B0020100A002085
:10403000900B0020C46A0000246C00002DE9F041C0
:10404000074672B63D4B93F90330002B0EDA4FF062
:104050001F0000F0F1FD3A4B1A6802F101021A60EC
:10406000186880B201F092FA00F08EFE354B1C68A1
:10407000002C5FD0314DDFF8D4801E46238A03F137
:10408000FF339BB22382002B4BD1638A0BB1238277
:1040900024E033689C4202D1A368336006E0A36841
:1040A0000BB162685A606368A2689A604FF00003BF
:1040B00063602B7913F0020F10D0D8F800300BB1E9
:1040C0009C420BD14FF0210000F0B6FD204601F0DC
:1040D00015FBE06801F012FB00F056FE2B7913F09F
:1040E000200F17D0D8F800300BB19C4212D14FF0FE
:1040F000250000F0A1FDFEF72FFE01F0FFFA20469B
:1041000001F0FCFA208801F041FAE06801F0F6FACB
:1041100000F03AFE62B6E06821463A46FFF718FC26
:1041200004E062B64FF00002074B1A7072B6A46842
:10413000002CA3D162B6BDE8F08100BFA80B00201F
:10414000EC0B00209C0B0020980B0020E40B0020BF
:1041500038B5044672B6056855B12B680360038A0A
:1041600003F1FF339BB20382428A9A4288BF4382A3
:10417000104BDB7813F0010F18D00F4B1B6813B1F5
:104180006268934212D14FF0180000F055FDFEF71F
:10419000E3FD01F0B3FA606801F0B0FA208A01F0A3
:1041A000F5F9608A01F0F2F900F0EEFD62B62846FA
:1041B00038BD00BFA80B0020DC0B002010B5044662
:1041C00018B10A4B1B78834204D209484FF04501CD
:1041D000FEF7BEFC72B662B604F1FF3404EB840451
:1041E000044B03EB8404608A10BD00BF140B002055
:1041F000AC6C0000180B00202DE9F0410446174676
:104200001E46884631B1032A04D903F104039BB248
:104210009E4204D330484FF03601FEF799FCC4F8B3
:1042200000804FF00403A381042E0CD94FF0040347
:104230004FF0010503F104039BB205F101059E4215
:10424000F8D8A38103E04FF004034FF001051E46A8
:104250009F4204D220484FF04401FEF779FCBF1B77
:104260004FF00103E3812268BE4210D84FEA850572
:10427000C6F10001BF1B00E01A4653191360E28922
:1042800002F10102E2817F18F742F5D300E0134604
:104290004FF000021A60E28922826282C4F8048030
:1042A000A3600E4B93F90230002B12DA0C4B1B6803
:1042B0000BB198450DD172B64FF0170000F0BCFC61
:1042C000606801F01BFAE08901F060F900F05CFD24
:1042D00062B6BDE8F08100BFB46C0000A80B0020FE
:1042E000DC0B002038B504460D4643688B4206D8E7
:1042F0008368994203D8028AC3899A4204D915482F
:104300004FF02D01FEF724FC72B623682B60256068
:10431000238A03F1010323820F4BDB7813F0020F92
:1043200015D00E4B1B6813B1626893420FD14FF04A
:10433000190000F081FCFEF70FFD01F0DFF9606865
:1043400001F0DCF9208A01F021F900F01DFD62B6D0
:1043500038BD00BFC06C0000A80B0020DC0B0020A3
:1043600038B504460D46032904D807484FF0290103
:10437000FEF7EEFB4FF000036360A360E36023826F
:1043800063822580A37038BDC86C000070B50446F8
:104390000D4616462AB10388032B02D9436803B998
:1043A00021B919484FF03001FEF7D2FB2682646034
:1043B000E56072B6154B1B7913F0010F1AD0144B40
:1043C0001B680BB19C4215D14FF0200000F034FC6B
:1043D000FEF7C2FC01F092F9204601F08FF9284661
:1043E00001F08CF9304601F0D1F8608A01F0CEF886
:1043F00000F0CAFC074B1B68A36003B15C60054B6F
:104400001C6062B670BD00BFD46C0000A80B002019
:10441000E40B00209C0B002010B5044672B64368E4
:10442000002B33D02E4A1268904203D182682C4B65
:104430001A6005E0826802B153606368A2689A60FE
:104440004FF000036360274B1B7913F0080F3AD03D
:10445000254B1B680BB19C4238D14FF0230000F074
:10446000EBFBFEF779FC01F049F9204601F046F933
:10447000E06801F043F9208A01F088F8608A01F0D1
:1044800085F800F081FC4FF0010027E0154B1B7907
:1044900013F0040F1DD0144B1B680BB198421BD1B5
:1044A0004FF0220000F0C8FBFEF756FC01F026F9A1
:1044B000204601F023F9E06801F020F900F064FCE7
:1044C0004FF000000AE04FF0010007E04FF001005C
:1044D00004E04FF0000001E04FF0000062B610BDB4
:1044E0009C0B0020A80B0020E40B00202DE9F047D6
:1044F00086B0054603689847022804D04E484FF01E
:104500002D01FEF725FB4D4EDFF83C91DFF83CA175
:104510004B4F07F1040899F8003013F0080F15D03D
:10452000DAF800300BB19D4210D172B64FF00300A3
:1045300000F082FB284601F0E1F8304601F0DEF899
:10454000286801F0DBF800F01FFC62B62C680094CC
:1045500028463946A0472B68B34266D04FF0000486
:1045600004F10104E4B262B206A901EB820242F84E
:10457000183C2846394698472B68B342F0D1009B37
:104580002B6063B2052B04DD2B484FF04401FEF78E
:10459000DFFA63B206AA02EB830353F8186C2846CD
:1045A0004146B047B8B999F8003013F0020F12D065
:1045B000DAF800300BB19D420DD172B64FF0010018
:1045C00000F03AFB284601F099F8304601F096F8E1
:1045D00000F0DAFB62B604F1FF34E4B214F0800FAD
:1045E000D7D0009E28461749B047022893D02E60A6
:1045F000154B1B7813F0100F1BD0144B1B680BB11D
:104600009D4216D172B64FF0040000F015FBFEF784
:10461000A3FB01F073F8284601F070F8286801F058
:104620006DF800F0B1FB62B603E02C604FF00004BF
:10463000AFE706B0BDE8F087DC6C00009D4B0000E2
:10464000FC6C0000086D0000A80B0020D40B0020BB
:104650002DE9F04F87B005468B460668944B5B7892
:1046600013F0010F1AD0934B1B680BB1984215D170
:1046700072B64FF0080000F0DFFAFEF76DFB01F0B4
:104680003DF8BBF8000000F081FF284601F036F845
:10469000304601F033F800F077FB62B6D5F80090B1
:1046A00028465946C8470328F8D0022840F014820B
:1046B0002B68009301964E4524D07F4C7C4FA4F18B
:1046C000080828462146B047C8B93B7813F0040FC4
:1046D00012D0784B1B680BB19D420DD172B64FF0D2
:1046E000020000F0A9FA284601F008F8304601F06F
:1046F00005F800F049FB62B628464146B0472E68EF
:10470000B145DED1009CA14520D128466A49C84761
:10471000002840F03782664B1B7813F0040F00F03E
:104720003182644B1B6813B19D4240F02B8272B6FC
:104730004FF0020000F080FA284600F0DFFF484604
:1047400000F0DCFF00F020FB62B61BE228465B496C
:10475000A0472E68B14500F0158228465749C84742
:104760002F68B74220D128465349C847002840F057
:1047700009824F4B1B7813F0040F00F003824D4B5E
:104780001B6813B19D4240F0FD8172B64FF00200EC
:1047900000F052FA284600F0B1FF484600F0AEFFA4
:1047A00000F0F2FA62B6EDE1BC4225D1284642495A
:1047B000C847002840F0F6803D4B1B7813F0040FEB
:1047C00000F0F0803B4B1B6813B19D4240F0EA8043
:1047D00072B64FF0020000F02FFA284600F08EFF6C
:1047E000484600F08BFF00F0CFFA62B6DAE014F032
:1047F000800F00F0AA80D5E0019628462F49B047E7
:10480000032829D14FF00104DFF8B08000E03446DE
:1048100004F10106F6B22B6872B206A901EB82021E
:1048200042F8183C994508D176B2052EDFDD2448C0
:104830004FF07A01FEF78CF9D9E7284641469847B0
:104840000328E4D0344676B2052E07DD1C484FF02D
:104850008501FEF77DF901E04FF001042846164975
:10486000C847B8B9124B1B7813F0040F12D0114B84
:104870001B680BB19D420DD172B64FF0020000F0E3
:10488000DBF9284600F03AFF484600F037FF00F019
:104890007BFA62B623465AB206A901EB820252F8AD
:1048A000182C97420ED103F1FF33DCB29FE700BF13
:1048B000A80B0020D40B0020046D0000FC6C00004D
:1048C000E86C000003F1FF33DBB213F0800FE2D09D
:1048D000934EDFF86482A6F1080A28463146B847AD
:1048E000D0B998F8003013F0040F12D08D4B1B682C
:1048F0000BB19D420DD172B64FF0020000F09CF951
:10490000284600F0FBFE384600F0F8FE00F03CFAC6
:1049100062B628465146B8472F6823465AB206A9C0
:1049200001EB820252F8182CBA4203D103F1FF3393
:10493000DCB25CE703F1FF33DBB213F0800FEDD0A4
:104940004FF00102002AC8D151E7774FDFF8E88124
:10495000DFF8D0A163B206A901EB830353F8186C0A
:1049600028463946B047B8B998F8003013F0020F1E
:1049700012D0DAF800300BB19D420DD172B64FF073
:10498000010000F059F9284600F0B8FE304600F06A
:10499000B5FE00F0F9F962B604F1FF34E4B214F0A8
:1049A000800FD7D0009E2E60DFF88CA1DFF87881D1
:1049B00068E09AF8003013F0080F15D0594A1368D0
:1049C0000BB19D4210D172B64FF0030000F034F9E4
:1049D000284600F093FE304600F090FE286800F074
:1049E0008DFE00F0D1F962B62C68009428464F493C
:1049F000A0472B68B34200F0C8804FF000044B4F33
:104A000004F10104E4B262B206A901EB820242F8A9
:104A1000183C2846394698472B68B342F0D1009B92
:104A20002B6063B2052B04DD41484FF0D901FEF73E
:104A30008FF863B206AA02EB830353F8186C28467A
:104A40004146B047B8B99AF8003013F0020F12D0BF
:104A500034490B680BB19D420DD172B64FF0010085
:104A600000F0EAF8284600F049FE304600F046FE25
:104A700000F08AF962B604F1FF34E4B214F0800F5A
:104A8000D7D0009E28462B49B047022891D0344603
:104A9000294B1B7813F0400F70D0224B1B680BB1D1
:104AA0009D426BD172B64FF0060000F0C5F8FEF7DC
:104AB00053F900F023FEBBF8000000F067FD284624
:104AC00000F01CFE484600F019FE204600F016FEDD
:104AD00000F05AF962B651E001282FD1164B93F934
:104AE0000030002B4ADA0F4B1B680BB19D4245D1B9
:104AF00072B64FF0070000F09FF8FEF72DF900F0B6
:104B0000FDFDBBF8000000F041FD284600F0F6FD79
:104B1000304600F0F3FD00F037F962B62EE000BF3A
:104B2000046D0000D40B0020006D0000FC6C000040
:104B3000E86C0000086D0000A80B0020154B1B78E6
:104B400013F0200F1AD0144B1B680BB19D4215D1E6
:104B500072B64FF0050000F06FF8FEF7FDF800F0B8
:104B6000CDFDBBF8000000F011FD284600F0C6FDA9
:104B7000484600F0C3FD00F007F962B62E6007B0AA
:104B8000BDE8F08F4FF00004DFE62C604FF000042A
:104B90004FE700BFA80B0020D40B00204FF001000E
:104BA000704700BF00487047F46C00000048704731
:104BB0000C6D0000014B186099807047A00B00201D
:104BC000FF280BD10C4901F1070301F127014FF038
:104BD000FF0203F8012F8B42FBD17047064B03EB1A
:104BE000D00300F007004FF0010202FA00F01A7A39
:104BF00010431872704700BFA00B0020FF280BD194
:104C00000C4901F1070301F127014FF0000203F8FD
:104C1000012F8B42FBD17047064B03EBD00300F012
:104C200007004FF0010202FA00F01A7A22EA0000AF
:104C300018727047A00B002010B4524A92F8283026
:104C400003F10103DBB282F8283082F82930A3F1A6
:104C50007D02D2B2012A2FD84A4B5A8D19684FF0E3
:104C60007D048C545A8D02F1010292B25A859B88C0
:104C7000934203D1434B4FF000025A85414B9A8D2A
:104C800002F101029A855A8D196893F8284084F040
:104C900020048C545A8D02F1010292B25A859B88ED
:104CA000934203D1374B4FF000025A85354B9A8D12
:104CB00002F101029A8514E0324A518D146863545E
:104CC000538D03F101039BB2538592889A4203D11D
:104CD0002C4B4FF000025A852A4B9A8D02F10102AB
:104CE0009A85284B93F82920821883F82920A0F16F
:104CF0007D03DBB2012B2DD8224B5A8D19684FF062
:104D00007D048C545A8D02F1010292B25A859B881F
:104D1000934203D11B4B4FF000025A85194B9A8DD9
:104D200002F101029A855A8D196880F0200088549A
:104D30005A8D02F1010292B25A859B88934203D1A7
:104D4000104B4FF000025A850E4B9A8D02F1010272
:104D50009A8514E00B4B5A8D196888545A8D02F1CC
:104D6000010292B25A859B88934203D1054B4FF0C2
:104D700000025A85034B9A8D02F101029A8510BCFC
:104D8000704700BFA00B0020384B93F829206FEA32
:104D90000202D2B283F82920A2F17D03DBB2012BFB
:104DA0002FD8324B5A8D19684FF07D0088545A8D98
:104DB00002F1010292B25A859B88934203D12B4B98
:104DC0004FF000015985294B9A8D02F101029A8515
:104DD0005A8D196893F8290080F0200088545A8D64
:104DE00002F1010292B25A859B88934203D11F4B74
:104DF0004FF000025A851D4B9A8D02F101029A85EF
:104E000014E01A4B598D186842545A8D02F1010270
:104E100092B25A859B88934203D1144B4FF0000104
:104E20005985124B9A8D02F101029A850F4B5A8DCA
:104E300019684FF07E0088545A8D02F1010292B237
:104E40005A859B889A4203D1084A4FF00001518548
:104E500006498A8D02F1010292B28A85934203D2F9
:104E60000A46498DD1859385704700BFA00B00206D
:104E700030B44F4B93F82920821883F82920A0F1F1
:104E80007D03DBB2012B2DD8494B5A8D1C684FF0A6
:104E90007D05A5545A8D02F1010292B25A859B8874
:104EA000934203D1424B4FF000025A85404B9A8DFA
:104EB00002F101029A855A8D1C6880F02000A054EE
:104EC0005A8D02F1010292B25A859B88934203D116
:104ED000374B4FF000025A85354B9A8D02F1010293
:104EE0009A8514E0324B5A8D1C68A0545A8D02F1F9
:104EF000010292B25A859B88934203D12C4B4FF00A
:104F000000025A852A4B9A8D02F101029A85284B9C
:104F100093F829208A1883F82920A1F17D03DBB2B8
:104F2000012B2DD8224B5A8D18684FF07D048454E4
:104F30005A8D02F1010292B25A859B88934203D1A5
:104F40001B4B4FF000025A85194B9A8D02F101025A
:104F50009A855A8D186881F0200181545A8D02F18A
:104F6000010292B25A859B88934203D1104B4FF0B5
:104F700000025A850E4B9A8D02F101029A8514E0C7
:104F80000B4B5A8D186881545A8D02F1010292B26E
:104F90005A859B88934203D1054B4FF000025A85F6
:104FA000034B9A8D02F101029A8530BC704700BF15
:104FB000A00B002030B4784B93F82920821883F896
:104FC0002920A0F17D03DBB2012B2DD8724B5A8D25
:104FD0001C684FF07D05A5545A8D02F1010292B272
:104FE0005A859B88934203D16B4B4FF000025A8540
:104FF000694B9A8D02F101029A855A8D1C6880F0E6
:105000002000A0545A8D02F1010292B25A859B8869
:10501000934203D1604B4FF0000058855E4B9A8D50
:1050200002F101029A8514E05B4B5A8D1C68A05472
:105030005A8D02F1010292B25A859B88934203D1A4
:10504000554B4FF000025A85534B9A8D02F10102E5
:105050009A85CAB2504B93F82900101883F829009A
:10506000A2F17D03DBB2012B2DD84B4B588D1C6870
:105070004FF07D052554588D00F1010080B2588510
:105080009B88834203D1444B4FF000005885424B2C
:10509000988D00F101009885588D1C6882F02002DF
:1050A00022545A8D02F1010292B25A859B88934292
:1050B00003D1394B4FF000025A85374B9A8D02F1DC
:1050C00001029A8514E0344B588D1C6822545A8D85
:1050D00002F1010292B25A859B88934203D12E4B72
:1050E0004FF0000058852C4B9A8D02F101029A85F1
:1050F0004FEA1121CBB2284A92F82900181882F8F9
:105100002900A3F17D02D2B2012A2DD8224A518D65
:1051100010684FF07D044454518D01F1010189B2B2
:10512000518592888A4203D11B4A4FF00001518574
:10513000194A918D01F101019185518D106883F01B
:1051400020034354538D03F101039BB2538592888E
:105150009A4203D1104B4FF000025A850E4B9A8DA4
:1051600002F101029A8514E00B4B5A8D18688154A4
:105170005A8D02F1010292B25A859B88934203D163
:10518000054B4FF000005885034B9A8D02F1010248
:105190009A8530BC704700BFA00B002030B4954BFF
:1051A00093F82920821883F82920A0F17D03DBB22F
:1051B000012B2DD88F4B5A8D1C684FF07D05A554BF
:1051C0005A8D02F1010292B25A859B88934203D113
:1051D000884B4FF000025A85864B9A8D02F10102EE
:1051E0009A855A8D1C6880F02000A0545A8D02F1D7
:1051F000010292B25A859B88934203D17D4B4FF0B6
:10520000000058857B4B9A8D02F101029A8514E0CB
:10521000784B5A8D1C68A0545A8D02F1010292B24B
:105220005A859B88934203D1724B4FF000025A85F6
:10523000704B9A8D02F101029A85CAB26D4B93F8B8
:105240002900101883F82900A2F17D03DBB2012B9D
:105250002DD8684B588D1C684FF07D052554588D0E
:1052600000F1010080B258859B88834203D1614BD5
:105270004FF0000058855F4B988D00F10100988534
:10528000588D1C6882F0200222545A8D02F10102CE
:1052900092B25A859B88934203D1564B4FF000023D
:1052A0005A85544B9A8D02F101029A8514E0514BB4
:1052B000588D1C6822545A8D02F1010292B25A850F
:1052C0009B88934203D14B4B4FF000005885494BCC
:1052D0009A8D02F101029A854FEA1121CAB2454B1B
:1052E00093F82900101883F82900A2F17D03DBB29E
:1052F000012B2DD83F4B588D1C684FF07D05255450
:10530000588D00F1010080B258859B88834203D1FB
:10531000384B4FF000005885364B988D00F1010056
:105320009885588D1C6882F0200222545A8D02F113
:10533000010292B25A859B88934203D12D4B4FF0C4
:1053400000025A852B4B9A8D02F101029A8514E0D6
:10535000284B588D1C6822545A8D02F1010292B2DA
:105360005A859B88934203D1224B4FF00000588509
:10537000204B9A8D02F101029A854FEA1121CAB29F
:105380001C4B93F82900101883F82900A2F17D0323
:10539000DBB2012B30D8174B588D1C684FF07D05C0
:1053A0002554588D00F1010080B258859B888342B6
:1053B00003D1104B4FF0000058850E4B988D00F133
:1053C00001009885588D1C6882F0200222545A8D65
:1053D00002F1010292B25A859B88934203D1054B98
:1053E0004FF000025A85034B9A8D02F101029A8513
:1053F00017E000BFA00B0020334B588D1C682254CF
:105400005A8D02F1010292B25A859B88934203D1D0
:105410002D4B4FF0000058852B4B9A8D02F1010265
:105420009A854FEA1121284B93F829208A1883F88E
:105430002920A1F17D03DBB2012B2DD8224B5A8DFF
:1054400018684FF07D0484545A8D02F1010292B223
:105450005A859B88934203D11B4B4FF000025A851B
:10546000194B9A8D02F101029A855A8D186881F0C4
:10547000200181545A8D02F1010292B25A859B8813
:10548000934203D1104B4FF0000058850E4B9A8D7C
:1054900002F101029A8514E00B4B5A8D1868815471
:1054A0005A8D02F1010292B25A859B88934203D130
:1054B000054B4FF000025A85034B9A8D02F1010211
:1054C0009A8530BC704700BFA00B002010B42A4B57
:1054D0001A7882181A70A0F17D03DBB2012B32D842
:1054E000264B1A88264909684FF07D048C541A8887
:1054F00002F1010292B21A80224B1B88934203D11F
:105500001E4B4FF000021A801F4B1A8802F1010255
:105510001A801A4B1A881A49096880F020008854AA
:105520001A8802F1010292B21A80164B1B8893422C
:1055300003D1124B4FF000021A80134B1A8802F16C
:1055400001021A8016E00D4B1A880D49096888542B
:105550001A8802F1010292B21A800A4B1B88934208
:1055600003D1064B4FF000021A80074B1A8802F154
:1055700001021A8010BC7047C90B0020CA0B002022
:10558000A00B0020A40B0020CC0B002030B4C3B231
:10559000554A117859181170A3F17D02D2B2012A2F
:1055A00032D8524A1188524C24684FF07D05655418
:1055B000118801F1010189B211804E4A12888A4294
:1055C00003D14A4A4FF0000111804B4A118801F182
:1055D00001011180454A1188454C246883F020035D
:1055E0006354138803F101039BB21380414A12886C
:1055F0009A4203D13D4B4FF000021A803E4B1A886D
:1056000002F101021A8016E0384A1188384C2468E9
:105610006354138803F101039BB21380354A128847
:105620009A4203D1314B4FF000011980324B1A8856
:1056300002F101021A804FEA1020C3B22A4A1178FF
:1056400059181170A3F17D02D2B2012A32D8274A2B
:105650001188274800684FF07D044454118801F1F7
:10566000010189B21180234A12888A4203D11F4A5C
:105670004FF000011180204A118801F101011180D1
:105680001A4A11881A48006883F02003435413888B
:1056900003F101039BB21380164A12889A4203D188
:1056A000124B4FF000021A80134B1A8802F10102CC
:1056B0001A8016E00D4B1A880D49096888541A881B
:1056C00002F1010292B21A800A4B1B88934203D165
:1056D000064B4FF000011980074B1A8802F10102B6
:1056E0001A8030BC704700BFC90B0020CA0B0020D5
:1056F000A00B0020A40B0020CC0B002030B4C3B2C0
:10570000734A117859181170A3F17D02D2B2012A9F
:1057100032D8704A1188704C24684FF07D0565546A
:10572000118801F1010189B211806C4A12888A4204
:1057300003D1684A4FF000011180694A118801F1D4
:1057400001011180634A1188634C246883F02003AF
:105750006354138803F101039BB213805F4A1288DC
:105760009A4203D15B4B4FF000021A805C4B1A88BF
:1057700002F101021A8016E0564A1188564C24683C
:105780006354138803F101039BB21380534A1288B8
:105790009A4203D14F4B4FF000011980504B1A88A9
:1057A00002F101021A804FEA1020C3B2484A117870
:1057B00059181170A3F17D02D2B2012A32D8454A9C
:1057C0001188454C24684FF07D056554118801F11E
:1057D000010189B21180414A12888A4203D13D4AAF
:1057E0004FF0000111803E4A118801F10101118042
:1057F000384A1188384C246883F020036354138896
:1058000003F101039BB21380344A12889A4203D1F8
:10581000304B4FF000021A80314B1A8802F101021E
:105820001A8016E02B4A11882B4C24686354138885
:1058300003F101039BB21380284A12889A4203D1D4
:10584000244B4FF000011980254B1A8802F1010208
:105850001A804FEA1020C3B21D4A117859181170EE
:10586000A3F17D02D2B2012A3CD81A4A11881A4CFF
:1058700024684FF07D056554118801F1010189B25A
:105880001180164A12888A4203D1124A4FF0000151
:105890001180134A118801F1010111800D4A11880C
:1058A0000D4C246883F020036354138803F1010333
:1058B0009BB21380094A12889A4203D1054B4FF0DC
:1058C00000021A80064B1A8802F101021A8020E0B9
:1058D000C90B0020CA0B0020A00B0020A40B002045
:1058E000CC0B0020364A1188364C24686354138848
:1058F00003F101039BB21380334A12889A4203D109
:105900002F4B4FF000011980304B1A8802F1010231
:105910001A804FEA10202E4B1A7882181A70A0F1C4
:105920007D03DBB2012B32D8254B1A882549096843
:105930004FF07D048C541A8802F1010292B21A8051
:10594000214B1B88934203D11D4B4FF000021A805C
:105950001E4B1A8802F101021A80194B1A88194944
:10596000096880F0200088541A8802F1010292B27E
:105970001A80154B1B88934203D1114B4FF0000145
:105980001980124B1A8802F101021A8016E00C4BA2
:105990001A880C49096888541A8802F1010292B2E7
:1059A0001A80094B1B88934203D1054B4FF000022C
:1059B0001A80064B1A8802F101021A8030BC704727
:1059C000CA0B0020A00B0020A40B0020CC0B002051
:1059D000C90B00202DE9F00302782AB3204C214B9B
:1059E000214F224E4FF0000C214925785219227088
:1059F00005461A88D7F8008090F8009008F80290C1
:105A00001A8802F1010292B21A80B6F8008090451D
:105A100008BFA3F800C00A8802F101020A80427898
:105A200000F10100002AE0D10E4B1A880E490968E6
:105A30004FF0000088541A8802F1010292B21A80D5
:105A40000A4B1B88934203D1064B4FF000021A8089
:105A5000074B1A8802F101021A80BDE8F003704773
:105A6000C90B0020CA0B0020A00B0020A40B0020B3
:105A7000CC0B00202DE9F001037803B31E4C1F4A24
:105A80001F4F204E4FF0000C1F4925785D192570DF
:105A90001588D7F8008008F80530138803F1010352
:105AA0009BB2138035889D4208BFA2F800C00B88C6
:105AB00003F101030B8010F8013F002BE5D10F4BE0
:105AC0001A880F4909684FF0000088541A8802F1BB
:105AD000010292B21A800B4B1B88934203D1074BF1
