:020000040000FA
:0600000065EF1CF0120088
:060008009EEF1BF0120048
:06002A000400643A00002E
:10003000C6050000050000005A3A0000B4050000A3
:100040000A000000523A0000BE050000080000004F
:0C005000503A0000CE0500000200000045
:04005C00D9CFE6FF13
:10006000E1CFD9FF130EE126FD0EDBCFE9FFFE0E37
:10007000DBCFEAFF0E0EEECFDBFF0F0EEDCFDBFF87
:10008000FD0EDBCFE9FFFE0EDBCFEAFF0C0EEECF5D
:10009000DBFF0D0EEDCFDBFF0C0EDBCF10F00D0EF6
:1000A000DBCF11F0FB0EDBCFE6FFFC0EDBCFE6FF74
:1000B000FD0EDBCFE6FFFE0EDBCFE6FF04D011C066
:1000C000FAFF1050F96EFBDFE552E552E552E552BA
:1000D000E76E100EE7CFDBFFDB500308D1E0100E18
:1000E000DB50020802E0D8EF04F0110EDB68FD0ED1
:1000F000DBCFE9FFFE0EDBCFEAFFEECFDEFFEDCF79
:10010000DDFF0E0EDBCF06F00F0EDBCF07F0020E89
:1001100006C0DBFF030E07C0DBFF0E0EDBCF10F0C7
:100120000F0EDBCF11F00C0EDB50101803E10D0E9B
:10013000DB50111843E00E0EDBCF10F00F0EDBCFBB
:1001400011F0C20EE66E050EE66EFD0EDBCFE6FF89
:10015000FE0EDBCFE6FF04D011C0FAFF1050F96E9F
:10016000FBDFE552E552E552E55200091AE10E0EB9
:10017000DBCF10F00F0EDBCF11F0BE0EE66E050EDA
:10018000E66EFD0EDBCFE6FFFE0EDBCFE6FF04D012
:1001900011C0FAFF1050F96EFBDFE552E552E5524F
:1001A000E552FD0EDBCFE9FFFE0EDBCFEAFF0E0EC0
:1001B000EECFDBFF0F0EEDCFDBFFAFD7D9CFE9FFDF
:1001C000DACFEAFF0E0EEECFDBFF0F0EEDCFDBFF37
:1001D0000C0EDBCF10F00D0EDBCF11F00E0EDB504E
:1001E000101803E10F0EDB50111820E10C0EDBCFCD
:1001F00010F00D0EDBCF11F0C20EE66E050EE66EAE
:10020000FD0EDBCFE6FFFE0EDBCFE6FF04D011C014
:10021000FAFF1050F96EFBDFE552E552E552E55268
:10022000000901E100D0110EDB6A75D20E0EDBCFA2
:1002300010F00F0EDBCF11F0BE0EE66E050EE66E6F
:10024000FD0EDBCFE6FFFE0EDBCFE6FF04D011C0D4
:10025000FAFF1050F96EFBDFE552E552E552E55228
:10026000FD0EDBCFE9FFFE0EDBCFEAFF0E0EEECF79
:10027000DBFF0F0EEDCFDBFF0C0EDBCF10F00D0E12
:10028000DBCF11F00E0EDB50101803E10F0EDB5028
:10029000111803E1110EDB6A3ED20C0EDBCF10F019
:1002A0000D0EDBCF11F0BE0EE66E050EE66EFD0EF6
:1002B000DBCFE6FFFE0EDBCFE6FF04D011C0FAFF76
:1002C0001050F96EFBDFE552E552E552E552FD0EA6
:1002D000DBCFE9FFFE0EDBCFEAFFEECF10F0EFCF72
:1002E00011F00E0EDB50101803E10F0EDB50111849
:1002F00020E10C0EDBCF10F00D0EDBCF11F0C20EA3
:10030000E66E050EE66EFD0EDBCFE6FFFE0EDBCFE2
:10031000E6FF04D011C0FAFF1050F96EFBDFE55282
:10032000E552E552E552000901E100D0110EDB6A09
:10033000F2D1FD0EDBCFE9FFFE0EDBCFEAFFEECF01
:1003400010F0EFCF11F0DF50101803E1DE52DD5056
:1003500011181EE10C0EDBCF10F00D0EDBCF11F0EB
:10036000C20EE66E050EE66EFD0EDBCFE6FFFE0E5C
:10037000DBCFE6FF04D011C0FAFF1050F96EFBDFAF
:10038000E552E552E552E552000901E100D0C3D142
:10039000120EDB6A010EF36E110EF3CFDBFF0E0EB1
:1003A000DBCF06F00F0EDBCF07F0020E06C0DBFF3F
:1003B000030E07C0DBFFFD0EDBCFE9FFFE0EDBCF38
:1003C000EAFF0E0EEECFDBFF0F0EEDCFDBFF020ECE
:1003D000DBCF10F0030EDBCF11F0BE0EE66E050E84
:1003E000E66EFD0EDBCFE6FFFE0EDBCFE6FF04D0B0
:1003F00011C0FAFF1050F96EFBDFE552E552E552ED
:10040000E552E76E100EE7CFDBFFDB50030801E09B
:100410007DD0FD0EDBCFE9FFFE0EDBCFEAFFEECF96
:1004200014F0EFCF15F0D9CF10F0DACF11F0110E94
:10043000DB2ADBCF12F0136A12BE1368D890123693
:10044000133610501224E96E11501320EA6E14C0B6
:10045000EEFF15C0EDFFFD0EDBCFE9FFFE0EDBCF9B
:10046000EAFFEECF10F0EFCF11F00C0EDB501018BA
:1004700003E10D0EDB50111825E1010EF36E120E93
:10048000F3CFDBFF110EDBCF10F0060EE76E101876
:10049000E8AE02D0E73402D0E750105C01E20DD0A4
:1004A000720EE66EE66ADD0EE66E390EE66E93ECCF
:1004B0001BF0E552E552E552E552110EDB06100E37
:1004C000DB6A23D0FD0EDBCFE9FFFE0EDBCFEAFFB8
:1004D000EECF10F0EFCF11F0BE0EE66E050EE66E19
:1004E000FD0EDBCFE6FFFE0EDBCFE6FF05D011C031
:1004F000FAFF00011050F96EFADFE552E552E552BD
:10050000E552E76E100EE7CFDBFF7FD7120EDB5010
:1005100001E001D1110EDBCF10F0060EE76E1018CE
:10052000E8AE02D0E73402D0E750105C01E20DD013
:100530007D0EE66EE66ADD0EE66E390EE66E93EC33
:100540001BF0E552E552E552E5520C0EDBCF10F000
:100550000D0EDBCF11F0C20EE66E050EE66EFD0E3F
:10056000DBCFE6FFFE0EDBCFE6FF04D011C0FAFFC3
:100570001050F96EFBDFE552E552E552E5520009F5
:1005800001E100D0110EDB50E76E120EE7CFDBFF6A
:10059000010EF36E100EF3CFDBFF0E0EDBCF10F06B
:1005A0000F0EDBCF11F0D9CF14F0DACF15F0120E09
:1005B000DBCF16F0176A16BE1768D89016361736B6
:1005C00014501624E96E15501720EA6EEECF12F083
:1005D000EFCF13F01250101802E1135011180BE175
:1005E000100EDB6A120EDB04E76E110EE7CFDBFFA5
:1005F000120EDB6802D0120EDB06DBCF10F01034D7
:10060000CCE3100EDB5001E186D0010EF36E100E2C
:10061000F3CFDBFF0E0EDBCF10F00F0EDBCF11F0B0
:10062000C20EE66E050EE66EFD0EDBCFE6FFFE0E99
:10063000DBCFE6FF04D011C0FAFF1050F96EFBDFEC
:10064000E552E552E552E55200091AE10E0EDBCF04
:1006500010F00F0EDBCF11F0BE0EE66E050EE66E4B
:10066000FD0EDBCFE6FFFE0EDBCFE6FF04D011C0B0
:10067000FAFF1050F96EFBDFE552E552E552E55204
:10068000FD0EDBCFE9FFFE0EDBCFEAFF0E0EEECF55
:10069000DBFF0F0EEDCFDBFF110EDB50E76E120E0E
:1006A000E7CFDBFF0E0EDBCF10F00F0EDBCF11F02C
:1006B000D9CF14F0DACF15F0120EDBCF16F0176A8F
:1006C00016BE1768D8901636173614501624E96EE1
:1006D00015501720EA6EEECF12F0EFCF13F0125044
:1006E000101802E1135011180BE1120EDB04E76E33
:1006F000110EE7CFDBFF120EDB68100EDB6A02D0B3
:10070000120EDB06120EDBCF10F01034CBE3100E0E
:10071000DB5001E07FD7110EDBCF10F0103431E257
:10072000D9CF12F0DACF13F0110EDBCF14F0156A27
:1007300014BE1568D8901436153612501424E96E7C
:1007400013501520EA6EEECF10F0EFCF11F0C00E6F
:10075000E66E050EE66EFD0EDBCFE6FFFE0EDBCF8E
:10076000E6FF04D011C0FAFF1050F96EFBDFE5522E
:10077000E552E552E552000901E100D0110EDB0619
:10078000CAD7D9CFE9FFDACFEAFF0E0EEECFDBFFF3
:100790000F0EEDCFDBFFFD0EDBCFE9FFFE0EDBCF53
:1007A000EAFF0E0EDBCFEEFF0F0EDBCFEDFF0E0EDE
:1007B000DBCF10F00F0EDBCF11F0C40EE66E050E8E
:1007C000E66EFD0EDBCFE6FFFE0EDBCFE6FF04D0CC
:1007D00011C0FAFF1050F96EFBDFE552E552E55209
:1007E000E552020801E0E3D0110EDB6AFD0EDBCF1B
:1007F000E9FFFE0EDBCFEAFFEECFDEFFEDCFDDFF40
:10080000FD0EDBCFE9FFFE0EDBCFEAFFEECF10F0EF
:10081000EFCF11F0BE0EE66E050EE66EFD0EDBCFDD
:10082000E6FFFE0EDBCFE6FF05D011C0FAFF0001A8
:100830001050F96EFADFE552E552E552E552FD0E31
:10084000DBCFE9FFFE0EDBCFEAFFEECF10F0EFCFFC
:1008500011F00E0EDB50101803E10F0EDB501118D3
:1008600042E0FD0EDBCFE9FFFE0EDBCFEAFFEECF6D
:1008700014F0EFCF15F0D9CF10F0DACF11F0110E40
:10088000DB2ADBCF12F0136A12BE1368D89012363F
:10089000133610501224E96E11501320EA6E14C062
:1008A000EEFF15C0EDFFFD0EDBCFE9FFFE0EDBCF47
:1008B000EAFFEECF10F0EFCF11F0BE0EE66E050EA0
:1008C000E66EFD0EDBCFE6FFFE0EDBCFE6FF05D0CA
:1008D00011C0FAFF00011050F96EFADFE552E5523F
:1008E000E552E552ACD7FD0EDBCFE9FFFE0EDBCFC4
:1008F000EAFFDECFEEFFDDCFEDFF110EDBCF10F014
:10090000060EE76E1018E8AE02D0E73402D0E750CA
:10091000105C01E20DD0D00EE66EE66ADD0EE66EEA
:10092000390EE66E93EC1BF0E552E552E552E552C6
:10093000D9CF12F0DACF13F0110EDBCF14F0156A15
:1009400014BE1568D8901436153612501424E96E6A
:1009500013501520EA6EEECF10F0EFCF11F0C00E5D
:10096000E66E050EE66EFD0EDBCFE6FFFE0EDBCF7C
:10097000E6FF04D011C0FAFF1050F96EFBDFE5521C
:10098000E552E552E552000901E100D0110EDB0607
:10099000DBCF10F01034CCE3D9CFE9FFDACFEAFF98
:1009A0000E0EEECFDBFF0F0EEDCFDBFF00D700D03A
:1009B000FD0EDBCFE9FFFE0EDBCFEAFF0E0EDBCF35
:1009C000EEFF0F0EDBCFEDFFF56E130EE15C02E2E2
:1009D000E16AE552E16EF550E552E7CFD9FF12002A
:1009E000D9CFE6FFE1CFD9FF030EE126D950010FA1
:1009F000E96EDACFEAFF800EEE6E050EED6E010EA7
:100A0000DBCFE9FF020EDBCFEAFF8C0EEE6E0A0EA3
:100A1000ED6EDF6A050EDF5C2DE2010EDBCFE9FF34
:100A2000020EDBCFEAFF0D0EE926000EEA22E9CF27
:100A300010F0EACF11F0DF500F011024E96E000E24
:100A40001120EA6EEF6A010EDBCFE9FF020EDBCF69
:100A5000EAFF120EE926000EEA22E9CF10F0EACFF3
:100A600011F0DF501024E96E000E1120EA6EEF6ADB
:100A7000DF2AD0D7F56E030EE15C02E2E16AE552AF
:100A8000E16EF550E552E7CFD9FF1200D9CFE6FF6E
:100A9000E1CFD9FF050EE66EFD0EDBCFE6FFFE0EC1
:100AA000DBCFE6FFA3EC17F0E552E552E552060E68
:100AB000E66EFD0EDBCFE6FFFE0EDBCFE6FFA3EC1E
:100AC00017F0E552E552E552FD0EDBCFE9FFFE0ED1
:100AD000DBCFEAFFE80EEE6E0A0EED6E020E00D0DE
:100AE000E552E7CFD9FF1200D9CFE6FFE1CFD9FF1A
:100AF000040EE126FB0EDBCFE9FFFC0EDBCFEAFFA5
:100B0000EF50060A01E125D3030A01E1FDD00D0AE9
:100B10000CE0FD0EDBCFE9FFFE0EDBCFEAFF7C0E23
:100B2000EE6E390EED6E030E18D3FB0EDBCFE9FF30
:100B3000FC0EDBCFEAFF020EE926000EEA22EFCF21
:100B4000DFFF050EDF5C18E2FD0EDBCFE9FFFE0ED6
:100B5000DBCFEAFF120EE926000EEA22E9CF10F001
:100B6000EACF11F0DF500F011024E96E000E1120C2
:100B7000EA6EEF5001E10DD0610EE66EE66AEF0E0F
:100B8000E66E390EE66E93EC1BF0E552E552E55247
:100B9000E552720EE66E390EE66EDFCFE6FF6DECC3
:100BA0001BF0E552E552E552DF28106E050E116E7E
:100BB00011C00CF010C007F0A2EC1CF0010E03C035
:100BC000DBFFFD0EDBCFE9FFFE0EDBCFEAFF0D0EF4
:100BD000E926000EEA22E9CF10F0EACF11F0010E6B
:100BE000DB500F011024E96E000E1120EA6EEF5069
:100BF00073E1FD0EDBCFE9FFFE0EDBCFEAFF0D0E4A
:100C0000E926000EEA22E9CF12F0EACF13F0DF5016
:100C10001224E96E000E1320EA6EEF505DE1FD0E26
:100C2000DBCFE9FFFE0EDBCFEAFF0D0EE926000E5B
:100C3000EA22E9CF12F0EACF13F0DF501224E96E76
:100C4000000E1320EA6E010EEF6EFD0EDBCFE9FF02
:100C5000FE0EDBCFEAFF0D0EE926000EEA22E9CFF9
:100C600010F0EACF11F0010EDB501024E96E000EF7
:100C70001120EA6E010EEF6E040EE66E030EE66EB4
:100C800016EC17F0E552E552020EF3CFDBFF030E30
:100C9000F4CFDBFF020EDBCFE9FF030EDBCFEAFF71
:100CA000020EE926000EEA22DFCFEFFF020EDBCFB5
:100CB000E6FF030EDBCFE6FF24EC15F0E552E5522C
:100CC000690EE66E390EE66EDFCFE6FF6DEC1BF0C7
:100CD000E552E552E55216D0FD0EDBCFE9FFFE0EE0
:100CE000DBCFEAFF120EE926000EEA22E9CF10F070
:100CF000EACF11F0DF501024E96E000E1120EA6EE9
:100D0000010EEF6E000E29D2FB0EDBCFE9FFFC0EC9
:100D1000DBCFEAFF020EE926000EEA22EFCFDFFF6B
:100D2000050EDF5C18E2FD0EDBCFE9FFFE0EDBCF28
:100D3000EAFF120EE926000EEA22E9CF10F0EACF10
:100D400011F0DF500F011024E96E000E1120EA6E41
:100D5000EF5001E10DD0750EE66EE66AEF0EE66E1D
:100D6000390EE66E93EC1BF0E552E552E552E55282
:100D7000600EE66E390EE66EDFCFE6FF6DEC1BF01F
:100D8000E552E552E552DF28106E050E116E11C0D6
:100D90000CF010C007F0A2EC1CF0010E03C0DBFF4A
:100DA000FD0EDBCFE9FFFE0EDBCFEAFF0D0EE926DD
:100DB000000EEA22E9CF10F0EACF11F0DF500F0168
:100DC0001024E96E000E1120EA6EEF0418E1FD0E0A
:100DD000DBCFE9FFFE0EDBCFEAFF0D0EE926000EAA
:100DE000EA22E9CF12F0EACF13F0010EDB50122411
:100DF000E96E000E1320EA6EEF0401E10DD07A0EC9
:100E0000E66EE66AEF0EE66E390EE66E93EC1BF0C8
:100E1000E552E552E552E552FD0EDBCFE9FFFE0E4D
:100E2000DBCFEAFF0D0EE926000EEA22E9CF12F031
:100E3000EACF13F0DF500F011224E96E000E1320E9
:100E4000EA6EEF6AFD0EDBCFE9FFFE0EDBCFEAFFB5
:100E50000D0EE926000EEA22E9CF10F0EACF11F0DC
:100E6000010EDB501024E96E000E1120EA6E000E18
:100E7000EF6E040EDF24106E050E116E11C00CF023
:100E800010C007F0A2EC1CF0010E03C0DBFFFD0E4A
:100E9000DBCFE9FFFE0EDBCFEAFF120EE926000EE4
:100EA000EA22E9CF10F0EACF11F0010EDB500F017A
:100EB0001024E96E000E1120EA6EEF5001E18BD094
:100EC000FD0EDBCFE9FFFE0EDBCFEAFF0D0EE926BC
:100ED000000EEA22E9CF12F0EACF13F0010EDB5048
:100EE0001224E96E000E1320EA6EEF5074E1FD0E3D
:100EF000DBCFE9FFFE0EDBCFEAFF0D0EE926000E89
:100F0000EA22E9CF12F0EACF13F0010EDB501224EF
:100F1000E96E000E1320EA6E010EEF6EFD0EDBCFC0
:100F2000E9FFFE0EDBCFEAFF0D0EE926000EEA22F6
:100F3000E9CF10F0EACF11F0DF501024E96E000E77
:100F40001120EA6E010EEF6EFD0EDBCFE9FFFE0E03
:100F5000DBCFEAFF120EE926000EEA22E9CF10F0FD
:100F6000EACF11F0010EDB501024E96E000E1120C3
:100F7000EA6EEF6A040EE66E030EE66E16EC17F0EC
:100F8000E552E552020EF3CFDBFF030EF4CFDBFF99
:100F9000020EDBCFE9FF030EDBCFEAFF020EE926EC
:100FA000000EEA22010EDBCFEFFF020EDBCFE6FFE1
:100FB000030EDBCFE6FF24EC15F0E552E552690E97
:100FC000E66E390EE66E010EDBCFE6FF6DEC1BF030
:100FD000E552E552E552DF28106E050E116E11C084
:100FE0000CF010C007F0A2EC1CF0010E03C0DBFFF8
:100FF000DB28106E050E116E11C00CF010C007F04A
:10100000A2EC1CF00350DF6EFD0EDBCFE9FFFE0EFD
:10101000DBCFEAFF120EE926000EEA22E9CF10F03C
:10102000EACF11F0010EDB500F011024E96E000E23
:101030001120EA6EEF5001E18AD0FD0EDBCFE9FF0F
:10104000FE0EDBCFEAFF0D0EE926000EEA22E9CF05
:1010500012F0EACF13F0DF501224E96E000E1320D5
:10106000EA6EEF5074E1FD0EDBCFE9FFFE0EDBCF41
:10107000EAFF0D0EE926000EEA22E9CF12F0EACFD0
:1010800013F0DF501224E96E000E1320EA6E010EF9
:10109000EF6EFD0EDBCFE9FFFE0EDBCFEAFF0D0E9C
:1010A000E926000EEA22E9CF10F0EACF11F0010E96
:1010B000DB501024E96E000E1120EA6E010EEF6E77
:1010C000FD0EDBCFE9FFFE0EDBCFEAFF120EE926B5
:1010D000000EEA22E9CF10F0EACF11F0010EDB504A
:1010E0001024E96E000E1120EA6EEF6A040EE66E1F
:1010F000030EE66E16EC17F0E552E552020EF3CF42
:10110000DBFF030EF4CFDBFF020EDBCFE9FF030EA4
:10111000DBCFEAFF020EE926000EEA22010EDBCF4A
:10112000EFFF020EDBCFE6FF030EDBCFE6FF24EC82
:1011300015F0E552E552690EE66E390EE66E010EC7
:10114000DBCFE6FF6DEC1BF0E552E552E552000EF9
:1011500004D077EC11F0000E00D0F56E040EE15CC7
:1011600002E2E16AE552E16EF550E552E7CFD9FFC0
:0211700012006B
:0E117200D9CFE6FFE1CFD9FF030EE126DF6AF9
:10118000050EDF5C35E2DF50190DF3CF10F0F4CF20
:1011900011F0800E1026000E1122010E10C0DBFF90
:1011A000020E11C0DBFF010EDBCFE9FF020EDBCF29
:1011B000EAFF080EEE6E120EED6E090EE66E010EDF
:1011C000DBCFE9FF020EDBCFEAFF0D0EE926000EB2
:1011D000EA22E9CF10F0EACF11F010C0E6FF11C00B
:1011E000E6FF87EC1AF0E552E552E552DF2AC8D750
:1011F000F56E030EE15C02E2E16AE552E16EF55044
:10120000E552E7CFD9FF1200D9CFE6FFE1CFD9FFF2
:101210000001FD5102E1010EFD6F040EE66EFD0EB0
:10122000DBCFE6FFFE0EDBCFE6FFA3EC17F0E552C7
:10123000E552E552FD0EDBCFE9FFFE0EDBCFEAFF04
:10124000540EEE6E120EED6E020E00D0E552E7CF98
:10125000D9FF1200D9CFE6FFE1CFD9FFFB0EDBCFDC
:10126000E9FFFC0EDBCFEAFFEF50040A51E0010A70
:101270004FE00C0A41E0080A0CE0FD0EDBCFE9FF6D
:10128000FE0EDBCFEAFF7C0EEE6E390EED6E030E26
:1012900073D0FD0EDBCFE9FFFE0EDBCFEAFF0D0EB4
:1012A000E926000EEA220A0EE926000EEA22EE6A7C
:1012B000ED6A070EE66EE66AFD0EDBCFE6FFFE0E78
:1012C000DBCFE6FFFD0EDBCFE9FFFE0EDBCFEAFF53
:1012D0000D0EE926000EEA22E9CF10F0EACF11F058
:1012E00010C0E6FF11C0E6FFD9EC15F0F56E060E52
:1012F000E15EF550000E40D0FD0EDBCFE9FFFE0EA3
:10130000DBCFEAFF800EEE6E130EED6E020E34D0D0
:10131000FD0EDBCF10F0FE0EDBCF11F0800E105E65
:10132000000E115A190E0B6E0C6A10C006F011C097
:1013300007F03FEC1CF006C010F007C011F0FB0EE8
:10134000DBCFE9FFFC0EDBCFEAFF020EE926000E41
:10135000EA22EF50105C01E00DD0780EE66EE66AEE
:10136000270EE66E3A0EE66E93EC1BF0E552E55260
:10137000E552E552000E00D0E552E7CFD9FF12004A
:10138000D9CFE6FFE1CFD9FF020EE126FB0EDBCF7E
:10139000E9FFFC0EDBCFEAFFEF50050A73E0010A1C
:1013A00040E0050A01E0A2D0080EE66E030EE66EEC
:1013B00016EC17F0E552E552F3CFDEFFF4CFDDFF78
:1013C000FD0EDBCF10F0FE0EDBCF11F0800E105EB5
:1013D000000E115A190E0B6E0C6A10C006F011C0E7
:1013E00007F03FEC1CF006C010F007C011F0DECF94
:1013F000E9FFDDCFEAFF020EE926000EEA2210C067
:10140000EFFFDECFE6FFDDCFE6FFCEC5E6FFCFC5BF
:10141000E6FF38EC10F0E552E552E552E552000ED9
:1014200071D0FD0EDBCF10F0FE0EDBCF11F0800E81
:10143000105E000E115A190E0B6E0C6A10C006F0E9
:1014400011C007F03FEC1CF006C010F007C011F00F
:10145000FB0EDBCFE9FFFC0EDBCFEAFF020EE92635
:10146000000EEA22EF50105C0CE1FD0EDBCFE9FF2D
:10147000FE0EDBCFEAFF1C0EEE6E150EED6E020EB9
:1014800041D034D0FD0EDBCF10F0FE0EDBCF11F0DB
:10149000800E105E000E115A190E0B6E0C6A10C0F1
:1014A00006F011C007F03FEC1CF006C010F007C0BA
:1014B00011F0FB0EDBCFE9FFFC0EDBCFEAFF020EE3
:1014C000E926000EEA22EF50105C01E00DD0900EEC
:1014D000E66EE66A270EE66E3A0EE66E93EC1BF0B9
:1014E000E552E552E552E552000E0CD0FD0EDBCF81
:1014F000E9FFFE0EDBCFEAFF7C0EEE6E390EED6EDD
:10150000030E00D0F56E020EE15C02E2E16AE552E4
:10151000E16EF550E552E7CFD9FF1200D9CFE6FFD3
:10152000E1CFD9FF020EE126FB0EDBCFE9FFFC0E77
:10153000DBCFEAFFEF50040A01E18CD0010A01E1A0
:1015400089D00C0A01E17AD00B0A41E0030A0CE0D1
:10155000FD0EDBCFE9FFFE0EDBCFEAFF7C0EEE6E69
:10156000390EED6E030EAAD0FD0EDBCFE9FFFE0EA5
:10157000DBCFEAFF0D0EE926000EEA220A0EE9266D
:10158000000EEA22EE6AED6A050EE66EE66AFD0ED0
:10159000DBCFE6FFFE0EDBCFE6FFFD0EDBCFE9FF84
:1015A000FE0EDBCFEAFF0D0EE926000EEA22E9CFA0
:1015B00010F0EACF11F010C0E6FF11C0E6FFD9EC41
:1015C00015F0F56E060EE15EF550000E77D0050EB3
:1015D000E66E030EE66E16EC17F0E552E552F3CF19
:1015E000DEFFF4CFDDFFFD0EDBCF10F0FE0EDBCF14
:1015F00011F0800E105E000E115A190E0B6E0C6A5F
:1016000010C006F011C007F03FEC1CF006C010F04F
:1016100007C011F0DECFE9FFDDCFEAFF020EE926B9
:10162000000EEA2210C0EFFFDECFE6FFDDCFE6FFBF
:1016300024EC15F0E552E552000E40D0FD0EDBCF54
:10164000E9FFFE0EDBCFEAFF540EEE6E120EED6EDA
:10165000020E34D0FD0EDBCF10F0FE0EDBCF11F00A
:10166000800E105E000E115A190E0B6E0C6A10C01F
:1016700006F011C007F03FEC1CF006C010F007C0E8
:1016800011F0FB0EDBCFE9FFFC0EDBCFEAFF020E11
:10169000E926000EEA22EF50105C01E00DD0AA0E00
:1016A000E66EE66A270EE66E3A0EE66E93EC1BF0E7
:1016B000E552E552E552E552000E00D0F56E020EFD
:1016C000E15C02E2E16AE552E16EF550E552E7CFF6
:0416D000D9FF12002C
:0C16D400D9CFE6FFE1CFD9FF0A0EE126D6
:1016E000D950FB0FE96EFF0EDA20EA6EEE50ED10D6
:1016F00019E0D950F70FE96EFF0EDA20EA6E020EFC
:10170000EE5C000EEE58000EEE58000EEE580AE3A6
:10171000F60EDB50020F106EF60EDB50D880105420
:1017200001E20DD0370EE66EE66ACB0EE66E390E9C
:10173000E66E93EC1BF0E552E552E552E552FB0EE6
:10174000DBCF10F0FC0EDBCF11F0126A136A010E32
:101750001016116A126A136A020E10C0DBFF030E24
:1017600011C0DBFF040E12C0DBFF050E13C0DBFF50
:10177000020EDBCF10F0030EDBCF11F0040EDBCF37
:1017800012F0050EDBCF13F01050111012101310D1
:1017900034E0020E146E156A166A176AD950020FE9
:1017A000E96EDACFEAFFEE50145C106EEE50155879
:1017B000116EEE501658126EEE501758136E020E40
:1017C00010C0DBFF030E11C0DBFF040E12C0DBFFF5
:1017D000050E13C0DBFFD950F70FE96EFF0EDA20BC
:1017E000EA6E020EDB50EE5E030EDB50EE5A040E84
:1017F000DB50EE5A050EDB50EE5A020EDBCF12F034
:10180000030EDBCF13F0FB0EDB501224106EFC0E28
:10181000DB501320116EFD0EDBCFE9FFFE0EDBCF98
:10182000EAFF10C0EEFF11C0EDFFFD0EDBCFE9FFB8
:10183000FE0EDBCFEAFF060EE926000EEA22020EBC
:10184000EF6E010EF36E060EF3CFDBFF070EDB6AC1
:10185000080EDB6A090EDB6AFD0EDBCFE9FFFE0E28
:10186000DBCFEAFF060EE926000EEA22EFCF10F0EA
:10187000F60EDB50105C19E2020E106EFD0EDBCF8F
:10188000E9FFFE0EDBCFEAFF060EE926000EEA2294
:101890001050EF26D950060FE96EDACFEAFFEE2A94
:1018A000000EEE22EE22EE22D7D7FD0EDBCFE9FFAF
:1018B000FE0EDBCFEAFF060EE926000EEA22F60E48
:1018C000EFCFDBFFDBCF10F0116A126A136AD95039
:1018D000F70FE96EFF0EDA20EA6E1050EE5C115041
:1018E000EE581250EE581350EE5801E30DD04C0E46
:1018F000E66EE66ACB0EE66E390EE66E93EC1BF0F2
:10190000E552E552E552E552F60EDBCF10F0116AD2
:10191000126A136AD950F70FE96EFF0EDA20EA6EE9
:101920001050EE5E1150EE5A1250EE5A1350EE5A0D
:10193000FD0EDBCFE9FFFE0EDBCFEAFF070EE92647
:10194000000EEA22010EEF6EFD0EDBCFE9FFFE0E68
:10195000DBCFEAFFEECFDEFFEDCFDDFFF60EDBCF14
:1019600010F0116A126A136AD950F70FE96EFF0E70
:10197000DA20EA6E1050EE5C1150EE581250EE581C
:101980001350EE583FE3060EDBCF12F0070EDBCF0D
:1019900013F0D89012361336DE501224106EDD503C
:1019A0001320116EDECFE9FFDDCFEAFF10C0EEFF9E
:1019B00011C0EDFFDECFE9FFDDCFEAFFEECFDEFFA6
:1019C000EDCFDDFFF60EDBCF10F0116A126A136A5D
:1019D000D950F70FE96EFF0EDA20EA6E1050EE5E76
:1019E0001150EE5A1250EE5A1350EE5AFD0EDBCF44
:1019F000E9FFFE0EDBCFEAFF070EE926000EEA2222
:101A0000EF2AACD7DECFE9FFDDCFEAFFEE6AED6A61
:101A1000FD0EDBCFE9FFFE0EDBCFEAFF070EE92666
:101A2000000EEA22EF50E66EFD0EDBCFE9FFFE0E60
:101A3000DBCFEAFF080EE926000EEA22E552E75066
:101A4000EF6EFD0EDBCFE9FFFE0EDBCFEAFF070EE8
:101A5000E926000EEA22EF50E66EFD0EDBCFE9FF2D
:101A6000FE0EDBCFEAFF090EE926000EEA22E55260
:101A7000E750EF6EFD0EDBCFE9FFFE0EDBCFEAFF96
:101A8000020EE926000EEA22FB0EDBCFEEFFFC0E73
:101A9000DBCFEDFFFD0EDBCFE9FFFE0EDBCFEAFF74
:101AA000040EE926000EEA22DECFEEFFDDCFEDFFC9
:101AB000F56E0A0EE15C03E200D0E16AE552E16EE8
:0A1AC000F550E552E7CFD9FF120000
:061ACA00D9CFE6FFE1CFD9
:101AD000D9FF030EE126C00EF214E76E020EE7CF27
:101AE000DBFF3F0EF216FD0EDBCFE9FFFE0EDBCF74
:101AF000EAFF020EE926000EEA22EE50ED1001E0A8
:101B00000DD0300EE66EE66A170EE66E3A0EE66E01
:101B100093EC1BF0E552E552E552E552FD0EDBCFAA
:101B2000E9FFFE0EDBCFEAFF020EE926000EEA22F5
:101B3000EECFDEFFEDCFDDFFFD0EDBCFE9FFFE0ECA
:101B4000DBCFEAFF020EE926000EEA22070EE926A5
:101B5000000EEA22EFCF10F0FD0EDBCFE9FFFE0E04
:101B6000DBCFEAFF020EE926000EEA22040EE92688
:101B7000000EEA22EF50105C01E18BD0FD0EDBCFAE
:101B8000E9FFFE0EDBCFEAFF020EE926000EEA2295
:101B9000060EE926000EEA22EF34136AFE0B133616
:101BA000126EFD0EDBCFE9FFFE0EDBCFEAFF020E69
:101BB000E926000EEA22020EE926000EEA22125061
:101BC000EE24E76E1350EE20EA6EE7CFE9FFEECF8A
:101BD00010F0EFCF11F0FD0EDBCFE9FFFE0EDBCFF3
:101BE000EAFF020EE926000EEA2210C0EEFF11C045
:101BF000EDFFFD0EDBCFE9FFFE0EDBCFEAFF020EAD
:101C0000E926000EEA22060EE926000EEA22EF502F
:101C100021E1FD0EDBCFE9FFFE0EDBCFEAFF020E76
:101C2000E926000EEA22040EE926000EEA22EF5011
:101C3000E66EFD0EDBCFE9FFFE0EDBCFEAFF020E04
:101C4000E926000EEA22060EE926000EEA22E552F7
:101C5000E750EF6EFD0EDBCFE9FFFE0EDBCFEAFFB4
:101C6000020EE926000EEA22060EE926000EEA22FE
:101C7000EF06FD0EDBCFE9FFFE0EDBCFEAFF020E23
:101C8000E926000EEA22070EE926000EEA22EF2AD4
:101C900021D0FD0EDBCFE9FFFE0EDBCFEAFF020E07
:101CA000E926000EEA22EE6AED6AFD0EDBCFE9FFBF
:101CB000FE0EDBCFEAFF0B0EE926000EEA22EF5004
:101CC000F76A8B0FF66E340EF7220800F550050107
:101CD000D01700D0020EDB50F212DECF10F0DDCFB5
:101CE00011F010C0F3FF11C0F4FFF56E030EE15CBC
:101CF00003E200D0E16AE552E16EF550E552E7CF2C
:101D0000D9FF1200D9CFE6FFE1CFD9FF050EE126BA
:101D1000FE0EDB5008080EE3FE0EEA6ADB34FE0B13
:101D2000EA36E96E970EE926050EEA22EE50ED102E
:101D300001E00DD05A0EE66EE66A170EE66E3A0E18
:101D4000E66E93EC1BF0E552E552E552E552C00E0B
:101D5000F214E76E040EE7CFDBFF3F0EF216FE0E25
:101D6000EA6ADB34FE0BEA36E96E970EE926050EC9
:101D7000EA22EE50EFCFEAFFE96E020EE926000EEE
:101D8000EA22080EE926000EEA22EFCF10F010C07A
:101D9000DFFF010EDB6A020EDB6A030EDB6A040E54
:101DA000DB50F212DECF04F0DECF05F0DECF06F01E
:101DB000DDCF07F0DD52DD52F56E050EE15C03E28A
:101DC00000D0E16AE552E16EF550E552E7CFD9FF68
:021DD0001200FF
:0E1DD200D9CFE6FFE1CFD9FF0F0EE126FD0EBF
:101DE000DBCFE9FFFE0EDBCFEAFFEECF10F0EFCF47
:101DF00011F0FB0EDBCFE6FFFC0EDBCFE6FFFD0EA6
:101E0000DBCFE6FFFE0EDBCFE6FF05D011C0FAFF09
:101E100000011050F96EFADFE552E552E552E55245
:101E2000020801E10DD02D0EE66EE66AD40EE66ED4
:101E3000390EE66E93EC1BF0E552E552E552E552A1
:101E40007C0EDE6E390EDD6E0E0EDB6AFD0EDBCF14
:101E5000E9FFFE0EDBCFEAFF020EEECFDBFF030E43
:101E6000EDCFDBFFFD0EDBCFE9FFFE0EDBCFEAFFA0
:101E7000EECF10F0EFCF11F0BE0EE66E050EE66E5F
:101E8000FD0EDBCFE6FFFE0EDBCFE6FF05D011C077
:101E9000FAFF00011050F96EFADFE552E552E55203
:101EA000E552FD0EDBCFE9FFFE0EDBCFEAFFEECF02
:101EB00010F0EFCF11F0DF50101803E1DE52DD50CB
:101EC000111843E0FD0EDBCFE9FFFE0EDBCFEAFF8A
:101ED000EECF14F0EFCF15F0D950020F106EDACF1D
:101EE00011F00E0EDB2ADBCF12F0136A12BE13685C
:101EF000D8901236133610501224E96E1150132068
:101F0000EA6E14C0EEFF15C0EDFFFD0EDBCFE9FF5A
:101F1000FE0EDBCFEAFFEECF10F0EFCF11F0BE0EDA
:101F2000E66E050EE66EFD0EDBCFE6FFFE0EDBCFA6
:101F3000E6FF05D011C0FAFF00011050F96EFADF7C
:101F4000E552E552E552E552ACD7FD0EDBCFE9FF95
:101F5000FE0EDBCFEAFF020EDBCFEEFF030EDBCF80
:101F6000EDFF0E0EDBCF10F0060EE76E1018E8AE98
:101F700002D0E73402D0E750105C01E20DD0430EEE
:101F8000E66EE66AD40EE66E390EE66E93EC1BF052
:101F9000E552E552E552E552D950020F126EDACF02
:101FA00013F00E0EDBCF14F0156A14BE1568D8902E
:101FB0001436153612501424E96E13501520EA6EAB
:101FC000EECF10F0EFCF11F0C00EE66E050EE66E0C
:101FD000FD0EDBCFE6FFFE0EDBCFE6FF04D011C027
:101FE000FAFF1050F96EFBDFE552E552E552E5527B
:101FF000000901E100D00E0EDB06DBCF10F010343B
:10200000CBE3020EDBCFDEFFDBCFDDFFDECF10F058
:10201000DDCF11F0C40EE66E050EE66EFD0EDBCFD1
:10202000E6FFFE0EDBCFE6FF04D011C0FAFF105032
:10203000F96EFBDFE552E552E552E552020801E197
:1020400003D7FD0EDBCFE9FFFE0EDBCFEAFFDECFCD
:10205000EEFFDDCFEDFFF56E0F0EE15C03E200D089
:10206000E16AE552E16EF550E552E7CFD9FF120083
:10207000D9CFE6FFE1CFD9FFE652C00EF214DF6EF2
:102080003F0EF216FB0EDBCFE9FFFC0EDBCFEAFFC3
:10209000EE52EF5009E000D0FB0EDBCFE9FFFC0E63
:1020A000DBCFEAFFEE52EF2AFD0EDBCFE9FFFE0E9B
:1020B000DBCFEAFF020EE926000EEA22EE50ED1019
:1020C00025E1FD0EDBCFE9FFFE0EDBCFEAFF020EBE
:1020D000E926000EEA22FB0EDBCFEEFFFC0EDBCF83
:1020E000EDFFFD0EDBCFE9FFFE0EDBCFEAFF0B0EAF
:1020F000E926000EEA22EF50F76A4A0FF66E340E18
:10210000F7220800F5500501D013DFD0FD0EDBCF1C
:10211000E9FFFE0EDBCFEAFF020EE926000EEA22FF
:10212000070EE926000EEA22EF5001E00DD0450E21
:10213000E66EE66A1F0EE66E3A0EE66E93EC1BF054
:10214000E552E552E552E552FD0EDBCFE9FFFE0E0A
:10215000DBCFEAFF020EE926000EEA22050EE92691
:10216000000EEA22EF34116AFE0B1136106EFD0EDE
:10217000DBCFE9FFFE0EDBCFEAFF020EE926000E01
:10218000EA22020EE926000EEA221050EE24E76E43
:102190001150EE20EA6EE7CFE9FFFB0EDBCFEEFF3A
:1021A000FC0EDBCFEDFFFD0EDBCFE9FFFE0EDBCF3C
:1021B000EAFF020EE926000EEA22050EE926000ECD
:1021C000EA22EF5021E1FD0EDBCFE9FFFE0EDBCF6F
:1021D000EAFF020EE926000EEA22040EE926000EAE
:1021E000EA22EF50E66EFD0EDBCFE9FFFE0EDBCFFD
:1021F000EAFF020EE926000EEA22050EE926000E8D
:10220000EA22E552E750EF6EFD0EDBCFE9FFFE0E4E
:10221000DBCFEAFF020EE926000EEA22050EE926D0
:10222000000EEA22EF06FD0EDBCFE9FFFE0EDBCF4C
:10223000EAFF020EE926000EEA22070EE926000E4A
:10224000EA22EF06FD0EDBCFE9FFFE0EDBCFEAFF51
:10225000020EE926000EEA22080EE926000EEA2206
:10226000EFCF10F0FD0EDBCFE9FFFE0EDBCFEAFF74
:10227000020EE926000EEA22070EE926000EEA22E7
:10228000EF50D880105421E2FD0EDBCFE9FFFE0EA7
:10229000DBCFEAFF020EE926000EEA22070EE9264E
:1022A000000EEA22EF50E66EFD0EDBCFE9FFFE0ED8
:1022B000DBCFEAFF020EE926000EEA22080EE9262D
:1022C000000EEA22E552E750EF6EDF50F212E552BF
:0822D000E552E7CFD9FF12002F
:0822D800AD0E106E390E116EFF
:1022E00010C0F3FF11C0F4FF00D01200120061EF24
:1022F0001BF0D9CFE6FFE1CFD9FF060EE12657EC60
:102300001BF0C00EF214E76E050EE7CFDBFF3F0EA9
:10231000F2160501D05150E0D051F76A700FF66EF9
:10232000320EF7220800F550DF6EEA6ADF34FE0B4A
:10233000EA36E96E970EE926050EEA22010EEECF87
:10234000DBFF020EEDCFDBFF050EDB50F212010EBC
:10235000DBCFE6FF020EDBCFE6FF65EC0DF0E552CA
:10236000E552030EF3CFDBFF040EF4CFDBFF030EC9
:10237000DBCFE6FF040EDBCFE6FF010EDBCFE9FF8C
:10238000020EDBCFEAFFE9CF10F0EACF11F010C068
:10239000E6FF11C0E6FF2EEC00F0E552E552E552F3
:1023A000E552030EDBCFE6FF040EDBCFE6FFB5EC14
:1023B00018F0E552E55206D0050EDBCFE6FF62ECE1
:1023C0001BF0E5529ED7F56E060EE15C02E2E16A73
:1023D000E552E16EF550E552E7CFD9FF1200D9CFB3
:1023E000E6FFE1CFD9FF106AFC0EDB50105C0EE275
:1023F000FC0EDB5008080AE3D950F40FE96EFF0E1B
:10240000DA20EA6EEE50ED1001E10DD0670EE66EB7
:10241000E66AA40EE66E390EE66E93EC1BF0E5520A
:10242000E552E552E552F60EDBCFE6FFFA0EDBCFC2
:10243000E6FFFB0EDBCFE6FFFD0EDBCFE9FFFE0E76
:10244000DBCFEAFF020EE926000EEA22E9CF10F008
:10245000EACF11F010C0E6FF11C0E6FFE8EC1AF079
:10246000F56E050EE15EF550FD0EDBCFE9FFFE0EC9
:10247000DBCFEAFF0B0EE926000EEA22FC0EDBCFD3
:10248000EFFFFD0EDBCFE6FFFE0EDBCFE6FF6BECD2
:1024900014F0E552E552EE0EDBCFE6FFEF0EDBCF98
:1024A000E6FFFD0EDBCFE9FFFE0EDBCFEAFFE9CF53
:1024B00010F0EACF11F010C0E6FF11C0E6FFE9EC22
:1024C0000EF0E552E552E552E552E552E7CFD9FF6D
:1024D0001200D9CFE6FFE1CFD9FFFD0EDBCFE6FF3B
:1024E000FE0EDBCFE6FFC5EC14F0E552E552E552F7
:0624F000E7CFD9FF120046
:0A24F600D9CFE6FFE1CFD9FF030EB6
:10250000E126C00EF214E76E020EE7CFDBFF3F0EAE
:10251000F21600D0FEC0DEFFFFC0DDFFD9CFE9FF1D
:10252000DACFEAFFEE50ED1001E1D7D0DECFE9FFC0
:10253000DDCFEAFF080EE926000EEA22EE06ED5A8C
:10254000EECF10F0EDCF11F01050111001E0ABD034
:10255000DECFE9FFDDCFEAFF0A0EE926000EEA2210
:10256000EE50ED1019E0DECFE9FFDDCFEAFF0A0EF5
:10257000E926000EEA22EECF10F0EFCF11F0DECF09
:10258000E9FFDDCFEAFF080EE926000EEA2210C0BF
:10259000EEFF11C0EDFF6CD0DECF10F0DDCF11F0FB
:1025A0000001FE51101802E1FF5111180DE1DECFBC
:1025B000E9FFDDCFEAFF040EE926000EEA22EECFA6
:1025C000FEF0EDCFFFF04BD0DECFE9FFDDCFEAFF2D
:1025D000040EE926000EEA22EE50ED1020E0DECFD8
:1025E000E9FFDDCFEAFF020EE926000EEA22EECF78
:1025F00010F0EFCF11F0DECFE9FFDDCFEAFF040EE0
:10260000E926000EEA22EE50EFCFEAFFE96E020E55
:10261000E926000EEA2210C0EEFF11C0EDFFDECF6A
:10262000E9FFDDCFEAFF040EE926000EEA22EECF35
:1026300010F0EFCF11F0DECFE9FFDDCFEAFF020EA1
:10264000E926000EEA22EE50EFCFEAFFE96E040E13
:10265000E926000EEA2210C0EEFF11C0EDFFDECF2A
:10266000E9FFDDCFEAFF020EEB6A030EEB6A00D052
:1026700000D0020EDB50F212DECFE6FFDDCFE6FF28
:10268000DECFE9FFDDCFEAFF060EE926000EEA22E3
:10269000EECFE6FFEFCFE6FF38EC10F0E552E55263
:1026A000E552E55205D0020EDB50F2120501D16B66
:1026B000C00EF214E76E020EE7CFDBFF3F0EF216FC
:1026C000DECFE9FFDDCFEAFF040EE926000EEA22A5
:1026D000EECFDEFFEDCFDDFF21D7020EDB50F21291
:1026E000F56E030EE15C02E2E16AE552E16EF5503F
:0826F000E552E7CFD9FF12000B
:0826F800D9CFE6FFE1CFD9FFC5
:10270000030EE126C00EF214E76E020EE7CFDBFFE8
:102710003F0EF216FD0EDBCFE9FFFE0EDBCFEAFF28
:10272000EECFDEFFEDCFDDFFD9CFE9FFDACFEAFF55
:10273000EE50ED1050E0DECFE9FFDDCFEAFFEECF47
:1027400010F0EFCF11F0FD0EDBCFE9FFFE0EDBCF77
:10275000EAFF10C0EEFF11C0EDFFFD0EDBCFE9FF79
:10276000FE0EDBCFEAFF080EE926000EEA22EF0696
:10277000FD0EDBCFE9FFFE0EDBCFEAFF090EE926F7
:10278000000EEA22EFCF10F0FD0EDBCFE9FFFE0EC8
:10279000DBCFEAFF080EE926000EEA22EF50D880D0
:1027A000105419E2FD0EDBCFE9FFFE0EDBCFEAFF8E
:1027B000080EE926000EEA22EF50E66EFD0EDBCF92
:1027C000E9FFFE0EDBCFEAFF090EE926000EEA2242
:1027D000E552E750EF6E020EDB50F212DECF10F042
:1027E000DDCF11F010C0F3FF11C0F4FFF56E030E42
:1027F000E15C03E200D0E16AE552E16EF550E5529A
:10280000E7CFD9FF1200D9CFE6FFE1CFD9FF050E00
:10281000E126010E106EFE0EDB50D880105409E345
:10282000FE0EDBCF11F005017F51D880115401E37A
:102830000DD0450EE66EE66A070EE66E3A0EE66EBF
:1028400093EC1BF0E552E552E552E552C00EF2144E
:10285000E76E040EE7CFDBFF3F0EF216FE0EDB0441
:102860000A0DF3CFE9FFF4CFEAFF610EE926050E6A
:10287000EA22090EE926000EEA22EFCF10F010C07E
:10288000DFFF010EDB6A020EDB6A030EDB6A040E59
:10289000DB50F212DECF04F0DECF05F0DECF06F023
:1028A000DDCF07F0DD52DD52F56E050EE15C03E28F
:1028B00000D0E16AE552E16EF550E552E7CFD9FF6D
:0228C000120004
:0E28C200BB0E106E390E116E10C0F3FF11C068
:1028D000F4FF00D01200D9CFE6FFE1CFD9FF020EFE
:1028E000E126FD0EDBCFE9FFFE0EDBCFEAFF0B0E8C
:1028F000E926000EEA22EFCFDFFF106ADF50105CFE
:1029000010E2DF5008080DE3EA6ADF34FE0BEA3616
:10291000E96E970EE926050EEA22EE50ED1001E170
:102920000DD0380EE66EE66AB40EE66E390EE66E2F
:1029300093EC1BF0E552E552E552E552C00EF2145D
:10294000E76E010EE7CFDBFF3F0EF216EA6ADF34D7
:10295000FE0BEA36E96E970EE926050EEA22FD0E19
:10296000DBCFEEFFFE0EDBCFEDFF010EDB50F212F0
:10297000F56E020EE15C03E200D0E16AE552E16E21
:10298000F550E552E7CFD9FF1200D9CFE6FFE1CFEE
:10299000D9FF020EE126FD0EDBCFE9FFFE0EDBCFF5
:1029A000EAFF0B0EE926000EEA22EFCFDFFF106AE6
:1029B000DF50105C19E2DF50080816E3EA6ADF34E2
:1029C000FE0BEA36E96E970EE926050EEA22EECFF7
:1029D00011F0EFCF12F0FD0EDB50111803E1FE0EE7
:1029E000DB50121801E10DD04C0EE66EE66AB40E13
:1029F000E66E390EE66E93EC1BF0E552E552E552B9
:102A0000E552C00EF214E76E010EE7CFDBFF3F0E7A
:102A1000F216EA6ADF34FE0BEA36E96E970EE92613
:102A2000050EEA22EE6AED6A010EDB50F212F56E37
:102A3000020EE15C03E200D0E16AE552E16EF5507E
:082A4000E552E7CFD9FF1200B7
:082A4800D9CFE6FFE1CFD9FF71
:102A5000030EE126FD0EDBCFE9FFFE0EDBCFEAFF22
:102A6000EECF10F0EFCF11F00501CD510001105C59
:102A700001E20DD02C0EE66EE66AE60EE66E390E29
:102A8000E66E93EC1BF0E552E552E552E552C00EBE
:102A9000F214DF6E3F0EF216FD0EDBCFE9FFFE0EE5
:102AA000DBCFEAFFEE52EF5009E000D0FD0EDBCFA6
:102AB000E9FFFE0EDBCFEAFFEE52EF2ADF50F21203
:102AC000FD0EDBCFE9FFFE0EDBCFEAFFEF50050185
:102AD000EA6ACB25E96ECC51EA22010EEFCFDBFF8B
:102AE000010EDB5050E0010EDB50F76A700FF66EFE
:102AF000320EF7220800020EF5CFDBFFDB50F76A3B
:102B00008B0FF66E340EF722010EDBCFE7FF0800C5
:102B1000F550E716010EE7CFDBFF020EEA6ADB3461
:102B2000FE0BEA36E96E970EE926050EEA22EE5014
:102B3000ED1001E00DD0440EE66EE66AE60EE66E9C
:102B4000390EE66E93EC1BF0E552E552E552E55284
:102B5000FD0EDBCFE6FFFE0EDBCFE6FF020EEA6ADC
:102B6000DB34FE0BEA36E96E970EE926050EEA2203
:102B7000EECFE6FFEFCFE6FF38EC10F0E552E5527E
:102B8000E552E552ADD7FD0EDBCFE6FFFE0EDBCF03
:102B9000E6FFB5EC18F0E552E552F56E030EE15C88
:102BA00002E2E16AE552E16EF550E552E7CFD9FF66
:022BB000120011
:0E2BB200D9CFE6FFE1CFD9FFE652D950F90F97
:102BC000E96EFF0EDA20EA6E000ED880EE54000E99
:102BD000ED5425E2FD0EDBCFE9FFFE0EDBCFEAFF71
:102BE000EECF10F0EFCF11F0040E0001105C17E3F0
:102BF000FD0EDBCFE9FFFE0EDBCFEAFF020EE9267A
:102C0000000EEA22EE50ED100AE1D950FB0FE96EFA
:102C1000FF0EDA20EA6EEE50ED1001E00DD0300E1E
:102C2000E66EE66AF70EE66E390EE66E93EC1BF082
:102C3000E552E552E552E552FD0EDBCFE9FFFE0E0F
:102C4000DBCFEAFF080EE926000EEA22F90EDBCF01
:102C5000EEFFFA0EDBCFEDFFFD0EDBCFE9FFFE0E40
:102C6000DBCFEAFF020EE926000EEA22FD0EDBCFE3
:102C7000EEFFFE0EDBCFEDFFFD0EDBCFE9FFFE0E1C
:102C8000DBCFEAFF060EE926000EEA22FB0EDBCFC1
:102C9000EEFFFC0EDBCFEDFFC00EF214DF6E3F0E39
:102CA000F216FD0EDBCFE9FFFE0EDBCFEAFF040ECE
:102CB000E926000EEA22FEC0EEFFFFC0EDFF000194
:102CC000FE51FF110FE000D0FEC0E9FFFFC0EAFF98
:102CD000020EE926000EEA22FD0EDBCFEEFFFE0E0D
:102CE000DBCFEDFFFD0EDBCFFEF0FE0EDBCFFFF006
:0E2CF000DF50F212E552E552E7CFD9FF120095
:022CFE00D9CF2C
:102D0000E6FFE1CFD9FFE652FD0EDBCFE9FFFE0E75
:102D1000DBCFEAFF020EE926000EEA22EECF10F02A
:102D2000EFCF11F0FB0EDBCF12F0FC0EDBCF13F078
:102D30001050125C1150135834E3FB0EDBCF14F02B
:102D4000FC0EDBCF15F0FD0EDBCFE9FFFE0EDBCF77
:102D5000EAFF040EE926000EEA22EECF16F0EFCFCE
:102D600017F01450165C155017581BE3FD0EDBCFFF
:102D7000E9FFFE0EDBCFEAFF080EE926000EEA228D
:102D8000EFCF18F0FD0EDBCFE9FFFE0EDBCFEAFF41
:102D9000070EE926000EEA22EF50D880185401E30E
:102DA0000DD02D0EE66EE66AFF0EE66E390EE66E6B
:102DB00093EC1BF0E552E552E552E552C00EF214D9
:102DC000DF6E3F0EF216FD0EDBCFE9FFFE0EDBCF0E
:102DD000EAFFEECF10F0EFCF11F0FB0EDBCFE9FFF3
:102DE000FC0EDBCFEAFF10C0EEFF11C0EDFFFD0EC1
:102DF000DBCFE9FFFE0EDBCFEAFFFB0EDBCFEEFF02
:102E0000FC0EDBCFEDFFFD0EDBCFE9FFFE0EDBCFCF
:102E1000EAFF080EE926000EEA22EF2A00D0DF5072
:0C2E2000F212E552E552E7CFD9FF120094
:042E2C00D9CFE6FF15
:102E3000E1CFD9FF030EE126020EDB6AFE0EDBCFE7
:102E400010F0020EDB500A0DF3CFE9FFF4CFEAFFDA
:102E5000610EE926050EEA22060EE926000EEA2298
:102E6000EF50D88010541AE2020EDB2A05017F5180
:102E7000F36E020EDBCFF4FFF350F45C01E20DD0F1
:102E8000300EE66EE66A2F0EE66E3A0EE66E93ECB4
:102E90001BF0E552E552E552E552D0D7020EDB5069
:102EA0000A0DF3CF10F0F4CF11F0610E1026050ECD
:102EB000112210C0E6FF11C0E6FF7CEC13F0E552D2
:102EC000E552F3CFDEFFF4CFDDFFD9CFE9FFDACF54
:102ED000EAFFEE50ED1001E00DD03A0EE66EE66A24
:102EE0002F0EE66E3A0EE66E93EC1BF0E552E552BD
:102EF000E552E552DECFE9FFDDCFEAFFFD0EDBCF85
:102F0000EFFF020EDB28400DF350E66EDECFE9FF47
:102F1000DDCFEAFFEE52E552E750EF6EDECF10F064
:102F2000DDCF11F010C0F3FF11C0F4FFF56E030EFA
:102F3000E15C03E200D0E16AE552E16EF550E55252
:062F4000E7CFD9FF1200EB
:0A2F4600D9CFE6FFE1CFD9FF030E5B
:102F5000E126FD0EDBCFE9FFFE0EDBCFEAFF0B0E15
:102F6000E926000EEA22EFCFDFFFDF50F76ACC0F31
:102F7000F66E340EF7220800010EF5CFDBFF040ECB
:102F8000106EFC0EDB50D880105426E30501CD51A5
:102F9000F36EFC0EDBCFF4FFF350F45C1DE2116A1C
:102FA000DF50115C19E2DF50080816E3EA6ADF34EB
:102FB000FE0BEA36E96E970EE926050EEA22EECF01
:102FC00012F0EFCF13F0FD0EDB50121803E1FE0EEE
:102FD000DB50131801E10DD0300EE66EE66A3D0EAF
:102FE000E66E3A0EE66E93EC1BF0E552E552E552C2
:102FF000E552C00EF214E76E020EE7CFDBFF3F0E84
:10300000F216DF50F76A4A0FF66E340EF722080008
:10301000F5CF12F0FC0EDB500501EA6ACB25E96E14
:10302000CC51EA22E9CF10F0EACF11F0010EDB50CB
:103030000F011024E96E000E1120EA6E1250EF12FB
:10304000020EDB50F212F56E030EE15C03E200D0DB
:10305000E16AE552E16EF550E552E7CFD9FF120083
:10306000D9CFE6FFE1CFD9FFE652B9EC08F0F0EC9A
:1030700004F046EC1BF076EC11F0070EE66E3C0E09
:10308000E66E050EE66E91EC1CF0E552E552E55257
:10309000030EE66E1E0EE66EE66AE66AE66A430E0A
:1030A000E66E050EE66EB8EC19F0F56E070EE15E01
:1030B000F550DF6A050EDF5C33E2000EE66EE66A6D
:1030C000E66AE66AE66AE66AE66EE66A050EE66EB5
:1030D000E66AE66AE66ADF500A0DF3CF10F0F4CF35
:1030E00011F00A0E1026050E112210C0E6FF11C0C5
:1030F000E6FFDF28E66EEA6ADF34FE0BEA36E96EA9
:10310000B40EE926050EEA22EECFE6FFEFCFE6FF8A
:10311000EFEC11F0F56E110EE15EF550DF2ACAD723
:10312000000EE66EE66AE66AE66AE66AE66AE66E59
:10313000E66A050EE66EE66AE66AE66A000EE66E86
:10314000050EE66E060EE66ECEC5E6FFCFC5E6FFBF
:10315000EFEC11F0F56E110EE15EF55079EC11F027
:0A316000E552E552E7CFD9FF120057
:06316A00D9CFE6FFE1CF22
:10317000D9FF020EE126FD0EDBCFE9FFFE0EDBCF0D
:10318000EAFFEE52EF5068E0C00EF214DF6E3F0E21
:10319000F216FD0EDBCFE9FFFE0EDBCFEAFFEE52AB
:1031A000EF503F0B01080BE2FD0EDBCFE9FFFE0EF7
:1031B000DBCFEAFFEE52EF06DF50F2124DD0FD0EEC
:1031C000DBCFE9FFFE0EDBCFEAFFEECF10F0EFCF53
:1031D00011F0060E11C0E7FF070B04E0E742E79E7F
:1031E000E806FCE1E750FF0FE76E010EE7CFDBFFDB
:1031F000DF50F21205017F51F36E010EDBCFF4FFB9
:10320000F350F45C01E20DD0490EE66EE66A440E1E
:10321000E66E3A0EE66E93EC1BF0E552E552E5528F
:10322000E552FD0EDBCFE6FFFE0EDBCFE6FF010E23
:10323000DB500A0DF3CF10F0F4CF11F0610E102621
:10324000050E112210C0E6FF11C0E6FF7FEC16F05C
:10325000E552E552E552E552F56E020EE15C02E2FE
:10326000E16AE552E16EF550E552E7CFD9FF120071
:10327000000102020303030304040404040404041D
:1032800005050505050505050505050505050505EE
:1032900006060606060606060606060606060606CE
:1032A00006060606060606060606060606060606BE
:1032B000070707070707070707070707070707079E
:1032C000070707070707070707070707070707078E
:1032D000070707070707070707070707070707077E
:1032E000070707070707070707070707070707076E
:1032F000080808080808080808080808080808084E
:10330000080808080808080808080808080808083D
:10331000080808080808080808080808080808082D
:10332000080808080808080808080808080808081D
:10333000080808080808080808080808080808080D
:1033400008080808080808080808080808080808FD
:1033500008080808080808080808080808080808ED
:1033600008080808080808080808080808080808DD
:10337000D9CFE6FFE1CFD9FF030E05017F5D01E262
:103380000DD02E0EE66EE66A0F0EE66E3A0EE66E73
:1033900093EC1BF0E552E552E552E55205017F51F1
:1033A00014E07F050A0DF3CFE9FFF4CFEAFF610EC9
:1033B000E926050EEA22060EE926000EEA22EFCFE4
:1033C00010F0F80EDB50105C01E20DD0310EE66E0D
:1033D000E66A0F0EE66E3A0EE66E93EC1BF0E552CF
:1033E000E552E552E552F80EDBCFE6FFD950F90F72
:1033F000E96EFF0EDA20EA6EEECFE6FFEECFE6FFD3
:10340000EECFE6FFEFCFE6FFFD0EDBCFE6FFFE0ED1
:10341000DBCFE6FF05017F510A0DF3CF10F0F4CFAB
:1034200011F0610E1026050E112210C0E6FF11C02A
:10343000E6FF6AEC0BF0F56E090EE15EF550050152
:0A3440007F2BE552E7CFD9FF120001
:06344A000001020408105D
:10345000204080010204081020408001020408106E
:10346000204080010204081020408001020408105E
:10347000204080010204081020408001020408104E
:103480002040800102040810204080FFFEFDFBF771
:10349000EFDFBF7FFEFDFBF7EFDFBF7FFEFDFBF73A
:1034A000EFDFBF7FFEFDFBF7EFDFBF7FFEFDFBF72A
:1034B000EFDFBF7FFEFDFBF7EFDFBF7FFEFDFBF71A
:1034C000EFDFBF7FFEFDFBF7EFDFBF7F00000000F7
:1034D00000000000000101010101010101020202DE
:1034E00002020202020303030303030303040404AE
:1034F000040404040405050505050505050606067E
:0D3500000606060606070707070707070768
:02350E00D9CF13
:10351000E6FFE1CFD9FF040EF36EFC0EDBCFF4FF24
:10352000F350F45C01E30DD0290EE66EE66AC20E9C
:10353000E66E390EE66E93EC1BF0E552E552E5526D
:10354000E552FD0EDBCFE9FFFE0EDBCFEAFF020EF8
:10355000EB6A030EEB6AFD0EDBCFE9FFFE0EDBCF5D
:10356000EAFF040EEB6A050EEB6AFD0EDBCFE9FF06
:10357000FE0EDBCFEAFF060EEB6A070EEB6AFD0ECE
:10358000DBCFE9FFFE0EDBCFEAFF080EEB6A090E88
:10359000EB6AFD0EDBCFE9FFFE0EDBCFEAFF0A0E82
:1035A000EB6A0B0EEB6AFD0EDBCFE9FFFE0EDBCF05
:1035B000EAFFFC0EDBCFEFFFFD0EDBCFE9FFFE0ED7
:1035C000DBCFEAFFEE52EF6AE552E7CFD9FF1200F8
:1035D000D9CFE6FFE1CFD9FFFD0EDBCFE9FFFE0E2D
:1035E000DBCFEAFFEE6AED6AFD0EDBCFE9FFFE0EF0
:1035F000DBCFEAFF020EE926000EEA22FB0EDBCF4C
:10360000EEFFFC0EDBCFEDFFFD0EDBCFE9FFFE0E84
:10361000DBCFEAFF040EE926000EEA22FA0EDBCF2A
:10362000EFFFFD0EDBCFE9FFFE0EDBCFEAFF050E5D
:10363000E926000EEA22EF6AFD0EDBCFE9FFFE0E5F
:10364000DBCFEAFF060EE926000EEA22EF6AFD0E46
:10365000DBCFE9FFFE0EDBCFEAFF070EE926000E07
:10366000EA22FA0EDBCFEFFFFD0EDBCFE9FFFE0E05
:10367000DBCFEAFF080EE926000EEA22FA0EDBCFC6
:0C368000EFFF00D0E552E7CFD9FF1200A9
:04368C00936A8A6A49
:10369000D08E0CD03E0EE66EE66A4A0EE66E3A0E0C
:1036A000E66E41D8E552E552E552E5521200CF6A86
:1036B000010ECE6E8F0ECD6E9F809D80C00EF212D9
:1036C00012001200D9CFE6FFE1CFD9FFFE0EDB508A
:1036D000F212E552E7CFD9FF1200D9CFE6FFE1CFD2
:1036E000D9FFFC0EDBCFF6FFFD0EDBCFF7FF0800A6
:1036F000F55065080AE1FE0EDB50EA6AC60FE96E76
:10370000050EEA22EF508A1209D0FE0EDB50EA6A5B
:10371000C60FE96E050EEA22EF1C8A1600D0E552AC
:10372000E7CFD9FF1200D9CFE6FFE1CFD9FF3F0E97
:0C373000F216FFD7E552E7CFD9FF1200D8
:04373C00DACFE4FFFD
:10374000E2CFDAFFE9CFE4FFEACFE4FFF6CFE4FF10
:10375000F7CFE4FFF5CFE4FFF3CFE4FFF4CFE4FFCE
:10376000FACFE4FF00EE00F0100EE80403E3EECF22
:10377000E4FFFBD700EE10F0090EE80403E3EECF00
:10378000E4FFFBD7E6529EA007D09E90F90ECF6EC5
:103790009A0ECE6E7BEC12F0E55200EE18F0090E98
:1037A000E80403E3E5CFEDFFFBD700EE0FF0100ECA
:1037B000E80403E3E5CFEDFFFBD7E5CFFAFFE5CF64
:1037C000F4FFE5CFF3FFE5CFF5FFE5CFF7FFE5CF5A
:1037D000F6FFE5CFEAFFE5CFE9FFE5CFDAFF11001D
:1037E0002A0EF66E000EF76E000EF86E0501090047
:1037F000F550AF6F0900F550B06F03E1AF6701D02E
:103800003DD00900F550AA6F0900F550AB6F0900D3
:10381000F550AC6F09000900F550E96E0900F5504C
:10382000EA6E090009000900F550AD6F0900F55076
:10383000AE6F09000900F6CFB1F5F7CFB2F5F8CFBA
:10384000B3F5AAC5F6FFABC5F7FFACC5F8FF050198
:10385000AD5302E1AE5307E00900F550EE6EAD073F
:10386000F8E2AE07F9D7B1C5F6FFB2C5F7FFB3C5A9
:0E387000F8FF0501AF07000EB05BBFD71200D6
:02387E000E6AD0
:103880000CAE48EF1CF00B6C0C1EE86A0C220E1EEE
:1038900007AE50EF1CF0066C071EE86A07220E1EEA
:1038A0007BEC1CF007BE60EF1CF00EAE000C066C4B
:1038B000071EE86A0722026C031EE86A0322000C56
:0A38C0000EBE57EF1CF00F88FF0C3E
:0638CA0014EE00F024EEF4
:1038D00000F0F86A0F9CFF0EE96E0E0EEA6E010E04
:1038E000006E000EED6E0052FDE1F0EC1BF030ECCE
:0638F00018F0FDD71200E4
:0A38F600036A026A100EE76ED89014
:1039000006360736023603360B50025C0C5003585D
:1039100005E30B50025E0C50035A062AE72EF0D73F
:02392000120093
:0E392200D9CFE6FFE1CFD9FFFD0EDBCFCBF50D
:10393000FE0EDBCFCCF5FC0EDBCFCDF5E552E7CFAD
:04394000D9FF120099
:0C394400036A080EE76ED89007360336C1
:103950000C50035C02E3036E072AE72EF7D7120030
:103960007468696E6B696E6700656174696E672063
:0B397000200068756E6772792020004F
:04397C00D9CFE6FFBA
:10398000E1CFD9FF010E00D0E552E7CFD9FF1200F9
:10399000360E106E3A0E116E10C0F3FF11C0F4FF18
:0439A00000D0120041
:0C39A4007176616E696C6C6100342E302D
:0439B0002E30300085
:0C39B40071665F61637400342E302E30A9
:0239C0003100D4
:0939C2007174655F63746F72009B
:0539CB00716D705F69E1
:0439D0006E697400A8
:0939D4007168736D5F696E690092
:0339DD007168739B
:0639E0006D5F64697300D5
:0939E60071665F70737075620078
:0139EF007463
:0739F00061626C652E6300AB
:0839F7007174655F61726D00DF
:0139FF007156
:073A00006D705F707574002A
:083A0700716D705F67657400CA
:013A0F007145
:073A1000665F706F6F6C0030
:083A170071615F6765745F00D7
:013A1F007135
:073A2000615F6669666F003B
:083A27007068696C6F2E6300EA
:013A2F007125
:063A3000665F6E65770081
:073A3600342E302E30300069
:033A3D0071615F55
:043A40007375620038
:063A440071665F6763007C
:063A4A006273702E6300A0
:023A50008005EF
:083A5200000001000200030066
:063A5A0080009900B2009B
:043A6000CB00E400B3
:053A640001020408004E
:00000001FF
