:10000000980700207D0B0000610B0000000000003D
:10001000610B0000610B0000610B0000610B000030
:10002000610B0000610B0000610B0000D51800009F
:10003000610B0000610B0000A11800008D09000099
:10004000C9090000610B0000610B0000610B00009A
:10005000610B0000610B0000610B0000610B0000F0
:10006000610B0000610B0000610B0000610B0000E0
:10007000610B0000610B0000610B0000610B0000D0
:10008000610B0000610B0000610B0000610B0000C0
:10009000610B0000610B0000610B0000610B0000B0
:1000A000610B0000610B0000610B0000610B0000A0
:1000B000610B0000610B0000610B0000610B000090
:1000C000610B0000610B0000610B0000610B000080
:1000D000610B0000610B0000610B0000610B000070
:1000E000610B0000610B0000610B0000610B000060
:1000F000F0B5054685B00C4600F01AFC00F006F994
:100100002846214600F088FC00F0E8FE154807214B
:1001100001F026F914485021082201F0F3F8134F9A
:10012000134E00250135EDB200243246052357F861
:10013000040F2946009401940294143600F0E2FE64
:10014000052DEFD10B4B062118680B4A2B46009466
:100150000194029400F0D6FE00F0C4FE204605B0E3
:10016000F0BD00BF040000203C0000209C1B0000EC
:100170008C000020E0180000F000002010B50521E0
:10018000044600F0FBFF2046062100F0F7FF024B7B
:100190000220236010BD00BF9D0100000B8870B5D8
:1001A000062B04460D4600F09C80082B03D0052B3F
:1001B00040F09B8031E000F08DFC2D79042D02D8B9
:1001C00063195B7F1BB14C48602100F0C5FC2846D9
:1001D0004A4900F065FC6A1C052392FBF3F303EB2C
:1001E0008303D31ADBB2E3181A7E92B96219167E22
:1001F0007EB90121117606201976033101F056F8F7
:10020000057101F0B3F828463D4900F049FC30463D
:1002100070BD64190123637765E000F05BFC2D7904
:10022000042D02D863195B7F1BB13348742100F0A1
:1002300093FC2846334900F033FC05266B1C93FBE6
:10024000F6F606EB86069E1B63191B7EF6B2012BA3
:1002500003D1A3191B7E012B03D02748792100F07D
:100260007BFC00236119A2190B7604351376053344
:1002700095FBF3F303EB8303ED1AEDB263195A7F99
:1002800082B11A7E72B9012018765A770876042155
:10029000053001F00BF8057101F068F8284618499F
:1002A00000F0FEFBA319587F20B3721C052192FBBE
:1002B000F1F101EB8101521AD2B2A418257EC5B921
:1002C000012222765D771A760421062000F0EEFFE7
:1002D000067101F04BF83046094900F0E1FB284671
:1002E00070BD00F0FDFD002070BD074B03600320D2
:1002F00070BD002070BD00BFD81800007E1E000039
:10030000871E0000901E000029180000084B094AB3
:100310001A6000221A765A775A769A779A76DA779E
:10032000DA7683F820201A7783F82120704700BFFF
:10033000040100207D010000034B7A221A60773A05
:1003400098605A60704700BF000002400138FDD13C
:100350007047704738B50546054C6369002BFBD0E4
:10036000044B1868FFF7F2FF0123A560636038BDF6
:10037000000002402801002070B50646094C636960
:10038000002BFBD0084B1D682846FFF7DFFF052335
:10039000A6606360034B5B69002BFBD02846BDE879
:1003A0007040D3E7000002402801002070B50446E9
:1003B0000D460DE0084E7369002BFBD0074B013D45
:1003C0001868FFF7C3FF14F8013BB36001237360A3
:1003D000002DEFD170BD00BF0000024028010020B9
:1003E00070B58020FFF7A8FF134B06211C79134B33
:1003F0005F25981F002C08BF1846FFF7D7FF002085
:10040000FFF7A8FF013DFAD12846FFF7B5FF80208E
:10041000FFF792FF0A4B0621981F002C08BF1846D1
:10042000FFF7C4FF5F240020FFF794FF013CFAD1DF
:100430002046BDE870409FE728010020EA18000030
:10044000F618000070B51646054680200C46FFF7EA
:1004500073FF002E14BFB120B020FFF77BFF802078
:10046000FFF778FF234B5E79361906F00F00FFF790
:1004700071FF36098020FFF76DFF06F00F0040F096
:100480001000FFF767FF4020FFF764FF2CE05A2CB5
:10049000194A4FEA830112D8CB18A3F1A000052115
:1004A0001018FFF783FF5A2C02D0737801350BB96F
:1004B000002016E00020FFF74DFF063414E0CB18B3
:1004C000A3F1A000C4F15F0410182146A2F11806A0
:1004D000FFF76CFF2B78203B03EB8303F6183419EE
:1004E000207EBDE8704047E72B782E46002BCED10A
:1004F00070BD00BF28010020FC1800002DE9F84362
:1005000098461A4B04465F791546CF194FEA1719DA
:1005100009F00F09089E49F0100923E08020FFF739
:100520000BFF002D14BFB120B020FFF713FF802078
:10053000FFF710FF07F00F00FFF70CFF8020FFF719
:1005400009FF4846FFF706FF4020FFF703FF20465C
:1005500008F1FF314444FFF729FF14F8010CFFF7BD
:100560000BFF0135013ED9D2BDE8F88328010020F8
:10057000524B2DE9F041D3F80421514C42F4805202
:10058000C3F80421D3F80821064642F00202C3F85A
:1005900008215D68C5F300352571002D0CBF2422AC
:1005A0000422627112D0D3F80821012042F008021F
:1005B000C3F80821FFF7CAFE424BD3F8002442F0EB
:1005C0008002C3F800248022C3F800223E4B3F493A
:1005D000D3F8002422F00C02C3F80024D3F820241E
:1005E00042F00C02C3F82024D3F8002542F00C029C
:1005F000C3F80025D3F8182522F00C02C3F81825FB
:10060000D3F80C2542F00C02C3F80C25D3F81025C2
:1006100042F00C02C3F81025D3F81C2542F00C025E
:10062000C3F81C25D3F8282522F00C02C3F828258E
:10063000274B1A6A42F010021A62264A002E0CBF9B
:100640000E46164614225643234A1268013A92195E
:10065000B2FBF6F6013EDE60DB6844220133534311
:100660002360002420E01D4EA6F14D03002D08BF9D
:100670003346771EA6F14E08185D002D0CBF3E468E
:100680004646FFF759FE315DA01C30180239002D97
:1006900018BF4746FFF78AFE3B5D3F19F85CFFF73E
:1006A0006BFE335D0133E418002D0CBF71234D2325
:1006B0009C42D8D3BDE8F04192E600BF00E00F4075
:1006C000280100200070004000500040A08601007A
:1006D00000000240801A060010020020251B0000C6
:1006E0002DE9F041002421E0154EA6F14D03002D27
:1006F00008BF3346771EA6F14E08185D002D0CBFCB
:100700003E464646FFF718FE315DA01C3018023900
:10071000002D14BF45463D46FFF748FE2B5D2D19C1
:10072000E85CFFF729FE335D0133E418054B1D79C2
:10073000002D0CBF71234D239C42D5D3BDE8F08121
:10074000251B00002801002010B58020FFF7F4FDD4
:10075000AE20FFF7FFFD8020FFF7FCFDAD20FFF787
:10076000F9FD8020FFF7F6FD8A20BDE8104003E682
:1007700010B5074B04461A780AB901321A702046A0
:10078000042100F0FBFC034B0220236010BD00BFDE
:1007900030010020990700000B8810B5013B04468A
:1007A000082B23D8DFE803F005222213132222228C
:1007B0000D0000234385214618300F2200F0EEFE85
:1007C00012E000F087F90C4B0220236010BD0B4BA8
:1007D000C41A0B4BA4105C430B79E4B2A34209D1B9
:1007E0000848792100F0B8F9002010BD064B0360DD
:1007F000032010BD002010BD0D08000034010020B2
:10080000A38B2EBA981B0000291800000B8810B586
:10081000042B044613D0052B20D0012B2DD1082109
:10082000062000F043FD184B0146E41A174BA410B4
:100830005C43174B0471186800F008FC1BE0124B76
:10084000124AC31A9B1053430A79DBB29A4214D15D
:1008500000F040F90F4B0220236010BD0A4BC41A70
:100860000A4BA4105C430B79E4B2A34209D10A48B5
:10087000912100F071F9002010BD084B0320236086
:1008800010BD002010BD00BF34010020A38B2EBA84
:10089000E0180000A1080000981B000029180000C3
:1008A0000B8810B5013B0446082B30D8DFE803F075
:1008B000050D2F20202F2F2F1A00002343852146BE
:1008C0001830062200F06AFE1FE00620052100F025
:1008D000EDFC124BE41A124BA4105C43047100F0BF
:1008E00045FD12E000F0F6F80E4B0220236010BD2B
:1008F0000A4BC41A0A4BA4105C430B79E4B2A3421E
:1009000009D10948AB2100F027F9002010BD074BA1
:100910000360032010BD002010BD00BF3401002083
:10092000A38B2EBA99070000981B0000291800001D
:1009300038B500252C46084B084A09215A512C226B
:1009400002FB0433013403F1180000F013FE2C35D0
:10095000052CF0D138BD00BF340100207107000024
:1009600000BF704700284FEA411105DA054B00F03F
:100970000F00C31819767047034BC31883F8001390
:10098000704700BFFCEC00E000E100E0684620F0AA
:1009900007018D4619B572B6094C237801332370CF
:1009A00062B600F031FD72B623784FF08052013B01
:1009B0002370044B1A6062B6BDE819408546704743
:1009C0001D02002004ED00E0684620F007018D467E
:1009D00031B572B60D4C23780133237062B60C4BDF
:1009E000072104201D6800F061FC0146284600F044
:1009F0002DFB72B623784FF08052013B2370054BDC
:100A00001A6062B6BDE83140854670471D0200207D
:100A1000E018000004ED00E010B500F025F91C4BD3
:100A20000024D3F8082142F00502C3F80821FFF79B
:100A300097FFFFF795FFFFF793FF164B0120D3F8C1
:100A4000002442F02002C3F80024D3F81C2542F011
:100A50002002C3F81C25C3F88040D3F8002422F0FC
:100A60001002C3F80024D3F81C2542F01002C3F88A
:100A70001C25FFF77DFD214622460748FFF7E2FCD3
:100A8000064821460122BDE81040FFF7DBBC00BF4D
:100A900000E00F4000600040991E0000A71E00000B
:100AA00007B50B78122141438DF8043001A80023CB
:100AB000063101228DF80530FFF7C4FC0EBD044B52
:100AC00018B12022C3F880207047C3F88000704717
:100AD0000060004082B000230193019B5A1E0192E6
:100AE000002BFAD102B07047114B10B51A681E23C3
:100AF000B2FBF3F3B3F1807F0DD20E4C23F07F43B2
:100B0000013B63604FF0FF300721FFF72BFF00230D
:100B1000A360073323604FF0FF300121FFF722FF6E
:100B200000200146FFF71EFF034B01221A6010BD93
:100B30001002002010E000E000E100E0704772B613
:100B4000044B2022C3F88020203AC3F8802062B6EC
:100B500030BF70470060004072B6FEE7FCE700BFA0
:100B6000684620F007018D4601B540F207110248A2
:100B7000FFF7F4FFFEE700BFB51E0000684620F057
:100B800007018D4601B50F4A0F4B03E052F8041BD5
:100B900043F8041B0D498B42F8D30D4B02E00022B1
:100BA00043F8042B0B4A9342F9D300F043FEFFF7BE
:100BB0009FFA09484FF48171FFF7D0FFBDE801406B
:100BC00085467047CC1E0000000000200400002075
:100BD00004000020B0030020B51E0000704700BFD5
:100BE000EFF30980704780F309887047EFF30880BE
:100BF000704780F308887047EFF31280704780F3E6
:100C000011887047EFF31080704780F310887047A9
:100C1000EFF31380704780F31388704700BA704772
:100C200040BA7047C0BA704790FAA0F07047D0E859
:100C30004F0FC0B27047D0E85F0F80B2704750E8E6
:100C4000000F7047C1E8400F7047C1E8500F704770
:100C500041E800007047EFF31480704780F3148878
:100C60007047000000BF7047874B884A73B51A670A
:100C7000874A1A66874A1A66874A1A67002303E07A
:100C8000FFF7F0FF019B01330193019BB3F57A7FDE
:100C9000F6D37D4B814A1A667F4A1A67002303E028
:100CA000FFF7E0FF019B01330193019BB3F57A7FCE
:100CB000F6D37B4A744B1A6601E0FFF7D3FF724B01
:100CC0001A6D12F0400FF8D0764A1A66724A1A6707
:100CD000002303E0FFF7C6FF019B01330193019B53
:100CE000B3F57A7FF6D3684B196E1A6F1846002A4F
:100CF000B4BF02F0700301F03003202B3AD004D8C7
:100D00006BB1102B40F0BE8010E0602B5DD0702BDB
:100D100058D0302B40F0B68047F2305363E001F4F6
:100D2000F860614B800953F820305CE0564B18683E
:100D300010F0E04F4CD01C685C4804EA0000B0F1B1
:100D4000805F45D01C68594804EA0000584CA04216
:100D500003D11B689BB2022B3CD04B48534B046819
:100D600004EA0303534CA34236D10368524C9BB2AE
:100D7000524822E00068444B10F0E04F2ED01C682F
:100D80004A4804EA0000B0F1805F27D01C68474859
:100D900004EA0000464CA04203D11B689BB2022B20
:100DA0001ED03948414B046804EA0303414CA34276
:100DB00018D10368424C43489BB2002B0CBF23461A
:100DC000034610E04FF400430DE04FF480030AE0C7
:100DD0003D4B08E0384B06E0384B04E03B4B02E06B
:100DE000374B00E0374B002A02DA12F4006F01E0C3
:100DF00011F4006F27D1244D686E2C6814F0E04F79
:100E000043F6E07400EA040406D02E68274D06EA93
:100E10000505B5F1805F06D16409023400F01F05B5
:100E20006343023505E06409634300F01F050135A3
:100E30006D00B3FBF5F310F4804F18BF5B0810F49E
:100E4000004F18BF9B0811F4800F19D0002A11DA47
:100E500012F0804F07D012F4006F04D102F0FE525E
:100E60005B00920D02E002F0FC52D20D0132B3FBA6
:100E7000F2F305E001F0F061C90D0131B3FBF1F3CC
:100E8000134A13607CBD00BF00E00F4010288007AC
:100E9000D13A8E07C22A8E0410288000C20A8E041E
:100EA000C20ACE04C202CE04B41B00000000FF70D0
:100EB0000000011000000310001BB7000024F40024
:100EC000C0C62D0000093D00C0E1E40070383900C3
:100ED0001002002000487047101C000000F0CEBC3B
:100EE000FFF72CBE08B572B6054B00221A7000F051
:100EF00037F862B6FFF7F8FDFFF721FEFCE700BF09
:100F0000000000202DE9F0479A464B1EDBB23E2B35
:100F100004460D469146DDF82080099F0A9E03D9BC
:100F20000D486021FFF718FE201D49465FFA8AF23E
:100F300000F054F92575204600F05EF9B8F1000F75
:100F400000D11FB104486A21FFF706FE2046314652
:100F5000BDE8F04700F042BB171C000000F064B988
:100F60002DE9F047254B1B781BB125483021FFF7B1
:100F7000F3FD244D2B785BB12B78234AD35C013BE6
:100F8000DBB2E9184978525C02EBC30303F0FF03BC
:100F90001E4C227893422ED91D4A117891468B42DD
:100FA00029D926785FFA86F81A4A237052F823A0C6
:100FB00062B6504600F092F807463946504600F0B7
:100FC00057FB384600F04AF972B62B780D498BB1C1
:100FD0000B780D4AD35C013BDBB2C9184978525CEF
:100FE00002EBC30303F0FF03434503D999F8002044
:100FF0009342D9D82670BDE8F08700BF1D020020BB
:101000001A1C0000140200204E1C000000000020EA
:101010001E02002020020020024672B6034B187800
:101020001978914238BF1A7062B670471E020020CC
:1010300008B572B6044B1A78824202D91870FFF7CD
:101040008FFF62B608BD00BF1E02002038B50446FF
:101050000D4672B68B7813B1CB780133CB706368D1
:10106000BBB9227D1849194B885C194965600C1879
:101070001D7864788A5C45EA04041C701B18587853
:1010800040EA02025A70134B1B78DBB9FFF768FF86
:1010900018E0E37B1BB910484921FFF75DFDA36809
:1010A000627B43F82250637B0BB9237B6373637BC2
:1010B000227C013B6373E37B013BDBB29A42E37327
:1010C00088BF237462B638BDE81D000014020020FA
:1010D000661D00001D020020231C000070B50446A0
:1010E00072B643681BB916483021FFF735FDE37B24
:1010F000227B606893420CD0A17BA56855F82150F3
:10110000656001B9A273A27B0133013AA273E37354
:1011100014E000236360257D0A4B0B4C595D0B4B9B
:10112000655D5A18567806EA0505557052782AB951
:1011300061181D784A7805EA02021A7062B670BD1D
:101140002B1C0000E81D0000A71D00001402002059
:101150003F2838B50446074D02D855F820301BB952
:1011600005485C21FFF7F8FC72B662B655F82430EA
:10117000187C38BD200200202B1C000070B5114BDC
:10118000047D03290D461E5D0BD90F4B1B888B4236
:1011900007D934B13F2C04D80C4B53F82430834288
:1011A00003D00B483021FFF7D7FC72B6094B1B6800
:1011B00003EBC505084BAA5D1B5D42EA0303AB5573
:1011C00062B670BDE81D0000A403002020020020CC
:1011D000331C0000A0030020661D000000230360F4
:1011E0004160027243728372C272027370470000E0
:1011F000004870473A1C000070B5047D0646631E27
:10120000DBB23E2B064D02D855F824301BB1054801
:101210004021FFF7A1FC72B645F8246062B670BDAC
:1012200020020020411C000038B5047D094D631EDA
:10123000DBB23E2B03D855F82430834203D0064856
:101240005421FFF789FC72B6002345F8243062B6BA
:1012500038BD00BF20020020411C000070B5857819
:101260000446002D1BD072B6C378012B03D9013B75
:10127000C37062B670BD013DEDB262B6084B1B781B
:10128000AB4203D807484621FFF766FC064B142003
:1012900000FB05302146BDE8704000F04FB970BD3D
:1012A00024030020481C00002803002070B50446D9
:1012B0000E46002509E0104B01351B78EDB2AB421C
:1012C00003D80E483021FFF747FC0D4B142000FBDC
:1012D00005308389A342EED300F0C6F8044618B95E
:1012E00006483A21FFF738FC013500232680A57017
:1012F000E370204670BD00BF240300204E1D000097
:1013000028030020F8B5134C074623780E46052B1A
:10131000154603D910482E21FFF71EFC23785BB138
:101320000C4A013B142101FB03231B8AAB4203D36C
:1013300009481D31FFF710FC2278084B142000FBF0
:10134000023039462B46324600F0B8F82378013394
:101350002370F8BD24030020551D00002803002041
:10136000014B186099807047A0030020204B028831
:101370001B882DE9F0479A42044603D31D483121CA
:10138000FFF7EAFB72B6A37813B1E3780133E37099
:1013900062B60825184B013D22881B68EDB203EBAD
:1013A000C2034FEAC5095E5D5FFA89F916E0134B87
:1013B000134F13F80680134B13F80830C8445FFA34
:1013C00088F81E4057F828301BB90A485921FFF702
:1013D000C3FB57F828002146FFF738FE002EE6D160
:1013E000002DD7D12046BDE8F047FFF737BF00BF3B
:1013F000A40300205D1D0000A00300204E1C00007F
:1014000020020020A71D000038B572B6144D2C68CC
:1014100022E0238A013B9BB22382BBB9638A0BB1D2
:1014200023820DE02B689C42A36802D10C4A136012
:1014300004E00BB162685A606268936000236360E5
:1014400062B6E0682146FFF701FE03E062B6054B95
:1014500000221A7072B6A468002CDAD162B638BDC8
:10146000AC030020A8030020034672B6006848B110
:101470000268598A1A601A8A013A92B291421A8213
:1014800088BF5A8262B6704710B5044618B1084B3F
:101490001B78834203D207484521FFF75DFB72B6F4
:1014A00062B6054B013C142202FB0434608A10BD75
:1014B00024030020291E0000280300202DE9F84302
:1014C0000446154699460F4629B1032A03D9043329
:1014D0009BB24B4503D818483621FFF73DFB042348
:1014E0002760A3814FF0010803E00436A68108F1CC
:1014F0000108A6894E45F8D3B54203D20E484421CF
:10150000FFF72AFB0123E381AD1B23684FEA88081C
:1015100007E003EB08021A60E389AD1B0133E381A6
:101520001346B542F5D200221A60E2896760228232
:101530006282A360BDE8F883311E000038B54368BD
:1015400004468B420D4606D88368994203D8028A26
:10155000C3899A4203D906482D21FFF7FDFA72B6D6
:1015600023682B60238A25600133238262B638BD4D
:101570003A1E0000032938B504460D4603D8064834
:101580002921FFF7E9FA00236360A360E360238267
:1015900063822580A37038BD421E000070B50446EA
:1015A0000D4616462AB10388032B02D9436803B9B6
:1015B00019B908483021FFF7CFFA26826460E56048
:1015C00072B6054A1368A36003B15C60146062B62A
:1015D00070BD00BF4B1E0000AC030020F0B50368D7
:1015E00087B004469847022803D01C482D21FFF7F6
:1015F000B3FA1B4E236806AF47F8183D2046194939
:101600009847002506E0013547F8043F2046154974
:10161000EDB298472368B342F5D1009E6BB2052B1B
:10162000266003DD0D484421FFF796FA6FB20137BB
:1016300000AB03EB8707013D57F8043D20460A49FC
:10164000EDB2984715F0800FF5D020460749B04716
:101650000228CFD0266007B0F0BD00BF531E0000A7
:10166000291800006E1E0000721E00007A1E000085
:101670002DE9F043056887B004460E4627682046EA
:101680003146B8470328F9D0022840F0BF80D4F88B
:1016900000900195CDF8009007E020465D49A847ED
:1016A00010B920465C49A8472568BD42F5D14D4593
:1016B00009D120465749A84700256EB2013600A837
:1016C00000EB86066CE020465349C847D4F80080FA
:1016D0004545F1D020465049A84726684645E8D000
:1016E0004E4504D120464B49A847FF25E5E7CDF8F4
:1016F000048020464849C047012518E005F101084B
:1017000023685FFA88F84FFA88F206A800EB820196
:10171000BB4241F8183C06D1052ACEDD3F487A216C
:10172000FFF71AFAC9E720463B4998474546032880
:10173000E4D06BB2052B03DD38488521FFF70CFAA6
:1017400020463449B8476FB200AB013703EB870737
:101750003A462B4652F8041D013B8E4212D0DBB2B2
:1017600013F0800FF6D020462A49B04710B9204622
:101770002949B04726683A462B4652F8041D013BDA
:101780008E4201D1DDB298E7DBB213F0800FF4D0C6
:10179000E9E756F8043D204621499847013DEDB25E
:1017A00015F0800FF5D0009D25602AE0236806AF74
:1017B00047F8183D204618499847002606E00136AC
:1017C00047F8043F20461449F6B298472368AB42D5
:1017D000F5D1009D73B2052B256003DD0F48D9219B
:1017E000FFF7BAF977B2013700A800EB8707013E8F
:1017F00057F8043D20460A49F6B2984716F0800F84
:10180000F5D020460749A8470228CFD0256007B069
:10181000BDE8F083761E00006E1E00005C1E000016
:10182000721E00007A1E00000120704700487047B9
:10183000661E000070B500240C4D0D4E761BB610D0
:1018400003E055F8043B01349847B442F9D1094DFF
:10185000FFF7C4F9084E0024761BB61003E055F8D4
:10186000043B01349847B442F9D170BDCC1E00004E
:10187000CC1E0000CC1E0000CC1E0000EFF3108038
:1018800072B606498A68FF231B041A438A604A68B5
:101890001B029A434A6080F31088704718ED00E0FD
:1018A00072B609480121C90601600848007800287D
:1018B00004D0C908064803B486B0704762B67047C2
:1018C000FFF74EFB62B600DF04ED00E014020020DB
:1018D000C018000008B070477461626C652E630028
:1018E00004010020B08004801040B08004801240C9
:1018F000B18004801040B1800480124000000000DC
:101900000000004F00000007000700147F147F1440
:10191000242A7F2A12231308646236495522500074
:1019200005030000001C2241000041221C00140895
:101930003E081408083E0808005030000008080857
:101940000808006060000020100804023E5149456C
:101950003E00427F400042615149462141454B31A2
:101960001814127F1027454545393C4A4949300132
:10197000710905033649494936064949291E003689
:1019800036000000563600000814224100141414DA
:101990001414004122140802015109063249794108
:1019A0003E7E1111117E7F494949363E4141412217
:1019B0007F4141221C7F494949417F090909013E74
:1019C0004149497A7F0808087F00417F4100204053
:1019D000413F017F081422417F404040407F020C7C
:1019E000027F7F0408107F3E4141413E7F09090983
:1019F000063E4151215E7F09192946464949493130
:101A000001017F01013F4040403F1F2040201F3F18
:101A10004038403F63140814630708700807615199
:101A2000494543007F414100020408102000414124
:101A30007F000402010204404040404000010204D3
:101A40000020545454787F48444438384444442057
:101A5000384444487F3854545418087E0901020C15
:101A60005252523E7F0804047800447D40002040DA
:101A7000443D007F1028440000417F40007C041852
:101A800004787C0804047838444444387C141414E2
:101A900008081414187C7C08040408485454542082
:101AA000043F4440203C4040207C1C2040201C3C03
:101AB0004030403C44281028440C5050503C446472
:101AC000544C44000836410000007F0000004136BD
:101AD000080002010204020480AE80E30680AD80AB
:101AE0008A80E30680A8801F80E30480C880E30426
:101AF00080A080E30480D880E304800580E3048034
:101B00004080E3068081805D80E30680D98011807B
:101B1000E30680D5800180E30680D3800080E30463
:101B200080AF80E30480AE80E304800480E304801F
:101B30001280E3068081802B80E30480A180E3048F
:101B4000804080E30680D3800080E30680A8800F79
:101B500080E30480A480E30480A680E30480B08056
:101B6000E30480C880E30680D5807280E30680D8D5
:101B7000800080E30680D9802280E30680DA80122C
:101B800080E30680DB800F80E30680AD808B80E3FE
:101B90000480AF80E30000007068696C6F2E630002
:101BA00034010020600100208C010020B8010020D9
:101BB000E401002040420F0000201C0080841E0031
:101BC00000802500999E36000040380000093D0045
:101BD00000803E0000004B00404B4C0000204E00B7
:101BE000808D5B0000C05D000080700000127A00F4
:101BF00000007D0080969800001BB7000080BB00AD
:101C0000C0E8CE00647ADA000024F4000000FA0094
:101C1000342E322E303400716B00716B5F73636849
:101C200065640071615F6669666F0071615F676519
:101C3000745F0071615F73756200342E322E303430
:101C40000071665F6163740071665F676300000125
:101C5000020203030303040404040404040405054A
:101C60000505050505050505050505050505060622
:101C70000606060606060606060606060606060604
:101C800006060606060606060606060606060707F2
:101C900007070707070707070707070707070707D4
:101CA00007070707070707070707070707070707C4
:101CB00007070707070707070707070707070707B4
:101CC00007070707070707070707070707070808A2
:101CD0000808080808080808080808080808080884
:101CE0000808080808080808080808080808080874
:101CF0000808080808080808080808080808080864
:101D00000808080808080808080808080808080853
:101D10000808080808080808080808080808080843
:101D20000808080808080808080808080808080833
:101D30000808080808080808080808080808080823
:101D4000080808080808080808080808080871664C
:101D50005F6E65770071665F706F6F6C0071665FB4
:101D60007073707562000001020408102040800149
:101D70000204081020408001020408102040800165
:101D80000204081020408001020408102040800155
:101D90000204081020408001020408102040800145
:101DA00002040810204080FFFEFDFBF7EFDFBF7F3D
:101DB000FEFDFBF7EFDFBF7FFEFDFBF7EFDFBF7F31
:101DC000FEFDFBF7EFDFBF7FFEFDFBF7EFDFBF7F21
:101DD000FEFDFBF7EFDFBF7FFEFDFBF7EFDFBF7F11
:101DE000FEFDFBF7EFDFBF7F0000000000000000FA
:101DF00000010101010101010102020202020202CD
:101E0000020303030303030303040404040404049C
:101E1000040505050505050505060606060606066C
:101E2000060707070707070707716D705F67657487
:101E300000716D705F696E697400716D705F7075AF
:101E400074007174655F63746F72007174655F61B3
:101E5000726D007168736D5F696E69007168736D92
:101E60005F6469730000342E322E303400000000AD
:101E7000000001000000020000000300000068757F
:101E80006E677279202000656174696E672020009A
:101E90007468696E6B696E670044696E696E67206D
:101EA0005068696C6F730030202C31202C32202C4C
:101EB00033202C3400737461727475705F73746DA9
:0C1EC0003332663130785F636C00000044
:041ECC0040000000D2
:0400000300000B7D71
:00000001FF
