:10000000600C0020B91600009D16000000000000E2
:100010009D1600009D1600009D1600009D16000014
:100020009D1600009D1600009D1600009D16000004
:100030009D1600009D1600009D160000891100000D
:100040009D1600009D1600009D1600009D160000E4
:100050009D1600009D1600009D1600009D160000D4
:100060009D1600009D1600009D1600009D160000C4
:100070009D1600009D1600009D1600009D160000B4
:100080009D1600009D1600009D1600009D160000A4
:100090009D1600009D1600009D1600009D16000094
:1000A0009D1600009D1600009D1600009D16000084
:1000B0009D1600009D1600009D1600009D16000074
:1000C0009D1600009D1600009D1600009D16000064
:1000D0009D1600009D1600009D1600009D16000054
:1000E0009D1600009D1600009D1600009D16000044
:1000F0002DE9F04184B005460C4601F027F800F0E8
:10010000C9FA2846214601F061FA02F0CBF86B4BA0
:10011000DB7913F0200F00F0958072B64FF03D00B0
:1001200002F02EFE664803F08DFB664803F046FDA4
:1001300002F0CEFE62B601F017FA604BDB7913F0E5
:10014000200F7FD072B64FF03D0002F019FE5E48DE
:1001500003F078FB5D4803F031FD02F0B9FE62B6B2
:1001600001F002FA554BDB7913F0200F6AD072B61A
:100170004FF03D0002F004FE554803F063FB554884
:1001800003F01CFD02F0A4FE62B601F0EDF94B4B4A
:10019000DB7913F0200F55D072B64FF03D0002F01E
:1001A000EFFD474800F1640400F1780003F04AFBDA
:1001B000494803F003FD02F08BFE62B601F0D4F96A
:1001C0003E4BDB7913F0200F3CD072B64FF03D0070
:1001D00002F0D6FD04F1280003F034FB3F4803F0A1
:1001E000EDFC02F075FE62B601F0BEF9334BDB792F
:1001F00013F0200F26D072B64FF03D0002F0C0FD84
:1002000004F13C0003F01EFB354803F0D7FC02F07C
:100210005FFE62B601F0A8F9284BDB7913F0200FDE
:1002200010D072B64FF03D0002F0AAFD04F150006C
:1002300003F008FB2B4803F0C1FC02F049FE62B654
:1002400001F092F91E4D05F1C8004FF0070101F0D1
:10025000F5FD28464FF050014FF0080201F0B8FDBF
:10026000214F05F164054FF0000426464FF00508C4
:1002700004F10104E4B257F8040F009601960296C7
:1002800021462A46434602F049F805F11405052C9B
:10029000EED1164B18684FF00004009401940294BC
:1002A0004FF00601084A4FF0050302F037F801F05D
:1002B000FFFF204604B0BDE8F08100BFC009002068
:1002C00000000020A83E000050000020B83E0000C2
:1002D00064000020C83E0000DC3E0000F03E00004C
:1002E000043F0000183F00005C4300009C3F0000FA
:1002F00010B50446644BDB7913F0200F0FD072B6B3
:100300004FF03D0002F03CFD604803F09BFA60486E
:1003100003F054FC02F0DCFD62B601F025F95A4B03
:10032000DB7913F0400F39D072B64FF03E0002F087
:1003300027FD584803F086FA574803F03FFC02F0C7
:10034000C7FD62B601F010F94F4BDB7913F0400F97
:1003500024D072B64FF03E0002F012FD4F4803F079
:1003600071FA4F4803F02AFC02F0B2FD62B601F0C8
:10037000FBF8454BDB7913F0400F0FD072B64FF00E
:100380003E0002F0FDFC474803F05CFA464803F0EB
:1003900015FC02F09DFD62B601F0E6F83A4BDB7900
:1003A00013F0100F61D072B64FF03C0002F0E8FC81
:1003B0004FF0050003F08EF94FF0000003F042FA11
:1003C0003A4803F0FBFB02F083FD62B601F0CCF883
:1003D0002D4BDB7913F0100F47D072B64FF03C0075
:1003E00002F0CEFC4FF0040003F074F94FF000006F
:1003F00003F028FA2E4803F0E1FB02F069FD62B633
:1004000001F0B2F8204BDB7913F0100F2DD072B64B
:100410004FF03C0002F0B4FC4FF0060003F05AF934
:100420004FF0000003F00EFA224803F0C7FB02F081
:100430004FFD62B601F098F8134BDB7913F0100F03
:1004400013D072B64FF03C0002F09AFC4FF0080057
:1004500003F040F9204603F0F5F9174803F0AEFB2E
:1004600002F036FD62B601F07FF820464FF005013C
:1004700001F08EFB20464FF0060101F089FB094B8D
:1004800023604FF0020010BDC009002000010020D1
:100490002C3F0000E52C0000383F0000F102000076
:1004A000443F0000BD040000543F0000643F0000D2
:1004B000703F0000783F0000883F0000F8B5044618
:1004C0000D460B88062B00F0C980082B03D0052BA6
:1004D00040F0C9803FE000F077FE2D79042D02D86E
:1004E00063195B7F23B165484FF0600100F0E0FEC7
:1004F0002846634900F0F8FF05F10103614A82FBD9
:1005000003124FEA620202EB82029B1ADBB2E2188C
:10051000127ECAB96219127EB2B961194FF0010296
:100520000A76E3181A764FF006004FF0040101F046
:10053000F9FB0571214601F087FC2846524900F07D
:10054000D3FF4FF00000F8BD64194FF0010363774B
:100550004FF00000F8BD00F037FE2D79042D02D8D1
:1005600063195B7F23B145484FF0740100F0A0FE92
:100570002846464900F0B8FF05F10103414E86FBCD
:1005800003264FEA660606EB86069E1BF6B2631943
:100590001B7E012B03D1A3191B7E012B04D03748EE
:1005A0004FF0790100F084FE62194FF000031376DA
:1005B000A219137605F10403324F87FB03174FEAA4
:1005C000670707EB8707DF1BFFB2E3195B7FCBB140
:1005D000E3191B7EB3B9E3194FF001021A766519CE
:1005E0002A764FF000025A774FF006004FF00401D0
:1005F00001F098FB0771214601F026FC384622499C
:1006000000F072FFA3195B7F002B31D006F10103CC
:100610001C4A82FB03124FEA620202EB82029B1A1F
:10062000DBB2E218127E002A25D1E3184FF0010256
:100630001A76A3191A764FF000055D774FF0060081
:100640004FF0040101F06EFB0671214601F0FCFB46
:1006500030460D4900F048FF2846F8BD01F024FE61
:100660004FF00000F8BD0A4B03604FF00300F8BDE7
:100670004FF00000F8BD4FF00000F8BD943F0000BF
:1006800080460000676666668C460000984600005B
:10069000E52C0000084B094A1A604FF000021A7658
:1006A0005A775A769A779A76DA77DA7683F820202C
:1006B0001A7783F82120704700010020F102000022
:1006C000044B4FF07A021A6098604FF003025A60B0
:1006D000704700BF000002400138FDD170477047ED
:1006E00010B50446064A5369002BFCD0054B186828
:1006F000FFF7F2FF024B9C604FF001025A6010BD01
:10070000000002402401002038B505460A4A53691A
:10071000002BFCD0094B1C682046FFF7DDFF064B81
:100720009D604FF005025A601A465369002BFCD0B9
:100730002046FFF7D1FF38BD000002402401002011
:100740002DE9F04191B105464618094C094F4FF08B
:1007500001086369002BFCD03868FFF7BDFF15F86E
:10076000013BA360C4F80480B542F2D1BDE8F0813A
:10077000000002402401002070B54FF08000FFF718
:100780009FFF1B4B1E79002E1A4B03F1080018BF68
:1007900018464FF00601FFF7D3FF4FF05F044FF00C
:1007A00000052846FFF79CFF013CFAD14FF00000FE
:1007B000FFF7AAFF4FF08000FFF782FF002E0E4BDD
:1007C00003F1080018BF18464FF00601FFF7B8FF05
:1007D0004FF0000425462846FFF782FF04F101048C
:1007E0005F2CF8D14FF00000FFF78EFF70BD00BF07
:1007F00024010020A03F0000B03F00002DE9F84395
:1008000006460C4615464FF08000FFF759FF002DB5
:1008100014BFB120B020FFF763FF4FF08000FFF757
:100820005FFF2F4B5D79281900F00F00FFF758FF8D
:100830004FF08000FFF754FF6519C5F3031040F037
:100840001000FFF74DFF4FF04000FFF749FF3378EE
:10085000002B3AD1BDE8F88304F106045A2C1CD8C9
:1008600003EB8303A3F1A00038184146FFF768FFAC
:100870005A2C03D02E4615F8013B2BB94FF000003F
:10088000FFF742FFBDE8F8834846FFF729FF15F858
:10089000013C002BE0D1BDE8F883C4F15F05114CA9
:1008A00003EB8303E018A0F180002946FFF748FF1F
:1008B0003378A3F1200303EB8303E418651995F85B
:1008C0002000FFF721FFBDE8F8835A2CE5D806F198
:1008D0000105054F4FF005084FF00009C0E700BFC4
:1008E00024010020A03F0000C03F00002DE9F84F88
:1008F000054614461F460A9B1C4A92F805A08A44E6
:100900008BB3CAF3031848F0100803EB04094FF047
:1009100080060AF00F0A07F1FF3B3046FFF7D0FED2
:10092000002C14BFB120B020FFF7DAFE3046FFF7ED
:10093000D7FE5046FFF7D4FE3046FFF7D1FE4046C3
:10094000FFF7CEFE4FF04000FFF7CAFE284659469B
:10095000FFF7F6FEED1915F8010CFFF7D5FE04F1CF
:1009600001044C45D9D1BDE8F88F00BF2401002017
:100970002DE9F8430446664BD3F8042142F4805233
:10098000C3F80421D3F8082142F00202C3F8082179
:100990005B68C3F30033DEB25E4A1371002E00F0D1
:1009A0009C804FF004025B4B5A71594BD3F80821DD
:1009B00042F00802C3F808214FF00100FFF78CFE57
:1009C000554BD3F8002442F08002C3F800244FF0C6
:1009D0008002C3F80022514BD3F8002422F00C020D
:1009E000C3F80024D3F8202442F00C02C3F82024DA
:1009F000D3F8002542F00C02C3F80025D3F81825DF
:100A000022F00C02C3F81825D3F80C2542F00C0292
:100A1000C3F80C25D3F8102542F00C02C3F81025BA
:100A2000D3F81C2542F00C02C3F81C25D3F8282566
:100A300022F00C02C3F8282503F5D8331A6A42F0D5
:100A400010021A62364B374A002C0CBF14461C4663
:100A500004EB84044FEA8404334B1B6803F1FF3337
:100A60001B19B3FBF4F404F1FF34304BDC60DB689A
:100A700003F1010303EB03134FEA8303254A1360D9
:100A80004FF00004DFF8A88008F51377B9461AE0A4
:100A900046B308F5FE7563195878FFF711FE04F1A7
:100AA0000200615D2818A1F10201FFF749FE635DB4
:100AB00008EB0402D31893F8FC01FFF725FE2B5D29
:100AC00003F10103E418002E0CBF71234D239C4257
:100AD000DED3FFF751FEBDE8F8834FF024020D4B43
:100AE0005A7178E7E3195878FFF7EAFD04F102003C
:100AF000E15D3818A1F10201FFF722FEE35D08EB8A
:100B00000402D31893F84C02FFF7FEFD4D46D6E7DA
:100B100000E00F4024010020007000400050004021
:100B2000801A0600A086010018080020000002407C
:100B3000A03F00002DE9F0414FF000041E4F07F5E3
:100B40001376B04619E013B307F5FE7563195878AC
:100B5000FFF7B6FD04F10200615D2818A1F1020162
:100B6000FFF7EEFD635D3A19D31893F8FC01FFF728
:100B7000CBFD2B5D03F10103E418104B1B79002B17
:100B80000CBF71224D229442DDD3BDE8F081A31940
:100B90005878FFF795FD04F10200A15D3018A1F12E
:100BA0000201FFF7CDFDA35D3A19D31893F84C026B
:100BB000FFF7AAFD4546DCE7A03F00002401002026
:100BC00008B54FF08000FFF77BFD4FF0AE00FFF758
:100BD00087FD4FF08000FFF783FD4FF0AD00FFF77A
:100BE0007FFD4FF08000FFF77BFD4FF08A00FFF79D
:100BF0008BFD08BD10B50446B74B1B78002B40F0A9
:100C00002E81B64BDB7913F0200F00F0D08072B646
:100C10004FF03D0002F0B4F8B14802F013FEB148C5
:100C200002F0CCFF02F054F962B600F09DFCAB4B31
:100C3000DB7913F0200F00F0BA8072B64FF03D0060
:100C400002F09EF8A84802F0FDFDA84802F0B6FFA9
:100C500002F03EF962B600F087FCA04BDB7913F09E
:100C6000200F00F0A48072B64FF03D0002F088F82B
:100C70009F4802F0E7FD9F4802F0A0FF02F028F92C
:100C800062B600F071FC954BDB7913F0200F00F099
:100C90008E8072B64FF03D0002F072F8964802F076
:100CA000D1FD964802F08AFF02F012F962B600F018
:100CB0005BFC8A4BDB7913F0200F78D072B64FF0D3
:100CC0003D0002F05DF88E4802F0BCFD8D4802F058
:100CD00075FF02F0FDF862B600F046FC7F4BDB7951
:100CE00013F0200F63D072B64FF03D0002F048F8C9
:100CF000854802F0A7FD854802F060FF02F0E8F8A1
:100D000062B600F031FC754BDB7913F0200F4ED04A
:100D100072B64FF03D0002F033F87D4802F092FDCC
:100D20007C4802F04BFF02F0D3F862B600F01CFCE6
:100D30006A4BDB7913F0200F39D072B64FF03D00CB
:100D400002F01EF8744802F07DFD744802F036FF90
:100D500002F0BEF862B600F007FC604BDB7913F0DE
:100D6000200F24D072B64FF03D0002F009F86C4815
:100D700002F068FD6B4802F021FF02F0A9F862B6AC
:100D800000F0F2FB554BDB7913F0200F0FD072B659
:100D90004FF03D0001F0F4FF634802F053FD63485B
:100DA00002F00CFF02F094F862B600F0DDFB4B4B52
:100DB000DB7913F0400F4ED072B64FF03E0001F0D9
:100DC000DFFF5B4802F03EFD5A4802F0F7FE02F0FA
:100DD0007FF862B600F0C8FB404BDB7913F0400FA0
:100DE00039D072B64FF03E0001F0CAFF524802F00F
:100DF00029FD524802F0E2FE02F06AF862B600F005
:100E0000B3FB364BDB7913F0400F24D072B64FF0B2
:100E10003E0001F0B5FF4A4802F014FD494802F0D7
:100E2000CDFE02F055F862B600F09EFB2B4BDB794D
:100E300013F0400F0FD072B64FF03E0001F0A0FF4C
:100E4000414802F0FFFC414802F0B8FE02F040F8D1
:100E500062B600F089FB4FF001021F4B1A701F4B66
:100E6000DB7913F0100F2CD072B64FF03C0001F07C
:100E700087FF4FF0080002F02DFC204602F0E2FC54
:100E8000334802F09BFE02F023F862B600F06CFBE0
:100E9000124BDB7913F0100F13D072B64FF03C00F9
:100EA00001F06EFF4FF0090002F014FC204602F042
:100EB000C9FC284802F082FE02F00AF862B600F08F
:100EC00053FB20464FF0040100F062FE1A4B2360F2
:100ED0004FF0020010BD00BF2C010020C00900200F
:100EE0003001002060420000480100206C420000F8
:100EF0005C01002080420000740100208C42000050
:100F000088010020A0420000A0010020AC420000A7
:100F1000B4010020C0420000CC010020CC420000FF
:100F2000E0010020E0420000F8010020EC42000057
:100F3000F50B0000004300000D10000010430000FE
:100F40009910000020430000590F000030430000BA
:100F5000404300004C43000038B504460B8803F1C1
:100F6000FF33082B40D8DFE803F005113F2C2C3F5E
:100F70003F3F25004FF00005458500F11800214650
:100F80004FF0060201F044F9284638BD4FF0060044
:100F90004FF0050100F0C6FE174BE31A4FEAA3031A
:100FA000164A02FB03F30371214600F04DFF4FF098
:100FB000000038BD00F008F9114B23604FF002002B
:100FC00038BD0D4BC41A4FEAA4040C4B03FB04F3C9
:100FD0000A79DBB29A420CD10A484FF0AB0100F01B
:100FE00067F94FF0000038BD074B03604FF0030076
:100FF00038BD4FF0000038BD30010020A38B2EBA61
:101000000D10000058430000E52C000038B50446E0
:101010000B8803F1FF33082B2CD8DFE803F0052BF6
:101020002B18182B2B2B11004FF00005458500F1D4
:10103000180021464FF00F0201F0EAF8284638BDAB
:1010400000F0C2F80F4B23604FF0020038BD0E4B8A
:10105000C41A4FEAA4040D4B03FB04F30A79DBB274
:101060009A420CD10A484FF0790100F021F94FF073
:10107000000038BD074B03604FF0030038BD4FF050
:10108000000038BD9910000030010020A38B2EBA5B
:1010900058430000E52C000010B504460B88042BD3
:1010A0001AD0052B2AD0012B3BD14FF006004FF070
:1010B000080100F037FE01461E4BE31A4FEAA30376
:1010C0001D4A02FB03F303711C4B1868224600F013
:1010D000EBFC4FF0000010BD164BC31A4FEAA30300
:1010E000154A02FB03F30A79DBB29A4219D100F0E8
:1010F0006BF8134B23604FF0020010BD0D4BC41A68
:101100004FEAA4040C4B03FB04F30A79DBB29A42C6
:101110000CD10C484FF0910100F0CAF84FF00000DC
:1011200010BD094B23604FF0030010BD4FF00000CD
:1011300010BD00BF30010020A38B2EBA9C3F0000E1
:10114000590F000058430000E52C00002DE9F04144
:101150004FF000052C460A4E0A4F4FF02C087751ED
:1011600008FB046000F118004FF0090101F03AF8A3
:1011700004F1010405F12C05052CF0D1BDE8F08146
:1011800030010020F50B000008B5054B1B68054831
:1011900042680368D31840F8083B00F0CFFE08BD52
:1011A00010E000E00C02002028B14FF02002054BB7
:1011B000C3F8802070474FF00002024BC3F8802034
:1011C000704700BF0060004082B04FF00003019301
:1011D000019B03F1FF320192002BF9D102B070475D
:1011E000144B1A68144BA3FB02134FEA1313B3F109
:1011F000807F10D223F07F4303F1FF330F4A536007
:101200004FF0E0010E4B83F823104FF00003936082
:101210004FF0070313604FF02002094B83F823209F
:10122000A3F540634FF0000283F800234FF0010262
:101230001A607047180800208988888810E000E04C
:1012400000ED00E0704700BF00B583B0164B4FF0D3
:101250002002C3F880204FF00002C3F8802062B65D
:1012600003F5C0439B6913F0800F1BD002A84FF019
:10127000100320F8023D72B602F0ECFC62B6BDF835
:10128000063003F1FF32ADF806205BB1074910F8D4
:10129000013B0B60BDF8063003F1FF32ADF80620CC
:1012A000002BF4D103B000BD0060004000C000403E
:1012B00072B6FEE708B5FFF7FBFF08BD10B5754C29
:1012C00004F10C004FF4C06101F018FD724BD3F82B
:1012D000042142F00102C3F80421D3F8082142F0AE
:1012E0000102C3F8082100BF00BF00BF4FF0402338
:1012F000D3F8002422F00302C3F80024D3F82024FA
:1013000042F00302C3F82024D3F8002542F0030280
:10131000C3F80025D3F8182522F00302C3F81825D6
:10132000D3F80C2522F00302C3F80C25D3F81025BE
:1013300022F00302C3F81025D3F8142522F003028B
:10134000C3F81425D3F81C2542F00302C3F81C256A
:10135000524B19684FEAC102514BA3FB02024FEAFC
:10136000124202F101024FEAD2104E4B5862C2F310
:1013700045029A624FF06002DA62DA6A42F01002C5
:10138000DA621A6B42F4407242F001021A63464B71
:10139000A3FB01234FEA1313636023604FF0FF00A8
:1013A00001F0B2FC4FF00A0001F0CCFC4FF00B0052
:1013B00001F0C8FC4FF00C0001F0C4FC4FF00E002F
:1013C00001F0C0FC4FF0100001F0BCFC4FF0110028
:1013D00001F0B8FC4FF0120001F0B4FC4FF0130024
:1013E00001F0B0FC4FF0140001F0ACFC4FF0150020
:1013F00001F0A8FC4FF0160001F0A4FC4FF017001C
:1014000001F0A0FC4FF0180001F09CFC4FF0190017
:1014100001F098FC4FF01A0001F094FC4FF01C0012
:1014200001F090FC4FF01D0001F08CFC4FF01E000D
:1014300001F088FC4FF0200001F084FC4FF0210007
:1014400001F080FC4FF0220001F07CFC4FF0230003
:1014500001F078FC4FF0240001F074FC4FF02500FF
:1014600001F070FC4FF0270001F06CFC4FF02800F9
:1014700001F068FC4FF0290001F064FC4FF02A00F5
:1014800001F060FC094B1A68094B1A604FF001002B
:1014900010BD00BF0C02002000E00F401808002023
:1014A000C5B3A29100C00040898888889C3F000095
:1014B000F0090020704700BF094B1B6813F4807FC0
:1014C00005D1074B9B68074A1068C01A7047044B48
:1014D0009A68044B58681B68C018801A704700BF90
:1014E00010E000E00C02002030B583B004460D4649
:1014F0000B788DF804304FF000038DF8053000EBC9
:10150000C0014FEA410101A801F106014FF00102BB
:10151000FFF774F9114B1B7A13F0400F1BD0104BDF
:101520001B6823B10F4A52F82420934213D172B69C
:101530004FF0460001F024FCFFF7BEFF02F082F9F5
:101540004FF01100214601F037FD284602F0B4FBB0
:1015500001F0BEFC62B603B030BD00BFC009002080
:10156000000A00206043000030B583B002AD4FF0A8
:10157000100325F8023D72B6134C1BE062B6A26957
:1015800012F0800FFBD0BDF8062002F1FF31ADF85C
:10159000061052B113F8012B2260BDF8062002F1AB
:1015A000FF31ADF80610002AF4D14FF01003ADF86A
:1015B000063072B6284602F04DFB03460028DDD106
:1015C00062B603B030BD00BF00C0004010B500F0EF
:1015D000FFF82A4BD3F8082142F00502C3F808218E
:1015E00000BF00BF00BF264BD3F8002442F020020A
:1015F000C3F80024D3F81C2542F02002C3F81C25B0
:101600004FF00004C3F88040D3F8002422F0100209
:10161000C3F80024D3F81C2542F01002C3F81C259F
:101620004FF00100FFF7A4F9164821462246FFF7C4
:10163000E5F8154821464FF00102FFF7DFF8204694
:10164000FFF73CFE20B911484FF06601FFF730FE6E
:101650000F4BDB7913F0200F0FD072B64FF03D0027
:1016600001F08EFB0B4802F0EDF80B4802F0A6FAF1
:1016700001F02EFC62B6FFF777FF10BD00E00F40CF
:1016800000600040A4460000B4460000744300001F
:10169000C0090020140200207C430000684620F0AE
:1016A00007018D4601B5034840F20711FFF702FE1E
:1016B000FEE700BFC4460000684620F007018D46E3
:1016C00001B5134B134A9A4208D2134A114B1048E2
:1016D00052F8041B43F8041B8342F9D30F4B104A02
:1016E0009A4207D213464FF000010C4A43F8041BFC
:1016F0009342FBD302F0B4FBFEF7FAFC09484FF427
:101700008171FFF7D7FDBDE801408546704700BFF6
:101710000000002000000020DC460000080A002035
:1017200000000020C4460000704700BFEFF30980AE
:10173000704700BF80F30988704700BFEFF308804F
:10174000704700BF80F30888704700BFEFF3128036
:10175000704700BF80F31188704700BFEFF310801F
:10176000704700BF80F31088704700BFEFF313800D
:10177000704700BF80F31388704700BF00BA7047FE
:1017800040BA7047C0BA704790FAA0F0704700BFE7
:10179000D0E84F0FC0B27047D0E85F0F80B27047FB
:1017A00050E8000F704700BFC1E8400F704700BF0E
:1017B000C1E8500F704700BF41E80000704700BF0C
:1017C000EFF31480704700BF80F31488704700BFA8
:1017D00030B482B09A4B9B4A1A6702F5602202F538
:1017E000965202F101021A6602F17D42A2F5805280
:1017F000A2F10F021A66944A1A674FF00003019390
:10180000019BB3F57A7F09D240F2E73200BF019B1A
:1018100003F101030193019B9342F7D9884B8B4A53
:101820001A66894A1A674FF000030193019BB3F5CA
:101830007A7F09D240F2E73200BF019B03F1010336
:101840000193019B9342F7D97D4B814A1A661B6D28
:1018500013F0400F05D17A4A00BF136D13F0400F0B
:10186000FAD0774B7B4A1A66774A1A674FF0000323
:101870000193019BB3F57A7F09D240F2E73200BFB2
:10188000019B03F101030193019B9342F7D96C4B38
:10189000196E1A6F002AB4BF02F0700301F0300312
:1018A000202B40D004D86BB1102B40F0F8800FE013
:1018B000602B66D0702B61D0302B40F0F08047F267
:1018C000305370E0C1F38410634B53F820306AE06A
:1018D0005B4B1B6813F0E04F56D0594B18685F4BB9
:1018E00000EA0303B3F1805F50D0554B18685B4B9F
:1018F00000EA03035A48834204D1514B1B689BB250
:10190000022B45D04E4B1868544B00EA0303554850
:1019100083423FD14A4B1C68A4B25348534B002C1E
:1019200018BF03463FE0464B1B6813F0E04F33D02F
:10193000434B1868494B00EA0303B3F1805F2DD095
:101940003F4B1868454B00EA03034548834204D1E6
:101950003B4B1B689BB2022B22D0394B18683F4B84
:1019600000EA03033F4883421CD1354B1C68A4B2F4
:101970003F48404B002C18BF034614E04FF400438F
:1019800011E04FF480030EE03B4B0CE03A4B0AE0D1
:10199000364B08E0344B06E0384B04E0374B02E0AE
:1019A000344B00E0324B002A03DA12F4006F03D00C
:1019B00031E011F4006F2ED1214C606E246814F0D8
:1019C000E04F07D01E4C2568244C05EA0404B4F10E
:1019D000805F0CD1C0F3481404F1020404FB03F34C
:1019E00000F01F0404F10204B3FBF4F30BE0C0F3B6
:1019F000481404FB03F300F01F0404F101044FEA50
:101A00004404B3FBF4F310F4804F18BF5B0810F4E8
:101A1000004F18BF9B0811F4800F3ED0002A36DA21
:101A200012F0804F2CD012F4006F29D14FEA4303FB
:101A3000C2F3865202F10102B3FBF2F32DE000BFC4
:101A400000E00F401028800710288000C20A8E0492
:101A5000C20ACE04C202CE04904300000000FF7010
:101A600000000110000003100024F400001BB70068
:101A700000093D00C0C62D00C0E1E4007038390007
:101A8000C2F3C55202F10102B3FBF2F305E0C1F368
:101A9000C35101F10101B3FBF1F3024A136002B03B
:101AA00030BC70471808002070B504460D46164635
:101AB00072B6314B5B7813F0400F23D02F4B1B686D
:101AC0000BB183421ED14FF00E0001F059F9FFF720
:101AD000F3FC01F0B7FE304601F0B4FE288801F0B7
:101AE000F9FD204601F0AEFEA87801F093FDE878FC
:101AF00001F090FDE07B01F08DFD207C01F08AFD7E
:101B000001F0E6F9AB781BB1EB7803F10103EB7060
:101B1000636893B965601A4B1D78227D1949885C0A
:101B200019490C18647845EA04041C701B1858788D
:101B30008A5C40EA02025A701BE0E37B23B9134837
:101B40004FF04901FFF7B4FB627BA36843F82250D2
:101B5000637B0BB9237B6373637B03F1FF33637395
:101B6000E37B03F1FF33DBB2E373227C9A4288BF4D
:101B7000237462B670BD00BFC0090020F0090020C8
:101B8000AC090020B044000028440000EC430000F1
:101B9000F8B507460C46057D1D4B5E5D03290BD944
:101BA0001C4B1B888B4207D935B13F2D04D81A4BEB
:101BB00053F82530834204D018484FF03001FFF726
:101BC00077FB72B6164B5B7813F0100F14D0154BE1
:101BD0001B680BB19F420FD14FF00C0001F0D0F801
:101BE000FFF76AFC01F02EFE204601F073FD384637
:101BF00001F028FE01F06CF90B4B1B6803EBC404E9
:101C0000A25D0A4B5B5D42EA0303A35562B6F8BDD1
:101C1000B0440000A00900201C080020F44300008C
:101C2000C0090020F00900209C0900202844000081
:101C300000487047FC43000038B50546047D04F1B8
:101C4000FF33DBB23E2B03D8144B53F8243023B1BF
:101C500013484FF04001FFF72BFB72B60F4B43F8D0
:101C60002450104B5B7813F0040F14D00E4B1B68FC
:101C70000BB19D420FD14FF00A0001F081F8FFF740
:101C80001BFC01F0DFFD284601F0DCFD204601F0E1
:101C9000C1FC01F01DF962B638BD00BF1C08002070
:101CA00004440000C0090020F009002038B50546B2
:101CB000047D04F1FF33DBB23E2B04D8154B53F8FF
:101CC0002430834204D014484FF05401FFF7F0FA57
:101CD00072B64FF000020F4B43F824200F4B5B7895
:101CE00013F0080F14D00E4B1B680BB19D420FD19F
:101CF0004FF00B0001F044F8FFF7DEFB01F0A2FD0E
:101D0000284601F09FFD204601F084FC01F0E0F838
:101D100062B638BD1C08002004440000C009002041
:101D2000F00900202DE9F843054689464FF00004EC
:101D3000234E244FDFF894800AE004F10104E4B25A
:101D40003B78A34204D840464FF03001FFF7B0FA89
:101D500004EB840306EB83039B89AB42EDD31A4B60
:101D6000DB7813F0100F11D072B64FF01C0001F0A9
:101D700007F8FFF7A1FB01F065FD284601F0AAFC7A
:101D8000484601F0A7FC01F0A3F862B604EB84001A
:101D90000B4B03EB800000F05BF9054620B90B48C4
:101DA0004FF03A01FFF784FAA5F8009004F101041E
:101DB000AC704FF00003EB702846BDE8F88300BF1D
:101DC0002409002020090020C00900200C44000044
:101DD000F8B506460F461546164B1B78052B04D959
:101DE00015484FF02E01FFF763FA124B1B7873B1C1
:101DF00003F1FF3303EB83030E4A02EB83031B8AD9
:101E0000AB4204D30C484FF03101FFF751FA094CB3
:101E100004F10402237803EB830302EB83003146D1
:101E20003A462B4600F068F9237803F1010323704A
:101E3000F8BD00BF2009002014440000014B1860C9
:101E4000998070479C0900202DE9F04F83B0074628
:101E500089460288324B1B889A4204D331484FF09E
:101E60003101FFF725FA72B62F4BDB7813F0040F20
:101E700015D04FF01A0000F083FFFFF71DFB01F0B3
:101E8000E1FC484601F0DEFC388801F023FCB8781C
:101E900001F0C0FBF87801F0BDFB01F019F8BB7848
:101EA0001BB1FB7803F10103FB7062B64FF0080130
:101EB0000191DFF880A0DFF880B01C4E019A02F19A
:101EC000FF33DBB201933A8819490B6803EBC20375
:101ED000019A9C5CD4B14FEAC2085FFA88F81AF8FC
:101EE00004501BF805301C404544EDB256F825302F
:101EF00023B90C484FF05901FFF7DAF956F82500DD
:101F000039464A46FFF7D0FD002CE8D1019B002B53
:101F1000D4D1384600F0F4FA03B0BDE8F08F00BF2A
:101F2000A00900201C440000C00900201C0800205B
:101F30009C090020404500006C4400002DE9F04160
:101F4000074672B63D4B93F90330002B0EDA4FF083
:101F50001F0000F015FF3A4B1A6802F101021A60E7
:101F6000186880B201F0B6FB00F0B2FF354B1C6878
:101F7000002C5FD0314DDFF8D4801E46238A03F158
:101F8000FF339BB22382002B4BD1638A0BB1238298
:101F900024E033689C4202D1A368336006E0A36862
:101FA0000BB162685A606368A2689A604FF00003E0
:101FB00063602B7913F0020F10D0D8F800300BB10A
:101FC0009C420BD14FF0210000F0DAFE204601F0D8
:101FD00039FCE06801F036FC00F07AFF2B7913F051
:101FE000200F17D0D8F800300BB19C4212D14FF01F
:101FF000250000F0C5FEFFF75FFA01F023FC204644
:1020000001F020FC208801F065FBE06801F01AFC7B
:1020100000F05EFF62B6E06821463A46FFF744FDF5
:1020200004E062B64FF00002074B1A7072B6A46863
:10203000002CA3D162B6BDE8F08100BFC00900202A
:10204000040A0020A8090020A4090020FC0900209F
:1020500038B5044672B6056855B12B680360038A2B
:1020600003F1FF339BB20382428A9A4288BF4382C4
:10207000104BDB7813F0010F18D00F4B1B6813B116
:102080006268934212D14FF0180000F079FEFFF71A
:1020900013FA01F0D7FB606801F0D4FB208A01F04D
:1020A00019FB608A01F016FB00F012FF62B62846A9
:1020B00038BD00BFC0090020F409002010B5044657
:1020C00018B10A4B1B78834204D209484FF04501EE
:1020D000FFF7EEF872B662B604F1FF3404EB840445
:1020E000044B03EB8404608A10BD00BF200900206C
:1020F000F4440000240900202DE9F041044617466D
:102100001E46884631B1032A04D903F104039BB269
:102110009E4204D330484FF03601FFF7C9F8C4F8A7
:1021200000804FF00403A381042E0CD94FF0040368
:102130004FF0010503F104039BB205F101059E4236
:10214000F8D8A38103E04FF004034FF001051E46C9
:102150009F4204D220484FF04401FFF7A9F8BF1B6B
:102160004FF00103E3812268BE4210D84FEA850593
:10217000C6F10001BF1B00E01A4653191360E28943
:1021800002F10102E2817F18F742F5D300E0134625
:102190004FF000021A60E28922826282C4F8048051
:1021A000A3600E4B93F90230002B12DA0C4B1B6824
:1021B0000BB198450DD172B64FF0170000F0E0FD5D
:1021C000606801F03FFBE08901F084FA00F080FED6
:1021D00062B6BDE8F08100BFFC440000C0090020E9
:1021E000F409002038B504460D46032904D80748F1
:1021F0004FF02901FFF75CF84FF000036360A36024
:10220000E360238263822580A37038BD0845000007
:1022100070B504460D4616462AB10388032B02D931
:10222000436803B921B919484FF03001FFF740F86E
:1022300026826460E56072B6154B1B7913F0010FBE
:102240001AD0144B1B680BB19C4215D14FF02000E3
:1022500000F096FDFFF730F901F0F4FA204601F0A6
:10226000F1FA284601F0EEFA304601F033FA608ABE
:1022700001F030FA00F02CFE074B1B68A36003B19D
:102280005C60054B1C6062B670BD00BF1445000069
:10229000C0090020FC090020A80900200048704760
:1022A0001C450000704700BF08B5FEF7CBFF08BD16
:1022B0002DE9F041FEF794FF154C164FDFF85880DA
:1022C00072B623780BB3237873B1237818F80330F0
:1022D00003F1FF33DBB2E218527818F8022002EB68
:1022E000C30303F0FF0301E04FF0000357F823504E
:1022F00062B6284600F03AF806462846314600F015
:102300004BFA304600F0FCF8DAE7FEF79DFFD7E71E
:10231000AC0900201C08002040450000F8B5044628
:102320000D4616461F4601F1FF33DBB23E2B01D8A6
:10233000069B23B10A484FF06701FEF7B9FF04F18D
:1023400004003146FAB200F0B1F825752046FFF7D7
:1023500073FC2046089900F06DF9FFF705F9F8BD08
:102360002445000008B5FFF7A1FC08BD70B5044680
:1023700072B6436823B93B484FF03001FEF798FF2F
:102380006568E37B227B934231D0A17BA06850F843
:102390002100606001B9A273A27B02F1FF32A27337
:1023A00003F10103E373304B9B7813F0010F55D019
:1023B0002E4B1B680BB19C4250D14FF0100000F027
:1023C000DFFCFFF779F801F03DFA288801F082F987
:1023D000204601F037FAA87801F01CF9E87801F0FE
:1023E00019F9E07B01F016F900F072FD36E04FF0CC
:1023F00000036360227D1E4B995C1E4B5B1858786E
:102400001D4EB25C00EA02025A705B7833B9194B78
:10241000187871184A7800EA02021A70124B9B78F9
:1024200013F0020F1AD0114B1B680BB19C4215D14F
:102430004FF0110000F0A4FCFFF73EF801F002FAA3
:10244000288801F047F9204601F0FCF9A87801F04E
:10245000E1F8E87801F0DEF800F03AFD62B62846CF
:1024600070BD00BF30450000C0090020F009002009
:10247000B0440000AC0900206C44000010B50446D4
:102480003F2803D8074B53F8203023B906484FF0B4
:102490005C01FEF70DFF72B662B6024B53F82430B2
:1024A000187C10BD1C0800203045000038B50D46D2
:1024B00014464FF00003036041600272437283725E
:1024C000C27202730C4B9B7813F0040F12D00B4BAB
:1024D0001B680BB198420DD172B64FF0120000F09C
:1024E0004FFC284601F0AEF9204601F093F800F0C9
:1024F000EFFC62B638BD00BFC0090020F80900201B
:1025000038B504468578002D4DD072B6C378012BBE
:102510001CD903F1FF33C370234BDB7813F0200F7A
:1025200012D04FF01D0000F02BFCFEF7C5FF01F0AC
:1025300089F9208801F0CEF8A07801F06BF8E078F6
:1025400001F068F800F0C4FC62B638BD05F1FF3553
:10255000EDB2154BDB7813F0400F12D04FF01E0098
:1025600000F00EFCFEF7A8FF01F06CF9208801F0E6
:10257000B1F8A07801F04EF8E07801F04BF800F0E7
:10258000A7FC62B6094B1B78AB4204D808484FF051
:102590004601FEF78DFE05EB8505064B03EB850036
:1025A000214600F009F838BDC009002020090020AC
:1025B000384500002409002038B504460D4643681C
:1025C0008B4206D88368994203D8028AC3899A420B
:1025D00004D915484FF02D01FEF76AFE72B6236844
:1025E0002B602560238A03F1010323820F4BDB78E4
:1025F00013F0020F15D00E4B1B6813B162689342A3
:102600000FD14FF0190000F0BBFBFEF755FF01F0B2
:1026100019F9606801F016F9208A01F05BF800F002
:1026200057FC62B638BD00BF40460000C00900201C
:10263000F40900202DE9F04786B005460368984765
:10264000022804D04E484FF02D01FEF731FE4D4ECA
:10265000DFF83C91DFF83CA14B4F07F1040899F8F3
:10266000003013F0080F15D0DAF800300BB19D429E
:1026700010D172B64FF0030000F082FB284601F043
:10268000E1F8304601F0DEF8286801F0DBF800F0F0
:102690001FFC62B62C68009428463946A0472B6878
:1026A000B34266D04FF0000404F10104E4B262B218
:1026B00006A901EB820242F8183C284639469847A1
:1026C0002B68B342F0D1009B2B6063B2052B04DD75
:1026D0002B484FF04401FEF7EBFD63B206AA02EB74
:1026E000830353F8186C28464146B047B8B999F8A7
:1026F000003013F0020F12D0DAF800300BB19D4217
:102700000DD172B64FF0010000F03AFB284601F0FF
:1027100099F8304601F096F800F0DAFB62B604F161
:10272000FF34E4B214F0800FD7D0009E284617493A
:10273000B047022893D02E60154B1B7813F0100F72
:102740001BD0144B1B680BB19D4216D172B64FF0D3
:10275000040000F015FBFEF7AFFE01F073F8284609
:1027600001F070F8286801F06DF800F0B1FB62B676
:1027700003E02C604FF00004AFE706B0BDE8F0873F
:1027800048460000E52C0000684600007446000042
:10279000C0090020EC0900202DE9F04F87B0054664
:1027A0008B460668944B5B7813F0010F1AD0934B5D
:1027B0001B680BB1984215D172B64FF0080000F0BB
:1027C000DFFAFEF779FE01F03DF8BBF8000000F0FB
:1027D00081FF284601F036F8304601F033F800F06A
:1027E00077FB62B6D5F8009028465946C8470328BB
:1027F000F8D0022840F014822B68009301964E45D1
:1028000024D07F4C7C4FA4F1080828462146B047CD
:10281000C8B93B7813F0040F12D0784B1B680BB18A
:102820009D420DD172B64FF0020000F0A9FA284681
:1028300001F008F8304601F005F800F049FB62B6F7
:1028400028464146B0472E68B145DED1009CA145DF
:1028500020D128466A49C847002840F03782664B95
:102860001B7813F0040F00F03182644B1B6813B126
:102870009D4240F02B8272B64FF0020000F080FAC9
:10288000284600F0DFFF484600F0DCFF00F020FBA8
:1028900062B61BE228465B49A0472E68B14500F0AE
:1028A000158228465749C8472F68B74220D1284685
:1028B0005349C847002840F009824F4B1B7813F05A
:1028C000040F00F003824D4B1B6813B19D4240F092
:1028D000FD8172B64FF0020000F052FA284600F077
:1028E000B1FF484600F0AEFF00F0F2FA62B6EDE14B
:1028F000BC4225D128464249C847002840F0F6800E
:102900003D4B1B7813F0040F00F0F0803B4B1B682D
:1029100013B19D4240F0EA8072B64FF0020000F021
:102920002FFA284600F08EFF484600F08BFF00F09B
:10293000CFFA62B6DAE014F0800F00F0AA80D5E09A
:10294000019628462F49B047032829D14FF00104AA
:10295000DFF8B08000E0344604F10106F6B22B68DF
:1029600072B206A901EB820242F8183C994508D1DF
:1029700076B2052EDFDD24484FF07A01FEF798FC91
:10298000D9E72846414698470328E4D0344676B232
:10299000052E07DD1C484FF08501FEF789FC01E09C
:1029A0004FF0010428461649C847B8B9124B1B78A6
:1029B00013F0040F12D0114B1B680BB19D420DD1C7
:1029C00072B64FF0020000F0DBF9284600F03AFF43
:1029D000484600F037FF00F07BFA62B623465AB251
:1029E00006A901EB820252F8182C97420ED103F18E
:1029F000FF33DCB29FE700BFC0090020EC090020D4
:102A000070460000684600005446000003F1FF33A2
:102A1000DBB213F0800FE2D0934EDFF86482A6F1B0
:102A2000080A28463146B847D0B998F8003013F064
:102A3000040F12D08D4B1B680BB19D420DD172B6A5
:102A40004FF0020000F09CF9284600F0FBFE3846EB
:102A500000F0F8FE00F03CFA62B628465146B8474E
:102A60002F6823465AB206A901EB820252F8182CAD
:102A7000BA4203D103F1FF33DCB25CE703F1FF3369
:102A8000DBB213F0800FEDD04FF00102002AC8D165
:102A900051E7774FDFF8E881DFF8D0A163B206A9EC
:102AA00001EB830353F8186C28463946B047B8B990
:102AB00098F8003013F0020F12D0DAF800300BB1A2
:102AC0009D420DD172B64FF0010000F059F9284631
:102AD00000F0B8FE304600F0B5FE00F0F9F962B63D
:102AE00004F1FF34E4B214F0800FD7D0009E2E60C2
:102AF000DFF88CA1DFF8788168E09AF8003013F0F5
:102B0000080F15D0594A13680BB19D4210D172B607
:102B10004FF0030000F034F9284600F093FE3046F1
:102B200000F090FE286800F08DFE00F0D1F962B64A
:102B30002C68009428464F49A0472B68B34200F008
:102B4000C8804FF000044B4F04F10104E4B262B2BC
:102B500006A901EB820242F8183C284639469847FC
:102B60002B68B342F0D1009B2B6063B2052B04DDD0
:102B700041484FF0D901FEF79BFB63B206AA02EB76
:102B8000830353F8186C28464146B047B8B99AF801
:102B9000003013F0020F12D034490B680BB19D4284
:102BA0000DD172B64FF0010000F0EAF8284600F0AF
:102BB00049FE304600F046FE00F08AF962B604F1A4
:102BC000FF34E4B214F0800FD7D0009E28462B4982
:102BD000B047022891D03446294B1B7813F0400FA0
:102BE00070D0224B1B680BB19D426BD172B64FF077
:102BF000060000F0C5F8FEF75FFC00F023FEBBF80E
:102C0000000000F067FD284600F01CFE484600F07A
:102C100019FE204600F016FE00F05AF962B651E0A7
:102C200001282FD1164B93F90030002B4ADA0F4BB5
:102C30001B680BB19D4245D172B64FF0070000F002
:102C40009FF8FEF739FC00F0FDFDBBF8000000F036
:102C500041FD284600F0F6FD304600F0F3FD00F09F
:102C600037F962B62EE000BF70460000EC09002084
:102C70006C460000684600005446000074460000A0
:102C8000C0090020154B1B7813F0200F1AD0144BED
:102C90001B680BB19D4215D172B64FF0050000F0D4
:102CA0006FF8FEF709FC00F0CDFDBBF8000000F066
:102CB00011FD284600F0C6FD484600F0C3FD00F0B7
:102CC00007F962B62E6007B0BDE8F08F4FF0000440
:102CD000DFE62C604FF000044FE700BFC009002082
:102CE000EC0900204FF00100704700BF004870471A
:102CF000604600000048704778460000014B1860AD
:102D000099807047B8090020FF280BD10C4901F1C8
:102D1000070301F127014FF0FF0203F8012F8B4257
:102D2000FBD17047064B03EBD00300F007004FF0D8
:102D3000010202FA00F01A7A10431872704700BFBD
:102D4000B8090020FF280BD10C4901F1070301F15C
:102D500027014FF0000203F8012F8B42FBD170478F
:102D6000064B03EBD00300F007004FF0010202FA1C
:102D700000F01A7A22EA000018727047B8090020A1
:102D800010B4524A92F8283003F10103DBB282F802
:102D9000283082F82930A3F17D02D2B2012A2FD83F
:102DA0004A4B5A8D19684FF07D048C545A8D02F1AC
:102DB000010292B25A859B88934203D1434B4FF054
:102DC00000025A85414B9A8D02F101029A855A8D73
:102DD000196893F8284084F020048C545A8D02F12D
:102DE000010292B25A859B88934203D1374B4FF030
:102DF00000025A85354B9A8D02F101029A8514E042
:102E0000324A518D14686354538D03F101039BB210
:102E1000538592889A4203D12C4B4FF000025A8579
:102E20002A4B9A8D02F101029A85284B93F82920AA
:102E3000821883F82920A0F17D03DBB2012B2DD865
:102E4000224B5A8D19684FF07D048C545A8D02F133
:102E5000010292B25A859B88934203D11B4B4FF0DB
:102E600000025A85194B9A8D02F101029A855A8DFA
:102E7000196880F0200088545A8D02F1010292B244
:102E80005A859B88934203D1104B4FF000025A851C
:102E90000E4B9A8D02F101029A8514E00B4B5A8D6C
:102EA000196888545A8D02F1010292B25A859B88A2
:102EB000934203D1054B4FF000025A85034B9A8D84
:102EC00002F101029A8510BC704700BFB8090020CA
:102ED000384B93F829206FEA0202D2B283F82920F6
:102EE000A2F17D03DBB2012B2FD8324B5A8D19682A
:102EF0004FF07D0088545A8D02F1010292B25A853A
:102F00009B88934203D12B4B4FF000015985294BED
:102F10009A8D02F101029A855A8D196893F8290059
:102F200080F0200088545A8D02F1010292B25A8535
:102F30009B88934203D11F4B4FF000025A851D4BD3
:102F40009A8D02F101029A8514E01A4B598D186886
:102F500042545A8D02F1010292B25A859B889342E3
:102F600003D1144B4FF000015985124B9A8D02F199
:102F700001029A850F4B5A8D19684FF07E008854D4
:102F80005A8D02F1010292B25A859B889A4203D16E
:102F9000084A4FF00001518506498A8D02F101026D
:102FA00092B28A85934203D20A46498DD185938590
:102FB000704700BFB809002030B44F4B93F8292068
:102FC000821883F82920A0F17D03DBB2012B2DD8D4
:102FD000494B5A8D1C684FF07D05A5545A8D02F15E
:102FE000010292B25A859B88934203D1424B4FF023
:102FF00000025A85404B9A8D02F101029A855A8D42
:103000001C6880F02000A0545A8D02F1010292B297
:103010005A859B88934203D1374B4FF000025A8563
:10302000354B9A8D02F101029A8514E0324B5A8D8C
:103030001C68A0545A8D02F1010292B25A859B88F5
:10304000934203D12C4B4FF000025A852A4B9A8DA4
:1030500002F101029A85284B93F829208A1883F8F7
:103060002920A1F17D03DBB2012B2DD8224B5A8DF3
:1030700018684FF07D0484545A8D02F1010292B217
:103080005A859B88934203D11B4B4FF000025A850F
:10309000194B9A8D02F101029A855A8D186881F0B8
:1030A000200181545A8D02F1010292B25A859B8807
:1030B000934203D1104B4FF000025A850E4B9A8D6C
:1030C00002F101029A8514E00B4B5A8D1868815465
:1030D0005A8D02F1010292B25A859B88934203D124
:1030E000054B4FF000025A85034B9A8D02F1010205
:1030F0009A8530BC704700BFB809002030B4784BC7
:1031000093F82920821883F82920A0F17D03DBB2EF
:10311000012B2DD8724B5A8D1C684FF07D05A5549C
:103120005A8D02F1010292B25A859B88934203D1D3
:103130006B4B4FF000025A85694B9A8D02F10102E8
:103140009A855A8D1C6880F02000A0545A8D02F197
:10315000010292B25A859B88934203D1604B4FF093
:10316000000058855E4B9A8D02F101029A8514E0A9
:103170005B4B5A8D1C68A0545A8D02F1010292B229
:103180005A859B88934203D1554B4FF000025A85D4
:10319000534B9A8D02F101029A85CAB2504B93F8B3
:1031A0002900101883F82900A2F17D03DBB2012B5E
:1031B0002DD84B4B588D1C684FF07D052554588DEC
:1031C00000F1010080B258859B88834203D1444BB3
:1031D0004FF000005885424B988D00F10100988512
:1031E000588D1C6882F0200222545A8D02F101028F
:1031F00092B25A859B88934203D1394B4FF000021B
:103200005A85374B9A8D02F101029A8514E0344BAE
:10321000588D1C6822545A8D02F1010292B25A85CF
:103220009B88934203D12E4B4FF0000058852C4BC6
:103230009A8D02F101029A854FEA1121CBB2284AF8
:1032400092F82900181882F82900A3F17D02D2B261
:10325000012A2DD8224A518D10684FF07D04445424
:10326000518D01F1010189B2518592888A4203D1C1
:103270001B4A4FF000015185194A918D01F101015E
:103280009185518D106883F020034354538D03F1D1
:1032900001039BB2538592889A4203D1104B4FF0A1
:1032A00000025A850E4B9A8D02F101029A8514E0B4
:1032B0000B4B5A8D186881545A8D02F1010292B25B
:1032C0005A859B88934203D1054B4FF000005885E7
:1032D000034B9A8D02F101029A8530BC704700BF02
:1032E000B809002030B4954B93F82920821883F850
:1032F0002920A0F17D03DBB2012B2DD88F4B5A8DF5
:103300001C684FF07D05A5545A8D02F1010292B25E
:103310005A859B88934203D1884B4FF000025A850F
:10332000864B9A8D02F101029A855A8D1C6880F0B5
:103330002000A0545A8D02F1010292B25A859B8856
:10334000934203D17D4B4FF0000058857B4B9A8D03
:1033500002F101029A8514E0784B5A8D1C68A05442
:103360005A8D02F1010292B25A859B88934203D191
:10337000724B4FF000025A85704B9A8D02F1010298
:103380009A85CAB26D4B93F82900101883F829006A
:10339000A2F17D03DBB2012B2DD8684B588D1C6840
:1033A0004FF07D052554588D00F1010080B25885FD
:1033B0009B88834203D1614B4FF0000058855F4BDF
:1033C000988D00F101009885588D1C6882F02002CC
:1033D00022545A8D02F1010292B25A859B8893427F
:1033E00003D1564B4FF000025A85544B9A8D02F18F
:1033F00001029A8514E0514B588D1C6822545A8D55
:1034000002F1010292B25A859B88934203D14B4B41
:103410004FF000005885494B9A8D02F101029A85C0
:103420004FEA1121CAB2454B93F82900101883F8CE
:103430002900A2F17D03DBB2012B2DD83F4B588D23
:103440001C684FF07D052554588D00F1010080B2B5
:1034500058859B88834203D1384B4FF00000588534
:10346000364B988D00F101009885588D1C6882F0CC
:10347000200222545A8D02F1010292B25A859B8891
:10348000934203D12D4B4FF000025A852B4B9A8D5E
:1034900002F101029A8514E0284B588D1C682254D1
:1034A0005A8D02F1010292B25A859B88934203D150
:1034B000224B4FF000005885204B9A8D02F10102FB
:1034C0009A854FEA1121CAB21C4B93F829001018B3
:1034D00083F82900A2F17D03DBB2012B30D8174B12
:1034E000588D1C684FF07D052554588D00F1010062
:1034F00080B258859B88834203D1104B4FF0000067
:1035000058850E4B988D00F101009885588D1C68E8
:1035100082F0200222545A8D02F1010292B25A85A1
:103520009B88934203D1054B4FF000025A85034B11
:103530009A8D02F101029A8517E000BFB8090020B8
:10354000334B588D1C6822545A8D02F1010292B2FD
:103550005A859B88934203D12D4B4FF0000058852C
:103560002B4B9A8D02F101029A854FEA1121284BCB
:1035700093F829208A1883F82920A1F17D03DBB272
:10358000012B2DD8224B5A8D18684FF07D0484549E
:103590005A8D02F1010292B25A859B88934203D15F
:1035A0001B4B4FF000025A85194B9A8D02F1010214
:1035B0009A855A8D186881F0200181545A8D02F144
:1035C000010292B25A859B88934203D1104B4FF06F
:1035D000000058850E4B9A8D02F101029A8514E085
:1035E0000B4B5A8D186881545A8D02F1010292B228
:1035F0005A859B88934203D1054B4FF000025A85B0
:10360000034B9A8D02F101029A8530BC704700BFCE
:10361000B809002010B42A4B1A7882181A70A0F149
:103620007D03DBB2012B32D8264B1A882649096864
:103630004FF07D048C541A8802F1010292B21A8074
:10364000224B1B88934203D11E4B4FF000021A807D
:103650001F4B1A8802F101021A801A4B1A881A4964
:10366000096880F0200088541A8802F1010292B2A1
:103670001A80164B1B88934203D1124B4FF0000265
:103680001A80134B1A8802F101021A8016E00D4BC2
:103690001A880D49096888541A8802F1010292B209
:1036A0001A800A4B1B88934203D1064B4FF000024D
:1036B0001A80074B1A8802F101021A8010BC704769
:1036C000E1090020E2090020B8090020BC0900201F
:1036D000E409002030B4C3B2554A1178591811706A
:1036E000A3F17D02D2B2012A32D8524A1188524C3B
:1036F00024684FF07D056554118801F1010189B2FC
:1037000011804E4A12888A4203D14A4A4FF0000182
:1037100011804B4A118801F101011180454A11883D
:10372000454C246883F020036354138803F101039C
:103730009BB21380414A12889A4203D13D4B4FF00D
:1037400000021A803E4B1A8802F101021A8016E02C
:10375000384A1188384C24686354138803F10103F4
:103760009BB21380354A12889A4203D1314B4FF0F5
:1037700000011980324B1A8802F101021A804FEAC7
:103780001020C3B22A4A117859181170A3F17D0292
:10379000D2B2012A32D8274A1188274800684FF050
:1037A0007D044454118801F1010189B21180234A3A
:1037B00012888A4203D11F4A4FF000011180204A2B
:1037C000118801F1010111801A4A11881A48006814
:1037D00083F020034354138803F101039BB2138049
:1037E000164A12889A4203D1124B4FF000021A80F7
:1037F000134B1A8802F101021A8016E00D4B1A8849
:103800000D49096888541A8802F1010292B21A809F
:103810000A4B1B88934203D1064B4FF000011980DD
:10382000074B1A8802F101021A8030BC704700BFB2
:10383000E1090020E2090020B8090020BC090020AD
:10384000E409002030B4C3B2734A117859181170DA
:10385000A3F17D02D2B2012A32D8704A1188704C8D
:1038600024684FF07D056554118801F1010189B28A
:1038700011806C4A12888A4203D1684A4FF00001D5
:103880001180694A118801F101011180634A118890
:10389000634C246883F020036354138803F101030D
:1038A0009BB213805F4A12889A4203D15B4B4FF060
:1038B00000021A805C4B1A8802F101021A8016E09D
:1038C000564A1188564C24686354138803F1010347
:1038D0009BB21380534A12889A4203D14F4B4FF048
:1038E00000011980504B1A8802F101021A804FEA38
:1038F0001020C3B2484A117859181170A3F17D0203
:10390000D2B2012A32D8454A1188454C24684FF07A
:103910007D056554118801F1010189B21180414A88
:1039200012888A4203D13D4A4FF0000111803E4A7D
:10393000118801F101011180384A1188384C24683E
:1039400083F020036354138803F101039BB21380B7
:10395000344A12889A4203D1304B4FF000021A8049
:10396000314B1A8802F101021A8016E02B4A1188A5
:103970002B4C24686354138803F101039BB213801A
:10398000284A12889A4203D1244B4FF00001198033
:10399000254B1A8802F101021A804FEA1020C3B2A7
:1039A0001D4A117859181170A3F17D02D2B2012A73
:1039B0003CD81A4A11881A4C24684FF07D0565548A
:1039C000118801F1010189B21180164A12888A42D8
:1039D00003D1124A4FF000011180134A118801F1FE
:1039E000010111800D4A11880D4C246883F02003D9
:1039F0006354138803F101039BB21380094A1288B0
:103A00009A4203D1054B4FF000021A80064B1A88E8
:103A100002F101021A8020E0E1090020E209002001
:103A2000B8090020BC090020E4090020364A1188AA
:103A3000364C24686354138803F101039BB213804E
:103A4000334A12889A4203D12F4B4FF0000119805C
:103A5000304B1A8802F101021A804FEA10202E4BD7
:103A60001A7882181A70A0F17D03DBB2012B32D8CC
:103A7000254B1A88254909684FF07D048C541A8813
:103A800002F1010292B21A80214B1B88934203D1AA
:103A90001D4B4FF000021A801E4B1A8802F10102E2
:103AA0001A80194B1A881949096880F02000885437
:103AB0001A8802F1010292B21A80154B1B889342B8
:103AC00003D1114B4FF000011980124B1A8802F1FB
:103AD00001021A8016E00C4B1A880C4909688854B8
:103AE0001A8802F1010292B21A80094B1B88934294
:103AF00003D1054B4FF000021A80064B1A8802F1E1
:103B000001021A8030BC7047E2090020B809002089
:103B1000BC090020E4090020E10900202DE9F003A0
:103B200002782AB3204C214B214F224E4FF0000C3B
:103B3000214925785219227005461A88D7F8008045
:103B400090F8009008F802901A8802F1010292B2EF
:103B50001A80B6F80080904508BFA3F800C00A8814
:103B600002F101020A80427800F10100002AE0D14E
:103B70000E4B1A880E4909684FF0000088541A88C5
:103B800002F1010292B21A800A4B1B88934203D1C0
:103B9000064B4FF000021A80074B1A8802F101020F
:103BA0001A80BDE8F0037047E1090020E209002017
:103BB000B8090020BC090020E40900202DE9F0012B
:103BC000037803B31E4C1F4A1F4F204E4FF0000CCA
:103BD0001F4925785D1925701588D7F8008008F8E9
:103BE0000530138803F101039BB2138035889D4291
:103BF00008BFA2F800C00B8803F101030B8010F886
:103C0000013F002BE5D10F4B1A880F4909684FF08F
:103C1000000088541A8802F1010292B21A800B4BFC
:103C20001B88934203D1074B4FF000021A80084BC8
:103C30001A8802F101021A80BDE8F001704700BF46
:103C4000E1090020E2090020B8090020BC09002099
:103C5000E409002030B4144B198811B901800846DA
:103C60001FE0124C124B25881A88AA1A92B28A4277
:103C700028BF0A460588AA4228BF2A4602800A4968
:103C80000888801A08801988521892B21A802388EE
:103C9000934203D1064B4FF000021A80054B18687F
:103CA000401830BC704700BFE4090020BC09002068
:103CB000E6090020B80900202DE9F0012E4B1A88F2
:103CC0002E4909684FF008048C541A8802F1010249
:103CD00092B21A802A4B1B88934203D1264B4FF095
:103CE00000021A80274B1A8802F101021A80264B23
:103CF0001A7802F108021A7002780AB31E4B1F4F9D
:103D00001F4E4FF0000C1F4C1F491D88D7F8008034
:103D100008F805201A8802F1010292B21A8035884B
:103D2000954208BFA3F800C0228802F10102228058
:103D30000D780278AA180A7010F8012F002AE4D131
:103D40000D4B1A880D4909684FF0000088541A88F5
:103D500002F1010292B21A80094B1B88934203D1EF
:103D6000054B4FF000021A80064B1A8802F101023F
:103D70001A80BDE8F0017047E2090020B809002070
:103D8000BC090020E4090020E10900202DE9F00130
:103D90002E4B1A882E4909684FF008048C541A8853
:103DA00002F1010292B21A802A4B1B88934203D17E
:103DB000264B4FF000021A80274B1A8802F10102AD
:103DC0001A80264B1A7802F108021A7003780BB396
:103DD0001E4A1F4F1F4E4FF0000C1F4D1F4C1188E5
:103DE000D7F8008008F80130118801F1010189B28B
:103DF0001180B6F80080884508BFA2F800C0298865
:103E000001F10101298021785B18237010F8013F2E
:103E1000002BE4D10D4B1A880D4909684FF00000C2
:103E200088541A8802F1010292B21A80094B1B8849
:103E3000934203D1054B4FF000021A80064B1A88BB
:103E400002F101021A80BDE8F0017047E20900208A
:103E5000B8090020BC090020E4090020E109002085
:103E600070B500240C4D0D4E761BB61003E055F8CE
:103E7000043B01349847B442F9D1094DFDF754FC95
:103E8000084E0024761BB61003E055F8043B0134BD
:103E90009847B442F9D170BDDC460000DC46000012
:103EA000DC460000DC4600006C5F736D6C506F6F89
:103EB0006C53746F000000006C5F7461626C65513C
:103EC0007565756553746F006C5F7068696C6F51D0
:103ED0007565756553746F5B305D00006C5F70686D
:103EE000696C6F517565756553746F5B315D00006A
:103EF0006C5F7068696C6F517565756553746F5B45
:103F0000325D00006C5F7068696C6F517565756536
:103F100053746F5B335D00006C5F7068696C6F5148
:103F20007565756553746F5B345D0000266C5F7456
:103F300061626C6500000000265148736D5F746F0C
:103F400070000000265461626C655F696E69746977
:103F5000616C0000265461626C655F7365727669FE
:103F60006E670000444F4E455F5349470000000014
:103F70004541545F534947005445524D494E4154C1
:103F8000455F53494700000048554E4752595F531B
:103F9000494700007461626C652E630000010020D7
:103FA000B080048010400000B08004801240000007
:103FB000B180048010400000B180048012400000F5
:103FC000000000000000004F000000070007001480
:103FD0007F147F14242A7F2A12231308646236492F
:103FE0005522500005030000001C22410000412220
:103FF0001C0014083E081408083E08080050300051
:10400000000808080808006060000020100804028A
:104010003E5149453E00427F4000426151494621A0
:1040200041454B311814127F1027454545393C4A0C
:10403000494930017109050336494949360649495C
:10404000291E0036360000005636000008142241B2
:10405000001414141414004122140802015109061A
:10406000324979413E7E1111117E7F494949363EE0
:10407000414141227F4141221C7F494949417F09F9
:104080000909013E4149497A7F0808087F00417FBC
:1040900041002040413F017F081422417F404040C1
:1040A000407F020C027F7F0408107F3E4141413E69
:1040B0007F090909063E4151215E7F0919294646BB
:1040C0004949493101017F01013F4040403F1F20E4
:1040D00040201F3F4038403F6314081463070870B6
:1040E00008076151494543007F414100020408101F
:1040F000200041417F000402010204404040404052
:10410000000102040020545454787F484444383855
:1041100044444420384444487F3854545418087E5A
:104120000901020C5252523E7F0804047800447D7B
:1041300040002040443D007F1028440000417F4063
:10414000007C041804787C0804047838444444381B
:104150007C14141408081414187C7C0804040848FF
:1041600054545420043F4440203C4040207C1C20B8
:1041700040201C3C4030403C44281028440C505007
:10418000503C4464544C44000836410000007F0019
:104190000000413608000201020402000480AE80E3
:1041A000E30680AD808A80E30680A8801F80E30458
:1041B00080C880E30480A080E30480D880E304808A
:1041C0000580E304804080E3068081805D80E30613
:1041D00080D9801180E30680D5800180E30680D3FA
:1041E000800080E30480AF80E30000000480AE80A4
:1041F000E304800480E304801280E3068081802B46
:1042000080E30480A180E304804080E30680D380C3
:104210000080E30680A8800F80E30480A480E3048C
:1042200080A680E30480B080E30480C880E3068039
:10423000D5807280E30680D8800080E30680D98034
:104240002280E30680DA801280E30680DB800F8024
:10425000E30680AD808B80E30480AF80E300000044
:10426000266C5F7068696C6F5B305D00266C5F70F8
:1042700068696C6F5B305D2E74696D65457674009E
:10428000266C5F7068696C6F5B315D00266C5F70D7
:1042900068696C6F5B315D2E74696D65457674007D
:1042A000266C5F7068696C6F5B325D00266C5F70B6
:1042B00068696C6F5B325D2E74696D65457674005C
:1042C000266C5F7068696C6F5B335D00266C5F7095
:1042D00068696C6F5B335D2E74696D65457674003B
:1042E000266C5F7068696C6F5B345D00266C5F7074
:1042F00068696C6F5B345D2E74696D65457674001A
:10430000265068696C6F5F696E697469616C000042
:10431000265068696C6F5F7468696E6B696E6700C0
:10432000265068696C6F5F68756E6772790000006F
:10433000265068696C6F5F656174696E6700000084
:1043400048554E4752595F534947000054494D451F
:104350004F55545F534947007068696C6F2E630076
:10436000300100205C01002088010020B401002001
:10437000E00100206273702E63000000266C5F5322
:1043800079735469636B5F48616E646C6572000099
:1043900040420F0000201C0080841E000080250089
:1043A000999E36000040380000093D0000803E0024
:1043B00000004B00404B4C0000204E00808D5B0005
:1043C00000C05D000080700000127A0000007D00D7
:1043D00080969800001BB7000080BB00C0E8CE00AC
:1043E000647ADA000024F4000000FA0071615F666C
:1043F00069666F0071615F7375620000342E322E42
:104400003034000071665F616374000071665F6E36
:104410006577000071665F706F6F6C0071665F702A
:104420007370756200000000000102040810204053
:10443000800102040810204080010204081020407E
:10444000800102040810204080010204081020406E
:10445000800102040810204080010204081020405E
:10446000800102040810204080000000FFFEFDFBD8
:10447000F7EFDFBF7FFEFDFBF7EFDFBF7FFEFDFB4A
:10448000F7EFDFBF7FFEFDFBF7EFDFBF7FFEFDFB3A
:10449000F7EFDFBF7FFEFDFBF7EFDFBF7FFEFDFB2A
:1044A000F7EFDFBF7FFEFDFBF7EFDFBF7F00000010
:1044B00000000000000000000001010101010101F5
:1044C00001020202020202020203030303030303C6
:1044D0000304040404040404040505050505050596
:1044E0000506060606060606060707070707070766
:1044F00007000000716D705F67657400716D705F1B
:10450000696E6974000000007174655F63746F7296
:10451000000000007174655F61726D00342E312EF1
:10452000303500007176616E696C6C6100000000CE
:1045300071615F6765745F0071665F6763000000AB
:10454000000102020303030304040404040404043A
:10455000050505050505050505050505050505050B
:1045600006060606060606060606060606060606EB
:1045700006060606060606060606060606060606DB
:1045800007070707070707070707070707070707BB
:1045900007070707070707070707070707070707AB
:1045A000070707070707070707070707070707079B
:1045B000070707070707070707070707070707078B
:1045C000080808080808080808080808080808086B
:1045D000080808080808080808080808080808085B
:1045E000080808080808080808080808080808084B
:1045F000080808080808080808080808080808083B
:10460000080808080808080808080808080808082A
:10461000080808080808080808080808080808081A
:10462000080808080808080808080808080808080A
:1046300008080808080808080808080808080808FA
:10464000716D705F707574007168736D5F696E690C
:10465000000000007168736D5F6469730000000002
:10466000342E322E30340000000000000100000023
:104670000200000003000000342E322E303400000F
:1046800068756E67727920200000000065617469AA
:104690006E672020000000007468696E6B696E67A9
:1046A0000000000044696E696E67205068696C6F95
:1046B0007300000030202C31202C32202C33202C91
:1046C00034000000737461727475705F73746D33BD
:0C46D00032663130785F636C000000003F
:04000003000016B92A
:00000001FF
